{
  "address": "0x9D4047BA0F46680D77E4cB6AfA4680FFc4E44743",
  "abi": [
    {
      "inputs": [
        {
          "internalType": "address",
          "name": "_token1",
          "type": "address"
        },
        {
          "internalType": "address",
          "name": "_token2",
          "type": "address"
        },
        {
          "internalType": "address",
          "name": "_staking",
          "type": "address"
        },
        {
          "internalType": "address",
          "name": "_referralManager",
          "type": "address"
        },
        {
          "internalType": "address",
          "name": "_squads",
          "type": "address"
        }
      ],
      "stateMutability": "nonpayable",
      "type": "constructor"
    },
    {
      "anonymous": false,
      "inputs": [
        {
          "indexed": true,
          "internalType": "address",
          "name": "previousOwner",
          "type": "address"
        },
        {
          "indexed": true,
          "internalType": "address",
          "name": "newOwner",
          "type": "address"
        }
      ],
      "name": "OwnershipTransferred",
      "type": "event"
    },
    {
      "inputs": [
        {
          "internalType": "address",
          "name": "user",
          "type": "address"
        },
        {
          "internalType": "uint256",
          "name": "level",
          "type": "uint256"
        }
      ],
      "name": "getUserReferralsFullInfoByLevel",
      "outputs": [
        {
          "components": [
            {
              "internalType": "address",
              "name": "referralAddress",
              "type": "address"
            },
            {
              "internalType": "uint256",
              "name": "level",
              "type": "uint256"
            },
            {
              "internalType": "uint256",
              "name": "activationDate",
              "type": "uint256"
            },
            {
              "internalType": "uint256",
              "name": "token1Balance",
              "type": "uint256"
            },
            {
              "internalType": "uint256",
              "name": "token2Balance",
              "type": "uint256"
            },
            {
              "internalType": "bool",
              "name": "isReferralSubscriptionActive",
              "type": "bool"
            },
            {
              "internalType": "bool",
              "name": "isStakingSubscriptionActive",
              "type": "bool"
            }
          ],
          "internalType": "struct Helper.ReferralFullInfo[]",
          "name": "",
          "type": "tuple[]"
        }
      ],
      "stateMutability": "view",
      "type": "function"
    },
    {
      "inputs": [
        {
          "internalType": "uint256",
          "name": "planId",
          "type": "uint256"
        },
        {
          "internalType": "address",
          "name": "user",
          "type": "address"
        }
      ],
      "name": "getUserSquadInfo",
      "outputs": [
        {
          "components": [
            {
              "components": [
                {
                  "internalType": "uint256",
                  "name": "subscription",
                  "type": "uint256"
                },
                {
                  "internalType": "uint256",
                  "name": "squadsFilled",
                  "type": "uint256"
                }
              ],
              "internalType": "struct ISquads.Squad",
              "name": "squadStatus",
              "type": "tuple"
            },
            {
              "components": [
                {
                  "internalType": "uint256",
                  "name": "subscriptionCost",
                  "type": "uint256"
                },
                {
                  "internalType": "uint256",
                  "name": "reward",
                  "type": "uint256"
                },
                {
                  "internalType": "uint256",
                  "name": "stakingThreshold",
                  "type": "uint256"
                },
                {
                  "internalType": "uint256",
                  "name": "squadSize",
                  "type": "uint256"
                },
                {
                  "internalType": "uint256",
                  "name": "stakingPlanId",
                  "type": "uint256"
                },
                {
                  "internalType": "bool",
                  "name": "isActive",
                  "type": "bool"
                }
              ],
              "internalType": "struct ISquads.SquadPlan",
              "name": "plan",
              "type": "tuple"
            },
            {
              "internalType": "address[]",
              "name": "members",
              "type": "address[]"
            },
            {
              "internalType": "bool",
              "name": "userHasSufficientStaking",
              "type": "bool"
            }
          ],
          "internalType": "struct Helper.UserSquadInfo",
          "name": "",
          "type": "tuple"
        }
      ],
      "stateMutability": "view",
      "type": "function"
    },
    {
      "inputs": [
        {
          "internalType": "address",
          "name": "user",
          "type": "address"
        }
      ],
      "name": "getUserSquadsInfo",
      "outputs": [
        {
          "components": [
            {
              "components": [
                {
                  "internalType": "uint256",
                  "name": "subscription",
                  "type": "uint256"
                },
                {
                  "internalType": "uint256",
                  "name": "squadsFilled",
                  "type": "uint256"
                }
              ],
              "internalType": "struct ISquads.Squad",
              "name": "squadStatus",
              "type": "tuple"
            },
            {
              "components": [
                {
                  "internalType": "uint256",
                  "name": "subscriptionCost",
                  "type": "uint256"
                },
                {
                  "internalType": "uint256",
                  "name": "reward",
                  "type": "uint256"
                },
                {
                  "internalType": "uint256",
                  "name": "stakingThreshold",
                  "type": "uint256"
                },
                {
                  "internalType": "uint256",
                  "name": "squadSize",
                  "type": "uint256"
                },
                {
                  "internalType": "uint256",
                  "name": "stakingPlanId",
                  "type": "uint256"
                },
                {
                  "internalType": "bool",
                  "name": "isActive",
                  "type": "bool"
                }
              ],
              "internalType": "struct ISquads.SquadPlan",
              "name": "plan",
              "type": "tuple"
            },
            {
              "internalType": "address[]",
              "name": "members",
              "type": "address[]"
            },
            {
              "internalType": "bool",
              "name": "userHasSufficientStaking",
              "type": "bool"
            }
          ],
          "internalType": "struct Helper.UserSquadInfo[]",
          "name": "",
          "type": "tuple[]"
        }
      ],
      "stateMutability": "view",
      "type": "function"
    },
    {
      "inputs": [],
      "name": "owner",
      "outputs": [
        {
          "internalType": "address",
          "name": "",
          "type": "address"
        }
      ],
      "stateMutability": "view",
      "type": "function"
    },
    {
      "inputs": [],
      "name": "referralManager",
      "outputs": [
        {
          "internalType": "contract IReferralManager",
          "name": "",
          "type": "address"
        }
      ],
      "stateMutability": "view",
      "type": "function"
    },
    {
      "inputs": [],
      "name": "renounceOwnership",
      "outputs": [],
      "stateMutability": "nonpayable",
      "type": "function"
    },
    {
      "inputs": [],
      "name": "squads",
      "outputs": [
        {
          "internalType": "contract ISquads",
          "name": "",
          "type": "address"
        }
      ],
      "stateMutability": "view",
      "type": "function"
    },
    {
      "inputs": [],
      "name": "staking",
      "outputs": [
        {
          "internalType": "contract IStaking",
          "name": "",
          "type": "address"
        }
      ],
      "stateMutability": "view",
      "type": "function"
    },
    {
      "inputs": [],
      "name": "token1",
      "outputs": [
        {
          "internalType": "contract IERC20",
          "name": "",
          "type": "address"
        }
      ],
      "stateMutability": "view",
      "type": "function"
    },
    {
      "inputs": [],
      "name": "token2",
      "outputs": [
        {
          "internalType": "contract IERC20",
          "name": "",
          "type": "address"
        }
      ],
      "stateMutability": "view",
      "type": "function"
    },
    {
      "inputs": [
        {
          "internalType": "address",
          "name": "newOwner",
          "type": "address"
        }
      ],
      "name": "transferOwnership",
      "outputs": [],
      "stateMutability": "nonpayable",
      "type": "function"
    },
    {
      "inputs": [
        {
          "internalType": "address",
          "name": "_referralManager",
          "type": "address"
        }
      ],
      "name": "updateReferralManager",
      "outputs": [],
      "stateMutability": "nonpayable",
      "type": "function"
    },
    {
      "inputs": [
        {
          "internalType": "address",
          "name": "_squads",
          "type": "address"
        }
      ],
      "name": "updateSquads",
      "outputs": [],
      "stateMutability": "nonpayable",
      "type": "function"
    },
    {
      "inputs": [
        {
          "internalType": "address",
          "name": "_staking",
          "type": "address"
        }
      ],
      "name": "updateStaking",
      "outputs": [],
      "stateMutability": "nonpayable",
      "type": "function"
    },
    {
      "inputs": [
        {
          "internalType": "address",
          "name": "_token1",
          "type": "address"
        }
      ],
      "name": "updateToken1",
      "outputs": [],
      "stateMutability": "nonpayable",
      "type": "function"
    },
    {
      "inputs": [
        {
          "internalType": "address",
          "name": "_token2",
          "type": "address"
        }
      ],
      "name": "updateToken2",
      "outputs": [],
      "stateMutability": "nonpayable",
      "type": "function"
    }
  ],
  "transactionHash": "0x0b7b284db77c1dbc30ebfc7b587b84351aacb1253c3872d0468ac6948b7e9505",
  "args": [
    "0xb971Bbda8043267e8047372A29A5bfA8B78A2D04",
    "0xbaD18847048E47f58f90B049A3C2b5A308Fb0E66",
    "0xcE75Aab2eDd23a49A2314869D5a659379E051E0F",
    "0x05F3EB0023b4d7a0aCa0C7A83c64FD1814F7f9F6",
    "0x7cc1EBC03577933Bef4F1CFfA333A5691Db0609d"
  ],
  "numDeployments": 3,
  "solcInputHash": "e23148095cf4e17aff1553d96c3c29f9",
  "bytecode": "0x60806040523480156200001157600080fd5b50604051620013d7380380620013d783398101604081905262000034916200010f565b6200003f33620000a2565b600180546001600160a01b03199081166001600160a01b039788161790915560028054821695871695909517909455600380548516938616939093179092556004805484169185169190911790556005805490921692169190911790556200017f565b600080546001600160a01b038381166001600160a01b0319831681178455604051919092169283917f8be0079c531659141344cd1fd0a4f28419497f9722a3daafe3b4186f6b6457e09190a35050565b80516001600160a01b03811681146200010a57600080fd5b919050565b600080600080600060a086880312156200012857600080fd5b6200013386620000f2565b94506200014360208701620000f2565b93506200015360408701620000f2565b92506200016360608701620000f2565b91506200017360808701620000f2565b90509295509295909350565b611248806200018f6000396000f3fe608060405234801561001057600080fd5b50600436106101005760003560e01c806378fd900011610097578063ae1fc32411610066578063ae1fc32414610219578063cefaefb61461022c578063d21220a71461024c578063f2fde38b1461025f57600080fd5b806378fd9000146101cf5780637c67b339146101e25780638da5cb5b146101f5578063a345f38d1461020657600080fd5b80632ccd9623116100d35780632ccd9623146101815780634cf088d914610194578063622f46a4146101a7578063715018a6146101c757600080fd5b8063064e6780146101055780631e6f30cb1461011a578063232b9d901461014357806325be124e14610156575b600080fd5b610118610113366004610bb3565b610272565b005b61012d610128366004610bd7565b61029c565b60405161013a9190610cd1565b60405180910390f35b610118610151366004610bb3565b6104b1565b600254610169906001600160a01b031681565b6040516001600160a01b03909116815260200161013a565b600454610169906001600160a01b031681565b600354610169906001600160a01b031681565b6101ba6101b5366004610bb3565b6104db565b60405161013a9190610ce4565b610118610601565b600554610169906001600160a01b031681565b6101186101f0366004610bb3565b610615565b6000546001600160a01b0316610169565b610118610214366004610bb3565b61063f565b610118610227366004610bb3565b610669565b61023f61023a366004610d46565b610693565b60405161013a9190610d72565b600154610169906001600160a01b031681565b61011861026d366004610bb3565b610a04565b61027a610a82565b600180546001600160a01b0319166001600160a01b0392909216919091179055565b6102a4610b2c565b60055460405163cc5d19c160e01b81526001600160a01b03848116600483015260248201869052600092169063cc5d19c1906044016040805180830381865afa1580156102f5573d6000803e3d6000fd5b505050506040513d601f19601f820116820180604052508101906103199190610e71565b6005546040516309b3549d60e21b8152600481018790529192506000916001600160a01b03909116906326cd52749060240160c060405180830381865afa158015610368573d6000803e3d6000fd5b505050506040513d601f19601f8201168201806040525081019061038c9190610f56565b6005546040516315a1072560e31b81526001600160a01b038781166004830152602482018990529293506000929091169063ad08392890604401600060405180830381865afa1580156103e3573d6000803e3d6000fd5b505050506040513d6000823e601f3d908101601f1916820160405261040b9190810190610f96565b600554604051634c96e16d60e11b81526001600160a01b038881166004830152602482018a90529293506000929091169063992dc2da90604401602060405180830381865afa158015610462573d6000803e3d6000fd5b505050506040513d601f19601f820116820180604052508101906104869190611035565b6040805160808101825295865260208601949094529284019190915250151560608201529392505050565b6104b9610a82565b600580546001600160a01b0319166001600160a01b0392909216919091179055565b60606000600560009054906101000a90046001600160a01b03166001600160a01b031663d94a862b6040518163ffffffff1660e01b8152600401600060405180830381865afa158015610532573d6000803e3d6000fd5b505050506040513d6000823e601f3d908101601f1916820160405261055a9190810190611050565b51905060008167ffffffffffffffff81111561057857610578610e01565b6040519080825280602002602001820160405280156105b157816020015b61059e610b2c565b8152602001906001900390816105965790505b50905060005b828110156105f9576105c9818661029c565b8282815181106105db576105db6110ea565b602002602001018190525080806105f190611100565b9150506105b7565b509392505050565b610609610a82565b6106136000610adc565b565b61061d610a82565b600480546001600160a01b0319166001600160a01b0392909216919091179055565b610647610a82565b600380546001600160a01b0319166001600160a01b0392909216919091179055565b610671610a82565b600280546001600160a01b0319166001600160a01b0392909216919091179055565b6004805460405163b09b334f60e01b81526001600160a01b038581169382019390935260248101849052606092600092169063b09b334f90604401600060405180830381865afa1580156106eb573d6000803e3d6000fd5b505050506040513d6000823e601f3d908101601f191682016040526107139190810190611129565b90506000815167ffffffffffffffff81111561073157610731610e01565b6040519080825280602002602001820160405280156107af57816020015b61079c6040518060e0016040528060006001600160a01b03168152602001600081526020016000815260200160008152602001600081526020016000151581526020016000151581525090565b81526020019060019003908161074f5790505b50905060005b82518110156109fb5760008382815181106107d2576107d26110ea565b60200260200101516000015190506040518060e00160405280826001600160a01b0316815260200185848151811061080c5761080c6110ea565b602002602001015160200151815260200185848151811061082f5761082f6110ea565b602090810291909101810151604090810151835260015490516370a0823160e01b81526001600160a01b038681166004830152939092019216906370a0823190602401602060405180830381865afa15801561088f573d6000803e3d6000fd5b505050506040513d601f19601f820116820180604052508101906108b391906111f9565b81526002546040516370a0823160e01b81526001600160a01b038581166004830152602090930192909116906370a0823190602401602060405180830381865afa158015610905573d6000803e3d6000fd5b505050506040513d601f19601f8201168201806040525081019061092991906111f9565b8152602001858481518110610940576109406110ea565b6020908102919091018101516060015115158252600354604051632b58a66f60e21b81526001600160a01b0386811660048301529390920192169063ad6299bc90602401602060405180830381865afa1580156109a1573d6000803e3d6000fd5b505050506040513d601f19601f820116820180604052508101906109c59190611035565b15158152508383815181106109dc576109dc6110ea565b60200260200101819052505080806109f390611100565b9150506107b5565b50949350505050565b610a0c610a82565b6001600160a01b038116610a765760405162461bcd60e51b815260206004820152602660248201527f4f776e61626c653a206e6577206f776e657220697320746865207a65726f206160448201526564647265737360d01b60648201526084015b60405180910390fd5b610a7f81610adc565b50565b6000546001600160a01b031633146106135760405162461bcd60e51b815260206004820181905260248201527f4f776e61626c653a2063616c6c6572206973206e6f7420746865206f776e65726044820152606401610a6d565b600080546001600160a01b038381166001600160a01b0319831681178455604051919092169283917f8be0079c531659141344cd1fd0a4f28419497f9722a3daafe3b4186f6b6457e09190a35050565b6040805160c0810190915260006080820181815260a083019190915281908152602001610b8a6040518060c0016040528060008152602001600081526020016000815260200160008152602001600081526020016000151581525090565b815260606020820152600060409091015290565b6001600160a01b0381168114610a7f57600080fd5b600060208284031215610bc557600080fd5b8135610bd081610b9e565b9392505050565b60008060408385031215610bea57600080fd5b823591506020830135610bfc81610b9e565b809150509250929050565b600081518084526020808501945080840160005b83811015610c405781516001600160a01b031687529582019590820190600101610c1b565b509495945050505050565b600061014082518051855260208101516020860152506020830151805160408601526020810151606086015260408101516080860152606081015160a0860152608081015160c086015260a0810151151560e086015250604083015181610100860152610cba82860182610c07565b91505060608301516105f961012086018215159052565b602081526000610bd06020830184610c4b565b6000602080830181845280855180835260408601915060408160051b870101925083870160005b82811015610d3957603f19888603018452610d27858351610c4b565b94509285019290850190600101610d0b565b5092979650505050505050565b60008060408385031215610d5957600080fd5b8235610d6481610b9e565b946020939093013593505050565b602080825282518282018190526000919060409081850190868401855b82811015610df457815180516001600160a01b0316855286810151878601528581015186860152606080820151908601526080808201519086015260a08082015115159086015260c09081015115159085015260e09093019290850190600101610d8f565b5091979650505050505050565b634e487b7160e01b600052604160045260246000fd5b6040516080810167ffffffffffffffff81118282101715610e3a57610e3a610e01565b60405290565b604051601f8201601f1916810167ffffffffffffffff81118282101715610e6957610e69610e01565b604052919050565b600060408284031215610e8357600080fd5b6040516040810181811067ffffffffffffffff82111715610ea657610ea6610e01565b604052825181526020928301519281019290925250919050565b80518015158114610ed057600080fd5b919050565b600060c08284031215610ee757600080fd5b60405160c0810181811067ffffffffffffffff82111715610f0a57610f0a610e01565b80604052508091508251815260208301516020820152604083015160408201526060830151606082015260808301516080820152610f4a60a08401610ec0565b60a08201525092915050565b600060c08284031215610f6857600080fd5b610bd08383610ed5565b600067ffffffffffffffff821115610f8c57610f8c610e01565b5060051b60200190565b60006020808385031215610fa957600080fd5b825167ffffffffffffffff811115610fc057600080fd5b8301601f81018513610fd157600080fd5b8051610fe4610fdf82610f72565b610e40565b81815260059190911b8201830190838101908783111561100357600080fd5b928401925b8284101561102a57835161101b81610b9e565b82529284019290840190611008565b979650505050505050565b60006020828403121561104757600080fd5b610bd082610ec0565b6000602080838503121561106357600080fd5b825167ffffffffffffffff81111561107a57600080fd5b8301601f8101851361108b57600080fd5b8051611099610fdf82610f72565b81815260c091820283018401918482019190888411156110b857600080fd5b938501935b838510156110de576110cf8986610ed5565b835293840193918501916110bd565b50979650505050505050565b634e487b7160e01b600052603260045260246000fd5b600060001982141561112257634e487b7160e01b600052601160045260246000fd5b5060010190565b6000602080838503121561113c57600080fd5b825167ffffffffffffffff81111561115357600080fd5b8301601f8101851361116457600080fd5b8051611172610fdf82610f72565b81815260079190911b8201830190838101908783111561119157600080fd5b928401925b8284101561102a57608084890312156111af5760008081fd5b6111b7610e17565b84516111c281610b9e565b815284860151868201526040808601519082015260606111e3818701610ec0565b9082015282526080939093019290840190611196565b60006020828403121561120b57600080fd5b505191905056fea2646970667358221220ce14b1fe8145ee3837eb65356fea052d979f563bb042d8be4b4fd9c7f343b14364736f6c634300080b0033",
  "devdoc": {
    "kind": "dev",
    "methods": {
      "owner()": {
        "details": "Returns the address of the current owner."
      },
      "renounceOwnership()": {
        "details": "Leaves the contract without owner. It will not be possible to call `onlyOwner` functions anymore. Can only be called by the current owner. NOTE: Renouncing ownership will leave the contract without an owner, thereby removing any functionality that is only available to the owner."
      },
      "transferOwnership(address)": {
        "details": "Transfers ownership of the contract to a new account (`newOwner`). Can only be called by the current owner."
      }
    },
    "version": 1
  },
  "userdoc": {
    "kind": "user",
    "methods": {},
    "version": 1
  },
  "storageLayout": {
    "storage": [
      {
        "astId": 554,
        "contract": "contracts/Helper.sol:Helper",
        "label": "_owner",
        "offset": 0,
        "slot": "0",
        "type": "t_address"
      },
      {
        "astId": 5379,
        "contract": "contracts/Helper.sol:Helper",
        "label": "token1",
        "offset": 0,
        "slot": "1",
        "type": "t_contract(IERC20)3098"
      },
      {
        "astId": 5382,
        "contract": "contracts/Helper.sol:Helper",
        "label": "token2",
        "offset": 0,
        "slot": "2",
        "type": "t_contract(IERC20)3098"
      },
      {
        "astId": 5385,
        "contract": "contracts/Helper.sol:Helper",
        "label": "staking",
        "offset": 0,
        "slot": "3",
        "type": "t_contract(IStaking)12763"
      },
      {
        "astId": 5388,
        "contract": "contracts/Helper.sol:Helper",
        "label": "referralManager",
        "offset": 0,
        "slot": "4",
        "type": "t_contract(IReferralManager)12520"
      },
      {
        "astId": 5391,
        "contract": "contracts/Helper.sol:Helper",
        "label": "squads",
        "offset": 0,
        "slot": "5",
        "type": "t_contract(ISquads)12619"
      }
    ],
    "types": {
      "t_address": {
        "encoding": "inplace",
        "label": "address",
        "numberOfBytes": "20"
      },
      "t_contract(IERC20)3098": {
        "encoding": "inplace",
        "label": "contract IERC20",
        "numberOfBytes": "20"
      },
      "t_contract(IReferralManager)12520": {
        "encoding": "inplace",
        "label": "contract IReferralManager",
        "numberOfBytes": "20"
      },
      "t_contract(ISquads)12619": {
        "encoding": "inplace",
        "label": "contract ISquads",
        "numberOfBytes": "20"
      },
      "t_contract(IStaking)12763": {
        "encoding": "inplace",
        "label": "contract IStaking",
        "numberOfBytes": "20"
      }
    }
  }
}