{
  "address": "0x7B65D54E7EAB2ef73b40bC7CE8d2f52D2af46D7C",
  "abi": [
    {
      "inputs": [
        {
          "internalType": "address",
          "name": "_token1",
          "type": "address"
        },
        {
          "internalType": "address",
          "name": "_token2",
          "type": "address"
        },
        {
          "internalType": "address",
          "name": "_staking",
          "type": "address"
        },
        {
          "internalType": "address",
          "name": "_referralManager",
          "type": "address"
        },
        {
          "internalType": "address",
          "name": "_squads",
          "type": "address"
        },
        {
          "internalType": "address",
          "name": "_lottery",
          "type": "address"
        }
      ],
      "stateMutability": "nonpayable",
      "type": "constructor"
    },
    {
      "anonymous": false,
      "inputs": [
        {
          "indexed": true,
          "internalType": "address",
          "name": "previousOwner",
          "type": "address"
        },
        {
          "indexed": true,
          "internalType": "address",
          "name": "newOwner",
          "type": "address"
        }
      ],
      "name": "OwnershipTransferred",
      "type": "event"
    },
    {
      "inputs": [
        {
          "internalType": "uint256",
          "name": "roundId",
          "type": "uint256"
        }
      ],
      "name": "getLotteryRoundWinnersWithTickets",
      "outputs": [
        {
          "components": [
            {
              "internalType": "uint256",
              "name": "level",
              "type": "uint256"
            },
            {
              "internalType": "address",
              "name": "winnerAddress",
              "type": "address"
            },
            {
              "internalType": "uint256",
              "name": "enteredTickets",
              "type": "uint256"
            }
          ],
          "internalType": "struct Helper.LotteryWinnersWithTickets[]",
          "name": "",
          "type": "tuple[]"
        }
      ],
      "stateMutability": "view",
      "type": "function"
    },
    {
      "inputs": [
        {
          "internalType": "address",
          "name": "user",
          "type": "address"
        },
        {
          "internalType": "uint256",
          "name": "level",
          "type": "uint256"
        }
      ],
      "name": "getUserReferralsFullInfoByLevel",
      "outputs": [
        {
          "components": [
            {
              "internalType": "address",
              "name": "referralAddress",
              "type": "address"
            },
            {
              "internalType": "uint256",
              "name": "level",
              "type": "uint256"
            },
            {
              "internalType": "uint256",
              "name": "activationDate",
              "type": "uint256"
            },
            {
              "internalType": "uint256",
              "name": "token1Balance",
              "type": "uint256"
            },
            {
              "internalType": "uint256",
              "name": "token2Balance",
              "type": "uint256"
            },
            {
              "internalType": "bool",
              "name": "isReferralSubscriptionActive",
              "type": "bool"
            },
            {
              "internalType": "bool",
              "name": "isStakingSubscriptionActive",
              "type": "bool"
            },
            {
              "internalType": "bool",
              "name": "isSquadSubscriptionActive",
              "type": "bool"
            }
          ],
          "internalType": "struct Helper.ReferralFullInfo[]",
          "name": "",
          "type": "tuple[]"
        }
      ],
      "stateMutability": "view",
      "type": "function"
    },
    {
      "inputs": [
        {
          "components": [
            {
              "internalType": "uint256",
              "name": "index",
              "type": "uint256"
            },
            {
              "internalType": "uint256",
              "name": "subscriptionCost",
              "type": "uint256"
            },
            {
              "internalType": "uint256",
              "name": "reward",
              "type": "uint256"
            },
            {
              "internalType": "uint256",
              "name": "stakingThreshold",
              "type": "uint256"
            },
            {
              "internalType": "uint256",
              "name": "squadSize",
              "type": "uint256"
            },
            {
              "internalType": "uint256",
              "name": "stakingPlanId",
              "type": "uint256"
            },
            {
              "internalType": "bool",
              "name": "isActive",
              "type": "bool"
            }
          ],
          "internalType": "struct ISquads.SquadPlan",
          "name": "plan",
          "type": "tuple"
        },
        {
          "internalType": "address",
          "name": "user",
          "type": "address"
        }
      ],
      "name": "getUserSquadInfo",
      "outputs": [
        {
          "components": [
            {
              "components": [
                {
                  "internalType": "uint256",
                  "name": "subscription",
                  "type": "uint256"
                },
                {
                  "internalType": "uint256",
                  "name": "squadsFilled",
                  "type": "uint256"
                }
              ],
              "internalType": "struct ISquads.Squad",
              "name": "squadStatus",
              "type": "tuple"
            },
            {
              "components": [
                {
                  "internalType": "uint256",
                  "name": "index",
                  "type": "uint256"
                },
                {
                  "internalType": "uint256",
                  "name": "subscriptionCost",
                  "type": "uint256"
                },
                {
                  "internalType": "uint256",
                  "name": "reward",
                  "type": "uint256"
                },
                {
                  "internalType": "uint256",
                  "name": "stakingThreshold",
                  "type": "uint256"
                },
                {
                  "internalType": "uint256",
                  "name": "squadSize",
                  "type": "uint256"
                },
                {
                  "internalType": "uint256",
                  "name": "stakingPlanId",
                  "type": "uint256"
                },
                {
                  "internalType": "bool",
                  "name": "isActive",
                  "type": "bool"
                }
              ],
              "internalType": "struct ISquads.SquadPlan",
              "name": "plan",
              "type": "tuple"
            },
            {
              "internalType": "address[]",
              "name": "members",
              "type": "address[]"
            },
            {
              "internalType": "bool",
              "name": "userHasSufficientStaking",
              "type": "bool"
            }
          ],
          "internalType": "struct Helper.UserSquadInfo",
          "name": "",
          "type": "tuple"
        }
      ],
      "stateMutability": "view",
      "type": "function"
    },
    {
      "inputs": [
        {
          "internalType": "address",
          "name": "user",
          "type": "address"
        }
      ],
      "name": "getUserSquadsInfo",
      "outputs": [
        {
          "components": [
            {
              "components": [
                {
                  "internalType": "uint256",
                  "name": "subscription",
                  "type": "uint256"
                },
                {
                  "internalType": "uint256",
                  "name": "squadsFilled",
                  "type": "uint256"
                }
              ],
              "internalType": "struct ISquads.Squad",
              "name": "squadStatus",
              "type": "tuple"
            },
            {
              "components": [
                {
                  "internalType": "uint256",
                  "name": "index",
                  "type": "uint256"
                },
                {
                  "internalType": "uint256",
                  "name": "subscriptionCost",
                  "type": "uint256"
                },
                {
                  "internalType": "uint256",
                  "name": "reward",
                  "type": "uint256"
                },
                {
                  "internalType": "uint256",
                  "name": "stakingThreshold",
                  "type": "uint256"
                },
                {
                  "internalType": "uint256",
                  "name": "squadSize",
                  "type": "uint256"
                },
                {
                  "internalType": "uint256",
                  "name": "stakingPlanId",
                  "type": "uint256"
                },
                {
                  "internalType": "bool",
                  "name": "isActive",
                  "type": "bool"
                }
              ],
              "internalType": "struct ISquads.SquadPlan",
              "name": "plan",
              "type": "tuple"
            },
            {
              "internalType": "address[]",
              "name": "members",
              "type": "address[]"
            },
            {
              "internalType": "bool",
              "name": "userHasSufficientStaking",
              "type": "bool"
            }
          ],
          "internalType": "struct Helper.UserSquadInfo[]",
          "name": "",
          "type": "tuple[]"
        }
      ],
      "stateMutability": "view",
      "type": "function"
    },
    {
      "inputs": [],
      "name": "lottery",
      "outputs": [
        {
          "internalType": "contract ILottery",
          "name": "",
          "type": "address"
        }
      ],
      "stateMutability": "view",
      "type": "function"
    },
    {
      "inputs": [],
      "name": "owner",
      "outputs": [
        {
          "internalType": "address",
          "name": "",
          "type": "address"
        }
      ],
      "stateMutability": "view",
      "type": "function"
    },
    {
      "inputs": [],
      "name": "referralManager",
      "outputs": [
        {
          "internalType": "contract IReferralManager",
          "name": "",
          "type": "address"
        }
      ],
      "stateMutability": "view",
      "type": "function"
    },
    {
      "inputs": [],
      "name": "renounceOwnership",
      "outputs": [],
      "stateMutability": "nonpayable",
      "type": "function"
    },
    {
      "inputs": [],
      "name": "squads",
      "outputs": [
        {
          "internalType": "contract ISquads",
          "name": "",
          "type": "address"
        }
      ],
      "stateMutability": "view",
      "type": "function"
    },
    {
      "inputs": [],
      "name": "staking",
      "outputs": [
        {
          "internalType": "contract IStaking",
          "name": "",
          "type": "address"
        }
      ],
      "stateMutability": "view",
      "type": "function"
    },
    {
      "inputs": [],
      "name": "token1",
      "outputs": [
        {
          "internalType": "contract IERC20",
          "name": "",
          "type": "address"
        }
      ],
      "stateMutability": "view",
      "type": "function"
    },
    {
      "inputs": [],
      "name": "token2",
      "outputs": [
        {
          "internalType": "contract IERC20",
          "name": "",
          "type": "address"
        }
      ],
      "stateMutability": "view",
      "type": "function"
    },
    {
      "inputs": [
        {
          "internalType": "address",
          "name": "newOwner",
          "type": "address"
        }
      ],
      "name": "transferOwnership",
      "outputs": [],
      "stateMutability": "nonpayable",
      "type": "function"
    },
    {
      "inputs": [
        {
          "internalType": "address",
          "name": "_lottery",
          "type": "address"
        }
      ],
      "name": "updateLottery",
      "outputs": [],
      "stateMutability": "nonpayable",
      "type": "function"
    },
    {
      "inputs": [
        {
          "internalType": "address",
          "name": "_referralManager",
          "type": "address"
        }
      ],
      "name": "updateReferralManager",
      "outputs": [],
      "stateMutability": "nonpayable",
      "type": "function"
    },
    {
      "inputs": [
        {
          "internalType": "address",
          "name": "_squads",
          "type": "address"
        }
      ],
      "name": "updateSquads",
      "outputs": [],
      "stateMutability": "nonpayable",
      "type": "function"
    },
    {
      "inputs": [
        {
          "internalType": "address",
          "name": "_staking",
          "type": "address"
        }
      ],
      "name": "updateStaking",
      "outputs": [],
      "stateMutability": "nonpayable",
      "type": "function"
    },
    {
      "inputs": [
        {
          "internalType": "address",
          "name": "_token1",
          "type": "address"
        }
      ],
      "name": "updateToken1",
      "outputs": [],
      "stateMutability": "nonpayable",
      "type": "function"
    },
    {
      "inputs": [
        {
          "internalType": "address",
          "name": "_token2",
          "type": "address"
        }
      ],
      "name": "updateToken2",
      "outputs": [],
      "stateMutability": "nonpayable",
      "type": "function"
    }
  ],
  "transactionHash": "0x45d5c0d3b71a33d9bdcbe2b3280244c47aa5b5852ff52c696de66e5ca82f5558",
  "args": [
    "0x6e6B9420DDE50C4678F470cFE696ac2ccbAc3ABF",
    "0x29a9a9Cc0d2e5163f4e38d00c33EC12Dd1f0AEc2",
    "0xd87755eCE5f0c3Dba6D93bb597aCDEe1ce4Fb4be",
    "0x5010f7806A07706A80Ac5F22E742694a2cE7eE3f",
    "0x498a23B13bf96114eB8e4Ab77248ACc610485635",
    "0xA96549076D271f6A78DE85eC445778BA411b84b1"
  ],
  "numDeployments": 3,
  "solcInputHash": "03ca36f09628810065892d1ca270a172",
  "bytecode": "0x60806040523480156200001157600080fd5b5060405162001b6a38038062001b6a83398101604081905262000034916200011f565b6200003f33620000b2565b600180546001600160a01b03199081166001600160a01b0398891617909155600280548216968816969096179095556003805486169487169490941790935560048054851692861692909217909155600580548416918516919091179055600680549092169216919091179055620001a0565b600080546001600160a01b038381166001600160a01b0319831681178455604051919092169283917f8be0079c531659141344cd1fd0a4f28419497f9722a3daafe3b4186f6b6457e09190a35050565b80516001600160a01b03811681146200011a57600080fd5b919050565b60008060008060008060c087890312156200013957600080fd5b620001448762000102565b9550620001546020880162000102565b9450620001646040880162000102565b9350620001746060880162000102565b9250620001846080880162000102565b91506200019460a0880162000102565b90509295509295509295565b6119ba80620001b06000396000f3fe608060405234801561001057600080fd5b50600436106101215760003560e01c806378fd9000116100ad578063ba13a57211610071578063ba13a5721461026d578063cefaefb614610280578063d21220a7146102a0578063d85539c6146102b3578063f2fde38b146102c657600080fd5b806378fd9000146102105780637c67b339146102235780638da5cb5b14610236578063a345f38d14610247578063ae1fc3241461025a57600080fd5b80632ccd9623116100f45780632ccd9623146101a25780634cf088d9146101b5578063622f46a4146101c8578063715018a6146101e8578063754ed25b146101f057600080fd5b8063064e67801461012657806313bb96671461013b578063232b9d901461016457806325be124e14610177575b600080fd5b610139610134366004610fd6565b6102d9565b005b61014e610149366004610ffa565b610303565b60405161015b9190611013565b60405180910390f35b610139610172366004610fd6565b61065a565b60025461018a906001600160a01b031681565b6040516001600160a01b03909116815260200161015b565b60045461018a906001600160a01b031681565b60035461018a906001600160a01b031681565b6101db6101d6366004610fd6565b610684565b60405161015b919061114a565b6101396107c3565b6102036101fe36600461126d565b6107d7565b60405161015b91906112f9565b60055461018a906001600160a01b031681565b610139610231366004610fd6565b61098e565b6000546001600160a01b031661018a565b610139610255366004610fd6565b6109b8565b610139610268366004610fd6565b6109e2565b60065461018a906001600160a01b031681565b61029361028e36600461130c565b610a0c565b60405161015b9190611338565b60015461018a906001600160a01b031681565b6101396102c1366004610fd6565b610de6565b6101396102d4366004610fd6565b610e10565b6102e1610e8e565b600180546001600160a01b0319166001600160a01b0392909216919091179055565b60065460405163023c4c9f60e61b8152600481018390526060916000916001600160a01b0390911690638f1327c090602401600060405180830381865afa158015610352573d6000803e3d6000fd5b505050506040513d6000823e601f3d908101601f1916820160405261037a9190810190611543565b90506000805b826101e001515181101561043c5760005b836101e0015182815181106103a8576103a86116bb565b6020026020010151518110156104295760006001600160a01b0316846101e0015183815181106103da576103da6116bb565b602002602001015182815181106103f3576103f36116bb565b60200260200101516001600160a01b0316146104175782610413816116d1565b9350505b80610421816116d1565b915050610391565b5080610434816116d1565b915050610380565b506000816001600160401b03811115610457576104576111ac565b6040519080825280602002602001820160405280156104b557816020015b6104a260405180606001604052806000815260200160006001600160a01b03168152602001600081525090565b8152602001906001900390816104755790505b5090506000805b846101e001515181101561064f5760005b856101e0015182815181106104e4576104e46116bb565b60200260200101515181101561063c576000866101e00151838151811061050d5761050d6116bb565b60200260200101518281518110610526576105266116bb565b6020026020010151905060006001600160a01b0316816001600160a01b03161461062957600654604051632035fed160e01b81526001600160a01b038381166004830152602482018c90526000921690632035fed190604401602060405180830381865afa15801561059c573d6000803e3d6000fd5b505050506040513d601f19601f820116820180604052508101906105c091906116fa565b90506040518060600160405280858152602001836001600160a01b03168152602001828152508686815181106105f8576105f86116bb565b6020026020010181905250848061060e906116d1565b9550508685141561062757509398975050505050505050565b505b5080610634816116d1565b9150506104cd565b5080610647816116d1565b9150506104bc565b509095945050505050565b610662610e8e565b600580546001600160a01b0319166001600160a01b0392909216919091179055565b60606000600560009054906101000a90046001600160a01b03166001600160a01b03166343fe832c6040518163ffffffff1660e01b8152600401600060405180830381865afa1580156106db573d6000803e3d6000fd5b505050506040513d6000823e601f3d908101601f191682016040526107039190810190611713565b9050600081516001600160401b03811115610720576107206111ac565b60405190808252806020026020018201604052801561075957816020015b610746610f38565b81526020019060019003908161073e5790505b50905060005b82518110156107bb5761078b83828151811061077d5761077d6116bb565b6020026020010151866107d7565b82828151811061079d5761079d6116bb565b602002602001018190525080806107b3906116d1565b91505061075f565b509392505050565b6107cb610e8e565b6107d56000610ee8565b565b6107df610f38565b600554835160405163cc5d19c160e01b81526000926001600160a01b03169163cc5d19c1916108269187916004016001600160a01b03929092168252602082015260400190565b6040805180830381865afa158015610842573d6000803e3d6000fd5b505050506040513d601f19601f820116820180604052508101906108669190611801565b60055485516040516315a1072560e31b81526001600160a01b038781166004830152602482019290925292935060009291169063ad08392890604401600060405180830381865afa1580156108bf573d6000803e3d6000fd5b505050506040513d6000823e601f3d908101601f191682016040526108e7919081019061184f565b6005548651604051634c96e16d60e11b81526001600160a01b038881166004830152602482019290925292935060009291169063992dc2da90604401602060405180830381865afa158015610940573d6000803e3d6000fd5b505050506040513d601f19601f82011682018060405250810190610964919061188b565b60408051608081018252948552602085018890528401929092525015156060820152905092915050565b610996610e8e565b600480546001600160a01b0319166001600160a01b0392909216919091179055565b6109c0610e8e565b600380546001600160a01b0319166001600160a01b0392909216919091179055565b6109ea610e8e565b600280546001600160a01b0319166001600160a01b0392909216919091179055565b6004805460405163b09b334f60e01b81526001600160a01b038581169382019390935260248101849052606092600092169063b09b334f90604401600060405180830381865afa158015610a64573d6000803e3d6000fd5b505050506040513d6000823e601f3d908101601f19168201604052610a8c91908101906118a8565b9050600081516001600160401b03811115610aa957610aa96111ac565b604051908082528060200260200182016040528015610b1857816020015b604080516101008101825260008082526020808301829052928201819052606082018190526080820181905260a0820181905260c0820181905260e08201528252600019909201910181610ac75790505b50905060005b8251811015610ddd576000838281518110610b3b57610b3b6116bb565b6020026020010151600001519050604051806101000160405280826001600160a01b03168152602001858481518110610b7657610b766116bb565b6020026020010151602001518152602001858481518110610b9957610b996116bb565b602090810291909101810151604090810151835260015490516370a0823160e01b81526001600160a01b038681166004830152939092019216906370a0823190602401602060405180830381865afa158015610bf9573d6000803e3d6000fd5b505050506040513d601f19601f82011682018060405250810190610c1d91906116fa565b81526002546040516370a0823160e01b81526001600160a01b038581166004830152602090930192909116906370a0823190602401602060405180830381865afa158015610c6f573d6000803e3d6000fd5b505050506040513d601f19601f82011682018060405250810190610c9391906116fa565b8152602001858481518110610caa57610caa6116bb565b6020908102919091018101516060015115158252600354604051632b58a66f60e21b81526001600160a01b0386811660048301529390920192169063ad6299bc90602401602060405180830381865afa158015610d0b573d6000803e3d6000fd5b505050506040513d601f19601f82011682018060405250810190610d2f919061188b565b15158152600554604051632b58a66f60e21b81526001600160a01b0385811660048301526020909301929091169063ad6299bc90602401602060405180830381865afa158015610d83573d6000803e3d6000fd5b505050506040513d601f19601f82011682018060405250810190610da7919061188b565b1515815250838381518110610dbe57610dbe6116bb565b6020026020010181905250508080610dd5906116d1565b915050610b1e565b50949350505050565b610dee610e8e565b600680546001600160a01b0319166001600160a01b0392909216919091179055565b610e18610e8e565b6001600160a01b038116610e825760405162461bcd60e51b815260206004820152602660248201527f4f776e61626c653a206e6577206f776e657220697320746865207a65726f206160448201526564647265737360d01b60648201526084015b60405180910390fd5b610e8b81610ee8565b50565b6000546001600160a01b031633146107d55760405162461bcd60e51b815260206004820181905260248201527f4f776e61626c653a2063616c6c6572206973206e6f7420746865206f776e65726044820152606401610e79565b600080546001600160a01b038381166001600160a01b0319831681178455604051919092169283917f8be0079c531659141344cd1fd0a4f28419497f9722a3daafe3b4186f6b6457e09190a35050565b6040805160c0810190915260006080820181815260a083019190915281908152602001610f9d6040518060e001604052806000815260200160008152602001600081526020016000815260200160008152602001600081526020016000151581525090565b815260606020820152600060409091015290565b6001600160a01b0381168114610e8b57600080fd5b8035610fd181610fb1565b919050565b600060208284031215610fe857600080fd5b8135610ff381610fb1565b9392505050565b60006020828403121561100c57600080fd5b5035919050565b602080825282518282018190526000919060409081850190868401855b8281101561106857815180518552868101516001600160a01b0316878601528501518585015260609093019290850190600101611030565b5091979650505050505050565b600081518084526020808501945080840160005b838110156110ae5781516001600160a01b031687529582019590820190600101611089565b509495945050505050565b600061016082518051855260208101516020860152506020830151805160408601526020810151606086015260408101516080860152606081015160a0860152608081015160c086015260a081015160e086015260c081015115156101008601525060408301518161012086015261113382860182611075565b91505060608301516107bb61014086018215159052565b6000602080830181845280855180835260408601915060408160051b870101925083870160005b8281101561119f57603f1988860301845261118d8583516110b9565b94509285019290850190600101611171565b5092979650505050505050565b634e487b7160e01b600052604160045260246000fd5b60405160e081016001600160401b03811182821017156111e4576111e46111ac565b60405290565b60405161020081016001600160401b03811182821017156111e4576111e46111ac565b604051608081016001600160401b03811182821017156111e4576111e46111ac565b604051601f8201601f191681016001600160401b0381118282101715611257576112576111ac565b604052919050565b8015158114610e8b57600080fd5b60008082840361010081121561128257600080fd5b60e081121561129057600080fd5b506112996111c2565b833581526020840135602082015260408401356040820152606084013560608201526080840135608082015260a084013560a082015260c08401356112dd8161125f565b60c082015291506112f060e08401610fc6565b90509250929050565b602081526000610ff360208301846110b9565b6000806040838503121561131f57600080fd5b823561132a81610fb1565b946020939093013593505050565b602080825282518282018190526000919060409081850190868401855b8281101561106857815180516001600160a01b0316855286810151878601528581015186860152606080820151908601526080808201519086015260a08082015115159086015260c08082015115159086015260e0908101511515908501526101009093019290850190600101611355565b8051610fd18161125f565b60006001600160401b038211156113eb576113eb6111ac565b5060051b60200190565b600082601f83011261140657600080fd5b8151602061141b611416836113d2565b61122f565b82815260059290921b8401810191818101908684111561143a57600080fd5b8286015b84811015611455578051835291830191830161143e565b509695505050505050565b600082601f83011261147157600080fd5b81516020611481611416836113d2565b82815260059290921b840181019181810190868411156114a057600080fd5b8286015b848110156114555780516114b781610fb1565b83529183019183016114a4565b600082601f8301126114d557600080fd5b815160206114e5611416836113d2565b82815260059290921b8401810191818101908684111561150457600080fd5b8286015b848110156114555780516001600160401b038111156115275760008081fd5b6115358986838b0101611460565b845250918301918301611508565b60006020828403121561155557600080fd5b81516001600160401b038082111561156c57600080fd5b90830190610200828603121561158157600080fd5b6115896111ea565b8251815260208301516020820152604083015160408201526115ad606084016113c7565b60608201526115be608084016113c7565b60808201526115cf60a084016113c7565b60a082015260c083015160c082015260e083015160e0820152610100808401518183015250610120808401518183015250610140808401518381111561161457600080fd5b611620888287016113f5565b828401525050610160808401518381111561163a57600080fd5b611646888287016113f5565b8284015250506101808084015181830152506101a0808401518381111561166c57600080fd5b61167888828701611460565b8284015250506101c08084015181830152506101e0808401518381111561169e57600080fd5b6116aa888287016114c4565b918301919091525095945050505050565b634e487b7160e01b600052603260045260246000fd5b60006000198214156116f357634e487b7160e01b600052601160045260246000fd5b5060010190565b60006020828403121561170c57600080fd5b5051919050565b6000602080838503121561172657600080fd5b82516001600160401b0381111561173c57600080fd5b8301601f8101851361174d57600080fd5b805161175b611416826113d2565b81815260e0918202830184019184820191908884111561177a57600080fd5b938501935b838510156117f55780858a0312156117975760008081fd5b61179f6111c2565b85518152868601518782015260408087015190820152606080870151908201526080808701519082015260a0808701519082015260c0808701516117e28161125f565b908201528352938401939185019161177f565b50979650505050505050565b60006040828403121561181357600080fd5b604051604081018181106001600160401b0382111715611835576118356111ac565b604052825181526020928301519281019290925250919050565b60006020828403121561186157600080fd5b81516001600160401b0381111561187757600080fd5b61188384828501611460565b949350505050565b60006020828403121561189d57600080fd5b8151610ff38161125f565b600060208083850312156118bb57600080fd5b82516001600160401b038111156118d157600080fd5b8301601f810185136118e257600080fd5b80516118f0611416826113d2565b81815260079190911b8201830190838101908783111561190f57600080fd5b928401925b82841015611979576080848903121561192d5760008081fd5b61193561120d565b845161194081610fb1565b81528486015186820152604080860151908201526060808601516119638161125f565b9082015282526080939093019290840190611914565b97965050505050505056fea2646970667358221220a8c169881822fbc7e7d7cbe198bd2b52930db4c9353acc86bb3228dfbd21df8b64736f6c634300080b0033",
  "devdoc": {
    "kind": "dev",
    "methods": {
      "owner()": {
        "details": "Returns the address of the current owner."
      },
      "renounceOwnership()": {
        "details": "Leaves the contract without owner. It will not be possible to call `onlyOwner` functions anymore. Can only be called by the current owner. NOTE: Renouncing ownership will leave the contract without an owner, thereby removing any functionality that is only available to the owner."
      },
      "transferOwnership(address)": {
        "details": "Transfers ownership of the contract to a new account (`newOwner`). Can only be called by the current owner."
      }
    },
    "version": 1
  },
  "userdoc": {
    "kind": "user",
    "methods": {},
    "version": 1
  },
  "storageLayout": {
    "storage": [
      {
        "astId": 554,
        "contract": "contracts/Helper.sol:Helper",
        "label": "_owner",
        "offset": 0,
        "slot": "0",
        "type": "t_address"
      },
      {
        "astId": 5399,
        "contract": "contracts/Helper.sol:Helper",
        "label": "token1",
        "offset": 0,
        "slot": "1",
        "type": "t_contract(IERC20)3117"
      },
      {
        "astId": 5402,
        "contract": "contracts/Helper.sol:Helper",
        "label": "token2",
        "offset": 0,
        "slot": "2",
        "type": "t_contract(IERC20)3117"
      },
      {
        "astId": 5405,
        "contract": "contracts/Helper.sol:Helper",
        "label": "staking",
        "offset": 0,
        "slot": "3",
        "type": "t_contract(IStaking)13468"
      },
      {
        "astId": 5408,
        "contract": "contracts/Helper.sol:Helper",
        "label": "referralManager",
        "offset": 0,
        "slot": "4",
        "type": "t_contract(IReferralManager)13207"
      },
      {
        "astId": 5411,
        "contract": "contracts/Helper.sol:Helper",
        "label": "squads",
        "offset": 0,
        "slot": "5",
        "type": "t_contract(ISquads)13324"
      },
      {
        "astId": 5414,
        "contract": "contracts/Helper.sol:Helper",
        "label": "lottery",
        "offset": 0,
        "slot": "6",
        "type": "t_contract(ILottery)13126"
      }
    ],
    "types": {
      "t_address": {
        "encoding": "inplace",
        "label": "address",
        "numberOfBytes": "20"
      },
      "t_contract(IERC20)3117": {
        "encoding": "inplace",
        "label": "contract IERC20",
        "numberOfBytes": "20"
      },
      "t_contract(ILottery)13126": {
        "encoding": "inplace",
        "label": "contract ILottery",
        "numberOfBytes": "20"
      },
      "t_contract(IReferralManager)13207": {
        "encoding": "inplace",
        "label": "contract IReferralManager",
        "numberOfBytes": "20"
      },
      "t_contract(ISquads)13324": {
        "encoding": "inplace",
        "label": "contract ISquads",
        "numberOfBytes": "20"
      },
      "t_contract(IStaking)13468": {
        "encoding": "inplace",
        "label": "contract IStaking",
        "numberOfBytes": "20"
      }
    }
  }
}