{
  "address": "0xcBd1422EF22E69709D1161f37Efd92d541bBF564",
  "abi": [
    {
      "inputs": [
        {
          "internalType": "uint256",
          "name": "ticketPrice",
          "type": "uint256"
        },
        {
          "internalType": "uint256",
          "name": "ticketId",
          "type": "uint256"
        },
        {
          "internalType": "uint256",
          "name": "daysStreakForTicket",
          "type": "uint256"
        },
        {
          "internalType": "address",
          "name": "ticketTokenAddress",
          "type": "address"
        },
        {
          "internalType": "address",
          "name": "paymentTokenAddress",
          "type": "address"
        },
        {
          "internalType": "address",
          "name": "rewardTokenAddress",
          "type": "address"
        },
        {
          "internalType": "address",
          "name": "rewardPoolAddress",
          "type": "address"
        },
        {
          "internalType": "address",
          "name": "coordinator",
          "type": "address"
        },
        {
          "internalType": "uint64",
          "name": "subscriptionId",
          "type": "uint64"
        },
        {
          "internalType": "bytes32",
          "name": "keyHash",
          "type": "bytes32"
        }
      ],
      "stateMutability": "nonpayable",
      "type": "constructor"
    },
    {
      "inputs": [
        {
          "internalType": "address",
          "name": "have",
          "type": "address"
        },
        {
          "internalType": "address",
          "name": "want",
          "type": "address"
        }
      ],
      "name": "OnlyCoordinatorCanFulfill",
      "type": "error"
    },
    {
      "anonymous": false,
      "inputs": [
        {
          "indexed": true,
          "internalType": "uint256",
          "name": "roundId",
          "type": "uint256"
        }
      ],
      "name": "NewRoundCreated",
      "type": "event"
    },
    {
      "anonymous": false,
      "inputs": [
        {
          "indexed": true,
          "internalType": "uint256",
          "name": "roundId",
          "type": "uint256"
        },
        {
          "indexed": true,
          "internalType": "uint256",
          "name": "requestId",
          "type": "uint256"
        },
        {
          "indexed": false,
          "internalType": "uint256",
          "name": "randomWord",
          "type": "uint256"
        }
      ],
      "name": "OracleRequestFulfilled",
      "type": "event"
    },
    {
      "anonymous": false,
      "inputs": [
        {
          "indexed": true,
          "internalType": "uint256",
          "name": "roundId",
          "type": "uint256"
        },
        {
          "indexed": true,
          "internalType": "uint256",
          "name": "requestId",
          "type": "uint256"
        }
      ],
      "name": "OracleRequestSent",
      "type": "event"
    },
    {
      "anonymous": false,
      "inputs": [
        {
          "indexed": true,
          "internalType": "bytes32",
          "name": "role",
          "type": "bytes32"
        },
        {
          "indexed": true,
          "internalType": "bytes32",
          "name": "previousAdminRole",
          "type": "bytes32"
        },
        {
          "indexed": true,
          "internalType": "bytes32",
          "name": "newAdminRole",
          "type": "bytes32"
        }
      ],
      "name": "RoleAdminChanged",
      "type": "event"
    },
    {
      "anonymous": false,
      "inputs": [
        {
          "indexed": true,
          "internalType": "bytes32",
          "name": "role",
          "type": "bytes32"
        },
        {
          "indexed": true,
          "internalType": "address",
          "name": "account",
          "type": "address"
        },
        {
          "indexed": true,
          "internalType": "address",
          "name": "sender",
          "type": "address"
        }
      ],
      "name": "RoleGranted",
      "type": "event"
    },
    {
      "anonymous": false,
      "inputs": [
        {
          "indexed": true,
          "internalType": "bytes32",
          "name": "role",
          "type": "bytes32"
        },
        {
          "indexed": true,
          "internalType": "address",
          "name": "account",
          "type": "address"
        },
        {
          "indexed": true,
          "internalType": "address",
          "name": "sender",
          "type": "address"
        }
      ],
      "name": "RoleRevoked",
      "type": "event"
    },
    {
      "anonymous": false,
      "inputs": [
        {
          "indexed": true,
          "internalType": "uint256",
          "name": "roundId",
          "type": "uint256"
        }
      ],
      "name": "RoundFinished",
      "type": "event"
    },
    {
      "anonymous": false,
      "inputs": [
        {
          "indexed": true,
          "internalType": "address",
          "name": "member",
          "type": "address"
        },
        {
          "indexed": false,
          "internalType": "uint256",
          "name": "amount",
          "type": "uint256"
        }
      ],
      "name": "TicketsCollected",
      "type": "event"
    },
    {
      "inputs": [],
      "name": "CLAIM_PERIOD",
      "outputs": [
        {
          "internalType": "uint256",
          "name": "",
          "type": "uint256"
        }
      ],
      "stateMutability": "view",
      "type": "function"
    },
    {
      "inputs": [],
      "name": "DAYS_STREAK_FOR_TICKET",
      "outputs": [
        {
          "internalType": "uint256",
          "name": "",
          "type": "uint256"
        }
      ],
      "stateMutability": "view",
      "type": "function"
    },
    {
      "inputs": [],
      "name": "DEFAULT_ADMIN_ROLE",
      "outputs": [
        {
          "internalType": "bytes32",
          "name": "",
          "type": "bytes32"
        }
      ],
      "stateMutability": "view",
      "type": "function"
    },
    {
      "inputs": [],
      "name": "OPERATOR_ROLE",
      "outputs": [
        {
          "internalType": "bytes32",
          "name": "",
          "type": "bytes32"
        }
      ],
      "stateMutability": "view",
      "type": "function"
    },
    {
      "inputs": [],
      "name": "TICKET_ID",
      "outputs": [
        {
          "internalType": "uint256",
          "name": "",
          "type": "uint256"
        }
      ],
      "stateMutability": "view",
      "type": "function"
    },
    {
      "inputs": [],
      "name": "TICKET_PRICE",
      "outputs": [
        {
          "internalType": "uint256",
          "name": "",
          "type": "uint256"
        }
      ],
      "stateMutability": "view",
      "type": "function"
    },
    {
      "inputs": [
        {
          "internalType": "uint256",
          "name": "amount",
          "type": "uint256"
        }
      ],
      "name": "buyTickets",
      "outputs": [],
      "stateMutability": "nonpayable",
      "type": "function"
    },
    {
      "inputs": [],
      "name": "claimDay",
      "outputs": [],
      "stateMutability": "nonpayable",
      "type": "function"
    },
    {
      "inputs": [
        {
          "internalType": "uint256",
          "name": "startTime",
          "type": "uint256"
        },
        {
          "internalType": "uint256",
          "name": "duration",
          "type": "uint256"
        },
        {
          "internalType": "uint256",
          "name": "initialPrize",
          "type": "uint256"
        },
        {
          "internalType": "uint256",
          "name": "tokensForOneTicket",
          "type": "uint256"
        },
        {
          "internalType": "uint256",
          "name": "maxTicketsFromOneMember",
          "type": "uint256"
        },
        {
          "internalType": "uint256[]",
          "name": "winnersForLevel",
          "type": "uint256[]"
        },
        {
          "internalType": "uint256[]",
          "name": "prizeForLevel",
          "type": "uint256[]"
        }
      ],
      "name": "createLotteryRound",
      "outputs": [],
      "stateMutability": "nonpayable",
      "type": "function"
    },
    {
      "inputs": [
        {
          "internalType": "uint256",
          "name": "roundId",
          "type": "uint256"
        },
        {
          "internalType": "uint256",
          "name": "tickets",
          "type": "uint256"
        }
      ],
      "name": "entryLottery",
      "outputs": [],
      "stateMutability": "nonpayable",
      "type": "function"
    },
    {
      "inputs": [
        {
          "internalType": "uint256",
          "name": "roundId",
          "type": "uint256"
        },
        {
          "internalType": "address[][]",
          "name": "pk",
          "type": "address[][]"
        }
      ],
      "name": "finishLotteryRound",
      "outputs": [],
      "stateMutability": "nonpayable",
      "type": "function"
    },
    {
      "inputs": [],
      "name": "getActiveRounds",
      "outputs": [
        {
          "components": [
            {
              "internalType": "uint256",
              "name": "startTime",
              "type": "uint256"
            },
            {
              "internalType": "uint256",
              "name": "duration",
              "type": "uint256"
            },
            {
              "internalType": "bool",
              "name": "isClosed",
              "type": "bool"
            },
            {
              "internalType": "bool",
              "name": "isOracleFulfilled",
              "type": "bool"
            },
            {
              "internalType": "bool",
              "name": "isFinished",
              "type": "bool"
            },
            {
              "internalType": "uint256",
              "name": "initialPrize",
              "type": "uint256"
            },
            {
              "internalType": "uint256",
              "name": "totalPrize",
              "type": "uint256"
            },
            {
              "internalType": "uint256",
              "name": "maxTicketsFromOneMember",
              "type": "uint256"
            },
            {
              "internalType": "uint256",
              "name": "tokensForOneTicket",
              "type": "uint256"
            },
            {
              "internalType": "uint256[]",
              "name": "winnersForLevel",
              "type": "uint256[]"
            },
            {
              "internalType": "uint256[]",
              "name": "prizeForLevel",
              "type": "uint256[]"
            },
            {
              "internalType": "uint256",
              "name": "totalTickets",
              "type": "uint256"
            },
            {
              "internalType": "address[]",
              "name": "members",
              "type": "address[]"
            },
            {
              "internalType": "uint256",
              "name": "randomWord",
              "type": "uint256"
            },
            {
              "internalType": "address[][]",
              "name": "winners",
              "type": "address[][]"
            }
          ],
          "internalType": "struct Lottery.Round[]",
          "name": "",
          "type": "tuple[]"
        }
      ],
      "stateMutability": "view",
      "type": "function"
    },
    {
      "inputs": [
        {
          "internalType": "address",
          "name": "user",
          "type": "address"
        }
      ],
      "name": "getClaimStreak",
      "outputs": [
        {
          "internalType": "uint256",
          "name": "",
          "type": "uint256"
        }
      ],
      "stateMutability": "view",
      "type": "function"
    },
    {
      "inputs": [
        {
          "internalType": "uint256",
          "name": "length",
          "type": "uint256"
        },
        {
          "internalType": "uint256",
          "name": "offset",
          "type": "uint256"
        }
      ],
      "name": "getLastFinishedRounds",
      "outputs": [
        {
          "components": [
            {
              "internalType": "uint256",
              "name": "startTime",
              "type": "uint256"
            },
            {
              "internalType": "uint256",
              "name": "duration",
              "type": "uint256"
            },
            {
              "internalType": "bool",
              "name": "isClosed",
              "type": "bool"
            },
            {
              "internalType": "bool",
              "name": "isOracleFulfilled",
              "type": "bool"
            },
            {
              "internalType": "bool",
              "name": "isFinished",
              "type": "bool"
            },
            {
              "internalType": "uint256",
              "name": "initialPrize",
              "type": "uint256"
            },
            {
              "internalType": "uint256",
              "name": "totalPrize",
              "type": "uint256"
            },
            {
              "internalType": "uint256",
              "name": "maxTicketsFromOneMember",
              "type": "uint256"
            },
            {
              "internalType": "uint256",
              "name": "tokensForOneTicket",
              "type": "uint256"
            },
            {
              "internalType": "uint256[]",
              "name": "winnersForLevel",
              "type": "uint256[]"
            },
            {
              "internalType": "uint256[]",
              "name": "prizeForLevel",
              "type": "uint256[]"
            },
            {
              "internalType": "uint256",
              "name": "totalTickets",
              "type": "uint256"
            },
            {
              "internalType": "address[]",
              "name": "members",
              "type": "address[]"
            },
            {
              "internalType": "uint256",
              "name": "randomWord",
              "type": "uint256"
            },
            {
              "internalType": "address[][]",
              "name": "winners",
              "type": "address[][]"
            }
          ],
          "internalType": "struct Lottery.Round[]",
          "name": "",
          "type": "tuple[]"
        }
      ],
      "stateMutability": "view",
      "type": "function"
    },
    {
      "inputs": [
        {
          "internalType": "bytes32",
          "name": "role",
          "type": "bytes32"
        }
      ],
      "name": "getRoleAdmin",
      "outputs": [
        {
          "internalType": "bytes32",
          "name": "",
          "type": "bytes32"
        }
      ],
      "stateMutability": "view",
      "type": "function"
    },
    {
      "inputs": [
        {
          "internalType": "uint256",
          "name": "id",
          "type": "uint256"
        }
      ],
      "name": "getRound",
      "outputs": [
        {
          "components": [
            {
              "internalType": "uint256",
              "name": "startTime",
              "type": "uint256"
            },
            {
              "internalType": "uint256",
              "name": "duration",
              "type": "uint256"
            },
            {
              "internalType": "bool",
              "name": "isClosed",
              "type": "bool"
            },
            {
              "internalType": "bool",
              "name": "isOracleFulfilled",
              "type": "bool"
            },
            {
              "internalType": "bool",
              "name": "isFinished",
              "type": "bool"
            },
            {
              "internalType": "uint256",
              "name": "initialPrize",
              "type": "uint256"
            },
            {
              "internalType": "uint256",
              "name": "totalPrize",
              "type": "uint256"
            },
            {
              "internalType": "uint256",
              "name": "maxTicketsFromOneMember",
              "type": "uint256"
            },
            {
              "internalType": "uint256",
              "name": "tokensForOneTicket",
              "type": "uint256"
            },
            {
              "internalType": "uint256[]",
              "name": "winnersForLevel",
              "type": "uint256[]"
            },
            {
              "internalType": "uint256[]",
              "name": "prizeForLevel",
              "type": "uint256[]"
            },
            {
              "internalType": "uint256",
              "name": "totalTickets",
              "type": "uint256"
            },
            {
              "internalType": "address[]",
              "name": "members",
              "type": "address[]"
            },
            {
              "internalType": "uint256",
              "name": "randomWord",
              "type": "uint256"
            },
            {
              "internalType": "address[][]",
              "name": "winners",
              "type": "address[][]"
            }
          ],
          "internalType": "struct Lottery.Round",
          "name": "",
          "type": "tuple"
        }
      ],
      "stateMutability": "view",
      "type": "function"
    },
    {
      "inputs": [
        {
          "internalType": "bytes32",
          "name": "role",
          "type": "bytes32"
        },
        {
          "internalType": "address",
          "name": "account",
          "type": "address"
        }
      ],
      "name": "grantRole",
      "outputs": [],
      "stateMutability": "nonpayable",
      "type": "function"
    },
    {
      "inputs": [
        {
          "internalType": "bytes32",
          "name": "role",
          "type": "bytes32"
        },
        {
          "internalType": "address",
          "name": "account",
          "type": "address"
        }
      ],
      "name": "hasRole",
      "outputs": [
        {
          "internalType": "bool",
          "name": "",
          "type": "bool"
        }
      ],
      "stateMutability": "view",
      "type": "function"
    },
    {
      "inputs": [
        {
          "internalType": "address",
          "name": "user",
          "type": "address"
        }
      ],
      "name": "isClaimedToday",
      "outputs": [
        {
          "internalType": "bool",
          "name": "",
          "type": "bool"
        }
      ],
      "stateMutability": "view",
      "type": "function"
    },
    {
      "inputs": [
        {
          "internalType": "uint256",
          "name": "roundId",
          "type": "uint256"
        }
      ],
      "name": "manuallyGetWinners",
      "outputs": [],
      "stateMutability": "nonpayable",
      "type": "function"
    },
    {
      "inputs": [
        {
          "internalType": "uint256",
          "name": "",
          "type": "uint256"
        }
      ],
      "name": "oracleRequests",
      "outputs": [
        {
          "internalType": "uint256",
          "name": "",
          "type": "uint256"
        }
      ],
      "stateMutability": "view",
      "type": "function"
    },
    {
      "inputs": [
        {
          "internalType": "uint256",
          "name": "requestId",
          "type": "uint256"
        },
        {
          "internalType": "uint256[]",
          "name": "randomWords",
          "type": "uint256[]"
        }
      ],
      "name": "rawFulfillRandomWords",
      "outputs": [],
      "stateMutability": "nonpayable",
      "type": "function"
    },
    {
      "inputs": [
        {
          "internalType": "bytes32",
          "name": "role",
          "type": "bytes32"
        },
        {
          "internalType": "address",
          "name": "account",
          "type": "address"
        }
      ],
      "name": "renounceRole",
      "outputs": [],
      "stateMutability": "nonpayable",
      "type": "function"
    },
    {
      "inputs": [
        {
          "internalType": "bytes32",
          "name": "role",
          "type": "bytes32"
        },
        {
          "internalType": "address",
          "name": "account",
          "type": "address"
        }
      ],
      "name": "revokeRole",
      "outputs": [],
      "stateMutability": "nonpayable",
      "type": "function"
    },
    {
      "inputs": [
        {
          "internalType": "uint256",
          "name": "",
          "type": "uint256"
        }
      ],
      "name": "rounds",
      "outputs": [
        {
          "internalType": "uint256",
          "name": "startTime",
          "type": "uint256"
        },
        {
          "internalType": "uint256",
          "name": "duration",
          "type": "uint256"
        },
        {
          "internalType": "bool",
          "name": "isClosed",
          "type": "bool"
        },
        {
          "internalType": "bool",
          "name": "isOracleFulfilled",
          "type": "bool"
        },
        {
          "internalType": "bool",
          "name": "isFinished",
          "type": "bool"
        },
        {
          "internalType": "uint256",
          "name": "initialPrize",
          "type": "uint256"
        },
        {
          "internalType": "uint256",
          "name": "totalPrize",
          "type": "uint256"
        },
        {
          "internalType": "uint256",
          "name": "maxTicketsFromOneMember",
          "type": "uint256"
        },
        {
          "internalType": "uint256",
          "name": "tokensForOneTicket",
          "type": "uint256"
        },
        {
          "internalType": "uint256",
          "name": "totalTickets",
          "type": "uint256"
        },
        {
          "internalType": "uint256",
          "name": "randomWord",
          "type": "uint256"
        }
      ],
      "stateMutability": "view",
      "type": "function"
    },
    {
      "inputs": [
        {
          "internalType": "bytes4",
          "name": "interfaceId",
          "type": "bytes4"
        }
      ],
      "name": "supportsInterface",
      "outputs": [
        {
          "internalType": "bool",
          "name": "",
          "type": "bool"
        }
      ],
      "stateMutability": "view",
      "type": "function"
    },
    {
      "inputs": [
        {
          "internalType": "uint32",
          "name": "gasLimit",
          "type": "uint32"
        }
      ],
      "name": "updateCallbackGasLimit",
      "outputs": [],
      "stateMutability": "nonpayable",
      "type": "function"
    },
    {
      "inputs": [
        {
          "internalType": "uint256",
          "name": "sec",
          "type": "uint256"
        }
      ],
      "name": "updateClaimPeriod",
      "outputs": [],
      "stateMutability": "nonpayable",
      "type": "function"
    },
    {
      "inputs": [
        {
          "internalType": "uint256",
          "name": "daysNum",
          "type": "uint256"
        }
      ],
      "name": "updateDaysStreakForTicket",
      "outputs": [],
      "stateMutability": "nonpayable",
      "type": "function"
    },
    {
      "inputs": [
        {
          "internalType": "bytes32",
          "name": "kayHash",
          "type": "bytes32"
        }
      ],
      "name": "updateKeyHash",
      "outputs": [],
      "stateMutability": "nonpayable",
      "type": "function"
    },
    {
      "inputs": [
        {
          "internalType": "address",
          "name": "token",
          "type": "address"
        }
      ],
      "name": "updatePaymentToken",
      "outputs": [],
      "stateMutability": "nonpayable",
      "type": "function"
    },
    {
      "inputs": [
        {
          "internalType": "uint16",
          "name": "confirmations",
          "type": "uint16"
        }
      ],
      "name": "updateRequestConfirmations",
      "outputs": [],
      "stateMutability": "nonpayable",
      "type": "function"
    },
    {
      "inputs": [
        {
          "internalType": "address",
          "name": "pool",
          "type": "address"
        }
      ],
      "name": "updateRewardPool",
      "outputs": [],
      "stateMutability": "nonpayable",
      "type": "function"
    },
    {
      "inputs": [
        {
          "internalType": "address",
          "name": "token",
          "type": "address"
        }
      ],
      "name": "updateRewardToken",
      "outputs": [],
      "stateMutability": "nonpayable",
      "type": "function"
    },
    {
      "inputs": [
        {
          "internalType": "uint64",
          "name": "id",
          "type": "uint64"
        }
      ],
      "name": "updateSubscriptionId",
      "outputs": [],
      "stateMutability": "nonpayable",
      "type": "function"
    },
    {
      "inputs": [
        {
          "internalType": "uint256",
          "name": "id",
          "type": "uint256"
        }
      ],
      "name": "updateTicketId",
      "outputs": [],
      "stateMutability": "nonpayable",
      "type": "function"
    },
    {
      "inputs": [
        {
          "internalType": "uint256",
          "name": "price",
          "type": "uint256"
        }
      ],
      "name": "updateTicketPrice",
      "outputs": [],
      "stateMutability": "nonpayable",
      "type": "function"
    },
    {
      "inputs": [
        {
          "internalType": "address",
          "name": "token",
          "type": "address"
        }
      ],
      "name": "updateTicketToken",
      "outputs": [],
      "stateMutability": "nonpayable",
      "type": "function"
    },
    {
      "inputs": [
        {
          "internalType": "bool",
          "name": "isEnabled",
          "type": "bool"
        }
      ],
      "name": "updateWinnerCalculationInRequest",
      "outputs": [],
      "stateMutability": "nonpayable",
      "type": "function"
    }
  ],
  "transactionHash": "0xa22714fb70944172da8332b9b2cec43eeb56230d4e5c3c0d6e9342b0f43c096d",
  "args": [
    "10000000000000000000",
    0,
    5,
    "0x6C9390091A92e09e08F612aEcF4E2BA697D69CEF",
    "0xb971Bbda8043267e8047372A29A5bfA8B78A2D04",
    "0xbaD18847048E47f58f90B049A3C2b5A308Fb0E66",
    "0xf982D706f37Cb781D567395877EC35eDCB7Cf65C",
    "0x7a1BaC17Ccc5b313516C5E16fb24f7659aA5ebed",
    "580",
    "0x4b09e658ed251bcafeebbc69400383d49f344ace09b9576fe248bb02c003fe9f"
  ],
  "numDeployments": 2,
  "solcInputHash": "f2978c3ef01f6829dbd6b0ed0bd08dd1",
  "bytecode": "0x60a0604052620151806007556010805466ffffffffffffff19166403000186a01790553480156200002f57600080fd5b5060405162003fae38038062003fae8339810160408190526200005291620001e8565b6001600160a01b03838116608081905260048c905560058b905560068a9055600880546001600160a01b03199081168b8516179091556009805482168a8516179055600a80548216898516179055600b8054821693881693909317909255600c8054909216179055600e80546001600160401b0319166001600160401b038416179055600f819055620000ee6000620000e83390565b6200012a565b6200011a7f97667070c54ef182b0f5858b034beac1b6f3089aa2d3188bb1e8929f4fa9b929336200012a565b50505050505050505050620002a3565b6000828152602081815260408083206001600160a01b038516845290915290205460ff16620001c7576000828152602081815260408083206001600160a01b03851684529091529020805460ff19166001179055620001863390565b6001600160a01b0316816001600160a01b0316837f2f8788117e7eff1d82e926ec794901d17c78024a50270940304540a733656f0d60405160405180910390a45b5050565b80516001600160a01b0381168114620001e357600080fd5b919050565b6000806000806000806000806000806101408b8d0312156200020957600080fd5b8a51995060208b0151985060408b015197506200022960608c01620001cb565b96506200023960808c01620001cb565b95506200024960a08c01620001cb565b94506200025960c08c01620001cb565b93506200026960e08c01620001cb565b6101008c01519093506001600160401b03811681146200028857600080fd5b809250506101208b015190509295989b9194979a5092959850565b608051613ce8620002c660003960008181610be80152610c2a0152613ce86000f3fe608060405234801561001057600080fd5b506004361061023d5760003560e01c80637d984d5f1161013b578063b0e8d086116100b8578063e44ddc221161007c578063e44ddc2214610542578063e7fa67e51461054b578063f02137c81461055e578063f5b541a614610571578063f8cf31cb1461058657600080fd5b8063b0e8d086146104e3578063ba00f6c5146104f6578063d547741f14610509578063d5fbac3a1461051c578063dcd2f2e01461052f57600080fd5b806391d14854116100ff57806391d148541461048f5780639d517942146104a2578063a1d3f4af146104b5578063a217fddf146104c8578063a3fe5169146104d057600080fd5b80637d984d5f146103e05780637f774d02146103e85780638c65c81f146103f05780638f1327c01461045c578063905d46361461047c57600080fd5b80632f2ff15d116101c95780634a12512e1161018d5780634a12512e146103745780634ccf1b3414610387578063592eef111461039a5780635f5369e6146103ad57806372d4c622146103cd57600080fd5b80632f2ff15d1461031f5780632f366637146103325780632faaaae81461034557806336568abe1461034e578063449050bc1461036157600080fd5b806314b1dd1b1161021057806314b1dd1b146102b65780631a95f15f146102c95780631fe543e3146102e057806321241dfe146102f3578063248a9ca3146102fc57600080fd5b806301b327cf1461024257806301ffc9a71461026b578063110cace81461028e578063148bea63146102a3575b600080fd5b61025561025036600461342a565b610599565b604051610262919061361f565b60405180910390f35b61027e610279366004613681565b6109db565b6040519015158152602001610262565b6102a161029c366004613730565b610a10565b005b6102a16102b136600461384e565b610b9d565b6102a16102c4366004613867565b610bae565b6102d260045481565b604051908152602001610262565b6102a16102ee3660046138f6565b610bdd565b6102d260075481565b6102d261030a36600461384e565b60009081526020819052604090206001015490565b6102a161032d36600461393c565b610c65565b6102a161034036600461384e565b610c8f565b6102d260065481565b6102a161035c36600461393c565b610d74565b6102a161036f36600461384e565b610dee565b6102a1610382366004613968565b610e0f565b6102a16103953660046139fb565b6113ca565b6102d26103a83660046139fb565b6113f8565b6102d26103bb36600461384e565b600d6020526000908152604090205481565b6102a16103db36600461342a565b611531565b610255611819565b6102a1611c4d565b6104036103fe36600461384e565b611de2565b604080519b8c5260208c019a909a52971515988a01989098529415156060890152921515608088015260a087019190915260c086015260e085015261010084015261012083019190915261014082015261016001610262565b61046f61046a36600461384e565b611e50565b6040516102629190613a16565b6102a161048a3660046139fb565b6120ba565b61027e61049d36600461393c565b6120e8565b6102a16104b036600461384e565b612111565b6102a16104c336600461384e565b612122565b6102d2600081565b61027e6104de3660046139fb565b612133565b6102a16104f1366004613a29565b612202565b6102a1610504366004613a4f565b61222a565b6102a161051736600461393c565b61225a565b6102a161052a3660046139fb565b61227f565b6102a161053d366004613a81565b6122ad565b6102d260055481565b6102a161055936600461384e565b6122dd565b6102a161056c36600461384e565b6122ee565b6102d2600080516020613c9383398151915281565b6102a16105943660046139fb565b6122ff565b60606000836001600160401b038111156105b5576105b56136ab565b6040519080825280602002602001820160405280156105ee57816020015b6105db613265565b8152602001906001900390816105d35790505b50600154909150849084905b80156108fa57600161060c8183613ab4565b8154811061061c5761061c613acb565b90600052602060002090600d020160020160029054906101000a900460ff16156108e857811561065857610651600183613ab4565b91506108e8565b610663600184613ab4565b925060016106718183613ab4565b8154811061068157610681613acb565b6000918252602091829020604080516101e081018252600d90930290910180548352600181015483850152600281015460ff808216151585850152610100808304821615156060870152620100009092041615156080850152600382015460a0850152600482015460c0850152600582015460e0850152600682015490840152600781018054835181870281018701909452808452939491936101208601939283018282801561075057602002820191906000526020600020905b81548152602001906001019080831161073c575b50505050508152602001600882018054806020026020016040519081016040528092919081815260200182805480156107a857602002820191906000526020600020905b815481526020019060010190808311610794575b5050505050815260200160098201548152602001600a820180548060200260200160405190810160405280929190818152602001828054801561081457602002820191906000526020600020905b81546001600160a01b031681526001909101906020018083116107f6575b50505050508152602001600b8201548152602001600c8201805480602002602001604051908101604052809291908181526020016000905b828210156108c2576000848152602090819020830180546040805182850281018501909152818152928301828280156108ae57602002820191906000526020600020905b81546001600160a01b03168152600190910190602001808311610890575b50505050508152602001906001019061084c565b50505050815250508484815181106108dc576108dc613acb565b60200260200101819052505b806108f281613ae1565b9150506105fa565b508161090b578293505050506109d5565b60006109178388613ab4565b90506000816001600160401b03811115610933576109336136ab565b60405190808252806020026020018201604052801561096c57816020015b610959613265565b8152602001906001900390816109515790505b50905060005b828110156109cd57856109858683613af8565b8151811061099557610995613acb565b60200260200101518282815181106109af576109af613acb565b602002602001018190525080806109c590613b10565b915050610972565b509450505050505b92915050565b60006001600160e01b03198216637965db0b60e01b14806109d557506301ffc9a760e01b6001600160e01b03198316146109d5565b600080516020613c93833981519152610a288161232d565b6001548310610a765760405162461bcd60e51b8152602060048201526015602482015274125b9cdd59999a58da595b9d081c9bdd5b99081a59605a1b60448201526064015b60405180910390fd5b600060018481548110610a8b57610a8b613acb565b90600052602060002090600d020190504281600101548260000154610ab09190613af8565b10610afd5760405162461bcd60e51b815260206004820152601960248201527f526f756e64206973206e6f742066696e697368656420796574000000000000006044820152606401610a6d565b600281015460ff1615610b4c5760405162461bcd60e51b8152602060048201526017602482015276149bdd5b99081a5cc8185b1c9958591e4818db1bdcd959604a1b6044820152606401610a6d565b610b5584612337565b5060028101805460ff1916600117905560068101546009820154610b799190613b2b565b8160030154610b889190613af8565b6004820155610b978484612442565b50505050565b6000610ba88161232d565b50600655565b6000610bb98161232d565b50600e805467ffffffffffffffff19166001600160401b0392909216919091179055565b336001600160a01b037f00000000000000000000000000000000000000000000000000000000000000001614610c575760405163073e64fd60e21b81523360048201526001600160a01b037f0000000000000000000000000000000000000000000000000000000000000000166024820152604401610a6d565b610c618282612639565b5050565b600082815260208190526040902060010154610c808161232d565b610c8a8383612783565b505050565b60008111610cdf5760405162461bcd60e51b815260206004820152601f60248201527f416d6f756e742073686f756c642062652067726561746572207468616e2030006044820152606401610a6d565b600060045482610cef9190613b2b565b6009549091506001600160a01b03166379cc6790336040516001600160e01b031960e084901b1681526001600160a01b03909116600482015260248101849052604401600060405180830381600087803b158015610d4c57600080fd5b505af1158015610d60573d6000803e3d6000fd5b50505050610c61610d6e3390565b83612807565b6001600160a01b0381163314610de45760405162461bcd60e51b815260206004820152602f60248201527f416363657373436f6e74726f6c3a2063616e206f6e6c792072656e6f756e636560448201526e103937b632b9903337b91039b2b63360891b6064820152608401610a6d565b610c6182826128d2565b600080516020613c93833981519152610e068161232d565b610c6182612937565b600080516020613c93833981519152610e278161232d565b6000861180610e365750600085115b610e685760405162461bcd60e51b815260206004820152600360248201526245433160e81b6044820152606401610a6d565b8151835114610e9f5760405162461bcd60e51b815260206004820152600360248201526222a19960e91b6044820152606401610a6d565b6000835111610ed65760405162461bcd60e51b815260206004820152600360248201526245433360e81b6044820152606401610a6d565b60008411610f0c5760405162461bcd60e51b81526020600482015260036024820152621150cd60ea1b6044820152606401610a6d565b42881015610f425760405162461bcd60e51b815260206004820152600360248201526245433560e81b6044820152606401610a6d565b60008711610f785760405162461bcd60e51b815260206004820152600360248201526222a19b60e91b6044820152606401610a6d565b82516000816001600160401b03811115610f9457610f946136ab565b604051908082528060200260200182016040528015610fc757816020015b6060815260200190600190039081610fb25790505b5090506000805b865181101561108957858181518110610fe957610fe9613acb565b602002602001015182610ffc9190613af8565b915086818151811061101057611010613acb565b60200260200101516001600160401b0381111561102f5761102f6136ab565b604051908082528060200260200182016040528015611058578160200160208202803683370190505b5083828151811061106b5761106b613acb565b6020026020010181905250808061108190613b10565b915050610fce565b50806064146110c05760405162461bcd60e51b815260206004820152600360248201526245433760e81b6044820152606401610a6d565b6000604051806101e001604052808d81526020018c81526020016000151581526020016000151581526020016000151581526020018b8152602001600081526020018981526020018a81526020018881526020018781526020016000815260200160006001600160401b0381111561113a5761113a6136ab565b604051908082528060200260200182016040528015611163578160200160208202803683370190505b5081526000602082018190526040918201869052600154915192935090917fffd54b413ad7953f600667abc68976fd55918f924f39fad7a55319a0217ad3b79190a260018054808201825560009190915281517fb10e2d527612073b26eecdfd717e6a320cf44b4afac2b0732d9fcbe2b7fa0cf6600d9092029182019081556020808401517fb10e2d527612073b26eecdfd717e6a320cf44b4afac2b0732d9fcbe2b7fa0cf784015560408401517fb10e2d527612073b26eecdfd717e6a320cf44b4afac2b0732d9fcbe2b7fa0cf8840180546060870151608088015161ffff1990921693151561ff0019169390931761010093151584021762ff00001916620100009115159190910217905560a08501517fb10e2d527612073b26eecdfd717e6a320cf44b4afac2b0732d9fcbe2b7fa0cf985015560c08501517fb10e2d527612073b26eecdfd717e6a320cf44b4afac2b0732d9fcbe2b7fa0cfa85015560e08501517fb10e2d527612073b26eecdfd717e6a320cf44b4afac2b0732d9fcbe2b7fa0cfb8501558401517fb10e2d527612073b26eecdfd717e6a320cf44b4afac2b0732d9fcbe2b7fa0cfc8401556101208401518051859461134c937fb10e2d527612073b26eecdfd717e6a320cf44b4afac2b0732d9fcbe2b7fa0cfd9091019201906132e1565b5061014082015180516113699160088401916020909101906132e1565b506101608201516009820155610180820151805161139191600a84019160209091019061332c565b506101a0820151600b8201556101c082015180516113b991600c840191602090910190613381565b505050505050505050505050505050565b60006113d58161232d565b50600980546001600160a01b0319166001600160a01b0392909216919091179055565b6001600160a01b0381166000908152600360205260408120805461141f5750600092915050565b60006001905060006007548360008154811061143d5761143d613acb565b90600052602060002001546114529190613b60565b905060015b83548110156114ff5783818154811061147257611472613acb565b90600052602060002001546000141561148a576114ff565b60006007548583815481106114a1576114a1613acb565b90600052602060002001546114b69190613b60565b90506114c3836001613af8565b8114156114df576114d5600185613af8565b93508092506114ec565b5060009695505050505050565b50806114f781613b10565b915050611457565b5061150b816001613af8565b6007546115189042613b60565b111561152957506000949350505050565b509392505050565b600154821061157a5760405162461bcd60e51b8152602060048201526015602482015274125b9cdd59999a58da595b9d081c9bdd5b99081a59605a1b6044820152606401610a6d565b600081116115c05760405162461bcd60e51b815260206004820152601360248201527205469636b65747320616d6f756e74206973203606c1b6044820152606401610a6d565b6000600183815481106115d5576115d5613acb565b60009182526020808320868452600290915260408320600d909202019250816115fb3390565b6001600160a01b03166001600160a01b0316815260200190815260200160002054905042826000015411156116725760405162461bcd60e51b815260206004820152601860248201527f526f756e64206973206e6f7420737461727465642079657400000000000000006044820152606401610a6d565b60018201548254429161168491613af8565b116116cb5760405162461bcd60e51b8152602060048201526017602482015276149bdd5b99081a5cc8185b1c9958591e4818db1bdcd959604a1b6044820152606401610a6d565b60058201546116da8483613af8565b11156117285760405162461bcd60e51b815260206004820152601f60248201527f546f6f206d616e79207469636b65747320666f72206f6e65206d656d626572006044820152606401610a6d565b6008546001600160a01b031663f5298aca336005546040516001600160e01b031960e085901b1681526001600160a01b039092166004830152602482015260448101869052606401600060405180830381600087803b15801561178a57600080fd5b505af115801561179e573d6000803e3d6000fd5b5050505080600014156117d357600a82018054600181018255600091825260209091200180546001600160a01b031916331790555b6117dd8382613af8565b600085815260026020908152604080832033845290915281209190915560098301805485929061180e908490613af8565b909155505050505050565b60606000806001805490506001600160401b0381111561183b5761183b6136ab565b604051908082528060200260200182016040528015611864578160200160208202803683370190505b50905060005b60015481101561191357426001828154811061188857611888613acb565b90600052602060002090600d020160010154600183815481106118ad576118ad613acb565b90600052602060002090600d0201600001546118c99190613af8565b11156119015760018282815181106118e3576118e3613acb565b911515602092830291909101909101526118fe600184613af8565b92505b8061190b81613b10565b91505061186a565b506000826001600160401b0381111561192e5761192e6136ab565b60405190808252806020026020018201604052801561196757816020015b611954613265565b81526020019060019003908161194c5790505b506001549091505b80156115295782611981600183613ab4565b8151811061199157611991613acb565b602002602001015115611c3b576119a9600185613ab4565b935060016119b78183613ab4565b815481106119c7576119c7613acb565b6000918252602091829020604080516101e081018252600d90930290910180548352600181015483850152600281015460ff808216151585850152610100808304821615156060870152620100009092041615156080850152600382015460a0850152600482015460c0850152600582015460e08501526006820154908401526007810180548351818702810187019094528084529394919361012086019392830182828015611a9657602002820191906000526020600020905b815481526020019060010190808311611a82575b5050505050815260200160088201805480602002602001604051908101604052809291908181526020018280548015611aee57602002820191906000526020600020905b815481526020019060010190808311611ada575b5050505050815260200160098201548152602001600a8201805480602002602001604051908101604052809291908181526020018280548015611b5a57602002820191906000526020600020905b81546001600160a01b03168152600190910190602001808311611b3c575b50505050508152602001600b8201548152602001600c8201805480602002602001604051908101604052809291908181526020016000905b82821015611c0857600084815260209081902083018054604080518285028101850190915281815292830182828015611bf457602002820191906000526020600020905b81546001600160a01b03168152600190910190602001808311611bd6575b505050505081526020019060010190611b92565b5050505081525050828581518110611c2257611c22613acb565b60200260200101819052508360001415611c3b57611529565b80611c4581613ae1565b91505061196f565b611c5633612133565b15611c9b5760405162461bcd60e51b8152602060048201526015602482015274416c726561647920636c61696d656420746f64617960581b6044820152606401610a6d565b6000611ca6336113f8565b905060065481101580611cb7575080155b15611d2a576006546001600160401b03811115611cd657611cd66136ab565b604051908082528060200260200182016040528015611cff578160200160208202803683370190505b503360009081526003602090815260409091208251611d2493919291909101906132e1565b50600090505b60005b33600090815260036020526040902054811015611dbf57336000908152600360205260409020805482908110611d6557611d65613acb565b906000526020600020015460001415611dad57336000908152600360205260409020805442919083908110611d9c57611d9c613acb565b600091825260209091200155611dbf565b80611db781613b10565b915050611d2d565b50600654611dce826001613af8565b1415611ddf57611ddf336001612807565b50565b60018181548110611df257600080fd5b60009182526020909120600d9091020180546001820154600283015460038401546004850154600586015460068701546009880154600b90980154969850949660ff808616976101008704821697620100009097049091169591908b565b611e58613265565b60018281548110611e6b57611e6b613acb565b6000918252602091829020604080516101e081018252600d90930290910180548352600181015483850152600281015460ff808216151585850152610100808304821615156060870152620100009092041615156080850152600382015460a0850152600482015460c0850152600582015460e08501526006820154908401526007810180548351818702810187019094528084529394919361012086019392830182828015611f3a57602002820191906000526020600020905b815481526020019060010190808311611f26575b5050505050815260200160088201805480602002602001604051908101604052809291908181526020018280548015611f9257602002820191906000526020600020905b815481526020019060010190808311611f7e575b5050505050815260200160098201548152602001600a8201805480602002602001604051908101604052809291908181526020018280548015611ffe57602002820191906000526020600020905b81546001600160a01b03168152600190910190602001808311611fe0575b50505050508152602001600b8201548152602001600c8201805480602002602001604051908101604052809291908181526020016000905b828210156120ac5760008481526020908190208301805460408051828502810185019091528181529283018282801561209857602002820191906000526020600020905b81546001600160a01b0316815260019091019060200180831161207a575b505050505081526020019060010190612036565b505050915250909392505050565b60006120c58161232d565b50600880546001600160a01b0319166001600160a01b0392909216919091179055565b6000918252602082815260408084206001600160a01b0393909316845291905290205460ff1690565b600061211c8161232d565b50600755565b600061212d8161232d565b50600555565b6001600160a01b0381166000908152600360205260408120805461215a5750600092915050565b60006007544261216a9190613b60565b82549091505b80156121f757600083612184600184613ab4565b8154811061219457612194613acb565b906000526020600020015411156121e5576007548290846121b6600185613ab4565b815481106121c6576121c6613acb565b90600052602060002001546121db9190613b60565b1495945050505050565b806121ef81613ae1565b915050612170565b506000949350505050565b600061220d8161232d565b506010805463ffffffff191663ffffffff92909216919091179055565b60006122358161232d565b506010805461ffff9092166401000000000265ffff0000000019909216919091179055565b6000828152602081905260409020600101546122758161232d565b610c8a83836128d2565b600061228a8161232d565b50600b80546001600160a01b0319166001600160a01b0392909216919091179055565b60006122b88161232d565b506010805491151566010000000000000266ff00000000000019909216919091179055565b60006122e88161232d565b50600f55565b60006122f98161232d565b50600455565b600061230a8161232d565b50600a80546001600160a01b0319166001600160a01b0392909216919091179055565b611ddf813361305f565b6000600080516020613c938339815191526123518161232d565b600c54600f54600e546010546040516305d3b1d360e41b815260048101939093526001600160401b039091166024830152640100000000810461ffff16604483015263ffffffff166064820152600160848201526000916001600160a01b031690635d3b1d309060a4016020604051808303816000875af11580156123da573d6000803e3d6000fd5b505050506040513d601f19601f820116820180604052508101906123fe9190613b74565b6000818152600d602052604080822087905551919250829186917ff9f171fefccda92248e5f0fdcf6c04ff1e2d16592241264abd91d121874f4f5291a39392505050565b60006001838154811061245757612457613acb565b90600052602060002090600d0201905060005b8251811015610b975760005b83828151811061248857612488613acb565b602002602001015151811015612626578382815181106124aa576124aa613acb565b602002602001015181815181106124c3576124c3613acb565b602002602001015183600c0183815481106124e0576124e0613acb565b9060005260206000200182815481106124fb576124fb613acb565b9060005260206000200160006101000a8154816001600160a01b0302191690836001600160a01b0316021790555060026000868152602001908152602001600020600085848151811061255057612550613acb565b6020026020010151838151811061256957612569613acb565b60200260200101516001600160a01b03166001600160a01b03168152602001908152602001600020548360090160008282546125a59190613ab4565b90915550506000858152600260205260408120855182908790869081106125ce576125ce613acb565b602002602001015184815181106125e7576125e7613acb565b60200260200101516001600160a01b03166001600160a01b0316815260200190815260200160002081905550808061261e90613b10565b915050612476565b508061263181613b10565b91505061246a565b6000828152600d6020526040902054600180548290811061265c5761265c613acb565b90600052602060002090600d020160020160019054906101000a900460ff16156126b15760405162461bcd60e51b8152600401610a6d906020808252600490820152630454331360e41b604082015260600190565b6000600182815481106126c6576126c6613acb565b90600052602060002090600d02019050826000815181106126e9576126e9613acb565b6020908102919091010151600b82015560028101805461ff0019166101001790556010546601000000000000900460ff16156127285761272882612937565b83827fa9c8267b94f3ce97d170a9faaacd4f71922c05f07bc2f73222364bdd7173668b8560008151811061275e5761275e613acb565b602002602001015160405161277591815260200190565b60405180910390a350505050565b61278d82826120e8565b610c61576000828152602081815260408083206001600160a01b03851684529091529020805460ff191660011790556127c33390565b6001600160a01b0316816001600160a01b0316837f2f8788117e7eff1d82e926ec794901d17c78024a50270940304540a733656f0d60405160405180910390a45050565b60085460055460405163731133e960e01b81526001600160a01b038581166004830152602482019290925260448101849052608060648201526000608482015291169063731133e99060a401600060405180830381600087803b15801561286d57600080fd5b505af1158015612881573d6000803e3d6000fd5b5050505061288c3390565b6001600160a01b03167f76513afb012856b6d7375c6d6f5e1bfffc159135e1a3d2cd6a2abb66ce951177826040516128c691815260200190565b60405180910390a25050565b6128dc82826120e8565b15610c61576000828152602081815260408083206001600160a01b0385168085529252808320805460ff1916905551339285917ff6391f5c32d9c69d2a47ea670b442974b53935d1edc7fd64eb21e047a839171b9190a45050565b60006001828154811061294c5761294c613acb565b6000918252602091829020604080516101e081018252600d90930290910180548352600181015483850152600281015460ff808216151585850152610100808304821615156060870152620100009092041615156080850152600382015460a0850152600482015460c0850152600582015460e08501526006820154908401526007810180548351818702810187019094528084529394919361012086019392830182828015612a1b57602002820191906000526020600020905b815481526020019060010190808311612a07575b5050505050815260200160088201805480602002602001604051908101604052809291908181526020018280548015612a7357602002820191906000526020600020905b815481526020019060010190808311612a5f575b5050505050815260200160098201548152602001600a8201805480602002602001604051908101604052809291908181526020018280548015612adf57602002820191906000526020600020905b81546001600160a01b03168152600190910190602001808311612ac1575b50505050508152602001600b8201548152602001600c8201805480602002602001604051908101604052809291908181526020016000905b82821015612b8d57600084815260209081902083018054604080518285028101850190915281815292830182828015612b7957602002820191906000526020600020905b81546001600160a01b03168152600190910190602001808311612b5b575b505050505081526020019060010190612b17565b505050508152505090508060600151612be15760405162461bcd60e51b8152602060048201526016602482015275149bdd5b99081a5cc81b9bdd08199d5b199a5b1b195960521b6044820152606401610a6d565b806080015115612c335760405162461bcd60e51b815260206004820152601960248201527f526f756e6420697320616c72656164792066696e6973686564000000000000006044820152606401610a6d565b6001808381548110612c4757612c47613acb565b6000918252602082206002600d90920201018054921515620100000262ff0000199093169290921790915560405183917f74ef25ef6b332a2fbbe7eb8b4108e0fe842a929d34c52a2ea4ca1a0f1524f10791a2610160810151612ca8575050565b6101a081015160005b826101c0015151811015610b975760008361014001518281518110612cd857612cd8613acb565b602002602001015160648560c00151612cf19190613b60565b612cfb9190613b2b565b905060005b846101c001518381518110612d1757612d17613acb565b60200260200101515181101561304a5742612d33826001613af8565b612d3e856001613af8565b612d489087613b2b565b612d529190613b2b565b612d5c9190613b8d565b612d67906001613af8565b93506000856101c001518481518110612d8257612d82613acb565b60200260200101518281518110612d9b57612d9b613acb565b6020026020010151905060006001600160a01b0316866101c001518581518110612dc757612dc7613acb565b60200260200101518381518110612de057612de0613acb565b60200260200101516001600160a01b03161415612f8457600086610160015186612e0a9190613b8d565b612e15906001613af8565b905060005b87610180015151811015612f025760008861018001518281518110612e4157612e41613acb565b60209081029190910181015160008c81526002835260408082206001600160a01b03841683529093529190912054909150808411612ee15760008b81526002602090815260408083206001600160a01b03861684529091529020546101608b0180519396508693612eb3908390613ab4565b9052505060008a81526002602090815260408083206001600160a01b03909416835292905290812055612f02565b612eeb8185613ab4565b935050508080612efa90613b10565b915050612e1a565b508160018981548110612f1757612f17613acb565b90600052602060002090600d0201600c018681548110612f3957612f39613acb565b906000526020600020018481548110612f5457612f54613acb565b9060005260206000200160006101000a8154816001600160a01b0302191690836001600160a01b03160217905550505b6000866101c001518581518110612f9d57612f9d613acb565b60200260200101515184612fb19190613b60565b600a54600b546040516323b872dd60e01b81526001600160a01b03918216600482015285821660248201526044810184905292935016906323b872dd906064016020604051808303816000875af1158015613010573d6000803e3d6000fd5b505050506040513d601f19601f820116820180604052508101906130349190613ba1565b505050808061304290613b10565b915050612d00565b5050808061305790613b10565b915050612cb1565b61306982826120e8565b610c6157613081816001600160a01b031660146130c3565b61308c8360206130c3565b60405160200161309d929190613bea565b60408051601f198184030181529082905262461bcd60e51b8252610a6d91600401613c5f565b606060006130d2836002613b2b565b6130dd906002613af8565b6001600160401b038111156130f4576130f46136ab565b6040519080825280601f01601f19166020018201604052801561311e576020820181803683370190505b509050600360fc1b8160008151811061313957613139613acb565b60200101906001600160f81b031916908160001a905350600f60fb1b8160018151811061316857613168613acb565b60200101906001600160f81b031916908160001a905350600061318c846002613b2b565b613197906001613af8565b90505b600181111561320f576f181899199a1a9b1b9c1cb0b131b232b360811b85600f16601081106131cb576131cb613acb565b1a60f81b8282815181106131e1576131e1613acb565b60200101906001600160f81b031916908160001a90535060049490941c9361320881613ae1565b905061319a565b50831561325e5760405162461bcd60e51b815260206004820181905260248201527f537472696e67733a20686578206c656e67746820696e73756666696369656e746044820152606401610a6d565b9392505050565b604051806101e001604052806000815260200160008152602001600015158152602001600015158152602001600015158152602001600081526020016000815260200160008152602001600081526020016060815260200160608152602001600081526020016060815260200160008152602001606081525090565b82805482825590600052602060002090810192821561331c579160200282015b8281111561331c578251825591602001919060010190613301565b506133289291506133da565b5090565b82805482825590600052602060002090810192821561331c579160200282015b8281111561331c57825182546001600160a01b0319166001600160a01b0390911617825560209092019160019091019061334c565b8280548282559060005260206000209081019282156133ce579160200282015b828111156133ce57825180516133be91849160209091019061332c565b50916020019190600101906133a1565b506133289291506133ef565b5b8082111561332857600081556001016133db565b80821115613328576000613403828261340c565b506001016133ef565b5080546000825590600052602060002090810190611ddf91906133da565b6000806040838503121561343d57600080fd5b50508035926020909101359150565b600081518084526020808501945080840160005b8381101561347c57815187529582019590820190600101613460565b509495945050505050565b600081518084526020808501945080840160005b8381101561347c5781516001600160a01b03168752958201959082019060010161349b565b600082825180855260208086019550808260051b84010181860160005b8481101561350b57601f198684030189526134f9838351613487565b988401989250908301906001016134dd565b5090979650505050505050565b60006101e08251845260208301516020850152604083015161353e604086018215159052565b506060830151613552606086018215159052565b506080830151613566608086018215159052565b5060a083015160a085015260c083015160c085015260e083015160e08501526101008084015181860152506101208084015182828701526135a98387018261344c565b9250505061014080840151858303828701526135c5838261344c565b9250505061016080840151818601525061018080840151858303828701526135ed8382613487565b925050506101a08084015181860152506101c0808401518583038287015261361583826134c0565b9695505050505050565b6000602080830181845280855180835260408601915060408160051b870101925083870160005b8281101561367457603f19888603018452613662858351613518565b94509285019290850190600101613646565b5092979650505050505050565b60006020828403121561369357600080fd5b81356001600160e01b03198116811461325e57600080fd5b634e487b7160e01b600052604160045260246000fd5b604051601f8201601f191681016001600160401b03811182821017156136e9576136e96136ab565b604052919050565b60006001600160401b0382111561370a5761370a6136ab565b5060051b60200190565b80356001600160a01b038116811461372b57600080fd5b919050565b600080604080848603121561374457600080fd5b833592506020808501356001600160401b038082111561376357600080fd5b818701915087601f83011261377757600080fd5b813561378a613785826136f1565b6136c1565b81815260059190911b8301840190848101908a8311156137a957600080fd5b8585015b8381101561383c578035858111156137c55760008081fd5b8601603f81018d136137d75760008081fd5b878101356137e7613785826136f1565b81815260059190911b82018a0190898101908f8311156138075760008081fd5b928b01925b8284101561382c5761381d84613714565b8252928a0192908a019061380c565b86525050509186019186016137ad565b50809750505050505050509250929050565b60006020828403121561386057600080fd5b5035919050565b60006020828403121561387957600080fd5b81356001600160401b038116811461325e57600080fd5b600082601f8301126138a157600080fd5b813560206138b1613785836136f1565b82815260059290921b840181019181810190868411156138d057600080fd5b8286015b848110156138eb57803583529183019183016138d4565b509695505050505050565b6000806040838503121561390957600080fd5b8235915060208301356001600160401b0381111561392657600080fd5b61393285828601613890565b9150509250929050565b6000806040838503121561394f57600080fd5b8235915061395f60208401613714565b90509250929050565b600080600080600080600060e0888a03121561398357600080fd5b873596506020880135955060408801359450606088013593506080880135925060a08801356001600160401b03808211156139bd57600080fd5b6139c98b838c01613890565b935060c08a01359150808211156139df57600080fd5b506139ec8a828b01613890565b91505092959891949750929550565b600060208284031215613a0d57600080fd5b61325e82613714565b60208152600061325e6020830184613518565b600060208284031215613a3b57600080fd5b813563ffffffff8116811461325e57600080fd5b600060208284031215613a6157600080fd5b813561ffff8116811461325e57600080fd5b8015158114611ddf57600080fd5b600060208284031215613a9357600080fd5b813561325e81613a73565b634e487b7160e01b600052601160045260246000fd5b600082821015613ac657613ac6613a9e565b500390565b634e487b7160e01b600052603260045260246000fd5b600081613af057613af0613a9e565b506000190190565b60008219821115613b0b57613b0b613a9e565b500190565b6000600019821415613b2457613b24613a9e565b5060010190565b6000816000190483118215151615613b4557613b45613a9e565b500290565b634e487b7160e01b600052601260045260246000fd5b600082613b6f57613b6f613b4a565b500490565b600060208284031215613b8657600080fd5b5051919050565b600082613b9c57613b9c613b4a565b500690565b600060208284031215613bb357600080fd5b815161325e81613a73565b60005b83811015613bd9578181015183820152602001613bc1565b83811115610b975750506000910152565b7f416363657373436f6e74726f6c3a206163636f756e7420000000000000000000815260008351613c22816017850160208801613bbe565b7001034b99036b4b9b9b4b733903937b6329607d1b6017918401918201528351613c53816028840160208801613bbe565b01602801949350505050565b6020815260008251806020840152613c7e816040850160208701613bbe565b601f01601f1916919091016040019291505056fe97667070c54ef182b0f5858b034beac1b6f3089aa2d3188bb1e8929f4fa9b929a2646970667358221220b69fc5e720034dae933a62c6e4f398a8c344740d1602fa0fe91cfd3201ff0f2464736f6c634300080b0033",
  "devdoc": {
    "kind": "dev",
    "methods": {
      "getRoleAdmin(bytes32)": {
        "details": "Returns the admin role that controls `role`. See {grantRole} and {revokeRole}. To change a role's admin, use {_setRoleAdmin}."
      },
      "grantRole(bytes32,address)": {
        "details": "Grants `role` to `account`. If `account` had not been already granted `role`, emits a {RoleGranted} event. Requirements: - the caller must have ``role``'s admin role. May emit a {RoleGranted} event."
      },
      "hasRole(bytes32,address)": {
        "details": "Returns `true` if `account` has been granted `role`."
      },
      "renounceRole(bytes32,address)": {
        "details": "Revokes `role` from the calling account. Roles are often managed via {grantRole} and {revokeRole}: this function's purpose is to provide a mechanism for accounts to lose their privileges if they are compromised (such as when a trusted device is misplaced). If the calling account had been revoked `role`, emits a {RoleRevoked} event. Requirements: - the caller must be `account`. May emit a {RoleRevoked} event."
      },
      "revokeRole(bytes32,address)": {
        "details": "Revokes `role` from `account`. If `account` had been granted `role`, emits a {RoleRevoked} event. Requirements: - the caller must have ``role``'s admin role. May emit a {RoleRevoked} event."
      },
      "supportsInterface(bytes4)": {
        "details": "See {IERC165-supportsInterface}."
      }
    },
    "version": 1
  },
  "userdoc": {
    "kind": "user",
    "methods": {},
    "version": 1
  },
  "storageLayout": {
    "storage": [
      {
        "astId": 178,
        "contract": "contracts/Lottery.sol:Lottery",
        "label": "_roles",
        "offset": 0,
        "slot": "0",
        "type": "t_mapping(t_bytes32,t_struct(RoleData)173_storage)"
      },
      {
        "astId": 5309,
        "contract": "contracts/Lottery.sol:Lottery",
        "label": "rounds",
        "offset": 0,
        "slot": "1",
        "type": "t_array(t_struct(Round)5300_storage)dyn_storage"
      },
      {
        "astId": 5315,
        "contract": "contracts/Lottery.sol:Lottery",
        "label": "roundMembers",
        "offset": 0,
        "slot": "2",
        "type": "t_mapping(t_uint256,t_mapping(t_address,t_uint256))"
      },
      {
        "astId": 5320,
        "contract": "contracts/Lottery.sol:Lottery",
        "label": "claims",
        "offset": 0,
        "slot": "3",
        "type": "t_mapping(t_address,t_array(t_uint256)dyn_storage)"
      },
      {
        "astId": 5322,
        "contract": "contracts/Lottery.sol:Lottery",
        "label": "TICKET_PRICE",
        "offset": 0,
        "slot": "4",
        "type": "t_uint256"
      },
      {
        "astId": 5324,
        "contract": "contracts/Lottery.sol:Lottery",
        "label": "TICKET_ID",
        "offset": 0,
        "slot": "5",
        "type": "t_uint256"
      },
      {
        "astId": 5326,
        "contract": "contracts/Lottery.sol:Lottery",
        "label": "DAYS_STREAK_FOR_TICKET",
        "offset": 0,
        "slot": "6",
        "type": "t_uint256"
      },
      {
        "astId": 5329,
        "contract": "contracts/Lottery.sol:Lottery",
        "label": "CLAIM_PERIOD",
        "offset": 0,
        "slot": "7",
        "type": "t_uint256"
      },
      {
        "astId": 5332,
        "contract": "contracts/Lottery.sol:Lottery",
        "label": "ticketToken",
        "offset": 0,
        "slot": "8",
        "type": "t_contract(Ticket)12356"
      },
      {
        "astId": 5335,
        "contract": "contracts/Lottery.sol:Lottery",
        "label": "paymentToken",
        "offset": 0,
        "slot": "9",
        "type": "t_contract(ERC20Burnable)3029"
      },
      {
        "astId": 5338,
        "contract": "contracts/Lottery.sol:Lottery",
        "label": "rewardToken",
        "offset": 0,
        "slot": "10",
        "type": "t_contract(IERC20)2985"
      },
      {
        "astId": 5340,
        "contract": "contracts/Lottery.sol:Lottery",
        "label": "rewardPool",
        "offset": 0,
        "slot": "11",
        "type": "t_address"
      },
      {
        "astId": 5343,
        "contract": "contracts/Lottery.sol:Lottery",
        "label": "COORDINATOR",
        "offset": 0,
        "slot": "12",
        "type": "t_contract(VRFCoordinatorV2Interface)153"
      },
      {
        "astId": 5347,
        "contract": "contracts/Lottery.sol:Lottery",
        "label": "oracleRequests",
        "offset": 0,
        "slot": "13",
        "type": "t_mapping(t_uint256,t_uint256)"
      },
      {
        "astId": 5349,
        "contract": "contracts/Lottery.sol:Lottery",
        "label": "oracleSubscriptionId",
        "offset": 0,
        "slot": "14",
        "type": "t_uint64"
      },
      {
        "astId": 5351,
        "contract": "contracts/Lottery.sol:Lottery",
        "label": "oracleKeyHash",
        "offset": 0,
        "slot": "15",
        "type": "t_bytes32"
      },
      {
        "astId": 5354,
        "contract": "contracts/Lottery.sol:Lottery",
        "label": "oracleCallbackGasLimit",
        "offset": 0,
        "slot": "16",
        "type": "t_uint32"
      },
      {
        "astId": 5357,
        "contract": "contracts/Lottery.sol:Lottery",
        "label": "oracleRequestConfirmations",
        "offset": 4,
        "slot": "16",
        "type": "t_uint16"
      },
      {
        "astId": 5360,
        "contract": "contracts/Lottery.sol:Lottery",
        "label": "enableWinnerCalculationInOracleResponse",
        "offset": 6,
        "slot": "16",
        "type": "t_bool"
      }
    ],
    "types": {
      "t_address": {
        "encoding": "inplace",
        "label": "address",
        "numberOfBytes": "20"
      },
      "t_array(t_address)dyn_storage": {
        "base": "t_address",
        "encoding": "dynamic_array",
        "label": "address[]",
        "numberOfBytes": "32"
      },
      "t_array(t_array(t_address)dyn_storage)dyn_storage": {
        "base": "t_array(t_address)dyn_storage",
        "encoding": "dynamic_array",
        "label": "address[][]",
        "numberOfBytes": "32"
      },
      "t_array(t_struct(Round)5300_storage)dyn_storage": {
        "base": "t_struct(Round)5300_storage",
        "encoding": "dynamic_array",
        "label": "struct Lottery.Round[]",
        "numberOfBytes": "32"
      },
      "t_array(t_uint256)dyn_storage": {
        "base": "t_uint256",
        "encoding": "dynamic_array",
        "label": "uint256[]",
        "numberOfBytes": "32"
      },
      "t_bool": {
        "encoding": "inplace",
        "label": "bool",
        "numberOfBytes": "1"
      },
      "t_bytes32": {
        "encoding": "inplace",
        "label": "bytes32",
        "numberOfBytes": "32"
      },
      "t_contract(ERC20Burnable)3029": {
        "encoding": "inplace",
        "label": "contract ERC20Burnable",
        "numberOfBytes": "20"
      },
      "t_contract(IERC20)2985": {
        "encoding": "inplace",
        "label": "contract IERC20",
        "numberOfBytes": "20"
      },
      "t_contract(Ticket)12356": {
        "encoding": "inplace",
        "label": "contract Ticket",
        "numberOfBytes": "20"
      },
      "t_contract(VRFCoordinatorV2Interface)153": {
        "encoding": "inplace",
        "label": "contract VRFCoordinatorV2Interface",
        "numberOfBytes": "20"
      },
      "t_mapping(t_address,t_array(t_uint256)dyn_storage)": {
        "encoding": "mapping",
        "key": "t_address",
        "label": "mapping(address => uint256[])",
        "numberOfBytes": "32",
        "value": "t_array(t_uint256)dyn_storage"
      },
      "t_mapping(t_address,t_bool)": {
        "encoding": "mapping",
        "key": "t_address",
        "label": "mapping(address => bool)",
        "numberOfBytes": "32",
        "value": "t_bool"
      },
      "t_mapping(t_address,t_uint256)": {
        "encoding": "mapping",
        "key": "t_address",
        "label": "mapping(address => uint256)",
        "numberOfBytes": "32",
        "value": "t_uint256"
      },
      "t_mapping(t_bytes32,t_struct(RoleData)173_storage)": {
        "encoding": "mapping",
        "key": "t_bytes32",
        "label": "mapping(bytes32 => struct AccessControl.RoleData)",
        "numberOfBytes": "32",
        "value": "t_struct(RoleData)173_storage"
      },
      "t_mapping(t_uint256,t_mapping(t_address,t_uint256))": {
        "encoding": "mapping",
        "key": "t_uint256",
        "label": "mapping(uint256 => mapping(address => uint256))",
        "numberOfBytes": "32",
        "value": "t_mapping(t_address,t_uint256)"
      },
      "t_mapping(t_uint256,t_uint256)": {
        "encoding": "mapping",
        "key": "t_uint256",
        "label": "mapping(uint256 => uint256)",
        "numberOfBytes": "32",
        "value": "t_uint256"
      },
      "t_struct(RoleData)173_storage": {
        "encoding": "inplace",
        "label": "struct AccessControl.RoleData",
        "members": [
          {
            "astId": 170,
            "contract": "contracts/Lottery.sol:Lottery",
            "label": "members",
            "offset": 0,
            "slot": "0",
            "type": "t_mapping(t_address,t_bool)"
          },
          {
            "astId": 172,
            "contract": "contracts/Lottery.sol:Lottery",
            "label": "adminRole",
            "offset": 0,
            "slot": "1",
            "type": "t_bytes32"
          }
        ],
        "numberOfBytes": "64"
      },
      "t_struct(Round)5300_storage": {
        "encoding": "inplace",
        "label": "struct Lottery.Round",
        "members": [
          {
            "astId": 5266,
            "contract": "contracts/Lottery.sol:Lottery",
            "label": "startTime",
            "offset": 0,
            "slot": "0",
            "type": "t_uint256"
          },
          {
            "astId": 5268,
            "contract": "contracts/Lottery.sol:Lottery",
            "label": "duration",
            "offset": 0,
            "slot": "1",
            "type": "t_uint256"
          },
          {
            "astId": 5270,
            "contract": "contracts/Lottery.sol:Lottery",
            "label": "isClosed",
            "offset": 0,
            "slot": "2",
            "type": "t_bool"
          },
          {
            "astId": 5272,
            "contract": "contracts/Lottery.sol:Lottery",
            "label": "isOracleFulfilled",
            "offset": 1,
            "slot": "2",
            "type": "t_bool"
          },
          {
            "astId": 5274,
            "contract": "contracts/Lottery.sol:Lottery",
            "label": "isFinished",
            "offset": 2,
            "slot": "2",
            "type": "t_bool"
          },
          {
            "astId": 5276,
            "contract": "contracts/Lottery.sol:Lottery",
            "label": "initialPrize",
            "offset": 0,
            "slot": "3",
            "type": "t_uint256"
          },
          {
            "astId": 5278,
            "contract": "contracts/Lottery.sol:Lottery",
            "label": "totalPrize",
            "offset": 0,
            "slot": "4",
            "type": "t_uint256"
          },
          {
            "astId": 5280,
            "contract": "contracts/Lottery.sol:Lottery",
            "label": "maxTicketsFromOneMember",
            "offset": 0,
            "slot": "5",
            "type": "t_uint256"
          },
          {
            "astId": 5282,
            "contract": "contracts/Lottery.sol:Lottery",
            "label": "tokensForOneTicket",
            "offset": 0,
            "slot": "6",
            "type": "t_uint256"
          },
          {
            "astId": 5285,
            "contract": "contracts/Lottery.sol:Lottery",
            "label": "winnersForLevel",
            "offset": 0,
            "slot": "7",
            "type": "t_array(t_uint256)dyn_storage"
          },
          {
            "astId": 5288,
            "contract": "contracts/Lottery.sol:Lottery",
            "label": "prizeForLevel",
            "offset": 0,
            "slot": "8",
            "type": "t_array(t_uint256)dyn_storage"
          },
          {
            "astId": 5290,
            "contract": "contracts/Lottery.sol:Lottery",
            "label": "totalTickets",
            "offset": 0,
            "slot": "9",
            "type": "t_uint256"
          },
          {
            "astId": 5293,
            "contract": "contracts/Lottery.sol:Lottery",
            "label": "members",
            "offset": 0,
            "slot": "10",
            "type": "t_array(t_address)dyn_storage"
          },
          {
            "astId": 5295,
            "contract": "contracts/Lottery.sol:Lottery",
            "label": "randomWord",
            "offset": 0,
            "slot": "11",
            "type": "t_uint256"
          },
          {
            "astId": 5299,
            "contract": "contracts/Lottery.sol:Lottery",
            "label": "winners",
            "offset": 0,
            "slot": "12",
            "type": "t_array(t_array(t_address)dyn_storage)dyn_storage"
          }
        ],
        "numberOfBytes": "416"
      },
      "t_uint16": {
        "encoding": "inplace",
        "label": "uint16",
        "numberOfBytes": "2"
      },
      "t_uint256": {
        "encoding": "inplace",
        "label": "uint256",
        "numberOfBytes": "32"
      },
      "t_uint32": {
        "encoding": "inplace",
        "label": "uint32",
        "numberOfBytes": "4"
      },
      "t_uint64": {
        "encoding": "inplace",
        "label": "uint64",
        "numberOfBytes": "8"
      }
    }
  }
}