{
  "address": "0xf97F0a9ACbD8a32924F4b3334F81C04538959388",
  "abi": [
    {
      "inputs": [
        {
          "internalType": "uint256",
          "name": "ticketPrice",
          "type": "uint256"
        },
        {
          "internalType": "uint256",
          "name": "ticketId",
          "type": "uint256"
        },
        {
          "internalType": "uint256",
          "name": "daysStreakForTicket",
          "type": "uint256"
        },
        {
          "internalType": "address",
          "name": "ticketTokenAddress",
          "type": "address"
        },
        {
          "internalType": "address",
          "name": "paymentTokenAddress",
          "type": "address"
        },
        {
          "internalType": "address",
          "name": "rewardTokenAddress",
          "type": "address"
        },
        {
          "internalType": "address",
          "name": "rewardPoolAddress",
          "type": "address"
        },
        {
          "internalType": "address",
          "name": "coordinator",
          "type": "address"
        },
        {
          "internalType": "uint64",
          "name": "subscriptionId",
          "type": "uint64"
        },
        {
          "internalType": "bytes32",
          "name": "keyHash",
          "type": "bytes32"
        }
      ],
      "stateMutability": "nonpayable",
      "type": "constructor"
    },
    {
      "inputs": [
        {
          "internalType": "address",
          "name": "have",
          "type": "address"
        },
        {
          "internalType": "address",
          "name": "want",
          "type": "address"
        }
      ],
      "name": "OnlyCoordinatorCanFulfill",
      "type": "error"
    },
    {
      "anonymous": false,
      "inputs": [
        {
          "indexed": true,
          "internalType": "uint256",
          "name": "roundId",
          "type": "uint256"
        }
      ],
      "name": "NewRoundCreated",
      "type": "event"
    },
    {
      "anonymous": false,
      "inputs": [
        {
          "indexed": true,
          "internalType": "uint256",
          "name": "roundId",
          "type": "uint256"
        },
        {
          "indexed": true,
          "internalType": "uint256",
          "name": "requestId",
          "type": "uint256"
        },
        {
          "indexed": false,
          "internalType": "uint256",
          "name": "randomWord",
          "type": "uint256"
        }
      ],
      "name": "OracleRequestFulfilled",
      "type": "event"
    },
    {
      "anonymous": false,
      "inputs": [
        {
          "indexed": true,
          "internalType": "uint256",
          "name": "roundId",
          "type": "uint256"
        },
        {
          "indexed": true,
          "internalType": "uint256",
          "name": "requestId",
          "type": "uint256"
        }
      ],
      "name": "OracleRequestSent",
      "type": "event"
    },
    {
      "anonymous": false,
      "inputs": [
        {
          "indexed": true,
          "internalType": "bytes32",
          "name": "role",
          "type": "bytes32"
        },
        {
          "indexed": true,
          "internalType": "bytes32",
          "name": "previousAdminRole",
          "type": "bytes32"
        },
        {
          "indexed": true,
          "internalType": "bytes32",
          "name": "newAdminRole",
          "type": "bytes32"
        }
      ],
      "name": "RoleAdminChanged",
      "type": "event"
    },
    {
      "anonymous": false,
      "inputs": [
        {
          "indexed": true,
          "internalType": "bytes32",
          "name": "role",
          "type": "bytes32"
        },
        {
          "indexed": true,
          "internalType": "address",
          "name": "account",
          "type": "address"
        },
        {
          "indexed": true,
          "internalType": "address",
          "name": "sender",
          "type": "address"
        }
      ],
      "name": "RoleGranted",
      "type": "event"
    },
    {
      "anonymous": false,
      "inputs": [
        {
          "indexed": true,
          "internalType": "bytes32",
          "name": "role",
          "type": "bytes32"
        },
        {
          "indexed": true,
          "internalType": "address",
          "name": "account",
          "type": "address"
        },
        {
          "indexed": true,
          "internalType": "address",
          "name": "sender",
          "type": "address"
        }
      ],
      "name": "RoleRevoked",
      "type": "event"
    },
    {
      "anonymous": false,
      "inputs": [
        {
          "indexed": true,
          "internalType": "uint256",
          "name": "roundId",
          "type": "uint256"
        }
      ],
      "name": "RoundFinished",
      "type": "event"
    },
    {
      "anonymous": false,
      "inputs": [
        {
          "indexed": true,
          "internalType": "address",
          "name": "member",
          "type": "address"
        },
        {
          "indexed": false,
          "internalType": "uint256",
          "name": "amount",
          "type": "uint256"
        }
      ],
      "name": "TicketsCollected",
      "type": "event"
    },
    {
      "inputs": [],
      "name": "CLAIM_PERIOD",
      "outputs": [
        {
          "internalType": "uint256",
          "name": "",
          "type": "uint256"
        }
      ],
      "stateMutability": "view",
      "type": "function"
    },
    {
      "inputs": [],
      "name": "DAYS_STREAK_FOR_TICKET",
      "outputs": [
        {
          "internalType": "uint256",
          "name": "",
          "type": "uint256"
        }
      ],
      "stateMutability": "view",
      "type": "function"
    },
    {
      "inputs": [],
      "name": "DEFAULT_ADMIN_ROLE",
      "outputs": [
        {
          "internalType": "bytes32",
          "name": "",
          "type": "bytes32"
        }
      ],
      "stateMutability": "view",
      "type": "function"
    },
    {
      "inputs": [],
      "name": "OPERATOR_ROLE",
      "outputs": [
        {
          "internalType": "bytes32",
          "name": "",
          "type": "bytes32"
        }
      ],
      "stateMutability": "view",
      "type": "function"
    },
    {
      "inputs": [],
      "name": "TICKET_ID",
      "outputs": [
        {
          "internalType": "uint256",
          "name": "",
          "type": "uint256"
        }
      ],
      "stateMutability": "view",
      "type": "function"
    },
    {
      "inputs": [],
      "name": "TICKET_PRICE",
      "outputs": [
        {
          "internalType": "uint256",
          "name": "",
          "type": "uint256"
        }
      ],
      "stateMutability": "view",
      "type": "function"
    },
    {
      "inputs": [
        {
          "internalType": "uint256",
          "name": "amount",
          "type": "uint256"
        }
      ],
      "name": "buyTickets",
      "outputs": [],
      "stateMutability": "nonpayable",
      "type": "function"
    },
    {
      "inputs": [],
      "name": "claimDay",
      "outputs": [],
      "stateMutability": "nonpayable",
      "type": "function"
    },
    {
      "inputs": [
        {
          "internalType": "uint256",
          "name": "startTime",
          "type": "uint256"
        },
        {
          "internalType": "uint256",
          "name": "duration",
          "type": "uint256"
        },
        {
          "internalType": "uint256",
          "name": "initialPrize",
          "type": "uint256"
        },
        {
          "internalType": "uint256",
          "name": "tokensForOneTicket",
          "type": "uint256"
        },
        {
          "internalType": "uint256",
          "name": "maxTicketsFromOneMember",
          "type": "uint256"
        },
        {
          "internalType": "uint256[]",
          "name": "winnersForLevel",
          "type": "uint256[]"
        },
        {
          "internalType": "uint256[]",
          "name": "prizeForLevel",
          "type": "uint256[]"
        }
      ],
      "name": "createLotteryRound",
      "outputs": [],
      "stateMutability": "nonpayable",
      "type": "function"
    },
    {
      "inputs": [
        {
          "internalType": "uint256",
          "name": "roundId",
          "type": "uint256"
        },
        {
          "internalType": "uint256",
          "name": "tickets",
          "type": "uint256"
        }
      ],
      "name": "entryLottery",
      "outputs": [],
      "stateMutability": "nonpayable",
      "type": "function"
    },
    {
      "inputs": [
        {
          "internalType": "uint256",
          "name": "roundId",
          "type": "uint256"
        },
        {
          "internalType": "address[][]",
          "name": "pk",
          "type": "address[][]"
        }
      ],
      "name": "finishLotteryRound",
      "outputs": [],
      "stateMutability": "nonpayable",
      "type": "function"
    },
    {
      "inputs": [],
      "name": "getActiveRounds",
      "outputs": [
        {
          "components": [
            {
              "internalType": "uint256",
              "name": "id",
              "type": "uint256"
            },
            {
              "internalType": "uint256",
              "name": "startTime",
              "type": "uint256"
            },
            {
              "internalType": "uint256",
              "name": "duration",
              "type": "uint256"
            },
            {
              "internalType": "bool",
              "name": "isClosed",
              "type": "bool"
            },
            {
              "internalType": "bool",
              "name": "isOracleFulfilled",
              "type": "bool"
            },
            {
              "internalType": "bool",
              "name": "isFinished",
              "type": "bool"
            },
            {
              "internalType": "uint256",
              "name": "initialPrize",
              "type": "uint256"
            },
            {
              "internalType": "uint256",
              "name": "totalPrize",
              "type": "uint256"
            },
            {
              "internalType": "uint256",
              "name": "maxTicketsFromOneMember",
              "type": "uint256"
            },
            {
              "internalType": "uint256",
              "name": "tokensForOneTicket",
              "type": "uint256"
            },
            {
              "internalType": "uint256[]",
              "name": "winnersForLevel",
              "type": "uint256[]"
            },
            {
              "internalType": "uint256[]",
              "name": "prizeForLevel",
              "type": "uint256[]"
            },
            {
              "internalType": "uint256",
              "name": "totalTickets",
              "type": "uint256"
            },
            {
              "internalType": "address[]",
              "name": "members",
              "type": "address[]"
            },
            {
              "internalType": "uint256",
              "name": "randomWord",
              "type": "uint256"
            },
            {
              "internalType": "address[][]",
              "name": "winners",
              "type": "address[][]"
            }
          ],
          "internalType": "struct ILottery.Round[]",
          "name": "",
          "type": "tuple[]"
        }
      ],
      "stateMutability": "view",
      "type": "function"
    },
    {
      "inputs": [
        {
          "internalType": "address",
          "name": "user",
          "type": "address"
        }
      ],
      "name": "getClaimStreak",
      "outputs": [
        {
          "internalType": "uint256",
          "name": "",
          "type": "uint256"
        }
      ],
      "stateMutability": "view",
      "type": "function"
    },
    {
      "inputs": [
        {
          "internalType": "address",
          "name": "user",
          "type": "address"
        }
      ],
      "name": "getLastClaimTime",
      "outputs": [
        {
          "internalType": "uint256",
          "name": "",
          "type": "uint256"
        }
      ],
      "stateMutability": "view",
      "type": "function"
    },
    {
      "inputs": [
        {
          "internalType": "uint256",
          "name": "length",
          "type": "uint256"
        },
        {
          "internalType": "uint256",
          "name": "offset",
          "type": "uint256"
        }
      ],
      "name": "getLastFinishedRounds",
      "outputs": [
        {
          "components": [
            {
              "internalType": "uint256",
              "name": "id",
              "type": "uint256"
            },
            {
              "internalType": "uint256",
              "name": "startTime",
              "type": "uint256"
            },
            {
              "internalType": "uint256",
              "name": "duration",
              "type": "uint256"
            },
            {
              "internalType": "bool",
              "name": "isClosed",
              "type": "bool"
            },
            {
              "internalType": "bool",
              "name": "isOracleFulfilled",
              "type": "bool"
            },
            {
              "internalType": "bool",
              "name": "isFinished",
              "type": "bool"
            },
            {
              "internalType": "uint256",
              "name": "initialPrize",
              "type": "uint256"
            },
            {
              "internalType": "uint256",
              "name": "totalPrize",
              "type": "uint256"
            },
            {
              "internalType": "uint256",
              "name": "maxTicketsFromOneMember",
              "type": "uint256"
            },
            {
              "internalType": "uint256",
              "name": "tokensForOneTicket",
              "type": "uint256"
            },
            {
              "internalType": "uint256[]",
              "name": "winnersForLevel",
              "type": "uint256[]"
            },
            {
              "internalType": "uint256[]",
              "name": "prizeForLevel",
              "type": "uint256[]"
            },
            {
              "internalType": "uint256",
              "name": "totalTickets",
              "type": "uint256"
            },
            {
              "internalType": "address[]",
              "name": "members",
              "type": "address[]"
            },
            {
              "internalType": "uint256",
              "name": "randomWord",
              "type": "uint256"
            },
            {
              "internalType": "address[][]",
              "name": "winners",
              "type": "address[][]"
            }
          ],
          "internalType": "struct ILottery.Round[]",
          "name": "",
          "type": "tuple[]"
        }
      ],
      "stateMutability": "view",
      "type": "function"
    },
    {
      "inputs": [
        {
          "internalType": "bytes32",
          "name": "role",
          "type": "bytes32"
        }
      ],
      "name": "getRoleAdmin",
      "outputs": [
        {
          "internalType": "bytes32",
          "name": "",
          "type": "bytes32"
        }
      ],
      "stateMutability": "view",
      "type": "function"
    },
    {
      "inputs": [
        {
          "internalType": "uint256",
          "name": "id",
          "type": "uint256"
        }
      ],
      "name": "getRound",
      "outputs": [
        {
          "components": [
            {
              "internalType": "uint256",
              "name": "id",
              "type": "uint256"
            },
            {
              "internalType": "uint256",
              "name": "startTime",
              "type": "uint256"
            },
            {
              "internalType": "uint256",
              "name": "duration",
              "type": "uint256"
            },
            {
              "internalType": "bool",
              "name": "isClosed",
              "type": "bool"
            },
            {
              "internalType": "bool",
              "name": "isOracleFulfilled",
              "type": "bool"
            },
            {
              "internalType": "bool",
              "name": "isFinished",
              "type": "bool"
            },
            {
              "internalType": "uint256",
              "name": "initialPrize",
              "type": "uint256"
            },
            {
              "internalType": "uint256",
              "name": "totalPrize",
              "type": "uint256"
            },
            {
              "internalType": "uint256",
              "name": "maxTicketsFromOneMember",
              "type": "uint256"
            },
            {
              "internalType": "uint256",
              "name": "tokensForOneTicket",
              "type": "uint256"
            },
            {
              "internalType": "uint256[]",
              "name": "winnersForLevel",
              "type": "uint256[]"
            },
            {
              "internalType": "uint256[]",
              "name": "prizeForLevel",
              "type": "uint256[]"
            },
            {
              "internalType": "uint256",
              "name": "totalTickets",
              "type": "uint256"
            },
            {
              "internalType": "address[]",
              "name": "members",
              "type": "address[]"
            },
            {
              "internalType": "uint256",
              "name": "randomWord",
              "type": "uint256"
            },
            {
              "internalType": "address[][]",
              "name": "winners",
              "type": "address[][]"
            }
          ],
          "internalType": "struct ILottery.Round",
          "name": "",
          "type": "tuple"
        }
      ],
      "stateMutability": "view",
      "type": "function"
    },
    {
      "inputs": [],
      "name": "getTotalRounds",
      "outputs": [
        {
          "internalType": "uint256",
          "name": "",
          "type": "uint256"
        }
      ],
      "stateMutability": "view",
      "type": "function"
    },
    {
      "inputs": [
        {
          "internalType": "address",
          "name": "user",
          "type": "address"
        },
        {
          "internalType": "uint256",
          "name": "roundId",
          "type": "uint256"
        }
      ],
      "name": "getUserRoundEntry",
      "outputs": [
        {
          "internalType": "uint256",
          "name": "",
          "type": "uint256"
        }
      ],
      "stateMutability": "view",
      "type": "function"
    },
    {
      "inputs": [
        {
          "internalType": "address",
          "name": "user",
          "type": "address"
        }
      ],
      "name": "getWinnerPrize",
      "outputs": [
        {
          "internalType": "uint256",
          "name": "",
          "type": "uint256"
        }
      ],
      "stateMutability": "view",
      "type": "function"
    },
    {
      "inputs": [
        {
          "internalType": "bytes32",
          "name": "role",
          "type": "bytes32"
        },
        {
          "internalType": "address",
          "name": "account",
          "type": "address"
        }
      ],
      "name": "grantRole",
      "outputs": [],
      "stateMutability": "nonpayable",
      "type": "function"
    },
    {
      "inputs": [
        {
          "internalType": "bytes32",
          "name": "role",
          "type": "bytes32"
        },
        {
          "internalType": "address",
          "name": "account",
          "type": "address"
        }
      ],
      "name": "hasRole",
      "outputs": [
        {
          "internalType": "bool",
          "name": "",
          "type": "bool"
        }
      ],
      "stateMutability": "view",
      "type": "function"
    },
    {
      "inputs": [
        {
          "internalType": "address",
          "name": "user",
          "type": "address"
        }
      ],
      "name": "isClaimedToday",
      "outputs": [
        {
          "internalType": "bool",
          "name": "",
          "type": "bool"
        }
      ],
      "stateMutability": "view",
      "type": "function"
    },
    {
      "inputs": [
        {
          "internalType": "address",
          "name": "user",
          "type": "address"
        }
      ],
      "name": "isMintAvailable",
      "outputs": [
        {
          "internalType": "bool",
          "name": "",
          "type": "bool"
        }
      ],
      "stateMutability": "view",
      "type": "function"
    },
    {
      "inputs": [
        {
          "internalType": "uint256",
          "name": "roundId",
          "type": "uint256"
        }
      ],
      "name": "manuallyGetWinners",
      "outputs": [],
      "stateMutability": "nonpayable",
      "type": "function"
    },
    {
      "inputs": [],
      "name": "mintMyTicket",
      "outputs": [],
      "stateMutability": "nonpayable",
      "type": "function"
    },
    {
      "inputs": [
        {
          "internalType": "uint256",
          "name": "",
          "type": "uint256"
        }
      ],
      "name": "oracleRequests",
      "outputs": [
        {
          "internalType": "uint256",
          "name": "",
          "type": "uint256"
        }
      ],
      "stateMutability": "view",
      "type": "function"
    },
    {
      "inputs": [
        {
          "internalType": "uint256",
          "name": "requestId",
          "type": "uint256"
        },
        {
          "internalType": "uint256[]",
          "name": "randomWords",
          "type": "uint256[]"
        }
      ],
      "name": "rawFulfillRandomWords",
      "outputs": [],
      "stateMutability": "nonpayable",
      "type": "function"
    },
    {
      "inputs": [
        {
          "internalType": "bytes32",
          "name": "role",
          "type": "bytes32"
        },
        {
          "internalType": "address",
          "name": "account",
          "type": "address"
        }
      ],
      "name": "renounceRole",
      "outputs": [],
      "stateMutability": "nonpayable",
      "type": "function"
    },
    {
      "inputs": [
        {
          "internalType": "bytes32",
          "name": "role",
          "type": "bytes32"
        },
        {
          "internalType": "address",
          "name": "account",
          "type": "address"
        }
      ],
      "name": "revokeRole",
      "outputs": [],
      "stateMutability": "nonpayable",
      "type": "function"
    },
    {
      "inputs": [
        {
          "internalType": "uint256",
          "name": "",
          "type": "uint256"
        }
      ],
      "name": "rounds",
      "outputs": [
        {
          "internalType": "uint256",
          "name": "id",
          "type": "uint256"
        },
        {
          "internalType": "uint256",
          "name": "startTime",
          "type": "uint256"
        },
        {
          "internalType": "uint256",
          "name": "duration",
          "type": "uint256"
        },
        {
          "internalType": "bool",
          "name": "isClosed",
          "type": "bool"
        },
        {
          "internalType": "bool",
          "name": "isOracleFulfilled",
          "type": "bool"
        },
        {
          "internalType": "bool",
          "name": "isFinished",
          "type": "bool"
        },
        {
          "internalType": "uint256",
          "name": "initialPrize",
          "type": "uint256"
        },
        {
          "internalType": "uint256",
          "name": "totalPrize",
          "type": "uint256"
        },
        {
          "internalType": "uint256",
          "name": "maxTicketsFromOneMember",
          "type": "uint256"
        },
        {
          "internalType": "uint256",
          "name": "tokensForOneTicket",
          "type": "uint256"
        },
        {
          "internalType": "uint256",
          "name": "totalTickets",
          "type": "uint256"
        },
        {
          "internalType": "uint256",
          "name": "randomWord",
          "type": "uint256"
        }
      ],
      "stateMutability": "view",
      "type": "function"
    },
    {
      "inputs": [
        {
          "internalType": "bytes4",
          "name": "interfaceId",
          "type": "bytes4"
        }
      ],
      "name": "supportsInterface",
      "outputs": [
        {
          "internalType": "bool",
          "name": "",
          "type": "bool"
        }
      ],
      "stateMutability": "view",
      "type": "function"
    },
    {
      "inputs": [
        {
          "internalType": "uint32",
          "name": "gasLimit",
          "type": "uint32"
        }
      ],
      "name": "updateCallbackGasLimit",
      "outputs": [],
      "stateMutability": "nonpayable",
      "type": "function"
    },
    {
      "inputs": [
        {
          "internalType": "uint256",
          "name": "sec",
          "type": "uint256"
        }
      ],
      "name": "updateClaimPeriod",
      "outputs": [],
      "stateMutability": "nonpayable",
      "type": "function"
    },
    {
      "inputs": [
        {
          "internalType": "uint256",
          "name": "daysNum",
          "type": "uint256"
        }
      ],
      "name": "updateDaysStreakForTicket",
      "outputs": [],
      "stateMutability": "nonpayable",
      "type": "function"
    },
    {
      "inputs": [
        {
          "internalType": "bytes32",
          "name": "kayHash",
          "type": "bytes32"
        }
      ],
      "name": "updateKeyHash",
      "outputs": [],
      "stateMutability": "nonpayable",
      "type": "function"
    },
    {
      "inputs": [
        {
          "internalType": "address",
          "name": "token",
          "type": "address"
        }
      ],
      "name": "updatePaymentToken",
      "outputs": [],
      "stateMutability": "nonpayable",
      "type": "function"
    },
    {
      "inputs": [
        {
          "internalType": "uint16",
          "name": "confirmations",
          "type": "uint16"
        }
      ],
      "name": "updateRequestConfirmations",
      "outputs": [],
      "stateMutability": "nonpayable",
      "type": "function"
    },
    {
      "inputs": [
        {
          "internalType": "address",
          "name": "pool",
          "type": "address"
        }
      ],
      "name": "updateRewardPool",
      "outputs": [],
      "stateMutability": "nonpayable",
      "type": "function"
    },
    {
      "inputs": [
        {
          "internalType": "address",
          "name": "token",
          "type": "address"
        }
      ],
      "name": "updateRewardToken",
      "outputs": [],
      "stateMutability": "nonpayable",
      "type": "function"
    },
    {
      "inputs": [
        {
          "internalType": "uint64",
          "name": "id",
          "type": "uint64"
        }
      ],
      "name": "updateSubscriptionId",
      "outputs": [],
      "stateMutability": "nonpayable",
      "type": "function"
    },
    {
      "inputs": [
        {
          "internalType": "uint256",
          "name": "id",
          "type": "uint256"
        }
      ],
      "name": "updateTicketId",
      "outputs": [],
      "stateMutability": "nonpayable",
      "type": "function"
    },
    {
      "inputs": [
        {
          "internalType": "uint256",
          "name": "price",
          "type": "uint256"
        }
      ],
      "name": "updateTicketPrice",
      "outputs": [],
      "stateMutability": "nonpayable",
      "type": "function"
    },
    {
      "inputs": [
        {
          "internalType": "address",
          "name": "token",
          "type": "address"
        }
      ],
      "name": "updateTicketToken",
      "outputs": [],
      "stateMutability": "nonpayable",
      "type": "function"
    },
    {
      "inputs": [
        {
          "internalType": "bool",
          "name": "isEnabled",
          "type": "bool"
        }
      ],
      "name": "updateWinnerCalculationInRequest",
      "outputs": [],
      "stateMutability": "nonpayable",
      "type": "function"
    }
  ],
  "transactionHash": "0x9688b8c33547bf2ee4ace17c2ff2edb6a92d33f7f16f903e1cba717e906cbfaa",
  "args": [
    "10000000000000000000",
    0,
    5,
    "0xb055ed62C7fD0241c9e586De9CBfc1b6fe7A53FB",
    "0x663cA197fdC464D131737a37bE850c4A038400BA",
    "0xc3b31F44d8a9A501C46EE551b9F7D3e50e9F3E52",
    "0xf982D706f37Cb781D567395877EC35eDCB7Cf65C",
    "0x7a1BaC17Ccc5b313516C5E16fb24f7659aA5ebed",
    "580",
    "0x4b09e658ed251bcafeebbc69400383d49f344ace09b9576fe248bb02c003fe9f"
  ],
  "numDeployments": 4,
  "solcInputHash": "8e5e3e1717b24cd030a00e6da9024b00",
  "bytecode": "0x60a06040526005600a5562015180600b556014805466ffffffffffffff19166403000186a01790553480156200003457600080fd5b506040516200433a3803806200433a8339810160408190526200005791620001ed565b6001600160a01b03838116608081905260088c905560098b9055600a8a9055600c80546001600160a01b03199081168b851617909155600d805482168a8516179055600e80548216898516179055600f805482169388169390931790925560108054909216179055601280546001600160401b0319166001600160401b0384161790556013819055620000f36000620000ed3390565b6200012f565b6200011f7f97667070c54ef182b0f5858b034beac1b6f3089aa2d3188bb1e8929f4fa9b929336200012f565b50505050505050505050620002a8565b6000828152602081815260408083206001600160a01b038516845290915290205460ff16620001cc576000828152602081815260408083206001600160a01b03851684529091529020805460ff191660011790556200018b3390565b6001600160a01b0316816001600160a01b0316837f2f8788117e7eff1d82e926ec794901d17c78024a50270940304540a733656f0d60405160405180910390a45b5050565b80516001600160a01b0381168114620001e857600080fd5b919050565b6000806000806000806000806000806101408b8d0312156200020e57600080fd5b8a51995060208b0151985060408b015197506200022e60608c01620001d0565b96506200023e60808c01620001d0565b95506200024e60a08c01620001d0565b94506200025e60c08c01620001d0565b93506200026e60e08c01620001d0565b6101008c01519093506001600160401b03811681146200028d57600080fd5b809250506101208b015190509295989b9194979a5092959850565b60805161406f620002cb60003960008181610ce10152610d23015261406f6000f3fe608060405234801561001057600080fd5b506004361061027f5760003560e01c80637bf9e4c11161015c578063a4ba364d116100ce578063dcd2f2e011610087578063dcd2f2e014610605578063e44ddc2214610618578063e7fa67e514610621578063f02137c814610634578063f5b541a614610647578063f8cf31cb1461065c57600080fd5b8063a4ba364d1461057d578063a680e0bc146105a6578063b0e8d086146105b9578063ba00f6c5146105cc578063d547741f146105df578063d5fbac3a146105f257600080fd5b8063905d463611610120578063905d46361461051657806391d14854146105295780639d5179421461053c578063a1d3f4af1461054f578063a217fddf14610562578063a3fe51691461056a57600080fd5b80637bf9e4c1146104675780637d984d5f1461047a5780637f774d02146104825780638c65c81f1461048a5780638f1327c0146104f657600080fd5b80632f2ff15d116101f55780634a12512e116101b95780634a12512e146103f35780634ccf1b34146104065780634e3be4ed14610419578063592eef11146104215780635f5369e61461043457806372d4c6221461045457600080fd5b80632f2ff15d1461039e5780632f366637146103b15780632faaaae8146103c457806336568abe146103cd578063449050bc146103e057600080fd5b80631a95f15f116102475780631a95f15f1461030b5780631ad1ec22146103225780631fe543e31461032a5780632035fed11461033d57806321241dfe14610372578063248a9ca31461037b57600080fd5b806301b327cf1461028457806301ffc9a7146102ad578063110cace8146102d0578063148bea63146102e557806314b1dd1b146102f8575b600080fd5b61029761029236600461377b565b61066f565b6040516102a4919061397c565b60405180910390f35b6102c06102bb3660046139de565b610ac0565b60405190151581526020016102a4565b6102e36102de366004613a8d565b610af5565b005b6102e36102f3366004613bab565b610c96565b6102e3610306366004613bc4565b610ca7565b61031460085481565b6040519081526020016102a4565b600154610314565b6102e3610338366004613c53565b610cd6565b61031461034b366004613c99565b60009081526004602090815260408083206001600160a01b03949094168352929052205490565b610314600b5481565b610314610389366004613bab565b60009081526020819052604090206001015490565b6102e36103ac366004613cc3565b610d5e565b6102e36103bf366004613bab565b610d88565b610314600a5481565b6102e36103db366004613cc3565b610e6d565b6102e36103ee366004613bab565b610ee7565b6102e3610401366004613cef565b610f08565b6102e3610414366004613d82565b6114f8565b6102e3611526565b61031461042f366004613d82565b61160a565b610314610442366004613bab565b60116020526000908152604090205481565b6102e361046236600461377b565b611751565b6102c0610475366004613d82565b611a60565b610297611a77565b6102e3611eb6565b61049d610498366004613bab565b612091565b604080519c8d5260208d019b909b52998b019890985295151560608a0152931515608089015291151560a088015260c087015260e0860152610100850152610120840152610140830152610160820152610180016102a4565b610509610504366004613bab565b612106565b6040516102a49190613d9d565b6102e3610524366004613d82565b61237b565b6102c0610537366004613cc3565b6123a9565b6102e361054a366004613bab565b6123d2565b6102e361055d366004613bab565b6123e3565b610314600081565b6102c0610578366004613d82565b6123f4565b61031461058b366004613d82565b6001600160a01b031660009081526006602052604090205490565b6103146105b4366004613d82565b612426565b6102e36105c7366004613db0565b6124e5565b6102e36105da366004613dd6565b61250d565b6102e36105ed366004613cc3565b61253d565b6102e3610600366004613d82565b612562565b6102e3610613366004613e08565b612590565b61031460095481565b6102e361062f366004613bab565b6125c0565b6102e3610642366004613bab565b6125d1565b61031460008051602061401a83398151915281565b6102e361066a366004613d82565b6125e2565b60606000836001600160401b0381111561068b5761068b613a08565b6040519080825280602002602001820160405280156106c457816020015b6106b16135af565b8152602001906001900390816106a95790505b50600154909150849084905b80156109ef5760016106e28183613e3b565b815481106106f2576106f2613e52565b90600052602060002090600e020160030160029054906101000a900460ff16156109dd57811561072e57610727600183613e3b565b91506109dd565b610739600184613e3b565b925060016107478183613e3b565b8154811061075757610757613e52565b60009182526020918290206040805161020081018252600e90930290910180548352600181015483850152600281015483830152600381015460ff808216151560608601526101008083048216151560808701526201000090920416151560a0850152600482015460c0850152600582015460e08501526006820154908401526007810154610120840152600881018054835181870281018701909452808452939491936101408601939283018282801561083157602002820191906000526020600020905b81548152602001906001019080831161081d575b505050505081526020016009820180548060200260200160405190810160405280929190818152602001828054801561088957602002820191906000526020600020905b815481526020019060010190808311610875575b50505050508152602001600a8201548152602001600b82018054806020026020016040519081016040528092919081815260200182805480156108f557602002820191906000526020600020905b81546001600160a01b031681526001909101906020018083116108d7575b50505050508152602001600c8201548152602001600d8201805480602002602001604051908101604052809291908181526020016000905b828210156109a35760008481526020908190208301805460408051828502810185019091528181529283018282801561098f57602002820191906000526020600020905b81546001600160a01b03168152600190910190602001808311610971575b50505050508152602001906001019061092d565b50505050815250508484815181106109bd576109bd613e52565b602002602001018190525082600014156109dd5783945050505050610aba565b806109e781613e68565b9150506106d0565b5060006109fc8388613e3b565b90506000816001600160401b03811115610a1857610a18613a08565b604051908082528060200260200182016040528015610a5157816020015b610a3e6135af565b815260200190600190039081610a365790505b50905060005b82811015610ab25785610a6a8683613e7f565b81518110610a7a57610a7a613e52565b6020026020010151828281518110610a9457610a94613e52565b60200260200101819052508080610aaa90613e97565b915050610a57565b509450505050505b92915050565b60006001600160e01b03198216637965db0b60e01b1480610aba57506301ffc9a760e01b6001600160e01b0319831614610aba565b60008051602061401a833981519152610b0d81612610565b6001548310610b5b5760405162461bcd60e51b8152602060048201526015602482015274125b9cdd59999a58da595b9d081c9bdd5b99081a59605a1b60448201526064015b60405180910390fd5b600060018481548110610b7057610b70613e52565b90600052602060002090600e020190504281600201548260010154610b959190613e7f565b10610be25760405162461bcd60e51b815260206004820152601960248201527f526f756e64206973206e6f742066696e697368656420796574000000000000006044820152606401610b52565b600381015460ff1615610c315760405162461bcd60e51b8152602060048201526017602482015276149bdd5b99081a5cc8185b1c9958591e4818db1bdcd959604a1b6044820152606401610b52565b610c3a8461261a565b5060038101805460ff191660011790556007810154600a820154610c5e9190613eb2565b8160040154610c6d9190613e7f565b6005820155600a810154600085815260036020526040902055610c908484612725565b50505050565b6000610ca181612610565b50600a55565b6000610cb281612610565b506012805467ffffffffffffffff19166001600160401b0392909216919091179055565b336001600160a01b037f00000000000000000000000000000000000000000000000000000000000000001614610d505760405163073e64fd60e21b81523360048201526001600160a01b037f0000000000000000000000000000000000000000000000000000000000000000166024820152604401610b52565b610d5a828261292b565b5050565b600082815260208190526040902060010154610d7981612610565b610d838383612a75565b505050565b60008111610dd85760405162461bcd60e51b815260206004820152601f60248201527f416d6f756e742073686f756c642062652067726561746572207468616e2030006044820152606401610b52565b600060085482610de89190613eb2565b600d549091506001600160a01b03166379cc6790336040516001600160e01b031960e084901b1681526001600160a01b03909116600482015260248101849052604401600060405180830381600087803b158015610e4557600080fd5b505af1158015610e59573d6000803e3d6000fd5b50505050610d5a610e673390565b83612af9565b6001600160a01b0381163314610edd5760405162461bcd60e51b815260206004820152602f60248201527f416363657373436f6e74726f6c3a2063616e206f6e6c792072656e6f756e636560448201526e103937b632b9903337b91039b2b63360891b6064820152608401610b52565b610d5a8282612bc4565b60008051602061401a833981519152610eff81612610565b610d5a82612c29565b60008051602061401a833981519152610f2081612610565b6000861180610f2f5750600085115b610f615760405162461bcd60e51b815260206004820152600360248201526245433160e81b6044820152606401610b52565b8151835114610f985760405162461bcd60e51b815260206004820152600360248201526222a19960e91b6044820152606401610b52565b6000835111610fcf5760405162461bcd60e51b815260206004820152600360248201526245433360e81b6044820152606401610b52565b600084116110055760405162461bcd60e51b81526020600482015260036024820152621150cd60ea1b6044820152606401610b52565b4288101561103b5760405162461bcd60e51b815260206004820152600360248201526245433560e81b6044820152606401610b52565b600087116110715760405162461bcd60e51b815260206004820152600360248201526222a19b60e91b6044820152606401610b52565b82516000816001600160401b0381111561108d5761108d613a08565b6040519080825280602002602001820160405280156110c057816020015b60608152602001906001900390816110ab5790505b5090506000805b8651811015611182578581815181106110e2576110e2613e52565b6020026020010151826110f59190613e7f565b915086818151811061110957611109613e52565b60200260200101516001600160401b0381111561112857611128613a08565b604051908082528060200260200182016040528015611151578160200160208202803683370190505b5083828151811061116457611164613e52565b6020026020010181905250808061117a90613e97565b9150506110c7565b50806064146111b95760405162461bcd60e51b815260206004820152600360248201526245433760e81b6044820152606401610b52565b600060405180610200016040528060018054905081526020018d81526020018c81526020016000151581526020016000151581526020016000151581526020018b8152602001600081526020018981526020018a81526020018881526020018781526020016000815260200160006001600160401b0381111561123e5761123e613a08565b604051908082528060200260200182016040528015611267578160200160208202803683370190505b5081526000602082018190526040918201869052600154915192935090917fffd54b413ad7953f600667abc68976fd55918f924f39fad7a55319a0217ad3b79190a260018054808201825560009190915281517fb10e2d527612073b26eecdfd717e6a320cf44b4afac2b0732d9fcbe2b7fa0cf6600e9092029182019081556020808401517fb10e2d527612073b26eecdfd717e6a320cf44b4afac2b0732d9fcbe2b7fa0cf784015560408401517fb10e2d527612073b26eecdfd717e6a320cf44b4afac2b0732d9fcbe2b7fa0cf884015560608401517fb10e2d527612073b26eecdfd717e6a320cf44b4afac2b0732d9fcbe2b7fa0cf984018054608087015160a088015161ffff1990921693151561ff0019169390931761010093151584021762ff00001916620100009115159190910217905560c08501517fb10e2d527612073b26eecdfd717e6a320cf44b4afac2b0732d9fcbe2b7fa0cfa85015560e08501517fb10e2d527612073b26eecdfd717e6a320cf44b4afac2b0732d9fcbe2b7fa0cfb8501558401517fb10e2d527612073b26eecdfd717e6a320cf44b4afac2b0732d9fcbe2b7fa0cfc8401556101208401517fb10e2d527612073b26eecdfd717e6a320cf44b4afac2b0732d9fcbe2b7fa0cfd8401556101408401518051859461147a937fb10e2d527612073b26eecdfd717e6a320cf44b4afac2b0732d9fcbe2b7fa0cfe909101920190613632565b506101608201518051611497916009840191602090910190613632565b50610180820151600a8201556101a082015180516114bf91600b84019160209091019061367d565b506101c0820151600c8201556101e082015180516114e791600d8401916020909101906136d2565b505050505050505050505050505050565b600061150381612610565b50600d80546001600160a01b0319166001600160a01b0392909216919091179055565b61152f33611a60565b61157b5760405162461bcd60e51b815260206004820152601c60248201527f5469636b6574206d696e74206973206e6f7420617661696c61626c65000000006044820152606401610b52565b611586336001612af9565b61158f33612426565b33600090815260076020526040902055600a546001600160401b038111156115b9576115b9613a08565b6040519080825280602002602001820160405280156115e2578160200160208202803683370190505b5033600090815260056020908152604090912082516116079391929190910190613632565b50565b6001600160a01b038116600090815260056020526040812080546116315750600092915050565b6000600190506000600b548360008154811061164f5761164f613e52565b90600052602060002001546116649190613ee7565b905060015b83548110156117115783818154811061168457611684613e52565b90600052602060002001546000141561169c57611711565b6000600b548583815481106116b3576116b3613e52565b90600052602060002001546116c89190613ee7565b90506116d5836001613e7f565b8114156116f1576116e7600185613e7f565b93508092506116fe565b5060009695505050505050565b508061170981613e97565b915050611669565b50600a548214158015611739575061172a816001613e7f565b600b546117379042613ee7565b115b1561174957506000949350505050565b509392505050565b600154821061179a5760405162461bcd60e51b8152602060048201526015602482015274125b9cdd59999a58da595b9d081c9bdd5b99081a59605a1b6044820152606401610b52565b600081116117e05760405162461bcd60e51b815260206004820152601360248201527205469636b65747320616d6f756e74206973203606c1b6044820152606401610b52565b6000600183815481106117f5576117f5613e52565b60009182526020808320868452600290915260408320600e9092020192508161181b3390565b6001600160a01b03166001600160a01b0316815260200190815260200160002054905042826001015411156118925760405162461bcd60e51b815260206004820152601860248201527f526f756e64206973206e6f7420737461727465642079657400000000000000006044820152606401610b52565b42826002015483600101546118a79190613e7f565b116118ee5760405162461bcd60e51b8152602060048201526017602482015276149bdd5b99081a5cc8185b1c9958591e4818db1bdcd959604a1b6044820152606401610b52565b60068201546118fd8483613e7f565b111561194b5760405162461bcd60e51b815260206004820152601f60248201527f546f6f206d616e79207469636b65747320666f72206f6e65206d656d626572006044820152606401610b52565b600c546001600160a01b031663f5298aca336009546040516001600160e01b031960e085901b1681526001600160a01b039092166004830152602482015260448101869052606401600060405180830381600087803b1580156119ad57600080fd5b505af11580156119c1573d6000803e3d6000fd5b5050505080600014156119f657600b82018054600181018255600091825260209091200180546001600160a01b031916331790555b611a008382613e7f565b6000858152600260209081526040808320338452909152902055611a248382613e7f565b6000858152600460209081526040808320338452909152812091909155600a83018054859290611a55908490613e7f565b909155505050505050565b600080611a6c8361160a565b600a54149392505050565b60606000806001805490506001600160401b03811115611a9957611a99613a08565b604051908082528060200260200182016040528015611ac2578160200160208202803683370190505b50905060005b600154811015611b71574260018281548110611ae657611ae6613e52565b90600052602060002090600e02016002015460018381548110611b0b57611b0b613e52565b90600052602060002090600e020160010154611b279190613e7f565b1115611b5f576001828281518110611b4157611b41613e52565b91151560209283029190910190910152611b5c600184613e7f565b92505b80611b6981613e97565b915050611ac8565b506000826001600160401b03811115611b8c57611b8c613a08565b604051908082528060200260200182016040528015611bc557816020015b611bb26135af565b815260200190600190039081611baa5790505b506001549091505b80156117495782611bdf600183613e3b565b81518110611bef57611bef613e52565b602002602001015115611ea457611c07600185613e3b565b93506001611c158183613e3b565b81548110611c2557611c25613e52565b60009182526020918290206040805161020081018252600e90930290910180548352600181015483850152600281015483830152600381015460ff808216151560608601526101008083048216151560808701526201000090920416151560a0850152600482015460c0850152600582015460e085015260068201549084015260078101546101208401526008810180548351818702810187019094528084529394919361014086019392830182828015611cff57602002820191906000526020600020905b815481526020019060010190808311611ceb575b5050505050815260200160098201805480602002602001604051908101604052809291908181526020018280548015611d5757602002820191906000526020600020905b815481526020019060010190808311611d43575b50505050508152602001600a8201548152602001600b8201805480602002602001604051908101604052809291908181526020018280548015611dc357602002820191906000526020600020905b81546001600160a01b03168152600190910190602001808311611da5575b50505050508152602001600c8201548152602001600d8201805480602002602001604051908101604052809291908181526020016000905b82821015611e7157600084815260209081902083018054604080518285028101850190915281815292830182828015611e5d57602002820191906000526020600020905b81546001600160a01b03168152600190910190602001808311611e3f575b505050505081526020019060010190611dfb565b5050505081525050828581518110611e8b57611e8b613e52565b60200260200101819052508360001415611ea457611749565b80611eae81613e68565b915050611bcd565b611ebf336123f4565b15611f045760405162461bcd60e51b8152602060048201526015602482015274416c726561647920636c61696d656420746f64617960581b6044820152606401610b52565b611f0d33611a60565b15611f5a5760405162461bcd60e51b815260206004820152601d60248201527f4d696e74207469636b6574206265666f7265206e65787420636c61696d0000006044820152606401610b52565b6000611f653361160a565b9050600a5481101580611f76575080155b15611fe957600a546001600160401b03811115611f9557611f95613a08565b604051908082528060200260200182016040528015611fbe578160200160208202803683370190505b503360009081526005602090815260409091208251611fe39391929190910190613632565b50600090505b60005b33600090815260056020526040902054811015610d5a5733600090815260056020526040902080548290811061202457612024613e52565b90600052602060002001546000141561207f57600b546120448142613ee7565b61204e9190613eb2565b33600090815260056020526040902080548390811061206f5761206f613e52565b6000918252602090912001555050565b8061208981613e97565b915050611fec565b600181815481106120a157600080fd5b60009182526020909120600e9091020180546001820154600283015460038401546004850154600586015460068701546007880154600a890154600c909901549799509597949660ff808616976101008704821697620100009097049091169590918c565b61210e6135af565b6001828154811061212157612121613e52565b60009182526020918290206040805161020081018252600e90930290910180548352600181015483850152600281015483830152600381015460ff808216151560608601526101008083048216151560808701526201000090920416151560a0850152600482015460c0850152600582015460e0850152600682015490840152600781015461012084015260088101805483518187028101870190945280845293949193610140860193928301828280156121fb57602002820191906000526020600020905b8154815260200190600101908083116121e7575b505050505081526020016009820180548060200260200160405190810160405280929190818152602001828054801561225357602002820191906000526020600020905b81548152602001906001019080831161223f575b50505050508152602001600a8201548152602001600b82018054806020026020016040519081016040528092919081815260200182805480156122bf57602002820191906000526020600020905b81546001600160a01b031681526001909101906020018083116122a1575b50505050508152602001600c8201548152602001600d8201805480602002602001604051908101604052809291908181526020016000905b8282101561236d5760008481526020908190208301805460408051828502810185019091528181529283018282801561235957602002820191906000526020600020905b81546001600160a01b0316815260019091019060200180831161233b575b5050505050815260200190600101906122f7565b505050915250909392505050565b600061238681612610565b50600c80546001600160a01b0319166001600160a01b0392909216919091179055565b6000918252602082815260408084206001600160a01b0393909316845291905290205460ff1690565b60006123dd81612610565b50600b55565b60006123ee81612610565b50600955565b600080600b54426124059190613ee7565b905080600b5461241485612426565b61241e9190613ee7565b149392505050565b6001600160a01b0381166000908152600560205260408120805461244d5750600092915050565b80545b80156124c757600082612464600184613e3b565b8154811061247457612474613e52565b906000526020600020015411156124b55781612491600183613e3b565b815481106124a1576124a1613e52565b906000526020600020015492505050919050565b806124bf81613e68565b915050612450565b5050506001600160a01b031660009081526007602052604090205490565b60006124f081612610565b506014805463ffffffff191663ffffffff92909216919091179055565b600061251881612610565b506014805461ffff9092166401000000000265ffff0000000019909216919091179055565b60008281526020819052604090206001015461255881612610565b610d838383612bc4565b600061256d81612610565b50600f80546001600160a01b0319166001600160a01b0392909216919091179055565b600061259b81612610565b506014805491151566010000000000000266ff00000000000019909216919091179055565b60006125cb81612610565b50601355565b60006125dc81612610565b50600855565b60006125ed81612610565b50600e80546001600160a01b0319166001600160a01b0392909216919091179055565b61160781336133a9565b600060008051602061401a83398151915261263481612610565b6010546013546012546014546040516305d3b1d360e41b815260048101939093526001600160401b039091166024830152640100000000810461ffff16604483015263ffffffff166064820152600160848201526000916001600160a01b031690635d3b1d309060a4016020604051808303816000875af11580156126bd573d6000803e3d6000fd5b505050506040513d601f19601f820116820180604052508101906126e19190613efb565b60008181526011602052604080822087905551919250829186917ff9f171fefccda92248e5f0fdcf6c04ff1e2d16592241264abd91d121874f4f5291a39392505050565b60006001838154811061273a5761273a613e52565b90600052602060002090600e0201905060005b8251811015610c905760005b83828151811061276b5761276b613e52565b6020026020010151518110156129185783828151811061278d5761278d613e52565b602002602001015181815181106127a6576127a6613e52565b602002602001015183600d0183815481106127c3576127c3613e52565b9060005260206000200182815481106127de576127de613e52565b9060005260206000200160006101000a8154816001600160a01b0302191690836001600160a01b0316021790555060026000868152602001908152602001600020600085848151811061283357612833613e52565b6020026020010151838151811061284c5761284c613e52565b60200260200101516001600160a01b03166001600160a01b03168152602001908152602001600020546003600087815260200190815260200160002060008282546128979190613e3b565b90915550506000858152600260205260408120855182908790869081106128c0576128c0613e52565b602002602001015184815181106128d9576128d9613e52565b60200260200101516001600160a01b03166001600160a01b0316815260200190815260200160002081905550808061291090613e97565b915050612759565b508061292381613e97565b91505061274d565b600082815260116020526040902054600180548290811061294e5761294e613e52565b90600052602060002090600e020160030160019054906101000a900460ff16156129a35760405162461bcd60e51b8152600401610b52906020808252600490820152630454331360e41b604082015260600190565b6000600182815481106129b8576129b8613e52565b90600052602060002090600e02019050826000815181106129db576129db613e52565b6020908102919091010151600c82015560038101805461ff0019166101001790556014546601000000000000900460ff1615612a1a57612a1a82612c29565b83827fa9c8267b94f3ce97d170a9faaacd4f71922c05f07bc2f73222364bdd7173668b85600081518110612a5057612a50613e52565b6020026020010151604051612a6791815260200190565b60405180910390a350505050565b612a7f82826123a9565b610d5a576000828152602081815260408083206001600160a01b03851684529091529020805460ff19166001179055612ab53390565b6001600160a01b0316816001600160a01b0316837f2f8788117e7eff1d82e926ec794901d17c78024a50270940304540a733656f0d60405160405180910390a45050565b600c5460095460405163731133e960e01b81526001600160a01b038581166004830152602482019290925260448101849052608060648201526000608482015291169063731133e99060a401600060405180830381600087803b158015612b5f57600080fd5b505af1158015612b73573d6000803e3d6000fd5b50505050612b7e3390565b6001600160a01b03167f76513afb012856b6d7375c6d6f5e1bfffc159135e1a3d2cd6a2abb66ce95117782604051612bb891815260200190565b60405180910390a25050565b612bce82826123a9565b15610d5a576000828152602081815260408083206001600160a01b0385168085529252808320805460ff1916905551339285917ff6391f5c32d9c69d2a47ea670b442974b53935d1edc7fd64eb21e047a839171b9190a45050565b600060018281548110612c3e57612c3e613e52565b60009182526020918290206040805161020081018252600e90930290910180548352600181015483850152600281015483830152600381015460ff808216151560608601526101008083048216151560808701526201000090920416151560a0850152600482015460c0850152600582015460e085015260068201549084015260078101546101208401526008810180548351818702810187019094528084529394919361014086019392830182828015612d1857602002820191906000526020600020905b815481526020019060010190808311612d04575b5050505050815260200160098201805480602002602001604051908101604052809291908181526020018280548015612d7057602002820191906000526020600020905b815481526020019060010190808311612d5c575b50505050508152602001600a8201548152602001600b8201805480602002602001604051908101604052809291908181526020018280548015612ddc57602002820191906000526020600020905b81546001600160a01b03168152600190910190602001808311612dbe575b50505050508152602001600c8201548152602001600d8201805480602002602001604051908101604052809291908181526020016000905b82821015612e8a57600084815260209081902083018054604080518285028101850190915281815292830182828015612e7657602002820191906000526020600020905b81546001600160a01b03168152600190910190602001808311612e58575b505050505081526020019060010190612e14565b505050508152505090508060800151612ede5760405162461bcd60e51b8152602060048201526016602482015275149bdd5b99081a5cc81b9bdd08199d5b199a5b1b195960521b6044820152606401610b52565b8060a0015115612f305760405162461bcd60e51b815260206004820152601960248201527f526f756e6420697320616c72656164792066696e6973686564000000000000006044820152606401610b52565b6001808381548110612f4457612f44613e52565b6000918252602082206003600e90920201018054921515620100000262ff0000199093169290921790915560405183917f74ef25ef6b332a2fbbe7eb8b4108e0fe842a929d34c52a2ea4ca1a0f1524f10791a26101c081015160005b826101e0015151811015610c905760008361016001518281518110612fc757612fc7613e52565b602002602001015160648560e00151612fe09190613ee7565b612fea9190613eb2565b905060005b846101e00151838151811061300657613006613e52565b6020026020010151518110156133945760008681526003602052604090205461303157505050505050565b4261303d826001613e7f565b613048856001613e7f565b6130529087613eb2565b61305c9190613eb2565b6130669190613f14565b613071906001613e7f565b93506000856101e00151848151811061308c5761308c613e52565b602002602001015182815181106130a5576130a5613e52565b6020026020010151905060006001600160a01b0316866101e0015185815181106130d1576130d1613e52565b602002602001015183815181106130ea576130ea613e52565b60200260200101516001600160a01b0316141561329f5760008781526003602052604081205461311a9087613f14565b613125906001613e7f565b905060005b876101a001515181101561321d576000886101a00151828151811061315157613151613e52565b60209081029190910181015160008c81526002835260408082206001600160a01b038416835290935291909120549091508084116131fc5760008b81526002602090815260408083206001600160a01b03861684528252808320548e84526003909252822080549497508794919290916131cc908490613e3b565b90915550505060008a81526002602090815260408083206001600160a01b0390941683529290529081205561321d565b6132068185613e3b565b93505050808061321590613e97565b91505061312a565b50816001898154811061323257613232613e52565b90600052602060002090600e0201600d01868154811061325457613254613e52565b90600052602060002001848154811061326f5761326f613e52565b9060005260206000200160006101000a8154816001600160a01b0302191690836001600160a01b03160217905550505b6000866101e0015185815181106132b8576132b8613e52565b602002602001015151846132cc9190613ee7565b600e54600f546040516323b872dd60e01b81526001600160a01b03918216600482015285821660248201526044810184905292935016906323b872dd906064016020604051808303816000875af115801561332b573d6000803e3d6000fd5b505050506040513d601f19601f8201168201806040525081019061334f9190613f28565b506001600160a01b03821660009081526006602052604081208054839290613378908490613e7f565b925050819055505050808061338c90613e97565b915050612fef565b505080806133a190613e97565b915050612fa0565b6133b382826123a9565b610d5a576133cb816001600160a01b0316601461340d565b6133d683602061340d565b6040516020016133e7929190613f71565b60408051601f198184030181529082905262461bcd60e51b8252610b5291600401613fe6565b6060600061341c836002613eb2565b613427906002613e7f565b6001600160401b0381111561343e5761343e613a08565b6040519080825280601f01601f191660200182016040528015613468576020820181803683370190505b509050600360fc1b8160008151811061348357613483613e52565b60200101906001600160f81b031916908160001a905350600f60fb1b816001815181106134b2576134b2613e52565b60200101906001600160f81b031916908160001a90535060006134d6846002613eb2565b6134e1906001613e7f565b90505b6001811115613559576f181899199a1a9b1b9c1cb0b131b232b360811b85600f166010811061351557613515613e52565b1a60f81b82828151811061352b5761352b613e52565b60200101906001600160f81b031916908160001a90535060049490941c9361355281613e68565b90506134e4565b5083156135a85760405162461bcd60e51b815260206004820181905260248201527f537472696e67733a20686578206c656e67746820696e73756666696369656e746044820152606401610b52565b9392505050565b604051806102000160405280600081526020016000815260200160008152602001600015158152602001600015158152602001600015158152602001600081526020016000815260200160008152602001600081526020016060815260200160608152602001600081526020016060815260200160008152602001606081525090565b82805482825590600052602060002090810192821561366d579160200282015b8281111561366d578251825591602001919060010190613652565b5061367992915061372b565b5090565b82805482825590600052602060002090810192821561366d579160200282015b8281111561366d57825182546001600160a01b0319166001600160a01b0390911617825560209092019160019091019061369d565b82805482825590600052602060002090810192821561371f579160200282015b8281111561371f578251805161370f91849160209091019061367d565b50916020019190600101906136f2565b50613679929150613740565b5b80821115613679576000815560010161372c565b80821115613679576000613754828261375d565b50600101613740565b5080546000825590600052602060002090810190611607919061372b565b6000806040838503121561378e57600080fd5b50508035926020909101359150565b600081518084526020808501945080840160005b838110156137cd578151875295820195908201906001016137b1565b509495945050505050565b600081518084526020808501945080840160005b838110156137cd5781516001600160a01b0316875295820195908201906001016137ec565b600082825180855260208086019550808260051b84010181860160005b8481101561385c57601f1986840301895261384a8383516137d8565b9884019892509083019060010161382e565b5090979650505050505050565b60006102008251845260208301516020850152604083015160408501526060830151613899606086018215159052565b5060808301516138ad608086018215159052565b5060a08301516138c160a086018215159052565b5060c083015160c085015260e083015160e08501526101008084015181860152506101208084015181860152506101408084015182828701526139068387018261379d565b925050506101608084015185830382870152613922838261379d565b925050506101808084015181860152506101a0808401518583038287015261394a83826137d8565b925050506101c08084015181860152506101e080840151858303828701526139728382613811565b9695505050505050565b6000602080830181845280855180835260408601915060408160051b870101925083870160005b828110156139d157603f198886030184526139bf858351613869565b945092850192908501906001016139a3565b5092979650505050505050565b6000602082840312156139f057600080fd5b81356001600160e01b0319811681146135a857600080fd5b634e487b7160e01b600052604160045260246000fd5b604051601f8201601f191681016001600160401b0381118282101715613a4657613a46613a08565b604052919050565b60006001600160401b03821115613a6757613a67613a08565b5060051b60200190565b80356001600160a01b0381168114613a8857600080fd5b919050565b6000806040808486031215613aa157600080fd5b833592506020808501356001600160401b0380821115613ac057600080fd5b818701915087601f830112613ad457600080fd5b8135613ae7613ae282613a4e565b613a1e565b81815260059190911b8301840190848101908a831115613b0657600080fd5b8585015b83811015613b9957803585811115613b225760008081fd5b8601603f81018d13613b345760008081fd5b87810135613b44613ae282613a4e565b81815260059190911b82018a0190898101908f831115613b645760008081fd5b928b01925b82841015613b8957613b7a84613a71565b8252928a0192908a0190613b69565b8652505050918601918601613b0a565b50809750505050505050509250929050565b600060208284031215613bbd57600080fd5b5035919050565b600060208284031215613bd657600080fd5b81356001600160401b03811681146135a857600080fd5b600082601f830112613bfe57600080fd5b81356020613c0e613ae283613a4e565b82815260059290921b84018101918181019086841115613c2d57600080fd5b8286015b84811015613c485780358352918301918301613c31565b509695505050505050565b60008060408385031215613c6657600080fd5b8235915060208301356001600160401b03811115613c8357600080fd5b613c8f85828601613bed565b9150509250929050565b60008060408385031215613cac57600080fd5b613cb583613a71565b946020939093013593505050565b60008060408385031215613cd657600080fd5b82359150613ce660208401613a71565b90509250929050565b600080600080600080600060e0888a031215613d0a57600080fd5b873596506020880135955060408801359450606088013593506080880135925060a08801356001600160401b0380821115613d4457600080fd5b613d508b838c01613bed565b935060c08a0135915080821115613d6657600080fd5b50613d738a828b01613bed565b91505092959891949750929550565b600060208284031215613d9457600080fd5b6135a882613a71565b6020815260006135a86020830184613869565b600060208284031215613dc257600080fd5b813563ffffffff811681146135a857600080fd5b600060208284031215613de857600080fd5b813561ffff811681146135a857600080fd5b801515811461160757600080fd5b600060208284031215613e1a57600080fd5b81356135a881613dfa565b634e487b7160e01b600052601160045260246000fd5b600082821015613e4d57613e4d613e25565b500390565b634e487b7160e01b600052603260045260246000fd5b600081613e7757613e77613e25565b506000190190565b60008219821115613e9257613e92613e25565b500190565b6000600019821415613eab57613eab613e25565b5060010190565b6000816000190483118215151615613ecc57613ecc613e25565b500290565b634e487b7160e01b600052601260045260246000fd5b600082613ef657613ef6613ed1565b500490565b600060208284031215613f0d57600080fd5b5051919050565b600082613f2357613f23613ed1565b500690565b600060208284031215613f3a57600080fd5b81516135a881613dfa565b60005b83811015613f60578181015183820152602001613f48565b83811115610c905750506000910152565b7f416363657373436f6e74726f6c3a206163636f756e7420000000000000000000815260008351613fa9816017850160208801613f45565b7001034b99036b4b9b9b4b733903937b6329607d1b6017918401918201528351613fda816028840160208801613f45565b01602801949350505050565b6020815260008251806020840152614005816040850160208701613f45565b601f01601f1916919091016040019291505056fe97667070c54ef182b0f5858b034beac1b6f3089aa2d3188bb1e8929f4fa9b929a26469706673582212207d177c8d8832ecbb2254ff0f63ee004de5660eec905b29c6a2ec211285e3043c64736f6c634300080b0033",
  "devdoc": {
    "kind": "dev",
    "methods": {
      "getRoleAdmin(bytes32)": {
        "details": "Returns the admin role that controls `role`. See {grantRole} and {revokeRole}. To change a role's admin, use {_setRoleAdmin}."
      },
      "grantRole(bytes32,address)": {
        "details": "Grants `role` to `account`. If `account` had not been already granted `role`, emits a {RoleGranted} event. Requirements: - the caller must have ``role``'s admin role. May emit a {RoleGranted} event."
      },
      "hasRole(bytes32,address)": {
        "details": "Returns `true` if `account` has been granted `role`."
      },
      "renounceRole(bytes32,address)": {
        "details": "Revokes `role` from the calling account. Roles are often managed via {grantRole} and {revokeRole}: this function's purpose is to provide a mechanism for accounts to lose their privileges if they are compromised (such as when a trusted device is misplaced). If the calling account had been revoked `role`, emits a {RoleRevoked} event. Requirements: - the caller must be `account`. May emit a {RoleRevoked} event."
      },
      "revokeRole(bytes32,address)": {
        "details": "Revokes `role` from `account`. If `account` had been granted `role`, emits a {RoleRevoked} event. Requirements: - the caller must have ``role``'s admin role. May emit a {RoleRevoked} event."
      },
      "supportsInterface(bytes4)": {
        "details": "See {IERC165-supportsInterface}."
      }
    },
    "version": 1
  },
  "userdoc": {
    "kind": "user",
    "methods": {},
    "version": 1
  },
  "storageLayout": {
    "storage": [
      {
        "astId": 178,
        "contract": "contracts/Lottery.sol:Lottery",
        "label": "_roles",
        "offset": 0,
        "slot": "0",
        "type": "t_mapping(t_bytes32,t_struct(RoleData)173_storage)"
      },
      {
        "astId": 5980,
        "contract": "contracts/Lottery.sol:Lottery",
        "label": "rounds",
        "offset": 0,
        "slot": "1",
        "type": "t_array(t_struct(Round)12991_storage)dyn_storage"
      },
      {
        "astId": 5986,
        "contract": "contracts/Lottery.sol:Lottery",
        "label": "roundMembers",
        "offset": 0,
        "slot": "2",
        "type": "t_mapping(t_uint256,t_mapping(t_address,t_uint256))"
      },
      {
        "astId": 5990,
        "contract": "contracts/Lottery.sol:Lottery",
        "label": "roundRestTickets",
        "offset": 0,
        "slot": "3",
        "type": "t_mapping(t_uint256,t_uint256)"
      },
      {
        "astId": 5996,
        "contract": "contracts/Lottery.sol:Lottery",
        "label": "roundMembersHistory",
        "offset": 0,
        "slot": "4",
        "type": "t_mapping(t_uint256,t_mapping(t_address,t_uint256))"
      },
      {
        "astId": 6001,
        "contract": "contracts/Lottery.sol:Lottery",
        "label": "claims",
        "offset": 0,
        "slot": "5",
        "type": "t_mapping(t_address,t_array(t_uint256)dyn_storage)"
      },
      {
        "astId": 6005,
        "contract": "contracts/Lottery.sol:Lottery",
        "label": "winnersRewards",
        "offset": 0,
        "slot": "6",
        "type": "t_mapping(t_address,t_uint256)"
      },
      {
        "astId": 6009,
        "contract": "contracts/Lottery.sol:Lottery",
        "label": "lastTicketMint",
        "offset": 0,
        "slot": "7",
        "type": "t_mapping(t_address,t_uint256)"
      },
      {
        "astId": 6011,
        "contract": "contracts/Lottery.sol:Lottery",
        "label": "TICKET_PRICE",
        "offset": 0,
        "slot": "8",
        "type": "t_uint256"
      },
      {
        "astId": 6013,
        "contract": "contracts/Lottery.sol:Lottery",
        "label": "TICKET_ID",
        "offset": 0,
        "slot": "9",
        "type": "t_uint256"
      },
      {
        "astId": 6016,
        "contract": "contracts/Lottery.sol:Lottery",
        "label": "DAYS_STREAK_FOR_TICKET",
        "offset": 0,
        "slot": "10",
        "type": "t_uint256"
      },
      {
        "astId": 6019,
        "contract": "contracts/Lottery.sol:Lottery",
        "label": "CLAIM_PERIOD",
        "offset": 0,
        "slot": "11",
        "type": "t_uint256"
      },
      {
        "astId": 6022,
        "contract": "contracts/Lottery.sol:Lottery",
        "label": "ticketToken",
        "offset": 0,
        "slot": "12",
        "type": "t_contract(Ticket)14073"
      },
      {
        "astId": 6025,
        "contract": "contracts/Lottery.sol:Lottery",
        "label": "paymentToken",
        "offset": 0,
        "slot": "13",
        "type": "t_contract(ERC20Burnable)3161"
      },
      {
        "astId": 6028,
        "contract": "contracts/Lottery.sol:Lottery",
        "label": "rewardToken",
        "offset": 0,
        "slot": "14",
        "type": "t_contract(IERC20)3117"
      },
      {
        "astId": 6030,
        "contract": "contracts/Lottery.sol:Lottery",
        "label": "rewardPool",
        "offset": 0,
        "slot": "15",
        "type": "t_address"
      },
      {
        "astId": 6033,
        "contract": "contracts/Lottery.sol:Lottery",
        "label": "COORDINATOR",
        "offset": 0,
        "slot": "16",
        "type": "t_contract(VRFCoordinatorV2Interface)153"
      },
      {
        "astId": 6037,
        "contract": "contracts/Lottery.sol:Lottery",
        "label": "oracleRequests",
        "offset": 0,
        "slot": "17",
        "type": "t_mapping(t_uint256,t_uint256)"
      },
      {
        "astId": 6039,
        "contract": "contracts/Lottery.sol:Lottery",
        "label": "oracleSubscriptionId",
        "offset": 0,
        "slot": "18",
        "type": "t_uint64"
      },
      {
        "astId": 6041,
        "contract": "contracts/Lottery.sol:Lottery",
        "label": "oracleKeyHash",
        "offset": 0,
        "slot": "19",
        "type": "t_bytes32"
      },
      {
        "astId": 6044,
        "contract": "contracts/Lottery.sol:Lottery",
        "label": "oracleCallbackGasLimit",
        "offset": 0,
        "slot": "20",
        "type": "t_uint32"
      },
      {
        "astId": 6047,
        "contract": "contracts/Lottery.sol:Lottery",
        "label": "oracleRequestConfirmations",
        "offset": 4,
        "slot": "20",
        "type": "t_uint16"
      },
      {
        "astId": 6050,
        "contract": "contracts/Lottery.sol:Lottery",
        "label": "enableWinnerCalculationInOracleResponse",
        "offset": 6,
        "slot": "20",
        "type": "t_bool"
      }
    ],
    "types": {
      "t_address": {
        "encoding": "inplace",
        "label": "address",
        "numberOfBytes": "20"
      },
      "t_array(t_address)dyn_storage": {
        "base": "t_address",
        "encoding": "dynamic_array",
        "label": "address[]",
        "numberOfBytes": "32"
      },
      "t_array(t_array(t_address)dyn_storage)dyn_storage": {
        "base": "t_array(t_address)dyn_storage",
        "encoding": "dynamic_array",
        "label": "address[][]",
        "numberOfBytes": "32"
      },
      "t_array(t_struct(Round)12991_storage)dyn_storage": {
        "base": "t_struct(Round)12991_storage",
        "encoding": "dynamic_array",
        "label": "struct ILottery.Round[]",
        "numberOfBytes": "32"
      },
      "t_array(t_uint256)dyn_storage": {
        "base": "t_uint256",
        "encoding": "dynamic_array",
        "label": "uint256[]",
        "numberOfBytes": "32"
      },
      "t_bool": {
        "encoding": "inplace",
        "label": "bool",
        "numberOfBytes": "1"
      },
      "t_bytes32": {
        "encoding": "inplace",
        "label": "bytes32",
        "numberOfBytes": "32"
      },
      "t_contract(ERC20Burnable)3161": {
        "encoding": "inplace",
        "label": "contract ERC20Burnable",
        "numberOfBytes": "20"
      },
      "t_contract(IERC20)3117": {
        "encoding": "inplace",
        "label": "contract IERC20",
        "numberOfBytes": "20"
      },
      "t_contract(Ticket)14073": {
        "encoding": "inplace",
        "label": "contract Ticket",
        "numberOfBytes": "20"
      },
      "t_contract(VRFCoordinatorV2Interface)153": {
        "encoding": "inplace",
        "label": "contract VRFCoordinatorV2Interface",
        "numberOfBytes": "20"
      },
      "t_mapping(t_address,t_array(t_uint256)dyn_storage)": {
        "encoding": "mapping",
        "key": "t_address",
        "label": "mapping(address => uint256[])",
        "numberOfBytes": "32",
        "value": "t_array(t_uint256)dyn_storage"
      },
      "t_mapping(t_address,t_bool)": {
        "encoding": "mapping",
        "key": "t_address",
        "label": "mapping(address => bool)",
        "numberOfBytes": "32",
        "value": "t_bool"
      },
      "t_mapping(t_address,t_uint256)": {
        "encoding": "mapping",
        "key": "t_address",
        "label": "mapping(address => uint256)",
        "numberOfBytes": "32",
        "value": "t_uint256"
      },
      "t_mapping(t_bytes32,t_struct(RoleData)173_storage)": {
        "encoding": "mapping",
        "key": "t_bytes32",
        "label": "mapping(bytes32 => struct AccessControl.RoleData)",
        "numberOfBytes": "32",
        "value": "t_struct(RoleData)173_storage"
      },
      "t_mapping(t_uint256,t_mapping(t_address,t_uint256))": {
        "encoding": "mapping",
        "key": "t_uint256",
        "label": "mapping(uint256 => mapping(address => uint256))",
        "numberOfBytes": "32",
        "value": "t_mapping(t_address,t_uint256)"
      },
      "t_mapping(t_uint256,t_uint256)": {
        "encoding": "mapping",
        "key": "t_uint256",
        "label": "mapping(uint256 => uint256)",
        "numberOfBytes": "32",
        "value": "t_uint256"
      },
      "t_struct(RoleData)173_storage": {
        "encoding": "inplace",
        "label": "struct AccessControl.RoleData",
        "members": [
          {
            "astId": 170,
            "contract": "contracts/Lottery.sol:Lottery",
            "label": "members",
            "offset": 0,
            "slot": "0",
            "type": "t_mapping(t_address,t_bool)"
          },
          {
            "astId": 172,
            "contract": "contracts/Lottery.sol:Lottery",
            "label": "adminRole",
            "offset": 0,
            "slot": "1",
            "type": "t_bytes32"
          }
        ],
        "numberOfBytes": "64"
      },
      "t_struct(Round)12991_storage": {
        "encoding": "inplace",
        "label": "struct ILottery.Round",
        "members": [
          {
            "astId": 12955,
            "contract": "contracts/Lottery.sol:Lottery",
            "label": "id",
            "offset": 0,
            "slot": "0",
            "type": "t_uint256"
          },
          {
            "astId": 12957,
            "contract": "contracts/Lottery.sol:Lottery",
            "label": "startTime",
            "offset": 0,
            "slot": "1",
            "type": "t_uint256"
          },
          {
            "astId": 12959,
            "contract": "contracts/Lottery.sol:Lottery",
            "label": "duration",
            "offset": 0,
            "slot": "2",
            "type": "t_uint256"
          },
          {
            "astId": 12961,
            "contract": "contracts/Lottery.sol:Lottery",
            "label": "isClosed",
            "offset": 0,
            "slot": "3",
            "type": "t_bool"
          },
          {
            "astId": 12963,
            "contract": "contracts/Lottery.sol:Lottery",
            "label": "isOracleFulfilled",
            "offset": 1,
            "slot": "3",
            "type": "t_bool"
          },
          {
            "astId": 12965,
            "contract": "contracts/Lottery.sol:Lottery",
            "label": "isFinished",
            "offset": 2,
            "slot": "3",
            "type": "t_bool"
          },
          {
            "astId": 12967,
            "contract": "contracts/Lottery.sol:Lottery",
            "label": "initialPrize",
            "offset": 0,
            "slot": "4",
            "type": "t_uint256"
          },
          {
            "astId": 12969,
            "contract": "contracts/Lottery.sol:Lottery",
            "label": "totalPrize",
            "offset": 0,
            "slot": "5",
            "type": "t_uint256"
          },
          {
            "astId": 12971,
            "contract": "contracts/Lottery.sol:Lottery",
            "label": "maxTicketsFromOneMember",
            "offset": 0,
            "slot": "6",
            "type": "t_uint256"
          },
          {
            "astId": 12973,
            "contract": "contracts/Lottery.sol:Lottery",
            "label": "tokensForOneTicket",
            "offset": 0,
            "slot": "7",
            "type": "t_uint256"
          },
          {
            "astId": 12976,
            "contract": "contracts/Lottery.sol:Lottery",
            "label": "winnersForLevel",
            "offset": 0,
            "slot": "8",
            "type": "t_array(t_uint256)dyn_storage"
          },
          {
            "astId": 12979,
            "contract": "contracts/Lottery.sol:Lottery",
            "label": "prizeForLevel",
            "offset": 0,
            "slot": "9",
            "type": "t_array(t_uint256)dyn_storage"
          },
          {
            "astId": 12981,
            "contract": "contracts/Lottery.sol:Lottery",
            "label": "totalTickets",
            "offset": 0,
            "slot": "10",
            "type": "t_uint256"
          },
          {
            "astId": 12984,
            "contract": "contracts/Lottery.sol:Lottery",
            "label": "members",
            "offset": 0,
            "slot": "11",
            "type": "t_array(t_address)dyn_storage"
          },
          {
            "astId": 12986,
            "contract": "contracts/Lottery.sol:Lottery",
            "label": "randomWord",
            "offset": 0,
            "slot": "12",
            "type": "t_uint256"
          },
          {
            "astId": 12990,
            "contract": "contracts/Lottery.sol:Lottery",
            "label": "winners",
            "offset": 0,
            "slot": "13",
            "type": "t_array(t_array(t_address)dyn_storage)dyn_storage"
          }
        ],
        "numberOfBytes": "448"
      },
      "t_uint16": {
        "encoding": "inplace",
        "label": "uint16",
        "numberOfBytes": "2"
      },
      "t_uint256": {
        "encoding": "inplace",
        "label": "uint256",
        "numberOfBytes": "32"
      },
      "t_uint32": {
        "encoding": "inplace",
        "label": "uint32",
        "numberOfBytes": "4"
      },
      "t_uint64": {
        "encoding": "inplace",
        "label": "uint64",
        "numberOfBytes": "8"
      }
    }
  }
}