{
  "address": "0xf5988C9a1385eD08b6bb8453e00c1fA0A5B7Ef66",
  "abi": [
    {
      "inputs": [
        {
          "internalType": "uint256",
          "name": "ticketPrice",
          "type": "uint256"
        },
        {
          "internalType": "uint256",
          "name": "ticketId",
          "type": "uint256"
        },
        {
          "internalType": "uint256",
          "name": "daysStreakForTicket",
          "type": "uint256"
        },
        {
          "internalType": "address",
          "name": "ticketTokenAddress",
          "type": "address"
        },
        {
          "internalType": "address",
          "name": "paymentTokenAddress",
          "type": "address"
        },
        {
          "internalType": "address",
          "name": "rewardTokenAddress",
          "type": "address"
        },
        {
          "internalType": "address",
          "name": "rewardPoolAddress",
          "type": "address"
        },
        {
          "internalType": "address",
          "name": "coordinator",
          "type": "address"
        },
        {
          "internalType": "uint64",
          "name": "subscriptionId",
          "type": "uint64"
        },
        {
          "internalType": "bytes32",
          "name": "keyHash",
          "type": "bytes32"
        }
      ],
      "stateMutability": "nonpayable",
      "type": "constructor"
    },
    {
      "inputs": [
        {
          "internalType": "address",
          "name": "have",
          "type": "address"
        },
        {
          "internalType": "address",
          "name": "want",
          "type": "address"
        }
      ],
      "name": "OnlyCoordinatorCanFulfill",
      "type": "error"
    },
    {
      "anonymous": false,
      "inputs": [
        {
          "indexed": true,
          "internalType": "uint256",
          "name": "roundId",
          "type": "uint256"
        }
      ],
      "name": "NewRoundCreated",
      "type": "event"
    },
    {
      "anonymous": false,
      "inputs": [
        {
          "indexed": true,
          "internalType": "uint256",
          "name": "roundId",
          "type": "uint256"
        },
        {
          "indexed": true,
          "internalType": "uint256",
          "name": "requestId",
          "type": "uint256"
        },
        {
          "indexed": false,
          "internalType": "uint256",
          "name": "randomWord",
          "type": "uint256"
        }
      ],
      "name": "OracleRequestFulfilled",
      "type": "event"
    },
    {
      "anonymous": false,
      "inputs": [
        {
          "indexed": true,
          "internalType": "uint256",
          "name": "roundId",
          "type": "uint256"
        },
        {
          "indexed": true,
          "internalType": "uint256",
          "name": "requestId",
          "type": "uint256"
        }
      ],
      "name": "OracleRequestSent",
      "type": "event"
    },
    {
      "anonymous": false,
      "inputs": [
        {
          "indexed": true,
          "internalType": "bytes32",
          "name": "role",
          "type": "bytes32"
        },
        {
          "indexed": true,
          "internalType": "bytes32",
          "name": "previousAdminRole",
          "type": "bytes32"
        },
        {
          "indexed": true,
          "internalType": "bytes32",
          "name": "newAdminRole",
          "type": "bytes32"
        }
      ],
      "name": "RoleAdminChanged",
      "type": "event"
    },
    {
      "anonymous": false,
      "inputs": [
        {
          "indexed": true,
          "internalType": "bytes32",
          "name": "role",
          "type": "bytes32"
        },
        {
          "indexed": true,
          "internalType": "address",
          "name": "account",
          "type": "address"
        },
        {
          "indexed": true,
          "internalType": "address",
          "name": "sender",
          "type": "address"
        }
      ],
      "name": "RoleGranted",
      "type": "event"
    },
    {
      "anonymous": false,
      "inputs": [
        {
          "indexed": true,
          "internalType": "bytes32",
          "name": "role",
          "type": "bytes32"
        },
        {
          "indexed": true,
          "internalType": "address",
          "name": "account",
          "type": "address"
        },
        {
          "indexed": true,
          "internalType": "address",
          "name": "sender",
          "type": "address"
        }
      ],
      "name": "RoleRevoked",
      "type": "event"
    },
    {
      "anonymous": false,
      "inputs": [
        {
          "indexed": true,
          "internalType": "uint256",
          "name": "roundId",
          "type": "uint256"
        }
      ],
      "name": "RoundFinished",
      "type": "event"
    },
    {
      "anonymous": false,
      "inputs": [
        {
          "indexed": true,
          "internalType": "address",
          "name": "member",
          "type": "address"
        },
        {
          "indexed": false,
          "internalType": "uint256",
          "name": "amount",
          "type": "uint256"
        }
      ],
      "name": "TicketsCollected",
      "type": "event"
    },
    {
      "inputs": [],
      "name": "CLAIM_PERIOD",
      "outputs": [
        {
          "internalType": "uint256",
          "name": "",
          "type": "uint256"
        }
      ],
      "stateMutability": "view",
      "type": "function"
    },
    {
      "inputs": [],
      "name": "DAYS_STREAK_FOR_TICKET",
      "outputs": [
        {
          "internalType": "uint256",
          "name": "",
          "type": "uint256"
        }
      ],
      "stateMutability": "view",
      "type": "function"
    },
    {
      "inputs": [],
      "name": "DEFAULT_ADMIN_ROLE",
      "outputs": [
        {
          "internalType": "bytes32",
          "name": "",
          "type": "bytes32"
        }
      ],
      "stateMutability": "view",
      "type": "function"
    },
    {
      "inputs": [],
      "name": "OPERATOR_ROLE",
      "outputs": [
        {
          "internalType": "bytes32",
          "name": "",
          "type": "bytes32"
        }
      ],
      "stateMutability": "view",
      "type": "function"
    },
    {
      "inputs": [],
      "name": "TICKET_ID",
      "outputs": [
        {
          "internalType": "uint256",
          "name": "",
          "type": "uint256"
        }
      ],
      "stateMutability": "view",
      "type": "function"
    },
    {
      "inputs": [],
      "name": "TICKET_PRICE",
      "outputs": [
        {
          "internalType": "uint256",
          "name": "",
          "type": "uint256"
        }
      ],
      "stateMutability": "view",
      "type": "function"
    },
    {
      "inputs": [
        {
          "internalType": "uint256",
          "name": "amount",
          "type": "uint256"
        }
      ],
      "name": "buyTickets",
      "outputs": [],
      "stateMutability": "nonpayable",
      "type": "function"
    },
    {
      "inputs": [],
      "name": "claimDay",
      "outputs": [],
      "stateMutability": "nonpayable",
      "type": "function"
    },
    {
      "inputs": [
        {
          "internalType": "uint256",
          "name": "startTime",
          "type": "uint256"
        },
        {
          "internalType": "uint256",
          "name": "duration",
          "type": "uint256"
        },
        {
          "internalType": "uint256",
          "name": "initialPrize",
          "type": "uint256"
        },
        {
          "internalType": "uint256",
          "name": "tokensForOneTicket",
          "type": "uint256"
        },
        {
          "internalType": "uint256",
          "name": "maxTicketsFromOneMember",
          "type": "uint256"
        },
        {
          "internalType": "uint256[]",
          "name": "winnersForLevel",
          "type": "uint256[]"
        },
        {
          "internalType": "uint256[]",
          "name": "prizeForLevel",
          "type": "uint256[]"
        }
      ],
      "name": "createLotteryRound",
      "outputs": [],
      "stateMutability": "nonpayable",
      "type": "function"
    },
    {
      "inputs": [
        {
          "internalType": "uint256",
          "name": "roundId",
          "type": "uint256"
        },
        {
          "internalType": "uint256",
          "name": "tickets",
          "type": "uint256"
        }
      ],
      "name": "entryLottery",
      "outputs": [],
      "stateMutability": "nonpayable",
      "type": "function"
    },
    {
      "inputs": [
        {
          "internalType": "uint256",
          "name": "roundId",
          "type": "uint256"
        },
        {
          "internalType": "address[][]",
          "name": "pk",
          "type": "address[][]"
        }
      ],
      "name": "finishLotteryRound",
      "outputs": [],
      "stateMutability": "nonpayable",
      "type": "function"
    },
    {
      "inputs": [],
      "name": "getActiveRounds",
      "outputs": [
        {
          "components": [
            {
              "internalType": "uint256",
              "name": "id",
              "type": "uint256"
            },
            {
              "internalType": "uint256",
              "name": "startTime",
              "type": "uint256"
            },
            {
              "internalType": "uint256",
              "name": "duration",
              "type": "uint256"
            },
            {
              "internalType": "bool",
              "name": "isClosed",
              "type": "bool"
            },
            {
              "internalType": "bool",
              "name": "isOracleFulfilled",
              "type": "bool"
            },
            {
              "internalType": "bool",
              "name": "isFinished",
              "type": "bool"
            },
            {
              "internalType": "uint256",
              "name": "initialPrize",
              "type": "uint256"
            },
            {
              "internalType": "uint256",
              "name": "totalPrize",
              "type": "uint256"
            },
            {
              "internalType": "uint256",
              "name": "maxTicketsFromOneMember",
              "type": "uint256"
            },
            {
              "internalType": "uint256",
              "name": "tokensForOneTicket",
              "type": "uint256"
            },
            {
              "internalType": "uint256[]",
              "name": "winnersForLevel",
              "type": "uint256[]"
            },
            {
              "internalType": "uint256[]",
              "name": "prizeForLevel",
              "type": "uint256[]"
            },
            {
              "internalType": "uint256",
              "name": "totalTickets",
              "type": "uint256"
            },
            {
              "internalType": "address[]",
              "name": "members",
              "type": "address[]"
            },
            {
              "internalType": "uint256",
              "name": "randomWord",
              "type": "uint256"
            },
            {
              "internalType": "address[][]",
              "name": "winners",
              "type": "address[][]"
            }
          ],
          "internalType": "struct ILottery.Round[]",
          "name": "",
          "type": "tuple[]"
        }
      ],
      "stateMutability": "view",
      "type": "function"
    },
    {
      "inputs": [
        {
          "internalType": "address",
          "name": "user",
          "type": "address"
        }
      ],
      "name": "getClaimStreak",
      "outputs": [
        {
          "internalType": "uint256",
          "name": "",
          "type": "uint256"
        }
      ],
      "stateMutability": "view",
      "type": "function"
    },
    {
      "inputs": [
        {
          "internalType": "address",
          "name": "user",
          "type": "address"
        }
      ],
      "name": "getLastClaimTime",
      "outputs": [
        {
          "internalType": "uint256",
          "name": "",
          "type": "uint256"
        }
      ],
      "stateMutability": "view",
      "type": "function"
    },
    {
      "inputs": [
        {
          "internalType": "uint256",
          "name": "length",
          "type": "uint256"
        },
        {
          "internalType": "uint256",
          "name": "offset",
          "type": "uint256"
        }
      ],
      "name": "getLastFinishedRounds",
      "outputs": [
        {
          "components": [
            {
              "internalType": "uint256",
              "name": "id",
              "type": "uint256"
            },
            {
              "internalType": "uint256",
              "name": "startTime",
              "type": "uint256"
            },
            {
              "internalType": "uint256",
              "name": "duration",
              "type": "uint256"
            },
            {
              "internalType": "bool",
              "name": "isClosed",
              "type": "bool"
            },
            {
              "internalType": "bool",
              "name": "isOracleFulfilled",
              "type": "bool"
            },
            {
              "internalType": "bool",
              "name": "isFinished",
              "type": "bool"
            },
            {
              "internalType": "uint256",
              "name": "initialPrize",
              "type": "uint256"
            },
            {
              "internalType": "uint256",
              "name": "totalPrize",
              "type": "uint256"
            },
            {
              "internalType": "uint256",
              "name": "maxTicketsFromOneMember",
              "type": "uint256"
            },
            {
              "internalType": "uint256",
              "name": "tokensForOneTicket",
              "type": "uint256"
            },
            {
              "internalType": "uint256[]",
              "name": "winnersForLevel",
              "type": "uint256[]"
            },
            {
              "internalType": "uint256[]",
              "name": "prizeForLevel",
              "type": "uint256[]"
            },
            {
              "internalType": "uint256",
              "name": "totalTickets",
              "type": "uint256"
            },
            {
              "internalType": "address[]",
              "name": "members",
              "type": "address[]"
            },
            {
              "internalType": "uint256",
              "name": "randomWord",
              "type": "uint256"
            },
            {
              "internalType": "address[][]",
              "name": "winners",
              "type": "address[][]"
            }
          ],
          "internalType": "struct ILottery.Round[]",
          "name": "",
          "type": "tuple[]"
        }
      ],
      "stateMutability": "view",
      "type": "function"
    },
    {
      "inputs": [
        {
          "internalType": "bytes32",
          "name": "role",
          "type": "bytes32"
        }
      ],
      "name": "getRoleAdmin",
      "outputs": [
        {
          "internalType": "bytes32",
          "name": "",
          "type": "bytes32"
        }
      ],
      "stateMutability": "view",
      "type": "function"
    },
    {
      "inputs": [
        {
          "internalType": "uint256",
          "name": "id",
          "type": "uint256"
        }
      ],
      "name": "getRound",
      "outputs": [
        {
          "components": [
            {
              "internalType": "uint256",
              "name": "id",
              "type": "uint256"
            },
            {
              "internalType": "uint256",
              "name": "startTime",
              "type": "uint256"
            },
            {
              "internalType": "uint256",
              "name": "duration",
              "type": "uint256"
            },
            {
              "internalType": "bool",
              "name": "isClosed",
              "type": "bool"
            },
            {
              "internalType": "bool",
              "name": "isOracleFulfilled",
              "type": "bool"
            },
            {
              "internalType": "bool",
              "name": "isFinished",
              "type": "bool"
            },
            {
              "internalType": "uint256",
              "name": "initialPrize",
              "type": "uint256"
            },
            {
              "internalType": "uint256",
              "name": "totalPrize",
              "type": "uint256"
            },
            {
              "internalType": "uint256",
              "name": "maxTicketsFromOneMember",
              "type": "uint256"
            },
            {
              "internalType": "uint256",
              "name": "tokensForOneTicket",
              "type": "uint256"
            },
            {
              "internalType": "uint256[]",
              "name": "winnersForLevel",
              "type": "uint256[]"
            },
            {
              "internalType": "uint256[]",
              "name": "prizeForLevel",
              "type": "uint256[]"
            },
            {
              "internalType": "uint256",
              "name": "totalTickets",
              "type": "uint256"
            },
            {
              "internalType": "address[]",
              "name": "members",
              "type": "address[]"
            },
            {
              "internalType": "uint256",
              "name": "randomWord",
              "type": "uint256"
            },
            {
              "internalType": "address[][]",
              "name": "winners",
              "type": "address[][]"
            }
          ],
          "internalType": "struct ILottery.Round",
          "name": "",
          "type": "tuple"
        }
      ],
      "stateMutability": "view",
      "type": "function"
    },
    {
      "inputs": [],
      "name": "getTotalRounds",
      "outputs": [
        {
          "internalType": "uint256",
          "name": "",
          "type": "uint256"
        }
      ],
      "stateMutability": "view",
      "type": "function"
    },
    {
      "inputs": [
        {
          "internalType": "address",
          "name": "user",
          "type": "address"
        },
        {
          "internalType": "uint256",
          "name": "roundId",
          "type": "uint256"
        }
      ],
      "name": "getUserRoundEntry",
      "outputs": [
        {
          "internalType": "uint256",
          "name": "",
          "type": "uint256"
        }
      ],
      "stateMutability": "view",
      "type": "function"
    },
    {
      "inputs": [
        {
          "internalType": "address",
          "name": "user",
          "type": "address"
        }
      ],
      "name": "getWinnerPrize",
      "outputs": [
        {
          "internalType": "uint256",
          "name": "",
          "type": "uint256"
        }
      ],
      "stateMutability": "view",
      "type": "function"
    },
    {
      "inputs": [
        {
          "internalType": "bytes32",
          "name": "role",
          "type": "bytes32"
        },
        {
          "internalType": "address",
          "name": "account",
          "type": "address"
        }
      ],
      "name": "grantRole",
      "outputs": [],
      "stateMutability": "nonpayable",
      "type": "function"
    },
    {
      "inputs": [
        {
          "internalType": "bytes32",
          "name": "role",
          "type": "bytes32"
        },
        {
          "internalType": "address",
          "name": "account",
          "type": "address"
        }
      ],
      "name": "hasRole",
      "outputs": [
        {
          "internalType": "bool",
          "name": "",
          "type": "bool"
        }
      ],
      "stateMutability": "view",
      "type": "function"
    },
    {
      "inputs": [
        {
          "internalType": "address",
          "name": "user",
          "type": "address"
        }
      ],
      "name": "isClaimedToday",
      "outputs": [
        {
          "internalType": "bool",
          "name": "",
          "type": "bool"
        }
      ],
      "stateMutability": "view",
      "type": "function"
    },
    {
      "inputs": [
        {
          "internalType": "address",
          "name": "user",
          "type": "address"
        }
      ],
      "name": "isMintAvailable",
      "outputs": [
        {
          "internalType": "bool",
          "name": "",
          "type": "bool"
        }
      ],
      "stateMutability": "view",
      "type": "function"
    },
    {
      "inputs": [
        {
          "internalType": "uint256",
          "name": "roundId",
          "type": "uint256"
        }
      ],
      "name": "manuallyGetWinners",
      "outputs": [],
      "stateMutability": "nonpayable",
      "type": "function"
    },
    {
      "inputs": [],
      "name": "mintMyTicket",
      "outputs": [],
      "stateMutability": "nonpayable",
      "type": "function"
    },
    {
      "inputs": [
        {
          "internalType": "uint256",
          "name": "",
          "type": "uint256"
        }
      ],
      "name": "oracleRequests",
      "outputs": [
        {
          "internalType": "uint256",
          "name": "",
          "type": "uint256"
        }
      ],
      "stateMutability": "view",
      "type": "function"
    },
    {
      "inputs": [
        {
          "internalType": "uint256",
          "name": "requestId",
          "type": "uint256"
        },
        {
          "internalType": "uint256[]",
          "name": "randomWords",
          "type": "uint256[]"
        }
      ],
      "name": "rawFulfillRandomWords",
      "outputs": [],
      "stateMutability": "nonpayable",
      "type": "function"
    },
    {
      "inputs": [
        {
          "internalType": "bytes32",
          "name": "role",
          "type": "bytes32"
        },
        {
          "internalType": "address",
          "name": "account",
          "type": "address"
        }
      ],
      "name": "renounceRole",
      "outputs": [],
      "stateMutability": "nonpayable",
      "type": "function"
    },
    {
      "inputs": [
        {
          "internalType": "bytes32",
          "name": "role",
          "type": "bytes32"
        },
        {
          "internalType": "address",
          "name": "account",
          "type": "address"
        }
      ],
      "name": "revokeRole",
      "outputs": [],
      "stateMutability": "nonpayable",
      "type": "function"
    },
    {
      "inputs": [
        {
          "internalType": "uint256",
          "name": "",
          "type": "uint256"
        }
      ],
      "name": "rounds",
      "outputs": [
        {
          "internalType": "uint256",
          "name": "id",
          "type": "uint256"
        },
        {
          "internalType": "uint256",
          "name": "startTime",
          "type": "uint256"
        },
        {
          "internalType": "uint256",
          "name": "duration",
          "type": "uint256"
        },
        {
          "internalType": "bool",
          "name": "isClosed",
          "type": "bool"
        },
        {
          "internalType": "bool",
          "name": "isOracleFulfilled",
          "type": "bool"
        },
        {
          "internalType": "bool",
          "name": "isFinished",
          "type": "bool"
        },
        {
          "internalType": "uint256",
          "name": "initialPrize",
          "type": "uint256"
        },
        {
          "internalType": "uint256",
          "name": "totalPrize",
          "type": "uint256"
        },
        {
          "internalType": "uint256",
          "name": "maxTicketsFromOneMember",
          "type": "uint256"
        },
        {
          "internalType": "uint256",
          "name": "tokensForOneTicket",
          "type": "uint256"
        },
        {
          "internalType": "uint256",
          "name": "totalTickets",
          "type": "uint256"
        },
        {
          "internalType": "uint256",
          "name": "randomWord",
          "type": "uint256"
        }
      ],
      "stateMutability": "view",
      "type": "function"
    },
    {
      "inputs": [
        {
          "internalType": "bytes4",
          "name": "interfaceId",
          "type": "bytes4"
        }
      ],
      "name": "supportsInterface",
      "outputs": [
        {
          "internalType": "bool",
          "name": "",
          "type": "bool"
        }
      ],
      "stateMutability": "view",
      "type": "function"
    },
    {
      "inputs": [
        {
          "internalType": "uint32",
          "name": "gasLimit",
          "type": "uint32"
        }
      ],
      "name": "updateCallbackGasLimit",
      "outputs": [],
      "stateMutability": "nonpayable",
      "type": "function"
    },
    {
      "inputs": [
        {
          "internalType": "uint256",
          "name": "sec",
          "type": "uint256"
        }
      ],
      "name": "updateClaimPeriod",
      "outputs": [],
      "stateMutability": "nonpayable",
      "type": "function"
    },
    {
      "inputs": [
        {
          "internalType": "uint256",
          "name": "daysNum",
          "type": "uint256"
        }
      ],
      "name": "updateDaysStreakForTicket",
      "outputs": [],
      "stateMutability": "nonpayable",
      "type": "function"
    },
    {
      "inputs": [
        {
          "internalType": "bytes32",
          "name": "kayHash",
          "type": "bytes32"
        }
      ],
      "name": "updateKeyHash",
      "outputs": [],
      "stateMutability": "nonpayable",
      "type": "function"
    },
    {
      "inputs": [
        {
          "internalType": "address",
          "name": "token",
          "type": "address"
        }
      ],
      "name": "updatePaymentToken",
      "outputs": [],
      "stateMutability": "nonpayable",
      "type": "function"
    },
    {
      "inputs": [
        {
          "internalType": "uint16",
          "name": "confirmations",
          "type": "uint16"
        }
      ],
      "name": "updateRequestConfirmations",
      "outputs": [],
      "stateMutability": "nonpayable",
      "type": "function"
    },
    {
      "inputs": [
        {
          "internalType": "address",
          "name": "pool",
          "type": "address"
        }
      ],
      "name": "updateRewardPool",
      "outputs": [],
      "stateMutability": "nonpayable",
      "type": "function"
    },
    {
      "inputs": [
        {
          "internalType": "address",
          "name": "token",
          "type": "address"
        }
      ],
      "name": "updateRewardToken",
      "outputs": [],
      "stateMutability": "nonpayable",
      "type": "function"
    },
    {
      "inputs": [
        {
          "internalType": "uint64",
          "name": "id",
          "type": "uint64"
        }
      ],
      "name": "updateSubscriptionId",
      "outputs": [],
      "stateMutability": "nonpayable",
      "type": "function"
    },
    {
      "inputs": [
        {
          "internalType": "uint256",
          "name": "id",
          "type": "uint256"
        }
      ],
      "name": "updateTicketId",
      "outputs": [],
      "stateMutability": "nonpayable",
      "type": "function"
    },
    {
      "inputs": [
        {
          "internalType": "uint256",
          "name": "price",
          "type": "uint256"
        }
      ],
      "name": "updateTicketPrice",
      "outputs": [],
      "stateMutability": "nonpayable",
      "type": "function"
    },
    {
      "inputs": [
        {
          "internalType": "address",
          "name": "token",
          "type": "address"
        }
      ],
      "name": "updateTicketToken",
      "outputs": [],
      "stateMutability": "nonpayable",
      "type": "function"
    },
    {
      "inputs": [
        {
          "internalType": "bool",
          "name": "isEnabled",
          "type": "bool"
        }
      ],
      "name": "updateWinnerCalculationInRequest",
      "outputs": [],
      "stateMutability": "nonpayable",
      "type": "function"
    }
  ],
  "transactionHash": "0x56b9c01537b098115d611555c281f40370520936db183c6fd30a5ab58bf3fed4",
  "args": [
    "10000000000000000000",
    0,
    5,
    "0xb055ed62C7fD0241c9e586De9CBfc1b6fe7A53FB",
    "0x663cA197fdC464D131737a37bE850c4A038400BA",
    "0xc3b31F44d8a9A501C46EE551b9F7D3e50e9F3E52",
    "0xf982D706f37Cb781D567395877EC35eDCB7Cf65C",
    "0x7a1BaC17Ccc5b313516C5E16fb24f7659aA5ebed",
    "580",
    "0x4b09e658ed251bcafeebbc69400383d49f344ace09b9576fe248bb02c003fe9f"
  ],
  "numDeployments": 5,
  "solcInputHash": "6232a05428d05ce715698fcb52fd496f",
  "bytecode": "0x60a06040526005600a5562015180600b556014805466ffffffffffffff19166403000186a01790553480156200003457600080fd5b5060405162004315380380620043158339810160408190526200005791620001ed565b6001600160a01b03838116608081905260088c905560098b9055600a8a9055600c80546001600160a01b03199081168b851617909155600d805482168a8516179055600e80548216898516179055600f805482169388169390931790925560108054909216179055601280546001600160401b0319166001600160401b0384161790556013819055620000f36000620000ed3390565b6200012f565b6200011f7f97667070c54ef182b0f5858b034beac1b6f3089aa2d3188bb1e8929f4fa9b929336200012f565b50505050505050505050620002a8565b6000828152602081815260408083206001600160a01b038516845290915290205460ff16620001cc576000828152602081815260408083206001600160a01b03851684529091529020805460ff191660011790556200018b3390565b6001600160a01b0316816001600160a01b0316837f2f8788117e7eff1d82e926ec794901d17c78024a50270940304540a733656f0d60405160405180910390a45b5050565b80516001600160a01b0381168114620001e857600080fd5b919050565b6000806000806000806000806000806101408b8d0312156200020e57600080fd5b8a51995060208b0151985060408b015197506200022e60608c01620001d0565b96506200023e60808c01620001d0565b95506200024e60a08c01620001d0565b94506200025e60c08c01620001d0565b93506200026e60e08c01620001d0565b6101008c01519093506001600160401b03811681146200028d57600080fd5b809250506101208b015190509295989b9194979a5092959850565b60805161404a620002cb60003960008181610ce10152610d23015261404a6000f3fe608060405234801561001057600080fd5b506004361061027f5760003560e01c80637bf9e4c11161015c578063a4ba364d116100ce578063dcd2f2e011610087578063dcd2f2e014610605578063e44ddc2214610618578063e7fa67e514610621578063f02137c814610634578063f5b541a614610647578063f8cf31cb1461065c57600080fd5b8063a4ba364d1461057d578063a680e0bc146105a6578063b0e8d086146105b9578063ba00f6c5146105cc578063d547741f146105df578063d5fbac3a146105f257600080fd5b8063905d463611610120578063905d46361461051657806391d14854146105295780639d5179421461053c578063a1d3f4af1461054f578063a217fddf14610562578063a3fe51691461056a57600080fd5b80637bf9e4c1146104675780637d984d5f1461047a5780637f774d02146104825780638c65c81f1461048a5780638f1327c0146104f657600080fd5b80632f2ff15d116101f55780634a12512e116101b95780634a12512e146103f35780634ccf1b34146104065780634e3be4ed14610419578063592eef11146104215780635f5369e61461043457806372d4c6221461045457600080fd5b80632f2ff15d1461039e5780632f366637146103b15780632faaaae8146103c457806336568abe146103cd578063449050bc146103e057600080fd5b80631a95f15f116102475780631a95f15f1461030b5780631ad1ec22146103225780631fe543e31461032a5780632035fed11461033d57806321241dfe14610372578063248a9ca31461037b57600080fd5b806301b327cf1461028457806301ffc9a7146102ad578063110cace8146102d0578063148bea63146102e557806314b1dd1b146102f8575b600080fd5b610297610292366004613756565b61066f565b6040516102a49190613957565b60405180910390f35b6102c06102bb3660046139b9565b610ac0565b60405190151581526020016102a4565b6102e36102de366004613a68565b610af5565b005b6102e36102f3366004613b86565b610c96565b6102e3610306366004613b9f565b610ca7565b61031460085481565b6040519081526020016102a4565b600154610314565b6102e3610338366004613c2e565b610cd6565b61031461034b366004613c74565b60009081526004602090815260408083206001600160a01b03949094168352929052205490565b610314600b5481565b610314610389366004613b86565b60009081526020819052604090206001015490565b6102e36103ac366004613c9e565b610d5e565b6102e36103bf366004613b86565b610d88565b610314600a5481565b6102e36103db366004613c9e565b610e6d565b6102e36103ee366004613b86565b610ee7565b6102e3610401366004613cca565b610f08565b6102e3610414366004613d5d565b6114f8565b6102e3611526565b61031461042f366004613d5d565b61160a565b610314610442366004613b86565b60116020526000908152604090205481565b6102e3610462366004613756565b611751565b6102c0610475366004613d5d565b611a60565b610297611a77565b6102e3611e91565b61049d610498366004613b86565b61206c565b604080519c8d5260208d019b909b52998b019890985295151560608a0152931515608089015291151560a088015260c087015260e0860152610100850152610120840152610140830152610160820152610180016102a4565b610509610504366004613b86565b6120e1565b6040516102a49190613d78565b6102e3610524366004613d5d565b612356565b6102c0610537366004613c9e565b612384565b6102e361054a366004613b86565b6123ad565b6102e361055d366004613b86565b6123be565b610314600081565b6102c0610578366004613d5d565b6123cf565b61031461058b366004613d5d565b6001600160a01b031660009081526006602052604090205490565b6103146105b4366004613d5d565b612401565b6102e36105c7366004613d8b565b6124c0565b6102e36105da366004613db1565b6124e8565b6102e36105ed366004613c9e565b612518565b6102e3610600366004613d5d565b61253d565b6102e3610613366004613de3565b61256b565b61031460095481565b6102e361062f366004613b86565b61259b565b6102e3610642366004613b86565b6125ac565b610314600080516020613ff583398151915281565b6102e361066a366004613d5d565b6125bd565b60606000836001600160401b0381111561068b5761068b6139e3565b6040519080825280602002602001820160405280156106c457816020015b6106b161358a565b8152602001906001900390816106a95790505b50600154909150849084905b80156109ef5760016106e28183613e16565b815481106106f2576106f2613e2d565b90600052602060002090600e020160030160029054906101000a900460ff16156109dd57811561072e57610727600183613e16565b91506109dd565b610739600184613e16565b925060016107478183613e16565b8154811061075757610757613e2d565b60009182526020918290206040805161020081018252600e90930290910180548352600181015483850152600281015483830152600381015460ff808216151560608601526101008083048216151560808701526201000090920416151560a0850152600482015460c0850152600582015460e08501526006820154908401526007810154610120840152600881018054835181870281018701909452808452939491936101408601939283018282801561083157602002820191906000526020600020905b81548152602001906001019080831161081d575b505050505081526020016009820180548060200260200160405190810160405280929190818152602001828054801561088957602002820191906000526020600020905b815481526020019060010190808311610875575b50505050508152602001600a8201548152602001600b82018054806020026020016040519081016040528092919081815260200182805480156108f557602002820191906000526020600020905b81546001600160a01b031681526001909101906020018083116108d7575b50505050508152602001600c8201548152602001600d8201805480602002602001604051908101604052809291908181526020016000905b828210156109a35760008481526020908190208301805460408051828502810185019091528181529283018282801561098f57602002820191906000526020600020905b81546001600160a01b03168152600190910190602001808311610971575b50505050508152602001906001019061092d565b50505050815250508484815181106109bd576109bd613e2d565b602002602001018190525082600014156109dd5783945050505050610aba565b806109e781613e43565b9150506106d0565b5060006109fc8388613e16565b90506000816001600160401b03811115610a1857610a186139e3565b604051908082528060200260200182016040528015610a5157816020015b610a3e61358a565b815260200190600190039081610a365790505b50905060005b82811015610ab25785610a6a8683613e5a565b81518110610a7a57610a7a613e2d565b6020026020010151828281518110610a9457610a94613e2d565b60200260200101819052508080610aaa90613e72565b915050610a57565b509450505050505b92915050565b60006001600160e01b03198216637965db0b60e01b1480610aba57506301ffc9a760e01b6001600160e01b0319831614610aba565b600080516020613ff5833981519152610b0d816125eb565b6001548310610b5b5760405162461bcd60e51b8152602060048201526015602482015274125b9cdd59999a58da595b9d081c9bdd5b99081a59605a1b60448201526064015b60405180910390fd5b600060018481548110610b7057610b70613e2d565b90600052602060002090600e020190504281600201548260010154610b959190613e5a565b10610be25760405162461bcd60e51b815260206004820152601960248201527f526f756e64206973206e6f742066696e697368656420796574000000000000006044820152606401610b52565b600381015460ff1615610c315760405162461bcd60e51b8152602060048201526017602482015276149bdd5b99081a5cc8185b1c9958591e4818db1bdcd959604a1b6044820152606401610b52565b610c3a846125f5565b5060038101805460ff191660011790556007810154600a820154610c5e9190613e8d565b8160040154610c6d9190613e5a565b6005820155600a810154600085815260036020526040902055610c908484612700565b50505050565b6000610ca1816125eb565b50600a55565b6000610cb2816125eb565b506012805467ffffffffffffffff19166001600160401b0392909216919091179055565b336001600160a01b037f00000000000000000000000000000000000000000000000000000000000000001614610d505760405163073e64fd60e21b81523360048201526001600160a01b037f0000000000000000000000000000000000000000000000000000000000000000166024820152604401610b52565b610d5a8282612906565b5050565b600082815260208190526040902060010154610d79816125eb565b610d838383612a50565b505050565b60008111610dd85760405162461bcd60e51b815260206004820152601f60248201527f416d6f756e742073686f756c642062652067726561746572207468616e2030006044820152606401610b52565b600060085482610de89190613e8d565b600d549091506001600160a01b03166379cc6790336040516001600160e01b031960e084901b1681526001600160a01b03909116600482015260248101849052604401600060405180830381600087803b158015610e4557600080fd5b505af1158015610e59573d6000803e3d6000fd5b50505050610d5a610e673390565b83612ad4565b6001600160a01b0381163314610edd5760405162461bcd60e51b815260206004820152602f60248201527f416363657373436f6e74726f6c3a2063616e206f6e6c792072656e6f756e636560448201526e103937b632b9903337b91039b2b63360891b6064820152608401610b52565b610d5a8282612b9f565b600080516020613ff5833981519152610eff816125eb565b610d5a82612c04565b600080516020613ff5833981519152610f20816125eb565b6000861180610f2f5750600085115b610f615760405162461bcd60e51b815260206004820152600360248201526245433160e81b6044820152606401610b52565b8151835114610f985760405162461bcd60e51b815260206004820152600360248201526222a19960e91b6044820152606401610b52565b6000835111610fcf5760405162461bcd60e51b815260206004820152600360248201526245433360e81b6044820152606401610b52565b600084116110055760405162461bcd60e51b81526020600482015260036024820152621150cd60ea1b6044820152606401610b52565b4288101561103b5760405162461bcd60e51b815260206004820152600360248201526245433560e81b6044820152606401610b52565b600087116110715760405162461bcd60e51b815260206004820152600360248201526222a19b60e91b6044820152606401610b52565b82516000816001600160401b0381111561108d5761108d6139e3565b6040519080825280602002602001820160405280156110c057816020015b60608152602001906001900390816110ab5790505b5090506000805b8651811015611182578581815181106110e2576110e2613e2d565b6020026020010151826110f59190613e5a565b915086818151811061110957611109613e2d565b60200260200101516001600160401b03811115611128576111286139e3565b604051908082528060200260200182016040528015611151578160200160208202803683370190505b5083828151811061116457611164613e2d565b6020026020010181905250808061117a90613e72565b9150506110c7565b50806064146111b95760405162461bcd60e51b815260206004820152600360248201526245433760e81b6044820152606401610b52565b600060405180610200016040528060018054905081526020018d81526020018c81526020016000151581526020016000151581526020016000151581526020018b8152602001600081526020018981526020018a81526020018881526020018781526020016000815260200160006001600160401b0381111561123e5761123e6139e3565b604051908082528060200260200182016040528015611267578160200160208202803683370190505b5081526000602082018190526040918201869052600154915192935090917fffd54b413ad7953f600667abc68976fd55918f924f39fad7a55319a0217ad3b79190a260018054808201825560009190915281517fb10e2d527612073b26eecdfd717e6a320cf44b4afac2b0732d9fcbe2b7fa0cf6600e9092029182019081556020808401517fb10e2d527612073b26eecdfd717e6a320cf44b4afac2b0732d9fcbe2b7fa0cf784015560408401517fb10e2d527612073b26eecdfd717e6a320cf44b4afac2b0732d9fcbe2b7fa0cf884015560608401517fb10e2d527612073b26eecdfd717e6a320cf44b4afac2b0732d9fcbe2b7fa0cf984018054608087015160a088015161ffff1990921693151561ff0019169390931761010093151584021762ff00001916620100009115159190910217905560c08501517fb10e2d527612073b26eecdfd717e6a320cf44b4afac2b0732d9fcbe2b7fa0cfa85015560e08501517fb10e2d527612073b26eecdfd717e6a320cf44b4afac2b0732d9fcbe2b7fa0cfb8501558401517fb10e2d527612073b26eecdfd717e6a320cf44b4afac2b0732d9fcbe2b7fa0cfc8401556101208401517fb10e2d527612073b26eecdfd717e6a320cf44b4afac2b0732d9fcbe2b7fa0cfd8401556101408401518051859461147a937fb10e2d527612073b26eecdfd717e6a320cf44b4afac2b0732d9fcbe2b7fa0cfe90910192019061360d565b50610160820151805161149791600984019160209091019061360d565b50610180820151600a8201556101a082015180516114bf91600b840191602090910190613658565b506101c0820151600c8201556101e082015180516114e791600d8401916020909101906136ad565b505050505050505050505050505050565b6000611503816125eb565b50600d80546001600160a01b0319166001600160a01b0392909216919091179055565b61152f33611a60565b61157b5760405162461bcd60e51b815260206004820152601c60248201527f5469636b6574206d696e74206973206e6f7420617661696c61626c65000000006044820152606401610b52565b611586336001612ad4565b61158f33612401565b33600090815260076020526040902055600a546001600160401b038111156115b9576115b96139e3565b6040519080825280602002602001820160405280156115e2578160200160208202803683370190505b503360009081526005602090815260409091208251611607939192919091019061360d565b50565b6001600160a01b038116600090815260056020526040812080546116315750600092915050565b6000600190506000600b548360008154811061164f5761164f613e2d565b90600052602060002001546116649190613ec2565b905060015b83548110156117115783818154811061168457611684613e2d565b90600052602060002001546000141561169c57611711565b6000600b548583815481106116b3576116b3613e2d565b90600052602060002001546116c89190613ec2565b90506116d5836001613e5a565b8114156116f1576116e7600185613e5a565b93508092506116fe565b5060009695505050505050565b508061170981613e72565b915050611669565b50600a548214158015611739575061172a816001613e5a565b600b546117379042613ec2565b115b1561174957506000949350505050565b509392505050565b600154821061179a5760405162461bcd60e51b8152602060048201526015602482015274125b9cdd59999a58da595b9d081c9bdd5b99081a59605a1b6044820152606401610b52565b600081116117e05760405162461bcd60e51b815260206004820152601360248201527205469636b65747320616d6f756e74206973203606c1b6044820152606401610b52565b6000600183815481106117f5576117f5613e2d565b60009182526020808320868452600290915260408320600e9092020192508161181b3390565b6001600160a01b03166001600160a01b0316815260200190815260200160002054905042826001015411156118925760405162461bcd60e51b815260206004820152601860248201527f526f756e64206973206e6f7420737461727465642079657400000000000000006044820152606401610b52565b42826002015483600101546118a79190613e5a565b116118ee5760405162461bcd60e51b8152602060048201526017602482015276149bdd5b99081a5cc8185b1c9958591e4818db1bdcd959604a1b6044820152606401610b52565b60068201546118fd8483613e5a565b111561194b5760405162461bcd60e51b815260206004820152601f60248201527f546f6f206d616e79207469636b65747320666f72206f6e65206d656d626572006044820152606401610b52565b600c546001600160a01b031663f5298aca336009546040516001600160e01b031960e085901b1681526001600160a01b039092166004830152602482015260448101869052606401600060405180830381600087803b1580156119ad57600080fd5b505af11580156119c1573d6000803e3d6000fd5b5050505080600014156119f657600b82018054600181018255600091825260209091200180546001600160a01b031916331790555b611a008382613e5a565b6000858152600260209081526040808320338452909152902055611a248382613e5a565b6000858152600460209081526040808320338452909152812091909155600a83018054859290611a55908490613e5a565b909155505050505050565b600080611a6c8361160a565b600a54149392505050565b60606000806001805490506001600160401b03811115611a9957611a996139e3565b604051908082528060200260200182016040528015611ac2578160200160208202803683370190505b50905060005b600154811015611b4c5760018181548110611ae557611ae5613e2d565b90600052602060002090600e020160030160029054906101000a900460ff16611b3a576001828281518110611b1c57611b1c613e2d565b91151560209283029190910190910152611b37600184613e5a565b92505b80611b4481613e72565b915050611ac8565b506000826001600160401b03811115611b6757611b676139e3565b604051908082528060200260200182016040528015611ba057816020015b611b8d61358a565b815260200190600190039081611b855790505b506001549091505b80156117495782611bba600183613e16565b81518110611bca57611bca613e2d565b602002602001015115611e7f57611be2600185613e16565b93506001611bf08183613e16565b81548110611c0057611c00613e2d565b60009182526020918290206040805161020081018252600e90930290910180548352600181015483850152600281015483830152600381015460ff808216151560608601526101008083048216151560808701526201000090920416151560a0850152600482015460c0850152600582015460e085015260068201549084015260078101546101208401526008810180548351818702810187019094528084529394919361014086019392830182828015611cda57602002820191906000526020600020905b815481526020019060010190808311611cc6575b5050505050815260200160098201805480602002602001604051908101604052809291908181526020018280548015611d3257602002820191906000526020600020905b815481526020019060010190808311611d1e575b50505050508152602001600a8201548152602001600b8201805480602002602001604051908101604052809291908181526020018280548015611d9e57602002820191906000526020600020905b81546001600160a01b03168152600190910190602001808311611d80575b50505050508152602001600c8201548152602001600d8201805480602002602001604051908101604052809291908181526020016000905b82821015611e4c57600084815260209081902083018054604080518285028101850190915281815292830182828015611e3857602002820191906000526020600020905b81546001600160a01b03168152600190910190602001808311611e1a575b505050505081526020019060010190611dd6565b5050505081525050828581518110611e6657611e66613e2d565b60200260200101819052508360001415611e7f57611749565b80611e8981613e43565b915050611ba8565b611e9a336123cf565b15611edf5760405162461bcd60e51b8152602060048201526015602482015274416c726561647920636c61696d656420746f64617960581b6044820152606401610b52565b611ee833611a60565b15611f355760405162461bcd60e51b815260206004820152601d60248201527f4d696e74207469636b6574206265666f7265206e65787420636c61696d0000006044820152606401610b52565b6000611f403361160a565b9050600a5481101580611f51575080155b15611fc457600a546001600160401b03811115611f7057611f706139e3565b604051908082528060200260200182016040528015611f99578160200160208202803683370190505b503360009081526005602090815260409091208251611fbe939192919091019061360d565b50600090505b60005b33600090815260056020526040902054811015610d5a57336000908152600560205260409020805482908110611fff57611fff613e2d565b90600052602060002001546000141561205a57600b5461201f8142613ec2565b6120299190613e8d565b33600090815260056020526040902080548390811061204a5761204a613e2d565b6000918252602090912001555050565b8061206481613e72565b915050611fc7565b6001818154811061207c57600080fd5b60009182526020909120600e9091020180546001820154600283015460038401546004850154600586015460068701546007880154600a890154600c909901549799509597949660ff808616976101008704821697620100009097049091169590918c565b6120e961358a565b600182815481106120fc576120fc613e2d565b60009182526020918290206040805161020081018252600e90930290910180548352600181015483850152600281015483830152600381015460ff808216151560608601526101008083048216151560808701526201000090920416151560a0850152600482015460c0850152600582015460e0850152600682015490840152600781015461012084015260088101805483518187028101870190945280845293949193610140860193928301828280156121d657602002820191906000526020600020905b8154815260200190600101908083116121c2575b505050505081526020016009820180548060200260200160405190810160405280929190818152602001828054801561222e57602002820191906000526020600020905b81548152602001906001019080831161221a575b50505050508152602001600a8201548152602001600b820180548060200260200160405190810160405280929190818152602001828054801561229a57602002820191906000526020600020905b81546001600160a01b0316815260019091019060200180831161227c575b50505050508152602001600c8201548152602001600d8201805480602002602001604051908101604052809291908181526020016000905b828210156123485760008481526020908190208301805460408051828502810185019091528181529283018282801561233457602002820191906000526020600020905b81546001600160a01b03168152600190910190602001808311612316575b5050505050815260200190600101906122d2565b505050915250909392505050565b6000612361816125eb565b50600c80546001600160a01b0319166001600160a01b0392909216919091179055565b6000918252602082815260408084206001600160a01b0393909316845291905290205460ff1690565b60006123b8816125eb565b50600b55565b60006123c9816125eb565b50600955565b600080600b54426123e09190613ec2565b905080600b546123ef85612401565b6123f99190613ec2565b149392505050565b6001600160a01b038116600090815260056020526040812080546124285750600092915050565b80545b80156124a25760008261243f600184613e16565b8154811061244f5761244f613e2d565b90600052602060002001541115612490578161246c600183613e16565b8154811061247c5761247c613e2d565b906000526020600020015492505050919050565b8061249a81613e43565b91505061242b565b5050506001600160a01b031660009081526007602052604090205490565b60006124cb816125eb565b506014805463ffffffff191663ffffffff92909216919091179055565b60006124f3816125eb565b506014805461ffff9092166401000000000265ffff0000000019909216919091179055565b600082815260208190526040902060010154612533816125eb565b610d838383612b9f565b6000612548816125eb565b50600f80546001600160a01b0319166001600160a01b0392909216919091179055565b6000612576816125eb565b506014805491151566010000000000000266ff00000000000019909216919091179055565b60006125a6816125eb565b50601355565b60006125b7816125eb565b50600855565b60006125c8816125eb565b50600e80546001600160a01b0319166001600160a01b0392909216919091179055565b6116078133613384565b6000600080516020613ff583398151915261260f816125eb565b6010546013546012546014546040516305d3b1d360e41b815260048101939093526001600160401b039091166024830152640100000000810461ffff16604483015263ffffffff166064820152600160848201526000916001600160a01b031690635d3b1d309060a4016020604051808303816000875af1158015612698573d6000803e3d6000fd5b505050506040513d601f19601f820116820180604052508101906126bc9190613ed6565b60008181526011602052604080822087905551919250829186917ff9f171fefccda92248e5f0fdcf6c04ff1e2d16592241264abd91d121874f4f5291a39392505050565b60006001838154811061271557612715613e2d565b90600052602060002090600e0201905060005b8251811015610c905760005b83828151811061274657612746613e2d565b6020026020010151518110156128f35783828151811061276857612768613e2d565b6020026020010151818151811061278157612781613e2d565b602002602001015183600d01838154811061279e5761279e613e2d565b9060005260206000200182815481106127b9576127b9613e2d565b9060005260206000200160006101000a8154816001600160a01b0302191690836001600160a01b0316021790555060026000868152602001908152602001600020600085848151811061280e5761280e613e2d565b6020026020010151838151811061282757612827613e2d565b60200260200101516001600160a01b03166001600160a01b03168152602001908152602001600020546003600087815260200190815260200160002060008282546128729190613e16565b909155505060008581526002602052604081208551829087908690811061289b5761289b613e2d565b602002602001015184815181106128b4576128b4613e2d565b60200260200101516001600160a01b03166001600160a01b031681526020019081526020016000208190555080806128eb90613e72565b915050612734565b50806128fe81613e72565b915050612728565b600082815260116020526040902054600180548290811061292957612929613e2d565b90600052602060002090600e020160030160019054906101000a900460ff161561297e5760405162461bcd60e51b8152600401610b52906020808252600490820152630454331360e41b604082015260600190565b60006001828154811061299357612993613e2d565b90600052602060002090600e02019050826000815181106129b6576129b6613e2d565b6020908102919091010151600c82015560038101805461ff0019166101001790556014546601000000000000900460ff16156129f5576129f582612c04565b83827fa9c8267b94f3ce97d170a9faaacd4f71922c05f07bc2f73222364bdd7173668b85600081518110612a2b57612a2b613e2d565b6020026020010151604051612a4291815260200190565b60405180910390a350505050565b612a5a8282612384565b610d5a576000828152602081815260408083206001600160a01b03851684529091529020805460ff19166001179055612a903390565b6001600160a01b0316816001600160a01b0316837f2f8788117e7eff1d82e926ec794901d17c78024a50270940304540a733656f0d60405160405180910390a45050565b600c5460095460405163731133e960e01b81526001600160a01b038581166004830152602482019290925260448101849052608060648201526000608482015291169063731133e99060a401600060405180830381600087803b158015612b3a57600080fd5b505af1158015612b4e573d6000803e3d6000fd5b50505050612b593390565b6001600160a01b03167f76513afb012856b6d7375c6d6f5e1bfffc159135e1a3d2cd6a2abb66ce95117782604051612b9391815260200190565b60405180910390a25050565b612ba98282612384565b15610d5a576000828152602081815260408083206001600160a01b0385168085529252808320805460ff1916905551339285917ff6391f5c32d9c69d2a47ea670b442974b53935d1edc7fd64eb21e047a839171b9190a45050565b600060018281548110612c1957612c19613e2d565b60009182526020918290206040805161020081018252600e90930290910180548352600181015483850152600281015483830152600381015460ff808216151560608601526101008083048216151560808701526201000090920416151560a0850152600482015460c0850152600582015460e085015260068201549084015260078101546101208401526008810180548351818702810187019094528084529394919361014086019392830182828015612cf357602002820191906000526020600020905b815481526020019060010190808311612cdf575b5050505050815260200160098201805480602002602001604051908101604052809291908181526020018280548015612d4b57602002820191906000526020600020905b815481526020019060010190808311612d37575b50505050508152602001600a8201548152602001600b8201805480602002602001604051908101604052809291908181526020018280548015612db757602002820191906000526020600020905b81546001600160a01b03168152600190910190602001808311612d99575b50505050508152602001600c8201548152602001600d8201805480602002602001604051908101604052809291908181526020016000905b82821015612e6557600084815260209081902083018054604080518285028101850190915281815292830182828015612e5157602002820191906000526020600020905b81546001600160a01b03168152600190910190602001808311612e33575b505050505081526020019060010190612def565b505050508152505090508060800151612eb95760405162461bcd60e51b8152602060048201526016602482015275149bdd5b99081a5cc81b9bdd08199d5b199a5b1b195960521b6044820152606401610b52565b8060a0015115612f0b5760405162461bcd60e51b815260206004820152601960248201527f526f756e6420697320616c72656164792066696e6973686564000000000000006044820152606401610b52565b6001808381548110612f1f57612f1f613e2d565b6000918252602082206003600e90920201018054921515620100000262ff0000199093169290921790915560405183917f74ef25ef6b332a2fbbe7eb8b4108e0fe842a929d34c52a2ea4ca1a0f1524f10791a26101c081015160005b826101e0015151811015610c905760008361016001518281518110612fa257612fa2613e2d565b602002602001015160648560e00151612fbb9190613ec2565b612fc59190613e8d565b905060005b846101e001518381518110612fe157612fe1613e2d565b60200260200101515181101561336f5760008681526003602052604090205461300c57505050505050565b42613018826001613e5a565b613023856001613e5a565b61302d9087613e8d565b6130379190613e8d565b6130419190613eef565b61304c906001613e5a565b93506000856101e00151848151811061306757613067613e2d565b6020026020010151828151811061308057613080613e2d565b6020026020010151905060006001600160a01b0316866101e0015185815181106130ac576130ac613e2d565b602002602001015183815181106130c5576130c5613e2d565b60200260200101516001600160a01b0316141561327a576000878152600360205260408120546130f59087613eef565b613100906001613e5a565b905060005b876101a00151518110156131f8576000886101a00151828151811061312c5761312c613e2d565b60209081029190910181015160008c81526002835260408082206001600160a01b038416835290935291909120549091508084116131d75760008b81526002602090815260408083206001600160a01b03861684528252808320548e84526003909252822080549497508794919290916131a7908490613e16565b90915550505060008a81526002602090815260408083206001600160a01b039094168352929052908120556131f8565b6131e18185613e16565b9350505080806131f090613e72565b915050613105565b50816001898154811061320d5761320d613e2d565b90600052602060002090600e0201600d01868154811061322f5761322f613e2d565b90600052602060002001848154811061324a5761324a613e2d565b9060005260206000200160006101000a8154816001600160a01b0302191690836001600160a01b03160217905550505b6000866101e00151858151811061329357613293613e2d565b602002602001015151846132a79190613ec2565b600e54600f546040516323b872dd60e01b81526001600160a01b03918216600482015285821660248201526044810184905292935016906323b872dd906064016020604051808303816000875af1158015613306573d6000803e3d6000fd5b505050506040513d601f19601f8201168201806040525081019061332a9190613f03565b506001600160a01b03821660009081526006602052604081208054839290613353908490613e5a565b925050819055505050808061336790613e72565b915050612fca565b5050808061337c90613e72565b915050612f7b565b61338e8282612384565b610d5a576133a6816001600160a01b031660146133e8565b6133b18360206133e8565b6040516020016133c2929190613f4c565b60408051601f198184030181529082905262461bcd60e51b8252610b5291600401613fc1565b606060006133f7836002613e8d565b613402906002613e5a565b6001600160401b03811115613419576134196139e3565b6040519080825280601f01601f191660200182016040528015613443576020820181803683370190505b509050600360fc1b8160008151811061345e5761345e613e2d565b60200101906001600160f81b031916908160001a905350600f60fb1b8160018151811061348d5761348d613e2d565b60200101906001600160f81b031916908160001a90535060006134b1846002613e8d565b6134bc906001613e5a565b90505b6001811115613534576f181899199a1a9b1b9c1cb0b131b232b360811b85600f16601081106134f0576134f0613e2d565b1a60f81b82828151811061350657613506613e2d565b60200101906001600160f81b031916908160001a90535060049490941c9361352d81613e43565b90506134bf565b5083156135835760405162461bcd60e51b815260206004820181905260248201527f537472696e67733a20686578206c656e67746820696e73756666696369656e746044820152606401610b52565b9392505050565b604051806102000160405280600081526020016000815260200160008152602001600015158152602001600015158152602001600015158152602001600081526020016000815260200160008152602001600081526020016060815260200160608152602001600081526020016060815260200160008152602001606081525090565b828054828255906000526020600020908101928215613648579160200282015b8281111561364857825182559160200191906001019061362d565b50613654929150613706565b5090565b828054828255906000526020600020908101928215613648579160200282015b8281111561364857825182546001600160a01b0319166001600160a01b03909116178255602090920191600190910190613678565b8280548282559060005260206000209081019282156136fa579160200282015b828111156136fa57825180516136ea918491602090910190613658565b50916020019190600101906136cd565b5061365492915061371b565b5b808211156136545760008155600101613707565b8082111561365457600061372f8282613738565b5060010161371b565b50805460008255906000526020600020908101906116079190613706565b6000806040838503121561376957600080fd5b50508035926020909101359150565b600081518084526020808501945080840160005b838110156137a85781518752958201959082019060010161378c565b509495945050505050565b600081518084526020808501945080840160005b838110156137a85781516001600160a01b0316875295820195908201906001016137c7565b600082825180855260208086019550808260051b84010181860160005b8481101561383757601f198684030189526138258383516137b3565b98840198925090830190600101613809565b5090979650505050505050565b60006102008251845260208301516020850152604083015160408501526060830151613874606086018215159052565b506080830151613888608086018215159052565b5060a083015161389c60a086018215159052565b5060c083015160c085015260e083015160e08501526101008084015181860152506101208084015181860152506101408084015182828701526138e183870182613778565b9250505061016080840151858303828701526138fd8382613778565b925050506101808084015181860152506101a0808401518583038287015261392583826137b3565b925050506101c08084015181860152506101e0808401518583038287015261394d83826137ec565b9695505050505050565b6000602080830181845280855180835260408601915060408160051b870101925083870160005b828110156139ac57603f1988860301845261399a858351613844565b9450928501929085019060010161397e565b5092979650505050505050565b6000602082840312156139cb57600080fd5b81356001600160e01b03198116811461358357600080fd5b634e487b7160e01b600052604160045260246000fd5b604051601f8201601f191681016001600160401b0381118282101715613a2157613a216139e3565b604052919050565b60006001600160401b03821115613a4257613a426139e3565b5060051b60200190565b80356001600160a01b0381168114613a6357600080fd5b919050565b6000806040808486031215613a7c57600080fd5b833592506020808501356001600160401b0380821115613a9b57600080fd5b818701915087601f830112613aaf57600080fd5b8135613ac2613abd82613a29565b6139f9565b81815260059190911b8301840190848101908a831115613ae157600080fd5b8585015b83811015613b7457803585811115613afd5760008081fd5b8601603f81018d13613b0f5760008081fd5b87810135613b1f613abd82613a29565b81815260059190911b82018a0190898101908f831115613b3f5760008081fd5b928b01925b82841015613b6457613b5584613a4c565b8252928a0192908a0190613b44565b8652505050918601918601613ae5565b50809750505050505050509250929050565b600060208284031215613b9857600080fd5b5035919050565b600060208284031215613bb157600080fd5b81356001600160401b038116811461358357600080fd5b600082601f830112613bd957600080fd5b81356020613be9613abd83613a29565b82815260059290921b84018101918181019086841115613c0857600080fd5b8286015b84811015613c235780358352918301918301613c0c565b509695505050505050565b60008060408385031215613c4157600080fd5b8235915060208301356001600160401b03811115613c5e57600080fd5b613c6a85828601613bc8565b9150509250929050565b60008060408385031215613c8757600080fd5b613c9083613a4c565b946020939093013593505050565b60008060408385031215613cb157600080fd5b82359150613cc160208401613a4c565b90509250929050565b600080600080600080600060e0888a031215613ce557600080fd5b873596506020880135955060408801359450606088013593506080880135925060a08801356001600160401b0380821115613d1f57600080fd5b613d2b8b838c01613bc8565b935060c08a0135915080821115613d4157600080fd5b50613d4e8a828b01613bc8565b91505092959891949750929550565b600060208284031215613d6f57600080fd5b61358382613a4c565b6020815260006135836020830184613844565b600060208284031215613d9d57600080fd5b813563ffffffff8116811461358357600080fd5b600060208284031215613dc357600080fd5b813561ffff8116811461358357600080fd5b801515811461160757600080fd5b600060208284031215613df557600080fd5b813561358381613dd5565b634e487b7160e01b600052601160045260246000fd5b600082821015613e2857613e28613e00565b500390565b634e487b7160e01b600052603260045260246000fd5b600081613e5257613e52613e00565b506000190190565b60008219821115613e6d57613e6d613e00565b500190565b6000600019821415613e8657613e86613e00565b5060010190565b6000816000190483118215151615613ea757613ea7613e00565b500290565b634e487b7160e01b600052601260045260246000fd5b600082613ed157613ed1613eac565b500490565b600060208284031215613ee857600080fd5b5051919050565b600082613efe57613efe613eac565b500690565b600060208284031215613f1557600080fd5b815161358381613dd5565b60005b83811015613f3b578181015183820152602001613f23565b83811115610c905750506000910152565b7f416363657373436f6e74726f6c3a206163636f756e7420000000000000000000815260008351613f84816017850160208801613f20565b7001034b99036b4b9b9b4b733903937b6329607d1b6017918401918201528351613fb5816028840160208801613f20565b01602801949350505050565b6020815260008251806020840152613fe0816040850160208701613f20565b601f01601f1916919091016040019291505056fe97667070c54ef182b0f5858b034beac1b6f3089aa2d3188bb1e8929f4fa9b929a26469706673582212205bfea9786c6b2cc0e4b17e8b5b9b846b8f5892fbff72f6fe6498048d96a771d664736f6c634300080b0033",
  "devdoc": {
    "kind": "dev",
    "methods": {
      "getRoleAdmin(bytes32)": {
        "details": "Returns the admin role that controls `role`. See {grantRole} and {revokeRole}. To change a role's admin, use {_setRoleAdmin}."
      },
      "grantRole(bytes32,address)": {
        "details": "Grants `role` to `account`. If `account` had not been already granted `role`, emits a {RoleGranted} event. Requirements: - the caller must have ``role``'s admin role. May emit a {RoleGranted} event."
      },
      "hasRole(bytes32,address)": {
        "details": "Returns `true` if `account` has been granted `role`."
      },
      "renounceRole(bytes32,address)": {
        "details": "Revokes `role` from the calling account. Roles are often managed via {grantRole} and {revokeRole}: this function's purpose is to provide a mechanism for accounts to lose their privileges if they are compromised (such as when a trusted device is misplaced). If the calling account had been revoked `role`, emits a {RoleRevoked} event. Requirements: - the caller must be `account`. May emit a {RoleRevoked} event."
      },
      "revokeRole(bytes32,address)": {
        "details": "Revokes `role` from `account`. If `account` had been granted `role`, emits a {RoleRevoked} event. Requirements: - the caller must have ``role``'s admin role. May emit a {RoleRevoked} event."
      },
      "supportsInterface(bytes4)": {
        "details": "See {IERC165-supportsInterface}."
      }
    },
    "version": 1
  },
  "userdoc": {
    "kind": "user",
    "methods": {},
    "version": 1
  },
  "storageLayout": {
    "storage": [
      {
        "astId": 178,
        "contract": "contracts/Lottery.sol:Lottery",
        "label": "_roles",
        "offset": 0,
        "slot": "0",
        "type": "t_mapping(t_bytes32,t_struct(RoleData)173_storage)"
      },
      {
        "astId": 5980,
        "contract": "contracts/Lottery.sol:Lottery",
        "label": "rounds",
        "offset": 0,
        "slot": "1",
        "type": "t_array(t_struct(Round)12984_storage)dyn_storage"
      },
      {
        "astId": 5986,
        "contract": "contracts/Lottery.sol:Lottery",
        "label": "roundMembers",
        "offset": 0,
        "slot": "2",
        "type": "t_mapping(t_uint256,t_mapping(t_address,t_uint256))"
      },
      {
        "astId": 5990,
        "contract": "contracts/Lottery.sol:Lottery",
        "label": "roundRestTickets",
        "offset": 0,
        "slot": "3",
        "type": "t_mapping(t_uint256,t_uint256)"
      },
      {
        "astId": 5996,
        "contract": "contracts/Lottery.sol:Lottery",
        "label": "roundMembersHistory",
        "offset": 0,
        "slot": "4",
        "type": "t_mapping(t_uint256,t_mapping(t_address,t_uint256))"
      },
      {
        "astId": 6001,
        "contract": "contracts/Lottery.sol:Lottery",
        "label": "claims",
        "offset": 0,
        "slot": "5",
        "type": "t_mapping(t_address,t_array(t_uint256)dyn_storage)"
      },
      {
        "astId": 6005,
        "contract": "contracts/Lottery.sol:Lottery",
        "label": "winnersRewards",
        "offset": 0,
        "slot": "6",
        "type": "t_mapping(t_address,t_uint256)"
      },
      {
        "astId": 6009,
        "contract": "contracts/Lottery.sol:Lottery",
        "label": "lastTicketMint",
        "offset": 0,
        "slot": "7",
        "type": "t_mapping(t_address,t_uint256)"
      },
      {
        "astId": 6011,
        "contract": "contracts/Lottery.sol:Lottery",
        "label": "TICKET_PRICE",
        "offset": 0,
        "slot": "8",
        "type": "t_uint256"
      },
      {
        "astId": 6013,
        "contract": "contracts/Lottery.sol:Lottery",
        "label": "TICKET_ID",
        "offset": 0,
        "slot": "9",
        "type": "t_uint256"
      },
      {
        "astId": 6016,
        "contract": "contracts/Lottery.sol:Lottery",
        "label": "DAYS_STREAK_FOR_TICKET",
        "offset": 0,
        "slot": "10",
        "type": "t_uint256"
      },
      {
        "astId": 6019,
        "contract": "contracts/Lottery.sol:Lottery",
        "label": "CLAIM_PERIOD",
        "offset": 0,
        "slot": "11",
        "type": "t_uint256"
      },
      {
        "astId": 6022,
        "contract": "contracts/Lottery.sol:Lottery",
        "label": "ticketToken",
        "offset": 0,
        "slot": "12",
        "type": "t_contract(Ticket)14066"
      },
      {
        "astId": 6025,
        "contract": "contracts/Lottery.sol:Lottery",
        "label": "paymentToken",
        "offset": 0,
        "slot": "13",
        "type": "t_contract(ERC20Burnable)3161"
      },
      {
        "astId": 6028,
        "contract": "contracts/Lottery.sol:Lottery",
        "label": "rewardToken",
        "offset": 0,
        "slot": "14",
        "type": "t_contract(IERC20)3117"
      },
      {
        "astId": 6030,
        "contract": "contracts/Lottery.sol:Lottery",
        "label": "rewardPool",
        "offset": 0,
        "slot": "15",
        "type": "t_address"
      },
      {
        "astId": 6033,
        "contract": "contracts/Lottery.sol:Lottery",
        "label": "COORDINATOR",
        "offset": 0,
        "slot": "16",
        "type": "t_contract(VRFCoordinatorV2Interface)153"
      },
      {
        "astId": 6037,
        "contract": "contracts/Lottery.sol:Lottery",
        "label": "oracleRequests",
        "offset": 0,
        "slot": "17",
        "type": "t_mapping(t_uint256,t_uint256)"
      },
      {
        "astId": 6039,
        "contract": "contracts/Lottery.sol:Lottery",
        "label": "oracleSubscriptionId",
        "offset": 0,
        "slot": "18",
        "type": "t_uint64"
      },
      {
        "astId": 6041,
        "contract": "contracts/Lottery.sol:Lottery",
        "label": "oracleKeyHash",
        "offset": 0,
        "slot": "19",
        "type": "t_bytes32"
      },
      {
        "astId": 6044,
        "contract": "contracts/Lottery.sol:Lottery",
        "label": "oracleCallbackGasLimit",
        "offset": 0,
        "slot": "20",
        "type": "t_uint32"
      },
      {
        "astId": 6047,
        "contract": "contracts/Lottery.sol:Lottery",
        "label": "oracleRequestConfirmations",
        "offset": 4,
        "slot": "20",
        "type": "t_uint16"
      },
      {
        "astId": 6050,
        "contract": "contracts/Lottery.sol:Lottery",
        "label": "enableWinnerCalculationInOracleResponse",
        "offset": 6,
        "slot": "20",
        "type": "t_bool"
      }
    ],
    "types": {
      "t_address": {
        "encoding": "inplace",
        "label": "address",
        "numberOfBytes": "20"
      },
      "t_array(t_address)dyn_storage": {
        "base": "t_address",
        "encoding": "dynamic_array",
        "label": "address[]",
        "numberOfBytes": "32"
      },
      "t_array(t_array(t_address)dyn_storage)dyn_storage": {
        "base": "t_array(t_address)dyn_storage",
        "encoding": "dynamic_array",
        "label": "address[][]",
        "numberOfBytes": "32"
      },
      "t_array(t_struct(Round)12984_storage)dyn_storage": {
        "base": "t_struct(Round)12984_storage",
        "encoding": "dynamic_array",
        "label": "struct ILottery.Round[]",
        "numberOfBytes": "32"
      },
      "t_array(t_uint256)dyn_storage": {
        "base": "t_uint256",
        "encoding": "dynamic_array",
        "label": "uint256[]",
        "numberOfBytes": "32"
      },
      "t_bool": {
        "encoding": "inplace",
        "label": "bool",
        "numberOfBytes": "1"
      },
      "t_bytes32": {
        "encoding": "inplace",
        "label": "bytes32",
        "numberOfBytes": "32"
      },
      "t_contract(ERC20Burnable)3161": {
        "encoding": "inplace",
        "label": "contract ERC20Burnable",
        "numberOfBytes": "20"
      },
      "t_contract(IERC20)3117": {
        "encoding": "inplace",
        "label": "contract IERC20",
        "numberOfBytes": "20"
      },
      "t_contract(Ticket)14066": {
        "encoding": "inplace",
        "label": "contract Ticket",
        "numberOfBytes": "20"
      },
      "t_contract(VRFCoordinatorV2Interface)153": {
        "encoding": "inplace",
        "label": "contract VRFCoordinatorV2Interface",
        "numberOfBytes": "20"
      },
      "t_mapping(t_address,t_array(t_uint256)dyn_storage)": {
        "encoding": "mapping",
        "key": "t_address",
        "label": "mapping(address => uint256[])",
        "numberOfBytes": "32",
        "value": "t_array(t_uint256)dyn_storage"
      },
      "t_mapping(t_address,t_bool)": {
        "encoding": "mapping",
        "key": "t_address",
        "label": "mapping(address => bool)",
        "numberOfBytes": "32",
        "value": "t_bool"
      },
      "t_mapping(t_address,t_uint256)": {
        "encoding": "mapping",
        "key": "t_address",
        "label": "mapping(address => uint256)",
        "numberOfBytes": "32",
        "value": "t_uint256"
      },
      "t_mapping(t_bytes32,t_struct(RoleData)173_storage)": {
        "encoding": "mapping",
        "key": "t_bytes32",
        "label": "mapping(bytes32 => struct AccessControl.RoleData)",
        "numberOfBytes": "32",
        "value": "t_struct(RoleData)173_storage"
      },
      "t_mapping(t_uint256,t_mapping(t_address,t_uint256))": {
        "encoding": "mapping",
        "key": "t_uint256",
        "label": "mapping(uint256 => mapping(address => uint256))",
        "numberOfBytes": "32",
        "value": "t_mapping(t_address,t_uint256)"
      },
      "t_mapping(t_uint256,t_uint256)": {
        "encoding": "mapping",
        "key": "t_uint256",
        "label": "mapping(uint256 => uint256)",
        "numberOfBytes": "32",
        "value": "t_uint256"
      },
      "t_struct(RoleData)173_storage": {
        "encoding": "inplace",
        "label": "struct AccessControl.RoleData",
        "members": [
          {
            "astId": 170,
            "contract": "contracts/Lottery.sol:Lottery",
            "label": "members",
            "offset": 0,
            "slot": "0",
            "type": "t_mapping(t_address,t_bool)"
          },
          {
            "astId": 172,
            "contract": "contracts/Lottery.sol:Lottery",
            "label": "adminRole",
            "offset": 0,
            "slot": "1",
            "type": "t_bytes32"
          }
        ],
        "numberOfBytes": "64"
      },
      "t_struct(Round)12984_storage": {
        "encoding": "inplace",
        "label": "struct ILottery.Round",
        "members": [
          {
            "astId": 12948,
            "contract": "contracts/Lottery.sol:Lottery",
            "label": "id",
            "offset": 0,
            "slot": "0",
            "type": "t_uint256"
          },
          {
            "astId": 12950,
            "contract": "contracts/Lottery.sol:Lottery",
            "label": "startTime",
            "offset": 0,
            "slot": "1",
            "type": "t_uint256"
          },
          {
            "astId": 12952,
            "contract": "contracts/Lottery.sol:Lottery",
            "label": "duration",
            "offset": 0,
            "slot": "2",
            "type": "t_uint256"
          },
          {
            "astId": 12954,
            "contract": "contracts/Lottery.sol:Lottery",
            "label": "isClosed",
            "offset": 0,
            "slot": "3",
            "type": "t_bool"
          },
          {
            "astId": 12956,
            "contract": "contracts/Lottery.sol:Lottery",
            "label": "isOracleFulfilled",
            "offset": 1,
            "slot": "3",
            "type": "t_bool"
          },
          {
            "astId": 12958,
            "contract": "contracts/Lottery.sol:Lottery",
            "label": "isFinished",
            "offset": 2,
            "slot": "3",
            "type": "t_bool"
          },
          {
            "astId": 12960,
            "contract": "contracts/Lottery.sol:Lottery",
            "label": "initialPrize",
            "offset": 0,
            "slot": "4",
            "type": "t_uint256"
          },
          {
            "astId": 12962,
            "contract": "contracts/Lottery.sol:Lottery",
            "label": "totalPrize",
            "offset": 0,
            "slot": "5",
            "type": "t_uint256"
          },
          {
            "astId": 12964,
            "contract": "contracts/Lottery.sol:Lottery",
            "label": "maxTicketsFromOneMember",
            "offset": 0,
            "slot": "6",
            "type": "t_uint256"
          },
          {
            "astId": 12966,
            "contract": "contracts/Lottery.sol:Lottery",
            "label": "tokensForOneTicket",
            "offset": 0,
            "slot": "7",
            "type": "t_uint256"
          },
          {
            "astId": 12969,
            "contract": "contracts/Lottery.sol:Lottery",
            "label": "winnersForLevel",
            "offset": 0,
            "slot": "8",
            "type": "t_array(t_uint256)dyn_storage"
          },
          {
            "astId": 12972,
            "contract": "contracts/Lottery.sol:Lottery",
            "label": "prizeForLevel",
            "offset": 0,
            "slot": "9",
            "type": "t_array(t_uint256)dyn_storage"
          },
          {
            "astId": 12974,
            "contract": "contracts/Lottery.sol:Lottery",
            "label": "totalTickets",
            "offset": 0,
            "slot": "10",
            "type": "t_uint256"
          },
          {
            "astId": 12977,
            "contract": "contracts/Lottery.sol:Lottery",
            "label": "members",
            "offset": 0,
            "slot": "11",
            "type": "t_array(t_address)dyn_storage"
          },
          {
            "astId": 12979,
            "contract": "contracts/Lottery.sol:Lottery",
            "label": "randomWord",
            "offset": 0,
            "slot": "12",
            "type": "t_uint256"
          },
          {
            "astId": 12983,
            "contract": "contracts/Lottery.sol:Lottery",
            "label": "winners",
            "offset": 0,
            "slot": "13",
            "type": "t_array(t_array(t_address)dyn_storage)dyn_storage"
          }
        ],
        "numberOfBytes": "448"
      },
      "t_uint16": {
        "encoding": "inplace",
        "label": "uint16",
        "numberOfBytes": "2"
      },
      "t_uint256": {
        "encoding": "inplace",
        "label": "uint256",
        "numberOfBytes": "32"
      },
      "t_uint32": {
        "encoding": "inplace",
        "label": "uint32",
        "numberOfBytes": "4"
      },
      "t_uint64": {
        "encoding": "inplace",
        "label": "uint64",
        "numberOfBytes": "8"
      }
    }
  }
}