{
  "address": "0xad23B42c65D63d963cf2F76DC7Ab74FF0A7b68b5",
  "abi": [
    {
      "inputs": [
        {
          "internalType": "uint256",
          "name": "ticketPrice",
          "type": "uint256"
        },
        {
          "internalType": "uint256",
          "name": "ticketId",
          "type": "uint256"
        },
        {
          "internalType": "uint256",
          "name": "daysStreakForTicket",
          "type": "uint256"
        },
        {
          "internalType": "address",
          "name": "ticketTokenAddress",
          "type": "address"
        },
        {
          "internalType": "address",
          "name": "paymentTokenAddress",
          "type": "address"
        },
        {
          "internalType": "address",
          "name": "rewardTokenAddress",
          "type": "address"
        },
        {
          "internalType": "address",
          "name": "rewardPoolAddress",
          "type": "address"
        },
        {
          "internalType": "address",
          "name": "coordinator",
          "type": "address"
        },
        {
          "internalType": "uint64",
          "name": "subscriptionId",
          "type": "uint64"
        },
        {
          "internalType": "bytes32",
          "name": "keyHash",
          "type": "bytes32"
        }
      ],
      "stateMutability": "nonpayable",
      "type": "constructor"
    },
    {
      "inputs": [
        {
          "internalType": "address",
          "name": "have",
          "type": "address"
        },
        {
          "internalType": "address",
          "name": "want",
          "type": "address"
        }
      ],
      "name": "OnlyCoordinatorCanFulfill",
      "type": "error"
    },
    {
      "anonymous": false,
      "inputs": [
        {
          "indexed": true,
          "internalType": "uint256",
          "name": "roundId",
          "type": "uint256"
        }
      ],
      "name": "NewRoundCreated",
      "type": "event"
    },
    {
      "anonymous": false,
      "inputs": [
        {
          "indexed": true,
          "internalType": "uint256",
          "name": "roundId",
          "type": "uint256"
        },
        {
          "indexed": true,
          "internalType": "uint256",
          "name": "requestId",
          "type": "uint256"
        },
        {
          "indexed": false,
          "internalType": "uint256",
          "name": "randomWord",
          "type": "uint256"
        }
      ],
      "name": "OracleRequestFulfilled",
      "type": "event"
    },
    {
      "anonymous": false,
      "inputs": [
        {
          "indexed": true,
          "internalType": "uint256",
          "name": "roundId",
          "type": "uint256"
        },
        {
          "indexed": true,
          "internalType": "uint256",
          "name": "requestId",
          "type": "uint256"
        }
      ],
      "name": "OracleRequestSent",
      "type": "event"
    },
    {
      "anonymous": false,
      "inputs": [
        {
          "indexed": true,
          "internalType": "bytes32",
          "name": "role",
          "type": "bytes32"
        },
        {
          "indexed": true,
          "internalType": "bytes32",
          "name": "previousAdminRole",
          "type": "bytes32"
        },
        {
          "indexed": true,
          "internalType": "bytes32",
          "name": "newAdminRole",
          "type": "bytes32"
        }
      ],
      "name": "RoleAdminChanged",
      "type": "event"
    },
    {
      "anonymous": false,
      "inputs": [
        {
          "indexed": true,
          "internalType": "bytes32",
          "name": "role",
          "type": "bytes32"
        },
        {
          "indexed": true,
          "internalType": "address",
          "name": "account",
          "type": "address"
        },
        {
          "indexed": true,
          "internalType": "address",
          "name": "sender",
          "type": "address"
        }
      ],
      "name": "RoleGranted",
      "type": "event"
    },
    {
      "anonymous": false,
      "inputs": [
        {
          "indexed": true,
          "internalType": "bytes32",
          "name": "role",
          "type": "bytes32"
        },
        {
          "indexed": true,
          "internalType": "address",
          "name": "account",
          "type": "address"
        },
        {
          "indexed": true,
          "internalType": "address",
          "name": "sender",
          "type": "address"
        }
      ],
      "name": "RoleRevoked",
      "type": "event"
    },
    {
      "anonymous": false,
      "inputs": [
        {
          "indexed": true,
          "internalType": "uint256",
          "name": "roundId",
          "type": "uint256"
        }
      ],
      "name": "RoundFinished",
      "type": "event"
    },
    {
      "anonymous": false,
      "inputs": [
        {
          "indexed": true,
          "internalType": "address",
          "name": "member",
          "type": "address"
        },
        {
          "indexed": false,
          "internalType": "uint256",
          "name": "amount",
          "type": "uint256"
        }
      ],
      "name": "TicketsCollected",
      "type": "event"
    },
    {
      "inputs": [],
      "name": "CLAIM_PERIOD",
      "outputs": [
        {
          "internalType": "uint256",
          "name": "",
          "type": "uint256"
        }
      ],
      "stateMutability": "view",
      "type": "function"
    },
    {
      "inputs": [],
      "name": "DAYS_STREAK_FOR_TICKET",
      "outputs": [
        {
          "internalType": "uint256",
          "name": "",
          "type": "uint256"
        }
      ],
      "stateMutability": "view",
      "type": "function"
    },
    {
      "inputs": [],
      "name": "DEFAULT_ADMIN_ROLE",
      "outputs": [
        {
          "internalType": "bytes32",
          "name": "",
          "type": "bytes32"
        }
      ],
      "stateMutability": "view",
      "type": "function"
    },
    {
      "inputs": [],
      "name": "OPERATOR_ROLE",
      "outputs": [
        {
          "internalType": "bytes32",
          "name": "",
          "type": "bytes32"
        }
      ],
      "stateMutability": "view",
      "type": "function"
    },
    {
      "inputs": [],
      "name": "TICKET_ID",
      "outputs": [
        {
          "internalType": "uint256",
          "name": "",
          "type": "uint256"
        }
      ],
      "stateMutability": "view",
      "type": "function"
    },
    {
      "inputs": [],
      "name": "TICKET_PRICE",
      "outputs": [
        {
          "internalType": "uint256",
          "name": "",
          "type": "uint256"
        }
      ],
      "stateMutability": "view",
      "type": "function"
    },
    {
      "inputs": [
        {
          "internalType": "uint256",
          "name": "amount",
          "type": "uint256"
        }
      ],
      "name": "buyTickets",
      "outputs": [],
      "stateMutability": "nonpayable",
      "type": "function"
    },
    {
      "inputs": [],
      "name": "claimDay",
      "outputs": [],
      "stateMutability": "nonpayable",
      "type": "function"
    },
    {
      "inputs": [
        {
          "internalType": "uint256",
          "name": "startTime",
          "type": "uint256"
        },
        {
          "internalType": "uint256",
          "name": "duration",
          "type": "uint256"
        },
        {
          "internalType": "uint256",
          "name": "initialPrize",
          "type": "uint256"
        },
        {
          "internalType": "uint256",
          "name": "tokensForOneTicket",
          "type": "uint256"
        },
        {
          "internalType": "uint256",
          "name": "maxTicketsFromOneMember",
          "type": "uint256"
        },
        {
          "internalType": "uint256[]",
          "name": "winnersForLevel",
          "type": "uint256[]"
        },
        {
          "internalType": "uint256[]",
          "name": "prizeForLevel",
          "type": "uint256[]"
        }
      ],
      "name": "createLotteryRound",
      "outputs": [],
      "stateMutability": "nonpayable",
      "type": "function"
    },
    {
      "inputs": [
        {
          "internalType": "uint256",
          "name": "roundId",
          "type": "uint256"
        },
        {
          "internalType": "uint256",
          "name": "tickets",
          "type": "uint256"
        }
      ],
      "name": "entryLottery",
      "outputs": [],
      "stateMutability": "nonpayable",
      "type": "function"
    },
    {
      "inputs": [
        {
          "internalType": "uint256",
          "name": "roundId",
          "type": "uint256"
        },
        {
          "internalType": "address[][]",
          "name": "pk",
          "type": "address[][]"
        }
      ],
      "name": "finishLotteryRound",
      "outputs": [],
      "stateMutability": "nonpayable",
      "type": "function"
    },
    {
      "inputs": [],
      "name": "getActiveRounds",
      "outputs": [
        {
          "components": [
            {
              "internalType": "uint256",
              "name": "startTime",
              "type": "uint256"
            },
            {
              "internalType": "uint256",
              "name": "duration",
              "type": "uint256"
            },
            {
              "internalType": "bool",
              "name": "isClosed",
              "type": "bool"
            },
            {
              "internalType": "bool",
              "name": "isOracleFulfilled",
              "type": "bool"
            },
            {
              "internalType": "bool",
              "name": "isFinished",
              "type": "bool"
            },
            {
              "internalType": "uint256",
              "name": "initialPrize",
              "type": "uint256"
            },
            {
              "internalType": "uint256",
              "name": "totalPrize",
              "type": "uint256"
            },
            {
              "internalType": "uint256",
              "name": "maxTicketsFromOneMember",
              "type": "uint256"
            },
            {
              "internalType": "uint256",
              "name": "tokensForOneTicket",
              "type": "uint256"
            },
            {
              "internalType": "uint256[]",
              "name": "winnersForLevel",
              "type": "uint256[]"
            },
            {
              "internalType": "uint256[]",
              "name": "prizeForLevel",
              "type": "uint256[]"
            },
            {
              "internalType": "uint256",
              "name": "totalTickets",
              "type": "uint256"
            },
            {
              "internalType": "address[]",
              "name": "members",
              "type": "address[]"
            },
            {
              "internalType": "uint256",
              "name": "randomWord",
              "type": "uint256"
            },
            {
              "internalType": "address[][]",
              "name": "winners",
              "type": "address[][]"
            }
          ],
          "internalType": "struct Lottery.Round[]",
          "name": "",
          "type": "tuple[]"
        }
      ],
      "stateMutability": "view",
      "type": "function"
    },
    {
      "inputs": [
        {
          "internalType": "address",
          "name": "user",
          "type": "address"
        }
      ],
      "name": "getClaimStreak",
      "outputs": [
        {
          "internalType": "uint256",
          "name": "",
          "type": "uint256"
        }
      ],
      "stateMutability": "view",
      "type": "function"
    },
    {
      "inputs": [
        {
          "internalType": "uint256",
          "name": "length",
          "type": "uint256"
        },
        {
          "internalType": "uint256",
          "name": "offset",
          "type": "uint256"
        }
      ],
      "name": "getLastFinishedRounds",
      "outputs": [
        {
          "components": [
            {
              "internalType": "uint256",
              "name": "startTime",
              "type": "uint256"
            },
            {
              "internalType": "uint256",
              "name": "duration",
              "type": "uint256"
            },
            {
              "internalType": "bool",
              "name": "isClosed",
              "type": "bool"
            },
            {
              "internalType": "bool",
              "name": "isOracleFulfilled",
              "type": "bool"
            },
            {
              "internalType": "bool",
              "name": "isFinished",
              "type": "bool"
            },
            {
              "internalType": "uint256",
              "name": "initialPrize",
              "type": "uint256"
            },
            {
              "internalType": "uint256",
              "name": "totalPrize",
              "type": "uint256"
            },
            {
              "internalType": "uint256",
              "name": "maxTicketsFromOneMember",
              "type": "uint256"
            },
            {
              "internalType": "uint256",
              "name": "tokensForOneTicket",
              "type": "uint256"
            },
            {
              "internalType": "uint256[]",
              "name": "winnersForLevel",
              "type": "uint256[]"
            },
            {
              "internalType": "uint256[]",
              "name": "prizeForLevel",
              "type": "uint256[]"
            },
            {
              "internalType": "uint256",
              "name": "totalTickets",
              "type": "uint256"
            },
            {
              "internalType": "address[]",
              "name": "members",
              "type": "address[]"
            },
            {
              "internalType": "uint256",
              "name": "randomWord",
              "type": "uint256"
            },
            {
              "internalType": "address[][]",
              "name": "winners",
              "type": "address[][]"
            }
          ],
          "internalType": "struct Lottery.Round[]",
          "name": "",
          "type": "tuple[]"
        }
      ],
      "stateMutability": "view",
      "type": "function"
    },
    {
      "inputs": [
        {
          "internalType": "bytes32",
          "name": "role",
          "type": "bytes32"
        }
      ],
      "name": "getRoleAdmin",
      "outputs": [
        {
          "internalType": "bytes32",
          "name": "",
          "type": "bytes32"
        }
      ],
      "stateMutability": "view",
      "type": "function"
    },
    {
      "inputs": [
        {
          "internalType": "uint256",
          "name": "id",
          "type": "uint256"
        }
      ],
      "name": "getRound",
      "outputs": [
        {
          "components": [
            {
              "internalType": "uint256",
              "name": "startTime",
              "type": "uint256"
            },
            {
              "internalType": "uint256",
              "name": "duration",
              "type": "uint256"
            },
            {
              "internalType": "bool",
              "name": "isClosed",
              "type": "bool"
            },
            {
              "internalType": "bool",
              "name": "isOracleFulfilled",
              "type": "bool"
            },
            {
              "internalType": "bool",
              "name": "isFinished",
              "type": "bool"
            },
            {
              "internalType": "uint256",
              "name": "initialPrize",
              "type": "uint256"
            },
            {
              "internalType": "uint256",
              "name": "totalPrize",
              "type": "uint256"
            },
            {
              "internalType": "uint256",
              "name": "maxTicketsFromOneMember",
              "type": "uint256"
            },
            {
              "internalType": "uint256",
              "name": "tokensForOneTicket",
              "type": "uint256"
            },
            {
              "internalType": "uint256[]",
              "name": "winnersForLevel",
              "type": "uint256[]"
            },
            {
              "internalType": "uint256[]",
              "name": "prizeForLevel",
              "type": "uint256[]"
            },
            {
              "internalType": "uint256",
              "name": "totalTickets",
              "type": "uint256"
            },
            {
              "internalType": "address[]",
              "name": "members",
              "type": "address[]"
            },
            {
              "internalType": "uint256",
              "name": "randomWord",
              "type": "uint256"
            },
            {
              "internalType": "address[][]",
              "name": "winners",
              "type": "address[][]"
            }
          ],
          "internalType": "struct Lottery.Round",
          "name": "",
          "type": "tuple"
        }
      ],
      "stateMutability": "view",
      "type": "function"
    },
    {
      "inputs": [
        {
          "internalType": "bytes32",
          "name": "role",
          "type": "bytes32"
        },
        {
          "internalType": "address",
          "name": "account",
          "type": "address"
        }
      ],
      "name": "grantRole",
      "outputs": [],
      "stateMutability": "nonpayable",
      "type": "function"
    },
    {
      "inputs": [
        {
          "internalType": "bytes32",
          "name": "role",
          "type": "bytes32"
        },
        {
          "internalType": "address",
          "name": "account",
          "type": "address"
        }
      ],
      "name": "hasRole",
      "outputs": [
        {
          "internalType": "bool",
          "name": "",
          "type": "bool"
        }
      ],
      "stateMutability": "view",
      "type": "function"
    },
    {
      "inputs": [
        {
          "internalType": "address",
          "name": "user",
          "type": "address"
        }
      ],
      "name": "isClaimedToday",
      "outputs": [
        {
          "internalType": "bool",
          "name": "",
          "type": "bool"
        }
      ],
      "stateMutability": "view",
      "type": "function"
    },
    {
      "inputs": [
        {
          "internalType": "uint256",
          "name": "roundId",
          "type": "uint256"
        }
      ],
      "name": "manuallyGetWinners",
      "outputs": [],
      "stateMutability": "nonpayable",
      "type": "function"
    },
    {
      "inputs": [
        {
          "internalType": "uint256",
          "name": "",
          "type": "uint256"
        }
      ],
      "name": "oracleRequests",
      "outputs": [
        {
          "internalType": "uint256",
          "name": "",
          "type": "uint256"
        }
      ],
      "stateMutability": "view",
      "type": "function"
    },
    {
      "inputs": [
        {
          "internalType": "uint256",
          "name": "requestId",
          "type": "uint256"
        },
        {
          "internalType": "uint256[]",
          "name": "randomWords",
          "type": "uint256[]"
        }
      ],
      "name": "rawFulfillRandomWords",
      "outputs": [],
      "stateMutability": "nonpayable",
      "type": "function"
    },
    {
      "inputs": [
        {
          "internalType": "bytes32",
          "name": "role",
          "type": "bytes32"
        },
        {
          "internalType": "address",
          "name": "account",
          "type": "address"
        }
      ],
      "name": "renounceRole",
      "outputs": [],
      "stateMutability": "nonpayable",
      "type": "function"
    },
    {
      "inputs": [
        {
          "internalType": "bytes32",
          "name": "role",
          "type": "bytes32"
        },
        {
          "internalType": "address",
          "name": "account",
          "type": "address"
        }
      ],
      "name": "revokeRole",
      "outputs": [],
      "stateMutability": "nonpayable",
      "type": "function"
    },
    {
      "inputs": [
        {
          "internalType": "uint256",
          "name": "",
          "type": "uint256"
        }
      ],
      "name": "rounds",
      "outputs": [
        {
          "internalType": "uint256",
          "name": "startTime",
          "type": "uint256"
        },
        {
          "internalType": "uint256",
          "name": "duration",
          "type": "uint256"
        },
        {
          "internalType": "bool",
          "name": "isClosed",
          "type": "bool"
        },
        {
          "internalType": "bool",
          "name": "isOracleFulfilled",
          "type": "bool"
        },
        {
          "internalType": "bool",
          "name": "isFinished",
          "type": "bool"
        },
        {
          "internalType": "uint256",
          "name": "initialPrize",
          "type": "uint256"
        },
        {
          "internalType": "uint256",
          "name": "totalPrize",
          "type": "uint256"
        },
        {
          "internalType": "uint256",
          "name": "maxTicketsFromOneMember",
          "type": "uint256"
        },
        {
          "internalType": "uint256",
          "name": "tokensForOneTicket",
          "type": "uint256"
        },
        {
          "internalType": "uint256",
          "name": "totalTickets",
          "type": "uint256"
        },
        {
          "internalType": "uint256",
          "name": "randomWord",
          "type": "uint256"
        }
      ],
      "stateMutability": "view",
      "type": "function"
    },
    {
      "inputs": [
        {
          "internalType": "bytes4",
          "name": "interfaceId",
          "type": "bytes4"
        }
      ],
      "name": "supportsInterface",
      "outputs": [
        {
          "internalType": "bool",
          "name": "",
          "type": "bool"
        }
      ],
      "stateMutability": "view",
      "type": "function"
    },
    {
      "inputs": [
        {
          "internalType": "uint32",
          "name": "gasLimit",
          "type": "uint32"
        }
      ],
      "name": "updateCallbackGasLimit",
      "outputs": [],
      "stateMutability": "nonpayable",
      "type": "function"
    },
    {
      "inputs": [
        {
          "internalType": "uint256",
          "name": "sec",
          "type": "uint256"
        }
      ],
      "name": "updateClaimPeriod",
      "outputs": [],
      "stateMutability": "nonpayable",
      "type": "function"
    },
    {
      "inputs": [
        {
          "internalType": "uint256",
          "name": "daysNum",
          "type": "uint256"
        }
      ],
      "name": "updateDaysStreakForTicket",
      "outputs": [],
      "stateMutability": "nonpayable",
      "type": "function"
    },
    {
      "inputs": [
        {
          "internalType": "bytes32",
          "name": "kayHash",
          "type": "bytes32"
        }
      ],
      "name": "updateKeyHash",
      "outputs": [],
      "stateMutability": "nonpayable",
      "type": "function"
    },
    {
      "inputs": [
        {
          "internalType": "address",
          "name": "token",
          "type": "address"
        }
      ],
      "name": "updatePaymentToken",
      "outputs": [],
      "stateMutability": "nonpayable",
      "type": "function"
    },
    {
      "inputs": [
        {
          "internalType": "uint16",
          "name": "confirmations",
          "type": "uint16"
        }
      ],
      "name": "updateRequestConfirmations",
      "outputs": [],
      "stateMutability": "nonpayable",
      "type": "function"
    },
    {
      "inputs": [
        {
          "internalType": "address",
          "name": "pool",
          "type": "address"
        }
      ],
      "name": "updateRewardPool",
      "outputs": [],
      "stateMutability": "nonpayable",
      "type": "function"
    },
    {
      "inputs": [
        {
          "internalType": "address",
          "name": "token",
          "type": "address"
        }
      ],
      "name": "updateRewardToken",
      "outputs": [],
      "stateMutability": "nonpayable",
      "type": "function"
    },
    {
      "inputs": [
        {
          "internalType": "uint64",
          "name": "id",
          "type": "uint64"
        }
      ],
      "name": "updateSubscriptionId",
      "outputs": [],
      "stateMutability": "nonpayable",
      "type": "function"
    },
    {
      "inputs": [
        {
          "internalType": "uint256",
          "name": "id",
          "type": "uint256"
        }
      ],
      "name": "updateTicketId",
      "outputs": [],
      "stateMutability": "nonpayable",
      "type": "function"
    },
    {
      "inputs": [
        {
          "internalType": "uint256",
          "name": "price",
          "type": "uint256"
        }
      ],
      "name": "updateTicketPrice",
      "outputs": [],
      "stateMutability": "nonpayable",
      "type": "function"
    },
    {
      "inputs": [
        {
          "internalType": "address",
          "name": "token",
          "type": "address"
        }
      ],
      "name": "updateTicketToken",
      "outputs": [],
      "stateMutability": "nonpayable",
      "type": "function"
    },
    {
      "inputs": [
        {
          "internalType": "bool",
          "name": "isEnabled",
          "type": "bool"
        }
      ],
      "name": "updateWinnerCalculationInRequest",
      "outputs": [],
      "stateMutability": "nonpayable",
      "type": "function"
    }
  ],
  "transactionHash": "0xa59f8b898c5ff612698e167301fd1ebdfe8ec9b2a4c358be103e67a4b4af22e7",
  "args": [
    "10000000000000000000",
    0,
    5,
    "0x6C9390091A92e09e08F612aEcF4E2BA697D69CEF",
    "0xb971Bbda8043267e8047372A29A5bfA8B78A2D04",
    "0xbaD18847048E47f58f90B049A3C2b5A308Fb0E66",
    "0xf982D706f37Cb781D567395877EC35eDCB7Cf65C",
    "0x7a1BaC17Ccc5b313516C5E16fb24f7659aA5ebed",
    "580",
    "0x4b09e658ed251bcafeebbc69400383d49f344ace09b9576fe248bb02c003fe9f"
  ],
  "numDeployments": 1,
  "solcInputHash": "d1452b684b5fddde6bbc37eecde1e421",
  "bytecode": "0x60a0604052620151806007556010805466ffffffffffffff19166403000186a01790553480156200002f57600080fd5b5060405162003fa938038062003fa98339810160408190526200005291620001e8565b6001600160a01b03838116608081905260048c905560058b905560068a9055600880546001600160a01b03199081168b8516179091556009805482168a8516179055600a80548216898516179055600b8054821693881693909317909255600c8054909216179055600e80546001600160401b0319166001600160401b038416179055600f819055620000ee6000620000e83390565b6200012a565b6200011a7f97667070c54ef182b0f5858b034beac1b6f3089aa2d3188bb1e8929f4fa9b929336200012a565b50505050505050505050620002a3565b6000828152602081815260408083206001600160a01b038516845290915290205460ff16620001c7576000828152602081815260408083206001600160a01b03851684529091529020805460ff19166001179055620001863390565b6001600160a01b0316816001600160a01b0316837f2f8788117e7eff1d82e926ec794901d17c78024a50270940304540a733656f0d60405160405180910390a45b5050565b80516001600160a01b0381168114620001e357600080fd5b919050565b6000806000806000806000806000806101408b8d0312156200020957600080fd5b8a51995060208b0151985060408b015197506200022960608c01620001cb565b96506200023960808c01620001cb565b95506200024960a08c01620001cb565b94506200025960c08c01620001cb565b93506200026960e08c01620001cb565b6101008c01519093506001600160401b03811681146200028857600080fd5b809250506101208b015190509295989b9194979a5092959850565b608051613ce3620002c660003960008181610be80152610c2a0152613ce36000f3fe608060405234801561001057600080fd5b506004361061023d5760003560e01c80637d984d5f1161013b578063b0e8d086116100b8578063e44ddc221161007c578063e44ddc2214610542578063e7fa67e51461054b578063f02137c81461055e578063f5b541a614610571578063f8cf31cb1461058657600080fd5b8063b0e8d086146104e3578063ba00f6c5146104f6578063d547741f14610509578063d5fbac3a1461051c578063dcd2f2e01461052f57600080fd5b806391d14854116100ff57806391d148541461048f5780639d517942146104a2578063a1d3f4af146104b5578063a217fddf146104c8578063a3fe5169146104d057600080fd5b80637d984d5f146103e05780637f774d02146103e85780638c65c81f146103f05780638f1327c01461045c578063905d46361461047c57600080fd5b80632f2ff15d116101c95780634a12512e1161018d5780634a12512e146103745780634ccf1b3414610387578063592eef111461039a5780635f5369e6146103ad57806372d4c622146103cd57600080fd5b80632f2ff15d1461031f5780632f366637146103325780632faaaae81461034557806336568abe1461034e578063449050bc1461036157600080fd5b806314b1dd1b1161021057806314b1dd1b146102b65780631a95f15f146102c95780631fe543e3146102e057806321241dfe146102f3578063248a9ca3146102fc57600080fd5b806301b327cf1461024257806301ffc9a71461026b578063110cace81461028e578063148bea63146102a3575b600080fd5b610255610250366004613425565b610599565b604051610262919061361a565b60405180910390f35b61027e61027936600461367c565b6109db565b6040519015158152602001610262565b6102a161029c36600461372b565b610a10565b005b6102a16102b1366004613849565b610b9d565b6102a16102c4366004613862565b610bae565b6102d260045481565b604051908152602001610262565b6102a16102ee3660046138f1565b610bdd565b6102d260075481565b6102d261030a366004613849565b60009081526020819052604090206001015490565b6102a161032d366004613937565b610c65565b6102a1610340366004613849565b610c8f565b6102d260065481565b6102a161035c366004613937565b610d74565b6102a161036f366004613849565b610dee565b6102a1610382366004613963565b610e0f565b6102a16103953660046139f6565b6113ca565b6102d26103a83660046139f6565b6113f8565b6102d26103bb366004613849565b600d6020526000908152604090205481565b6102a16103db366004613425565b611531565b610255611819565b6102a1611c4d565b6104036103fe366004613849565b611ddd565b604080519b8c5260208c019a909a52971515988a01989098529415156060890152921515608088015260a087019190915260c086015260e085015261010084015261012083019190915261014082015261016001610262565b61046f61046a366004613849565b611e4b565b6040516102629190613a11565b6102a161048a3660046139f6565b6120b5565b61027e61049d366004613937565b6120e3565b6102a16104b0366004613849565b61210c565b6102a16104c3366004613849565b61211d565b6102d2600081565b61027e6104de3660046139f6565b61212e565b6102a16104f1366004613a24565b6121fd565b6102a1610504366004613a4a565b612225565b6102a1610517366004613937565b612255565b6102a161052a3660046139f6565b61227a565b6102a161053d366004613a7c565b6122a8565b6102d260055481565b6102a1610559366004613849565b6122d8565b6102a161056c366004613849565b6122e9565b6102d2600080516020613c8e83398151915281565b6102a16105943660046139f6565b6122fa565b60606000836001600160401b038111156105b5576105b56136a6565b6040519080825280602002602001820160405280156105ee57816020015b6105db613260565b8152602001906001900390816105d35790505b50600154909150849084905b80156108fa57600161060c8183613aaf565b8154811061061c5761061c613ac6565b90600052602060002090600d020160020160029054906101000a900460ff16156108e857811561065857610651600183613aaf565b91506108e8565b610663600184613aaf565b925060016106718183613aaf565b8154811061068157610681613ac6565b6000918252602091829020604080516101e081018252600d90930290910180548352600181015483850152600281015460ff808216151585850152610100808304821615156060870152620100009092041615156080850152600382015460a0850152600482015460c0850152600582015460e0850152600682015490840152600781018054835181870281018701909452808452939491936101208601939283018282801561075057602002820191906000526020600020905b81548152602001906001019080831161073c575b50505050508152602001600882018054806020026020016040519081016040528092919081815260200182805480156107a857602002820191906000526020600020905b815481526020019060010190808311610794575b5050505050815260200160098201548152602001600a820180548060200260200160405190810160405280929190818152602001828054801561081457602002820191906000526020600020905b81546001600160a01b031681526001909101906020018083116107f6575b50505050508152602001600b8201548152602001600c8201805480602002602001604051908101604052809291908181526020016000905b828210156108c2576000848152602090819020830180546040805182850281018501909152818152928301828280156108ae57602002820191906000526020600020905b81546001600160a01b03168152600190910190602001808311610890575b50505050508152602001906001019061084c565b50505050815250508484815181106108dc576108dc613ac6565b60200260200101819052505b806108f281613adc565b9150506105fa565b508161090b578293505050506109d5565b60006109178388613aaf565b90506000816001600160401b03811115610933576109336136a6565b60405190808252806020026020018201604052801561096c57816020015b610959613260565b8152602001906001900390816109515790505b50905060005b828110156109cd57856109858683613af3565b8151811061099557610995613ac6565b60200260200101518282815181106109af576109af613ac6565b602002602001018190525080806109c590613b0b565b915050610972565b509450505050505b92915050565b60006001600160e01b03198216637965db0b60e01b14806109d557506301ffc9a760e01b6001600160e01b03198316146109d5565b600080516020613c8e833981519152610a2881612328565b6001548310610a765760405162461bcd60e51b8152602060048201526015602482015274125b9cdd59999a58da595b9d081c9bdd5b99081a59605a1b60448201526064015b60405180910390fd5b600060018481548110610a8b57610a8b613ac6565b90600052602060002090600d020190504281600101548260000154610ab09190613af3565b10610afd5760405162461bcd60e51b815260206004820152601960248201527f526f756e64206973206e6f742066696e697368656420796574000000000000006044820152606401610a6d565b600281015460ff1615610b4c5760405162461bcd60e51b8152602060048201526017602482015276149bdd5b99081a5cc8185b1c9958591e4818db1bdcd959604a1b6044820152606401610a6d565b610b5584612332565b5060028101805460ff1916600117905560068101546009820154610b799190613b26565b8160030154610b889190613af3565b6004820155610b97848461243d565b50505050565b6000610ba881612328565b50600655565b6000610bb981612328565b50600e805467ffffffffffffffff19166001600160401b0392909216919091179055565b336001600160a01b037f00000000000000000000000000000000000000000000000000000000000000001614610c575760405163073e64fd60e21b81523360048201526001600160a01b037f0000000000000000000000000000000000000000000000000000000000000000166024820152604401610a6d565b610c618282612634565b5050565b600082815260208190526040902060010154610c8081612328565b610c8a838361277e565b505050565b60008111610cdf5760405162461bcd60e51b815260206004820152601f60248201527f416d6f756e742073686f756c642062652067726561746572207468616e2030006044820152606401610a6d565b600060045482610cef9190613b26565b6009549091506001600160a01b03166379cc6790336040516001600160e01b031960e084901b1681526001600160a01b03909116600482015260248101849052604401600060405180830381600087803b158015610d4c57600080fd5b505af1158015610d60573d6000803e3d6000fd5b50505050610c61610d6e3390565b83612802565b6001600160a01b0381163314610de45760405162461bcd60e51b815260206004820152602f60248201527f416363657373436f6e74726f6c3a2063616e206f6e6c792072656e6f756e636560448201526e103937b632b9903337b91039b2b63360891b6064820152608401610a6d565b610c6182826128cd565b600080516020613c8e833981519152610e0681612328565b610c6182612932565b600080516020613c8e833981519152610e2781612328565b6000861180610e365750600085115b610e685760405162461bcd60e51b815260206004820152600360248201526245433160e81b6044820152606401610a6d565b8151835114610e9f5760405162461bcd60e51b815260206004820152600360248201526222a19960e91b6044820152606401610a6d565b6000835111610ed65760405162461bcd60e51b815260206004820152600360248201526245433360e81b6044820152606401610a6d565b60008411610f0c5760405162461bcd60e51b81526020600482015260036024820152621150cd60ea1b6044820152606401610a6d565b42881015610f425760405162461bcd60e51b815260206004820152600360248201526245433560e81b6044820152606401610a6d565b60008711610f785760405162461bcd60e51b815260206004820152600360248201526222a19b60e91b6044820152606401610a6d565b82516000816001600160401b03811115610f9457610f946136a6565b604051908082528060200260200182016040528015610fc757816020015b6060815260200190600190039081610fb25790505b5090506000805b865181101561108957858181518110610fe957610fe9613ac6565b602002602001015182610ffc9190613af3565b915086818151811061101057611010613ac6565b60200260200101516001600160401b0381111561102f5761102f6136a6565b604051908082528060200260200182016040528015611058578160200160208202803683370190505b5083828151811061106b5761106b613ac6565b6020026020010181905250808061108190613b0b565b915050610fce565b50806064146110c05760405162461bcd60e51b815260206004820152600360248201526245433760e81b6044820152606401610a6d565b6000604051806101e001604052808d81526020018c81526020016000151581526020016000151581526020016000151581526020018b8152602001600081526020018981526020018a81526020018881526020018781526020016000815260200160006001600160401b0381111561113a5761113a6136a6565b604051908082528060200260200182016040528015611163578160200160208202803683370190505b5081526000602082018190526040918201869052600154915192935090917fffd54b413ad7953f600667abc68976fd55918f924f39fad7a55319a0217ad3b79190a260018054808201825560009190915281517fb10e2d527612073b26eecdfd717e6a320cf44b4afac2b0732d9fcbe2b7fa0cf6600d9092029182019081556020808401517fb10e2d527612073b26eecdfd717e6a320cf44b4afac2b0732d9fcbe2b7fa0cf784015560408401517fb10e2d527612073b26eecdfd717e6a320cf44b4afac2b0732d9fcbe2b7fa0cf8840180546060870151608088015161ffff1990921693151561ff0019169390931761010093151584021762ff00001916620100009115159190910217905560a08501517fb10e2d527612073b26eecdfd717e6a320cf44b4afac2b0732d9fcbe2b7fa0cf985015560c08501517fb10e2d527612073b26eecdfd717e6a320cf44b4afac2b0732d9fcbe2b7fa0cfa85015560e08501517fb10e2d527612073b26eecdfd717e6a320cf44b4afac2b0732d9fcbe2b7fa0cfb8501558401517fb10e2d527612073b26eecdfd717e6a320cf44b4afac2b0732d9fcbe2b7fa0cfc8401556101208401518051859461134c937fb10e2d527612073b26eecdfd717e6a320cf44b4afac2b0732d9fcbe2b7fa0cfd9091019201906132dc565b5061014082015180516113699160088401916020909101906132dc565b506101608201516009820155610180820151805161139191600a840191602090910190613327565b506101a0820151600b8201556101c082015180516113b991600c84019160209091019061337c565b505050505050505050505050505050565b60006113d581612328565b50600980546001600160a01b0319166001600160a01b0392909216919091179055565b6001600160a01b0381166000908152600360205260408120805461141f5750600092915050565b60006001905060006007548360008154811061143d5761143d613ac6565b90600052602060002001546114529190613b5b565b905060015b83548110156114ff5783818154811061147257611472613ac6565b90600052602060002001546000141561148a576114ff565b60006007548583815481106114a1576114a1613ac6565b90600052602060002001546114b69190613b5b565b90506114c3836001613af3565b8114156114df576114d5600185613af3565b93508092506114ec565b5060009695505050505050565b50806114f781613b0b565b915050611457565b5061150b816001613af3565b6007546115189042613b5b565b111561152957506000949350505050565b509392505050565b600154821061157a5760405162461bcd60e51b8152602060048201526015602482015274125b9cdd59999a58da595b9d081c9bdd5b99081a59605a1b6044820152606401610a6d565b600081116115c05760405162461bcd60e51b815260206004820152601360248201527205469636b65747320616d6f756e74206973203606c1b6044820152606401610a6d565b6000600183815481106115d5576115d5613ac6565b60009182526020808320868452600290915260408320600d909202019250816115fb3390565b6001600160a01b03166001600160a01b0316815260200190815260200160002054905042826000015411156116725760405162461bcd60e51b815260206004820152601860248201527f526f756e64206973206e6f7420737461727465642079657400000000000000006044820152606401610a6d565b60018201548254429161168491613af3565b116116cb5760405162461bcd60e51b8152602060048201526017602482015276149bdd5b99081a5cc8185b1c9958591e4818db1bdcd959604a1b6044820152606401610a6d565b60058201546116da8483613af3565b11156117285760405162461bcd60e51b815260206004820152601f60248201527f546f6f206d616e79207469636b65747320666f72206f6e65206d656d626572006044820152606401610a6d565b6008546001600160a01b031663f5298aca336005546040516001600160e01b031960e085901b1681526001600160a01b039092166004830152602482015260448101869052606401600060405180830381600087803b15801561178a57600080fd5b505af115801561179e573d6000803e3d6000fd5b5050505080600014156117d357600a82018054600181018255600091825260209091200180546001600160a01b031916331790555b6117dd8382613af3565b600085815260026020908152604080832033845290915281209190915560098301805485929061180e908490613af3565b909155505050505050565b60606000806001805490506001600160401b0381111561183b5761183b6136a6565b604051908082528060200260200182016040528015611864578160200160208202803683370190505b50905060005b60015481101561191357426001828154811061188857611888613ac6565b90600052602060002090600d020160010154600183815481106118ad576118ad613ac6565b90600052602060002090600d0201600001546118c99190613af3565b11156119015760018282815181106118e3576118e3613ac6565b911515602092830291909101909101526118fe600184613af3565b92505b8061190b81613b0b565b91505061186a565b506000826001600160401b0381111561192e5761192e6136a6565b60405190808252806020026020018201604052801561196757816020015b611954613260565b81526020019060019003908161194c5790505b506001549091505b80156115295782611981600183613aaf565b8151811061199157611991613ac6565b602002602001015115611c3b576119a9600185613aaf565b935060016119b78183613aaf565b815481106119c7576119c7613ac6565b6000918252602091829020604080516101e081018252600d90930290910180548352600181015483850152600281015460ff808216151585850152610100808304821615156060870152620100009092041615156080850152600382015460a0850152600482015460c0850152600582015460e08501526006820154908401526007810180548351818702810187019094528084529394919361012086019392830182828015611a9657602002820191906000526020600020905b815481526020019060010190808311611a82575b5050505050815260200160088201805480602002602001604051908101604052809291908181526020018280548015611aee57602002820191906000526020600020905b815481526020019060010190808311611ada575b5050505050815260200160098201548152602001600a8201805480602002602001604051908101604052809291908181526020018280548015611b5a57602002820191906000526020600020905b81546001600160a01b03168152600190910190602001808311611b3c575b50505050508152602001600b8201548152602001600c8201805480602002602001604051908101604052809291908181526020016000905b82821015611c0857600084815260209081902083018054604080518285028101850190915281815292830182828015611bf457602002820191906000526020600020905b81546001600160a01b03168152600190910190602001808311611bd6575b505050505081526020019060010190611b92565b5050505081525050828581518110611c2257611c22613ac6565b60200260200101819052508360001415611c3b57611529565b80611c4581613adc565b91505061196f565b611c563361212e565b15611c9b5760405162461bcd60e51b8152602060048201526015602482015274416c726561647920636c61696d656420746f64617960581b6044820152606401610a6d565b6000611ca6336113f8565b905060065481101580611cb7575080155b15611d26576006546001600160401b03811115611cd657611cd66136a6565b604051908082528060200260200182016040528015611cff578160200160208202803683370190505b503360009081526003602090815260409091208251611d2493919291909101906132dc565b505b60005b33600090815260036020526040902054811015611dbb57336000908152600360205260409020805482908110611d6157611d61613ac6565b906000526020600020015460001415611da957336000908152600360205260409020805442919083908110611d9857611d98613ac6565b600091825260209091200155611dbb565b80611db381613b0b565b915050611d29565b50600654611dca826001613af3565b10611dda57611dda336001612802565b50565b60018181548110611ded57600080fd5b60009182526020909120600d9091020180546001820154600283015460038401546004850154600586015460068701546009880154600b90980154969850949660ff808616976101008704821697620100009097049091169591908b565b611e53613260565b60018281548110611e6657611e66613ac6565b6000918252602091829020604080516101e081018252600d90930290910180548352600181015483850152600281015460ff808216151585850152610100808304821615156060870152620100009092041615156080850152600382015460a0850152600482015460c0850152600582015460e08501526006820154908401526007810180548351818702810187019094528084529394919361012086019392830182828015611f3557602002820191906000526020600020905b815481526020019060010190808311611f21575b5050505050815260200160088201805480602002602001604051908101604052809291908181526020018280548015611f8d57602002820191906000526020600020905b815481526020019060010190808311611f79575b5050505050815260200160098201548152602001600a8201805480602002602001604051908101604052809291908181526020018280548015611ff957602002820191906000526020600020905b81546001600160a01b03168152600190910190602001808311611fdb575b50505050508152602001600b8201548152602001600c8201805480602002602001604051908101604052809291908181526020016000905b828210156120a75760008481526020908190208301805460408051828502810185019091528181529283018282801561209357602002820191906000526020600020905b81546001600160a01b03168152600190910190602001808311612075575b505050505081526020019060010190612031565b505050915250909392505050565b60006120c081612328565b50600880546001600160a01b0319166001600160a01b0392909216919091179055565b6000918252602082815260408084206001600160a01b0393909316845291905290205460ff1690565b600061211781612328565b50600755565b600061212881612328565b50600555565b6001600160a01b038116600090815260036020526040812080546121555750600092915050565b6000600754426121659190613b5b565b82549091505b80156121f25760008361217f600184613aaf565b8154811061218f5761218f613ac6565b906000526020600020015411156121e0576007548290846121b1600185613aaf565b815481106121c1576121c1613ac6565b90600052602060002001546121d69190613b5b565b1495945050505050565b806121ea81613adc565b91505061216b565b506000949350505050565b600061220881612328565b506010805463ffffffff191663ffffffff92909216919091179055565b600061223081612328565b506010805461ffff9092166401000000000265ffff0000000019909216919091179055565b60008281526020819052604090206001015461227081612328565b610c8a83836128cd565b600061228581612328565b50600b80546001600160a01b0319166001600160a01b0392909216919091179055565b60006122b381612328565b506010805491151566010000000000000266ff00000000000019909216919091179055565b60006122e381612328565b50600f55565b60006122f481612328565b50600455565b600061230581612328565b50600a80546001600160a01b0319166001600160a01b0392909216919091179055565b611dda813361305a565b6000600080516020613c8e83398151915261234c81612328565b600c54600f54600e546010546040516305d3b1d360e41b815260048101939093526001600160401b039091166024830152640100000000810461ffff16604483015263ffffffff166064820152600160848201526000916001600160a01b031690635d3b1d309060a4016020604051808303816000875af11580156123d5573d6000803e3d6000fd5b505050506040513d601f19601f820116820180604052508101906123f99190613b6f565b6000818152600d602052604080822087905551919250829186917ff9f171fefccda92248e5f0fdcf6c04ff1e2d16592241264abd91d121874f4f5291a39392505050565b60006001838154811061245257612452613ac6565b90600052602060002090600d0201905060005b8251811015610b975760005b83828151811061248357612483613ac6565b602002602001015151811015612621578382815181106124a5576124a5613ac6565b602002602001015181815181106124be576124be613ac6565b602002602001015183600c0183815481106124db576124db613ac6565b9060005260206000200182815481106124f6576124f6613ac6565b9060005260206000200160006101000a8154816001600160a01b0302191690836001600160a01b0316021790555060026000868152602001908152602001600020600085848151811061254b5761254b613ac6565b6020026020010151838151811061256457612564613ac6565b60200260200101516001600160a01b03166001600160a01b03168152602001908152602001600020548360090160008282546125a09190613aaf565b90915550506000858152600260205260408120855182908790869081106125c9576125c9613ac6565b602002602001015184815181106125e2576125e2613ac6565b60200260200101516001600160a01b03166001600160a01b0316815260200190815260200160002081905550808061261990613b0b565b915050612471565b508061262c81613b0b565b915050612465565b6000828152600d6020526040902054600180548290811061265757612657613ac6565b90600052602060002090600d020160020160019054906101000a900460ff16156126ac5760405162461bcd60e51b8152600401610a6d906020808252600490820152630454331360e41b604082015260600190565b6000600182815481106126c1576126c1613ac6565b90600052602060002090600d02019050826000815181106126e4576126e4613ac6565b6020908102919091010151600b82015560028101805461ff0019166101001790556010546601000000000000900460ff16156127235761272382612932565b83827fa9c8267b94f3ce97d170a9faaacd4f71922c05f07bc2f73222364bdd7173668b8560008151811061275957612759613ac6565b602002602001015160405161277091815260200190565b60405180910390a350505050565b61278882826120e3565b610c61576000828152602081815260408083206001600160a01b03851684529091529020805460ff191660011790556127be3390565b6001600160a01b0316816001600160a01b0316837f2f8788117e7eff1d82e926ec794901d17c78024a50270940304540a733656f0d60405160405180910390a45050565b60085460055460405163731133e960e01b81526001600160a01b038581166004830152602482019290925260448101849052608060648201526000608482015291169063731133e99060a401600060405180830381600087803b15801561286857600080fd5b505af115801561287c573d6000803e3d6000fd5b505050506128873390565b6001600160a01b03167f76513afb012856b6d7375c6d6f5e1bfffc159135e1a3d2cd6a2abb66ce951177826040516128c191815260200190565b60405180910390a25050565b6128d782826120e3565b15610c61576000828152602081815260408083206001600160a01b0385168085529252808320805460ff1916905551339285917ff6391f5c32d9c69d2a47ea670b442974b53935d1edc7fd64eb21e047a839171b9190a45050565b60006001828154811061294757612947613ac6565b6000918252602091829020604080516101e081018252600d90930290910180548352600181015483850152600281015460ff808216151585850152610100808304821615156060870152620100009092041615156080850152600382015460a0850152600482015460c0850152600582015460e08501526006820154908401526007810180548351818702810187019094528084529394919361012086019392830182828015612a1657602002820191906000526020600020905b815481526020019060010190808311612a02575b5050505050815260200160088201805480602002602001604051908101604052809291908181526020018280548015612a6e57602002820191906000526020600020905b815481526020019060010190808311612a5a575b5050505050815260200160098201548152602001600a8201805480602002602001604051908101604052809291908181526020018280548015612ada57602002820191906000526020600020905b81546001600160a01b03168152600190910190602001808311612abc575b50505050508152602001600b8201548152602001600c8201805480602002602001604051908101604052809291908181526020016000905b82821015612b8857600084815260209081902083018054604080518285028101850190915281815292830182828015612b7457602002820191906000526020600020905b81546001600160a01b03168152600190910190602001808311612b56575b505050505081526020019060010190612b12565b505050508152505090508060600151612bdc5760405162461bcd60e51b8152602060048201526016602482015275149bdd5b99081a5cc81b9bdd08199d5b199a5b1b195960521b6044820152606401610a6d565b806080015115612c2e5760405162461bcd60e51b815260206004820152601960248201527f526f756e6420697320616c72656164792066696e6973686564000000000000006044820152606401610a6d565b6001808381548110612c4257612c42613ac6565b6000918252602082206002600d90920201018054921515620100000262ff0000199093169290921790915560405183917f74ef25ef6b332a2fbbe7eb8b4108e0fe842a929d34c52a2ea4ca1a0f1524f10791a2610160810151612ca3575050565b6101a081015160005b826101c0015151811015610b975760008361014001518281518110612cd357612cd3613ac6565b602002602001015160648560c00151612cec9190613b5b565b612cf69190613b26565b905060005b846101c001518381518110612d1257612d12613ac6565b6020026020010151518110156130455742612d2e826001613af3565b612d39856001613af3565b612d439087613b26565b612d4d9190613b26565b612d579190613b88565b612d62906001613af3565b93506000856101c001518481518110612d7d57612d7d613ac6565b60200260200101518281518110612d9657612d96613ac6565b6020026020010151905060006001600160a01b0316866101c001518581518110612dc257612dc2613ac6565b60200260200101518381518110612ddb57612ddb613ac6565b60200260200101516001600160a01b03161415612f7f57600086610160015186612e059190613b88565b612e10906001613af3565b905060005b87610180015151811015612efd5760008861018001518281518110612e3c57612e3c613ac6565b60209081029190910181015160008c81526002835260408082206001600160a01b03841683529093529190912054909150808411612edc5760008b81526002602090815260408083206001600160a01b03861684529091529020546101608b0180519396508693612eae908390613aaf565b9052505060008a81526002602090815260408083206001600160a01b03909416835292905290812055612efd565b612ee68185613aaf565b935050508080612ef590613b0b565b915050612e15565b508160018981548110612f1257612f12613ac6565b90600052602060002090600d0201600c018681548110612f3457612f34613ac6565b906000526020600020018481548110612f4f57612f4f613ac6565b9060005260206000200160006101000a8154816001600160a01b0302191690836001600160a01b03160217905550505b6000866101c001518581518110612f9857612f98613ac6565b60200260200101515184612fac9190613b5b565b600a54600b546040516323b872dd60e01b81526001600160a01b03918216600482015285821660248201526044810184905292935016906323b872dd906064016020604051808303816000875af115801561300b573d6000803e3d6000fd5b505050506040513d601f19601f8201168201806040525081019061302f9190613b9c565b505050808061303d90613b0b565b915050612cfb565b5050808061305290613b0b565b915050612cac565b61306482826120e3565b610c615761307c816001600160a01b031660146130be565b6130878360206130be565b604051602001613098929190613be5565b60408051601f198184030181529082905262461bcd60e51b8252610a6d91600401613c5a565b606060006130cd836002613b26565b6130d8906002613af3565b6001600160401b038111156130ef576130ef6136a6565b6040519080825280601f01601f191660200182016040528015613119576020820181803683370190505b509050600360fc1b8160008151811061313457613134613ac6565b60200101906001600160f81b031916908160001a905350600f60fb1b8160018151811061316357613163613ac6565b60200101906001600160f81b031916908160001a9053506000613187846002613b26565b613192906001613af3565b90505b600181111561320a576f181899199a1a9b1b9c1cb0b131b232b360811b85600f16601081106131c6576131c6613ac6565b1a60f81b8282815181106131dc576131dc613ac6565b60200101906001600160f81b031916908160001a90535060049490941c9361320381613adc565b9050613195565b5083156132595760405162461bcd60e51b815260206004820181905260248201527f537472696e67733a20686578206c656e67746820696e73756666696369656e746044820152606401610a6d565b9392505050565b604051806101e001604052806000815260200160008152602001600015158152602001600015158152602001600015158152602001600081526020016000815260200160008152602001600081526020016060815260200160608152602001600081526020016060815260200160008152602001606081525090565b828054828255906000526020600020908101928215613317579160200282015b828111156133175782518255916020019190600101906132fc565b506133239291506133d5565b5090565b828054828255906000526020600020908101928215613317579160200282015b8281111561331757825182546001600160a01b0319166001600160a01b03909116178255602090920191600190910190613347565b8280548282559060005260206000209081019282156133c9579160200282015b828111156133c957825180516133b9918491602090910190613327565b509160200191906001019061339c565b506133239291506133ea565b5b8082111561332357600081556001016133d6565b808211156133235760006133fe8282613407565b506001016133ea565b5080546000825590600052602060002090810190611dda91906133d5565b6000806040838503121561343857600080fd5b50508035926020909101359150565b600081518084526020808501945080840160005b838110156134775781518752958201959082019060010161345b565b509495945050505050565b600081518084526020808501945080840160005b838110156134775781516001600160a01b031687529582019590820190600101613496565b600082825180855260208086019550808260051b84010181860160005b8481101561350657601f198684030189526134f4838351613482565b988401989250908301906001016134d8565b5090979650505050505050565b60006101e082518452602083015160208501526040830151613539604086018215159052565b50606083015161354d606086018215159052565b506080830151613561608086018215159052565b5060a083015160a085015260c083015160c085015260e083015160e08501526101008084015181860152506101208084015182828701526135a483870182613447565b9250505061014080840151858303828701526135c08382613447565b9250505061016080840151818601525061018080840151858303828701526135e88382613482565b925050506101a08084015181860152506101c0808401518583038287015261361083826134bb565b9695505050505050565b6000602080830181845280855180835260408601915060408160051b870101925083870160005b8281101561366f57603f1988860301845261365d858351613513565b94509285019290850190600101613641565b5092979650505050505050565b60006020828403121561368e57600080fd5b81356001600160e01b03198116811461325957600080fd5b634e487b7160e01b600052604160045260246000fd5b604051601f8201601f191681016001600160401b03811182821017156136e4576136e46136a6565b604052919050565b60006001600160401b03821115613705576137056136a6565b5060051b60200190565b80356001600160a01b038116811461372657600080fd5b919050565b600080604080848603121561373f57600080fd5b833592506020808501356001600160401b038082111561375e57600080fd5b818701915087601f83011261377257600080fd5b8135613785613780826136ec565b6136bc565b81815260059190911b8301840190848101908a8311156137a457600080fd5b8585015b83811015613837578035858111156137c05760008081fd5b8601603f81018d136137d25760008081fd5b878101356137e2613780826136ec565b81815260059190911b82018a0190898101908f8311156138025760008081fd5b928b01925b82841015613827576138188461370f565b8252928a0192908a0190613807565b86525050509186019186016137a8565b50809750505050505050509250929050565b60006020828403121561385b57600080fd5b5035919050565b60006020828403121561387457600080fd5b81356001600160401b038116811461325957600080fd5b600082601f83011261389c57600080fd5b813560206138ac613780836136ec565b82815260059290921b840181019181810190868411156138cb57600080fd5b8286015b848110156138e657803583529183019183016138cf565b509695505050505050565b6000806040838503121561390457600080fd5b8235915060208301356001600160401b0381111561392157600080fd5b61392d8582860161388b565b9150509250929050565b6000806040838503121561394a57600080fd5b8235915061395a6020840161370f565b90509250929050565b600080600080600080600060e0888a03121561397e57600080fd5b873596506020880135955060408801359450606088013593506080880135925060a08801356001600160401b03808211156139b857600080fd5b6139c48b838c0161388b565b935060c08a01359150808211156139da57600080fd5b506139e78a828b0161388b565b91505092959891949750929550565b600060208284031215613a0857600080fd5b6132598261370f565b6020815260006132596020830184613513565b600060208284031215613a3657600080fd5b813563ffffffff8116811461325957600080fd5b600060208284031215613a5c57600080fd5b813561ffff8116811461325957600080fd5b8015158114611dda57600080fd5b600060208284031215613a8e57600080fd5b813561325981613a6e565b634e487b7160e01b600052601160045260246000fd5b600082821015613ac157613ac1613a99565b500390565b634e487b7160e01b600052603260045260246000fd5b600081613aeb57613aeb613a99565b506000190190565b60008219821115613b0657613b06613a99565b500190565b6000600019821415613b1f57613b1f613a99565b5060010190565b6000816000190483118215151615613b4057613b40613a99565b500290565b634e487b7160e01b600052601260045260246000fd5b600082613b6a57613b6a613b45565b500490565b600060208284031215613b8157600080fd5b5051919050565b600082613b9757613b97613b45565b500690565b600060208284031215613bae57600080fd5b815161325981613a6e565b60005b83811015613bd4578181015183820152602001613bbc565b83811115610b975750506000910152565b7f416363657373436f6e74726f6c3a206163636f756e7420000000000000000000815260008351613c1d816017850160208801613bb9565b7001034b99036b4b9b9b4b733903937b6329607d1b6017918401918201528351613c4e816028840160208801613bb9565b01602801949350505050565b6020815260008251806020840152613c79816040850160208701613bb9565b601f01601f1916919091016040019291505056fe97667070c54ef182b0f5858b034beac1b6f3089aa2d3188bb1e8929f4fa9b929a26469706673582212201cd72ad4f192fa34f55144532f74519811b28fcebb713026f0fbefe31478bec664736f6c634300080b0033",
  "devdoc": {
    "kind": "dev",
    "methods": {
      "getRoleAdmin(bytes32)": {
        "details": "Returns the admin role that controls `role`. See {grantRole} and {revokeRole}. To change a role's admin, use {_setRoleAdmin}."
      },
      "grantRole(bytes32,address)": {
        "details": "Grants `role` to `account`. If `account` had not been already granted `role`, emits a {RoleGranted} event. Requirements: - the caller must have ``role``'s admin role. May emit a {RoleGranted} event."
      },
      "hasRole(bytes32,address)": {
        "details": "Returns `true` if `account` has been granted `role`."
      },
      "renounceRole(bytes32,address)": {
        "details": "Revokes `role` from the calling account. Roles are often managed via {grantRole} and {revokeRole}: this function's purpose is to provide a mechanism for accounts to lose their privileges if they are compromised (such as when a trusted device is misplaced). If the calling account had been revoked `role`, emits a {RoleRevoked} event. Requirements: - the caller must be `account`. May emit a {RoleRevoked} event."
      },
      "revokeRole(bytes32,address)": {
        "details": "Revokes `role` from `account`. If `account` had been granted `role`, emits a {RoleRevoked} event. Requirements: - the caller must have ``role``'s admin role. May emit a {RoleRevoked} event."
      },
      "supportsInterface(bytes4)": {
        "details": "See {IERC165-supportsInterface}."
      }
    },
    "version": 1
  },
  "userdoc": {
    "kind": "user",
    "methods": {},
    "version": 1
  },
  "storageLayout": {
    "storage": [
      {
        "astId": 178,
        "contract": "contracts/Lottery.sol:Lottery",
        "label": "_roles",
        "offset": 0,
        "slot": "0",
        "type": "t_mapping(t_bytes32,t_struct(RoleData)173_storage)"
      },
      {
        "astId": 5309,
        "contract": "contracts/Lottery.sol:Lottery",
        "label": "rounds",
        "offset": 0,
        "slot": "1",
        "type": "t_array(t_struct(Round)5300_storage)dyn_storage"
      },
      {
        "astId": 5315,
        "contract": "contracts/Lottery.sol:Lottery",
        "label": "roundMembers",
        "offset": 0,
        "slot": "2",
        "type": "t_mapping(t_uint256,t_mapping(t_address,t_uint256))"
      },
      {
        "astId": 5320,
        "contract": "contracts/Lottery.sol:Lottery",
        "label": "claims",
        "offset": 0,
        "slot": "3",
        "type": "t_mapping(t_address,t_array(t_uint256)dyn_storage)"
      },
      {
        "astId": 5322,
        "contract": "contracts/Lottery.sol:Lottery",
        "label": "TICKET_PRICE",
        "offset": 0,
        "slot": "4",
        "type": "t_uint256"
      },
      {
        "astId": 5324,
        "contract": "contracts/Lottery.sol:Lottery",
        "label": "TICKET_ID",
        "offset": 0,
        "slot": "5",
        "type": "t_uint256"
      },
      {
        "astId": 5326,
        "contract": "contracts/Lottery.sol:Lottery",
        "label": "DAYS_STREAK_FOR_TICKET",
        "offset": 0,
        "slot": "6",
        "type": "t_uint256"
      },
      {
        "astId": 5329,
        "contract": "contracts/Lottery.sol:Lottery",
        "label": "CLAIM_PERIOD",
        "offset": 0,
        "slot": "7",
        "type": "t_uint256"
      },
      {
        "astId": 5332,
        "contract": "contracts/Lottery.sol:Lottery",
        "label": "ticketToken",
        "offset": 0,
        "slot": "8",
        "type": "t_contract(Ticket)12352"
      },
      {
        "astId": 5335,
        "contract": "contracts/Lottery.sol:Lottery",
        "label": "paymentToken",
        "offset": 0,
        "slot": "9",
        "type": "t_contract(ERC20Burnable)3029"
      },
      {
        "astId": 5338,
        "contract": "contracts/Lottery.sol:Lottery",
        "label": "rewardToken",
        "offset": 0,
        "slot": "10",
        "type": "t_contract(IERC20)2985"
      },
      {
        "astId": 5340,
        "contract": "contracts/Lottery.sol:Lottery",
        "label": "rewardPool",
        "offset": 0,
        "slot": "11",
        "type": "t_address"
      },
      {
        "astId": 5343,
        "contract": "contracts/Lottery.sol:Lottery",
        "label": "COORDINATOR",
        "offset": 0,
        "slot": "12",
        "type": "t_contract(VRFCoordinatorV2Interface)153"
      },
      {
        "astId": 5347,
        "contract": "contracts/Lottery.sol:Lottery",
        "label": "oracleRequests",
        "offset": 0,
        "slot": "13",
        "type": "t_mapping(t_uint256,t_uint256)"
      },
      {
        "astId": 5349,
        "contract": "contracts/Lottery.sol:Lottery",
        "label": "oracleSubscriptionId",
        "offset": 0,
        "slot": "14",
        "type": "t_uint64"
      },
      {
        "astId": 5351,
        "contract": "contracts/Lottery.sol:Lottery",
        "label": "oracleKeyHash",
        "offset": 0,
        "slot": "15",
        "type": "t_bytes32"
      },
      {
        "astId": 5354,
        "contract": "contracts/Lottery.sol:Lottery",
        "label": "oracleCallbackGasLimit",
        "offset": 0,
        "slot": "16",
        "type": "t_uint32"
      },
      {
        "astId": 5357,
        "contract": "contracts/Lottery.sol:Lottery",
        "label": "oracleRequestConfirmations",
        "offset": 4,
        "slot": "16",
        "type": "t_uint16"
      },
      {
        "astId": 5360,
        "contract": "contracts/Lottery.sol:Lottery",
        "label": "enableWinnerCalculationInOracleResponse",
        "offset": 6,
        "slot": "16",
        "type": "t_bool"
      }
    ],
    "types": {
      "t_address": {
        "encoding": "inplace",
        "label": "address",
        "numberOfBytes": "20"
      },
      "t_array(t_address)dyn_storage": {
        "base": "t_address",
        "encoding": "dynamic_array",
        "label": "address[]",
        "numberOfBytes": "32"
      },
      "t_array(t_array(t_address)dyn_storage)dyn_storage": {
        "base": "t_array(t_address)dyn_storage",
        "encoding": "dynamic_array",
        "label": "address[][]",
        "numberOfBytes": "32"
      },
      "t_array(t_struct(Round)5300_storage)dyn_storage": {
        "base": "t_struct(Round)5300_storage",
        "encoding": "dynamic_array",
        "label": "struct Lottery.Round[]",
        "numberOfBytes": "32"
      },
      "t_array(t_uint256)dyn_storage": {
        "base": "t_uint256",
        "encoding": "dynamic_array",
        "label": "uint256[]",
        "numberOfBytes": "32"
      },
      "t_bool": {
        "encoding": "inplace",
        "label": "bool",
        "numberOfBytes": "1"
      },
      "t_bytes32": {
        "encoding": "inplace",
        "label": "bytes32",
        "numberOfBytes": "32"
      },
      "t_contract(ERC20Burnable)3029": {
        "encoding": "inplace",
        "label": "contract ERC20Burnable",
        "numberOfBytes": "20"
      },
      "t_contract(IERC20)2985": {
        "encoding": "inplace",
        "label": "contract IERC20",
        "numberOfBytes": "20"
      },
      "t_contract(Ticket)12352": {
        "encoding": "inplace",
        "label": "contract Ticket",
        "numberOfBytes": "20"
      },
      "t_contract(VRFCoordinatorV2Interface)153": {
        "encoding": "inplace",
        "label": "contract VRFCoordinatorV2Interface",
        "numberOfBytes": "20"
      },
      "t_mapping(t_address,t_array(t_uint256)dyn_storage)": {
        "encoding": "mapping",
        "key": "t_address",
        "label": "mapping(address => uint256[])",
        "numberOfBytes": "32",
        "value": "t_array(t_uint256)dyn_storage"
      },
      "t_mapping(t_address,t_bool)": {
        "encoding": "mapping",
        "key": "t_address",
        "label": "mapping(address => bool)",
        "numberOfBytes": "32",
        "value": "t_bool"
      },
      "t_mapping(t_address,t_uint256)": {
        "encoding": "mapping",
        "key": "t_address",
        "label": "mapping(address => uint256)",
        "numberOfBytes": "32",
        "value": "t_uint256"
      },
      "t_mapping(t_bytes32,t_struct(RoleData)173_storage)": {
        "encoding": "mapping",
        "key": "t_bytes32",
        "label": "mapping(bytes32 => struct AccessControl.RoleData)",
        "numberOfBytes": "32",
        "value": "t_struct(RoleData)173_storage"
      },
      "t_mapping(t_uint256,t_mapping(t_address,t_uint256))": {
        "encoding": "mapping",
        "key": "t_uint256",
        "label": "mapping(uint256 => mapping(address => uint256))",
        "numberOfBytes": "32",
        "value": "t_mapping(t_address,t_uint256)"
      },
      "t_mapping(t_uint256,t_uint256)": {
        "encoding": "mapping",
        "key": "t_uint256",
        "label": "mapping(uint256 => uint256)",
        "numberOfBytes": "32",
        "value": "t_uint256"
      },
      "t_struct(RoleData)173_storage": {
        "encoding": "inplace",
        "label": "struct AccessControl.RoleData",
        "members": [
          {
            "astId": 170,
            "contract": "contracts/Lottery.sol:Lottery",
            "label": "members",
            "offset": 0,
            "slot": "0",
            "type": "t_mapping(t_address,t_bool)"
          },
          {
            "astId": 172,
            "contract": "contracts/Lottery.sol:Lottery",
            "label": "adminRole",
            "offset": 0,
            "slot": "1",
            "type": "t_bytes32"
          }
        ],
        "numberOfBytes": "64"
      },
      "t_struct(Round)5300_storage": {
        "encoding": "inplace",
        "label": "struct Lottery.Round",
        "members": [
          {
            "astId": 5266,
            "contract": "contracts/Lottery.sol:Lottery",
            "label": "startTime",
            "offset": 0,
            "slot": "0",
            "type": "t_uint256"
          },
          {
            "astId": 5268,
            "contract": "contracts/Lottery.sol:Lottery",
            "label": "duration",
            "offset": 0,
            "slot": "1",
            "type": "t_uint256"
          },
          {
            "astId": 5270,
            "contract": "contracts/Lottery.sol:Lottery",
            "label": "isClosed",
            "offset": 0,
            "slot": "2",
            "type": "t_bool"
          },
          {
            "astId": 5272,
            "contract": "contracts/Lottery.sol:Lottery",
            "label": "isOracleFulfilled",
            "offset": 1,
            "slot": "2",
            "type": "t_bool"
          },
          {
            "astId": 5274,
            "contract": "contracts/Lottery.sol:Lottery",
            "label": "isFinished",
            "offset": 2,
            "slot": "2",
            "type": "t_bool"
          },
          {
            "astId": 5276,
            "contract": "contracts/Lottery.sol:Lottery",
            "label": "initialPrize",
            "offset": 0,
            "slot": "3",
            "type": "t_uint256"
          },
          {
            "astId": 5278,
            "contract": "contracts/Lottery.sol:Lottery",
            "label": "totalPrize",
            "offset": 0,
            "slot": "4",
            "type": "t_uint256"
          },
          {
            "astId": 5280,
            "contract": "contracts/Lottery.sol:Lottery",
            "label": "maxTicketsFromOneMember",
            "offset": 0,
            "slot": "5",
            "type": "t_uint256"
          },
          {
            "astId": 5282,
            "contract": "contracts/Lottery.sol:Lottery",
            "label": "tokensForOneTicket",
            "offset": 0,
            "slot": "6",
            "type": "t_uint256"
          },
          {
            "astId": 5285,
            "contract": "contracts/Lottery.sol:Lottery",
            "label": "winnersForLevel",
            "offset": 0,
            "slot": "7",
            "type": "t_array(t_uint256)dyn_storage"
          },
          {
            "astId": 5288,
            "contract": "contracts/Lottery.sol:Lottery",
            "label": "prizeForLevel",
            "offset": 0,
            "slot": "8",
            "type": "t_array(t_uint256)dyn_storage"
          },
          {
            "astId": 5290,
            "contract": "contracts/Lottery.sol:Lottery",
            "label": "totalTickets",
            "offset": 0,
            "slot": "9",
            "type": "t_uint256"
          },
          {
            "astId": 5293,
            "contract": "contracts/Lottery.sol:Lottery",
            "label": "members",
            "offset": 0,
            "slot": "10",
            "type": "t_array(t_address)dyn_storage"
          },
          {
            "astId": 5295,
            "contract": "contracts/Lottery.sol:Lottery",
            "label": "randomWord",
            "offset": 0,
            "slot": "11",
            "type": "t_uint256"
          },
          {
            "astId": 5299,
            "contract": "contracts/Lottery.sol:Lottery",
            "label": "winners",
            "offset": 0,
            "slot": "12",
            "type": "t_array(t_array(t_address)dyn_storage)dyn_storage"
          }
        ],
        "numberOfBytes": "416"
      },
      "t_uint16": {
        "encoding": "inplace",
        "label": "uint16",
        "numberOfBytes": "2"
      },
      "t_uint256": {
        "encoding": "inplace",
        "label": "uint256",
        "numberOfBytes": "32"
      },
      "t_uint32": {
        "encoding": "inplace",
        "label": "uint32",
        "numberOfBytes": "4"
      },
      "t_uint64": {
        "encoding": "inplace",
        "label": "uint64",
        "numberOfBytes": "8"
      }
    }
  }
}