{
  "address": "0x92b23aF0A5B1B7EdFd458f8835F129720EF12EF5",
  "abi": [
    {
      "inputs": [
        {
          "internalType": "address",
          "name": "subscriptionToken_",
          "type": "address"
        },
        {
          "internalType": "address",
          "name": "rewardToken_",
          "type": "address"
        },
        {
          "internalType": "address",
          "name": "rewardPool_",
          "type": "address"
        },
        {
          "internalType": "uint256",
          "name": "fullSubscriptionCost_",
          "type": "uint256"
        },
        {
          "internalType": "uint256",
          "name": "levelSubscriptionCost_",
          "type": "uint256"
        }
      ],
      "stateMutability": "nonpayable",
      "type": "constructor"
    },
    {
      "anonymous": false,
      "inputs": [
        {
          "indexed": true,
          "internalType": "address",
          "name": "referrer",
          "type": "address"
        },
        {
          "indexed": true,
          "internalType": "address",
          "name": "referral",
          "type": "address"
        }
      ],
      "name": "ReferralAdded",
      "type": "event"
    },
    {
      "anonymous": false,
      "inputs": [
        {
          "indexed": true,
          "internalType": "bytes32",
          "name": "role",
          "type": "bytes32"
        },
        {
          "indexed": true,
          "internalType": "bytes32",
          "name": "previousAdminRole",
          "type": "bytes32"
        },
        {
          "indexed": true,
          "internalType": "bytes32",
          "name": "newAdminRole",
          "type": "bytes32"
        }
      ],
      "name": "RoleAdminChanged",
      "type": "event"
    },
    {
      "anonymous": false,
      "inputs": [
        {
          "indexed": true,
          "internalType": "bytes32",
          "name": "role",
          "type": "bytes32"
        },
        {
          "indexed": true,
          "internalType": "address",
          "name": "account",
          "type": "address"
        },
        {
          "indexed": true,
          "internalType": "address",
          "name": "sender",
          "type": "address"
        }
      ],
      "name": "RoleGranted",
      "type": "event"
    },
    {
      "anonymous": false,
      "inputs": [
        {
          "indexed": true,
          "internalType": "bytes32",
          "name": "role",
          "type": "bytes32"
        },
        {
          "indexed": true,
          "internalType": "address",
          "name": "account",
          "type": "address"
        },
        {
          "indexed": true,
          "internalType": "address",
          "name": "sender",
          "type": "address"
        }
      ],
      "name": "RoleRevoked",
      "type": "event"
    },
    {
      "anonymous": false,
      "inputs": [
        {
          "indexed": true,
          "internalType": "address",
          "name": "subscriber",
          "type": "address"
        },
        {
          "indexed": false,
          "internalType": "uint256",
          "name": "levels",
          "type": "uint256"
        },
        {
          "indexed": true,
          "internalType": "uint256",
          "name": "timestamp",
          "type": "uint256"
        }
      ],
      "name": "Subscribed",
      "type": "event"
    },
    {
      "inputs": [],
      "name": "DEFAULT_ADMIN_ROLE",
      "outputs": [
        {
          "internalType": "bytes32",
          "name": "",
          "type": "bytes32"
        }
      ],
      "stateMutability": "view",
      "type": "function"
    },
    {
      "inputs": [],
      "name": "LEVELS",
      "outputs": [
        {
          "internalType": "uint256",
          "name": "",
          "type": "uint256"
        }
      ],
      "stateMutability": "view",
      "type": "function"
    },
    {
      "inputs": [
        {
          "internalType": "uint256",
          "name": "",
          "type": "uint256"
        }
      ],
      "name": "REFERRAL_PERCENTS",
      "outputs": [
        {
          "internalType": "uint256",
          "name": "",
          "type": "uint256"
        }
      ],
      "stateMutability": "view",
      "type": "function"
    },
    {
      "inputs": [],
      "name": "SUBSCRIPTION_PERIOD_DAYS",
      "outputs": [
        {
          "internalType": "uint256",
          "name": "",
          "type": "uint256"
        }
      ],
      "stateMutability": "view",
      "type": "function"
    },
    {
      "inputs": [
        {
          "internalType": "address",
          "name": "user",
          "type": "address"
        },
        {
          "internalType": "uint256",
          "name": "reward",
          "type": "uint256"
        }
      ],
      "name": "addUserDividends",
      "outputs": [],
      "stateMutability": "nonpayable",
      "type": "function"
    },
    {
      "inputs": [
        {
          "internalType": "address",
          "name": "contractAddress",
          "type": "address"
        }
      ],
      "name": "authorizeContract",
      "outputs": [],
      "stateMutability": "nonpayable",
      "type": "function"
    },
    {
      "inputs": [
        {
          "internalType": "uint256",
          "name": "amount",
          "type": "uint256"
        },
        {
          "internalType": "uint256",
          "name": "level",
          "type": "uint256"
        }
      ],
      "name": "calculateRefReward",
      "outputs": [
        {
          "internalType": "uint256",
          "name": "",
          "type": "uint256"
        }
      ],
      "stateMutability": "view",
      "type": "function"
    },
    {
      "inputs": [
        {
          "internalType": "uint256",
          "name": "amount",
          "type": "uint256"
        }
      ],
      "name": "claimDividends",
      "outputs": [],
      "stateMutability": "nonpayable",
      "type": "function"
    },
    {
      "inputs": [],
      "name": "fullSubscriptionCost",
      "outputs": [
        {
          "internalType": "uint256",
          "name": "",
          "type": "uint256"
        }
      ],
      "stateMutability": "view",
      "type": "function"
    },
    {
      "inputs": [],
      "name": "getReferralLevels",
      "outputs": [
        {
          "internalType": "uint256",
          "name": "",
          "type": "uint256"
        }
      ],
      "stateMutability": "pure",
      "type": "function"
    },
    {
      "inputs": [
        {
          "internalType": "bytes32",
          "name": "role",
          "type": "bytes32"
        }
      ],
      "name": "getRoleAdmin",
      "outputs": [
        {
          "internalType": "bytes32",
          "name": "",
          "type": "bytes32"
        }
      ],
      "stateMutability": "view",
      "type": "function"
    },
    {
      "inputs": [
        {
          "internalType": "address",
          "name": "userAddress",
          "type": "address"
        }
      ],
      "name": "getUser1LvlReferrals",
      "outputs": [
        {
          "internalType": "address[]",
          "name": "",
          "type": "address[]"
        }
      ],
      "stateMutability": "view",
      "type": "function"
    },
    {
      "inputs": [
        {
          "internalType": "address",
          "name": "userAddress",
          "type": "address"
        }
      ],
      "name": "getUserInfo",
      "outputs": [
        {
          "internalType": "address",
          "name": "referrer",
          "type": "address"
        },
        {
          "internalType": "uint256",
          "name": "totalDividends",
          "type": "uint256"
        },
        {
          "internalType": "uint256",
          "name": "totalClaimedDividends",
          "type": "uint256"
        },
        {
          "internalType": "uint256",
          "name": "referrals_1_lvl",
          "type": "uint256"
        },
        {
          "internalType": "uint256",
          "name": "totalReferrals",
          "type": "uint256"
        }
      ],
      "stateMutability": "view",
      "type": "function"
    },
    {
      "inputs": [
        {
          "internalType": "address",
          "name": "userAddress",
          "type": "address"
        },
        {
          "internalType": "uint256",
          "name": "currentLevel",
          "type": "uint256"
        }
      ],
      "name": "getUserReferrals",
      "outputs": [
        {
          "components": [
            {
              "internalType": "address",
              "name": "referralAddress",
              "type": "address"
            },
            {
              "internalType": "uint256",
              "name": "level",
              "type": "uint256"
            }
          ],
          "internalType": "struct ReferralManager.Referral[]",
          "name": "",
          "type": "tuple[]"
        }
      ],
      "stateMutability": "view",
      "type": "function"
    },
    {
      "inputs": [
        {
          "internalType": "address",
          "name": "user",
          "type": "address"
        }
      ],
      "name": "getUserReferrer",
      "outputs": [
        {
          "internalType": "address",
          "name": "",
          "type": "address"
        }
      ],
      "stateMutability": "view",
      "type": "function"
    },
    {
      "inputs": [
        {
          "internalType": "bytes32",
          "name": "role",
          "type": "bytes32"
        },
        {
          "internalType": "address",
          "name": "account",
          "type": "address"
        }
      ],
      "name": "grantRole",
      "outputs": [],
      "stateMutability": "nonpayable",
      "type": "function"
    },
    {
      "inputs": [
        {
          "internalType": "bytes32",
          "name": "role",
          "type": "bytes32"
        },
        {
          "internalType": "address",
          "name": "account",
          "type": "address"
        }
      ],
      "name": "hasRole",
      "outputs": [
        {
          "internalType": "bool",
          "name": "",
          "type": "bool"
        }
      ],
      "stateMutability": "view",
      "type": "function"
    },
    {
      "inputs": [
        {
          "internalType": "address",
          "name": "contractAddress",
          "type": "address"
        }
      ],
      "name": "isAuthorized",
      "outputs": [
        {
          "internalType": "bool",
          "name": "",
          "type": "bool"
        }
      ],
      "stateMutability": "view",
      "type": "function"
    },
    {
      "inputs": [],
      "name": "levelSubscriptionCost",
      "outputs": [
        {
          "internalType": "uint256",
          "name": "",
          "type": "uint256"
        }
      ],
      "stateMutability": "view",
      "type": "function"
    },
    {
      "inputs": [
        {
          "internalType": "address",
          "name": "contractAddress",
          "type": "address"
        }
      ],
      "name": "removeContractAuthorization",
      "outputs": [],
      "stateMutability": "nonpayable",
      "type": "function"
    },
    {
      "inputs": [
        {
          "internalType": "bytes32",
          "name": "role",
          "type": "bytes32"
        },
        {
          "internalType": "address",
          "name": "account",
          "type": "address"
        }
      ],
      "name": "renounceRole",
      "outputs": [],
      "stateMutability": "nonpayable",
      "type": "function"
    },
    {
      "inputs": [
        {
          "internalType": "bytes32",
          "name": "role",
          "type": "bytes32"
        },
        {
          "internalType": "address",
          "name": "account",
          "type": "address"
        }
      ],
      "name": "revokeRole",
      "outputs": [],
      "stateMutability": "nonpayable",
      "type": "function"
    },
    {
      "inputs": [],
      "name": "rewardToken",
      "outputs": [
        {
          "internalType": "contract IERC20",
          "name": "",
          "type": "address"
        }
      ],
      "stateMutability": "view",
      "type": "function"
    },
    {
      "inputs": [
        {
          "internalType": "address",
          "name": "user",
          "type": "address"
        },
        {
          "internalType": "address",
          "name": "referrer",
          "type": "address"
        }
      ],
      "name": "setUserReferrer",
      "outputs": [],
      "stateMutability": "nonpayable",
      "type": "function"
    },
    {
      "inputs": [],
      "name": "subscribeToAllLevels",
      "outputs": [],
      "stateMutability": "nonpayable",
      "type": "function"
    },
    {
      "inputs": [
        {
          "internalType": "uint256",
          "name": "levels",
          "type": "uint256"
        }
      ],
      "name": "subscribeToLevels",
      "outputs": [],
      "stateMutability": "nonpayable",
      "type": "function"
    },
    {
      "inputs": [],
      "name": "subscriptionToken",
      "outputs": [
        {
          "internalType": "contract ERC20Burnable",
          "name": "",
          "type": "address"
        }
      ],
      "stateMutability": "view",
      "type": "function"
    },
    {
      "inputs": [
        {
          "internalType": "bytes4",
          "name": "interfaceId",
          "type": "bytes4"
        }
      ],
      "name": "supportsInterface",
      "outputs": [
        {
          "internalType": "bool",
          "name": "",
          "type": "bool"
        }
      ],
      "stateMutability": "view",
      "type": "function"
    },
    {
      "inputs": [
        {
          "internalType": "uint256",
          "name": "cost",
          "type": "uint256"
        }
      ],
      "name": "updateFullSubscriptionCost",
      "outputs": [],
      "stateMutability": "nonpayable",
      "type": "function"
    },
    {
      "inputs": [
        {
          "internalType": "uint256",
          "name": "cost",
          "type": "uint256"
        }
      ],
      "name": "updateLevelSubscriptionCost",
      "outputs": [],
      "stateMutability": "nonpayable",
      "type": "function"
    },
    {
      "inputs": [
        {
          "internalType": "uint256",
          "name": "level",
          "type": "uint256"
        },
        {
          "internalType": "uint256",
          "name": "percent",
          "type": "uint256"
        }
      ],
      "name": "updateReferralPercent",
      "outputs": [],
      "stateMutability": "nonpayable",
      "type": "function"
    },
    {
      "inputs": [
        {
          "internalType": "address",
          "name": "poolAddress",
          "type": "address"
        }
      ],
      "name": "updateRewardPool",
      "outputs": [],
      "stateMutability": "nonpayable",
      "type": "function"
    },
    {
      "inputs": [
        {
          "internalType": "address",
          "name": "token",
          "type": "address"
        }
      ],
      "name": "updateRewardToken",
      "outputs": [],
      "stateMutability": "nonpayable",
      "type": "function"
    },
    {
      "inputs": [
        {
          "internalType": "uint256",
          "name": "durationDays",
          "type": "uint256"
        }
      ],
      "name": "updateSubscriptionPeriod",
      "outputs": [],
      "stateMutability": "nonpayable",
      "type": "function"
    },
    {
      "inputs": [
        {
          "internalType": "address",
          "name": "token",
          "type": "address"
        }
      ],
      "name": "updateSubscriptionToken",
      "outputs": [],
      "stateMutability": "nonpayable",
      "type": "function"
    },
    {
      "inputs": [
        {
          "internalType": "address",
          "name": "user",
          "type": "address"
        },
        {
          "internalType": "uint256",
          "name": "level",
          "type": "uint256"
        }
      ],
      "name": "userHasSubscription",
      "outputs": [
        {
          "internalType": "bool",
          "name": "",
          "type": "bool"
        }
      ],
      "stateMutability": "view",
      "type": "function"
    }
  ],
  "transactionHash": "0x5cc9ec7877264d701e733b475621a84f0d004171b1f8225ef93dfd065cda70c7",
  "args": [
    "0xb233eD04eDFde4f4480E8A610F064910efD943db",
    "0xaEa217b8568B82BBC9F050F3aA1B39427C866606",
    "0xf982D706f37Cb781D567395877EC35eDCB7Cf65C",
    "5000000000000000000",
    "1000000000000000000"
  ],
  "numDeployments": 1,
  "solcInputHash": "90ec898362c53216eb8f4b824af09601",
  "bytecode": "0x61016d6001556101c060405260646080908152605a60a052605060c052604660e052603c61010052603261012052602861014052601e61016052601461018052600a6101a08190526200005591600291620001d9565b503480156200006357600080fd5b5060405162001c6a38038062001c6a833981016040819052620000869162000262565b6001600160a01b0385166200009a57600080fd5b6001600160a01b038416620000ae57600080fd5b6001600160a01b038316620000c257600080fd5b60008211620000d057600080fd5b60008111620000de57600080fd5b620000eb60003362000138565b600580546001600160a01b03199081166001600160a01b039788161790915560068054821695871695909517909455600780549094169290941691909117909155600955600855620002bf565b6000828152602081815260408083206001600160a01b038516845290915290205460ff16620001d5576000828152602081815260408083206001600160a01b03851684529091529020805460ff19166001179055620001943390565b6001600160a01b0316816001600160a01b0316837f2f8788117e7eff1d82e926ec794901d17c78024a50270940304540a733656f0d60405160405180910390a45b5050565b8280548282559060005260206000209081019282156200021c579160200282015b828111156200021c578251829060ff16905591602001919060010190620001fa565b506200022a9291506200022e565b5090565b5b808211156200022a57600081556001016200022f565b80516001600160a01b03811681146200025d57600080fd5b919050565b600080600080600060a086880312156200027b57600080fd5b620002868662000245565b9450620002966020870162000245565b9350620002a66040870162000245565b6060870151608090970151959894975095949392505050565b61199b80620002cf6000396000f3fe608060405234801561001057600080fd5b506004361061021c5760003560e01c80638ebb3c8111610125578063d547741f116100ad578063e2adba8c1161007c578063e2adba8c146104dc578063f7c618c1146104e4578063f8cf31cb146104f7578063f8d0e6ec1461050a578063fe9fbb801461051d57600080fd5b8063d547741f14610490578063d5fbac3a146104a3578063d6672e1c146104b6578063dc6492a5146104c957600080fd5b8063a243d5ac116100f4578063a243d5ac14610445578063aaa138a214610458578063acb1016314610461578063b32cf5cf14610474578063bd7047c41461047d57600080fd5b80638ebb3c811461040257806391a9e4a21461042257806391d148541461042a578063a217fddf1461043d57600080fd5b806336568abe116101a857806367561d931161017757806367561d93146103ad578063736560b5146103c05780637f24f0f2146103d357806384197dbb146103e657806389b684f5146103f957600080fd5b806336568abe1461032f5780633fb55c6114610342578063600d20ce146103555780636386c1c71461036857600080fd5b80630dcb3c8a116101ef5780630dcb3c8a1461028d578063248a9ca3146102a25780632f2ff15d146102c557806334d5e56a146102d857806336144c9a146102eb57600080fd5b806301ffc9a71461022157806304b107a214610249578063070d451f1461026957806307fd4d961461027a575b600080fd5b61023461022f3660046115d2565b610549565b60405190151581526020015b60405180910390f35b61025c610257366004611618565b610580565b6040516102409190611642565b600a5b604051908152602001610240565b610234610288366004611618565b610742565b6102a061029b36600461169a565b610786565b005b61026c6102b036600461169a565b60009081526020819052604090206001015490565b6102a06102d33660046116b3565b610797565b6102a06102e636600461169a565b6107c1565b6103176102f93660046116df565b6001600160a01b039081166000908152600360205260409020541690565b6040516001600160a01b039091168152602001610240565b6102a061033d3660046116b3565b6108e3565b6102a0610350366004611618565b61095d565b61026c61036336600461169a565b6109df565b61037b6103763660046116df565b610a00565b604080516001600160a01b0390961686526020860194909452928401919091526060830152608082015260a001610240565b6102a06103bb3660046116df565b610a49565b6102a06103ce36600461169a565b610a79565b6102a06103e13660046116df565b610a8a565b61026c6103f43660046116fa565b610ab7565b61026c60085481565b6104156104103660046116df565b610b19565b604051610240919061171c565b6102a0610b92565b6102346104383660046116b3565b610c18565b61026c600081565b6102a06104533660046116df565b610c41565b61026c60015481565b6102a061046f36600461169a565b610c6f565b61026c60095481565b6102a061048b36600461169a565b610c80565b6102a061049e3660046116b3565b610d93565b6102a06104b13660046116df565b610db8565b600554610317906001600160a01b031681565b6102a06104d73660046116fa565b610de6565b61026c600a81565b600654610317906001600160a01b031681565b6102a06105053660046116df565b610e3b565b6102a061051836600461175d565b610e69565b61023461052b3660046116df565b6001600160a01b031660009081526004602052604090205460ff1690565b60006001600160e01b03198216637965db0b60e01b148061057a57506301ffc9a760e01b6001600160e01b03198316145b92915050565b6060600061058e848461119c565b90506000808267ffffffffffffffff8111156105ac576105ac611787565b6040519080825280602002602001820160405280156105f157816020015b60408051808201909152600080825260208201528152602001906001900390816105ca5790505b50905060006105ff87610b19565b905060005b815181101561073657604051806040016040528083838151811061062a5761062a61179d565b60200260200101516001600160a01b0316815260200188600161064d91906117c9565b8152508385815181106106625761066261179d565b60200260200101819052508380610678906117e1565b9450600a90506106898860016117c9565b10156107245760006106bb8383815181106106a6576106a661179d565b602002602001015189600161025791906117c9565b905060005b8151811015610721578181815181106106db576106db61179d565b60200260200101518587815181106106f5576106f561179d565b6020026020010181905250858061070b906117e1565b9650508080610719906117e1565b9150506106c0565b50505b8061072e816117e1565b915050610604565b50909695505050505050565b6001600160a01b0382166000908152600360205260408120429060019081019061076c90856117fc565b600a811061077c5761077c61179d565b0154119392505050565b600061079181611207565b50600855565b6000828152602081905260409020600101546107b281611207565b6107bc8383611214565b505050565b600081116108075760405162461bcd60e51b815260206004820152600e60248201526d546f6f206c6f77206c6576656c7360901b60448201526064015b60405180910390fd5b600a81111561084a5760405162461bcd60e51b815260206004820152600f60248201526e546f6f206d756368206c6576656c7360881b60448201526064016107fe565b60006008548261085a9190611813565b6005549091506001600160a01b03166379cc6790336040516001600160e01b031960e084901b1681526001600160a01b03909116600482015260248101849052604401600060405180830381600087803b1580156108b757600080fd5b505af11580156108cb573d6000803e3d6000fd5b505050506108df6108d93390565b83611298565b5050565b6001600160a01b03811633146109535760405162461bcd60e51b815260206004820152602f60248201527f416363657373436f6e74726f6c3a2063616e206f6e6c792072656e6f756e636560448201526e103937b632b9903337b91039b2b63360891b60648201526084016107fe565b6108df828261136d565b6109663361052b565b6109ab5760405162461bcd60e51b81526020600482015260166024820152751059191c995cdcc81b9bdd08185d5d1a1bdc9a5e995960521b60448201526064016107fe565b6001600160a01b0382166000908152600360205260408120600b0180548392906109d69084906117c9565b90915550505050565b600281815481106109ef57600080fd5b600091825260209091200154905081565b6001600160a01b0380821660009081526003602052604081208054600b820154600c830154600d840154929095169490939092610a3d878361119c565b91505091939590929450565b6000610a5481611207565b506001600160a01b03166000908152600460205260409020805460ff19166001179055565b6000610a8481611207565b50600155565b6000610a9581611207565b506001600160a01b03166000908152600460205260409020805460ff19169055565b6000808211610ac557600080fd5b600a821115610ad357600080fd5b60646002610ae26001856117fc565b81548110610af257610af261179d565b906000526020600020015484610b089190611813565b610b129190611832565b9392505050565b6001600160a01b038116600090815260036020908152604091829020600d01805483518184028101840190945280845260609392830182828015610b8657602002820191906000526020600020905b81546001600160a01b03168152600190910190602001808311610b68575b50505050509050919050565b6005546001600160a01b03166379cc6790336009546040516001600160e01b031960e085901b1681526001600160a01b0390921660048301526024820152604401600060405180830381600087803b158015610bed57600080fd5b505af1158015610c01573d6000803e3d6000fd5b50505050610c16610c0f3390565b600a611298565b565b6000918252602082815260408084206001600160a01b0393909316845291905290205460ff1690565b6000610c4c81611207565b50600580546001600160a01b0319166001600160a01b0392909216919091179055565b6000610c7a81611207565b50600955565b336000908152600360205260409020600c810154600b8201548391610ca4916117fc565b1015610ce85760405162461bcd60e51b8152602060048201526013602482015272125b9cdd59999a58da595b9d08185b5bdd5b9d606a1b60448201526064016107fe565b8181600c016000828254610cfc91906117c9565b90915550506006546007546001600160a01b03918216916323b872dd9116336040516001600160e01b031960e085901b1681526001600160a01b03928316600482015291166024820152604481018590526064016020604051808303816000875af1158015610d6f573d6000803e3d6000fd5b505050506040513d601f19601f820116820180604052508101906107bc9190611854565b600082815260208190526040902060010154610dae81611207565b6107bc838361136d565b6000610dc381611207565b50600780546001600160a01b0319166001600160a01b0392909216919091179055565b6000610df181611207565b60008311610dfe57600080fd5b600a831115610e0c57600080fd5b816002610e1a6001866117fc565b81548110610e2a57610e2a61179d565b600091825260209091200155505050565b6000610e4681611207565b50600680546001600160a01b0319166001600160a01b0392909216919091179055565b610e723361052b565b610eb75760405162461bcd60e51b81526020600482015260166024820152751059191c995cdcc81b9bdd08185d5d1a1bdc9a5e995960521b60448201526064016107fe565b6001600160a01b038216610f045760405162461bcd60e51b815260206004820152601460248201527355736572206973207a65726f206164647265737360601b60448201526064016107fe565b6001600160a01b038116610f5a5760405162461bcd60e51b815260206004820152601860248201527f5265666572726572206973207a65726f2061646472657373000000000000000060448201526064016107fe565b816001600160a01b0316816001600160a01b03161415610fbc5760405162461bcd60e51b815260206004820152601860248201527f52656665727265722063616e206e6f742062652075736572000000000000000060448201526064016107fe565b6001600160a01b0382811660009081526003602052604090205416156110245760405162461bcd60e51b815260206004820152601d60248201527f526566657272657220697320616c72656164792073706563696669656400000060448201526064016107fe565b61102f816001610742565b61107b5760405162461bcd60e51b815260206004820152601c60248201527f526566657272657220686173206e6f20737562736372697074696f6e0000000060448201526064016107fe565b6001600160a01b03808316600081815260036020908152604080832080549587166001600160a01b0319968716811790915583528220600d01805460018101825590835290822001805490931690911790915581905b600a811015611156576001600160a01b0382166000908152600360205260409020601881015460ff161561113d57600181600e0183600a81106111165761111661179d565b01600082825461112691906117c9565b909155505080546001600160a01b03169250611143565b50611156565b508061114e816117e1565b9150506110d1565b50826001600160a01b0316826001600160a01b03167f3f6a300e641007b6c88b17485d36e2d83c20409a1c5e79bfa1f4eb69ea09469560405160405180910390a3505050565b6001600160a01b038216600090815260036020526040812081805b6111c285600a6117fc565b8110156111fe5782600e0181600a81106111de576111de61179d565b01546111ea90836117c9565b9150806111f6816117e1565b9150506111b7565b50949350505050565b61121181336113d2565b50565b61121e8282610c18565b6108df576000828152602081815260408083206001600160a01b03851684529091529020805460ff191660011790556112543390565b6001600160a01b0316816001600160a01b0316837f2f8788117e7eff1d82e926ec794901d17c78024a50270940304540a733656f0d60405160405180910390a45050565b6000600154620151806112ab9190611813565b6112b590426117c9565b905060005b82811015611304576001600160a01b0384166000908152600360205260409020829060010182600a81106112f0576112f061179d565b0155806112fc816117e1565b9150506112ba565b506001600160a01b03831660008181526003602052604090819020601801805460ff19166001179055514291907ff94991dcbea6e8ac439cbc93bd9c62a4d39f04e0ad656df9a703f13552c2787f906113609086815260200190565b60405180910390a3505050565b6113778282610c18565b156108df576000828152602081815260408083206001600160a01b0385168085529252808320805460ff1916905551339285917ff6391f5c32d9c69d2a47ea670b442974b53935d1edc7fd64eb21e047a839171b9190a45050565b6113dc8282610c18565b6108df576113f4816001600160a01b03166014611436565b6113ff836020611436565b6040516020016114109291906118a6565b60408051601f198184030181529082905262461bcd60e51b82526107fe9160040161191b565b60606000611445836002611813565b6114509060026117c9565b67ffffffffffffffff81111561146857611468611787565b6040519080825280601f01601f191660200182016040528015611492576020820181803683370190505b509050600360fc1b816000815181106114ad576114ad61179d565b60200101906001600160f81b031916908160001a905350600f60fb1b816001815181106114dc576114dc61179d565b60200101906001600160f81b031916908160001a9053506000611500846002611813565b61150b9060016117c9565b90505b6001811115611583576f181899199a1a9b1b9c1cb0b131b232b360811b85600f166010811061153f5761153f61179d565b1a60f81b8282815181106115555761155561179d565b60200101906001600160f81b031916908160001a90535060049490941c9361157c8161194e565b905061150e565b508315610b125760405162461bcd60e51b815260206004820181905260248201527f537472696e67733a20686578206c656e67746820696e73756666696369656e7460448201526064016107fe565b6000602082840312156115e457600080fd5b81356001600160e01b031981168114610b1257600080fd5b80356001600160a01b038116811461161357600080fd5b919050565b6000806040838503121561162b57600080fd5b611634836115fc565b946020939093013593505050565b602080825282518282018190526000919060409081850190868401855b8281101561168d57815180516001600160a01b0316855286015186850152928401929085019060010161165f565b5091979650505050505050565b6000602082840312156116ac57600080fd5b5035919050565b600080604083850312156116c657600080fd5b823591506116d6602084016115fc565b90509250929050565b6000602082840312156116f157600080fd5b610b12826115fc565b6000806040838503121561170d57600080fd5b50508035926020909101359150565b6020808252825182820181905260009190848201906040850190845b818110156107365783516001600160a01b031683529284019291840191600101611738565b6000806040838503121561177057600080fd5b611779836115fc565b91506116d6602084016115fc565b634e487b7160e01b600052604160045260246000fd5b634e487b7160e01b600052603260045260246000fd5b634e487b7160e01b600052601160045260246000fd5b600082198211156117dc576117dc6117b3565b500190565b60006000198214156117f5576117f56117b3565b5060010190565b60008282101561180e5761180e6117b3565b500390565b600081600019048311821515161561182d5761182d6117b3565b500290565b60008261184f57634e487b7160e01b600052601260045260246000fd5b500490565b60006020828403121561186657600080fd5b81518015158114610b1257600080fd5b60005b83811015611891578181015183820152602001611879565b838111156118a0576000848401525b50505050565b7f416363657373436f6e74726f6c3a206163636f756e74200000000000000000008152600083516118de816017850160208801611876565b7001034b99036b4b9b9b4b733903937b6329607d1b601791840191820152835161190f816028840160208801611876565b01602801949350505050565b602081526000825180602084015261193a816040850160208701611876565b601f01601f19169190910160400192915050565b60008161195d5761195d6117b3565b50600019019056fea264697066735822122030618b8a28fc65431b77e680da19dda9a09a88423f5e7e6f852b4bc0a27acd8564736f6c634300080b0033",
  "devdoc": {
    "kind": "dev",
    "methods": {
      "getRoleAdmin(bytes32)": {
        "details": "Returns the admin role that controls `role`. See {grantRole} and {revokeRole}. To change a role's admin, use {_setRoleAdmin}."
      },
      "grantRole(bytes32,address)": {
        "details": "Grants `role` to `account`. If `account` had not been already granted `role`, emits a {RoleGranted} event. Requirements: - the caller must have ``role``'s admin role. May emit a {RoleGranted} event."
      },
      "hasRole(bytes32,address)": {
        "details": "Returns `true` if `account` has been granted `role`."
      },
      "renounceRole(bytes32,address)": {
        "details": "Revokes `role` from the calling account. Roles are often managed via {grantRole} and {revokeRole}: this function's purpose is to provide a mechanism for accounts to lose their privileges if they are compromised (such as when a trusted device is misplaced). If the calling account had been revoked `role`, emits a {RoleRevoked} event. Requirements: - the caller must be `account`. May emit a {RoleRevoked} event."
      },
      "revokeRole(bytes32,address)": {
        "details": "Revokes `role` from `account`. If `account` had been granted `role`, emits a {RoleRevoked} event. Requirements: - the caller must have ``role``'s admin role. May emit a {RoleRevoked} event."
      },
      "supportsInterface(bytes4)": {
        "details": "See {IERC165-supportsInterface}."
      }
    },
    "version": 1
  },
  "userdoc": {
    "kind": "user",
    "methods": {},
    "version": 1
  },
  "storageLayout": {
    "storage": [
      {
        "astId": 24,
        "contract": "contracts/ReferralManager.sol:ReferralManager",
        "label": "_roles",
        "offset": 0,
        "slot": "0",
        "type": "t_mapping(t_bytes32,t_struct(RoleData)19_storage)"
      },
      {
        "astId": 3488,
        "contract": "contracts/ReferralManager.sol:ReferralManager",
        "label": "SUBSCRIPTION_PERIOD_DAYS",
        "offset": 0,
        "slot": "1",
        "type": "t_uint256"
      },
      {
        "astId": 3502,
        "contract": "contracts/ReferralManager.sol:ReferralManager",
        "label": "REFERRAL_PERCENTS",
        "offset": 0,
        "slot": "2",
        "type": "t_array(t_uint256)dyn_storage"
      },
      {
        "astId": 3532,
        "contract": "contracts/ReferralManager.sol:ReferralManager",
        "label": "users",
        "offset": 0,
        "slot": "3",
        "type": "t_mapping(t_address,t_struct(User)3522_storage)"
      },
      {
        "astId": 3536,
        "contract": "contracts/ReferralManager.sol:ReferralManager",
        "label": "authorizedContracts",
        "offset": 0,
        "slot": "4",
        "type": "t_mapping(t_address,t_bool)"
      },
      {
        "astId": 3539,
        "contract": "contracts/ReferralManager.sol:ReferralManager",
        "label": "subscriptionToken",
        "offset": 0,
        "slot": "5",
        "type": "t_contract(ERC20Burnable)1248"
      },
      {
        "astId": 3542,
        "contract": "contracts/ReferralManager.sol:ReferralManager",
        "label": "rewardToken",
        "offset": 0,
        "slot": "6",
        "type": "t_contract(IERC20)1204"
      },
      {
        "astId": 3544,
        "contract": "contracts/ReferralManager.sol:ReferralManager",
        "label": "rewardPool",
        "offset": 0,
        "slot": "7",
        "type": "t_address"
      },
      {
        "astId": 3546,
        "contract": "contracts/ReferralManager.sol:ReferralManager",
        "label": "levelSubscriptionCost",
        "offset": 0,
        "slot": "8",
        "type": "t_uint256"
      },
      {
        "astId": 3548,
        "contract": "contracts/ReferralManager.sol:ReferralManager",
        "label": "fullSubscriptionCost",
        "offset": 0,
        "slot": "9",
        "type": "t_uint256"
      }
    ],
    "types": {
      "t_address": {
        "encoding": "inplace",
        "label": "address",
        "numberOfBytes": "20"
      },
      "t_array(t_address)dyn_storage": {
        "base": "t_address",
        "encoding": "dynamic_array",
        "label": "address[]",
        "numberOfBytes": "32"
      },
      "t_array(t_uint256)10_storage": {
        "base": "t_uint256",
        "encoding": "inplace",
        "label": "uint256[10]",
        "numberOfBytes": "320"
      },
      "t_array(t_uint256)dyn_storage": {
        "base": "t_uint256",
        "encoding": "dynamic_array",
        "label": "uint256[]",
        "numberOfBytes": "32"
      },
      "t_bool": {
        "encoding": "inplace",
        "label": "bool",
        "numberOfBytes": "1"
      },
      "t_bytes32": {
        "encoding": "inplace",
        "label": "bytes32",
        "numberOfBytes": "32"
      },
      "t_contract(ERC20Burnable)1248": {
        "encoding": "inplace",
        "label": "contract ERC20Burnable",
        "numberOfBytes": "20"
      },
      "t_contract(IERC20)1204": {
        "encoding": "inplace",
        "label": "contract IERC20",
        "numberOfBytes": "20"
      },
      "t_mapping(t_address,t_bool)": {
        "encoding": "mapping",
        "key": "t_address",
        "label": "mapping(address => bool)",
        "numberOfBytes": "32",
        "value": "t_bool"
      },
      "t_mapping(t_address,t_struct(User)3522_storage)": {
        "encoding": "mapping",
        "key": "t_address",
        "label": "mapping(address => struct ReferralManager.User)",
        "numberOfBytes": "32",
        "value": "t_struct(User)3522_storage"
      },
      "t_mapping(t_bytes32,t_struct(RoleData)19_storage)": {
        "encoding": "mapping",
        "key": "t_bytes32",
        "label": "mapping(bytes32 => struct AccessControl.RoleData)",
        "numberOfBytes": "32",
        "value": "t_struct(RoleData)19_storage"
      },
      "t_struct(RoleData)19_storage": {
        "encoding": "inplace",
        "label": "struct AccessControl.RoleData",
        "members": [
          {
            "astId": 16,
            "contract": "contracts/ReferralManager.sol:ReferralManager",
            "label": "members",
            "offset": 0,
            "slot": "0",
            "type": "t_mapping(t_address,t_bool)"
          },
          {
            "astId": 18,
            "contract": "contracts/ReferralManager.sol:ReferralManager",
            "label": "adminRole",
            "offset": 0,
            "slot": "1",
            "type": "t_bytes32"
          }
        ],
        "numberOfBytes": "64"
      },
      "t_struct(User)3522_storage": {
        "encoding": "inplace",
        "label": "struct ReferralManager.User",
        "members": [
          {
            "astId": 3504,
            "contract": "contracts/ReferralManager.sol:ReferralManager",
            "label": "referrer",
            "offset": 0,
            "slot": "0",
            "type": "t_address"
          },
          {
            "astId": 3508,
            "contract": "contracts/ReferralManager.sol:ReferralManager",
            "label": "activeLevels",
            "offset": 0,
            "slot": "1",
            "type": "t_array(t_uint256)10_storage"
          },
          {
            "astId": 3510,
            "contract": "contracts/ReferralManager.sol:ReferralManager",
            "label": "totalRefDividends",
            "offset": 0,
            "slot": "11",
            "type": "t_uint256"
          },
          {
            "astId": 3512,
            "contract": "contracts/ReferralManager.sol:ReferralManager",
            "label": "totalRefDividendsClaimed",
            "offset": 0,
            "slot": "12",
            "type": "t_uint256"
          },
          {
            "astId": 3515,
            "contract": "contracts/ReferralManager.sol:ReferralManager",
            "label": "referrals_1_lvl",
            "offset": 0,
            "slot": "13",
            "type": "t_array(t_address)dyn_storage"
          },
          {
            "astId": 3519,
            "contract": "contracts/ReferralManager.sol:ReferralManager",
            "label": "refCount",
            "offset": 0,
            "slot": "14",
            "type": "t_array(t_uint256)10_storage"
          },
          {
            "astId": 3521,
            "contract": "contracts/ReferralManager.sol:ReferralManager",
            "label": "isActive",
            "offset": 0,
            "slot": "24",
            "type": "t_bool"
          }
        ],
        "numberOfBytes": "800"
      },
      "t_uint256": {
        "encoding": "inplace",
        "label": "uint256",
        "numberOfBytes": "32"
      }
    }
  }
}