{
  "address": "0x0b081618A40E9796E99fcB5e3992A8B2E5CA736b",
  "abi": [
    {
      "inputs": [
        {
          "internalType": "address",
          "name": "subscriptionToken_",
          "type": "address"
        },
        {
          "internalType": "address",
          "name": "rewardToken_",
          "type": "address"
        },
        {
          "internalType": "address",
          "name": "rewardPool_",
          "type": "address"
        },
        {
          "internalType": "uint256",
          "name": "fullSubscriptionCost_",
          "type": "uint256"
        },
        {
          "internalType": "uint256",
          "name": "levelSubscriptionCost_",
          "type": "uint256"
        }
      ],
      "stateMutability": "nonpayable",
      "type": "constructor"
    },
    {
      "anonymous": false,
      "inputs": [
        {
          "indexed": true,
          "internalType": "address",
          "name": "referrer",
          "type": "address"
        },
        {
          "indexed": true,
          "internalType": "address",
          "name": "referral",
          "type": "address"
        }
      ],
      "name": "ReferralAdded",
      "type": "event"
    },
    {
      "anonymous": false,
      "inputs": [
        {
          "indexed": true,
          "internalType": "bytes32",
          "name": "role",
          "type": "bytes32"
        },
        {
          "indexed": true,
          "internalType": "bytes32",
          "name": "previousAdminRole",
          "type": "bytes32"
        },
        {
          "indexed": true,
          "internalType": "bytes32",
          "name": "newAdminRole",
          "type": "bytes32"
        }
      ],
      "name": "RoleAdminChanged",
      "type": "event"
    },
    {
      "anonymous": false,
      "inputs": [
        {
          "indexed": true,
          "internalType": "bytes32",
          "name": "role",
          "type": "bytes32"
        },
        {
          "indexed": true,
          "internalType": "address",
          "name": "account",
          "type": "address"
        },
        {
          "indexed": true,
          "internalType": "address",
          "name": "sender",
          "type": "address"
        }
      ],
      "name": "RoleGranted",
      "type": "event"
    },
    {
      "anonymous": false,
      "inputs": [
        {
          "indexed": true,
          "internalType": "bytes32",
          "name": "role",
          "type": "bytes32"
        },
        {
          "indexed": true,
          "internalType": "address",
          "name": "account",
          "type": "address"
        },
        {
          "indexed": true,
          "internalType": "address",
          "name": "sender",
          "type": "address"
        }
      ],
      "name": "RoleRevoked",
      "type": "event"
    },
    {
      "anonymous": false,
      "inputs": [
        {
          "indexed": true,
          "internalType": "address",
          "name": "subscriber",
          "type": "address"
        },
        {
          "indexed": false,
          "internalType": "uint256",
          "name": "levels",
          "type": "uint256"
        },
        {
          "indexed": true,
          "internalType": "uint256",
          "name": "timestamp",
          "type": "uint256"
        }
      ],
      "name": "Subscribed",
      "type": "event"
    },
    {
      "inputs": [],
      "name": "DEFAULT_ADMIN_ROLE",
      "outputs": [
        {
          "internalType": "bytes32",
          "name": "",
          "type": "bytes32"
        }
      ],
      "stateMutability": "view",
      "type": "function"
    },
    {
      "inputs": [],
      "name": "LEVELS",
      "outputs": [
        {
          "internalType": "uint256",
          "name": "",
          "type": "uint256"
        }
      ],
      "stateMutability": "view",
      "type": "function"
    },
    {
      "inputs": [
        {
          "internalType": "uint256",
          "name": "",
          "type": "uint256"
        }
      ],
      "name": "REFERRAL_PERCENTS",
      "outputs": [
        {
          "internalType": "uint256",
          "name": "",
          "type": "uint256"
        }
      ],
      "stateMutability": "view",
      "type": "function"
    },
    {
      "inputs": [],
      "name": "SUBSCRIPTION_PERIOD_DAYS",
      "outputs": [
        {
          "internalType": "uint256",
          "name": "",
          "type": "uint256"
        }
      ],
      "stateMutability": "view",
      "type": "function"
    },
    {
      "inputs": [
        {
          "internalType": "address",
          "name": "user",
          "type": "address"
        },
        {
          "internalType": "uint256",
          "name": "reward",
          "type": "uint256"
        }
      ],
      "name": "addUserDividends",
      "outputs": [],
      "stateMutability": "nonpayable",
      "type": "function"
    },
    {
      "inputs": [
        {
          "internalType": "address",
          "name": "contractAddress",
          "type": "address"
        }
      ],
      "name": "authorizeContract",
      "outputs": [],
      "stateMutability": "nonpayable",
      "type": "function"
    },
    {
      "inputs": [
        {
          "internalType": "uint256",
          "name": "amount",
          "type": "uint256"
        },
        {
          "internalType": "uint256",
          "name": "level",
          "type": "uint256"
        }
      ],
      "name": "calculateRefReward",
      "outputs": [
        {
          "internalType": "uint256",
          "name": "",
          "type": "uint256"
        }
      ],
      "stateMutability": "view",
      "type": "function"
    },
    {
      "inputs": [
        {
          "internalType": "uint256",
          "name": "amount",
          "type": "uint256"
        }
      ],
      "name": "claimDividends",
      "outputs": [],
      "stateMutability": "nonpayable",
      "type": "function"
    },
    {
      "inputs": [],
      "name": "fullSubscriptionCost",
      "outputs": [
        {
          "internalType": "uint256",
          "name": "",
          "type": "uint256"
        }
      ],
      "stateMutability": "view",
      "type": "function"
    },
    {
      "inputs": [],
      "name": "getReferralLevels",
      "outputs": [
        {
          "internalType": "uint256",
          "name": "",
          "type": "uint256"
        }
      ],
      "stateMutability": "pure",
      "type": "function"
    },
    {
      "inputs": [
        {
          "internalType": "bytes32",
          "name": "role",
          "type": "bytes32"
        }
      ],
      "name": "getRoleAdmin",
      "outputs": [
        {
          "internalType": "bytes32",
          "name": "",
          "type": "bytes32"
        }
      ],
      "stateMutability": "view",
      "type": "function"
    },
    {
      "inputs": [
        {
          "internalType": "address",
          "name": "userAddress",
          "type": "address"
        }
      ],
      "name": "getUser1LvlReferrals",
      "outputs": [
        {
          "internalType": "address[]",
          "name": "",
          "type": "address[]"
        }
      ],
      "stateMutability": "view",
      "type": "function"
    },
    {
      "inputs": [
        {
          "internalType": "address",
          "name": "userAddress",
          "type": "address"
        }
      ],
      "name": "getUserInfo",
      "outputs": [
        {
          "internalType": "address",
          "name": "referrer",
          "type": "address"
        },
        {
          "internalType": "uint256",
          "name": "totalDividends",
          "type": "uint256"
        },
        {
          "internalType": "uint256",
          "name": "totalClaimedDividends",
          "type": "uint256"
        },
        {
          "internalType": "uint256",
          "name": "referrals_1_lvl",
          "type": "uint256"
        },
        {
          "internalType": "uint256",
          "name": "totalReferrals",
          "type": "uint256"
        }
      ],
      "stateMutability": "view",
      "type": "function"
    },
    {
      "inputs": [
        {
          "internalType": "address",
          "name": "userAddress",
          "type": "address"
        },
        {
          "internalType": "uint256",
          "name": "level",
          "type": "uint256"
        }
      ],
      "name": "getUserLvlReferralsCount",
      "outputs": [
        {
          "internalType": "uint256",
          "name": "",
          "type": "uint256"
        }
      ],
      "stateMutability": "view",
      "type": "function"
    },
    {
      "inputs": [
        {
          "internalType": "address",
          "name": "userAddress",
          "type": "address"
        },
        {
          "internalType": "uint256",
          "name": "currentLevel",
          "type": "uint256"
        }
      ],
      "name": "getUserReferrals",
      "outputs": [
        {
          "components": [
            {
              "internalType": "address",
              "name": "referralAddress",
              "type": "address"
            },
            {
              "internalType": "uint256",
              "name": "level",
              "type": "uint256"
            }
          ],
          "internalType": "struct ReferralManager.Referral[]",
          "name": "",
          "type": "tuple[]"
        }
      ],
      "stateMutability": "view",
      "type": "function"
    },
    {
      "inputs": [
        {
          "internalType": "address",
          "name": "user",
          "type": "address"
        }
      ],
      "name": "getUserReferrer",
      "outputs": [
        {
          "internalType": "address",
          "name": "",
          "type": "address"
        }
      ],
      "stateMutability": "view",
      "type": "function"
    },
    {
      "inputs": [
        {
          "internalType": "bytes32",
          "name": "role",
          "type": "bytes32"
        },
        {
          "internalType": "address",
          "name": "account",
          "type": "address"
        }
      ],
      "name": "grantRole",
      "outputs": [],
      "stateMutability": "nonpayable",
      "type": "function"
    },
    {
      "inputs": [
        {
          "internalType": "bytes32",
          "name": "role",
          "type": "bytes32"
        },
        {
          "internalType": "address",
          "name": "account",
          "type": "address"
        }
      ],
      "name": "hasRole",
      "outputs": [
        {
          "internalType": "bool",
          "name": "",
          "type": "bool"
        }
      ],
      "stateMutability": "view",
      "type": "function"
    },
    {
      "inputs": [
        {
          "internalType": "address",
          "name": "contractAddress",
          "type": "address"
        }
      ],
      "name": "isAuthorized",
      "outputs": [
        {
          "internalType": "bool",
          "name": "",
          "type": "bool"
        }
      ],
      "stateMutability": "view",
      "type": "function"
    },
    {
      "inputs": [],
      "name": "levelSubscriptionCost",
      "outputs": [
        {
          "internalType": "uint256",
          "name": "",
          "type": "uint256"
        }
      ],
      "stateMutability": "view",
      "type": "function"
    },
    {
      "inputs": [
        {
          "internalType": "address",
          "name": "contractAddress",
          "type": "address"
        }
      ],
      "name": "removeContractAuthorization",
      "outputs": [],
      "stateMutability": "nonpayable",
      "type": "function"
    },
    {
      "inputs": [
        {
          "internalType": "bytes32",
          "name": "role",
          "type": "bytes32"
        },
        {
          "internalType": "address",
          "name": "account",
          "type": "address"
        }
      ],
      "name": "renounceRole",
      "outputs": [],
      "stateMutability": "nonpayable",
      "type": "function"
    },
    {
      "inputs": [
        {
          "internalType": "bytes32",
          "name": "role",
          "type": "bytes32"
        },
        {
          "internalType": "address",
          "name": "account",
          "type": "address"
        }
      ],
      "name": "revokeRole",
      "outputs": [],
      "stateMutability": "nonpayable",
      "type": "function"
    },
    {
      "inputs": [],
      "name": "rewardToken",
      "outputs": [
        {
          "internalType": "contract IERC20",
          "name": "",
          "type": "address"
        }
      ],
      "stateMutability": "view",
      "type": "function"
    },
    {
      "inputs": [
        {
          "internalType": "address",
          "name": "user",
          "type": "address"
        },
        {
          "internalType": "address",
          "name": "referrer",
          "type": "address"
        }
      ],
      "name": "setUserReferrer",
      "outputs": [],
      "stateMutability": "nonpayable",
      "type": "function"
    },
    {
      "inputs": [],
      "name": "subscribeToAllLevels",
      "outputs": [],
      "stateMutability": "nonpayable",
      "type": "function"
    },
    {
      "inputs": [
        {
          "internalType": "uint256",
          "name": "level",
          "type": "uint256"
        }
      ],
      "name": "subscribeToLevel",
      "outputs": [],
      "stateMutability": "nonpayable",
      "type": "function"
    },
    {
      "inputs": [],
      "name": "subscriptionToken",
      "outputs": [
        {
          "internalType": "contract ERC20Burnable",
          "name": "",
          "type": "address"
        }
      ],
      "stateMutability": "view",
      "type": "function"
    },
    {
      "inputs": [
        {
          "internalType": "bytes4",
          "name": "interfaceId",
          "type": "bytes4"
        }
      ],
      "name": "supportsInterface",
      "outputs": [
        {
          "internalType": "bool",
          "name": "",
          "type": "bool"
        }
      ],
      "stateMutability": "view",
      "type": "function"
    },
    {
      "inputs": [
        {
          "internalType": "uint256",
          "name": "cost",
          "type": "uint256"
        }
      ],
      "name": "updateFullSubscriptionCost",
      "outputs": [],
      "stateMutability": "nonpayable",
      "type": "function"
    },
    {
      "inputs": [
        {
          "internalType": "uint256",
          "name": "cost",
          "type": "uint256"
        }
      ],
      "name": "updateLevelSubscriptionCost",
      "outputs": [],
      "stateMutability": "nonpayable",
      "type": "function"
    },
    {
      "inputs": [
        {
          "internalType": "uint256",
          "name": "level",
          "type": "uint256"
        },
        {
          "internalType": "uint256",
          "name": "percent",
          "type": "uint256"
        }
      ],
      "name": "updateReferralPercent",
      "outputs": [],
      "stateMutability": "nonpayable",
      "type": "function"
    },
    {
      "inputs": [
        {
          "internalType": "address",
          "name": "poolAddress",
          "type": "address"
        }
      ],
      "name": "updateRewardPool",
      "outputs": [],
      "stateMutability": "nonpayable",
      "type": "function"
    },
    {
      "inputs": [
        {
          "internalType": "address",
          "name": "token",
          "type": "address"
        }
      ],
      "name": "updateRewardToken",
      "outputs": [],
      "stateMutability": "nonpayable",
      "type": "function"
    },
    {
      "inputs": [
        {
          "internalType": "uint256",
          "name": "durationDays",
          "type": "uint256"
        }
      ],
      "name": "updateSubscriptionPeriod",
      "outputs": [],
      "stateMutability": "nonpayable",
      "type": "function"
    },
    {
      "inputs": [
        {
          "internalType": "address",
          "name": "token",
          "type": "address"
        }
      ],
      "name": "updateSubscriptionToken",
      "outputs": [],
      "stateMutability": "nonpayable",
      "type": "function"
    },
    {
      "inputs": [
        {
          "internalType": "address",
          "name": "user",
          "type": "address"
        },
        {
          "internalType": "uint256",
          "name": "level",
          "type": "uint256"
        }
      ],
      "name": "userHasSubscription",
      "outputs": [
        {
          "internalType": "bool",
          "name": "",
          "type": "bool"
        }
      ],
      "stateMutability": "view",
      "type": "function"
    }
  ],
  "transactionHash": "0x46f90a8262b14794eec210f705d8ebec22436e32bbec6aa05b0dd81fb9dd3d51",
  "args": [
    "0xb233eD04eDFde4f4480E8A610F064910efD943db",
    "0xaEa217b8568B82BBC9F050F3aA1B39427C866606",
    "0xf982D706f37Cb781D567395877EC35eDCB7Cf65C",
    "5000000000000000000",
    "1000000000000000000"
  ],
  "numDeployments": 2,
  "solcInputHash": "91af671f7f38b45a4ffcc87218ea28e7",
  "bytecode": "0x61016d6001556101c060405260646080908152605a60a052605060c052604660e052603c61010052603261012052602861014052601e61016052601461018052600a6101a08190526200005591600291620001d9565b503480156200006357600080fd5b5060405162001d8c38038062001d8c833981016040819052620000869162000262565b6001600160a01b0385166200009a57600080fd5b6001600160a01b038416620000ae57600080fd5b6001600160a01b038316620000c257600080fd5b60008211620000d057600080fd5b60008111620000de57600080fd5b620000eb60003362000138565b600580546001600160a01b03199081166001600160a01b039788161790915560068054821695871695909517909455600780549094169290941691909117909155600955600855620002bf565b6000828152602081815260408083206001600160a01b038516845290915290205460ff16620001d5576000828152602081815260408083206001600160a01b03851684529091529020805460ff19166001179055620001943390565b6001600160a01b0316816001600160a01b0316837f2f8788117e7eff1d82e926ec794901d17c78024a50270940304540a733656f0d60405160405180910390a45b5050565b8280548282559060005260206000209081019282156200021c579160200282015b828111156200021c578251829060ff16905591602001919060010190620001fa565b506200022a9291506200022e565b5090565b5b808211156200022a57600081556001016200022f565b80516001600160a01b03811681146200025d57600080fd5b919050565b600080600080600060a086880312156200027b57600080fd5b620002868662000245565b9450620002966020870162000245565b9350620002a66040870162000245565b6060870151608090970151959894975095949392505050565b611abd80620002cf6000396000f3fe608060405234801561001057600080fd5b50600436106102275760003560e01c806391a9e4a211610130578063d547741f116100b8578063f7c618c11161007c578063f7c618c1146104ef578063f7d93c0d14610502578063f8cf31cb14610515578063f8d0e6ec14610528578063fe9fbb801461053b57600080fd5b8063d547741f1461049b578063d5fbac3a146104ae578063d6672e1c146104c1578063dc6492a5146104d4578063e2adba8c146104e757600080fd5b8063a243d5ac116100ff578063a243d5ac14610450578063aaa138a214610463578063acb101631461046c578063b32cf5cf1461047f578063bd7047c41461048857600080fd5b806391a9e4a21461041a57806391d14854146104225780639d7594a714610435578063a217fddf1461044857600080fd5b80633fb55c61116101b3578063736560b511610182578063736560b5146103b85780637f24f0f2146103cb57806384197dbb146103de57806389b684f5146103f15780638ebb3c81146103fa57600080fd5b80633fb55c611461033a578063600d20ce1461034d5780636386c1c71461036057806367561d93146103a557600080fd5b80630dcb3c8a116101fa5780630dcb3c8a14610298578063248a9ca3146102ad5780632f2ff15d146102d057806336144c9a146102e357806336568abe1461032757600080fd5b806301ffc9a71461022c57806304b107a214610254578063070d451f1461027457806307fd4d9614610285575b600080fd5b61023f61023a3660046116f4565b610567565b60405190151581526020015b60405180910390f35b61026761026236600461173a565b61059e565b60405161024b9190611764565b600a5b60405190815260200161024b565b61023f61029336600461173a565b610760565b6102ab6102a63660046117bc565b6107a4565b005b6102776102bb3660046117bc565b60009081526020819052604090206001015490565b6102ab6102de3660046117d5565b6107b5565b61030f6102f1366004611801565b6001600160a01b039081166000908152600360205260409020541690565b6040516001600160a01b03909116815260200161024b565b6102ab6103353660046117d5565b6107df565b6102ab61034836600461173a565b610862565b61027761035b3660046117bc565b6108e4565b61037361036e366004611801565b610905565b604080516001600160a01b0390961686526020860194909452928401919091526060830152608082015260a00161024b565b6102ab6103b3366004611801565b61094e565b6102ab6103c63660046117bc565b61097e565b6102ab6103d9366004611801565b61098f565b6102776103ec36600461181c565b6109bc565b61027760085481565b61040d610408366004611801565b610a1e565b60405161024b919061183e565b6102ab610a97565b61023f6104303660046117d5565b610bd0565b6102ab6104433660046117bc565b610bf9565b610277600081565b6102ab61045e366004611801565b610d85565b61027760015481565b6102ab61047a3660046117bc565b610db3565b61027760095481565b6102ab6104963660046117bc565b610dc4565b6102ab6104a93660046117d5565b610ed7565b6102ab6104bc366004611801565b610efc565b60055461030f906001600160a01b031681565b6102ab6104e236600461181c565b610f2a565b610277600a81565b60065461030f906001600160a01b031681565b61027761051036600461173a565b610f7f565b6102ab610523366004611801565b610fbe565b6102ab61053636600461187f565b610fec565b61023f610549366004611801565b6001600160a01b031660009081526004602052604090205460ff1690565b60006001600160e01b03198216637965db0b60e01b148061059857506301ffc9a760e01b6001600160e01b03198316145b92915050565b606060006105ac8484611371565b90506000808267ffffffffffffffff8111156105ca576105ca6118a9565b60405190808252806020026020018201604052801561060f57816020015b60408051808201909152600080825260208201528152602001906001900390816105e85790505b509050600061061d87610a1e565b905060005b8151811015610754576040518060400160405280838381518110610648576106486118bf565b60200260200101516001600160a01b0316815260200188600161066b91906118eb565b815250838581518110610680576106806118bf565b6020026020010181905250838061069690611903565b9450600a90506106a78860016118eb565b10156107425760006106d98383815181106106c4576106c46118bf565b602002602001015189600161026291906118eb565b905060005b815181101561073f578181815181106106f9576106f96118bf565b6020026020010151858781518110610713576107136118bf565b6020026020010181905250858061072990611903565b965050808061073790611903565b9150506106de565b50505b8061074c81611903565b915050610622565b50909695505050505050565b6001600160a01b0382166000908152600360205260408120429060019081019061078a908561191e565b600a811061079a5761079a6118bf565b0154119392505050565b60006107af816113dc565b50600855565b6000828152602081905260409020600101546107d0816113dc565b6107da83836113e9565b505050565b6001600160a01b03811633146108545760405162461bcd60e51b815260206004820152602f60248201527f416363657373436f6e74726f6c3a2063616e206f6e6c792072656e6f756e636560448201526e103937b632b9903337b91039b2b63360891b60648201526084015b60405180910390fd5b61085e828261146d565b5050565b61086b33610549565b6108b05760405162461bcd60e51b81526020600482015260166024820152751059191c995cdcc81b9bdd08185d5d1a1bdc9a5e995960521b604482015260640161084b565b6001600160a01b0382166000908152600360205260408120600b0180548392906108db9084906118eb565b90915550505050565b600281815481106108f457600080fd5b600091825260209091200154905081565b6001600160a01b0380821660009081526003602052604081208054600b820154600c830154600d8401549290951694909390926109428783611371565b91505091939590929450565b6000610959816113dc565b506001600160a01b03166000908152600460205260409020805460ff19166001179055565b6000610989816113dc565b50600155565b600061099a816113dc565b506001600160a01b03166000908152600460205260409020805460ff19169055565b60008082116109ca57600080fd5b600a8211156109d857600080fd5b606460026109e760018561191e565b815481106109f7576109f76118bf565b906000526020600020015484610a0d9190611935565b610a179190611954565b9392505050565b6001600160a01b038116600090815260036020908152604091829020600d01805483518184028101840190945280845260609392830182828015610a8b57602002820191906000526020600020905b81546001600160a01b03168152600190910190602001808311610a6d575b50505050509050919050565b60003360055460095460405163079cc67960e41b81526001600160a01b038085166004830152602482019290925292935016906379cc679090604401600060405180830381600087803b158015610aed57600080fd5b505af1158015610b01573d6000803e3d6000fd5b505050506000610b0f6114d2565b905060005b600a811015610b5f576001600160a01b0383166000908152600360205260409020829060010182600a8110610b4b57610b4b6118bf565b015580610b5781611903565b915050610b14565b506001600160a01b0382166000818152600360205260409020601801805460ff191660019081179091554291907ff94991dcbea6e8ac439cbc93bd9c62a4d39f04e0ad656df9a703f13552c2787f90610bba90600a906118eb565b6040519081526020015b60405180910390a35050565b6000918252602082815260408084206001600160a01b0393909316845291905290205460ff1690565b60008111610c395760405162461bcd60e51b815260206004820152600d60248201526c151bdbc81b1bddc81b195d995b609a1b604482015260640161084b565b600a811115610c7a5760405162461bcd60e51b815260206004820152600d60248201526c151bdbc8189a59c81b195d995b609a1b604482015260640161084b565b60003360055460085460405163079cc67960e41b81526001600160a01b038085166004830152602482019290925292935016906379cc679090604401600060405180830381600087803b158015610cd057600080fd5b505af1158015610ce4573d6000803e3d6000fd5b50505050610cf06114d2565b6001600160a01b0382166000908152600360205260409020600190810190610d18908561191e565b600a8110610d2857610d286118bf565b01556001600160a01b03811660008181526003602052604090819020601801805460ff19166001179055514291907ff94991dcbea6e8ac439cbc93bd9c62a4d39f04e0ad656df9a703f13552c2787f90610bc49086815260200190565b6000610d90816113dc565b50600580546001600160a01b0319166001600160a01b0392909216919091179055565b6000610dbe816113dc565b50600955565b336000908152600360205260409020600c810154600b8201548391610de89161191e565b1015610e2c5760405162461bcd60e51b8152602060048201526013602482015272125b9cdd59999a58da595b9d08185b5bdd5b9d606a1b604482015260640161084b565b8181600c016000828254610e4091906118eb565b90915550506006546007546001600160a01b03918216916323b872dd9116336040516001600160e01b031960e085901b1681526001600160a01b03928316600482015291166024820152604481018590526064016020604051808303816000875af1158015610eb3573d6000803e3d6000fd5b505050506040513d601f19601f820116820180604052508101906107da9190611976565b600082815260208190526040902060010154610ef2816113dc565b6107da838361146d565b6000610f07816113dc565b50600780546001600160a01b0319166001600160a01b0392909216919091179055565b6000610f35816113dc565b60008311610f4257600080fd5b600a831115610f5057600080fd5b816002610f5e60018661191e565b81548110610f6e57610f6e6118bf565b600091825260209091200155505050565b6001600160a01b0382166000908152600360205260408120600e01610fa560018461191e565b600a8110610fb557610fb56118bf565b01549392505050565b6000610fc9816113dc565b50600680546001600160a01b0319166001600160a01b0392909216919091179055565b610ff533610549565b61103a5760405162461bcd60e51b81526020600482015260166024820152751059191c995cdcc81b9bdd08185d5d1a1bdc9a5e995960521b604482015260640161084b565b6001600160a01b0382166110875760405162461bcd60e51b815260206004820152601460248201527355736572206973207a65726f206164647265737360601b604482015260640161084b565b6001600160a01b0381166110dd5760405162461bcd60e51b815260206004820152601860248201527f5265666572726572206973207a65726f20616464726573730000000000000000604482015260640161084b565b816001600160a01b0316816001600160a01b0316141561113f5760405162461bcd60e51b815260206004820152601860248201527f52656665727265722063616e206e6f7420626520757365720000000000000000604482015260640161084b565b6001600160a01b0382811660009081526003602052604090205416156111a75760405162461bcd60e51b815260206004820152601d60248201527f526566657272657220697320616c726561647920737065636966696564000000604482015260640161084b565b6111b2816001610760565b6111fe5760405162461bcd60e51b815260206004820152601c60248201527f526566657272657220686173206e6f20737562736372697074696f6e00000000604482015260640161084b565b6001600160a01b03808316600081815260036020908152604080832080549587166001600160a01b0319968716811790915583528220600d01805460018101825590835290822001805490931690911790915581905b600a81101561132b57836001600160a01b0316826001600160a01b031614156112af5760405162461bcd60e51b815260206004820152600d60248201526c4379636c696320636861696e2160981b604482015260640161084b565b6001600160a01b0382166000908152600360205260409020601881015460ff161561131257600181600e0183600a81106112eb576112eb6118bf565b0160008282546112fb91906118eb565b909155505080546001600160a01b03169250611318565b5061132b565b508061132381611903565b915050611254565b50826001600160a01b0316826001600160a01b03167f3f6a300e641007b6c88b17485d36e2d83c20409a1c5e79bfa1f4eb69ea09469560405160405180910390a3505050565b6001600160a01b038216600090815260036020526040812081805b61139785600a61191e565b8110156113d35782600e0181600a81106113b3576113b36118bf565b01546113bf90836118eb565b9150806113cb81611903565b91505061138c565b50949350505050565b6113e681336114f4565b50565b6113f38282610bd0565b61085e576000828152602081815260408083206001600160a01b03851684529091529020805460ff191660011790556114293390565b6001600160a01b0316816001600160a01b0316837f2f8788117e7eff1d82e926ec794901d17c78024a50270940304540a733656f0d60405160405180910390a45050565b6114778282610bd0565b1561085e576000828152602081815260408083206001600160a01b0385168085529252808320805460ff1916905551339285917ff6391f5c32d9c69d2a47ea670b442974b53935d1edc7fd64eb21e047a839171b9190a45050565b6000600154620151806114e59190611935565b6114ef90426118eb565b905090565b6114fe8282610bd0565b61085e57611516816001600160a01b03166014611558565b611521836020611558565b6040516020016115329291906119c8565b60408051601f198184030181529082905262461bcd60e51b825261084b91600401611a3d565b60606000611567836002611935565b6115729060026118eb565b67ffffffffffffffff81111561158a5761158a6118a9565b6040519080825280601f01601f1916602001820160405280156115b4576020820181803683370190505b509050600360fc1b816000815181106115cf576115cf6118bf565b60200101906001600160f81b031916908160001a905350600f60fb1b816001815181106115fe576115fe6118bf565b60200101906001600160f81b031916908160001a9053506000611622846002611935565b61162d9060016118eb565b90505b60018111156116a5576f181899199a1a9b1b9c1cb0b131b232b360811b85600f1660108110611661576116616118bf565b1a60f81b828281518110611677576116776118bf565b60200101906001600160f81b031916908160001a90535060049490941c9361169e81611a70565b9050611630565b508315610a175760405162461bcd60e51b815260206004820181905260248201527f537472696e67733a20686578206c656e67746820696e73756666696369656e74604482015260640161084b565b60006020828403121561170657600080fd5b81356001600160e01b031981168114610a1757600080fd5b80356001600160a01b038116811461173557600080fd5b919050565b6000806040838503121561174d57600080fd5b6117568361171e565b946020939093013593505050565b602080825282518282018190526000919060409081850190868401855b828110156117af57815180516001600160a01b03168552860151868501529284019290850190600101611781565b5091979650505050505050565b6000602082840312156117ce57600080fd5b5035919050565b600080604083850312156117e857600080fd5b823591506117f86020840161171e565b90509250929050565b60006020828403121561181357600080fd5b610a178261171e565b6000806040838503121561182f57600080fd5b50508035926020909101359150565b6020808252825182820181905260009190848201906040850190845b818110156107545783516001600160a01b03168352928401929184019160010161185a565b6000806040838503121561189257600080fd5b61189b8361171e565b91506117f86020840161171e565b634e487b7160e01b600052604160045260246000fd5b634e487b7160e01b600052603260045260246000fd5b634e487b7160e01b600052601160045260246000fd5b600082198211156118fe576118fe6118d5565b500190565b6000600019821415611917576119176118d5565b5060010190565b600082821015611930576119306118d5565b500390565b600081600019048311821515161561194f5761194f6118d5565b500290565b60008261197157634e487b7160e01b600052601260045260246000fd5b500490565b60006020828403121561198857600080fd5b81518015158114610a1757600080fd5b60005b838110156119b357818101518382015260200161199b565b838111156119c2576000848401525b50505050565b7f416363657373436f6e74726f6c3a206163636f756e7420000000000000000000815260008351611a00816017850160208801611998565b7001034b99036b4b9b9b4b733903937b6329607d1b6017918401918201528351611a31816028840160208801611998565b01602801949350505050565b6020815260008251806020840152611a5c816040850160208701611998565b601f01601f19169190910160400192915050565b600081611a7f57611a7f6118d5565b50600019019056fea2646970667358221220f83847dd7c896c8993b082ae8e5dfa04168d2ae1415ecaf0ead9c01a96038ab864736f6c634300080b0033",
  "devdoc": {
    "kind": "dev",
    "methods": {
      "getRoleAdmin(bytes32)": {
        "details": "Returns the admin role that controls `role`. See {grantRole} and {revokeRole}. To change a role's admin, use {_setRoleAdmin}."
      },
      "grantRole(bytes32,address)": {
        "details": "Grants `role` to `account`. If `account` had not been already granted `role`, emits a {RoleGranted} event. Requirements: - the caller must have ``role``'s admin role. May emit a {RoleGranted} event."
      },
      "hasRole(bytes32,address)": {
        "details": "Returns `true` if `account` has been granted `role`."
      },
      "renounceRole(bytes32,address)": {
        "details": "Revokes `role` from the calling account. Roles are often managed via {grantRole} and {revokeRole}: this function's purpose is to provide a mechanism for accounts to lose their privileges if they are compromised (such as when a trusted device is misplaced). If the calling account had been revoked `role`, emits a {RoleRevoked} event. Requirements: - the caller must be `account`. May emit a {RoleRevoked} event."
      },
      "revokeRole(bytes32,address)": {
        "details": "Revokes `role` from `account`. If `account` had been granted `role`, emits a {RoleRevoked} event. Requirements: - the caller must have ``role``'s admin role. May emit a {RoleRevoked} event."
      },
      "supportsInterface(bytes4)": {
        "details": "See {IERC165-supportsInterface}."
      }
    },
    "version": 1
  },
  "userdoc": {
    "kind": "user",
    "methods": {},
    "version": 1
  },
  "storageLayout": {
    "storage": [
      {
        "astId": 24,
        "contract": "contracts/ReferralManager.sol:ReferralManager",
        "label": "_roles",
        "offset": 0,
        "slot": "0",
        "type": "t_mapping(t_bytes32,t_struct(RoleData)19_storage)"
      },
      {
        "astId": 3488,
        "contract": "contracts/ReferralManager.sol:ReferralManager",
        "label": "SUBSCRIPTION_PERIOD_DAYS",
        "offset": 0,
        "slot": "1",
        "type": "t_uint256"
      },
      {
        "astId": 3502,
        "contract": "contracts/ReferralManager.sol:ReferralManager",
        "label": "REFERRAL_PERCENTS",
        "offset": 0,
        "slot": "2",
        "type": "t_array(t_uint256)dyn_storage"
      },
      {
        "astId": 3532,
        "contract": "contracts/ReferralManager.sol:ReferralManager",
        "label": "users",
        "offset": 0,
        "slot": "3",
        "type": "t_mapping(t_address,t_struct(User)3522_storage)"
      },
      {
        "astId": 3536,
        "contract": "contracts/ReferralManager.sol:ReferralManager",
        "label": "authorizedContracts",
        "offset": 0,
        "slot": "4",
        "type": "t_mapping(t_address,t_bool)"
      },
      {
        "astId": 3539,
        "contract": "contracts/ReferralManager.sol:ReferralManager",
        "label": "subscriptionToken",
        "offset": 0,
        "slot": "5",
        "type": "t_contract(ERC20Burnable)1248"
      },
      {
        "astId": 3542,
        "contract": "contracts/ReferralManager.sol:ReferralManager",
        "label": "rewardToken",
        "offset": 0,
        "slot": "6",
        "type": "t_contract(IERC20)1204"
      },
      {
        "astId": 3544,
        "contract": "contracts/ReferralManager.sol:ReferralManager",
        "label": "rewardPool",
        "offset": 0,
        "slot": "7",
        "type": "t_address"
      },
      {
        "astId": 3546,
        "contract": "contracts/ReferralManager.sol:ReferralManager",
        "label": "levelSubscriptionCost",
        "offset": 0,
        "slot": "8",
        "type": "t_uint256"
      },
      {
        "astId": 3548,
        "contract": "contracts/ReferralManager.sol:ReferralManager",
        "label": "fullSubscriptionCost",
        "offset": 0,
        "slot": "9",
        "type": "t_uint256"
      }
    ],
    "types": {
      "t_address": {
        "encoding": "inplace",
        "label": "address",
        "numberOfBytes": "20"
      },
      "t_array(t_address)dyn_storage": {
        "base": "t_address",
        "encoding": "dynamic_array",
        "label": "address[]",
        "numberOfBytes": "32"
      },
      "t_array(t_uint256)10_storage": {
        "base": "t_uint256",
        "encoding": "inplace",
        "label": "uint256[10]",
        "numberOfBytes": "320"
      },
      "t_array(t_uint256)dyn_storage": {
        "base": "t_uint256",
        "encoding": "dynamic_array",
        "label": "uint256[]",
        "numberOfBytes": "32"
      },
      "t_bool": {
        "encoding": "inplace",
        "label": "bool",
        "numberOfBytes": "1"
      },
      "t_bytes32": {
        "encoding": "inplace",
        "label": "bytes32",
        "numberOfBytes": "32"
      },
      "t_contract(ERC20Burnable)1248": {
        "encoding": "inplace",
        "label": "contract ERC20Burnable",
        "numberOfBytes": "20"
      },
      "t_contract(IERC20)1204": {
        "encoding": "inplace",
        "label": "contract IERC20",
        "numberOfBytes": "20"
      },
      "t_mapping(t_address,t_bool)": {
        "encoding": "mapping",
        "key": "t_address",
        "label": "mapping(address => bool)",
        "numberOfBytes": "32",
        "value": "t_bool"
      },
      "t_mapping(t_address,t_struct(User)3522_storage)": {
        "encoding": "mapping",
        "key": "t_address",
        "label": "mapping(address => struct ReferralManager.User)",
        "numberOfBytes": "32",
        "value": "t_struct(User)3522_storage"
      },
      "t_mapping(t_bytes32,t_struct(RoleData)19_storage)": {
        "encoding": "mapping",
        "key": "t_bytes32",
        "label": "mapping(bytes32 => struct AccessControl.RoleData)",
        "numberOfBytes": "32",
        "value": "t_struct(RoleData)19_storage"
      },
      "t_struct(RoleData)19_storage": {
        "encoding": "inplace",
        "label": "struct AccessControl.RoleData",
        "members": [
          {
            "astId": 16,
            "contract": "contracts/ReferralManager.sol:ReferralManager",
            "label": "members",
            "offset": 0,
            "slot": "0",
            "type": "t_mapping(t_address,t_bool)"
          },
          {
            "astId": 18,
            "contract": "contracts/ReferralManager.sol:ReferralManager",
            "label": "adminRole",
            "offset": 0,
            "slot": "1",
            "type": "t_bytes32"
          }
        ],
        "numberOfBytes": "64"
      },
      "t_struct(User)3522_storage": {
        "encoding": "inplace",
        "label": "struct ReferralManager.User",
        "members": [
          {
            "astId": 3504,
            "contract": "contracts/ReferralManager.sol:ReferralManager",
            "label": "referrer",
            "offset": 0,
            "slot": "0",
            "type": "t_address"
          },
          {
            "astId": 3508,
            "contract": "contracts/ReferralManager.sol:ReferralManager",
            "label": "activeLevels",
            "offset": 0,
            "slot": "1",
            "type": "t_array(t_uint256)10_storage"
          },
          {
            "astId": 3510,
            "contract": "contracts/ReferralManager.sol:ReferralManager",
            "label": "totalRefDividends",
            "offset": 0,
            "slot": "11",
            "type": "t_uint256"
          },
          {
            "astId": 3512,
            "contract": "contracts/ReferralManager.sol:ReferralManager",
            "label": "totalRefDividendsClaimed",
            "offset": 0,
            "slot": "12",
            "type": "t_uint256"
          },
          {
            "astId": 3515,
            "contract": "contracts/ReferralManager.sol:ReferralManager",
            "label": "referrals_1_lvl",
            "offset": 0,
            "slot": "13",
            "type": "t_array(t_address)dyn_storage"
          },
          {
            "astId": 3519,
            "contract": "contracts/ReferralManager.sol:ReferralManager",
            "label": "refCount",
            "offset": 0,
            "slot": "14",
            "type": "t_array(t_uint256)10_storage"
          },
          {
            "astId": 3521,
            "contract": "contracts/ReferralManager.sol:ReferralManager",
            "label": "isActive",
            "offset": 0,
            "slot": "24",
            "type": "t_bool"
          }
        ],
        "numberOfBytes": "800"
      },
      "t_uint256": {
        "encoding": "inplace",
        "label": "uint256",
        "numberOfBytes": "32"
      }
    }
  }
}