{
  "address": "0x5010f7806A07706A80Ac5F22E742694a2cE7eE3f",
  "abi": [
    {
      "inputs": [
        {
          "internalType": "address",
          "name": "subscriptionToken_",
          "type": "address"
        },
        {
          "internalType": "address",
          "name": "rewardToken_",
          "type": "address"
        },
        {
          "internalType": "address",
          "name": "rewardPool_",
          "type": "address"
        },
        {
          "internalType": "uint256",
          "name": "fullSubscriptionCost_",
          "type": "uint256"
        },
        {
          "internalType": "uint256",
          "name": "levelSubscriptionCost_",
          "type": "uint256"
        }
      ],
      "stateMutability": "nonpayable",
      "type": "constructor"
    },
    {
      "anonymous": false,
      "inputs": [
        {
          "indexed": true,
          "internalType": "address",
          "name": "referrer",
          "type": "address"
        },
        {
          "indexed": true,
          "internalType": "address",
          "name": "referral",
          "type": "address"
        },
        {
          "indexed": true,
          "internalType": "uint256",
          "name": "level",
          "type": "uint256"
        },
        {
          "indexed": false,
          "internalType": "uint256",
          "name": "depositAmount",
          "type": "uint256"
        },
        {
          "indexed": false,
          "internalType": "uint256",
          "name": "rewardAmount",
          "type": "uint256"
        },
        {
          "indexed": false,
          "internalType": "uint256",
          "name": "stakingPlanId",
          "type": "uint256"
        },
        {
          "indexed": false,
          "internalType": "uint256",
          "name": "reason",
          "type": "uint256"
        },
        {
          "indexed": false,
          "internalType": "uint256",
          "name": "timestamp",
          "type": "uint256"
        }
      ],
      "name": "DividendsAdded",
      "type": "event"
    },
    {
      "anonymous": false,
      "inputs": [
        {
          "indexed": true,
          "internalType": "address",
          "name": "referrer",
          "type": "address"
        },
        {
          "indexed": true,
          "internalType": "address",
          "name": "referral",
          "type": "address"
        }
      ],
      "name": "ReferralAdded",
      "type": "event"
    },
    {
      "anonymous": false,
      "inputs": [
        {
          "indexed": true,
          "internalType": "bytes32",
          "name": "role",
          "type": "bytes32"
        },
        {
          "indexed": true,
          "internalType": "bytes32",
          "name": "previousAdminRole",
          "type": "bytes32"
        },
        {
          "indexed": true,
          "internalType": "bytes32",
          "name": "newAdminRole",
          "type": "bytes32"
        }
      ],
      "name": "RoleAdminChanged",
      "type": "event"
    },
    {
      "anonymous": false,
      "inputs": [
        {
          "indexed": true,
          "internalType": "bytes32",
          "name": "role",
          "type": "bytes32"
        },
        {
          "indexed": true,
          "internalType": "address",
          "name": "account",
          "type": "address"
        },
        {
          "indexed": true,
          "internalType": "address",
          "name": "sender",
          "type": "address"
        }
      ],
      "name": "RoleGranted",
      "type": "event"
    },
    {
      "anonymous": false,
      "inputs": [
        {
          "indexed": true,
          "internalType": "bytes32",
          "name": "role",
          "type": "bytes32"
        },
        {
          "indexed": true,
          "internalType": "address",
          "name": "account",
          "type": "address"
        },
        {
          "indexed": true,
          "internalType": "address",
          "name": "sender",
          "type": "address"
        }
      ],
      "name": "RoleRevoked",
      "type": "event"
    },
    {
      "anonymous": false,
      "inputs": [
        {
          "indexed": true,
          "internalType": "address",
          "name": "subscriber",
          "type": "address"
        },
        {
          "indexed": false,
          "internalType": "uint256",
          "name": "levels",
          "type": "uint256"
        },
        {
          "indexed": true,
          "internalType": "uint256",
          "name": "timestamp",
          "type": "uint256"
        }
      ],
      "name": "Subscribed",
      "type": "event"
    },
    {
      "inputs": [],
      "name": "DEFAULT_ADMIN_ROLE",
      "outputs": [
        {
          "internalType": "bytes32",
          "name": "",
          "type": "bytes32"
        }
      ],
      "stateMutability": "view",
      "type": "function"
    },
    {
      "inputs": [],
      "name": "LEVELS",
      "outputs": [
        {
          "internalType": "uint256",
          "name": "",
          "type": "uint256"
        }
      ],
      "stateMutability": "view",
      "type": "function"
    },
    {
      "inputs": [
        {
          "internalType": "uint256",
          "name": "",
          "type": "uint256"
        }
      ],
      "name": "REFERRAL_PERCENTS",
      "outputs": [
        {
          "internalType": "uint256",
          "name": "",
          "type": "uint256"
        }
      ],
      "stateMutability": "view",
      "type": "function"
    },
    {
      "inputs": [],
      "name": "SUBSCRIPTION_PERIOD_DAYS",
      "outputs": [
        {
          "internalType": "uint256",
          "name": "",
          "type": "uint256"
        }
      ],
      "stateMutability": "view",
      "type": "function"
    },
    {
      "inputs": [
        {
          "components": [
            {
              "internalType": "address",
              "name": "user",
              "type": "address"
            },
            {
              "internalType": "uint256",
              "name": "reward",
              "type": "uint256"
            },
            {
              "internalType": "address",
              "name": "referral",
              "type": "address"
            },
            {
              "internalType": "uint256",
              "name": "level",
              "type": "uint256"
            },
            {
              "internalType": "uint256",
              "name": "depositAmount",
              "type": "uint256"
            },
            {
              "internalType": "uint256",
              "name": "stakingPlanId",
              "type": "uint256"
            },
            {
              "internalType": "uint256",
              "name": "reason",
              "type": "uint256"
            }
          ],
          "internalType": "struct IReferralManager.AddDividendsParams",
          "name": "params",
          "type": "tuple"
        }
      ],
      "name": "addUserDividends",
      "outputs": [],
      "stateMutability": "nonpayable",
      "type": "function"
    },
    {
      "inputs": [
        {
          "internalType": "address",
          "name": "contractAddress",
          "type": "address"
        }
      ],
      "name": "authorizeContract",
      "outputs": [],
      "stateMutability": "nonpayable",
      "type": "function"
    },
    {
      "inputs": [
        {
          "internalType": "uint256",
          "name": "amount",
          "type": "uint256"
        },
        {
          "internalType": "uint256",
          "name": "level",
          "type": "uint256"
        }
      ],
      "name": "calculateRefReward",
      "outputs": [
        {
          "internalType": "uint256",
          "name": "",
          "type": "uint256"
        }
      ],
      "stateMutability": "view",
      "type": "function"
    },
    {
      "inputs": [
        {
          "internalType": "uint256",
          "name": "amount",
          "type": "uint256"
        }
      ],
      "name": "claimDividends",
      "outputs": [],
      "stateMutability": "nonpayable",
      "type": "function"
    },
    {
      "inputs": [],
      "name": "fullSubscriptionCost",
      "outputs": [
        {
          "internalType": "uint256",
          "name": "",
          "type": "uint256"
        }
      ],
      "stateMutability": "view",
      "type": "function"
    },
    {
      "inputs": [],
      "name": "getReferralLevels",
      "outputs": [
        {
          "internalType": "uint256",
          "name": "",
          "type": "uint256"
        }
      ],
      "stateMutability": "pure",
      "type": "function"
    },
    {
      "inputs": [
        {
          "internalType": "bytes32",
          "name": "role",
          "type": "bytes32"
        }
      ],
      "name": "getRoleAdmin",
      "outputs": [
        {
          "internalType": "bytes32",
          "name": "",
          "type": "bytes32"
        }
      ],
      "stateMutability": "view",
      "type": "function"
    },
    {
      "inputs": [],
      "name": "getTimestamp",
      "outputs": [
        {
          "internalType": "uint256",
          "name": "",
          "type": "uint256"
        }
      ],
      "stateMutability": "view",
      "type": "function"
    },
    {
      "inputs": [
        {
          "internalType": "address",
          "name": "userAddress",
          "type": "address"
        }
      ],
      "name": "getUser1LvlReferrals",
      "outputs": [
        {
          "internalType": "address[]",
          "name": "",
          "type": "address[]"
        }
      ],
      "stateMutability": "view",
      "type": "function"
    },
    {
      "inputs": [
        {
          "internalType": "address",
          "name": "userAddress",
          "type": "address"
        }
      ],
      "name": "getUserInfo",
      "outputs": [
        {
          "internalType": "address",
          "name": "referrer",
          "type": "address"
        },
        {
          "internalType": "uint256[10]",
          "name": "activeLevels",
          "type": "uint256[10]"
        },
        {
          "internalType": "uint256",
          "name": "totalDividends",
          "type": "uint256"
        },
        {
          "internalType": "uint256",
          "name": "totalClaimedDividends",
          "type": "uint256"
        },
        {
          "internalType": "address[]",
          "name": "referrals_1_lvl",
          "type": "address[]"
        },
        {
          "internalType": "uint256[10]",
          "name": "refCount",
          "type": "uint256[10]"
        },
        {
          "internalType": "uint256",
          "name": "totalReferrals",
          "type": "uint256"
        },
        {
          "internalType": "bool",
          "name": "isActiveSubscriber",
          "type": "bool"
        },
        {
          "internalType": "uint256",
          "name": "activationDate",
          "type": "uint256"
        }
      ],
      "stateMutability": "view",
      "type": "function"
    },
    {
      "inputs": [
        {
          "internalType": "address",
          "name": "userAddress",
          "type": "address"
        },
        {
          "internalType": "uint256",
          "name": "level",
          "type": "uint256"
        }
      ],
      "name": "getUserReferralsByLevel",
      "outputs": [
        {
          "components": [
            {
              "internalType": "address",
              "name": "referralAddress",
              "type": "address"
            },
            {
              "internalType": "uint256",
              "name": "level",
              "type": "uint256"
            },
            {
              "internalType": "uint256",
              "name": "activationDate",
              "type": "uint256"
            },
            {
              "internalType": "bool",
              "name": "isReferralSubscriptionActive",
              "type": "bool"
            }
          ],
          "internalType": "struct IReferralManager.Referral[]",
          "name": "",
          "type": "tuple[]"
        }
      ],
      "stateMutability": "view",
      "type": "function"
    },
    {
      "inputs": [
        {
          "internalType": "address",
          "name": "user",
          "type": "address"
        }
      ],
      "name": "getUserReferrer",
      "outputs": [
        {
          "internalType": "address",
          "name": "",
          "type": "address"
        }
      ],
      "stateMutability": "view",
      "type": "function"
    },
    {
      "inputs": [
        {
          "internalType": "bytes32",
          "name": "role",
          "type": "bytes32"
        },
        {
          "internalType": "address",
          "name": "account",
          "type": "address"
        }
      ],
      "name": "grantRole",
      "outputs": [],
      "stateMutability": "nonpayable",
      "type": "function"
    },
    {
      "inputs": [
        {
          "internalType": "bytes32",
          "name": "role",
          "type": "bytes32"
        },
        {
          "internalType": "address",
          "name": "account",
          "type": "address"
        }
      ],
      "name": "hasRole",
      "outputs": [
        {
          "internalType": "bool",
          "name": "",
          "type": "bool"
        }
      ],
      "stateMutability": "view",
      "type": "function"
    },
    {
      "inputs": [
        {
          "internalType": "address",
          "name": "contractAddress",
          "type": "address"
        }
      ],
      "name": "isAuthorized",
      "outputs": [
        {
          "internalType": "bool",
          "name": "",
          "type": "bool"
        }
      ],
      "stateMutability": "view",
      "type": "function"
    },
    {
      "inputs": [],
      "name": "levelSubscriptionCost",
      "outputs": [
        {
          "internalType": "uint256",
          "name": "",
          "type": "uint256"
        }
      ],
      "stateMutability": "view",
      "type": "function"
    },
    {
      "inputs": [
        {
          "internalType": "address",
          "name": "contractAddress",
          "type": "address"
        }
      ],
      "name": "removeContractAuthorization",
      "outputs": [],
      "stateMutability": "nonpayable",
      "type": "function"
    },
    {
      "inputs": [
        {
          "internalType": "bytes32",
          "name": "role",
          "type": "bytes32"
        },
        {
          "internalType": "address",
          "name": "account",
          "type": "address"
        }
      ],
      "name": "renounceRole",
      "outputs": [],
      "stateMutability": "nonpayable",
      "type": "function"
    },
    {
      "inputs": [
        {
          "internalType": "bytes32",
          "name": "role",
          "type": "bytes32"
        },
        {
          "internalType": "address",
          "name": "account",
          "type": "address"
        }
      ],
      "name": "revokeRole",
      "outputs": [],
      "stateMutability": "nonpayable",
      "type": "function"
    },
    {
      "inputs": [],
      "name": "rewardToken",
      "outputs": [
        {
          "internalType": "contract IERC20",
          "name": "",
          "type": "address"
        }
      ],
      "stateMutability": "view",
      "type": "function"
    },
    {
      "inputs": [
        {
          "internalType": "address",
          "name": "referrer",
          "type": "address"
        }
      ],
      "name": "setMyReferrer",
      "outputs": [],
      "stateMutability": "nonpayable",
      "type": "function"
    },
    {
      "inputs": [
        {
          "internalType": "address",
          "name": "user",
          "type": "address"
        },
        {
          "internalType": "address",
          "name": "referrer",
          "type": "address"
        }
      ],
      "name": "setUserReferrer",
      "outputs": [],
      "stateMutability": "nonpayable",
      "type": "function"
    },
    {
      "inputs": [],
      "name": "subscribeToAllLevels",
      "outputs": [],
      "stateMutability": "nonpayable",
      "type": "function"
    },
    {
      "inputs": [
        {
          "internalType": "uint256",
          "name": "level",
          "type": "uint256"
        }
      ],
      "name": "subscribeToLevel",
      "outputs": [],
      "stateMutability": "nonpayable",
      "type": "function"
    },
    {
      "inputs": [],
      "name": "subscriptionToken",
      "outputs": [
        {
          "internalType": "contract ERC20Burnable",
          "name": "",
          "type": "address"
        }
      ],
      "stateMutability": "view",
      "type": "function"
    },
    {
      "inputs": [
        {
          "internalType": "bytes4",
          "name": "interfaceId",
          "type": "bytes4"
        }
      ],
      "name": "supportsInterface",
      "outputs": [
        {
          "internalType": "bool",
          "name": "",
          "type": "bool"
        }
      ],
      "stateMutability": "view",
      "type": "function"
    },
    {
      "inputs": [
        {
          "internalType": "uint256",
          "name": "cost",
          "type": "uint256"
        }
      ],
      "name": "updateFullSubscriptionCost",
      "outputs": [],
      "stateMutability": "nonpayable",
      "type": "function"
    },
    {
      "inputs": [
        {
          "internalType": "uint256",
          "name": "cost",
          "type": "uint256"
        }
      ],
      "name": "updateLevelSubscriptionCost",
      "outputs": [],
      "stateMutability": "nonpayable",
      "type": "function"
    },
    {
      "inputs": [
        {
          "internalType": "uint256",
          "name": "level",
          "type": "uint256"
        },
        {
          "internalType": "uint256",
          "name": "percent",
          "type": "uint256"
        }
      ],
      "name": "updateReferralPercent",
      "outputs": [],
      "stateMutability": "nonpayable",
      "type": "function"
    },
    {
      "inputs": [
        {
          "internalType": "address",
          "name": "poolAddress",
          "type": "address"
        }
      ],
      "name": "updateRewardPool",
      "outputs": [],
      "stateMutability": "nonpayable",
      "type": "function"
    },
    {
      "inputs": [
        {
          "internalType": "address",
          "name": "token",
          "type": "address"
        }
      ],
      "name": "updateRewardToken",
      "outputs": [],
      "stateMutability": "nonpayable",
      "type": "function"
    },
    {
      "inputs": [
        {
          "internalType": "uint256",
          "name": "durationDays",
          "type": "uint256"
        }
      ],
      "name": "updateSubscriptionPeriod",
      "outputs": [],
      "stateMutability": "nonpayable",
      "type": "function"
    },
    {
      "inputs": [
        {
          "internalType": "address",
          "name": "token",
          "type": "address"
        }
      ],
      "name": "updateSubscriptionToken",
      "outputs": [],
      "stateMutability": "nonpayable",
      "type": "function"
    },
    {
      "inputs": [
        {
          "internalType": "address",
          "name": "user",
          "type": "address"
        }
      ],
      "name": "userHasAnySubscription",
      "outputs": [
        {
          "internalType": "bool",
          "name": "",
          "type": "bool"
        }
      ],
      "stateMutability": "view",
      "type": "function"
    },
    {
      "inputs": [
        {
          "internalType": "address",
          "name": "user",
          "type": "address"
        },
        {
          "internalType": "uint256",
          "name": "level",
          "type": "uint256"
        }
      ],
      "name": "userHasSubscription",
      "outputs": [
        {
          "internalType": "bool",
          "name": "",
          "type": "bool"
        }
      ],
      "stateMutability": "view",
      "type": "function"
    }
  ],
  "transactionHash": "0xc79539598bef7545fc8b06d5ae7f78e15f2d2c485e090b75a659babc2b68bedb",
  "args": [
    "0x6e6B9420DDE50C4678F470cFE696ac2ccbAc3ABF",
    "0x29a9a9Cc0d2e5163f4e38d00c33EC12Dd1f0AEc2",
    "0xf982D706f37Cb781D567395877EC35eDCB7Cf65C",
    "5000000000000000000",
    "1000000000000000000"
  ],
  "numDeployments": 2,
  "solcInputHash": "03ca36f09628810065892d1ca270a172",
  "bytecode": "0x61016d6001556101c060405260646080908152605a60a052605060c052604660e052603c61010052603261012052602861014052601e61016052601461018052600a6101a08190526200005591600291620001d9565b503480156200006357600080fd5b50604051620022ce380380620022ce833981016040819052620000869162000262565b6001600160a01b0385166200009a57600080fd5b6001600160a01b038416620000ae57600080fd5b6001600160a01b038316620000c257600080fd5b60008211620000d057600080fd5b60008111620000de57600080fd5b620000eb60003362000138565b600780546001600160a01b03199081166001600160a01b039788161790915560088054821695871695909517909455600980549094169290941691909117909155600455600355620002bf565b6000828152602081815260408083206001600160a01b038516845290915290205460ff16620001d5576000828152602081815260408083206001600160a01b03851684529091529020805460ff19166001179055620001943390565b6001600160a01b0316816001600160a01b0316837f2f8788117e7eff1d82e926ec794901d17c78024a50270940304540a733656f0d60405160405180910390a45b5050565b8280548282559060005260206000209081019282156200021c579160200282015b828111156200021c578251829060ff16905591602001919060010190620001fa565b506200022a9291506200022e565b5090565b5b808211156200022a57600081556001016200022f565b80516001600160a01b03811681146200025d57600080fd5b919050565b600080600080600060a086880312156200027b57600080fd5b620002868662000245565b9450620002966020870162000245565b9350620002a66040870162000245565b6060870151608090970151959894975095949392505050565b611fff80620002cf6000396000f3fe608060405234801561001057600080fd5b506004361061023d5760003560e01c806391d148541161013b578063d547741f116100b8578063e39092ba1161007c578063e39092ba14610501578063f7c618c114610514578063f8cf31cb14610527578063f8d0e6ec1461053a578063fe9fbb801461054d57600080fd5b8063d547741f146104ad578063d5fbac3a146104c0578063d6672e1c146104d3578063dc6492a5146104e6578063e2adba8c146104f957600080fd5b8063aaa138a2116100ff578063aaa138a214610455578063acb101631461045e578063b09b334f14610471578063b32cf5cf14610491578063bd7047c41461049a57600080fd5b806391d14854146104015780639581f527146104145780639d7594a714610427578063a217fddf1461043a578063a243d5ac1461044257600080fd5b80635919adac116101c95780637f24f0f21161018d5780637f24f0f2146103aa57806384197dbb146103bd57806389b684f5146103d05780638ebb3c81146103d957806391a9e4a2146103f957600080fd5b80635919adac14610336578063600d20ce146103495780636386c1c71461035c57806367561d9314610384578063736560b51461039757600080fd5b8063188ec35611610210578063188ec356146102a3578063248a9ca3146102a95780632f2ff15d146102cc57806336144c9a146102df57806336568abe1461032357600080fd5b806301ffc9a714610242578063070d451f1461026a57806307fd4d961461027b5780630dcb3c8a1461028e575b600080fd5b610255610250366004611aba565b610579565b60405190151581526020015b60405180910390f35b600a5b604051908152602001610261565b610255610289366004611b00565b6105b0565b6102a161029c366004611b2a565b6105f5565b005b4261026d565b61026d6102b7366004611b2a565b60009081526020819052604090206001015490565b6102a16102da366004611b43565b610606565b61030b6102ed366004611b6f565b6001600160a01b039081166000908152600560205260409020541690565b6040516001600160a01b039091168152602001610261565b6102a1610331366004611b43565b610630565b6102a1610344366004611b6f565b6106b3565b61026d610357366004611b2a565b6106c0565b61036f61036a366004611b6f565b6106e1565b60405161026199989796959493929190611bf7565b6102a1610392366004611b6f565b610824565b6102a16103a5366004611b2a565b610854565b6102a16103b8366004611b6f565b610865565b61026d6103cb366004611c6a565b610892565b61026d60035481565b6103ec6103e7366004611b6f565b6108f4565b6040516102619190611c8c565b6102a161096d565b61025561040f366004611b43565b610abb565b6102a1610422366004611cb5565b610ae4565b6102a1610435366004611b2a565b610bf7565b61026d600081565b6102a1610450366004611b6f565b610e2e565b61026d60015481565b6102a161046c366004611b2a565b610e5c565b61048461047f366004611b00565b610e6d565b6040516102619190611d53565b61026d60045481565b6102a16104a8366004611b2a565b610e7b565b6102a16104bb366004611b43565b611050565b6102a16104ce366004611b6f565b611075565b60075461030b906001600160a01b031681565b6102a16104f4366004611c6a565b6110a3565b61026d600a81565b61025561050f366004611b6f565b6110f8565b60085461030b906001600160a01b031681565b6102a1610535366004611b6f565b611138565b6102a1610548366004611dc2565b611166565b61025561055b366004611b6f565b6001600160a01b031660009081526006602052604090205460ff1690565b60006001600160e01b03198216637965db0b60e01b14806105aa57506301ffc9a760e01b6001600160e01b03198316145b92915050565b6000426001600160a01b03841660009081526005602052604090206001908101906105db9085611e02565b600a81106105eb576105eb611e19565b0154119392505050565b6000610600816111be565b50600355565b600082815260208190526040902060010154610621816111be565b61062b83836111c8565b505050565b6001600160a01b03811633146106a55760405162461bcd60e51b815260206004820152602f60248201527f416363657373436f6e74726f6c3a2063616e206f6e6c792072656e6f756e636560448201526e103937b632b9903337b91039b2b63360891b60648201526084015b60405180910390fd5b6106af828261124c565b5050565b6106bd33826112b1565b50565b600281815481106106d057600080fd5b600091825260209091200154905081565b60006106eb611a9b565b60008060606106f8611a9b565b6001600160a01b0387811660009081526005602052604080822080548251610140810193849052941699509192839283929091906001830190600a9082845b815481526020019060010190808311610737575050505050985080600b0154975080600c0154965080600d018054806020026020016040519081016040528092919081815260200182805480156107b757602002820191906000526020600020905b81546001600160a01b03168152600190910190602001808311610799575b505060408051610140810191829052949a50600e86019350600a9250905082845b8154815260200190600101908083116107d857505050505094506107fd8b60006115f1565b60188201546019909201549a9c999b509799969895979496949560ff909116949350915050565b600061082f816111be565b506001600160a01b03166000908152600660205260409020805460ff19166001179055565b600061085f816111be565b50600155565b6000610870816111be565b506001600160a01b03166000908152600660205260409020805460ff19169055565b60008082116108a057600080fd5b600a8211156108ae57600080fd5b606460026108bd600185611e02565b815481106108cd576108cd611e19565b9060005260206000200154846108e39190611e2f565b6108ed9190611e4e565b9392505050565b6001600160a01b038116600090815260056020908152604091829020600d0180548351818402810184019094528084526060939283018282801561096157602002820191906000526020600020905b81546001600160a01b03168152600190910190602001808311610943575b50505050509050919050565b6000336007546004805460405163079cc67960e41b81526001600160a01b0380861693820193909352602481019190915292935016906379cc679090604401600060405180830381600087803b1580156109c657600080fd5b505af11580156109da573d6000803e3d6000fd5b505050506000600154620151806109f19190611e2f565b6109fb9042611e70565b905060005b600a811015610a4b576001600160a01b0383166000908152600560205260409020829060010182600a8110610a3757610a37611e19565b015580610a4381611e88565b915050610a00565b506001600160a01b0382166000818152600560205260409020601801805460ff191660019081179091554291907ff94991dcbea6e8ac439cbc93bd9c62a4d39f04e0ad656df9a703f13552c2787f90610aa690600a90611e70565b60405190815260200160405180910390a35050565b6000918252602082815260408084206001600160a01b0393909316845291905290205460ff1690565b610aed3361055b565b610b325760405162461bcd60e51b81526020600482015260166024820152751059191c995cdcc81b9bdd08185d5d1a1bdc9a5e995960521b604482015260640161069c565b60208082015182516001600160a01b03166000908152600590925260408220600b01805491929091610b65908490611e70565b92505081905550806060015181604001516001600160a01b031682600001516001600160a01b03167f71e87ac6e13bd74c97691b2342cbc5cb5ca3bdf594c00dd1357f7cfbe6645a16846080015185602001518660a001518760c00151610bc94290565b604080519586526020860194909452928401919091526060830152608082015260a00160405180910390a450565b60008111610c375760405162461bcd60e51b815260206004820152600d60248201526c151bdbc81b1bddc81b195d995b609a1b604482015260640161069c565b600a811115610c785760405162461bcd60e51b815260206004820152600d60248201526c151bdbc8189a59c81b195d995b609a1b604482015260640161069c565b60003360075460035460405163079cc67960e41b81526001600160a01b038085166004830152602482019290925292935016906379cc679090604401600060405180830381600087803b158015610cce57600080fd5b505af1158015610ce2573d6000803e3d6000fd5b505050506000610cef4290565b6001600160a01b0383166000908152600560205260409020600190810190610d179086611e02565b600a8110610d2757610d27611e19565b015410610d6d576001600160a01b0382166000908152600560205260409020600190810190610d569085611e02565b600a8110610d6657610d66611e19565b0154610d6f565b425b905060015462015180610d829190611e2f565b610d8c9082611e70565b6001600160a01b0383166000908152600560205260409020600190810190610db49086611e02565b600a8110610dc457610dc4611e19565b01556001600160a01b03821660008181526005602052604090819020601801805460ff19166001179055518291907ff94991dcbea6e8ac439cbc93bd9c62a4d39f04e0ad656df9a703f13552c2787f90610e219087815260200190565b60405180910390a3505050565b6000610e39816111be565b50600780546001600160a01b0319166001600160a01b0392909216919091179055565b6000610e67816111be565b50600455565b60606108ed8383600161165c565b336000908152600560205260409020600c810154600b8201548391610e9f91611e02565b1015610ee35760405162461bcd60e51b8152602060048201526013602482015272125b9cdd59999a58da595b9d08185b5bdd5b9d606a1b604482015260640161069c565b8181600c016000828254610ef79190611e70565b90915550506008546009546040516370a0823160e01b81526001600160a01b039182166004820152849291909116906370a0823190602401602060405180830381865afa158015610f4c573d6000803e3d6000fd5b505050506040513d601f19601f82011682018060405250810190610f709190611ea3565b1015610fbe5760405162461bcd60e51b815260206004820152601960248201527f4e6f7420656e6f75676820746f6b656e7320696e20706f6f6c00000000000000604482015260640161069c565b6008546009546001600160a01b03918216916323b872dd9116336040516001600160e01b031960e085901b1681526001600160a01b03928316600482015291166024820152604481018590526064016020604051808303816000875af115801561102c573d6000803e3d6000fd5b505050506040513d601f19601f8201168201806040525081019061062b9190611ebc565b60008281526020819052604090206001015461106b816111be565b61062b838361124c565b6000611080816111be565b50600980546001600160a01b0319166001600160a01b0392909216919091179055565b60006110ae816111be565b600083116110bb57600080fd5b600a8311156110c957600080fd5b8160026110d7600186611e02565b815481106110e7576110e7611e19565b600091825260209091200155505050565b600060015b600a811161112f5761110f83826105b0565b1561111d5750600192915050565b8061112781611e88565b9150506110fd565b50600092915050565b6000611143816111be565b50600880546001600160a01b0319166001600160a01b0392909216919091179055565b61116f3361055b565b6111b45760405162461bcd60e51b81526020600482015260166024820152751059191c995cdcc81b9bdd08185d5d1a1bdc9a5e995960521b604482015260640161069c565b6106af82826112b1565b6106bd813361189b565b6111d28282610abb565b6106af576000828152602081815260408083206001600160a01b03851684529091529020805460ff191660011790556112083390565b6001600160a01b0316816001600160a01b0316837f2f8788117e7eff1d82e926ec794901d17c78024a50270940304540a733656f0d60405160405180910390a45050565b6112568282610abb565b156106af576000828152602081815260408083206001600160a01b0385168085529252808320805460ff1916905551339285917ff6391f5c32d9c69d2a47ea670b442974b53935d1edc7fd64eb21e047a839171b9190a45050565b6001600160a01b0382166112fe5760405162461bcd60e51b815260206004820152601460248201527355736572206973207a65726f206164647265737360601b604482015260640161069c565b6001600160a01b0381166113545760405162461bcd60e51b815260206004820152601860248201527f5265666572726572206973207a65726f20616464726573730000000000000000604482015260640161069c565b816001600160a01b0316816001600160a01b031614156113b65760405162461bcd60e51b815260206004820152601860248201527f52656665727265722063616e206e6f7420626520757365720000000000000000604482015260640161069c565b6001600160a01b03828116600090815260056020526040902054161561141e5760405162461bcd60e51b815260206004820152601d60248201527f526566657272657220697320616c726561647920737065636966696564000000604482015260640161069c565b6114298160016105b0565b6114755760405162461bcd60e51b815260206004820152601c60248201527f526566657272657220686173206e6f20737562736372697074696f6e00000000604482015260640161069c565b6001600160a01b03828116600081815260056020908152604080832080549587166001600160a01b0319968716811782554260199092019190915583528220600d01805460018101825590835290822001805490931690911790915581905b600a8110156115ab57836001600160a01b0316826001600160a01b0316141561152f5760405162461bcd60e51b815260206004820152600d60248201526c4379636c696320636861696e2160981b604482015260640161069c565b6001600160a01b0382166000908152600560205260409020601881015460ff161561159257600181600e0183600a811061156b5761156b611e19565b01600082825461157b9190611e70565b909155505080546001600160a01b03169250611598565b506115ab565b50806115a381611e88565b9150506114d4565b50826001600160a01b0316826001600160a01b03167f3f6a300e641007b6c88b17485d36e2d83c20409a1c5e79bfa1f4eb69ea09469560405160405180910390a3505050565b6001600160a01b038216600090815260056020526040812081805b61161785600a611e02565b8110156116535782600e0181600a811061163357611633611e19565b015461163f9083611e70565b91508061164b81611e88565b91505061160c565b50949350505050565b6060828211156116a65760405162461bcd60e51b815260206004820152601560248201527410dd5c9c995b9d081b195d995b080f881b195d995b605a1b604482015260640161069c565b60006116b1856108f4565b6001600160a01b038616600090815260056020526040812091925090600e016116da8587611e02565b600a81106116ea576116ea611e19565b0154905060008167ffffffffffffffff81111561170957611709611c9f565b60405190808252806020026020018201604052801561175b57816020015b6040805160808101825260008082526020808301829052928201819052606082015282526000199092019101816117275790505b5090506000805b845181101561188e57600085828151811061177f5761177f611e19565b60200260200101519050888814156117fb57604080516080810182526001600160a01b03831680825260208083018c90526000918252600590528290206019015491810191909152606081016117d4836110f8565b15158152508483815181106117eb576117eb611e19565b602002602001018190525061187b565b6000611812828b61180d8c6001611e70565b61165c565b905060005b81518110156118785781818151811061183257611832611e19565b602002602001015186868151811061184c5761184c611e19565b6020026020010181905250848061186290611e88565b955050808061187090611e88565b915050611817565b50505b508061188681611e88565b915050611762565b5090979650505050505050565b6118a58282610abb565b6106af576118bd816001600160a01b031660146118ff565b6118c88360206118ff565b6040516020016118d9929190611f0a565b60408051601f198184030181529082905262461bcd60e51b825261069c91600401611f7f565b6060600061190e836002611e2f565b611919906002611e70565b67ffffffffffffffff81111561193157611931611c9f565b6040519080825280601f01601f19166020018201604052801561195b576020820181803683370190505b509050600360fc1b8160008151811061197657611976611e19565b60200101906001600160f81b031916908160001a905350600f60fb1b816001815181106119a5576119a5611e19565b60200101906001600160f81b031916908160001a90535060006119c9846002611e2f565b6119d4906001611e70565b90505b6001811115611a4c576f181899199a1a9b1b9c1cb0b131b232b360811b85600f1660108110611a0857611a08611e19565b1a60f81b828281518110611a1e57611a1e611e19565b60200101906001600160f81b031916908160001a90535060049490941c93611a4581611fb2565b90506119d7565b5083156108ed5760405162461bcd60e51b815260206004820181905260248201527f537472696e67733a20686578206c656e67746820696e73756666696369656e74604482015260640161069c565b604051806101400160405280600a906020820280368337509192915050565b600060208284031215611acc57600080fd5b81356001600160e01b0319811681146108ed57600080fd5b80356001600160a01b0381168114611afb57600080fd5b919050565b60008060408385031215611b1357600080fd5b611b1c83611ae4565b946020939093013593505050565b600060208284031215611b3c57600080fd5b5035919050565b60008060408385031215611b5657600080fd5b82359150611b6660208401611ae4565b90509250929050565b600060208284031215611b8157600080fd5b6108ed82611ae4565b8060005b600a811015611bad578151845260209384019390910190600101611b8e565b50505050565b600081518084526020808501945080840160005b83811015611bec5781516001600160a01b031687529582019590820190600101611bc7565b509495945050505050565b6001600160a01b038a1681526000610360611c15602084018c611b8a565b8961016084015288610180840152806101a0840152611c3681840189611bb3565b915050611c476101c0830187611b8a565b610300820194909452911515610320830152610340909101529695505050505050565b60008060408385031215611c7d57600080fd5b50508035926020909101359150565b6020815260006108ed6020830184611bb3565b634e487b7160e01b600052604160045260246000fd5b600060e08284031215611cc757600080fd5b60405160e0810181811067ffffffffffffffff82111715611cf857634e487b7160e01b600052604160045260246000fd5b604052611d0483611ae4565b815260208301356020820152611d1c60408401611ae4565b6040820152606083013560608201526080830135608082015260a083013560a082015260c083013560c08201528091505092915050565b602080825282518282018190526000919060409081850190868401855b82811015611db557815180516001600160a01b031685528681015187860152858101518686015260609081015115159085015260809093019290850190600101611d70565b5091979650505050505050565b60008060408385031215611dd557600080fd5b611dde83611ae4565b9150611b6660208401611ae4565b634e487b7160e01b600052601160045260246000fd5b600082821015611e1457611e14611dec565b500390565b634e487b7160e01b600052603260045260246000fd5b6000816000190483118215151615611e4957611e49611dec565b500290565b600082611e6b57634e487b7160e01b600052601260045260246000fd5b500490565b60008219821115611e8357611e83611dec565b500190565b6000600019821415611e9c57611e9c611dec565b5060010190565b600060208284031215611eb557600080fd5b5051919050565b600060208284031215611ece57600080fd5b815180151581146108ed57600080fd5b60005b83811015611ef9578181015183820152602001611ee1565b83811115611bad5750506000910152565b7f416363657373436f6e74726f6c3a206163636f756e7420000000000000000000815260008351611f42816017850160208801611ede565b7001034b99036b4b9b9b4b733903937b6329607d1b6017918401918201528351611f73816028840160208801611ede565b01602801949350505050565b6020815260008251806020840152611f9e816040850160208701611ede565b601f01601f19169190910160400192915050565b600081611fc157611fc1611dec565b50600019019056fea26469706673582212201c3e96e2813ca43c9f95cdfe7cb0ba5594a9a69123f86eab762a3e522a82207564736f6c634300080b0033",
  "devdoc": {
    "kind": "dev",
    "methods": {
      "getRoleAdmin(bytes32)": {
        "details": "Returns the admin role that controls `role`. See {grantRole} and {revokeRole}. To change a role's admin, use {_setRoleAdmin}."
      },
      "grantRole(bytes32,address)": {
        "details": "Grants `role` to `account`. If `account` had not been already granted `role`, emits a {RoleGranted} event. Requirements: - the caller must have ``role``'s admin role. May emit a {RoleGranted} event."
      },
      "hasRole(bytes32,address)": {
        "details": "Returns `true` if `account` has been granted `role`."
      },
      "renounceRole(bytes32,address)": {
        "details": "Revokes `role` from the calling account. Roles are often managed via {grantRole} and {revokeRole}: this function's purpose is to provide a mechanism for accounts to lose their privileges if they are compromised (such as when a trusted device is misplaced). If the calling account had been revoked `role`, emits a {RoleRevoked} event. Requirements: - the caller must be `account`. May emit a {RoleRevoked} event."
      },
      "revokeRole(bytes32,address)": {
        "details": "Revokes `role` from `account`. If `account` had been granted `role`, emits a {RoleRevoked} event. Requirements: - the caller must have ``role``'s admin role. May emit a {RoleRevoked} event."
      },
      "supportsInterface(bytes4)": {
        "details": "See {IERC165-supportsInterface}."
      }
    },
    "version": 1
  },
  "userdoc": {
    "kind": "user",
    "methods": {},
    "version": 1
  },
  "storageLayout": {
    "storage": [
      {
        "astId": 178,
        "contract": "contracts/ReferralManager.sol:ReferralManager",
        "label": "_roles",
        "offset": 0,
        "slot": "0",
        "type": "t_mapping(t_bytes32,t_struct(RoleData)173_storage)"
      },
      {
        "astId": 7839,
        "contract": "contracts/ReferralManager.sol:ReferralManager",
        "label": "SUBSCRIPTION_PERIOD_DAYS",
        "offset": 0,
        "slot": "1",
        "type": "t_uint256"
      },
      {
        "astId": 7853,
        "contract": "contracts/ReferralManager.sol:ReferralManager",
        "label": "REFERRAL_PERCENTS",
        "offset": 0,
        "slot": "2",
        "type": "t_array(t_uint256)dyn_storage"
      },
      {
        "astId": 7877,
        "contract": "contracts/ReferralManager.sol:ReferralManager",
        "label": "levelSubscriptionCost",
        "offset": 0,
        "slot": "3",
        "type": "t_uint256"
      },
      {
        "astId": 7879,
        "contract": "contracts/ReferralManager.sol:ReferralManager",
        "label": "fullSubscriptionCost",
        "offset": 0,
        "slot": "4",
        "type": "t_uint256"
      },
      {
        "astId": 7884,
        "contract": "contracts/ReferralManager.sol:ReferralManager",
        "label": "users",
        "offset": 0,
        "slot": "5",
        "type": "t_mapping(t_address,t_struct(User)7875_storage)"
      },
      {
        "astId": 7888,
        "contract": "contracts/ReferralManager.sol:ReferralManager",
        "label": "authorizedContracts",
        "offset": 0,
        "slot": "6",
        "type": "t_mapping(t_address,t_bool)"
      },
      {
        "astId": 7891,
        "contract": "contracts/ReferralManager.sol:ReferralManager",
        "label": "subscriptionToken",
        "offset": 0,
        "slot": "7",
        "type": "t_contract(ERC20Burnable)3161"
      },
      {
        "astId": 7894,
        "contract": "contracts/ReferralManager.sol:ReferralManager",
        "label": "rewardToken",
        "offset": 0,
        "slot": "8",
        "type": "t_contract(IERC20)3117"
      },
      {
        "astId": 7896,
        "contract": "contracts/ReferralManager.sol:ReferralManager",
        "label": "rewardPool",
        "offset": 0,
        "slot": "9",
        "type": "t_address"
      }
    ],
    "types": {
      "t_address": {
        "encoding": "inplace",
        "label": "address",
        "numberOfBytes": "20"
      },
      "t_array(t_address)dyn_storage": {
        "base": "t_address",
        "encoding": "dynamic_array",
        "label": "address[]",
        "numberOfBytes": "32"
      },
      "t_array(t_uint256)10_storage": {
        "base": "t_uint256",
        "encoding": "inplace",
        "label": "uint256[10]",
        "numberOfBytes": "320"
      },
      "t_array(t_uint256)dyn_storage": {
        "base": "t_uint256",
        "encoding": "dynamic_array",
        "label": "uint256[]",
        "numberOfBytes": "32"
      },
      "t_bool": {
        "encoding": "inplace",
        "label": "bool",
        "numberOfBytes": "1"
      },
      "t_bytes32": {
        "encoding": "inplace",
        "label": "bytes32",
        "numberOfBytes": "32"
      },
      "t_contract(ERC20Burnable)3161": {
        "encoding": "inplace",
        "label": "contract ERC20Burnable",
        "numberOfBytes": "20"
      },
      "t_contract(IERC20)3117": {
        "encoding": "inplace",
        "label": "contract IERC20",
        "numberOfBytes": "20"
      },
      "t_mapping(t_address,t_bool)": {
        "encoding": "mapping",
        "key": "t_address",
        "label": "mapping(address => bool)",
        "numberOfBytes": "32",
        "value": "t_bool"
      },
      "t_mapping(t_address,t_struct(User)7875_storage)": {
        "encoding": "mapping",
        "key": "t_address",
        "label": "mapping(address => struct ReferralManager.User)",
        "numberOfBytes": "32",
        "value": "t_struct(User)7875_storage"
      },
      "t_mapping(t_bytes32,t_struct(RoleData)173_storage)": {
        "encoding": "mapping",
        "key": "t_bytes32",
        "label": "mapping(bytes32 => struct AccessControl.RoleData)",
        "numberOfBytes": "32",
        "value": "t_struct(RoleData)173_storage"
      },
      "t_struct(RoleData)173_storage": {
        "encoding": "inplace",
        "label": "struct AccessControl.RoleData",
        "members": [
          {
            "astId": 170,
            "contract": "contracts/ReferralManager.sol:ReferralManager",
            "label": "members",
            "offset": 0,
            "slot": "0",
            "type": "t_mapping(t_address,t_bool)"
          },
          {
            "astId": 172,
            "contract": "contracts/ReferralManager.sol:ReferralManager",
            "label": "adminRole",
            "offset": 0,
            "slot": "1",
            "type": "t_bytes32"
          }
        ],
        "numberOfBytes": "64"
      },
      "t_struct(User)7875_storage": {
        "encoding": "inplace",
        "label": "struct ReferralManager.User",
        "members": [
          {
            "astId": 7855,
            "contract": "contracts/ReferralManager.sol:ReferralManager",
            "label": "referrer",
            "offset": 0,
            "slot": "0",
            "type": "t_address"
          },
          {
            "astId": 7859,
            "contract": "contracts/ReferralManager.sol:ReferralManager",
            "label": "activeLevels",
            "offset": 0,
            "slot": "1",
            "type": "t_array(t_uint256)10_storage"
          },
          {
            "astId": 7861,
            "contract": "contracts/ReferralManager.sol:ReferralManager",
            "label": "totalRefDividends",
            "offset": 0,
            "slot": "11",
            "type": "t_uint256"
          },
          {
            "astId": 7863,
            "contract": "contracts/ReferralManager.sol:ReferralManager",
            "label": "totalRefDividendsClaimed",
            "offset": 0,
            "slot": "12",
            "type": "t_uint256"
          },
          {
            "astId": 7866,
            "contract": "contracts/ReferralManager.sol:ReferralManager",
            "label": "referrals_1_lvl",
            "offset": 0,
            "slot": "13",
            "type": "t_array(t_address)dyn_storage"
          },
          {
            "astId": 7870,
            "contract": "contracts/ReferralManager.sol:ReferralManager",
            "label": "refCount",
            "offset": 0,
            "slot": "14",
            "type": "t_array(t_uint256)10_storage"
          },
          {
            "astId": 7872,
            "contract": "contracts/ReferralManager.sol:ReferralManager",
            "label": "isActiveSubscriber",
            "offset": 0,
            "slot": "24",
            "type": "t_bool"
          },
          {
            "astId": 7874,
            "contract": "contracts/ReferralManager.sol:ReferralManager",
            "label": "activationDate",
            "offset": 0,
            "slot": "25",
            "type": "t_uint256"
          }
        ],
        "numberOfBytes": "832"
      },
      "t_uint256": {
        "encoding": "inplace",
        "label": "uint256",
        "numberOfBytes": "32"
      }
    }
  }
}