{
  "address": "0x907977351B6f513Ccc366a428E2465DFd973bB63",
  "abi": [
    {
      "inputs": [
        {
          "internalType": "address",
          "name": "subscriptionToken_",
          "type": "address"
        },
        {
          "internalType": "address",
          "name": "referralManager_",
          "type": "address"
        }
      ],
      "stateMutability": "nonpayable",
      "type": "constructor"
    },
    {
      "anonymous": false,
      "inputs": [
        {
          "indexed": true,
          "internalType": "address",
          "name": "user",
          "type": "address"
        },
        {
          "indexed": true,
          "internalType": "uint256",
          "name": "planId",
          "type": "uint256"
        },
        {
          "indexed": false,
          "internalType": "address",
          "name": "member",
          "type": "address"
        },
        {
          "indexed": false,
          "internalType": "uint256",
          "name": "squadMembers",
          "type": "uint256"
        }
      ],
      "name": "MemberAdded",
      "type": "event"
    },
    {
      "anonymous": false,
      "inputs": [
        {
          "indexed": true,
          "internalType": "bytes32",
          "name": "role",
          "type": "bytes32"
        },
        {
          "indexed": true,
          "internalType": "bytes32",
          "name": "previousAdminRole",
          "type": "bytes32"
        },
        {
          "indexed": true,
          "internalType": "bytes32",
          "name": "newAdminRole",
          "type": "bytes32"
        }
      ],
      "name": "RoleAdminChanged",
      "type": "event"
    },
    {
      "anonymous": false,
      "inputs": [
        {
          "indexed": true,
          "internalType": "bytes32",
          "name": "role",
          "type": "bytes32"
        },
        {
          "indexed": true,
          "internalType": "address",
          "name": "account",
          "type": "address"
        },
        {
          "indexed": true,
          "internalType": "address",
          "name": "sender",
          "type": "address"
        }
      ],
      "name": "RoleGranted",
      "type": "event"
    },
    {
      "anonymous": false,
      "inputs": [
        {
          "indexed": true,
          "internalType": "bytes32",
          "name": "role",
          "type": "bytes32"
        },
        {
          "indexed": true,
          "internalType": "address",
          "name": "account",
          "type": "address"
        },
        {
          "indexed": true,
          "internalType": "address",
          "name": "sender",
          "type": "address"
        }
      ],
      "name": "RoleRevoked",
      "type": "event"
    },
    {
      "anonymous": false,
      "inputs": [
        {
          "indexed": true,
          "internalType": "address",
          "name": "user",
          "type": "address"
        },
        {
          "indexed": true,
          "internalType": "uint256",
          "name": "planId",
          "type": "uint256"
        },
        {
          "indexed": true,
          "internalType": "uint256",
          "name": "squadCount",
          "type": "uint256"
        }
      ],
      "name": "SquadFilled",
      "type": "event"
    },
    {
      "anonymous": false,
      "inputs": [
        {
          "indexed": true,
          "internalType": "address",
          "name": "subscriber",
          "type": "address"
        },
        {
          "indexed": true,
          "internalType": "uint256",
          "name": "planId",
          "type": "uint256"
        },
        {
          "indexed": true,
          "internalType": "uint256",
          "name": "timestamp",
          "type": "uint256"
        }
      ],
      "name": "Subscribed",
      "type": "event"
    },
    {
      "inputs": [],
      "name": "DEFAULT_ADMIN_ROLE",
      "outputs": [
        {
          "internalType": "bytes32",
          "name": "",
          "type": "bytes32"
        }
      ],
      "stateMutability": "view",
      "type": "function"
    },
    {
      "inputs": [],
      "name": "SUBSCRIPTION_PERIOD_DAYS",
      "outputs": [
        {
          "internalType": "uint256",
          "name": "",
          "type": "uint256"
        }
      ],
      "stateMutability": "view",
      "type": "function"
    },
    {
      "inputs": [
        {
          "internalType": "uint256",
          "name": "subscriptionCost_",
          "type": "uint256"
        },
        {
          "internalType": "uint256",
          "name": "reward_",
          "type": "uint256"
        },
        {
          "internalType": "uint256",
          "name": "stakingThreshold_",
          "type": "uint256"
        },
        {
          "internalType": "uint256",
          "name": "squadSize_",
          "type": "uint256"
        },
        {
          "internalType": "address",
          "name": "authorizedStaking_",
          "type": "address"
        }
      ],
      "name": "addPlan",
      "outputs": [],
      "stateMutability": "nonpayable",
      "type": "function"
    },
    {
      "inputs": [],
      "name": "getPlans",
      "outputs": [
        {
          "components": [
            {
              "internalType": "uint256",
              "name": "subscriptionCost",
              "type": "uint256"
            },
            {
              "internalType": "uint256",
              "name": "reward",
              "type": "uint256"
            },
            {
              "internalType": "uint256",
              "name": "stakingThreshold",
              "type": "uint256"
            },
            {
              "internalType": "uint256",
              "name": "squadSize",
              "type": "uint256"
            },
            {
              "internalType": "contract IStaking",
              "name": "authorizedStaking",
              "type": "address"
            },
            {
              "internalType": "bool",
              "name": "isActive",
              "type": "bool"
            }
          ],
          "internalType": "struct Squads.Plan[]",
          "name": "",
          "type": "tuple[]"
        }
      ],
      "stateMutability": "view",
      "type": "function"
    },
    {
      "inputs": [
        {
          "internalType": "bytes32",
          "name": "role",
          "type": "bytes32"
        }
      ],
      "name": "getRoleAdmin",
      "outputs": [
        {
          "internalType": "bytes32",
          "name": "",
          "type": "bytes32"
        }
      ],
      "stateMutability": "view",
      "type": "function"
    },
    {
      "inputs": [
        {
          "internalType": "uint256",
          "name": "amount",
          "type": "uint256"
        }
      ],
      "name": "getSufficientPlanIdByStakingAmount",
      "outputs": [
        {
          "internalType": "int256",
          "name": "",
          "type": "int256"
        }
      ],
      "stateMutability": "view",
      "type": "function"
    },
    {
      "inputs": [
        {
          "internalType": "address",
          "name": "user",
          "type": "address"
        },
        {
          "internalType": "uint256",
          "name": "planId",
          "type": "uint256"
        }
      ],
      "name": "getUserSquadInfo",
      "outputs": [
        {
          "components": [
            {
              "internalType": "uint256",
              "name": "subscription",
              "type": "uint256"
            },
            {
              "internalType": "uint256",
              "name": "squadsFilled",
              "type": "uint256"
            }
          ],
          "internalType": "struct Squads.Squad",
          "name": "",
          "type": "tuple"
        }
      ],
      "stateMutability": "view",
      "type": "function"
    },
    {
      "inputs": [
        {
          "internalType": "address",
          "name": "user",
          "type": "address"
        },
        {
          "internalType": "uint256",
          "name": "planId",
          "type": "uint256"
        }
      ],
      "name": "getUserSquadMembers",
      "outputs": [
        {
          "internalType": "address[]",
          "name": "",
          "type": "address[]"
        }
      ],
      "stateMutability": "view",
      "type": "function"
    },
    {
      "inputs": [
        {
          "internalType": "address",
          "name": "user",
          "type": "address"
        }
      ],
      "name": "getUserSquadsInfo",
      "outputs": [
        {
          "components": [
            {
              "internalType": "uint256",
              "name": "subscription",
              "type": "uint256"
            },
            {
              "internalType": "uint256",
              "name": "squadsFilled",
              "type": "uint256"
            }
          ],
          "internalType": "struct Squads.Squad[]",
          "name": "",
          "type": "tuple[]"
        }
      ],
      "stateMutability": "view",
      "type": "function"
    },
    {
      "inputs": [
        {
          "internalType": "bytes32",
          "name": "role",
          "type": "bytes32"
        },
        {
          "internalType": "address",
          "name": "account",
          "type": "address"
        }
      ],
      "name": "grantRole",
      "outputs": [],
      "stateMutability": "nonpayable",
      "type": "function"
    },
    {
      "inputs": [
        {
          "internalType": "bytes32",
          "name": "role",
          "type": "bytes32"
        },
        {
          "internalType": "address",
          "name": "account",
          "type": "address"
        }
      ],
      "name": "hasRole",
      "outputs": [
        {
          "internalType": "bool",
          "name": "",
          "type": "bool"
        }
      ],
      "stateMutability": "view",
      "type": "function"
    },
    {
      "inputs": [
        {
          "internalType": "uint256",
          "name": "",
          "type": "uint256"
        }
      ],
      "name": "plans",
      "outputs": [
        {
          "internalType": "uint256",
          "name": "subscriptionCost",
          "type": "uint256"
        },
        {
          "internalType": "uint256",
          "name": "reward",
          "type": "uint256"
        },
        {
          "internalType": "uint256",
          "name": "stakingThreshold",
          "type": "uint256"
        },
        {
          "internalType": "uint256",
          "name": "squadSize",
          "type": "uint256"
        },
        {
          "internalType": "contract IStaking",
          "name": "authorizedStaking",
          "type": "address"
        },
        {
          "internalType": "bool",
          "name": "isActive",
          "type": "bool"
        }
      ],
      "stateMutability": "view",
      "type": "function"
    },
    {
      "inputs": [],
      "name": "referralManager",
      "outputs": [
        {
          "internalType": "contract IReferralManager",
          "name": "",
          "type": "address"
        }
      ],
      "stateMutability": "view",
      "type": "function"
    },
    {
      "inputs": [
        {
          "internalType": "bytes32",
          "name": "role",
          "type": "bytes32"
        },
        {
          "internalType": "address",
          "name": "account",
          "type": "address"
        }
      ],
      "name": "renounceRole",
      "outputs": [],
      "stateMutability": "nonpayable",
      "type": "function"
    },
    {
      "inputs": [
        {
          "internalType": "bytes32",
          "name": "role",
          "type": "bytes32"
        },
        {
          "internalType": "address",
          "name": "account",
          "type": "address"
        }
      ],
      "name": "revokeRole",
      "outputs": [],
      "stateMutability": "nonpayable",
      "type": "function"
    },
    {
      "inputs": [
        {
          "internalType": "uint256",
          "name": "planId",
          "type": "uint256"
        }
      ],
      "name": "subscribe",
      "outputs": [],
      "stateMutability": "nonpayable",
      "type": "function"
    },
    {
      "inputs": [],
      "name": "subscriptionToken",
      "outputs": [
        {
          "internalType": "contract ERC20Burnable",
          "name": "",
          "type": "address"
        }
      ],
      "stateMutability": "view",
      "type": "function"
    },
    {
      "inputs": [
        {
          "internalType": "bytes4",
          "name": "interfaceId",
          "type": "bytes4"
        }
      ],
      "name": "supportsInterface",
      "outputs": [
        {
          "internalType": "bool",
          "name": "",
          "type": "bool"
        }
      ],
      "stateMutability": "view",
      "type": "function"
    },
    {
      "inputs": [
        {
          "internalType": "address",
          "name": "user",
          "type": "address"
        },
        {
          "internalType": "address",
          "name": "member",
          "type": "address"
        },
        {
          "internalType": "uint256",
          "name": "amount",
          "type": "uint256"
        }
      ],
      "name": "tryToAddMember",
      "outputs": [
        {
          "internalType": "bool",
          "name": "",
          "type": "bool"
        }
      ],
      "stateMutability": "nonpayable",
      "type": "function"
    },
    {
      "inputs": [
        {
          "internalType": "uint256",
          "name": "planId",
          "type": "uint256"
        },
        {
          "internalType": "bool",
          "name": "isActive",
          "type": "bool"
        }
      ],
      "name": "updatePlanActivity",
      "outputs": [],
      "stateMutability": "nonpayable",
      "type": "function"
    },
    {
      "inputs": [
        {
          "internalType": "uint256",
          "name": "planId",
          "type": "uint256"
        },
        {
          "internalType": "address",
          "name": "contractAddress",
          "type": "address"
        }
      ],
      "name": "updatePlanAuthorizedContract",
      "outputs": [],
      "stateMutability": "nonpayable",
      "type": "function"
    },
    {
      "inputs": [
        {
          "internalType": "uint256",
          "name": "planId",
          "type": "uint256"
        },
        {
          "internalType": "uint256",
          "name": "reward",
          "type": "uint256"
        }
      ],
      "name": "updatePlanReward",
      "outputs": [],
      "stateMutability": "nonpayable",
      "type": "function"
    },
    {
      "inputs": [
        {
          "internalType": "uint256",
          "name": "planId",
          "type": "uint256"
        },
        {
          "internalType": "uint256",
          "name": "size",
          "type": "uint256"
        }
      ],
      "name": "updatePlanSquadSize",
      "outputs": [],
      "stateMutability": "nonpayable",
      "type": "function"
    },
    {
      "inputs": [
        {
          "internalType": "uint256",
          "name": "planId",
          "type": "uint256"
        },
        {
          "internalType": "uint256",
          "name": "threshold",
          "type": "uint256"
        }
      ],
      "name": "updatePlanStakingThreshold",
      "outputs": [],
      "stateMutability": "nonpayable",
      "type": "function"
    },
    {
      "inputs": [
        {
          "internalType": "uint256",
          "name": "planId",
          "type": "uint256"
        },
        {
          "internalType": "uint256",
          "name": "subscriptionCost",
          "type": "uint256"
        }
      ],
      "name": "updatePlanSubscriptionCost",
      "outputs": [],
      "stateMutability": "nonpayable",
      "type": "function"
    },
    {
      "inputs": [
        {
          "internalType": "uint256",
          "name": "numDays",
          "type": "uint256"
        }
      ],
      "name": "updateSubscriptionPeriod",
      "outputs": [],
      "stateMutability": "nonpayable",
      "type": "function"
    },
    {
      "inputs": [
        {
          "internalType": "address",
          "name": "referralManager_",
          "type": "address"
        }
      ],
      "name": "updateSubscriptionReferralManager",
      "outputs": [],
      "stateMutability": "nonpayable",
      "type": "function"
    },
    {
      "inputs": [
        {
          "internalType": "address",
          "name": "token",
          "type": "address"
        }
      ],
      "name": "updateSubscriptionToken",
      "outputs": [],
      "stateMutability": "nonpayable",
      "type": "function"
    },
    {
      "inputs": [
        {
          "internalType": "address",
          "name": "user",
          "type": "address"
        },
        {
          "internalType": "uint256",
          "name": "planId",
          "type": "uint256"
        }
      ],
      "name": "userHasPlanSubscription",
      "outputs": [
        {
          "internalType": "bool",
          "name": "",
          "type": "bool"
        }
      ],
      "stateMutability": "view",
      "type": "function"
    },
    {
      "inputs": [
        {
          "internalType": "address",
          "name": "user",
          "type": "address"
        },
        {
          "internalType": "uint256",
          "name": "planId",
          "type": "uint256"
        }
      ],
      "name": "userHasSufficientStaking",
      "outputs": [
        {
          "internalType": "bool",
          "name": "",
          "type": "bool"
        }
      ],
      "stateMutability": "view",
      "type": "function"
    }
  ],
  "transactionHash": "0x0509a221716fa7ecff8518b35ff92b43dcfccd294040389eeef729b5fdde04af",
  "args": [
    "0xb971Bbda8043267e8047372A29A5bfA8B78A2D04",
    "0x4C5d840E7742119278AdaBb63cdFca5099D7DAea"
  ],
  "numDeployments": 2,
  "solcInputHash": "03aed533e319a0a39f891012129b9a07",
  "bytecode": "0x608060405261016d6001553480156200001757600080fd5b5060405162001e4f38038062001e4f8339810160408190526200003a916200015f565b6001600160a01b0382166200004e57600080fd5b6001600160a01b0381166200006257600080fd5b6200006f600033620000a1565b600580546001600160a01b039384166001600160a01b0319918216179091556006805492909316911617905562000197565b6000828152602081815260408083206001600160a01b038516845290915290205460ff166200013e576000828152602081815260408083206001600160a01b03851684529091529020805460ff19166001179055620000fd3390565b6001600160a01b0316816001600160a01b0316837f2f8788117e7eff1d82e926ec794901d17c78024a50270940304540a733656f0d60405160405180910390a45b5050565b80516001600160a01b03811681146200015a57600080fd5b919050565b600080604083850312156200017357600080fd5b6200017e8362000142565b91506200018e6020840162000142565b90509250929050565b611ca880620001a76000396000f3fe608060405234801561001057600080fd5b50600436106101da5760003560e01c8063871cd81f11610104578063b1620616116100a2578063d94a862b11610071578063d94a862b14610489578063d966edf01461049e578063f3cc3bf0146104b1578063fcc47512146104c457600080fd5b8063b162061614610405578063bd01403614610450578063d547741f14610463578063d6672e1c1461047657600080fd5b8063a217fddf116100de578063a217fddf146103c1578063a243d5ac146103c9578063aaa138a2146103dc578063ad083928146103e557600080fd5b8063871cd81f1461037b57806391d148541461039b578063992dc2da146103ae57600080fd5b80632fe00f571161017c578063622f46a41161014b578063622f46a4146102fd5780636445c6791461031d578063736560b51461035557806386bc28721461036857600080fd5b80632fe00f57146102b157806336568abe146102c45780633fe90537146102d757806342ec14d7146102ea57600080fd5b80631c0e0612116101b85780631c0e06121461023d578063248a9ca3146102505780632ccd9623146102735780632f2ff15d1461029e57600080fd5b806301ffc9a7146101df5780630f574ba71461020757806316867cd81461021c575b600080fd5b6101f26101ed366004611687565b6104d7565b60405190151581526020015b60405180910390f35b61021a6102153660046116b1565b61050e565b005b61022f61022a3660046116b1565b6106f0565b6040519081526020016101fe565b61021a61024b3660046116d8565b610749565b61022f61025e3660046116b1565b60009081526020819052604090206001015490565b600654610286906001600160a01b031681565b6040516001600160a01b0390911681526020016101fe565b61021a6102ac366004611724565b610795565b61021a6102bf366004611750565b6107bf565b61021a6102d2366004611724565b6107f8565b61021a6102e5366004611750565b610876565b61021a6102f8366004611772565b6108ab565b61031061030b366004611772565b6108d9565b6040516101fe919061178d565b6101f261032b3660046117e4565b6001600160a01b039190911660009081526003602090815260408083209383529290522054421090565b61021a6103633660046116b1565b610989565b6101f261037636600461180e565b61099a565b61038e6103893660046117e4565b610c00565b6040516101fe919061184a565b6101f26103a9366004611724565b610c4c565b6101f26103bc3660046117e4565b610c75565b61022f600081565b61021a6103d7366004611772565b610ddf565b61022f60015481565b6103f86103f33660046117e4565b610e0d565b6040516101fe9190611861565b6104186104133660046116b1565b610e8c565b6040805196875260208701959095529385019290925260608401526001600160a01b03166080830152151560a082015260c0016101fe565b61021a61045e3660046118ae565b610ee2565b61021a610471366004611724565b611022565b600554610286906001600160a01b031681565b610491611047565b6040516101fe91906118f7565b61021a6104ac366004611750565b6110ed565b61021a6104bf366004611724565b611126565b61021a6104d2366004611750565b61117f565b60006001600160e01b03198216637965db0b60e01b148061050857506301ffc9a760e01b6001600160e01b03198316145b92915050565b60025481106105585760405162461bcd60e51b8152602060048201526011602482015270125b98dbdc9c9958dd081c1b185b881a59607a1b60448201526064015b60405180910390fd5b60003390506000600283815481106105725761057261196d565b906000526020600020906005020190508060040160149054906101000a900460ff166105d55760405162461bcd60e51b8152602060048201526012602482015271506c616e206973206e6f742061637469766560701b604482015260640161054f565b600554815460405163079cc67960e41b81526001600160a01b03858116600483015260248201929092529116906379cc679090604401600060405180830381600087803b15801561062557600080fd5b505af1158015610639573d6000803e3d6000fd5b505050506001600160a01b038216600081815260036020908152604080832087845282528083206001015481518481528084018084529585526004845282852082865290935292209051919261068e9261160d565b506106976111b8565b6001600160a01b038416600081815260036020908152604080832089845290915280822093909355915142928792917ff94991dcbea6e8ac439cbc93bd9c62a4d39f04e0ad656df9a703f13552c2787f9190a450505050565b6000600019815b60025481101561074257600281815481106107145761071461196d565b9060005260206000209060050201600201548410610730578091505b8061073a816119af565b9150506106f7565b5092915050565b6000610754816111da565b81600284815481106107685761076861196d565b906000526020600020906005020160040160146101000a81548160ff021916908315150217905550505050565b6000828152602081905260409020600101546107b0816111da565b6107ba83836111e7565b505050565b60006107ca816111da565b81600284815481106107de576107de61196d565b906000526020600020906005020160010181905550505050565b6001600160a01b03811633146108685760405162461bcd60e51b815260206004820152602f60248201527f416363657373436f6e74726f6c3a2063616e206f6e6c792072656e6f756e636560448201526e103937b632b9903337b91039b2b63360891b606482015260840161054f565b610872828261126b565b5050565b6000610881816111da565b81600284815481106108955761089561196d565b6000918252602090912060059091020155505050565b60006108b6816111da565b50600680546001600160a01b0319166001600160a01b0392909216919091179055565b60025460609060009067ffffffffffffffff8111156108fa576108fa611983565b60405190808252806020026020018201604052801561093f57816020015b60408051808201909152600080825260208201528152602001906001900390816109185790505b50905060005b600254811015610742576109598482610c00565b82828151811061096b5761096b61196d565b60200260200101819052508080610981906119af565b915050610945565b6000610994816111da565b50600155565b6000806109a6836106f0565b905060008112156109bb576000915050610bf9565b806109c681336112d0565b80156109f457506001600160a01b038616600090815260036020908152604080832084845290915290205442105b8015610a055750610a058682610c75565b8015610a195750610a17868287611314565b155b15610bf2576001600160a01b0386811660008181526003602090815260408083208684528252808320848452600483528184206001808301805487529185528386208054918201815586528486200180546001600160a01b031916978d1697881790555484529281902054815195865291850182905291939092859290917f4727d8bf558b6f2fd2d2f66e2062e0c408a4b470870a0385e940358a87ad3626910160405180910390a360028381548110610ad557610ad561196d565b9060005260206000209060050201600301548110610be5576001826001016000828254610b0291906119ca565b909155505060008255600654600280546001600160a01b0390921691633fb55c61918b9187908110610b3657610b3661196d565b60009182526020909120600160059092020101546040516001600160e01b031960e085901b1681526001600160a01b0390921660048301526024820152604401600060405180830381600087803b158015610b9057600080fd5b505af1158015610ba4573d6000803e3d6000fd5b50505050816001015483896001600160a01b03167fc22bc73345a19ca25692353736ee8587e0e2d12c75a1ed016950ed4b20fac30160405160405180910390a45b6001945050505050610bf9565b6000925050505b9392505050565b604080518082018252600080825260209182018190526001600160a01b039490941684526003815281842092845291825291829020825180840190935280548352600101549082015290565b6000918252602082815260408084206001600160a01b0393909316845291905290205460ff1690565b60008060028381548110610c8b57610c8b61196d565b60009182526020909120600460059092020181015460405163842e298160e01b81526001600160a01b038781169382019390935291169063842e298190602401600060405180830381865afa158015610ce8573d6000803e3d6000fd5b505050506040513d6000823e601f3d908101601f19168201604052610d109190810190611a48565b905060005b8151811015610dd45742828281518110610d3157610d3161196d565b602002602001015160600151118015610d655750818181518110610d5757610d5761196d565b602002602001015160e00151155b8015610db2575060028481548110610d7f57610d7f61196d565b906000526020600020906005020160020154828281518110610da357610da361196d565b60200260200101516020015110155b15610dc257600192505050610508565b80610dcc816119af565b915050610d15565b506000949350505050565b6000610dea816111da565b50600580546001600160a01b0319166001600160a01b0392909216919091179055565b6001600160a01b0382166000908152600460209081526040808320848452825291829020805483518184028101840190945280845260609392830182828015610e7f57602002820191906000526020600020905b81546001600160a01b03168152600190910190602001808311610e61575b5050505050905092915050565b60028181548110610e9c57600080fd5b600091825260209091206005909102018054600182015460028301546003840154600490940154929450909290916001600160a01b03811690600160a01b900460ff1686565b6000610eed816111da565b506040805160c081018252958652602086019485528501928352606085019182526001600160a01b0390811660808601908152600160a0870181815260028054928301815560005296517f405787fa12a823e0f2b7631cc41b3ba8828b3321ca811111fa75cd3aa3bb5ace60059092029182015594517f405787fa12a823e0f2b7631cc41b3ba8828b3321ca811111fa75cd3aa3bb5acf86015592517f405787fa12a823e0f2b7631cc41b3ba8828b3321ca811111fa75cd3aa3bb5ad085015590517f405787fa12a823e0f2b7631cc41b3ba8828b3321ca811111fa75cd3aa3bb5ad184015590517f405787fa12a823e0f2b7631cc41b3ba8828b3321ca811111fa75cd3aa3bb5ad290920180549351929091166001600160a81b031990931692909217600160a01b91151591909102179055565b60008281526020819052604090206001015461103d816111da565b6107ba838361126b565b60606002805480602002602001604051908101604052809291908181526020016000905b828210156110e45760008481526020908190206040805160c08101825260058602909201805483526001808201548486015260028201549284019290925260038101546060840152600401546001600160a01b0381166080840152600160a01b900460ff16151560a0830152908352909201910161106b565b50505050905090565b60006110f8816111da565b816002848154811061110c5761110c61196d565b906000526020600020906005020160020181905550505050565b6000611131816111da565b81600284815481106111455761114561196d565b906000526020600020906005020160040160006101000a8154816001600160a01b0302191690836001600160a01b03160217905550505050565b600061118a816111da565b816002848154811061119e5761119e61196d565b906000526020600020906005020160030181905550505050565b6000600154620151806111cb9190611b64565b6111d590426119ca565b905090565b6111e4813361140d565b50565b6111f18282610c4c565b610872576000828152602081815260408083206001600160a01b03851684529091529020805460ff191660011790556112273390565b6001600160a01b0316816001600160a01b0316837f2f8788117e7eff1d82e926ec794901d17c78024a50270940304540a733656f0d60405160405180910390a45050565b6112758282610c4c565b15610872576000828152602081815260408083206001600160a01b0385168085529252808320805460ff1916905551339285917ff6391f5c32d9c69d2a47ea670b442974b53935d1edc7fd64eb21e047a839171b9190a45050565b6000816001600160a01b0316600284815481106112ef576112ef61196d565b60009182526020909120600590910201600401546001600160a01b0316149392505050565b6001600160a01b03831660008181526003602090815260408083208684528252808320600101549383526004825280832084845282528083208054825181850281018501909352808352939493859383018282801561139c57602002820191906000526020600020905b81546001600160a01b0316815260019091019060200180831161137e575b5050505050905060005b815181101561140057846001600160a01b03168282815181106113cb576113cb61196d565b60200260200101516001600160a01b031614156113ee5760019350505050610bf9565b806113f8816119af565b9150506113a6565b5060009695505050505050565b6114178282610c4c565b6108725761142f816001600160a01b03166014611471565b61143a836020611471565b60405160200161144b929190611bb3565b60408051601f198184030181529082905262461bcd60e51b825261054f91600401611c28565b60606000611480836002611b64565b61148b9060026119ca565b67ffffffffffffffff8111156114a3576114a3611983565b6040519080825280601f01601f1916602001820160405280156114cd576020820181803683370190505b509050600360fc1b816000815181106114e8576114e861196d565b60200101906001600160f81b031916908160001a905350600f60fb1b816001815181106115175761151761196d565b60200101906001600160f81b031916908160001a905350600061153b846002611b64565b6115469060016119ca565b90505b60018111156115be576f181899199a1a9b1b9c1cb0b131b232b360811b85600f166010811061157a5761157a61196d565b1a60f81b8282815181106115905761159061196d565b60200101906001600160f81b031916908160001a90535060049490941c936115b781611c5b565b9050611549565b508315610bf95760405162461bcd60e51b815260206004820181905260248201527f537472696e67733a20686578206c656e67746820696e73756666696369656e74604482015260640161054f565b828054828255906000526020600020908101928215611662579160200282015b8281111561166257825182546001600160a01b0319166001600160a01b0390911617825560209092019160019091019061162d565b5061166e929150611672565b5090565b5b8082111561166e5760008155600101611673565b60006020828403121561169957600080fd5b81356001600160e01b031981168114610bf957600080fd5b6000602082840312156116c357600080fd5b5035919050565b80151581146111e457600080fd5b600080604083850312156116eb57600080fd5b8235915060208301356116fd816116ca565b809150509250929050565b80356001600160a01b038116811461171f57600080fd5b919050565b6000806040838503121561173757600080fd5b8235915061174760208401611708565b90509250929050565b6000806040838503121561176357600080fd5b50508035926020909101359150565b60006020828403121561178457600080fd5b610bf982611708565b602080825282518282018190526000919060409081850190868401855b828110156117d7576117c784835180518252602090810151910152565b92840192908501906001016117aa565b5091979650505050505050565b600080604083850312156117f757600080fd5b61180083611708565b946020939093013593505050565b60008060006060848603121561182357600080fd5b61182c84611708565b925061183a60208501611708565b9150604084013590509250925092565b815181526020808301519082015260408101610508565b6020808252825182820181905260009190848201906040850190845b818110156118a25783516001600160a01b03168352928401929184019160010161187d565b50909695505050505050565b600080600080600060a086880312156118c657600080fd5b853594506020860135935060408601359250606086013591506118eb60808701611708565b90509295509295909350565b602080825282518282018190526000919060409081850190868401855b828110156117d75781518051855286810151878601528581015186860152606080820151908601526080808201516001600160a01b03169086015260a09081015115159085015260c09093019290850190600101611914565b634e487b7160e01b600052603260045260246000fd5b634e487b7160e01b600052604160045260246000fd5b634e487b7160e01b600052601160045260246000fd5b60006000198214156119c3576119c3611999565b5060010190565b600082198211156119dd576119dd611999565b500190565b604051610100810167ffffffffffffffff81118282101715611a0657611a06611983565b60405290565b604051601f8201601f1916810167ffffffffffffffff81118282101715611a3557611a35611983565b604052919050565b805161171f816116ca565b60006020808385031215611a5b57600080fd5b825167ffffffffffffffff80821115611a7357600080fd5b818501915085601f830112611a8757600080fd5b815181811115611a9957611a99611983565b611aa7848260051b01611a0c565b818152848101925060089190911b830184019087821115611ac757600080fd5b928401925b81841015611b59576101008489031215611ae65760008081fd5b611aee6119e2565b84518152858501518682015260408086015190820152606080860151908201526080808601519082015260a0808601519082015260c080860151611b31816116ca565b9082015260e0611b42868201611a3d565b908201528352610100939093019291840191611acc565b979650505050505050565b6000816000190483118215151615611b7e57611b7e611999565b500290565b60005b83811015611b9e578181015183820152602001611b86565b83811115611bad576000848401525b50505050565b7f416363657373436f6e74726f6c3a206163636f756e7420000000000000000000815260008351611beb816017850160208801611b83565b7001034b99036b4b9b9b4b733903937b6329607d1b6017918401918201528351611c1c816028840160208801611b83565b01602801949350505050565b6020815260008251806020840152611c47816040850160208701611b83565b601f01601f19169190910160400192915050565b600081611c6a57611c6a611999565b50600019019056fea2646970667358221220228b2c37249f000b147f29cd7f18d87dc982094f8166f3b015ef42ee4c3c20cd64736f6c634300080b0033",
  "devdoc": {
    "kind": "dev",
    "methods": {
      "getRoleAdmin(bytes32)": {
        "details": "Returns the admin role that controls `role`. See {grantRole} and {revokeRole}. To change a role's admin, use {_setRoleAdmin}."
      },
      "grantRole(bytes32,address)": {
        "details": "Grants `role` to `account`. If `account` had not been already granted `role`, emits a {RoleGranted} event. Requirements: - the caller must have ``role``'s admin role. May emit a {RoleGranted} event."
      },
      "hasRole(bytes32,address)": {
        "details": "Returns `true` if `account` has been granted `role`."
      },
      "renounceRole(bytes32,address)": {
        "details": "Revokes `role` from the calling account. Roles are often managed via {grantRole} and {revokeRole}: this function's purpose is to provide a mechanism for accounts to lose their privileges if they are compromised (such as when a trusted device is misplaced). If the calling account had been revoked `role`, emits a {RoleRevoked} event. Requirements: - the caller must be `account`. May emit a {RoleRevoked} event."
      },
      "revokeRole(bytes32,address)": {
        "details": "Revokes `role` from `account`. If `account` had been granted `role`, emits a {RoleRevoked} event. Requirements: - the caller must have ``role``'s admin role. May emit a {RoleRevoked} event."
      },
      "supportsInterface(bytes4)": {
        "details": "See {IERC165-supportsInterface}."
      }
    },
    "version": 1
  },
  "userdoc": {
    "kind": "user",
    "methods": {},
    "version": 1
  },
  "storageLayout": {
    "storage": [
      {
        "astId": 24,
        "contract": "contracts/Squads.sol:Squads",
        "label": "_roles",
        "offset": 0,
        "slot": "0",
        "type": "t_mapping(t_bytes32,t_struct(RoleData)19_storage)"
      },
      {
        "astId": 4489,
        "contract": "contracts/Squads.sol:Squads",
        "label": "SUBSCRIPTION_PERIOD_DAYS",
        "offset": 0,
        "slot": "1",
        "type": "t_uint256"
      },
      {
        "astId": 4512,
        "contract": "contracts/Squads.sol:Squads",
        "label": "plans",
        "offset": 0,
        "slot": "2",
        "type": "t_array(t_struct(Plan)4508_storage)dyn_storage"
      },
      {
        "astId": 4519,
        "contract": "contracts/Squads.sol:Squads",
        "label": "userSubscriptions",
        "offset": 0,
        "slot": "3",
        "type": "t_mapping(t_address,t_mapping(t_uint256,t_struct(Squad)4494_storage))"
      },
      {
        "astId": 4526,
        "contract": "contracts/Squads.sol:Squads",
        "label": "squadMembers",
        "offset": 0,
        "slot": "4",
        "type": "t_mapping(t_address,t_mapping(t_uint256,t_array(t_address)dyn_storage))"
      },
      {
        "astId": 4529,
        "contract": "contracts/Squads.sol:Squads",
        "label": "subscriptionToken",
        "offset": 0,
        "slot": "5",
        "type": "t_contract(ERC20Burnable)1248"
      },
      {
        "astId": 4532,
        "contract": "contracts/Squads.sol:Squads",
        "label": "referralManager",
        "offset": 0,
        "slot": "6",
        "type": "t_contract(IReferralManager)8065"
      }
    ],
    "types": {
      "t_address": {
        "encoding": "inplace",
        "label": "address",
        "numberOfBytes": "20"
      },
      "t_array(t_address)dyn_storage": {
        "base": "t_address",
        "encoding": "dynamic_array",
        "label": "address[]",
        "numberOfBytes": "32"
      },
      "t_array(t_struct(Plan)4508_storage)dyn_storage": {
        "base": "t_struct(Plan)4508_storage",
        "encoding": "dynamic_array",
        "label": "struct Squads.Plan[]",
        "numberOfBytes": "32"
      },
      "t_bool": {
        "encoding": "inplace",
        "label": "bool",
        "numberOfBytes": "1"
      },
      "t_bytes32": {
        "encoding": "inplace",
        "label": "bytes32",
        "numberOfBytes": "32"
      },
      "t_contract(ERC20Burnable)1248": {
        "encoding": "inplace",
        "label": "contract ERC20Burnable",
        "numberOfBytes": "20"
      },
      "t_contract(IReferralManager)8065": {
        "encoding": "inplace",
        "label": "contract IReferralManager",
        "numberOfBytes": "20"
      },
      "t_contract(IStaking)8299": {
        "encoding": "inplace",
        "label": "contract IStaking",
        "numberOfBytes": "20"
      },
      "t_mapping(t_address,t_bool)": {
        "encoding": "mapping",
        "key": "t_address",
        "label": "mapping(address => bool)",
        "numberOfBytes": "32",
        "value": "t_bool"
      },
      "t_mapping(t_address,t_mapping(t_uint256,t_array(t_address)dyn_storage))": {
        "encoding": "mapping",
        "key": "t_address",
        "label": "mapping(address => mapping(uint256 => address[]))",
        "numberOfBytes": "32",
        "value": "t_mapping(t_uint256,t_array(t_address)dyn_storage)"
      },
      "t_mapping(t_address,t_mapping(t_uint256,t_struct(Squad)4494_storage))": {
        "encoding": "mapping",
        "key": "t_address",
        "label": "mapping(address => mapping(uint256 => struct Squads.Squad))",
        "numberOfBytes": "32",
        "value": "t_mapping(t_uint256,t_struct(Squad)4494_storage)"
      },
      "t_mapping(t_bytes32,t_struct(RoleData)19_storage)": {
        "encoding": "mapping",
        "key": "t_bytes32",
        "label": "mapping(bytes32 => struct AccessControl.RoleData)",
        "numberOfBytes": "32",
        "value": "t_struct(RoleData)19_storage"
      },
      "t_mapping(t_uint256,t_array(t_address)dyn_storage)": {
        "encoding": "mapping",
        "key": "t_uint256",
        "label": "mapping(uint256 => address[])",
        "numberOfBytes": "32",
        "value": "t_array(t_address)dyn_storage"
      },
      "t_mapping(t_uint256,t_struct(Squad)4494_storage)": {
        "encoding": "mapping",
        "key": "t_uint256",
        "label": "mapping(uint256 => struct Squads.Squad)",
        "numberOfBytes": "32",
        "value": "t_struct(Squad)4494_storage"
      },
      "t_struct(Plan)4508_storage": {
        "encoding": "inplace",
        "label": "struct Squads.Plan",
        "members": [
          {
            "astId": 4496,
            "contract": "contracts/Squads.sol:Squads",
            "label": "subscriptionCost",
            "offset": 0,
            "slot": "0",
            "type": "t_uint256"
          },
          {
            "astId": 4498,
            "contract": "contracts/Squads.sol:Squads",
            "label": "reward",
            "offset": 0,
            "slot": "1",
            "type": "t_uint256"
          },
          {
            "astId": 4500,
            "contract": "contracts/Squads.sol:Squads",
            "label": "stakingThreshold",
            "offset": 0,
            "slot": "2",
            "type": "t_uint256"
          },
          {
            "astId": 4502,
            "contract": "contracts/Squads.sol:Squads",
            "label": "squadSize",
            "offset": 0,
            "slot": "3",
            "type": "t_uint256"
          },
          {
            "astId": 4505,
            "contract": "contracts/Squads.sol:Squads",
            "label": "authorizedStaking",
            "offset": 0,
            "slot": "4",
            "type": "t_contract(IStaking)8299"
          },
          {
            "astId": 4507,
            "contract": "contracts/Squads.sol:Squads",
            "label": "isActive",
            "offset": 20,
            "slot": "4",
            "type": "t_bool"
          }
        ],
        "numberOfBytes": "160"
      },
      "t_struct(RoleData)19_storage": {
        "encoding": "inplace",
        "label": "struct AccessControl.RoleData",
        "members": [
          {
            "astId": 16,
            "contract": "contracts/Squads.sol:Squads",
            "label": "members",
            "offset": 0,
            "slot": "0",
            "type": "t_mapping(t_address,t_bool)"
          },
          {
            "astId": 18,
            "contract": "contracts/Squads.sol:Squads",
            "label": "adminRole",
            "offset": 0,
            "slot": "1",
            "type": "t_bytes32"
          }
        ],
        "numberOfBytes": "64"
      },
      "t_struct(Squad)4494_storage": {
        "encoding": "inplace",
        "label": "struct Squads.Squad",
        "members": [
          {
            "astId": 4491,
            "contract": "contracts/Squads.sol:Squads",
            "label": "subscription",
            "offset": 0,
            "slot": "0",
            "type": "t_uint256"
          },
          {
            "astId": 4493,
            "contract": "contracts/Squads.sol:Squads",
            "label": "squadsFilled",
            "offset": 0,
            "slot": "1",
            "type": "t_uint256"
          }
        ],
        "numberOfBytes": "64"
      },
      "t_uint256": {
        "encoding": "inplace",
        "label": "uint256",
        "numberOfBytes": "32"
      }
    }
  }
}