{
  "address": "0x85187D1999377cD16CD4F0e92F9B4162b1BBba73",
  "abi": [
    {
      "inputs": [
        {
          "internalType": "address",
          "name": "subscriptionToken_",
          "type": "address"
        },
        {
          "internalType": "address",
          "name": "referralManager_",
          "type": "address"
        },
        {
          "internalType": "address",
          "name": "stakingContract_",
          "type": "address"
        }
      ],
      "stateMutability": "nonpayable",
      "type": "constructor"
    },
    {
      "anonymous": false,
      "inputs": [
        {
          "indexed": true,
          "internalType": "address",
          "name": "user",
          "type": "address"
        },
        {
          "indexed": true,
          "internalType": "uint256",
          "name": "planId",
          "type": "uint256"
        },
        {
          "indexed": false,
          "internalType": "address",
          "name": "member",
          "type": "address"
        },
        {
          "indexed": false,
          "internalType": "uint256",
          "name": "squadMembers",
          "type": "uint256"
        }
      ],
      "name": "MemberAdded",
      "type": "event"
    },
    {
      "anonymous": false,
      "inputs": [
        {
          "indexed": true,
          "internalType": "bytes32",
          "name": "role",
          "type": "bytes32"
        },
        {
          "indexed": true,
          "internalType": "bytes32",
          "name": "previousAdminRole",
          "type": "bytes32"
        },
        {
          "indexed": true,
          "internalType": "bytes32",
          "name": "newAdminRole",
          "type": "bytes32"
        }
      ],
      "name": "RoleAdminChanged",
      "type": "event"
    },
    {
      "anonymous": false,
      "inputs": [
        {
          "indexed": true,
          "internalType": "bytes32",
          "name": "role",
          "type": "bytes32"
        },
        {
          "indexed": true,
          "internalType": "address",
          "name": "account",
          "type": "address"
        },
        {
          "indexed": true,
          "internalType": "address",
          "name": "sender",
          "type": "address"
        }
      ],
      "name": "RoleGranted",
      "type": "event"
    },
    {
      "anonymous": false,
      "inputs": [
        {
          "indexed": true,
          "internalType": "bytes32",
          "name": "role",
          "type": "bytes32"
        },
        {
          "indexed": true,
          "internalType": "address",
          "name": "account",
          "type": "address"
        },
        {
          "indexed": true,
          "internalType": "address",
          "name": "sender",
          "type": "address"
        }
      ],
      "name": "RoleRevoked",
      "type": "event"
    },
    {
      "anonymous": false,
      "inputs": [
        {
          "indexed": true,
          "internalType": "uint256",
          "name": "planId",
          "type": "uint256"
        },
        {
          "indexed": false,
          "internalType": "bool",
          "name": "isActive",
          "type": "bool"
        }
      ],
      "name": "SquadActivityChanged",
      "type": "event"
    },
    {
      "anonymous": false,
      "inputs": [
        {
          "indexed": true,
          "internalType": "address",
          "name": "user",
          "type": "address"
        },
        {
          "indexed": true,
          "internalType": "uint256",
          "name": "planId",
          "type": "uint256"
        },
        {
          "indexed": true,
          "internalType": "uint256",
          "name": "squadCount",
          "type": "uint256"
        }
      ],
      "name": "SquadFilled",
      "type": "event"
    },
    {
      "anonymous": false,
      "inputs": [
        {
          "indexed": true,
          "internalType": "uint256",
          "name": "planId",
          "type": "uint256"
        },
        {
          "indexed": false,
          "internalType": "uint256",
          "name": "subscriptionCost",
          "type": "uint256"
        },
        {
          "indexed": false,
          "internalType": "uint256",
          "name": "reward",
          "type": "uint256"
        },
        {
          "indexed": false,
          "internalType": "uint256",
          "name": "stakingThreshold",
          "type": "uint256"
        },
        {
          "indexed": false,
          "internalType": "uint256",
          "name": "squadSize",
          "type": "uint256"
        },
        {
          "indexed": false,
          "internalType": "uint256",
          "name": "stakingPlanId",
          "type": "uint256"
        }
      ],
      "name": "SquadPlanCreated",
      "type": "event"
    },
    {
      "anonymous": false,
      "inputs": [
        {
          "indexed": true,
          "internalType": "address",
          "name": "subscriber",
          "type": "address"
        },
        {
          "indexed": true,
          "internalType": "uint256",
          "name": "planId",
          "type": "uint256"
        },
        {
          "indexed": true,
          "internalType": "uint256",
          "name": "timestamp",
          "type": "uint256"
        }
      ],
      "name": "Subscribed",
      "type": "event"
    },
    {
      "inputs": [],
      "name": "DEFAULT_ADMIN_ROLE",
      "outputs": [
        {
          "internalType": "bytes32",
          "name": "",
          "type": "bytes32"
        }
      ],
      "stateMutability": "view",
      "type": "function"
    },
    {
      "inputs": [],
      "name": "SUBSCRIPTION_PERIOD_DAYS",
      "outputs": [
        {
          "internalType": "uint256",
          "name": "",
          "type": "uint256"
        }
      ],
      "stateMutability": "view",
      "type": "function"
    },
    {
      "inputs": [
        {
          "internalType": "uint256",
          "name": "subscriptionCost_",
          "type": "uint256"
        },
        {
          "internalType": "uint256",
          "name": "reward_",
          "type": "uint256"
        },
        {
          "internalType": "uint256",
          "name": "stakingThreshold_",
          "type": "uint256"
        },
        {
          "internalType": "uint256",
          "name": "squadSize_",
          "type": "uint256"
        },
        {
          "internalType": "uint256",
          "name": "stakingPlanId_",
          "type": "uint256"
        }
      ],
      "name": "addPlan",
      "outputs": [],
      "stateMutability": "nonpayable",
      "type": "function"
    },
    {
      "inputs": [
        {
          "internalType": "uint256",
          "name": "planId",
          "type": "uint256"
        }
      ],
      "name": "getPlan",
      "outputs": [
        {
          "components": [
            {
              "internalType": "uint256",
              "name": "subscriptionCost",
              "type": "uint256"
            },
            {
              "internalType": "uint256",
              "name": "reward",
              "type": "uint256"
            },
            {
              "internalType": "uint256",
              "name": "stakingThreshold",
              "type": "uint256"
            },
            {
              "internalType": "uint256",
              "name": "squadSize",
              "type": "uint256"
            },
            {
              "internalType": "uint256",
              "name": "stakingPlanId",
              "type": "uint256"
            },
            {
              "internalType": "bool",
              "name": "isActive",
              "type": "bool"
            }
          ],
          "internalType": "struct ISquads.SquadPlan",
          "name": "",
          "type": "tuple"
        }
      ],
      "stateMutability": "view",
      "type": "function"
    },
    {
      "inputs": [],
      "name": "getPlans",
      "outputs": [
        {
          "components": [
            {
              "internalType": "uint256",
              "name": "subscriptionCost",
              "type": "uint256"
            },
            {
              "internalType": "uint256",
              "name": "reward",
              "type": "uint256"
            },
            {
              "internalType": "uint256",
              "name": "stakingThreshold",
              "type": "uint256"
            },
            {
              "internalType": "uint256",
              "name": "squadSize",
              "type": "uint256"
            },
            {
              "internalType": "uint256",
              "name": "stakingPlanId",
              "type": "uint256"
            },
            {
              "internalType": "bool",
              "name": "isActive",
              "type": "bool"
            }
          ],
          "internalType": "struct ISquads.SquadPlan[]",
          "name": "",
          "type": "tuple[]"
        }
      ],
      "stateMutability": "view",
      "type": "function"
    },
    {
      "inputs": [
        {
          "internalType": "bytes32",
          "name": "role",
          "type": "bytes32"
        }
      ],
      "name": "getRoleAdmin",
      "outputs": [
        {
          "internalType": "bytes32",
          "name": "",
          "type": "bytes32"
        }
      ],
      "stateMutability": "view",
      "type": "function"
    },
    {
      "inputs": [
        {
          "internalType": "uint256",
          "name": "amount",
          "type": "uint256"
        }
      ],
      "name": "getSufficientPlanIdByStakingAmount",
      "outputs": [
        {
          "internalType": "int256",
          "name": "",
          "type": "int256"
        }
      ],
      "stateMutability": "view",
      "type": "function"
    },
    {
      "inputs": [],
      "name": "getTimestamp",
      "outputs": [
        {
          "internalType": "uint256",
          "name": "",
          "type": "uint256"
        }
      ],
      "stateMutability": "view",
      "type": "function"
    },
    {
      "inputs": [
        {
          "internalType": "address",
          "name": "user",
          "type": "address"
        },
        {
          "internalType": "uint256",
          "name": "planId",
          "type": "uint256"
        }
      ],
      "name": "getUserSquadMembers",
      "outputs": [
        {
          "internalType": "address[]",
          "name": "",
          "type": "address[]"
        }
      ],
      "stateMutability": "view",
      "type": "function"
    },
    {
      "inputs": [
        {
          "internalType": "address",
          "name": "user",
          "type": "address"
        },
        {
          "internalType": "uint256",
          "name": "planId",
          "type": "uint256"
        }
      ],
      "name": "getUserSubscription",
      "outputs": [
        {
          "components": [
            {
              "internalType": "uint256",
              "name": "subscription",
              "type": "uint256"
            },
            {
              "internalType": "uint256",
              "name": "squadsFilled",
              "type": "uint256"
            }
          ],
          "internalType": "struct ISquads.Squad",
          "name": "",
          "type": "tuple"
        }
      ],
      "stateMutability": "view",
      "type": "function"
    },
    {
      "inputs": [
        {
          "internalType": "bytes32",
          "name": "role",
          "type": "bytes32"
        },
        {
          "internalType": "address",
          "name": "account",
          "type": "address"
        }
      ],
      "name": "grantRole",
      "outputs": [],
      "stateMutability": "nonpayable",
      "type": "function"
    },
    {
      "inputs": [
        {
          "internalType": "address",
          "name": "user",
          "type": "address"
        }
      ],
      "name": "hasAnySubscription",
      "outputs": [
        {
          "internalType": "bool",
          "name": "",
          "type": "bool"
        }
      ],
      "stateMutability": "view",
      "type": "function"
    },
    {
      "inputs": [
        {
          "internalType": "bytes32",
          "name": "role",
          "type": "bytes32"
        },
        {
          "internalType": "address",
          "name": "account",
          "type": "address"
        }
      ],
      "name": "hasRole",
      "outputs": [
        {
          "internalType": "bool",
          "name": "",
          "type": "bool"
        }
      ],
      "stateMutability": "view",
      "type": "function"
    },
    {
      "inputs": [
        {
          "internalType": "uint256",
          "name": "",
          "type": "uint256"
        }
      ],
      "name": "plans",
      "outputs": [
        {
          "internalType": "uint256",
          "name": "subscriptionCost",
          "type": "uint256"
        },
        {
          "internalType": "uint256",
          "name": "reward",
          "type": "uint256"
        },
        {
          "internalType": "uint256",
          "name": "stakingThreshold",
          "type": "uint256"
        },
        {
          "internalType": "uint256",
          "name": "squadSize",
          "type": "uint256"
        },
        {
          "internalType": "uint256",
          "name": "stakingPlanId",
          "type": "uint256"
        },
        {
          "internalType": "bool",
          "name": "isActive",
          "type": "bool"
        }
      ],
      "stateMutability": "view",
      "type": "function"
    },
    {
      "inputs": [],
      "name": "referralManager",
      "outputs": [
        {
          "internalType": "contract IReferralManager",
          "name": "",
          "type": "address"
        }
      ],
      "stateMutability": "view",
      "type": "function"
    },
    {
      "inputs": [
        {
          "internalType": "bytes32",
          "name": "role",
          "type": "bytes32"
        },
        {
          "internalType": "address",
          "name": "account",
          "type": "address"
        }
      ],
      "name": "renounceRole",
      "outputs": [],
      "stateMutability": "nonpayable",
      "type": "function"
    },
    {
      "inputs": [
        {
          "internalType": "bytes32",
          "name": "role",
          "type": "bytes32"
        },
        {
          "internalType": "address",
          "name": "account",
          "type": "address"
        }
      ],
      "name": "revokeRole",
      "outputs": [],
      "stateMutability": "nonpayable",
      "type": "function"
    },
    {
      "inputs": [],
      "name": "stakingContract",
      "outputs": [
        {
          "internalType": "contract IStaking",
          "name": "",
          "type": "address"
        }
      ],
      "stateMutability": "view",
      "type": "function"
    },
    {
      "inputs": [
        {
          "internalType": "uint256",
          "name": "planId",
          "type": "uint256"
        }
      ],
      "name": "subscribe",
      "outputs": [],
      "stateMutability": "nonpayable",
      "type": "function"
    },
    {
      "inputs": [],
      "name": "subscriptionToken",
      "outputs": [
        {
          "internalType": "contract ERC20Burnable",
          "name": "",
          "type": "address"
        }
      ],
      "stateMutability": "view",
      "type": "function"
    },
    {
      "inputs": [
        {
          "internalType": "bytes4",
          "name": "interfaceId",
          "type": "bytes4"
        }
      ],
      "name": "supportsInterface",
      "outputs": [
        {
          "internalType": "bool",
          "name": "",
          "type": "bool"
        }
      ],
      "stateMutability": "view",
      "type": "function"
    },
    {
      "inputs": [
        {
          "internalType": "uint256",
          "name": "stakingPlanId",
          "type": "uint256"
        },
        {
          "internalType": "address",
          "name": "referrer",
          "type": "address"
        },
        {
          "internalType": "address",
          "name": "member",
          "type": "address"
        },
        {
          "internalType": "uint256",
          "name": "amount",
          "type": "uint256"
        }
      ],
      "name": "tryToAddMember",
      "outputs": [
        {
          "internalType": "bool",
          "name": "",
          "type": "bool"
        }
      ],
      "stateMutability": "nonpayable",
      "type": "function"
    },
    {
      "inputs": [
        {
          "internalType": "uint256",
          "name": "planId",
          "type": "uint256"
        },
        {
          "internalType": "bool",
          "name": "isActive",
          "type": "bool"
        }
      ],
      "name": "updatePlanActivity",
      "outputs": [],
      "stateMutability": "nonpayable",
      "type": "function"
    },
    {
      "inputs": [
        {
          "internalType": "uint256",
          "name": "planId",
          "type": "uint256"
        },
        {
          "internalType": "uint256",
          "name": "reward",
          "type": "uint256"
        }
      ],
      "name": "updatePlanReward",
      "outputs": [],
      "stateMutability": "nonpayable",
      "type": "function"
    },
    {
      "inputs": [
        {
          "internalType": "uint256",
          "name": "planId",
          "type": "uint256"
        },
        {
          "internalType": "uint256",
          "name": "size",
          "type": "uint256"
        }
      ],
      "name": "updatePlanSquadSize",
      "outputs": [],
      "stateMutability": "nonpayable",
      "type": "function"
    },
    {
      "inputs": [
        {
          "internalType": "uint256",
          "name": "planId",
          "type": "uint256"
        },
        {
          "internalType": "uint256",
          "name": "stakingPlanId",
          "type": "uint256"
        }
      ],
      "name": "updatePlanStakingId",
      "outputs": [],
      "stateMutability": "nonpayable",
      "type": "function"
    },
    {
      "inputs": [
        {
          "internalType": "uint256",
          "name": "planId",
          "type": "uint256"
        },
        {
          "internalType": "uint256",
          "name": "threshold",
          "type": "uint256"
        }
      ],
      "name": "updatePlanStakingThreshold",
      "outputs": [],
      "stateMutability": "nonpayable",
      "type": "function"
    },
    {
      "inputs": [
        {
          "internalType": "uint256",
          "name": "planId",
          "type": "uint256"
        },
        {
          "internalType": "uint256",
          "name": "subscriptionCost",
          "type": "uint256"
        }
      ],
      "name": "updatePlanSubscriptionCost",
      "outputs": [],
      "stateMutability": "nonpayable",
      "type": "function"
    },
    {
      "inputs": [
        {
          "internalType": "address",
          "name": "stakingContract_",
          "type": "address"
        }
      ],
      "name": "updateStakingContract",
      "outputs": [],
      "stateMutability": "nonpayable",
      "type": "function"
    },
    {
      "inputs": [
        {
          "internalType": "uint256",
          "name": "numDays",
          "type": "uint256"
        }
      ],
      "name": "updateSubscriptionPeriod",
      "outputs": [],
      "stateMutability": "nonpayable",
      "type": "function"
    },
    {
      "inputs": [
        {
          "internalType": "address",
          "name": "referralManager_",
          "type": "address"
        }
      ],
      "name": "updateSubscriptionReferralManager",
      "outputs": [],
      "stateMutability": "nonpayable",
      "type": "function"
    },
    {
      "inputs": [
        {
          "internalType": "address",
          "name": "token",
          "type": "address"
        }
      ],
      "name": "updateSubscriptionToken",
      "outputs": [],
      "stateMutability": "nonpayable",
      "type": "function"
    },
    {
      "inputs": [
        {
          "internalType": "address",
          "name": "user",
          "type": "address"
        },
        {
          "internalType": "uint256",
          "name": "planId",
          "type": "uint256"
        }
      ],
      "name": "userHasPlanSubscription",
      "outputs": [
        {
          "internalType": "bool",
          "name": "",
          "type": "bool"
        }
      ],
      "stateMutability": "view",
      "type": "function"
    },
    {
      "inputs": [
        {
          "internalType": "address",
          "name": "user",
          "type": "address"
        },
        {
          "internalType": "uint256",
          "name": "planId",
          "type": "uint256"
        }
      ],
      "name": "userHasSufficientStaking",
      "outputs": [
        {
          "internalType": "bool",
          "name": "",
          "type": "bool"
        }
      ],
      "stateMutability": "view",
      "type": "function"
    }
  ],
  "transactionHash": "0xf87404086518d1fd10e1d4caa0322aacff3300da494b94530c2607465c676000",
  "args": [
    "0x6a5bFC3aBCf684a27653811030Daeb70CAaC4e56",
    "0x0B9159F99426FC64934E1c089E886EDB78d38C00",
    "0x8dc5eD607Ac23d78a0EE911B1218f6AD835B6897"
  ],
  "numDeployments": 1,
  "solcInputHash": "f1b4f3a8fcc7ca35a0c05d0ebbe19843",
  "bytecode": "0x608060405261016d6001553480156200001757600080fd5b50604051620020ca380380620020ca8339810160408190526200003a9162000184565b6001600160a01b0383166200004e57600080fd5b6001600160a01b0382166200006257600080fd5b6001600160a01b0381166200007657600080fd5b62000083600033620000c6565b600580546001600160a01b039485166001600160a01b031991821617909155600680549385169382169390931790925560078054919093169116179055620001ce565b6000828152602081815260408083206001600160a01b038516845290915290205460ff1662000163576000828152602081815260408083206001600160a01b03851684529091529020805460ff19166001179055620001223390565b6001600160a01b0316816001600160a01b0316837f2f8788117e7eff1d82e926ec794901d17c78024a50270940304540a733656f0d60405160405180910390a45b5050565b80516001600160a01b03811681146200017f57600080fd5b919050565b6000806000606084860312156200019a57600080fd5b620001a58462000167565b9250620001b56020850162000167565b9150620001c56040850162000167565b90509250925092565b611eec80620001de6000396000f3fe608060405234801561001057600080fd5b50600436106102065760003560e01c806391d148541161011a578063b1620616116100ad578063d6672e1c1161007c578063d6672e1c1461050e578063d94a862b14610521578063d966edf014610536578063ee99205c14610549578063fcc475121461055c57600080fd5b8063b16206161461042b578063ca7c10131461046d578063cc5d19c114610480578063d547741f146104fb57600080fd5b8063aaa138a2116100e9578063aaa138a2146103dc578063ad083928146103e5578063ad6299bc14610405578063afea5d551461041857600080fd5b806391d148541461039b578063992dc2da146103ae578063a217fddf146103c1578063a243d5ac146103c957600080fd5b80632f2ff15d1161019d5780633fe905371161016c5780633fe905371461033c57806342ec14d71461034f5780636445c67914610362578063736560b51461037557806388da0f131461038857600080fd5b80632f2ff15d146102f05780632fe00f57146103035780633347e4d61461031657806336568abe1461032957600080fd5b80631c0e0612116101d95780631c0e06121461026f578063248a9ca31461028257806326cd5274146102a55780632ccd9623146102c557600080fd5b806301ffc9a71461020b5780630f574ba71461023357806316867cd814610248578063188ec35614610269575b600080fd5b61021e6102193660046118fa565b61056f565b60405190151581526020015b60405180910390f35b610246610241366004611924565b6105a6565b005b61025b610256366004611924565b610801565b60405190815260200161022a565b4261025b565b61024661027d36600461194b565b61085a565b61025b610290366004611924565b60009081526020819052604090206001015490565b6102b86102b3366004611924565b6108e2565b60405161022a919061197b565b6006546102d8906001600160a01b031681565b6040516001600160a01b03909116815260200161022a565b6102466102fe3660046119dc565b610990565b610246610311366004611a08565b6109ba565b610246610324366004611a2a565b6109f3565b6102466103373660046119dc565b610a21565b61024661034a366004611a08565b610a9f565b61024661035d366004611a2a565b610ad4565b61021e610370366004611a45565b610b02565b610246610383366004611924565b610b2b565b610246610396366004611a6f565b610b3c565b61021e6103a93660046119dc565b610ce4565b61021e6103bc366004611a45565b610d0d565b61025b600081565b6102466103d7366004611a2a565b610e91565b61025b60015481565b6103f86103f3366004611a45565b610ebf565b60405161022a9190611aaa565b61021e610413366004611a2a565b610f3d565b61021e610426366004611af7565b610f7e565b61043e610439366004611924565b6112f8565b6040805196875260208701959095529385019290925260608401526080830152151560a082015260c00161022a565b61024661047b366004611a08565b611341565b6104e061048e366004611a45565b60408051808201909152600080825260208201525060008181526003602090815260408083206001600160a01b0386168452825291829020825180840190935280548352600101549082015292915050565b6040805182518152602092830151928101929092520161022a565b6102466105093660046119dc565b61137a565b6005546102d8906001600160a01b031681565b61052961139f565b60405161022a9190611b3b565b610246610544366004611a08565b611439565b6007546102d8906001600160a01b031681565b61024661056a366004611a08565b611472565b60006001600160e01b03198216637965db0b60e01b14806105a057506301ffc9a760e01b6001600160e01b03198316145b92915050565b60025481106105f05760405162461bcd60e51b8152602060048201526011602482015270125b98dbdc9c9958dd081c1b185b881a59607a1b60448201526064015b60405180910390fd5b600033905060006002838154811061060a5761060a611bb4565b60009182526020909120600690910201600581015490915060ff166106665760405162461bcd60e51b8152602060048201526012602482015271506c616e206973206e6f742061637469766560701b60448201526064016105e7565b600554815460405163079cc67960e41b81526001600160a01b03858116600483015260248201929092529116906379cc679090604401600060405180830381600087803b1580156106b657600080fd5b505af11580156106ca573d6000803e3d6000fd5b50600092506106d7915050565b604051908082528060200260200182016040528015610700578160200160208202803683370190505b5060008481526004602090815260408083206001600160a01b0387168452825290912082516107359391929190910190611880565b5060004260008581526003602090815260408083206001600160a01b0388168452909152902054106107895760008481526003602090815260408083206001600160a01b038716845290915290205461078b565b425b90506001546201518061079e9190611bf6565b6107a89082611c15565b60008581526003602090815260408083206001600160a01b03881680855292528083209390935591518392879290917ff94991dcbea6e8ac439cbc93bd9c62a4d39f04e0ad656df9a703f13552c2787f9190a450505050565b6000600019815b600254811015610853576002818154811061082557610825611bb4565b9060005260206000209060060201600201548410610841578091505b8061084b81611c2d565b915050610808565b5092915050565b6000610865816114ab565b816002848154811061087957610879611bb4565b906000526020600020906006020160050160006101000a81548160ff021916908315150217905550827f6da7bc8b01ce6d2ed854278dbb7c80b2cae78c297ec593d38c15b3d4445985a8836040516108d5911515815260200190565b60405180910390a2505050565b61091d6040518060c0016040528060008152602001600081526020016000815260200160008152602001600081526020016000151581525090565b6002828154811061093057610930611bb4565b60009182526020918290206040805160c081018252600690930290910180548352600181015493830193909352600283015490820152600382015460608201526004820154608082015260059091015460ff16151560a082015292915050565b6000828152602081905260409020600101546109ab816114ab565b6109b583836114b8565b505050565b60006109c5816114ab565b81600284815481106109d9576109d9611bb4565b906000526020600020906006020160010181905550505050565b60006109fe816114ab565b50600780546001600160a01b0319166001600160a01b0392909216919091179055565b6001600160a01b0381163314610a915760405162461bcd60e51b815260206004820152602f60248201527f416363657373436f6e74726f6c3a2063616e206f6e6c792072656e6f756e636560448201526e103937b632b9903337b91039b2b63360891b60648201526084016105e7565b610a9b828261153c565b5050565b6000610aaa816114ab565b8160028481548110610abe57610abe611bb4565b6000918252602090912060069091020155505050565b6000610adf816114ab565b50600680546001600160a01b0319166001600160a01b0392909216919091179055565b60009081526003602090815260408083206001600160a01b039490941683529290522054421090565b6000610b36816114ab565b50600155565b6000610b47816114ab565b6040805160c081018252878152602081018781529181018681526060820186815260808301868152600160a08501818152600280548084018255600082905287517f405787fa12a823e0f2b7631cc41b3ba8828b3321ca811111fa75cd3aa3bb5ace60069092029182015597517f405787fa12a823e0f2b7631cc41b3ba8828b3321ca811111fa75cd3aa3bb5acf89015594517f405787fa12a823e0f2b7631cc41b3ba8828b3321ca811111fa75cd3aa3bb5ad088015592517f405787fa12a823e0f2b7631cc41b3ba8828b3321ca811111fa75cd3aa3bb5ad187015590517f405787fa12a823e0f2b7631cc41b3ba8828b3321ca811111fa75cd3aa3bb5ad286015590517f405787fa12a823e0f2b7631cc41b3ba8828b3321ca811111fa75cd3aa3bb5ad3909401805460ff191694151594909417909355549091610c8c91611c48565b604080518981526020810189905290810187905260608101869052608081018590527f3beeb65995b90bd0914666101e05dd847e837c47b2f0d4da8882c34ea27c91309060a00160405180910390a250505050505050565b6000918252602082815260408084206001600160a01b0393909316845291905290205460ff1690565b6007546002805460009283926001600160a01b03909116916314ce783d919086908110610d3c57610d3c611bb4565b906000526020600020906006020160040154866040518363ffffffff1660e01b8152600401610d7e9291909182526001600160a01b0316602082015260400190565b600060405180830381865afa158015610d9b573d6000803e3d6000fd5b505050506040513d6000823e601f3d908101601f19168201604052610dc39190810190611cb9565b80519091505b8015610e86574282610ddc600184611c48565b81518110610dec57610dec611bb4565b602002602001015160400151118015610e2a575081610e0c600183611c48565b81518110610e1c57610e1c611bb4565b602002602001015160c00151155b8015610e64575083610e6283610e41600185611c48565b81518110610e5157610e51611bb4565b602002602001015160000151610801565b145b15610e74576001925050506105a0565b80610e7e81611dc7565b915050610dc9565b506000949350505050565b6000610e9c816114ab565b50600580546001600160a01b0319166001600160a01b0392909216919091179055565b60008181526004602090815260408083206001600160a01b0386168452825291829020805483518184028101840190945280845260609392830182828015610f3057602002820191906000526020600020905b81546001600160a01b03168152600190910190602001808311610f12575b5050505050905092915050565b6000805b600254811015610f7557610f558382610b02565b15610f635750600192915050565b80610f6d81611c2d565b915050610f41565b50600092915050565b60006001600160a01b0384161580610f9d57506001600160a01b038316155b15610faa575060006112f0565b6000610fb583610801565b90506000811215610fca5760009150506112f0565b60008190508660028281548110610fe357610fe3611bb4565b90600052602060002090600602016004015414611005576000925050506112f0565b6007546001600160a01b03163314801561102457506110248682610b02565b801561103557506110358682610d0d565b801561104957506110478682876115a1565b155b156112e95760008181526004602090815260408083206001600160a01b038a8116808652918452918420805460018101825581865293852090930180546001600160a01b031916928a16929092179091559091525460028054839081106110b2576110b2611bb4565b90600052602060002090600602016003015481106112935760008281526003602090815260408083206001600160a01b038b16845290915281206001808201805492939192909190611105908490611c15565b9091555050600081556006546040805160e081019091526001600160a01b038a81168252600280549190931692639581f52792916020830191908890811061114f5761114f611bb4565b9060005260206000209060060201600101548152602001306001600160a01b03168152602001600181526020016002878154811061118f5761118f611bb4565b90600052602060002090600602016002015481526020018c815260200160048152506040518263ffffffff1660e01b815260040161121f919081516001600160a01b0390811682526020808401519083015260408084015190911690820152606080830151908201526080808301519082015260a0828101519082015260c0918201519181019190915260e00190565b600060405180830381600087803b15801561123957600080fd5b505af115801561124d573d6000803e3d6000fd5b50505050806001015483896001600160a01b03167fc22bc73345a19ca25692353736ee8587e0e2d12c75a1ed016950ed4b20fac30160405160405180910390a4506112dd565b604080516001600160a01b038881168252602082018490528492908a16917f4727d8bf558b6f2fd2d2f66e2062e0c408a4b470870a0385e940358a87ad3626910160405180910390a35b600193505050506112f0565b6000925050505b949350505050565b6002818154811061130857600080fd5b60009182526020909120600690910201805460018201546002830154600384015460048501546005909501549395509193909260ff1686565b600061134c816114ab565b816002848154811061136057611360611bb4565b906000526020600020906006020160040181905550505050565b600082815260208190526040902060010154611395816114ab565b6109b5838361153c565b60606002805480602002602001604051908101604052809291908181526020016000905b828210156114305760008481526020908190206040805160c08101825260068602909201805483526001808201548486015260028201549284019290925260038101546060840152600481015460808401526005015460ff16151560a083015290835290920191016113c3565b50505050905090565b6000611444816114ab565b816002848154811061145857611458611bb4565b906000526020600020906006020160020181905550505050565b600061147d816114ab565b816002848154811061149157611491611bb4565b906000526020600020906006020160030181905550505050565b6114b58133611680565b50565b6114c28282610ce4565b610a9b576000828152602081815260408083206001600160a01b03851684529091529020805460ff191660011790556114f83390565b6001600160a01b0316816001600160a01b0316837f2f8788117e7eff1d82e926ec794901d17c78024a50270940304540a733656f0d60405160405180910390a45050565b6115468282610ce4565b15610a9b576000828152602081815260408083206001600160a01b0385168085529252808320805460ff1916905551339285917ff6391f5c32d9c69d2a47ea670b442974b53935d1edc7fd64eb21e047a839171b9190a45050565b60008281526004602090815260408083206001600160a01b038716845282528083208054825181850281018501909352808352849383018282801561160f57602002820191906000526020600020905b81546001600160a01b031681526001909101906020018083116115f1575b5050505050905060005b815181101561167257836001600160a01b031682828151811061163e5761163e611bb4565b60200260200101516001600160a01b0316141561166057600192505050611679565b8061166a81611c2d565b915050611619565b5060009150505b9392505050565b61168a8282610ce4565b610a9b576116a2816001600160a01b031660146116e4565b6116ad8360206116e4565b6040516020016116be929190611e0e565b60408051601f198184030181529082905262461bcd60e51b82526105e791600401611e83565b606060006116f3836002611bf6565b6116fe906002611c15565b67ffffffffffffffff81111561171657611716611bca565b6040519080825280601f01601f191660200182016040528015611740576020820181803683370190505b509050600360fc1b8160008151811061175b5761175b611bb4565b60200101906001600160f81b031916908160001a905350600f60fb1b8160018151811061178a5761178a611bb4565b60200101906001600160f81b031916908160001a90535060006117ae846002611bf6565b6117b9906001611c15565b90505b6001811115611831576f181899199a1a9b1b9c1cb0b131b232b360811b85600f16601081106117ed576117ed611bb4565b1a60f81b82828151811061180357611803611bb4565b60200101906001600160f81b031916908160001a90535060049490941c9361182a81611dc7565b90506117bc565b5083156116795760405162461bcd60e51b815260206004820181905260248201527f537472696e67733a20686578206c656e67746820696e73756666696369656e7460448201526064016105e7565b8280548282559060005260206000209081019282156118d5579160200282015b828111156118d557825182546001600160a01b0319166001600160a01b039091161782556020909201916001909101906118a0565b506118e19291506118e5565b5090565b5b808211156118e157600081556001016118e6565b60006020828403121561190c57600080fd5b81356001600160e01b03198116811461167957600080fd5b60006020828403121561193657600080fd5b5035919050565b80151581146114b557600080fd5b6000806040838503121561195e57600080fd5b8235915060208301356119708161193d565b809150509250929050565b60c081016105a08284805182526020810151602083015260408101516040830152606081015160608301526080810151608083015260a0810151151560a08301525050565b80356001600160a01b03811681146119d757600080fd5b919050565b600080604083850312156119ef57600080fd5b823591506119ff602084016119c0565b90509250929050565b60008060408385031215611a1b57600080fd5b50508035926020909101359150565b600060208284031215611a3c57600080fd5b611679826119c0565b60008060408385031215611a5857600080fd5b611a61836119c0565b946020939093013593505050565b600080600080600060a08688031215611a8757600080fd5b505083359560208501359550604085013594606081013594506080013592509050565b6020808252825182820181905260009190848201906040850190845b81811015611aeb5783516001600160a01b031683529284019291840191600101611ac6565b50909695505050505050565b60008060008060808587031215611b0d57600080fd5b84359350611b1d602086016119c0565b9250611b2b604086016119c0565b9396929550929360600135925050565b6020808252825182820181905260009190848201906040850190845b81811015611aeb57611ba1838551805182526020810151602083015260408101516040830152606081015160608301526080810151608083015260a0810151151560a08301525050565b9284019260c09290920191600101611b57565b634e487b7160e01b600052603260045260246000fd5b634e487b7160e01b600052604160045260246000fd5b634e487b7160e01b600052601160045260246000fd5b6000816000190483118215151615611c1057611c10611be0565b500290565b60008219821115611c2857611c28611be0565b500190565b6000600019821415611c4157611c41611be0565b5060010190565b600082821015611c5a57611c5a611be0565b500390565b60405160e0810167ffffffffffffffff81118282101715611c8257611c82611bca565b60405290565b604051601f8201601f1916810167ffffffffffffffff81118282101715611cb157611cb1611bca565b604052919050565b60006020808385031215611ccc57600080fd5b825167ffffffffffffffff80821115611ce457600080fd5b818501915085601f830112611cf857600080fd5b815181811115611d0a57611d0a611bca565b611d18848260051b01611c88565b818152848101925060e0918202840185019188831115611d3757600080fd5b938501935b82851015611dbb5780858a031215611d545760008081fd5b611d5c611c5f565b85518152868601518782015260408087015190820152606080870151908201526080808701519082015260a080870151611d958161193d565b9082015260c086810151611da88161193d565b9082015284529384019392850192611d3c565b50979650505050505050565b600081611dd657611dd6611be0565b506000190190565b60005b83811015611df9578181015183820152602001611de1565b83811115611e08576000848401525b50505050565b7f416363657373436f6e74726f6c3a206163636f756e7420000000000000000000815260008351611e46816017850160208801611dde565b7001034b99036b4b9b9b4b733903937b6329607d1b6017918401918201528351611e77816028840160208801611dde565b01602801949350505050565b6020815260008251806020840152611ea2816040850160208701611dde565b601f01601f1916919091016040019291505056fea26469706673582212202d97c79e624aecedabd2a0fb5aea6bf18e49cea024cb615b82868e5bb9754b3c64736f6c634300080b0033",
  "devdoc": {
    "kind": "dev",
    "methods": {
      "getRoleAdmin(bytes32)": {
        "details": "Returns the admin role that controls `role`. See {grantRole} and {revokeRole}. To change a role's admin, use {_setRoleAdmin}."
      },
      "grantRole(bytes32,address)": {
        "details": "Grants `role` to `account`. If `account` had not been already granted `role`, emits a {RoleGranted} event. Requirements: - the caller must have ``role``'s admin role. May emit a {RoleGranted} event."
      },
      "hasRole(bytes32,address)": {
        "details": "Returns `true` if `account` has been granted `role`."
      },
      "renounceRole(bytes32,address)": {
        "details": "Revokes `role` from the calling account. Roles are often managed via {grantRole} and {revokeRole}: this function's purpose is to provide a mechanism for accounts to lose their privileges if they are compromised (such as when a trusted device is misplaced). If the calling account had been revoked `role`, emits a {RoleRevoked} event. Requirements: - the caller must be `account`. May emit a {RoleRevoked} event."
      },
      "revokeRole(bytes32,address)": {
        "details": "Revokes `role` from `account`. If `account` had been granted `role`, emits a {RoleRevoked} event. Requirements: - the caller must have ``role``'s admin role. May emit a {RoleRevoked} event."
      },
      "supportsInterface(bytes4)": {
        "details": "See {IERC165-supportsInterface}."
      }
    },
    "version": 1
  },
  "userdoc": {
    "kind": "user",
    "methods": {},
    "version": 1
  },
  "storageLayout": {
    "storage": [
      {
        "astId": 178,
        "contract": "contracts/Squads.sol:Squads",
        "label": "_roles",
        "offset": 0,
        "slot": "0",
        "type": "t_mapping(t_bytes32,t_struct(RoleData)173_storage)"
      },
      {
        "astId": 8997,
        "contract": "contracts/Squads.sol:Squads",
        "label": "SUBSCRIPTION_PERIOD_DAYS",
        "offset": 0,
        "slot": "1",
        "type": "t_uint256"
      },
      {
        "astId": 9001,
        "contract": "contracts/Squads.sol:Squads",
        "label": "plans",
        "offset": 0,
        "slot": "2",
        "type": "t_array(t_struct(SquadPlan)13103_storage)dyn_storage"
      },
      {
        "astId": 9008,
        "contract": "contracts/Squads.sol:Squads",
        "label": "userSubscriptions",
        "offset": 0,
        "slot": "3",
        "type": "t_mapping(t_uint256,t_mapping(t_address,t_struct(Squad)13090_storage))"
      },
      {
        "astId": 9015,
        "contract": "contracts/Squads.sol:Squads",
        "label": "squadMembers",
        "offset": 0,
        "slot": "4",
        "type": "t_mapping(t_uint256,t_mapping(t_address,t_array(t_address)dyn_storage))"
      },
      {
        "astId": 9018,
        "contract": "contracts/Squads.sol:Squads",
        "label": "subscriptionToken",
        "offset": 0,
        "slot": "5",
        "type": "t_contract(ERC20Burnable)3161"
      },
      {
        "astId": 9021,
        "contract": "contracts/Squads.sol:Squads",
        "label": "referralManager",
        "offset": 0,
        "slot": "6",
        "type": "t_contract(IReferralManager)13083"
      },
      {
        "astId": 9024,
        "contract": "contracts/Squads.sol:Squads",
        "label": "stakingContract",
        "offset": 0,
        "slot": "7",
        "type": "t_contract(IStaking)13333"
      }
    ],
    "types": {
      "t_address": {
        "encoding": "inplace",
        "label": "address",
        "numberOfBytes": "20"
      },
      "t_array(t_address)dyn_storage": {
        "base": "t_address",
        "encoding": "dynamic_array",
        "label": "address[]",
        "numberOfBytes": "32"
      },
      "t_array(t_struct(SquadPlan)13103_storage)dyn_storage": {
        "base": "t_struct(SquadPlan)13103_storage",
        "encoding": "dynamic_array",
        "label": "struct ISquads.SquadPlan[]",
        "numberOfBytes": "32"
      },
      "t_bool": {
        "encoding": "inplace",
        "label": "bool",
        "numberOfBytes": "1"
      },
      "t_bytes32": {
        "encoding": "inplace",
        "label": "bytes32",
        "numberOfBytes": "32"
      },
      "t_contract(ERC20Burnable)3161": {
        "encoding": "inplace",
        "label": "contract ERC20Burnable",
        "numberOfBytes": "20"
      },
      "t_contract(IReferralManager)13083": {
        "encoding": "inplace",
        "label": "contract IReferralManager",
        "numberOfBytes": "20"
      },
      "t_contract(IStaking)13333": {
        "encoding": "inplace",
        "label": "contract IStaking",
        "numberOfBytes": "20"
      },
      "t_mapping(t_address,t_array(t_address)dyn_storage)": {
        "encoding": "mapping",
        "key": "t_address",
        "label": "mapping(address => address[])",
        "numberOfBytes": "32",
        "value": "t_array(t_address)dyn_storage"
      },
      "t_mapping(t_address,t_bool)": {
        "encoding": "mapping",
        "key": "t_address",
        "label": "mapping(address => bool)",
        "numberOfBytes": "32",
        "value": "t_bool"
      },
      "t_mapping(t_address,t_struct(Squad)13090_storage)": {
        "encoding": "mapping",
        "key": "t_address",
        "label": "mapping(address => struct ISquads.Squad)",
        "numberOfBytes": "32",
        "value": "t_struct(Squad)13090_storage"
      },
      "t_mapping(t_bytes32,t_struct(RoleData)173_storage)": {
        "encoding": "mapping",
        "key": "t_bytes32",
        "label": "mapping(bytes32 => struct AccessControl.RoleData)",
        "numberOfBytes": "32",
        "value": "t_struct(RoleData)173_storage"
      },
      "t_mapping(t_uint256,t_mapping(t_address,t_array(t_address)dyn_storage))": {
        "encoding": "mapping",
        "key": "t_uint256",
        "label": "mapping(uint256 => mapping(address => address[]))",
        "numberOfBytes": "32",
        "value": "t_mapping(t_address,t_array(t_address)dyn_storage)"
      },
      "t_mapping(t_uint256,t_mapping(t_address,t_struct(Squad)13090_storage))": {
        "encoding": "mapping",
        "key": "t_uint256",
        "label": "mapping(uint256 => mapping(address => struct ISquads.Squad))",
        "numberOfBytes": "32",
        "value": "t_mapping(t_address,t_struct(Squad)13090_storage)"
      },
      "t_struct(RoleData)173_storage": {
        "encoding": "inplace",
        "label": "struct AccessControl.RoleData",
        "members": [
          {
            "astId": 170,
            "contract": "contracts/Squads.sol:Squads",
            "label": "members",
            "offset": 0,
            "slot": "0",
            "type": "t_mapping(t_address,t_bool)"
          },
          {
            "astId": 172,
            "contract": "contracts/Squads.sol:Squads",
            "label": "adminRole",
            "offset": 0,
            "slot": "1",
            "type": "t_bytes32"
          }
        ],
        "numberOfBytes": "64"
      },
      "t_struct(Squad)13090_storage": {
        "encoding": "inplace",
        "label": "struct ISquads.Squad",
        "members": [
          {
            "astId": 13087,
            "contract": "contracts/Squads.sol:Squads",
            "label": "subscription",
            "offset": 0,
            "slot": "0",
            "type": "t_uint256"
          },
          {
            "astId": 13089,
            "contract": "contracts/Squads.sol:Squads",
            "label": "squadsFilled",
            "offset": 0,
            "slot": "1",
            "type": "t_uint256"
          }
        ],
        "numberOfBytes": "64"
      },
      "t_struct(SquadPlan)13103_storage": {
        "encoding": "inplace",
        "label": "struct ISquads.SquadPlan",
        "members": [
          {
            "astId": 13092,
            "contract": "contracts/Squads.sol:Squads",
            "label": "subscriptionCost",
            "offset": 0,
            "slot": "0",
            "type": "t_uint256"
          },
          {
            "astId": 13094,
            "contract": "contracts/Squads.sol:Squads",
            "label": "reward",
            "offset": 0,
            "slot": "1",
            "type": "t_uint256"
          },
          {
            "astId": 13096,
            "contract": "contracts/Squads.sol:Squads",
            "label": "stakingThreshold",
            "offset": 0,
            "slot": "2",
            "type": "t_uint256"
          },
          {
            "astId": 13098,
            "contract": "contracts/Squads.sol:Squads",
            "label": "squadSize",
            "offset": 0,
            "slot": "3",
            "type": "t_uint256"
          },
          {
            "astId": 13100,
            "contract": "contracts/Squads.sol:Squads",
            "label": "stakingPlanId",
            "offset": 0,
            "slot": "4",
            "type": "t_uint256"
          },
          {
            "astId": 13102,
            "contract": "contracts/Squads.sol:Squads",
            "label": "isActive",
            "offset": 0,
            "slot": "5",
            "type": "t_bool"
          }
        ],
        "numberOfBytes": "192"
      },
      "t_uint256": {
        "encoding": "inplace",
        "label": "uint256",
        "numberOfBytes": "32"
      }
    }
  }
}