{
  "address": "0x4977838CFDF405Fd009615D35397b79566E3C3Cf",
  "abi": [
    {
      "inputs": [
        {
          "internalType": "address",
          "name": "subscriptionToken_",
          "type": "address"
        },
        {
          "internalType": "address",
          "name": "referralManager_",
          "type": "address"
        },
        {
          "internalType": "address",
          "name": "stakingContract_",
          "type": "address"
        }
      ],
      "stateMutability": "nonpayable",
      "type": "constructor"
    },
    {
      "anonymous": false,
      "inputs": [
        {
          "indexed": true,
          "internalType": "address",
          "name": "user",
          "type": "address"
        },
        {
          "indexed": true,
          "internalType": "uint256",
          "name": "squadPlanId",
          "type": "uint256"
        },
        {
          "indexed": false,
          "internalType": "address",
          "name": "member",
          "type": "address"
        },
        {
          "indexed": false,
          "internalType": "uint256",
          "name": "squadMembers",
          "type": "uint256"
        }
      ],
      "name": "MemberAdded",
      "type": "event"
    },
    {
      "anonymous": false,
      "inputs": [
        {
          "indexed": true,
          "internalType": "bytes32",
          "name": "role",
          "type": "bytes32"
        },
        {
          "indexed": true,
          "internalType": "bytes32",
          "name": "previousAdminRole",
          "type": "bytes32"
        },
        {
          "indexed": true,
          "internalType": "bytes32",
          "name": "newAdminRole",
          "type": "bytes32"
        }
      ],
      "name": "RoleAdminChanged",
      "type": "event"
    },
    {
      "anonymous": false,
      "inputs": [
        {
          "indexed": true,
          "internalType": "bytes32",
          "name": "role",
          "type": "bytes32"
        },
        {
          "indexed": true,
          "internalType": "address",
          "name": "account",
          "type": "address"
        },
        {
          "indexed": true,
          "internalType": "address",
          "name": "sender",
          "type": "address"
        }
      ],
      "name": "RoleGranted",
      "type": "event"
    },
    {
      "anonymous": false,
      "inputs": [
        {
          "indexed": true,
          "internalType": "bytes32",
          "name": "role",
          "type": "bytes32"
        },
        {
          "indexed": true,
          "internalType": "address",
          "name": "account",
          "type": "address"
        },
        {
          "indexed": true,
          "internalType": "address",
          "name": "sender",
          "type": "address"
        }
      ],
      "name": "RoleRevoked",
      "type": "event"
    },
    {
      "anonymous": false,
      "inputs": [
        {
          "indexed": true,
          "internalType": "uint256",
          "name": "squadPlanId",
          "type": "uint256"
        },
        {
          "indexed": false,
          "internalType": "bool",
          "name": "isActive",
          "type": "bool"
        }
      ],
      "name": "SquadActivityChanged",
      "type": "event"
    },
    {
      "anonymous": false,
      "inputs": [
        {
          "indexed": true,
          "internalType": "address",
          "name": "user",
          "type": "address"
        },
        {
          "indexed": true,
          "internalType": "uint256",
          "name": "squadPlanId",
          "type": "uint256"
        },
        {
          "indexed": true,
          "internalType": "uint256",
          "name": "squadCount",
          "type": "uint256"
        }
      ],
      "name": "SquadFilled",
      "type": "event"
    },
    {
      "anonymous": false,
      "inputs": [
        {
          "indexed": true,
          "internalType": "uint256",
          "name": "squadPlanId",
          "type": "uint256"
        },
        {
          "indexed": false,
          "internalType": "uint256",
          "name": "subscriptionCost",
          "type": "uint256"
        },
        {
          "indexed": false,
          "internalType": "uint256",
          "name": "reward",
          "type": "uint256"
        },
        {
          "indexed": false,
          "internalType": "uint256",
          "name": "stakingThreshold",
          "type": "uint256"
        },
        {
          "indexed": false,
          "internalType": "uint256",
          "name": "squadSize",
          "type": "uint256"
        },
        {
          "indexed": false,
          "internalType": "uint256",
          "name": "stakingPlanId",
          "type": "uint256"
        }
      ],
      "name": "SquadPlanCreated",
      "type": "event"
    },
    {
      "anonymous": false,
      "inputs": [
        {
          "indexed": true,
          "internalType": "address",
          "name": "subscriber",
          "type": "address"
        },
        {
          "indexed": true,
          "internalType": "uint256",
          "name": "squadPlanId",
          "type": "uint256"
        },
        {
          "indexed": true,
          "internalType": "uint256",
          "name": "timestamp",
          "type": "uint256"
        }
      ],
      "name": "Subscribed",
      "type": "event"
    },
    {
      "inputs": [],
      "name": "DEFAULT_ADMIN_ROLE",
      "outputs": [
        {
          "internalType": "bytes32",
          "name": "",
          "type": "bytes32"
        }
      ],
      "stateMutability": "view",
      "type": "function"
    },
    {
      "inputs": [],
      "name": "SUBSCRIPTION_PERIOD_DAYS",
      "outputs": [
        {
          "internalType": "uint256",
          "name": "",
          "type": "uint256"
        }
      ],
      "stateMutability": "view",
      "type": "function"
    },
    {
      "inputs": [
        {
          "internalType": "uint256",
          "name": "subscriptionCost_",
          "type": "uint256"
        },
        {
          "internalType": "uint256",
          "name": "reward_",
          "type": "uint256"
        },
        {
          "internalType": "uint256",
          "name": "stakingThreshold_",
          "type": "uint256"
        },
        {
          "internalType": "uint256",
          "name": "squadSize_",
          "type": "uint256"
        },
        {
          "internalType": "uint256",
          "name": "stakingPlanId_",
          "type": "uint256"
        }
      ],
      "name": "addPlan",
      "outputs": [],
      "stateMutability": "nonpayable",
      "type": "function"
    },
    {
      "inputs": [],
      "name": "getActivePlans",
      "outputs": [
        {
          "components": [
            {
              "internalType": "uint256",
              "name": "squadPlanId",
              "type": "uint256"
            },
            {
              "internalType": "uint256",
              "name": "subscriptionCost",
              "type": "uint256"
            },
            {
              "internalType": "uint256",
              "name": "reward",
              "type": "uint256"
            },
            {
              "internalType": "uint256",
              "name": "stakingThreshold",
              "type": "uint256"
            },
            {
              "internalType": "uint256",
              "name": "squadSize",
              "type": "uint256"
            },
            {
              "internalType": "uint256",
              "name": "stakingPlanId",
              "type": "uint256"
            },
            {
              "internalType": "bool",
              "name": "isActive",
              "type": "bool"
            }
          ],
          "internalType": "struct ISquads.SquadPlan[]",
          "name": "",
          "type": "tuple[]"
        }
      ],
      "stateMutability": "view",
      "type": "function"
    },
    {
      "inputs": [
        {
          "internalType": "uint256",
          "name": "planId",
          "type": "uint256"
        }
      ],
      "name": "getPlan",
      "outputs": [
        {
          "components": [
            {
              "internalType": "uint256",
              "name": "squadPlanId",
              "type": "uint256"
            },
            {
              "internalType": "uint256",
              "name": "subscriptionCost",
              "type": "uint256"
            },
            {
              "internalType": "uint256",
              "name": "reward",
              "type": "uint256"
            },
            {
              "internalType": "uint256",
              "name": "stakingThreshold",
              "type": "uint256"
            },
            {
              "internalType": "uint256",
              "name": "squadSize",
              "type": "uint256"
            },
            {
              "internalType": "uint256",
              "name": "stakingPlanId",
              "type": "uint256"
            },
            {
              "internalType": "bool",
              "name": "isActive",
              "type": "bool"
            }
          ],
          "internalType": "struct ISquads.SquadPlan",
          "name": "",
          "type": "tuple"
        }
      ],
      "stateMutability": "view",
      "type": "function"
    },
    {
      "inputs": [],
      "name": "getPlans",
      "outputs": [
        {
          "components": [
            {
              "internalType": "uint256",
              "name": "squadPlanId",
              "type": "uint256"
            },
            {
              "internalType": "uint256",
              "name": "subscriptionCost",
              "type": "uint256"
            },
            {
              "internalType": "uint256",
              "name": "reward",
              "type": "uint256"
            },
            {
              "internalType": "uint256",
              "name": "stakingThreshold",
              "type": "uint256"
            },
            {
              "internalType": "uint256",
              "name": "squadSize",
              "type": "uint256"
            },
            {
              "internalType": "uint256",
              "name": "stakingPlanId",
              "type": "uint256"
            },
            {
              "internalType": "bool",
              "name": "isActive",
              "type": "bool"
            }
          ],
          "internalType": "struct ISquads.SquadPlan[]",
          "name": "",
          "type": "tuple[]"
        }
      ],
      "stateMutability": "view",
      "type": "function"
    },
    {
      "inputs": [
        {
          "internalType": "bytes32",
          "name": "role",
          "type": "bytes32"
        }
      ],
      "name": "getRoleAdmin",
      "outputs": [
        {
          "internalType": "bytes32",
          "name": "",
          "type": "bytes32"
        }
      ],
      "stateMutability": "view",
      "type": "function"
    },
    {
      "inputs": [
        {
          "internalType": "uint256",
          "name": "stakingPlanId",
          "type": "uint256"
        },
        {
          "internalType": "uint256",
          "name": "amount",
          "type": "uint256"
        }
      ],
      "name": "getSufficientPlanIdByStakingAmount",
      "outputs": [
        {
          "internalType": "int256",
          "name": "",
          "type": "int256"
        }
      ],
      "stateMutability": "view",
      "type": "function"
    },
    {
      "inputs": [],
      "name": "getTimestamp",
      "outputs": [
        {
          "internalType": "uint256",
          "name": "",
          "type": "uint256"
        }
      ],
      "stateMutability": "view",
      "type": "function"
    },
    {
      "inputs": [
        {
          "internalType": "address",
          "name": "user",
          "type": "address"
        },
        {
          "internalType": "uint256",
          "name": "planId",
          "type": "uint256"
        }
      ],
      "name": "getUserSquadMembers",
      "outputs": [
        {
          "internalType": "address[]",
          "name": "",
          "type": "address[]"
        }
      ],
      "stateMutability": "view",
      "type": "function"
    },
    {
      "inputs": [
        {
          "internalType": "address",
          "name": "user",
          "type": "address"
        },
        {
          "internalType": "uint256",
          "name": "planId",
          "type": "uint256"
        }
      ],
      "name": "getUserSubscription",
      "outputs": [
        {
          "components": [
            {
              "internalType": "uint256",
              "name": "subscription",
              "type": "uint256"
            },
            {
              "internalType": "uint256",
              "name": "squadsFilled",
              "type": "uint256"
            }
          ],
          "internalType": "struct ISquads.Squad",
          "name": "",
          "type": "tuple"
        }
      ],
      "stateMutability": "view",
      "type": "function"
    },
    {
      "inputs": [
        {
          "internalType": "bytes32",
          "name": "role",
          "type": "bytes32"
        },
        {
          "internalType": "address",
          "name": "account",
          "type": "address"
        }
      ],
      "name": "grantRole",
      "outputs": [],
      "stateMutability": "nonpayable",
      "type": "function"
    },
    {
      "inputs": [
        {
          "internalType": "address",
          "name": "user",
          "type": "address"
        }
      ],
      "name": "hasAnySubscription",
      "outputs": [
        {
          "internalType": "bool",
          "name": "",
          "type": "bool"
        }
      ],
      "stateMutability": "view",
      "type": "function"
    },
    {
      "inputs": [
        {
          "internalType": "bytes32",
          "name": "role",
          "type": "bytes32"
        },
        {
          "internalType": "address",
          "name": "account",
          "type": "address"
        }
      ],
      "name": "hasRole",
      "outputs": [
        {
          "internalType": "bool",
          "name": "",
          "type": "bool"
        }
      ],
      "stateMutability": "view",
      "type": "function"
    },
    {
      "inputs": [
        {
          "internalType": "uint256",
          "name": "",
          "type": "uint256"
        }
      ],
      "name": "plans",
      "outputs": [
        {
          "internalType": "uint256",
          "name": "squadPlanId",
          "type": "uint256"
        },
        {
          "internalType": "uint256",
          "name": "subscriptionCost",
          "type": "uint256"
        },
        {
          "internalType": "uint256",
          "name": "reward",
          "type": "uint256"
        },
        {
          "internalType": "uint256",
          "name": "stakingThreshold",
          "type": "uint256"
        },
        {
          "internalType": "uint256",
          "name": "squadSize",
          "type": "uint256"
        },
        {
          "internalType": "uint256",
          "name": "stakingPlanId",
          "type": "uint256"
        },
        {
          "internalType": "bool",
          "name": "isActive",
          "type": "bool"
        }
      ],
      "stateMutability": "view",
      "type": "function"
    },
    {
      "inputs": [],
      "name": "referralManager",
      "outputs": [
        {
          "internalType": "contract IReferralManager",
          "name": "",
          "type": "address"
        }
      ],
      "stateMutability": "view",
      "type": "function"
    },
    {
      "inputs": [
        {
          "internalType": "bytes32",
          "name": "role",
          "type": "bytes32"
        },
        {
          "internalType": "address",
          "name": "account",
          "type": "address"
        }
      ],
      "name": "renounceRole",
      "outputs": [],
      "stateMutability": "nonpayable",
      "type": "function"
    },
    {
      "inputs": [
        {
          "internalType": "bytes32",
          "name": "role",
          "type": "bytes32"
        },
        {
          "internalType": "address",
          "name": "account",
          "type": "address"
        }
      ],
      "name": "revokeRole",
      "outputs": [],
      "stateMutability": "nonpayable",
      "type": "function"
    },
    {
      "inputs": [],
      "name": "stakingContract",
      "outputs": [
        {
          "internalType": "contract IStaking",
          "name": "",
          "type": "address"
        }
      ],
      "stateMutability": "view",
      "type": "function"
    },
    {
      "inputs": [
        {
          "internalType": "uint256",
          "name": "planId",
          "type": "uint256"
        }
      ],
      "name": "subscribe",
      "outputs": [],
      "stateMutability": "nonpayable",
      "type": "function"
    },
    {
      "inputs": [],
      "name": "subscriptionToken",
      "outputs": [
        {
          "internalType": "contract ERC20Burnable",
          "name": "",
          "type": "address"
        }
      ],
      "stateMutability": "view",
      "type": "function"
    },
    {
      "inputs": [
        {
          "internalType": "bytes4",
          "name": "interfaceId",
          "type": "bytes4"
        }
      ],
      "name": "supportsInterface",
      "outputs": [
        {
          "internalType": "bool",
          "name": "",
          "type": "bool"
        }
      ],
      "stateMutability": "view",
      "type": "function"
    },
    {
      "inputs": [
        {
          "internalType": "uint256",
          "name": "stakingPlanId",
          "type": "uint256"
        },
        {
          "internalType": "address",
          "name": "referrer",
          "type": "address"
        },
        {
          "internalType": "address",
          "name": "member",
          "type": "address"
        },
        {
          "internalType": "uint256",
          "name": "amount",
          "type": "uint256"
        }
      ],
      "name": "tryToAddMember",
      "outputs": [
        {
          "internalType": "bool",
          "name": "",
          "type": "bool"
        }
      ],
      "stateMutability": "nonpayable",
      "type": "function"
    },
    {
      "inputs": [
        {
          "internalType": "uint256",
          "name": "planId",
          "type": "uint256"
        },
        {
          "internalType": "bool",
          "name": "isActive",
          "type": "bool"
        }
      ],
      "name": "updatePlanActivity",
      "outputs": [],
      "stateMutability": "nonpayable",
      "type": "function"
    },
    {
      "inputs": [
        {
          "internalType": "uint256",
          "name": "planId",
          "type": "uint256"
        },
        {
          "internalType": "uint256",
          "name": "reward",
          "type": "uint256"
        }
      ],
      "name": "updatePlanReward",
      "outputs": [],
      "stateMutability": "nonpayable",
      "type": "function"
    },
    {
      "inputs": [
        {
          "internalType": "uint256",
          "name": "planId",
          "type": "uint256"
        },
        {
          "internalType": "uint256",
          "name": "size",
          "type": "uint256"
        }
      ],
      "name": "updatePlanSquadSize",
      "outputs": [],
      "stateMutability": "nonpayable",
      "type": "function"
    },
    {
      "inputs": [
        {
          "internalType": "uint256",
          "name": "planId",
          "type": "uint256"
        },
        {
          "internalType": "uint256",
          "name": "stakingPlanId",
          "type": "uint256"
        }
      ],
      "name": "updatePlanStakingId",
      "outputs": [],
      "stateMutability": "nonpayable",
      "type": "function"
    },
    {
      "inputs": [
        {
          "internalType": "uint256",
          "name": "planId",
          "type": "uint256"
        },
        {
          "internalType": "uint256",
          "name": "threshold",
          "type": "uint256"
        }
      ],
      "name": "updatePlanStakingThreshold",
      "outputs": [],
      "stateMutability": "nonpayable",
      "type": "function"
    },
    {
      "inputs": [
        {
          "internalType": "uint256",
          "name": "planId",
          "type": "uint256"
        },
        {
          "internalType": "uint256",
          "name": "subscriptionCost",
          "type": "uint256"
        }
      ],
      "name": "updatePlanSubscriptionCost",
      "outputs": [],
      "stateMutability": "nonpayable",
      "type": "function"
    },
    {
      "inputs": [
        {
          "internalType": "address",
          "name": "stakingContract_",
          "type": "address"
        }
      ],
      "name": "updateStakingContract",
      "outputs": [],
      "stateMutability": "nonpayable",
      "type": "function"
    },
    {
      "inputs": [
        {
          "internalType": "uint256",
          "name": "numDays",
          "type": "uint256"
        }
      ],
      "name": "updateSubscriptionPeriod",
      "outputs": [],
      "stateMutability": "nonpayable",
      "type": "function"
    },
    {
      "inputs": [
        {
          "internalType": "address",
          "name": "referralManager_",
          "type": "address"
        }
      ],
      "name": "updateSubscriptionReferralManager",
      "outputs": [],
      "stateMutability": "nonpayable",
      "type": "function"
    },
    {
      "inputs": [
        {
          "internalType": "address",
          "name": "token",
          "type": "address"
        }
      ],
      "name": "updateSubscriptionToken",
      "outputs": [],
      "stateMutability": "nonpayable",
      "type": "function"
    },
    {
      "inputs": [
        {
          "internalType": "address",
          "name": "user",
          "type": "address"
        },
        {
          "internalType": "uint256",
          "name": "planId",
          "type": "uint256"
        }
      ],
      "name": "userHasPlanSubscription",
      "outputs": [
        {
          "internalType": "bool",
          "name": "",
          "type": "bool"
        }
      ],
      "stateMutability": "view",
      "type": "function"
    },
    {
      "inputs": [
        {
          "internalType": "address",
          "name": "user",
          "type": "address"
        },
        {
          "internalType": "uint256",
          "name": "planId",
          "type": "uint256"
        }
      ],
      "name": "userHasSufficientStaking",
      "outputs": [
        {
          "internalType": "bool",
          "name": "",
          "type": "bool"
        }
      ],
      "stateMutability": "view",
      "type": "function"
    }
  ],
  "transactionHash": "0xc9c86eb106b17c2573cb950b899b4b0991e52ddcbea99eb8e456a8d1ea12f6c9",
  "args": [
    "0x6e6B9420DDE50C4678F470cFE696ac2ccbAc3ABF",
    "0x5010f7806A07706A80Ac5F22E742694a2cE7eE3f",
    "0xF849a042B54DC60752256C1f1DF360Ce614A3D06"
  ],
  "numDeployments": 4,
  "solcInputHash": "0b40b4f74b47e7b1e250e61a36296ffd",
  "bytecode": "0x608060405261016d6001553480156200001757600080fd5b50604051620023fc380380620023fc8339810160408190526200003a9162000184565b6001600160a01b0383166200004e57600080fd5b6001600160a01b0382166200006257600080fd5b6001600160a01b0381166200007657600080fd5b62000083600033620000c6565b600580546001600160a01b039485166001600160a01b031991821617909155600680549385169382169390931790925560078054919093169116179055620001ce565b6000828152602081815260408083206001600160a01b038516845290915290205460ff1662000163576000828152602081815260408083206001600160a01b03851684529091529020805460ff19166001179055620001223390565b6001600160a01b0316816001600160a01b0316837f2f8788117e7eff1d82e926ec794901d17c78024a50270940304540a733656f0d60405160405180910390a45b5050565b80516001600160a01b03811681146200017f57600080fd5b919050565b6000806000606084860312156200019a57600080fd5b620001a58462000167565b9250620001b56020850162000167565b9150620001c56040850162000167565b90509250925092565b61221e80620001de6000396000f3fe608060405234801561001057600080fd5b50600436106102115760003560e01c806388da0f1311610125578063b1620616116100ad578063d6672e1c1161007c578063d6672e1c14610532578063d94a862b14610545578063d966edf01461054d578063ee99205c14610560578063fcc475121461057357600080fd5b8063b162061614610447578063ca7c101314610491578063cc5d19c1146104a4578063d547741f1461051f57600080fd5b8063a243d5ac116100f4578063a243d5ac146103e5578063aaa138a2146103f8578063ad08392814610401578063ad6299bc14610421578063afea5d551461043457600080fd5b806388da0f13146103a457806391d14854146103b7578063992dc2da146103ca578063a217fddf146103dd57600080fd5b80632fe00f57116101a857806342ec14d71161017757806342ec14d71461034357806343fe832c1461035657806345d18be91461036b5780636445c6791461037e578063736560b51461039157600080fd5b80632fe00f57146102f75780633347e4d61461030a57806336568abe1461031d5780633fe905371461033057600080fd5b8063248a9ca3116101e4578063248a9ca31461027657806326cd5274146102995780632ccd9623146102b95780632f2ff15d146102e457600080fd5b806301ffc9a7146102165780630f574ba71461023e578063188ec356146102535780631c0e061214610263575b600080fd5b610229610224366004611c54565b610586565b60405190151581526020015b60405180910390f35b61025161024c366004611c7e565b6105bd565b005b425b604051908152602001610235565b610251610271366004611ca5565b61081b565b610255610284366004611c7e565b60009081526020819052604090206001015490565b6102ac6102a7366004611c7e565b6108a3565b6040516102359190611d1b565b6006546102cc906001600160a01b031681565b6040516001600160a01b039091168152602001610235565b6102516102f2366004611d45565b610962565b610251610305366004611d71565b61098c565b610251610318366004611d93565b6109c5565b61025161032b366004611d45565b6109f3565b61025161033e366004611d71565b610a71565b610251610351366004611d93565b610aaa565b61035e610ad8565b6040516102359190611dae565b610255610379366004611d71565b610d42565b61022961038c366004611dfc565b610df7565b61025161039f366004611c7e565b610e20565b6102516103b2366004611e26565b610e31565b6102296103c5366004611d45565b611003565b6102296103d8366004611dfc565b61102c565b610255600081565b6102516103f3366004611d93565b6111d7565b61025560015481565b61041461040f366004611dfc565b611205565b6040516102359190611e61565b61022961042f366004611d93565b611283565b610229610442366004611ea2565b6112c4565b61045a610455366004611c7e565b61163f565b604080519788526020880196909652948601939093526060850191909152608084015260a0830152151560c082015260e001610235565b61025161049f366004611d71565b611691565b6105046104b2366004611dfc565b60408051808201909152600080825260208201525060008181526003602090815260408083206001600160a01b0386168452825291829020825180840190935280548352600101549082015292915050565b60408051825181526020928301519281019290925201610235565b61025161052d366004611d45565b6116ca565b6005546102cc906001600160a01b031681565b61035e6116ef565b61025161055b366004611d71565b611793565b6007546102cc906001600160a01b031681565b610251610581366004611d71565b6117cc565b60006001600160e01b03198216637965db0b60e01b14806105b757506301ffc9a760e01b6001600160e01b03198316145b92915050565b60025481106106075760405162461bcd60e51b8152602060048201526011602482015270125b98dbdc9c9958dd081c1b185b881a59607a1b60448201526064015b60405180910390fd5b600033905060006002838154811061062157610621611ee6565b60009182526020909120600790910201600681015490915060ff1661067d5760405162461bcd60e51b8152602060048201526012602482015271506c616e206973206e6f742061637469766560701b60448201526064016105fe565b600554600182015460405163079cc67960e41b81526001600160a01b03858116600483015260248201929092529116906379cc679090604401600060405180830381600087803b1580156106d057600080fd5b505af11580156106e4573d6000803e3d6000fd5b50600092506106f1915050565b60405190808252806020026020018201604052801561071a578160200160208202803683370190505b5060008481526004602090815260408083206001600160a01b03871684528252909120825161074f9391929190910190611bda565b5060004260008581526003602090815260408083206001600160a01b0388168452909152902054106107a35760008481526003602090815260408083206001600160a01b03871684529091529020546107a5565b425b9050600154620151806107b89190611f28565b6107c29082611f47565b60008581526003602090815260408083206001600160a01b03881680855292528083209390935591518392879290917ff94991dcbea6e8ac439cbc93bd9c62a4d39f04e0ad656df9a703f13552c2787f9190a450505050565b600061082681611805565b816002848154811061083a5761083a611ee6565b906000526020600020906007020160060160006101000a81548160ff021916908315150217905550827f6da7bc8b01ce6d2ed854278dbb7c80b2cae78c297ec593d38c15b3d4445985a883604051610896911515815260200190565b60405180910390a2505050565b6108e56040518060e001604052806000815260200160008152602001600081526020016000815260200160008152602001600081526020016000151581525090565b600282815481106108f8576108f8611ee6565b60009182526020918290206040805160e0810182526007909302909101805483526001810154938301939093526002830154908201526003820154606082015260048201546080820152600582015460a082015260069091015460ff16151560c082015292915050565b60008281526020819052604090206001015461097d81611805565b6109878383611812565b505050565b600061099781611805565b81600284815481106109ab576109ab611ee6565b906000526020600020906007020160020181905550505050565b60006109d081611805565b50600780546001600160a01b0319166001600160a01b0392909216919091179055565b6001600160a01b0381163314610a635760405162461bcd60e51b815260206004820152602f60248201527f416363657373436f6e74726f6c3a2063616e206f6e6c792072656e6f756e636560448201526e103937b632b9903337b91039b2b63360891b60648201526084016105fe565b610a6d8282611896565b5050565b6000610a7c81611805565b8160028481548110610a9057610a90611ee6565b906000526020600020906007020160010181905550505050565b6000610ab581611805565b50600680546001600160a01b0319166001600160a01b0392909216919091179055565b606060008060028054905067ffffffffffffffff811115610afb57610afb611efc565b604051908082528060200260200182016040528015610b24578160200160208202803683370190505b50905060005b600254811015610ba75760028181548110610b4757610b47611ee6565b600091825260209091206006600790920201015460ff1615610b95576001828281518110610b7757610b77611ee6565b91151560209283029190910190910152610b92600184611f47565b92505b80610b9f81611f5f565b915050610b2a565b5060008267ffffffffffffffff811115610bc357610bc3611efc565b604051908082528060200260200182016040528015610c3657816020015b610c236040518060e001604052806000815260200160008152602001600081526020016000815260200160008152602001600081526020016000151581525090565b815260200190600190039081610be15790505b506002549091505b8015610d3a5782610c50600183611f7a565b81518110610c6057610c60611ee6565b602002602001015115610d2857610c78600185611f7a565b93506002610c87600183611f7a565b81548110610c9757610c97611ee6565b60009182526020918290206040805160e0810182526007909302909101805483526001810154938301939093526002830154908201526003820154606082015260048201546080820152600582015460a082015260069091015460ff16151560c08201528251839086908110610d0f57610d0f611ee6565b60200260200101819052508360001415610d2857610d3a565b80610d3281611f91565b915050610c3e565b509392505050565b6000600019815b600254811015610d3a5760028181548110610d6657610d66611ee6565b600091825260209091206006600790920201015460ff168015610dac57508460028281548110610d9857610d98611ee6565b906000526020600020906007020160050154145b8015610ddc575060028181548110610dc657610dc6611ee6565b9060005260206000209060070201600301548410155b15610de5578091505b80610def81611f5f565b915050610d49565b60009081526003602090815260408083206001600160a01b039490941683529290522054421090565b6000610e2b81611805565b50600155565b6000610e3c81611805565b6040805160e08101825260028054808352602083018a8152938301898152606084018981526080850189815260a08601898152600160c088018181528187018855600088905288517f405787fa12a823e0f2b7631cc41b3ba8828b3321ca811111fa75cd3aa3bb5ace60079098029788015598517f405787fa12a823e0f2b7631cc41b3ba8828b3321ca811111fa75cd3aa3bb5acf87015593517f405787fa12a823e0f2b7631cc41b3ba8828b3321ca811111fa75cd3aa3bb5ad086015591517f405787fa12a823e0f2b7631cc41b3ba8828b3321ca811111fa75cd3aa3bb5ad1850155517f405787fa12a823e0f2b7631cc41b3ba8828b3321ca811111fa75cd3aa3bb5ad2840155517f405787fa12a823e0f2b7631cc41b3ba8828b3321ca811111fa75cd3aa3bb5ad383015593517f405787fa12a823e0f2b7631cc41b3ba8828b3321ca811111fa75cd3aa3bb5ad4909101805460ff1916911515919091179055549091610fab91611f7a565b604080518981526020810189905290810187905260608101869052608081018590527f3beeb65995b90bd0914666101e05dd847e837c47b2f0d4da8882c34ea27c91309060a00160405180910390a250505050505050565b6000918252602082815260408084206001600160a01b0393909316845291905290205460ff1690565b6007546002805460009283926001600160a01b03909116916314ce783d91908690811061105b5761105b611ee6565b906000526020600020906007020160050154866040518363ffffffff1660e01b815260040161109d9291909182526001600160a01b0316602082015260400190565b600060405180830381865afa1580156110ba573d6000803e3d6000fd5b505050506040513d6000823e601f3d908101601f191682016040526110e29190810190612002565b80519091505b80156111cc5742826110fb600184611f7a565b8151811061110b5761110b611ee6565b60200260200101516040015111801561114957508161112b600183611f7a565b8151811061113b5761113b611ee6565b602002602001015160c00151155b80156111aa5750836111a86002868154811061116757611167611ee6565b906000526020600020906007020160050154846001856111879190611f7a565b8151811061119757611197611ee6565b602002602001015160000151610d42565b145b156111ba576001925050506105b7565b806111c481611f91565b9150506110e8565b506000949350505050565b60006111e281611805565b50600580546001600160a01b0319166001600160a01b0392909216919091179055565b60008181526004602090815260408083206001600160a01b038616845282529182902080548351818402810184019094528084526060939283018282801561127657602002820191906000526020600020905b81546001600160a01b03168152600190910190602001808311611258575b5050505050905092915050565b6000805b6002548110156112bb5761129b8382610df7565b156112a95750600192915050565b806112b381611f5f565b915050611287565b50600092915050565b60006001600160a01b03841615806112e357506001600160a01b038316155b156112f057506000611637565b60006112fc8684610d42565b90506000811215611311576000915050611637565b6000819050866002828154811061132a5761132a611ee6565b9060005260206000209060070201600501541461134c57600092505050611637565b6007546001600160a01b03163314801561136b575061136b8682610df7565b801561137c575061137c868261102c565b8015611390575061138e8682876118fb565b155b156116305760008181526004602090815260408083206001600160a01b038a8116808652918452918420805460018101825581865293852090930180546001600160a01b031916928a16929092179091559091525460028054839081106113f9576113f9611ee6565b90600052602060002090600702016004015481106115da5760008281526003602090815260408083206001600160a01b038b1684529091528120600180820180549293919290919061144c908490611f47565b9091555050600081556006546040805160e081019091526001600160a01b038a81168252600280549190931692639581f52792916020830191908890811061149657611496611ee6565b9060005260206000209060070201600201548152602001306001600160a01b0316815260200160018152602001600287815481106114d6576114d6611ee6565b90600052602060002090600702016003015481526020018c815260200160048152506040518263ffffffff1660e01b8152600401611566919081516001600160a01b0390811682526020808401519083015260408084015190911690820152606080830151908201526080808301519082015260a0828101519082015260c0918201519181019190915260e00190565b600060405180830381600087803b15801561158057600080fd5b505af1158015611594573d6000803e3d6000fd5b50505050806001015483896001600160a01b03167fc22bc73345a19ca25692353736ee8587e0e2d12c75a1ed016950ed4b20fac30160405160405180910390a450611624565b604080516001600160a01b038881168252602082018490528492908a16917f4727d8bf558b6f2fd2d2f66e2062e0c408a4b470870a0385e940358a87ad3626910160405180910390a35b60019350505050611637565b6000925050505b949350505050565b6002818154811061164f57600080fd5b60009182526020909120600790910201805460018201546002830154600384015460048501546005860154600690960154949650929491939092919060ff1687565b600061169c81611805565b81600284815481106116b0576116b0611ee6565b906000526020600020906007020160050181905550505050565b6000828152602081905260409020600101546116e581611805565b6109878383611896565b60606002805480602002602001604051908101604052809291908181526020016000905b8282101561178a5760008481526020908190206040805160e0810182526007860290920180548352600180820154848601526002820154928401929092526003810154606084015260048101546080840152600581015460a08401526006015460ff16151560c08301529083529092019101611713565b50505050905090565b600061179e81611805565b81600284815481106117b2576117b2611ee6565b906000526020600020906007020160030181905550505050565b60006117d781611805565b81600284815481106117eb576117eb611ee6565b906000526020600020906007020160040181905550505050565b61180f81336119da565b50565b61181c8282611003565b610a6d576000828152602081815260408083206001600160a01b03851684529091529020805460ff191660011790556118523390565b6001600160a01b0316816001600160a01b0316837f2f8788117e7eff1d82e926ec794901d17c78024a50270940304540a733656f0d60405160405180910390a45050565b6118a08282611003565b15610a6d576000828152602081815260408083206001600160a01b0385168085529252808320805460ff1916905551339285917ff6391f5c32d9c69d2a47ea670b442974b53935d1edc7fd64eb21e047a839171b9190a45050565b60008281526004602090815260408083206001600160a01b038716845282528083208054825181850281018501909352808352849383018282801561196957602002820191906000526020600020905b81546001600160a01b0316815260019091019060200180831161194b575b5050505050905060005b81518110156119cc57836001600160a01b031682828151811061199857611998611ee6565b60200260200101516001600160a01b031614156119ba576001925050506119d3565b806119c481611f5f565b915050611973565b5060009150505b9392505050565b6119e48282611003565b610a6d576119fc816001600160a01b03166014611a3e565b611a07836020611a3e565b604051602001611a18929190612140565b60408051601f198184030181529082905262461bcd60e51b82526105fe916004016121b5565b60606000611a4d836002611f28565b611a58906002611f47565b67ffffffffffffffff811115611a7057611a70611efc565b6040519080825280601f01601f191660200182016040528015611a9a576020820181803683370190505b509050600360fc1b81600081518110611ab557611ab5611ee6565b60200101906001600160f81b031916908160001a905350600f60fb1b81600181518110611ae457611ae4611ee6565b60200101906001600160f81b031916908160001a9053506000611b08846002611f28565b611b13906001611f47565b90505b6001811115611b8b576f181899199a1a9b1b9c1cb0b131b232b360811b85600f1660108110611b4757611b47611ee6565b1a60f81b828281518110611b5d57611b5d611ee6565b60200101906001600160f81b031916908160001a90535060049490941c93611b8481611f91565b9050611b16565b5083156119d35760405162461bcd60e51b815260206004820181905260248201527f537472696e67733a20686578206c656e67746820696e73756666696369656e7460448201526064016105fe565b828054828255906000526020600020908101928215611c2f579160200282015b82811115611c2f57825182546001600160a01b0319166001600160a01b03909116178255602090920191600190910190611bfa565b50611c3b929150611c3f565b5090565b5b80821115611c3b5760008155600101611c40565b600060208284031215611c6657600080fd5b81356001600160e01b0319811681146119d357600080fd5b600060208284031215611c9057600080fd5b5035919050565b801515811461180f57600080fd5b60008060408385031215611cb857600080fd5b823591506020830135611cca81611c97565b809150509250929050565b805182526020810151602083015260408101516040830152606081015160608301526080810151608083015260a081015160a083015260c0810151151560c08301525050565b60e081016105b78284611cd5565b80356001600160a01b0381168114611d4057600080fd5b919050565b60008060408385031215611d5857600080fd5b82359150611d6860208401611d29565b90509250929050565b60008060408385031215611d8457600080fd5b50508035926020909101359150565b600060208284031215611da557600080fd5b6119d382611d29565b6020808252825182820181905260009190848201906040850190845b81811015611df057611ddd838551611cd5565b9284019260e09290920191600101611dca565b50909695505050505050565b60008060408385031215611e0f57600080fd5b611e1883611d29565b946020939093013593505050565b600080600080600060a08688031215611e3e57600080fd5b505083359560208501359550604085013594606081013594506080013592509050565b6020808252825182820181905260009190848201906040850190845b81811015611df05783516001600160a01b031683529284019291840191600101611e7d565b60008060008060808587031215611eb857600080fd5b84359350611ec860208601611d29565b9250611ed660408601611d29565b9396929550929360600135925050565b634e487b7160e01b600052603260045260246000fd5b634e487b7160e01b600052604160045260246000fd5b634e487b7160e01b600052601160045260246000fd5b6000816000190483118215151615611f4257611f42611f12565b500290565b60008219821115611f5a57611f5a611f12565b500190565b6000600019821415611f7357611f73611f12565b5060010190565b600082821015611f8c57611f8c611f12565b500390565b600081611fa057611fa0611f12565b506000190190565b60405160e0810167ffffffffffffffff81118282101715611fcb57611fcb611efc565b60405290565b604051601f8201601f1916810167ffffffffffffffff81118282101715611ffa57611ffa611efc565b604052919050565b6000602080838503121561201557600080fd5b825167ffffffffffffffff8082111561202d57600080fd5b818501915085601f83011261204157600080fd5b81518181111561205357612053611efc565b612061848260051b01611fd1565b818152848101925060e091820284018501918883111561208057600080fd5b938501935b828510156121045780858a03121561209d5760008081fd5b6120a5611fa8565b85518152868601518782015260408087015190820152606080870151908201526080808701519082015260a0808701516120de81611c97565b9082015260c0868101516120f181611c97565b9082015284529384019392850192612085565b50979650505050505050565b60005b8381101561212b578181015183820152602001612113565b8381111561213a576000848401525b50505050565b7f416363657373436f6e74726f6c3a206163636f756e7420000000000000000000815260008351612178816017850160208801612110565b7001034b99036b4b9b9b4b733903937b6329607d1b60179184019182015283516121a9816028840160208801612110565b01602801949350505050565b60208152600082518060208401526121d4816040850160208701612110565b601f01601f1916919091016040019291505056fea264697066735822122071667e1bb5bc2698aa1a96dcb0a9a6036994b110e0a3a4335aeb7d022ee66a5c64736f6c634300080b0033",
  "devdoc": {
    "kind": "dev",
    "methods": {
      "getRoleAdmin(bytes32)": {
        "details": "Returns the admin role that controls `role`. See {grantRole} and {revokeRole}. To change a role's admin, use {_setRoleAdmin}."
      },
      "grantRole(bytes32,address)": {
        "details": "Grants `role` to `account`. If `account` had not been already granted `role`, emits a {RoleGranted} event. Requirements: - the caller must have ``role``'s admin role. May emit a {RoleGranted} event."
      },
      "hasRole(bytes32,address)": {
        "details": "Returns `true` if `account` has been granted `role`."
      },
      "renounceRole(bytes32,address)": {
        "details": "Revokes `role` from the calling account. Roles are often managed via {grantRole} and {revokeRole}: this function's purpose is to provide a mechanism for accounts to lose their privileges if they are compromised (such as when a trusted device is misplaced). If the calling account had been revoked `role`, emits a {RoleRevoked} event. Requirements: - the caller must be `account`. May emit a {RoleRevoked} event."
      },
      "revokeRole(bytes32,address)": {
        "details": "Revokes `role` from `account`. If `account` had been granted `role`, emits a {RoleRevoked} event. Requirements: - the caller must have ``role``'s admin role. May emit a {RoleRevoked} event."
      },
      "supportsInterface(bytes4)": {
        "details": "See {IERC165-supportsInterface}."
      }
    },
    "version": 1
  },
  "userdoc": {
    "kind": "user",
    "methods": {},
    "version": 1
  },
  "storageLayout": {
    "storage": [
      {
        "astId": 178,
        "contract": "contracts/Squads.sol:Squads",
        "label": "_roles",
        "offset": 0,
        "slot": "0",
        "type": "t_mapping(t_bytes32,t_struct(RoleData)173_storage)"
      },
      {
        "astId": 8998,
        "contract": "contracts/Squads.sol:Squads",
        "label": "SUBSCRIPTION_PERIOD_DAYS",
        "offset": 0,
        "slot": "1",
        "type": "t_uint256"
      },
      {
        "astId": 9002,
        "contract": "contracts/Squads.sol:Squads",
        "label": "plans",
        "offset": 0,
        "slot": "2",
        "type": "t_array(t_struct(SquadPlan)13231_storage)dyn_storage"
      },
      {
        "astId": 9009,
        "contract": "contracts/Squads.sol:Squads",
        "label": "userSubscriptions",
        "offset": 0,
        "slot": "3",
        "type": "t_mapping(t_uint256,t_mapping(t_address,t_struct(Squad)13216_storage))"
      },
      {
        "astId": 9016,
        "contract": "contracts/Squads.sol:Squads",
        "label": "squadMembers",
        "offset": 0,
        "slot": "4",
        "type": "t_mapping(t_uint256,t_mapping(t_address,t_array(t_address)dyn_storage))"
      },
      {
        "astId": 9019,
        "contract": "contracts/Squads.sol:Squads",
        "label": "subscriptionToken",
        "offset": 0,
        "slot": "5",
        "type": "t_contract(ERC20Burnable)3161"
      },
      {
        "astId": 9022,
        "contract": "contracts/Squads.sol:Squads",
        "label": "referralManager",
        "offset": 0,
        "slot": "6",
        "type": "t_contract(IReferralManager)13209"
      },
      {
        "astId": 9025,
        "contract": "contracts/Squads.sol:Squads",
        "label": "stakingContract",
        "offset": 0,
        "slot": "7",
        "type": "t_contract(IStaking)13472"
      }
    ],
    "types": {
      "t_address": {
        "encoding": "inplace",
        "label": "address",
        "numberOfBytes": "20"
      },
      "t_array(t_address)dyn_storage": {
        "base": "t_address",
        "encoding": "dynamic_array",
        "label": "address[]",
        "numberOfBytes": "32"
      },
      "t_array(t_struct(SquadPlan)13231_storage)dyn_storage": {
        "base": "t_struct(SquadPlan)13231_storage",
        "encoding": "dynamic_array",
        "label": "struct ISquads.SquadPlan[]",
        "numberOfBytes": "32"
      },
      "t_bool": {
        "encoding": "inplace",
        "label": "bool",
        "numberOfBytes": "1"
      },
      "t_bytes32": {
        "encoding": "inplace",
        "label": "bytes32",
        "numberOfBytes": "32"
      },
      "t_contract(ERC20Burnable)3161": {
        "encoding": "inplace",
        "label": "contract ERC20Burnable",
        "numberOfBytes": "20"
      },
      "t_contract(IReferralManager)13209": {
        "encoding": "inplace",
        "label": "contract IReferralManager",
        "numberOfBytes": "20"
      },
      "t_contract(IStaking)13472": {
        "encoding": "inplace",
        "label": "contract IStaking",
        "numberOfBytes": "20"
      },
      "t_mapping(t_address,t_array(t_address)dyn_storage)": {
        "encoding": "mapping",
        "key": "t_address",
        "label": "mapping(address => address[])",
        "numberOfBytes": "32",
        "value": "t_array(t_address)dyn_storage"
      },
      "t_mapping(t_address,t_bool)": {
        "encoding": "mapping",
        "key": "t_address",
        "label": "mapping(address => bool)",
        "numberOfBytes": "32",
        "value": "t_bool"
      },
      "t_mapping(t_address,t_struct(Squad)13216_storage)": {
        "encoding": "mapping",
        "key": "t_address",
        "label": "mapping(address => struct ISquads.Squad)",
        "numberOfBytes": "32",
        "value": "t_struct(Squad)13216_storage"
      },
      "t_mapping(t_bytes32,t_struct(RoleData)173_storage)": {
        "encoding": "mapping",
        "key": "t_bytes32",
        "label": "mapping(bytes32 => struct AccessControl.RoleData)",
        "numberOfBytes": "32",
        "value": "t_struct(RoleData)173_storage"
      },
      "t_mapping(t_uint256,t_mapping(t_address,t_array(t_address)dyn_storage))": {
        "encoding": "mapping",
        "key": "t_uint256",
        "label": "mapping(uint256 => mapping(address => address[]))",
        "numberOfBytes": "32",
        "value": "t_mapping(t_address,t_array(t_address)dyn_storage)"
      },
      "t_mapping(t_uint256,t_mapping(t_address,t_struct(Squad)13216_storage))": {
        "encoding": "mapping",
        "key": "t_uint256",
        "label": "mapping(uint256 => mapping(address => struct ISquads.Squad))",
        "numberOfBytes": "32",
        "value": "t_mapping(t_address,t_struct(Squad)13216_storage)"
      },
      "t_struct(RoleData)173_storage": {
        "encoding": "inplace",
        "label": "struct AccessControl.RoleData",
        "members": [
          {
            "astId": 170,
            "contract": "contracts/Squads.sol:Squads",
            "label": "members",
            "offset": 0,
            "slot": "0",
            "type": "t_mapping(t_address,t_bool)"
          },
          {
            "astId": 172,
            "contract": "contracts/Squads.sol:Squads",
            "label": "adminRole",
            "offset": 0,
            "slot": "1",
            "type": "t_bytes32"
          }
        ],
        "numberOfBytes": "64"
      },
      "t_struct(Squad)13216_storage": {
        "encoding": "inplace",
        "label": "struct ISquads.Squad",
        "members": [
          {
            "astId": 13213,
            "contract": "contracts/Squads.sol:Squads",
            "label": "subscription",
            "offset": 0,
            "slot": "0",
            "type": "t_uint256"
          },
          {
            "astId": 13215,
            "contract": "contracts/Squads.sol:Squads",
            "label": "squadsFilled",
            "offset": 0,
            "slot": "1",
            "type": "t_uint256"
          }
        ],
        "numberOfBytes": "64"
      },
      "t_struct(SquadPlan)13231_storage": {
        "encoding": "inplace",
        "label": "struct ISquads.SquadPlan",
        "members": [
          {
            "astId": 13218,
            "contract": "contracts/Squads.sol:Squads",
            "label": "squadPlanId",
            "offset": 0,
            "slot": "0",
            "type": "t_uint256"
          },
          {
            "astId": 13220,
            "contract": "contracts/Squads.sol:Squads",
            "label": "subscriptionCost",
            "offset": 0,
            "slot": "1",
            "type": "t_uint256"
          },
          {
            "astId": 13222,
            "contract": "contracts/Squads.sol:Squads",
            "label": "reward",
            "offset": 0,
            "slot": "2",
            "type": "t_uint256"
          },
          {
            "astId": 13224,
            "contract": "contracts/Squads.sol:Squads",
            "label": "stakingThreshold",
            "offset": 0,
            "slot": "3",
            "type": "t_uint256"
          },
          {
            "astId": 13226,
            "contract": "contracts/Squads.sol:Squads",
            "label": "squadSize",
            "offset": 0,
            "slot": "4",
            "type": "t_uint256"
          },
          {
            "astId": 13228,
            "contract": "contracts/Squads.sol:Squads",
            "label": "stakingPlanId",
            "offset": 0,
            "slot": "5",
            "type": "t_uint256"
          },
          {
            "astId": 13230,
            "contract": "contracts/Squads.sol:Squads",
            "label": "isActive",
            "offset": 0,
            "slot": "6",
            "type": "t_bool"
          }
        ],
        "numberOfBytes": "224"
      },
      "t_uint256": {
        "encoding": "inplace",
        "label": "uint256",
        "numberOfBytes": "32"
      }
    }
  }
}