{
  "address": "0x6E8A9D00ef5fB522DDD880195F36471B68BdA0c5",
  "abi": [
    {
      "inputs": [
        {
          "internalType": "address",
          "name": "subscriptionToken_",
          "type": "address"
        },
        {
          "internalType": "address",
          "name": "referralManager_",
          "type": "address"
        },
        {
          "internalType": "address",
          "name": "stakingContract_",
          "type": "address"
        }
      ],
      "stateMutability": "nonpayable",
      "type": "constructor"
    },
    {
      "anonymous": false,
      "inputs": [
        {
          "indexed": true,
          "internalType": "address",
          "name": "user",
          "type": "address"
        },
        {
          "indexed": true,
          "internalType": "uint256",
          "name": "planId",
          "type": "uint256"
        },
        {
          "indexed": false,
          "internalType": "address",
          "name": "member",
          "type": "address"
        },
        {
          "indexed": false,
          "internalType": "uint256",
          "name": "squadMembers",
          "type": "uint256"
        }
      ],
      "name": "MemberAdded",
      "type": "event"
    },
    {
      "anonymous": false,
      "inputs": [
        {
          "indexed": true,
          "internalType": "bytes32",
          "name": "role",
          "type": "bytes32"
        },
        {
          "indexed": true,
          "internalType": "bytes32",
          "name": "previousAdminRole",
          "type": "bytes32"
        },
        {
          "indexed": true,
          "internalType": "bytes32",
          "name": "newAdminRole",
          "type": "bytes32"
        }
      ],
      "name": "RoleAdminChanged",
      "type": "event"
    },
    {
      "anonymous": false,
      "inputs": [
        {
          "indexed": true,
          "internalType": "bytes32",
          "name": "role",
          "type": "bytes32"
        },
        {
          "indexed": true,
          "internalType": "address",
          "name": "account",
          "type": "address"
        },
        {
          "indexed": true,
          "internalType": "address",
          "name": "sender",
          "type": "address"
        }
      ],
      "name": "RoleGranted",
      "type": "event"
    },
    {
      "anonymous": false,
      "inputs": [
        {
          "indexed": true,
          "internalType": "bytes32",
          "name": "role",
          "type": "bytes32"
        },
        {
          "indexed": true,
          "internalType": "address",
          "name": "account",
          "type": "address"
        },
        {
          "indexed": true,
          "internalType": "address",
          "name": "sender",
          "type": "address"
        }
      ],
      "name": "RoleRevoked",
      "type": "event"
    },
    {
      "anonymous": false,
      "inputs": [
        {
          "indexed": true,
          "internalType": "uint256",
          "name": "planId",
          "type": "uint256"
        },
        {
          "indexed": false,
          "internalType": "bool",
          "name": "isActive",
          "type": "bool"
        }
      ],
      "name": "SquadActivityChanged",
      "type": "event"
    },
    {
      "anonymous": false,
      "inputs": [
        {
          "indexed": true,
          "internalType": "address",
          "name": "user",
          "type": "address"
        },
        {
          "indexed": true,
          "internalType": "uint256",
          "name": "planId",
          "type": "uint256"
        },
        {
          "indexed": true,
          "internalType": "uint256",
          "name": "squadCount",
          "type": "uint256"
        }
      ],
      "name": "SquadFilled",
      "type": "event"
    },
    {
      "anonymous": false,
      "inputs": [
        {
          "indexed": true,
          "internalType": "uint256",
          "name": "planId",
          "type": "uint256"
        },
        {
          "indexed": false,
          "internalType": "uint256",
          "name": "subscriptionCost",
          "type": "uint256"
        },
        {
          "indexed": false,
          "internalType": "uint256",
          "name": "reward",
          "type": "uint256"
        },
        {
          "indexed": false,
          "internalType": "uint256",
          "name": "stakingThreshold",
          "type": "uint256"
        },
        {
          "indexed": false,
          "internalType": "uint256",
          "name": "squadSize",
          "type": "uint256"
        },
        {
          "indexed": false,
          "internalType": "uint256",
          "name": "stakingPlanId",
          "type": "uint256"
        }
      ],
      "name": "SquadPlanCreated",
      "type": "event"
    },
    {
      "anonymous": false,
      "inputs": [
        {
          "indexed": true,
          "internalType": "address",
          "name": "subscriber",
          "type": "address"
        },
        {
          "indexed": true,
          "internalType": "uint256",
          "name": "planId",
          "type": "uint256"
        },
        {
          "indexed": true,
          "internalType": "uint256",
          "name": "timestamp",
          "type": "uint256"
        }
      ],
      "name": "Subscribed",
      "type": "event"
    },
    {
      "inputs": [],
      "name": "DEFAULT_ADMIN_ROLE",
      "outputs": [
        {
          "internalType": "bytes32",
          "name": "",
          "type": "bytes32"
        }
      ],
      "stateMutability": "view",
      "type": "function"
    },
    {
      "inputs": [],
      "name": "SUBSCRIPTION_PERIOD_DAYS",
      "outputs": [
        {
          "internalType": "uint256",
          "name": "",
          "type": "uint256"
        }
      ],
      "stateMutability": "view",
      "type": "function"
    },
    {
      "inputs": [
        {
          "internalType": "uint256",
          "name": "subscriptionCost_",
          "type": "uint256"
        },
        {
          "internalType": "uint256",
          "name": "reward_",
          "type": "uint256"
        },
        {
          "internalType": "uint256",
          "name": "stakingThreshold_",
          "type": "uint256"
        },
        {
          "internalType": "uint256",
          "name": "squadSize_",
          "type": "uint256"
        },
        {
          "internalType": "uint256",
          "name": "stakingPlanId_",
          "type": "uint256"
        }
      ],
      "name": "addPlan",
      "outputs": [],
      "stateMutability": "nonpayable",
      "type": "function"
    },
    {
      "inputs": [],
      "name": "getPlans",
      "outputs": [
        {
          "components": [
            {
              "internalType": "uint256",
              "name": "subscriptionCost",
              "type": "uint256"
            },
            {
              "internalType": "uint256",
              "name": "reward",
              "type": "uint256"
            },
            {
              "internalType": "uint256",
              "name": "stakingThreshold",
              "type": "uint256"
            },
            {
              "internalType": "uint256",
              "name": "squadSize",
              "type": "uint256"
            },
            {
              "internalType": "uint256",
              "name": "stakingPlanId",
              "type": "uint256"
            },
            {
              "internalType": "bool",
              "name": "isActive",
              "type": "bool"
            }
          ],
          "internalType": "struct Squads.SquadPlan[]",
          "name": "",
          "type": "tuple[]"
        }
      ],
      "stateMutability": "view",
      "type": "function"
    },
    {
      "inputs": [
        {
          "internalType": "bytes32",
          "name": "role",
          "type": "bytes32"
        }
      ],
      "name": "getRoleAdmin",
      "outputs": [
        {
          "internalType": "bytes32",
          "name": "",
          "type": "bytes32"
        }
      ],
      "stateMutability": "view",
      "type": "function"
    },
    {
      "inputs": [
        {
          "internalType": "uint256",
          "name": "amount",
          "type": "uint256"
        }
      ],
      "name": "getSufficientPlanIdByStakingAmount",
      "outputs": [
        {
          "internalType": "int256",
          "name": "",
          "type": "int256"
        }
      ],
      "stateMutability": "view",
      "type": "function"
    },
    {
      "inputs": [],
      "name": "getTimestamp",
      "outputs": [
        {
          "internalType": "uint256",
          "name": "",
          "type": "uint256"
        }
      ],
      "stateMutability": "view",
      "type": "function"
    },
    {
      "inputs": [
        {
          "internalType": "uint256",
          "name": "planId",
          "type": "uint256"
        },
        {
          "internalType": "address",
          "name": "user",
          "type": "address"
        }
      ],
      "name": "getUserSquadInfo",
      "outputs": [
        {
          "components": [
            {
              "internalType": "uint256",
              "name": "subscription",
              "type": "uint256"
            },
            {
              "internalType": "uint256",
              "name": "squadsFilled",
              "type": "uint256"
            }
          ],
          "internalType": "struct Squads.Squad",
          "name": "",
          "type": "tuple"
        }
      ],
      "stateMutability": "view",
      "type": "function"
    },
    {
      "inputs": [
        {
          "internalType": "address",
          "name": "user",
          "type": "address"
        },
        {
          "internalType": "uint256",
          "name": "planId",
          "type": "uint256"
        }
      ],
      "name": "getUserSquadMembers",
      "outputs": [
        {
          "internalType": "address[]",
          "name": "",
          "type": "address[]"
        }
      ],
      "stateMutability": "view",
      "type": "function"
    },
    {
      "inputs": [
        {
          "internalType": "address",
          "name": "user",
          "type": "address"
        }
      ],
      "name": "getUserSquadsInfo",
      "outputs": [
        {
          "components": [
            {
              "internalType": "uint256",
              "name": "subscription",
              "type": "uint256"
            },
            {
              "internalType": "uint256",
              "name": "squadsFilled",
              "type": "uint256"
            }
          ],
          "internalType": "struct Squads.Squad[]",
          "name": "",
          "type": "tuple[]"
        }
      ],
      "stateMutability": "view",
      "type": "function"
    },
    {
      "inputs": [
        {
          "internalType": "bytes32",
          "name": "role",
          "type": "bytes32"
        },
        {
          "internalType": "address",
          "name": "account",
          "type": "address"
        }
      ],
      "name": "grantRole",
      "outputs": [],
      "stateMutability": "nonpayable",
      "type": "function"
    },
    {
      "inputs": [
        {
          "internalType": "bytes32",
          "name": "role",
          "type": "bytes32"
        },
        {
          "internalType": "address",
          "name": "account",
          "type": "address"
        }
      ],
      "name": "hasRole",
      "outputs": [
        {
          "internalType": "bool",
          "name": "",
          "type": "bool"
        }
      ],
      "stateMutability": "view",
      "type": "function"
    },
    {
      "inputs": [
        {
          "internalType": "uint256",
          "name": "",
          "type": "uint256"
        }
      ],
      "name": "plans",
      "outputs": [
        {
          "internalType": "uint256",
          "name": "subscriptionCost",
          "type": "uint256"
        },
        {
          "internalType": "uint256",
          "name": "reward",
          "type": "uint256"
        },
        {
          "internalType": "uint256",
          "name": "stakingThreshold",
          "type": "uint256"
        },
        {
          "internalType": "uint256",
          "name": "squadSize",
          "type": "uint256"
        },
        {
          "internalType": "uint256",
          "name": "stakingPlanId",
          "type": "uint256"
        },
        {
          "internalType": "bool",
          "name": "isActive",
          "type": "bool"
        }
      ],
      "stateMutability": "view",
      "type": "function"
    },
    {
      "inputs": [],
      "name": "referralManager",
      "outputs": [
        {
          "internalType": "contract IReferralManager",
          "name": "",
          "type": "address"
        }
      ],
      "stateMutability": "view",
      "type": "function"
    },
    {
      "inputs": [
        {
          "internalType": "bytes32",
          "name": "role",
          "type": "bytes32"
        },
        {
          "internalType": "address",
          "name": "account",
          "type": "address"
        }
      ],
      "name": "renounceRole",
      "outputs": [],
      "stateMutability": "nonpayable",
      "type": "function"
    },
    {
      "inputs": [
        {
          "internalType": "bytes32",
          "name": "role",
          "type": "bytes32"
        },
        {
          "internalType": "address",
          "name": "account",
          "type": "address"
        }
      ],
      "name": "revokeRole",
      "outputs": [],
      "stateMutability": "nonpayable",
      "type": "function"
    },
    {
      "inputs": [],
      "name": "stakingContract",
      "outputs": [
        {
          "internalType": "contract IStaking",
          "name": "",
          "type": "address"
        }
      ],
      "stateMutability": "view",
      "type": "function"
    },
    {
      "inputs": [
        {
          "internalType": "uint256",
          "name": "planId",
          "type": "uint256"
        }
      ],
      "name": "subscribe",
      "outputs": [],
      "stateMutability": "nonpayable",
      "type": "function"
    },
    {
      "inputs": [],
      "name": "subscriptionToken",
      "outputs": [
        {
          "internalType": "contract ERC20Burnable",
          "name": "",
          "type": "address"
        }
      ],
      "stateMutability": "view",
      "type": "function"
    },
    {
      "inputs": [
        {
          "internalType": "bytes4",
          "name": "interfaceId",
          "type": "bytes4"
        }
      ],
      "name": "supportsInterface",
      "outputs": [
        {
          "internalType": "bool",
          "name": "",
          "type": "bool"
        }
      ],
      "stateMutability": "view",
      "type": "function"
    },
    {
      "inputs": [
        {
          "internalType": "uint256",
          "name": "stakingPlanId",
          "type": "uint256"
        },
        {
          "internalType": "address",
          "name": "referrer",
          "type": "address"
        },
        {
          "internalType": "address",
          "name": "member",
          "type": "address"
        },
        {
          "internalType": "uint256",
          "name": "amount",
          "type": "uint256"
        }
      ],
      "name": "tryToAddMember",
      "outputs": [
        {
          "internalType": "bool",
          "name": "",
          "type": "bool"
        }
      ],
      "stateMutability": "nonpayable",
      "type": "function"
    },
    {
      "inputs": [
        {
          "internalType": "uint256",
          "name": "planId",
          "type": "uint256"
        },
        {
          "internalType": "bool",
          "name": "isActive",
          "type": "bool"
        }
      ],
      "name": "updatePlanActivity",
      "outputs": [],
      "stateMutability": "nonpayable",
      "type": "function"
    },
    {
      "inputs": [
        {
          "internalType": "uint256",
          "name": "planId",
          "type": "uint256"
        },
        {
          "internalType": "uint256",
          "name": "reward",
          "type": "uint256"
        }
      ],
      "name": "updatePlanReward",
      "outputs": [],
      "stateMutability": "nonpayable",
      "type": "function"
    },
    {
      "inputs": [
        {
          "internalType": "uint256",
          "name": "planId",
          "type": "uint256"
        },
        {
          "internalType": "uint256",
          "name": "size",
          "type": "uint256"
        }
      ],
      "name": "updatePlanSquadSize",
      "outputs": [],
      "stateMutability": "nonpayable",
      "type": "function"
    },
    {
      "inputs": [
        {
          "internalType": "uint256",
          "name": "planId",
          "type": "uint256"
        },
        {
          "internalType": "uint256",
          "name": "stakingPlanId",
          "type": "uint256"
        }
      ],
      "name": "updatePlanStakingId",
      "outputs": [],
      "stateMutability": "nonpayable",
      "type": "function"
    },
    {
      "inputs": [
        {
          "internalType": "uint256",
          "name": "planId",
          "type": "uint256"
        },
        {
          "internalType": "uint256",
          "name": "threshold",
          "type": "uint256"
        }
      ],
      "name": "updatePlanStakingThreshold",
      "outputs": [],
      "stateMutability": "nonpayable",
      "type": "function"
    },
    {
      "inputs": [
        {
          "internalType": "uint256",
          "name": "planId",
          "type": "uint256"
        },
        {
          "internalType": "uint256",
          "name": "subscriptionCost",
          "type": "uint256"
        }
      ],
      "name": "updatePlanSubscriptionCost",
      "outputs": [],
      "stateMutability": "nonpayable",
      "type": "function"
    },
    {
      "inputs": [
        {
          "internalType": "address",
          "name": "stakingContract_",
          "type": "address"
        }
      ],
      "name": "updateStakingContract",
      "outputs": [],
      "stateMutability": "nonpayable",
      "type": "function"
    },
    {
      "inputs": [
        {
          "internalType": "uint256",
          "name": "numDays",
          "type": "uint256"
        }
      ],
      "name": "updateSubscriptionPeriod",
      "outputs": [],
      "stateMutability": "nonpayable",
      "type": "function"
    },
    {
      "inputs": [
        {
          "internalType": "address",
          "name": "referralManager_",
          "type": "address"
        }
      ],
      "name": "updateSubscriptionReferralManager",
      "outputs": [],
      "stateMutability": "nonpayable",
      "type": "function"
    },
    {
      "inputs": [
        {
          "internalType": "address",
          "name": "token",
          "type": "address"
        }
      ],
      "name": "updateSubscriptionToken",
      "outputs": [],
      "stateMutability": "nonpayable",
      "type": "function"
    },
    {
      "inputs": [
        {
          "internalType": "address",
          "name": "user",
          "type": "address"
        },
        {
          "internalType": "uint256",
          "name": "planId",
          "type": "uint256"
        }
      ],
      "name": "userHasPlanSubscription",
      "outputs": [
        {
          "internalType": "bool",
          "name": "",
          "type": "bool"
        }
      ],
      "stateMutability": "view",
      "type": "function"
    },
    {
      "inputs": [
        {
          "internalType": "address",
          "name": "user",
          "type": "address"
        },
        {
          "internalType": "uint256",
          "name": "planId",
          "type": "uint256"
        }
      ],
      "name": "userHasSufficientStaking",
      "outputs": [
        {
          "internalType": "bool",
          "name": "",
          "type": "bool"
        }
      ],
      "stateMutability": "view",
      "type": "function"
    }
  ],
  "transactionHash": "0x357083afe5205885c6c11b96f1211821b4df23f11040ef8d0c7d39af6ff64dca",
  "args": [
    "0xb971Bbda8043267e8047372A29A5bfA8B78A2D04",
    "0x6Ab4b2db6D34ad1DC7F2e38bb975E7E7c7D44306",
    "0x65Ce665C07CE70A47da8A7d79D891dd3f522DE7C"
  ],
  "numDeployments": 6,
  "solcInputHash": "0a1fc4d2eff4d40b90b3e6e5225368fc",
  "bytecode": "0x608060405261016d6001553480156200001757600080fd5b506040516200206d3803806200206d8339810160408190526200003a9162000184565b6001600160a01b0383166200004e57600080fd5b6001600160a01b0382166200006257600080fd5b6001600160a01b0381166200007657600080fd5b62000083600033620000c6565b600580546001600160a01b039485166001600160a01b031991821617909155600680549385169382169390931790925560078054919093169116179055620001ce565b6000828152602081815260408083206001600160a01b038516845290915290205460ff1662000163576000828152602081815260408083206001600160a01b03851684529091529020805460ff19166001179055620001223390565b6001600160a01b0316816001600160a01b0316837f2f8788117e7eff1d82e926ec794901d17c78024a50270940304540a733656f0d60405160405180910390a45b5050565b80516001600160a01b03811681146200017f57600080fd5b919050565b6000806000606084860312156200019a57600080fd5b620001a58462000167565b9250620001b56020850162000167565b9150620001c56040850162000167565b90509250925092565b611e8f80620001de6000396000f3fe608060405234801561001057600080fd5b50600436106101fb5760003560e01c8063736560b51161011a578063afea5d55116100ad578063d6672e1c1161007c578063d6672e1c146104b9578063d94a862b146104cc578063d966edf0146104e1578063ee99205c146104f4578063fcc475121461050757600080fd5b8063afea5d551461043e578063b162061614610451578063ca7c101314610493578063d547741f146104a657600080fd5b8063a217fddf116100e9578063a217fddf146103fa578063a243d5ac14610402578063aaa138a214610415578063ad0839281461041e57600080fd5b8063736560b5146103ae57806388da0f13146103c157806391d14854146103d4578063992dc2da146103e757600080fd5b80632f2ff15d116101925780633fe90537116101615780633fe905371461033157806342ec14d714610344578063622f46a4146103575780636445c6791461037757600080fd5b80632f2ff15d146102e55780632fe00f57146102f85780633347e4d61461030b57806336568abe1461031e57600080fd5b80631c0e0612116101ce5780631c0e0612146102645780631e6f30cb14610277578063248a9ca3146102975780632ccd9623146102ba57600080fd5b806301ffc9a7146102005780630f574ba71461022857806316867cd81461023d578063188ec3561461025e575b600080fd5b61021361020e366004611880565b61051a565b60405190151581526020015b60405180910390f35b61023b6102363660046118aa565b610551565b005b61025061024b3660046118aa565b6107ac565b60405190815260200161021f565b42610250565b61023b6102723660046118d1565b610805565b61028a61028536600461191d565b61088d565b60405161021f9190611949565b6102506102a53660046118aa565b60009081526020819052604090206001015490565b6006546102cd906001600160a01b031681565b6040516001600160a01b03909116815260200161021f565b61023b6102f336600461191d565b6108d9565b61023b610306366004611960565b610903565b61023b610319366004611982565b61093c565b61023b61032c36600461191d565b61096a565b61023b61033f366004611960565b6109e8565b61023b610352366004611982565b610a1d565b61036a610365366004611982565b610a4b565b60405161021f919061199d565b6102136103853660046119f4565b60009081526003602090815260408083206001600160a01b039490941683529290522054421090565b61023b6103bc3660046118aa565b610afb565b61023b6103cf366004611a1e565b610b0c565b6102136103e236600461191d565b610cb4565b6102136103f53660046119f4565b610cdd565b610250600081565b61023b610410366004611982565b610e45565b61025060015481565b61043161042c3660046119f4565b610e73565b60405161021f9190611a59565b61021361044c366004611aa6565b610ef1565b61046461045f3660046118aa565b61127e565b6040805196875260208701959095529385019290925260608401526080830152151560a082015260c00161021f565b61023b6104a1366004611960565b6112c7565b61023b6104b436600461191d565b611300565b6005546102cd906001600160a01b031681565b6104d4611325565b60405161021f9190611aea565b61023b6104ef366004611960565b6113bf565b6007546102cd906001600160a01b031681565b61023b610515366004611960565b6113f8565b60006001600160e01b03198216637965db0b60e01b148061054b57506301ffc9a760e01b6001600160e01b03198316145b92915050565b600254811061059b5760405162461bcd60e51b8152602060048201526011602482015270125b98dbdc9c9958dd081c1b185b881a59607a1b60448201526064015b60405180910390fd5b60003390506000600283815481106105b5576105b5611b57565b60009182526020909120600690910201600581015490915060ff166106115760405162461bcd60e51b8152602060048201526012602482015271506c616e206973206e6f742061637469766560701b6044820152606401610592565b600554815460405163079cc67960e41b81526001600160a01b03858116600483015260248201929092529116906379cc679090604401600060405180830381600087803b15801561066157600080fd5b505af1158015610675573d6000803e3d6000fd5b5060009250610682915050565b6040519080825280602002602001820160405280156106ab578160200160208202803683370190505b5060008481526004602090815260408083206001600160a01b0387168452825290912082516106e09391929190910190611806565b5060004260008581526003602090815260408083206001600160a01b0388168452909152902054106107345760008481526003602090815260408083206001600160a01b0387168452909152902054610736565b425b9050600154620151806107499190611b99565b6107539082611bb8565b60008581526003602090815260408083206001600160a01b03881680855292528083209390935591518392879290917ff94991dcbea6e8ac439cbc93bd9c62a4d39f04e0ad656df9a703f13552c2787f9190a450505050565b6000600019815b6002548110156107fe57600281815481106107d0576107d0611b57565b90600052602060002090600602016002015484106107ec578091505b806107f681611bd0565b9150506107b3565b5092915050565b600061081081611431565b816002848154811061082457610824611b57565b906000526020600020906006020160050160006101000a81548160ff021916908315150217905550827f6da7bc8b01ce6d2ed854278dbb7c80b2cae78c297ec593d38c15b3d4445985a883604051610880911515815260200190565b60405180910390a2505050565b60408051808201825260008082526020918201819052938452600381528184206001600160a01b0393909316845291825291829020825180840190935280548352600101549082015290565b6000828152602081905260409020600101546108f481611431565b6108fe838361143e565b505050565b600061090e81611431565b816002848154811061092257610922611b57565b906000526020600020906006020160010181905550505050565b600061094781611431565b50600780546001600160a01b0319166001600160a01b0392909216919091179055565b6001600160a01b03811633146109da5760405162461bcd60e51b815260206004820152602f60248201527f416363657373436f6e74726f6c3a2063616e206f6e6c792072656e6f756e636560448201526e103937b632b9903337b91039b2b63360891b6064820152608401610592565b6109e482826114c2565b5050565b60006109f381611431565b8160028481548110610a0757610a07611b57565b6000918252602090912060069091020155505050565b6000610a2881611431565b50600680546001600160a01b0319166001600160a01b0392909216919091179055565b60025460609060009067ffffffffffffffff811115610a6c57610a6c611b6d565b604051908082528060200260200182016040528015610ab157816020015b6040805180820190915260008082526020820152815260200190600190039081610a8a5790505b50905060005b6002548110156107fe57610acb818561088d565b828281518110610add57610add611b57565b60200260200101819052508080610af390611bd0565b915050610ab7565b6000610b0681611431565b50600155565b6000610b1781611431565b6040805160c081018252878152602081018781529181018681526060820186815260808301868152600160a08501818152600280548084018255600082905287517f405787fa12a823e0f2b7631cc41b3ba8828b3321ca811111fa75cd3aa3bb5ace60069092029182015597517f405787fa12a823e0f2b7631cc41b3ba8828b3321ca811111fa75cd3aa3bb5acf89015594517f405787fa12a823e0f2b7631cc41b3ba8828b3321ca811111fa75cd3aa3bb5ad088015592517f405787fa12a823e0f2b7631cc41b3ba8828b3321ca811111fa75cd3aa3bb5ad187015590517f405787fa12a823e0f2b7631cc41b3ba8828b3321ca811111fa75cd3aa3bb5ad286015590517f405787fa12a823e0f2b7631cc41b3ba8828b3321ca811111fa75cd3aa3bb5ad3909401805460ff191694151594909417909355549091610c5c91611beb565b604080518981526020810189905290810187905260608101869052608081018590527f3beeb65995b90bd0914666101e05dd847e837c47b2f0d4da8882c34ea27c91309060a00160405180910390a250505050505050565b6000918252602082815260408084206001600160a01b0393909316845291905290205460ff1690565b6007546002805460009283926001600160a01b03909116916314ce783d919086908110610d0c57610d0c611b57565b906000526020600020906006020160040154866040518363ffffffff1660e01b8152600401610d4e9291909182526001600160a01b0316602082015260400190565b600060405180830381865afa158015610d6b573d6000803e3d6000fd5b505050506040513d6000823e601f3d908101601f19168201604052610d939190810190611c5c565b905060005b8151811015610e3a5742828281518110610db457610db4611b57565b602002602001015160400151118015610de85750818181518110610dda57610dda611b57565b602002602001015160c00151155b8015610e18575083610e16838381518110610e0557610e05611b57565b6020026020010151600001516107ac565b145b15610e285760019250505061054b565b80610e3281611bd0565b915050610d98565b506000949350505050565b6000610e5081611431565b50600580546001600160a01b0319166001600160a01b0392909216919091179055565b60008181526004602090815260408083206001600160a01b0386168452825291829020805483518184028101840190945280845260609392830182828015610ee457602002820191906000526020600020905b81546001600160a01b03168152600190910190602001808311610ec6575b5050505050905092915050565b60006001600160a01b038416610f495760405162461bcd60e51b815260206004820152601860248201527f5265666572726572206973207a65726f206164647265737300000000000000006044820152606401610592565b6001600160a01b038316610f985760405162461bcd60e51b81526020600482015260166024820152754d656d626572206973207a65726f206164647265737360501b6044820152606401610592565b6000610fa3836107ac565b90506000811215610fb357600080fd5b60008190508660028281548110610fcc57610fcc611b57565b9060005260206000209060060201600401541461102b5760405162461bcd60e51b815260206004820152601960248201527f5374616b696e6720706c616e20646f206e6f74206d61746368000000000000006044820152606401610592565b6007546001600160a01b031633148015611066575060008181526003602090815260408083206001600160a01b038a16845290915290205442105b801561107757506110778682610cdd565b801561108b5750611089868287611527565b155b1561126f5760008181526004602090815260408083206001600160a01b038a811680865291845282852080546001810182558187528587200180546001600160a01b031916928c169283179055948290529354825194855292840183905291928492917f4727d8bf558b6f2fd2d2f66e2062e0c408a4b470870a0385e940358a87ad3626910160405180910390a36002828154811061112c5761112c611b57565b90600052602060002090600602016003015481106112635760008281526003602090815260408083206001600160a01b038b1684529091528120600180820180549293919290919061117f908490611bb8565b909155505060008155600654600280546001600160a01b0390921691633fb55c61918b91879081106111b3576111b3611b57565b60009182526020909120600160069092020101546040516001600160e01b031960e085901b1681526001600160a01b0390921660048301526024820152604401600060405180830381600087803b15801561120d57600080fd5b505af1158015611221573d6000803e3d6000fd5b50505050806001015483896001600160a01b03167fc22bc73345a19ca25692353736ee8587e0e2d12c75a1ed016950ed4b20fac30160405160405180910390a4505b60019350505050611276565b6000925050505b949350505050565b6002818154811061128e57600080fd5b60009182526020909120600690910201805460018201546002830154600384015460048501546005909501549395509193909260ff1686565b60006112d281611431565b81600284815481106112e6576112e6611b57565b906000526020600020906006020160040181905550505050565b60008281526020819052604090206001015461131b81611431565b6108fe83836114c2565b60606002805480602002602001604051908101604052809291908181526020016000905b828210156113b65760008481526020908190206040805160c08101825260068602909201805483526001808201548486015260028201549284019290925260038101546060840152600481015460808401526005015460ff16151560a08301529083529092019101611349565b50505050905090565b60006113ca81611431565b81600284815481106113de576113de611b57565b906000526020600020906006020160020181905550505050565b600061140381611431565b816002848154811061141757611417611b57565b906000526020600020906006020160030181905550505050565b61143b8133611606565b50565b6114488282610cb4565b6109e4576000828152602081815260408083206001600160a01b03851684529091529020805460ff1916600117905561147e3390565b6001600160a01b0316816001600160a01b0316837f2f8788117e7eff1d82e926ec794901d17c78024a50270940304540a733656f0d60405160405180910390a45050565b6114cc8282610cb4565b156109e4576000828152602081815260408083206001600160a01b0385168085529252808320805460ff1916905551339285917ff6391f5c32d9c69d2a47ea670b442974b53935d1edc7fd64eb21e047a839171b9190a45050565b60008281526004602090815260408083206001600160a01b038716845282528083208054825181850281018501909352808352849383018282801561159557602002820191906000526020600020905b81546001600160a01b03168152600190910190602001808311611577575b5050505050905060005b81518110156115f857836001600160a01b03168282815181106115c4576115c4611b57565b60200260200101516001600160a01b031614156115e6576001925050506115ff565b806115f081611bd0565b91505061159f565b5060009150505b9392505050565b6116108282610cb4565b6109e457611628816001600160a01b0316601461166a565b61163383602061166a565b604051602001611644929190611d9a565b60408051601f198184030181529082905262461bcd60e51b825261059291600401611e0f565b60606000611679836002611b99565b611684906002611bb8565b67ffffffffffffffff81111561169c5761169c611b6d565b6040519080825280601f01601f1916602001820160405280156116c6576020820181803683370190505b509050600360fc1b816000815181106116e1576116e1611b57565b60200101906001600160f81b031916908160001a905350600f60fb1b8160018151811061171057611710611b57565b60200101906001600160f81b031916908160001a9053506000611734846002611b99565b61173f906001611bb8565b90505b60018111156117b7576f181899199a1a9b1b9c1cb0b131b232b360811b85600f166010811061177357611773611b57565b1a60f81b82828151811061178957611789611b57565b60200101906001600160f81b031916908160001a90535060049490941c936117b081611e42565b9050611742565b5083156115ff5760405162461bcd60e51b815260206004820181905260248201527f537472696e67733a20686578206c656e67746820696e73756666696369656e746044820152606401610592565b82805482825590600052602060002090810192821561185b579160200282015b8281111561185b57825182546001600160a01b0319166001600160a01b03909116178255602090920191600190910190611826565b5061186792915061186b565b5090565b5b80821115611867576000815560010161186c565b60006020828403121561189257600080fd5b81356001600160e01b0319811681146115ff57600080fd5b6000602082840312156118bc57600080fd5b5035919050565b801515811461143b57600080fd5b600080604083850312156118e457600080fd5b8235915060208301356118f6816118c3565b809150509250929050565b80356001600160a01b038116811461191857600080fd5b919050565b6000806040838503121561193057600080fd5b8235915061194060208401611901565b90509250929050565b81518152602080830151908201526040810161054b565b6000806040838503121561197357600080fd5b50508035926020909101359150565b60006020828403121561199457600080fd5b6115ff82611901565b602080825282518282018190526000919060409081850190868401855b828110156119e7576119d784835180518252602090810151910152565b92840192908501906001016119ba565b5091979650505050505050565b60008060408385031215611a0757600080fd5b611a1083611901565b946020939093013593505050565b600080600080600060a08688031215611a3657600080fd5b505083359560208501359550604085013594606081013594506080013592509050565b6020808252825182820181905260009190848201906040850190845b81811015611a9a5783516001600160a01b031683529284019291840191600101611a75565b50909695505050505050565b60008060008060808587031215611abc57600080fd5b84359350611acc60208601611901565b9250611ada60408601611901565b9396929550929360600135925050565b602080825282518282018190526000919060409081850190868401855b828110156119e75781518051855286810151878601528581015186860152606080820151908601526080808201519086015260a09081015115159085015260c09093019290850190600101611b07565b634e487b7160e01b600052603260045260246000fd5b634e487b7160e01b600052604160045260246000fd5b634e487b7160e01b600052601160045260246000fd5b6000816000190483118215151615611bb357611bb3611b83565b500290565b60008219821115611bcb57611bcb611b83565b500190565b6000600019821415611be457611be4611b83565b5060010190565b600082821015611bfd57611bfd611b83565b500390565b60405160e0810167ffffffffffffffff81118282101715611c2557611c25611b6d565b60405290565b604051601f8201601f1916810167ffffffffffffffff81118282101715611c5457611c54611b6d565b604052919050565b60006020808385031215611c6f57600080fd5b825167ffffffffffffffff80821115611c8757600080fd5b818501915085601f830112611c9b57600080fd5b815181811115611cad57611cad611b6d565b611cbb848260051b01611c2b565b818152848101925060e0918202840185019188831115611cda57600080fd5b938501935b82851015611d5e5780858a031215611cf75760008081fd5b611cff611c02565b85518152868601518782015260408087015190820152606080870151908201526080808701519082015260a080870151611d38816118c3565b9082015260c086810151611d4b816118c3565b9082015284529384019392850192611cdf565b50979650505050505050565b60005b83811015611d85578181015183820152602001611d6d565b83811115611d94576000848401525b50505050565b7f416363657373436f6e74726f6c3a206163636f756e7420000000000000000000815260008351611dd2816017850160208801611d6a565b7001034b99036b4b9b9b4b733903937b6329607d1b6017918401918201528351611e03816028840160208801611d6a565b01602801949350505050565b6020815260008251806020840152611e2e816040850160208701611d6a565b601f01601f19169190910160400192915050565b600081611e5157611e51611b83565b50600019019056fea26469706673582212201a297fb5e3703688c268ff4243f490463b724ff66b7d12f404b63649248dc12f64736f6c634300080b0033",
  "devdoc": {
    "kind": "dev",
    "methods": {
      "getRoleAdmin(bytes32)": {
        "details": "Returns the admin role that controls `role`. See {grantRole} and {revokeRole}. To change a role's admin, use {_setRoleAdmin}."
      },
      "grantRole(bytes32,address)": {
        "details": "Grants `role` to `account`. If `account` had not been already granted `role`, emits a {RoleGranted} event. Requirements: - the caller must have ``role``'s admin role. May emit a {RoleGranted} event."
      },
      "hasRole(bytes32,address)": {
        "details": "Returns `true` if `account` has been granted `role`."
      },
      "renounceRole(bytes32,address)": {
        "details": "Revokes `role` from the calling account. Roles are often managed via {grantRole} and {revokeRole}: this function's purpose is to provide a mechanism for accounts to lose their privileges if they are compromised (such as when a trusted device is misplaced). If the calling account had been revoked `role`, emits a {RoleRevoked} event. Requirements: - the caller must be `account`. May emit a {RoleRevoked} event."
      },
      "revokeRole(bytes32,address)": {
        "details": "Revokes `role` from `account`. If `account` had been granted `role`, emits a {RoleRevoked} event. Requirements: - the caller must have ``role``'s admin role. May emit a {RoleRevoked} event."
      },
      "supportsInterface(bytes4)": {
        "details": "See {IERC165-supportsInterface}."
      }
    },
    "version": 1
  },
  "userdoc": {
    "kind": "user",
    "methods": {},
    "version": 1
  },
  "storageLayout": {
    "storage": [
      {
        "astId": 178,
        "contract": "contracts/Squads.sol:Squads",
        "label": "_roles",
        "offset": 0,
        "slot": "0",
        "type": "t_mapping(t_bytes32,t_struct(RoleData)173_storage)"
      },
      {
        "astId": 8485,
        "contract": "contracts/Squads.sol:Squads",
        "label": "SUBSCRIPTION_PERIOD_DAYS",
        "offset": 0,
        "slot": "1",
        "type": "t_uint256"
      },
      {
        "astId": 8507,
        "contract": "contracts/Squads.sol:Squads",
        "label": "plans",
        "offset": 0,
        "slot": "2",
        "type": "t_array(t_struct(SquadPlan)8503_storage)dyn_storage"
      },
      {
        "astId": 8514,
        "contract": "contracts/Squads.sol:Squads",
        "label": "userSubscriptions",
        "offset": 0,
        "slot": "3",
        "type": "t_mapping(t_uint256,t_mapping(t_address,t_struct(Squad)8490_storage))"
      },
      {
        "astId": 8521,
        "contract": "contracts/Squads.sol:Squads",
        "label": "squadMembers",
        "offset": 0,
        "slot": "4",
        "type": "t_mapping(t_uint256,t_mapping(t_address,t_array(t_address)dyn_storage))"
      },
      {
        "astId": 8524,
        "contract": "contracts/Squads.sol:Squads",
        "label": "subscriptionToken",
        "offset": 0,
        "slot": "5",
        "type": "t_contract(ERC20Burnable)3142"
      },
      {
        "astId": 8527,
        "contract": "contracts/Squads.sol:Squads",
        "label": "referralManager",
        "offset": 0,
        "slot": "6",
        "type": "t_contract(IReferralManager)12292"
      },
      {
        "astId": 8530,
        "contract": "contracts/Squads.sol:Squads",
        "label": "stakingContract",
        "offset": 0,
        "slot": "7",
        "type": "t_contract(IStaking)12473"
      }
    ],
    "types": {
      "t_address": {
        "encoding": "inplace",
        "label": "address",
        "numberOfBytes": "20"
      },
      "t_array(t_address)dyn_storage": {
        "base": "t_address",
        "encoding": "dynamic_array",
        "label": "address[]",
        "numberOfBytes": "32"
      },
      "t_array(t_struct(SquadPlan)8503_storage)dyn_storage": {
        "base": "t_struct(SquadPlan)8503_storage",
        "encoding": "dynamic_array",
        "label": "struct Squads.SquadPlan[]",
        "numberOfBytes": "32"
      },
      "t_bool": {
        "encoding": "inplace",
        "label": "bool",
        "numberOfBytes": "1"
      },
      "t_bytes32": {
        "encoding": "inplace",
        "label": "bytes32",
        "numberOfBytes": "32"
      },
      "t_contract(ERC20Burnable)3142": {
        "encoding": "inplace",
        "label": "contract ERC20Burnable",
        "numberOfBytes": "20"
      },
      "t_contract(IReferralManager)12292": {
        "encoding": "inplace",
        "label": "contract IReferralManager",
        "numberOfBytes": "20"
      },
      "t_contract(IStaking)12473": {
        "encoding": "inplace",
        "label": "contract IStaking",
        "numberOfBytes": "20"
      },
      "t_mapping(t_address,t_array(t_address)dyn_storage)": {
        "encoding": "mapping",
        "key": "t_address",
        "label": "mapping(address => address[])",
        "numberOfBytes": "32",
        "value": "t_array(t_address)dyn_storage"
      },
      "t_mapping(t_address,t_bool)": {
        "encoding": "mapping",
        "key": "t_address",
        "label": "mapping(address => bool)",
        "numberOfBytes": "32",
        "value": "t_bool"
      },
      "t_mapping(t_address,t_struct(Squad)8490_storage)": {
        "encoding": "mapping",
        "key": "t_address",
        "label": "mapping(address => struct Squads.Squad)",
        "numberOfBytes": "32",
        "value": "t_struct(Squad)8490_storage"
      },
      "t_mapping(t_bytes32,t_struct(RoleData)173_storage)": {
        "encoding": "mapping",
        "key": "t_bytes32",
        "label": "mapping(bytes32 => struct AccessControl.RoleData)",
        "numberOfBytes": "32",
        "value": "t_struct(RoleData)173_storage"
      },
      "t_mapping(t_uint256,t_mapping(t_address,t_array(t_address)dyn_storage))": {
        "encoding": "mapping",
        "key": "t_uint256",
        "label": "mapping(uint256 => mapping(address => address[]))",
        "numberOfBytes": "32",
        "value": "t_mapping(t_address,t_array(t_address)dyn_storage)"
      },
      "t_mapping(t_uint256,t_mapping(t_address,t_struct(Squad)8490_storage))": {
        "encoding": "mapping",
        "key": "t_uint256",
        "label": "mapping(uint256 => mapping(address => struct Squads.Squad))",
        "numberOfBytes": "32",
        "value": "t_mapping(t_address,t_struct(Squad)8490_storage)"
      },
      "t_struct(RoleData)173_storage": {
        "encoding": "inplace",
        "label": "struct AccessControl.RoleData",
        "members": [
          {
            "astId": 170,
            "contract": "contracts/Squads.sol:Squads",
            "label": "members",
            "offset": 0,
            "slot": "0",
            "type": "t_mapping(t_address,t_bool)"
          },
          {
            "astId": 172,
            "contract": "contracts/Squads.sol:Squads",
            "label": "adminRole",
            "offset": 0,
            "slot": "1",
            "type": "t_bytes32"
          }
        ],
        "numberOfBytes": "64"
      },
      "t_struct(Squad)8490_storage": {
        "encoding": "inplace",
        "label": "struct Squads.Squad",
        "members": [
          {
            "astId": 8487,
            "contract": "contracts/Squads.sol:Squads",
            "label": "subscription",
            "offset": 0,
            "slot": "0",
            "type": "t_uint256"
          },
          {
            "astId": 8489,
            "contract": "contracts/Squads.sol:Squads",
            "label": "squadsFilled",
            "offset": 0,
            "slot": "1",
            "type": "t_uint256"
          }
        ],
        "numberOfBytes": "64"
      },
      "t_struct(SquadPlan)8503_storage": {
        "encoding": "inplace",
        "label": "struct Squads.SquadPlan",
        "members": [
          {
            "astId": 8492,
            "contract": "contracts/Squads.sol:Squads",
            "label": "subscriptionCost",
            "offset": 0,
            "slot": "0",
            "type": "t_uint256"
          },
          {
            "astId": 8494,
            "contract": "contracts/Squads.sol:Squads",
            "label": "reward",
            "offset": 0,
            "slot": "1",
            "type": "t_uint256"
          },
          {
            "astId": 8496,
            "contract": "contracts/Squads.sol:Squads",
            "label": "stakingThreshold",
            "offset": 0,
            "slot": "2",
            "type": "t_uint256"
          },
          {
            "astId": 8498,
            "contract": "contracts/Squads.sol:Squads",
            "label": "squadSize",
            "offset": 0,
            "slot": "3",
            "type": "t_uint256"
          },
          {
            "astId": 8500,
            "contract": "contracts/Squads.sol:Squads",
            "label": "stakingPlanId",
            "offset": 0,
            "slot": "4",
            "type": "t_uint256"
          },
          {
            "astId": 8502,
            "contract": "contracts/Squads.sol:Squads",
            "label": "isActive",
            "offset": 0,
            "slot": "5",
            "type": "t_bool"
          }
        ],
        "numberOfBytes": "192"
      },
      "t_uint256": {
        "encoding": "inplace",
        "label": "uint256",
        "numberOfBytes": "32"
      }
    }
  }
}