{
  "address": "0x2DF5295327e84D3e19Ba23cfAbf9F8bcD2E0f1Cc",
  "abi": [
    {
      "inputs": [
        {
          "internalType": "address",
          "name": "token1_",
          "type": "address"
        },
        {
          "internalType": "address",
          "name": "token2_",
          "type": "address"
        },
        {
          "internalType": "address",
          "name": "rewardPool_",
          "type": "address"
        },
        {
          "internalType": "address",
          "name": "referralManager_",
          "type": "address"
        },
        {
          "internalType": "address",
          "name": "squadsManager_",
          "type": "address"
        }
      ],
      "stateMutability": "nonpayable",
      "type": "constructor"
    },
    {
      "anonymous": false,
      "inputs": [
        {
          "indexed": true,
          "internalType": "uint256",
          "name": "planId",
          "type": "uint256"
        },
        {
          "indexed": false,
          "internalType": "bool",
          "name": "isActive",
          "type": "bool"
        }
      ],
      "name": "ActivityChanged",
      "type": "event"
    },
    {
      "anonymous": false,
      "inputs": [
        {
          "indexed": true,
          "internalType": "address",
          "name": "user",
          "type": "address"
        },
        {
          "indexed": true,
          "internalType": "uint256",
          "name": "planId",
          "type": "uint256"
        },
        {
          "indexed": true,
          "internalType": "uint256",
          "name": "stakeIndex",
          "type": "uint256"
        },
        {
          "indexed": false,
          "internalType": "uint256",
          "name": "amount",
          "type": "uint256"
        },
        {
          "indexed": false,
          "internalType": "bool",
          "name": "isToken2",
          "type": "bool"
        },
        {
          "indexed": false,
          "internalType": "uint256",
          "name": "timestamp",
          "type": "uint256"
        }
      ],
      "name": "Claimed",
      "type": "event"
    },
    {
      "anonymous": false,
      "inputs": [
        {
          "indexed": true,
          "internalType": "bytes32",
          "name": "role",
          "type": "bytes32"
        },
        {
          "indexed": true,
          "internalType": "bytes32",
          "name": "previousAdminRole",
          "type": "bytes32"
        },
        {
          "indexed": true,
          "internalType": "bytes32",
          "name": "newAdminRole",
          "type": "bytes32"
        }
      ],
      "name": "RoleAdminChanged",
      "type": "event"
    },
    {
      "anonymous": false,
      "inputs": [
        {
          "indexed": true,
          "internalType": "bytes32",
          "name": "role",
          "type": "bytes32"
        },
        {
          "indexed": true,
          "internalType": "address",
          "name": "account",
          "type": "address"
        },
        {
          "indexed": true,
          "internalType": "address",
          "name": "sender",
          "type": "address"
        }
      ],
      "name": "RoleGranted",
      "type": "event"
    },
    {
      "anonymous": false,
      "inputs": [
        {
          "indexed": true,
          "internalType": "bytes32",
          "name": "role",
          "type": "bytes32"
        },
        {
          "indexed": true,
          "internalType": "address",
          "name": "account",
          "type": "address"
        },
        {
          "indexed": true,
          "internalType": "address",
          "name": "sender",
          "type": "address"
        }
      ],
      "name": "RoleRevoked",
      "type": "event"
    },
    {
      "anonymous": false,
      "inputs": [
        {
          "indexed": true,
          "internalType": "address",
          "name": "user",
          "type": "address"
        },
        {
          "indexed": true,
          "internalType": "uint256",
          "name": "planId",
          "type": "uint256"
        },
        {
          "indexed": true,
          "internalType": "uint256",
          "name": "stakeIndex",
          "type": "uint256"
        },
        {
          "indexed": false,
          "internalType": "uint256",
          "name": "amount",
          "type": "uint256"
        },
        {
          "indexed": false,
          "internalType": "uint256",
          "name": "profit",
          "type": "uint256"
        },
        {
          "indexed": false,
          "internalType": "bool",
          "name": "isToken2",
          "type": "bool"
        },
        {
          "indexed": false,
          "internalType": "uint256",
          "name": "timestamp",
          "type": "uint256"
        }
      ],
      "name": "Staked",
      "type": "event"
    },
    {
      "anonymous": false,
      "inputs": [
        {
          "indexed": true,
          "internalType": "uint256",
          "name": "planId",
          "type": "uint256"
        },
        {
          "indexed": false,
          "internalType": "uint256",
          "name": "duration",
          "type": "uint256"
        },
        {
          "indexed": false,
          "internalType": "uint256",
          "name": "rewardPercent",
          "type": "uint256"
        }
      ],
      "name": "StakingPlanCreated",
      "type": "event"
    },
    {
      "anonymous": false,
      "inputs": [
        {
          "indexed": true,
          "internalType": "address",
          "name": "user",
          "type": "address"
        },
        {
          "indexed": true,
          "internalType": "uint256",
          "name": "planId",
          "type": "uint256"
        }
      ],
      "name": "Subscribed",
      "type": "event"
    },
    {
      "inputs": [],
      "name": "DEFAULT_ADMIN_ROLE",
      "outputs": [
        {
          "internalType": "bytes32",
          "name": "",
          "type": "bytes32"
        }
      ],
      "stateMutability": "view",
      "type": "function"
    },
    {
      "inputs": [],
      "name": "MIN_STAKE_LIMIT",
      "outputs": [
        {
          "internalType": "uint256",
          "name": "",
          "type": "uint256"
        }
      ],
      "stateMutability": "view",
      "type": "function"
    },
    {
      "inputs": [],
      "name": "PERCENTS_DIVIDER",
      "outputs": [
        {
          "internalType": "uint256",
          "name": "",
          "type": "uint256"
        }
      ],
      "stateMutability": "view",
      "type": "function"
    },
    {
      "inputs": [],
      "name": "TIME_STEP",
      "outputs": [
        {
          "internalType": "uint256",
          "name": "",
          "type": "uint256"
        }
      ],
      "stateMutability": "view",
      "type": "function"
    },
    {
      "inputs": [
        {
          "internalType": "uint256",
          "name": "subscriptionCost",
          "type": "uint256"
        },
        {
          "internalType": "uint256",
          "name": "subscriptionDuration",
          "type": "uint256"
        },
        {
          "internalType": "uint256",
          "name": "stakingDuration",
          "type": "uint256"
        },
        {
          "internalType": "uint256",
          "name": "profitPercent",
          "type": "uint256"
        }
      ],
      "name": "addStakingPlan",
      "outputs": [],
      "stateMutability": "nonpayable",
      "type": "function"
    },
    {
      "inputs": [
        {
          "internalType": "uint256",
          "name": "planId",
          "type": "uint256"
        },
        {
          "internalType": "uint256",
          "name": "amount",
          "type": "uint256"
        }
      ],
      "name": "calculateStakeProfit",
      "outputs": [
        {
          "internalType": "uint256",
          "name": "",
          "type": "uint256"
        }
      ],
      "stateMutability": "view",
      "type": "function"
    },
    {
      "inputs": [
        {
          "internalType": "uint256",
          "name": "planId",
          "type": "uint256"
        },
        {
          "internalType": "uint256",
          "name": "depositAmount",
          "type": "uint256"
        },
        {
          "internalType": "bool",
          "name": "isToken2",
          "type": "bool"
        },
        {
          "internalType": "address",
          "name": "referrer",
          "type": "address"
        }
      ],
      "name": "deposit",
      "outputs": [],
      "stateMutability": "nonpayable",
      "type": "function"
    },
    {
      "inputs": [
        {
          "internalType": "uint256",
          "name": "planId",
          "type": "uint256"
        },
        {
          "internalType": "address",
          "name": "userAddress",
          "type": "address"
        },
        {
          "internalType": "uint256",
          "name": "stakeId",
          "type": "uint256"
        }
      ],
      "name": "getAvailableStakeReward",
      "outputs": [
        {
          "internalType": "uint256",
          "name": "",
          "type": "uint256"
        }
      ],
      "stateMutability": "view",
      "type": "function"
    },
    {
      "inputs": [],
      "name": "getContractInfo",
      "outputs": [
        {
          "components": [
            {
              "internalType": "bool",
              "name": "isActive",
              "type": "bool"
            },
            {
              "internalType": "uint256",
              "name": "subscriptionCost",
              "type": "uint256"
            },
            {
              "internalType": "uint256",
              "name": "subscriptionDuration",
              "type": "uint256"
            },
            {
              "internalType": "uint256",
              "name": "stakingDuration",
              "type": "uint256"
            },
            {
              "internalType": "uint256",
              "name": "profitPercent",
              "type": "uint256"
            },
            {
              "internalType": "uint256",
              "name": "totalStakesToken1No",
              "type": "uint256"
            },
            {
              "internalType": "uint256",
              "name": "totalStakesToken2No",
              "type": "uint256"
            },
            {
              "internalType": "uint256",
              "name": "totalStakedToken1",
              "type": "uint256"
            },
            {
              "internalType": "uint256",
              "name": "totalStakedToken2",
              "type": "uint256"
            },
            {
              "internalType": "uint256",
              "name": "totalClaimed",
              "type": "uint256"
            }
          ],
          "internalType": "struct IStaking.StakingPlan[]",
          "name": "",
          "type": "tuple[]"
        }
      ],
      "stateMutability": "view",
      "type": "function"
    },
    {
      "inputs": [
        {
          "internalType": "bytes32",
          "name": "role",
          "type": "bytes32"
        }
      ],
      "name": "getRoleAdmin",
      "outputs": [
        {
          "internalType": "bytes32",
          "name": "",
          "type": "bytes32"
        }
      ],
      "stateMutability": "view",
      "type": "function"
    },
    {
      "inputs": [
        {
          "internalType": "uint256",
          "name": "planId",
          "type": "uint256"
        }
      ],
      "name": "getStakingPlan",
      "outputs": [
        {
          "components": [
            {
              "internalType": "bool",
              "name": "isActive",
              "type": "bool"
            },
            {
              "internalType": "uint256",
              "name": "subscriptionCost",
              "type": "uint256"
            },
            {
              "internalType": "uint256",
              "name": "subscriptionDuration",
              "type": "uint256"
            },
            {
              "internalType": "uint256",
              "name": "stakingDuration",
              "type": "uint256"
            },
            {
              "internalType": "uint256",
              "name": "profitPercent",
              "type": "uint256"
            },
            {
              "internalType": "uint256",
              "name": "totalStakesToken1No",
              "type": "uint256"
            },
            {
              "internalType": "uint256",
              "name": "totalStakesToken2No",
              "type": "uint256"
            },
            {
              "internalType": "uint256",
              "name": "totalStakedToken1",
              "type": "uint256"
            },
            {
              "internalType": "uint256",
              "name": "totalStakedToken2",
              "type": "uint256"
            },
            {
              "internalType": "uint256",
              "name": "totalClaimed",
              "type": "uint256"
            }
          ],
          "internalType": "struct IStaking.StakingPlan",
          "name": "",
          "type": "tuple"
        }
      ],
      "stateMutability": "view",
      "type": "function"
    },
    {
      "inputs": [],
      "name": "getTimestamp",
      "outputs": [
        {
          "internalType": "uint256",
          "name": "",
          "type": "uint256"
        }
      ],
      "stateMutability": "view",
      "type": "function"
    },
    {
      "inputs": [
        {
          "internalType": "uint256",
          "name": "planId",
          "type": "uint256"
        },
        {
          "internalType": "address",
          "name": "userAddress",
          "type": "address"
        }
      ],
      "name": "getUserPlanInfo",
      "outputs": [
        {
          "internalType": "uint256",
          "name": "totalStakedToken1",
          "type": "uint256"
        },
        {
          "internalType": "uint256",
          "name": "totalStakedToken2",
          "type": "uint256"
        },
        {
          "internalType": "uint256",
          "name": "totalClaimed",
          "type": "uint256"
        },
        {
          "internalType": "uint256",
          "name": "currentToken1Staked",
          "type": "uint256"
        },
        {
          "internalType": "bool",
          "name": "isSubscribed",
          "type": "bool"
        },
        {
          "internalType": "uint256",
          "name": "subscribedTill",
          "type": "uint256"
        }
      ],
      "stateMutability": "view",
      "type": "function"
    },
    {
      "inputs": [
        {
          "internalType": "uint256",
          "name": "planId",
          "type": "uint256"
        },
        {
          "internalType": "address",
          "name": "userAddress",
          "type": "address"
        }
      ],
      "name": "getUserStakes",
      "outputs": [
        {
          "components": [
            {
              "internalType": "uint256",
              "name": "amount",
              "type": "uint256"
            },
            {
              "internalType": "uint256",
              "name": "timeStart",
              "type": "uint256"
            },
            {
              "internalType": "uint256",
              "name": "timeEnd",
              "type": "uint256"
            },
            {
              "internalType": "uint256",
              "name": "profitPercent",
              "type": "uint256"
            },
            {
              "internalType": "uint256",
              "name": "profit",
              "type": "uint256"
            },
            {
              "internalType": "bool",
              "name": "isClaimed",
              "type": "bool"
            },
            {
              "internalType": "bool",
              "name": "isToken2",
              "type": "bool"
            }
          ],
          "internalType": "struct IStaking.Stake[]",
          "name": "stakes",
          "type": "tuple[]"
        }
      ],
      "stateMutability": "view",
      "type": "function"
    },
    {
      "inputs": [
        {
          "internalType": "bytes32",
          "name": "role",
          "type": "bytes32"
        },
        {
          "internalType": "address",
          "name": "account",
          "type": "address"
        }
      ],
      "name": "grantRole",
      "outputs": [],
      "stateMutability": "nonpayable",
      "type": "function"
    },
    {
      "inputs": [
        {
          "internalType": "bytes32",
          "name": "role",
          "type": "bytes32"
        },
        {
          "internalType": "address",
          "name": "account",
          "type": "address"
        }
      ],
      "name": "hasRole",
      "outputs": [
        {
          "internalType": "bool",
          "name": "",
          "type": "bool"
        }
      ],
      "stateMutability": "view",
      "type": "function"
    },
    {
      "inputs": [
        {
          "internalType": "uint256",
          "name": "planId",
          "type": "uint256"
        },
        {
          "internalType": "address",
          "name": "user",
          "type": "address"
        }
      ],
      "name": "hasSubscription",
      "outputs": [
        {
          "internalType": "bool",
          "name": "",
          "type": "bool"
        }
      ],
      "stateMutability": "view",
      "type": "function"
    },
    {
      "inputs": [],
      "name": "referralManager",
      "outputs": [
        {
          "internalType": "contract IReferralManager",
          "name": "",
          "type": "address"
        }
      ],
      "stateMutability": "view",
      "type": "function"
    },
    {
      "inputs": [
        {
          "internalType": "bytes32",
          "name": "role",
          "type": "bytes32"
        },
        {
          "internalType": "address",
          "name": "account",
          "type": "address"
        }
      ],
      "name": "renounceRole",
      "outputs": [],
      "stateMutability": "nonpayable",
      "type": "function"
    },
    {
      "inputs": [
        {
          "internalType": "bytes32",
          "name": "role",
          "type": "bytes32"
        },
        {
          "internalType": "address",
          "name": "account",
          "type": "address"
        }
      ],
      "name": "revokeRole",
      "outputs": [],
      "stateMutability": "nonpayable",
      "type": "function"
    },
    {
      "inputs": [],
      "name": "shouldAddReferrerOnToken2Stake",
      "outputs": [
        {
          "internalType": "bool",
          "name": "",
          "type": "bool"
        }
      ],
      "stateMutability": "view",
      "type": "function"
    },
    {
      "inputs": [],
      "name": "squadsManager",
      "outputs": [
        {
          "internalType": "contract ISquads",
          "name": "",
          "type": "address"
        }
      ],
      "stateMutability": "view",
      "type": "function"
    },
    {
      "inputs": [
        {
          "internalType": "uint256",
          "name": "",
          "type": "uint256"
        }
      ],
      "name": "stakingPlans",
      "outputs": [
        {
          "internalType": "bool",
          "name": "isActive",
          "type": "bool"
        },
        {
          "internalType": "uint256",
          "name": "subscriptionCost",
          "type": "uint256"
        },
        {
          "internalType": "uint256",
          "name": "subscriptionDuration",
          "type": "uint256"
        },
        {
          "internalType": "uint256",
          "name": "stakingDuration",
          "type": "uint256"
        },
        {
          "internalType": "uint256",
          "name": "profitPercent",
          "type": "uint256"
        },
        {
          "internalType": "uint256",
          "name": "totalStakesToken1No",
          "type": "uint256"
        },
        {
          "internalType": "uint256",
          "name": "totalStakesToken2No",
          "type": "uint256"
        },
        {
          "internalType": "uint256",
          "name": "totalStakedToken1",
          "type": "uint256"
        },
        {
          "internalType": "uint256",
          "name": "totalStakedToken2",
          "type": "uint256"
        },
        {
          "internalType": "uint256",
          "name": "totalClaimed",
          "type": "uint256"
        }
      ],
      "stateMutability": "view",
      "type": "function"
    },
    {
      "inputs": [
        {
          "internalType": "uint256",
          "name": "planId",
          "type": "uint256"
        }
      ],
      "name": "subscribe",
      "outputs": [],
      "stateMutability": "nonpayable",
      "type": "function"
    },
    {
      "inputs": [
        {
          "internalType": "bytes4",
          "name": "interfaceId",
          "type": "bytes4"
        }
      ],
      "name": "supportsInterface",
      "outputs": [
        {
          "internalType": "bool",
          "name": "",
          "type": "bool"
        }
      ],
      "stateMutability": "view",
      "type": "function"
    },
    {
      "inputs": [],
      "name": "token1",
      "outputs": [
        {
          "internalType": "contract ERC20Burnable",
          "name": "",
          "type": "address"
        }
      ],
      "stateMutability": "view",
      "type": "function"
    },
    {
      "inputs": [],
      "name": "token2",
      "outputs": [
        {
          "internalType": "contract ERC20Burnable",
          "name": "",
          "type": "address"
        }
      ],
      "stateMutability": "view",
      "type": "function"
    },
    {
      "inputs": [
        {
          "internalType": "uint256",
          "name": "minLimit_",
          "type": "uint256"
        }
      ],
      "name": "updateMinStakeLimit",
      "outputs": [],
      "stateMutability": "nonpayable",
      "type": "function"
    },
    {
      "inputs": [
        {
          "internalType": "uint256",
          "name": "divider_",
          "type": "uint256"
        }
      ],
      "name": "updatePercentDivider",
      "outputs": [],
      "stateMutability": "nonpayable",
      "type": "function"
    },
    {
      "inputs": [
        {
          "internalType": "uint256",
          "name": "planId",
          "type": "uint256"
        },
        {
          "internalType": "bool",
          "name": "isActive",
          "type": "bool"
        }
      ],
      "name": "updatePlanActivity",
      "outputs": [],
      "stateMutability": "nonpayable",
      "type": "function"
    },
    {
      "inputs": [
        {
          "internalType": "uint256",
          "name": "planId",
          "type": "uint256"
        },
        {
          "internalType": "uint256",
          "name": "duration",
          "type": "uint256"
        }
      ],
      "name": "updatePlanDurationDays",
      "outputs": [],
      "stateMutability": "nonpayable",
      "type": "function"
    },
    {
      "inputs": [
        {
          "internalType": "uint256",
          "name": "planId",
          "type": "uint256"
        },
        {
          "internalType": "uint256",
          "name": "percent",
          "type": "uint256"
        }
      ],
      "name": "updatePlanReward",
      "outputs": [],
      "stateMutability": "nonpayable",
      "type": "function"
    },
    {
      "inputs": [
        {
          "internalType": "uint256",
          "name": "planId",
          "type": "uint256"
        },
        {
          "internalType": "uint256",
          "name": "cost",
          "type": "uint256"
        }
      ],
      "name": "updatePlanSubscriptionCost",
      "outputs": [],
      "stateMutability": "nonpayable",
      "type": "function"
    },
    {
      "inputs": [
        {
          "internalType": "uint256",
          "name": "planId",
          "type": "uint256"
        },
        {
          "internalType": "uint256",
          "name": "subscriptionDuration",
          "type": "uint256"
        }
      ],
      "name": "updatePlanSubscriptionPeriod",
      "outputs": [],
      "stateMutability": "nonpayable",
      "type": "function"
    },
    {
      "inputs": [
        {
          "internalType": "address",
          "name": "referralManager_",
          "type": "address"
        }
      ],
      "name": "updateReferralManager",
      "outputs": [],
      "stateMutability": "nonpayable",
      "type": "function"
    },
    {
      "inputs": [
        {
          "internalType": "address",
          "name": "poolAddress_",
          "type": "address"
        }
      ],
      "name": "updateRewardPool",
      "outputs": [],
      "stateMutability": "nonpayable",
      "type": "function"
    },
    {
      "inputs": [
        {
          "internalType": "bool",
          "name": "value",
          "type": "bool"
        }
      ],
      "name": "updateShouldAddReferrerOnToken2Stake",
      "outputs": [],
      "stateMutability": "nonpayable",
      "type": "function"
    },
    {
      "inputs": [
        {
          "internalType": "address",
          "name": "squadsManager_",
          "type": "address"
        }
      ],
      "name": "updateSquadsManager",
      "outputs": [],
      "stateMutability": "nonpayable",
      "type": "function"
    },
    {
      "inputs": [
        {
          "internalType": "uint256",
          "name": "step_",
          "type": "uint256"
        }
      ],
      "name": "updateTimeStep",
      "outputs": [],
      "stateMutability": "nonpayable",
      "type": "function"
    },
    {
      "inputs": [
        {
          "internalType": "address",
          "name": "token1_",
          "type": "address"
        }
      ],
      "name": "updateToken1",
      "outputs": [],
      "stateMutability": "nonpayable",
      "type": "function"
    },
    {
      "inputs": [
        {
          "internalType": "address",
          "name": "token2_",
          "type": "address"
        }
      ],
      "name": "updateToken2",
      "outputs": [],
      "stateMutability": "nonpayable",
      "type": "function"
    },
    {
      "inputs": [
        {
          "internalType": "uint256",
          "name": "planId",
          "type": "uint256"
        },
        {
          "internalType": "uint256",
          "name": "stakeId",
          "type": "uint256"
        }
      ],
      "name": "withdraw",
      "outputs": [],
      "stateMutability": "nonpayable",
      "type": "function"
    }
  ],
  "transactionHash": "0x8e94fea6b13efddeb6365c2ad1d693b06bd93c585e54d29b13cfa05a8ce7f357",
  "args": [
    "0xb971Bbda8043267e8047372A29A5bfA8B78A2D04",
    "0xbaD18847048E47f58f90B049A3C2b5A308Fb0E66",
    "0xf982D706f37Cb781D567395877EC35eDCB7Cf65C",
    "0xea1A47a80382Be3D830a605e9F3Ab5c11FbdE91a",
    "0x0000000000000000000000000000000000000000"
  ],
  "numDeployments": 1,
  "solcInputHash": "f2978c3ef01f6829dbd6b0ed0bd08dd1",
  "bytecode": "0x60806040526103e86003556201518060045567016345785d8a00006005553480156200002a57600080fd5b5060405162002b8738038062002b878339810160408190526200004d91620001d8565b6001600160a01b0385166200006157600080fd5b6001600160a01b0384166200007557600080fd5b6001600160a01b0383166200008957600080fd5b6001600160a01b0382166200009d57600080fd5b620000aa6000336200011a565b600a80546001600160a01b03199081166001600160a01b039586161790915560068054610100600160a81b03191661010097861697909702969096179095556007805486169484169490941790935560088054851691831691909117905560098054909316911617905562000248565b6000828152602081815260408083206001600160a01b038516845290915290205460ff16620001b7576000828152602081815260408083206001600160a01b03851684529091529020805460ff19166001179055620001763390565b6001600160a01b0316816001600160a01b0316837f2f8788117e7eff1d82e926ec794901d17c78024a50270940304540a733656f0d60405160405180910390a45b5050565b80516001600160a01b0381168114620001d357600080fd5b919050565b600080600080600060a08688031215620001f157600080fd5b620001fc86620001bb565b94506200020c60208701620001bb565b93506200021c60408701620001bb565b92506200022c60608701620001bb565b91506200023c60808701620001bb565b90509295509295909350565b61292f80620002586000396000f3fe608060405234801561001057600080fd5b506004361061025e5760003560e01c80637c67b33911610146578063b652b28c116100c3578063d547741f11610087578063d547741f14610597578063d5fbac3a146105aa578063dce4b29b146105bd578063e2566173146105d0578063ed10dda3146105d9578063fcd0cad7146105ec57600080fd5b8063b652b28c14610533578063bac1d2b514610546578063c785215314610559578063cd69d3d91461056c578063d21220a71461057f57600080fd5b8063a217fddf1161010a578063a217fddf146104e5578063ae1f267c146104ed578063ae1fc32414610500578063afa8308514610513578063b3ea1e7c1461052057600080fd5b80637c67b339146104775780637cc1f8671461048a57806391d148541461049f57806395319e23146104b25780639fca9c22146104c557600080fd5b80632968f616116101df57806336568abe116101a357806336568abe146103b95780633fe90537146103cc578063441a3e70146103df578063458f3bb0146103f2578063717f900714610405578063762e7a341461041857600080fd5b80632968f616146103645780632ccd9623146103775780632f2ff15d1461038a5780632fe00f571461039d57806332bc298c146103b057600080fd5b806316c51a371161022657806316c51a37146102ea578063188ec356146102fd5780631c0e061214610303578063248a9ca31461031657806325be124e1461033957600080fd5b806301c234a81461026357806301ffc9a71461027f578063064e6780146102a25780630f574ba7146102b757806314ce783d146102ca575b600080fd5b61026c60035481565b6040519081526020015b60405180910390f35b61029261028d3660046123d3565b61062e565b6040519015158152602001610276565b6102b56102b0366004612412565b610665565b005b6102b56102c536600461242f565b610699565b6102dd6102d8366004612448565b6107fa565b6040516102769190612478565b6102b56102f83660046124fe565b6108c2565b4261026c565b6102b561031136600461253e565b610ba3565b61026c61032436600461242f565b60009081526020819052604090206001015490565b60075461034c906001600160a01b031681565b6040516001600160a01b039091168152602001610276565b6102b5610372366004612563565b610c1d565b60085461034c906001600160a01b031681565b6102b5610398366004612448565b6114c7565b6102b56103ab3660046125ad565b6114f1565b61026c60045481565b6102b56103c7366004612448565b61152a565b6102b56103da3660046125ad565b6115a8565b6102b56103ed3660046125ad565b6115e1565b61026c6104003660046125cf565b611876565b6102b561041336600461242f565b6118ca565b61042b61042636600461242f565b6118db565b604080519a15158b5260208b0199909952978901969096526060880194909452608087019290925260a086015260c085015260e084015261010083015261012082015261014001610276565b6102b5610485366004612412565b611943565b610492611971565b604051610276919061266f565b6102926104ad366004612448565b611a36565b6102b56104c03660046126be565b611a5f565b6104d86104d336600461242f565b611a7e565b60405161027691906126db565b61026c600081565b61026c6104fb3660046125ad565b611b74565b6102b561050e366004612412565b611bba565b6006546102929060ff1681565b6102b561052e36600461242f565b611be8565b610292610541366004612448565b611bf9565b6102b56105543660046125ad565b611c26565b6102b56105673660046125ad565b611c5f565b6102b561057a366004612412565b611c98565b60065461034c9061010090046001600160a01b031681565b6102b56105a5366004612448565b611cc6565b6102b56105b8366004612412565b611ceb565b6102b56105cb36600461242f565b611d19565b61026c60055481565b60095461034c906001600160a01b031681565b6105ff6105fa366004612448565b611d2a565b6040805196875260208701959095529385019290925260608401521515608083015260a082015260c001610276565b60006001600160e01b03198216637965db0b60e01b148061065f57506301ffc9a760e01b6001600160e01b03198316145b92915050565b600061067081611d87565b50600680546001600160a01b0390921661010002610100600160a81b0319909216919091179055565b6000600182815481106106ae576106ae6126ea565b60009182526020909120600a90910201805490915060ff166107175760405162461bcd60e51b815260206004820152601a60248201527f5374616b696e6720706c616e206973206e6f742061637469766500000000000060448201526064015b60405180910390fd5b60065461010090046001600160a01b03166379cc67903360018401546040516001600160e01b031960e085901b1681526001600160a01b0390921660048301526024820152604401600060405180830381600087803b15801561077957600080fd5b505af115801561078d573d6000803e3d6000fd5b5050505060045481600201546107a39190612716565b6107ad9042612735565b60008381526002602090815260408083203380855292528083206001019390935591518492917f4b90d6788928d63c1821907a6a8b95f40d26562d8fe41b105f7489db9966dfcb91a35050565b60008281526002602090815260408083206001600160a01b03851684528252808320805482518185028101850190935280835260609492939192909184015b828210156108b65760008481526020908190206040805160e08101825260068602909201805483526001808201548486015260028201549284019290925260038101546060840152600481015460808401526005015460ff808216151560a085015261010090910416151560c08301529083529092019101610839565b50505050905092915050565b60006108cd81611d87565b600083116109155760405162461bcd60e51b815260206004820152601560248201527424b739bab33334b1b4b2b73a10323ab930ba34b7b760591b604482015260640161070e565b600082116109655760405162461bcd60e51b815260206004820152601b60248201527f496e73756666696369656e742070726f6669742070657263656e740000000000604482015260640161070e565b60408051610140810182526001808252602082018881529282018781526060830187815260808401878152600060a0860181815260c0870182815260e0880183815261010089018481526101208a018581528954808b018b55958a90528a517fb10e2d527612073b26eecdfd717e6a320cf44b4afac2b0732d9fcbe2b7fa0cf6600a909702968701805460ff19169115159190911790559a517fb10e2d527612073b26eecdfd717e6a320cf44b4afac2b0732d9fcbe2b7fa0cf786015596517fb10e2d527612073b26eecdfd717e6a320cf44b4afac2b0732d9fcbe2b7fa0cf885015594517fb10e2d527612073b26eecdfd717e6a320cf44b4afac2b0732d9fcbe2b7fa0cf984015592517fb10e2d527612073b26eecdfd717e6a320cf44b4afac2b0732d9fcbe2b7fa0cfa830155517fb10e2d527612073b26eecdfd717e6a320cf44b4afac2b0732d9fcbe2b7fa0cfb82015590517fb10e2d527612073b26eecdfd717e6a320cf44b4afac2b0732d9fcbe2b7fa0cfc82015590517fb10e2d527612073b26eecdfd717e6a320cf44b4afac2b0732d9fcbe2b7fa0cfd82015590517fb10e2d527612073b26eecdfd717e6a320cf44b4afac2b0732d9fcbe2b7fa0cfe82015592517fb10e2d527612073b26eecdfd717e6a320cf44b4afac2b0732d9fcbe2b7fa0cff9093019290925581549091610b629161274d565b60408051868152602081018690527fb25951144c8a6e80eb675cb14ec779e73bd8f06dc10471b7074332d38cbf9af5910160405180910390a2505050505050565b6000610bae81611d87565b8160018481548110610bc257610bc26126ea565b6000918252602091829020600a90910201805460ff191692151592909217909155604051831515815284917fbfb8d33fd9f7cfe605f8368d0791b6bc475b77345c7c022bbe2aecf8c21ba243910160405180910390a2505050565b60018481548110610c3057610c306126ea565b60009182526020909120600a909102015460ff16610c905760405162461bcd60e51b815260206004820152601a60248201527f5374616b696e6720706c616e206973206e6f7420616374697665000000000000604482015260640161070e565b610c9a8433611bf9565b610cdf5760405162461bcd60e51b81526020600482015260166024820152752cb7ba9030b932903737ba1039bab139b1b934b132b960511b604482015260640161070e565b600554831015610d3d5760405162461bcd60e51b8152602060048201526024808201527f5374616b6520616d6f756e74206c657373207468616e206d696e696d756d2076604482015263616c756560e01b606482015260840161070e565b6001600160a01b038116331415610d965760405162461bcd60e51b815260206004820152601a60248201527f52656665727265722063616e206e6f742062652073656e646572000000000000604482015260640161070e565b6000610da28585611b74565b600654600a546040516370a0823160e01b81526001600160a01b03918216600482015292935061010090910416906370a0823190602401602060405180830381865afa158015610df6573d6000803e3d6000fd5b505050506040513d601f19601f82011682018060405250810190610e1a9190612764565b811115610e695760405162461bcd60e51b815260206004820152601c60248201527f4e6f7420656e6f75676820746f6b656e7320666f722072657761726400000000604482015260640161070e565b8215610ee6576007546001600160a01b03166379cc6790336040516001600160e01b031960e084901b1681526001600160a01b03909116600482015260248101879052604401600060405180830381600087803b158015610ec957600080fd5b505af1158015610edd573d6000803e3d6000fd5b50505050610f76565b60065461010090046001600160a01b03166323b872dd336040516001600160e01b031960e084901b1681526001600160a01b039091166004820152306024820152604481018790526064016020604051808303816000875af1158015610f50573d6000803e3d6000fd5b505050506040513d601f19601f82011682018060405250810190610f74919061277d565b505b600654600a546040516323b872dd60e01b81526001600160a01b0391821660048201523060248201526044810184905261010090920416906323b872dd906064016020604051808303816000875af1158015610fd6573d6000803e3d6000fd5b505050506040513d601f19601f82011682018060405250810190610ffa919061277d565b50600060018681548110611010576110106126ea565b60009182526020808320898452600290915260408320600a909202019250816110363390565b6001600160a01b03166001600160a01b03168152602001908152602001600020905060006040518060e001604052808881526020016110724290565b815260200160045485600301546110899190612716565b6110939042612735565b81526004808601546020808401919091526040808401899052600060608086018290528c158015608097880152895460018181018c558b85529386902089516006909202019081559488015192850192909255918601516002840155908501516003830155928401519181019190915560a08301516005909101805460c085015115156101000261ff00199315159390931661ffff1990911617919091179055909150611190578682600301600082825461114e9190612735565b92505081905550868360080160008282546111699190612735565b9250508190555060018360060160008282546111859190612735565b909155506111fc9050565b868260020160008282546111a49190612735565b92505081905550868260050160008282546111bf9190612735565b92505081905550868360070160008282546111da9190612735565b9250508190555060018360050160008282546111f69190612735565b90915550505b85158061120b575060065460ff165b15611459576008546000906001600160a01b03166336144c9a336040516001600160e01b031960e084901b1681526001600160a01b039091166004820152602401602060405180830381865afa158015611269573d6000803e3d6000fd5b505050506040513d601f19601f8201168201806040525081019061128d919061279a565b90506001600160a01b0381161580156112ae57506001600160a01b03861615155b156113a5576008546001600160a01b031663f8d0e6ec336040516001600160e01b031960e084901b1681526001600160a01b0391821660048201529089166024820152604401600060405180830381600087803b15801561130e57600080fd5b505af1158015611322573d6000803e3d6000fd5b50506008546001600160a01b031691506336144c9a9050336040516001600160e01b031960e084901b1681526001600160a01b039091166004820152602401602060405180830381865afa15801561137e573d6000803e3d6000fd5b505050506040513d601f19601f820116820180604052508101906113a2919061279a565b90505b6113b0893387611d94565b6009546001600160a01b031615611457576009546001600160a01b031663afea5d558a83336040516001600160e01b031960e086901b16815260048101939093526001600160a01b039182166024840152166044820152606481018b90526084016020604051808303816000875af192505050801561144c575060408051601f3d908101601f191682019092526114499181019061277d565b60015b61145557611457565b505b505b81546114679060019061274d565b815160808084015160c0850151604080519485526020850192909252151583820152426060840152518b9233927f42ca3e556bfff174f2df01f4d630ae56cd8a109430c8058a83541d2f8949f64f92918290030190a45050505050505050565b6000828152602081905260409020600101546114e281611d87565b6114ec838361204c565b505050565b60006114fc81611d87565b8160018481548110611510576115106126ea565b90600052602060002090600a020160040181905550505050565b6001600160a01b038116331461159a5760405162461bcd60e51b815260206004820152602f60248201527f416363657373436f6e74726f6c3a2063616e206f6e6c792072656e6f756e636560448201526e103937b632b9903337b91039b2b63360891b606482015260840161070e565b6115a482826120d0565b5050565b60006115b381611d87565b81600184815481106115c7576115c76126ea565b90600052602060002090600a020160010181905550505050565b6000600183815481106115f6576115f66126ea565b60009182526020808320868452600290915260408320600a9092020192508161161c3390565b6001600160a01b03166001600160a01b0316815260200190815260200160002090506000816000018481548110611655576116556126ea565b60009182526020909120600690910201600581015490915060ff16156116bd5760405162461bcd60e51b815260206004820152601860248201527f5374616b6520697320616c726561647920636c61696d65640000000000000000604482015260640161070e565b428160020154111561170a5760405162461bcd60e51b815260206004820152601660248201527514dd185ad9481a5cc81b9bdd081c9958591e481e595d60521b604482015260640161070e565b600061171582612135565b60058301805460ff191660011790556006549091506001600160a01b036101009091041663a9059cbb6117453390565b6040516001600160e01b031960e084901b1681526001600160a01b039091166004820152602481018490526044016020604051808303816000875af1158015611792573d6000803e3d6000fd5b505050506040513d601f19601f820116820180604052508101906117b6919061277d565b50808360040160008282546117cb9190612735565b92505081905550808460090160008282546117e69190612735565b90915550506005820154610100900460ff1661181857815460058401805460009061181290849061274d565b90915550505b60058201548590879033907f14346b96e636bce3fdf42a5ed73f91c82b085304530c1acdc09e1896fb4ccef9908590610100900460ff16426040805193845291151560208401529082015260600160405180910390a4505050505050565b60008381526002602090815260408083206001600160a01b0386168452909152812080546118c29190849081106118af576118af6126ea565b9060005260206000209060060201612135565b949350505050565b60006118d581611d87565b50600555565b600181815481106118eb57600080fd5b60009182526020909120600a9091020180546001820154600283015460038401546004850154600586015460068701546007880154600889015460099099015460ff909816995095979496939592949193909291908a565b600061194e81611d87565b50600880546001600160a01b0319166001600160a01b0392909216919091179055565b60606001805480602002602001604051908101604052809291908181526020016000905b82821015611a2d5760008481526020908190206040805161014081018252600a8602909201805460ff1615158352600180820154848601526002820154928401929092526003810154606084015260048101546080840152600581015460a0840152600681015460c0840152600781015460e08401526008810154610100840152600901546101208301529083529092019101611995565b50505050905090565b6000918252602082815260408084206001600160a01b0393909316845291905290205460ff1690565b6000611a6a81611d87565b506006805460ff1916911515919091179055565b611ad66040518061014001604052806000151581526020016000815260200160008152602001600081526020016000815260200160008152602001600081526020016000815260200160008152602001600081525090565b60018281548110611ae957611ae96126ea565b60009182526020918290206040805161014081018252600a909302909101805460ff16151583526001810154938301939093526002830154908201526003820154606082015260048201546080820152600582015460a0820152600682015460c0820152600782015460e0820152600882015461010082015260099091015461012082015292915050565b600060035460018481548110611b8c57611b8c6126ea565b90600052602060002090600a02016004015483611ba99190612716565b611bb391906127b7565b9392505050565b6000611bc581611d87565b50600780546001600160a01b0319166001600160a01b0392909216919091179055565b6000611bf381611d87565b50600355565b60009182526002602090815260408084206001600160a01b03939093168452919052902060010154421090565b6000611c3181611d87565b8160018481548110611c4557611c456126ea565b90600052602060002090600a020160030181905550505050565b6000611c6a81611d87565b8160018481548110611c7e57611c7e6126ea565b90600052602060002090600a020160020181905550505050565b6000611ca381611d87565b50600980546001600160a01b0319166001600160a01b0392909216919091179055565b600082815260208190526040902060010154611ce181611d87565b6114ec83836120d0565b6000611cf681611d87565b50600a80546001600160a01b0319166001600160a01b0392909216919091179055565b6000611d2481611d87565b50600455565b60008281526002602081815260408084206001600160a01b038616855290915282209081015460038201546004830154600584015492949193909291908190611d738989611bf9565b925080600101549150509295509295509295565b611d9181336121d3565b50565b6008546040805163070d451f60e01b815290516000926001600160a01b03169163070d451f9160048083019260209291908290030181865afa158015611dde573d6000803e3d6000fd5b505050506040513d601f19601f82011682018060405250810190611e029190612764565b90508260015b82811161204457600854604051631b0a264d60e11b81526001600160a01b03848116600483015260009216906336144c9a90602401602060405180830381865afa158015611e5a573d6000803e3d6000fd5b505050506040513d601f19601f82011682018060405250810190611e7e919061279a565b90506001600160a01b0381161561202b576008546040516303fea6cb60e11b81526001600160a01b03838116600483015260248201859052909116906307fd4d9690604401602060405180830381865afa158015611ee0573d6000803e3d6000fd5b505050506040513d601f19601f82011682018060405250810190611f04919061277d565b15612023576008546040516384197dbb60e01b815260048101879052602481018490526000916001600160a01b0316906384197dbb90604401602060405180830381865afa158015611f5a573d6000803e3d6000fd5b505050506040513d601f19601f82011682018060405250810190611f7e9190612764565b60008981526002602090815260408083206001600160a01b038716845290915281206005015491925081831115611fb55781611fb7565b825b600854604051633fb55c6160e01b81526001600160a01b03878116600483015260248201849052929350911690633fb55c6190604401600060405180830381600087803b15801561200757600080fd5b505af115801561201b573d6000803e3d6000fd5b505050505050505b809250612031565b50612044565b508061203c816127d9565b915050611e08565b505050505050565b6120568282611a36565b6115a4576000828152602081815260408083206001600160a01b03851684529091529020805460ff1916600117905561208c3390565b6001600160a01b0316816001600160a01b0316837f2f8788117e7eff1d82e926ec794901d17c78024a50270940304540a733656f0d60405160405180910390a45050565b6120da8282611a36565b156115a4576000828152602081815260408083206001600160a01b0385168085529252808320805460ff1916905551339285917ff6391f5c32d9c69d2a47ea670b442974b53935d1edc7fd64eb21e047a839171b9190a45050565b600081600101546000148061214e5750600582015460ff165b1561215b57506000919050565b6005820154600090610100900460ff1661218557600483015483546121809190612735565b61218b565b82600401545b90504283600201541161219e5792915050565b826001015483600201546121b2919061274d565b8184600101546121bf4290565b6121c9919061274d565b611ba99190612716565b6121dd8282611a36565b6115a4576121f5816001600160a01b03166014612237565b612200836020612237565b604051602001612211929190612824565b60408051601f198184030181529082905262461bcd60e51b825261070e91600401612899565b60606000612246836002612716565b612251906002612735565b67ffffffffffffffff811115612269576122696128cc565b6040519080825280601f01601f191660200182016040528015612293576020820181803683370190505b509050600360fc1b816000815181106122ae576122ae6126ea565b60200101906001600160f81b031916908160001a905350600f60fb1b816001815181106122dd576122dd6126ea565b60200101906001600160f81b031916908160001a9053506000612301846002612716565b61230c906001612735565b90505b6001811115612384576f181899199a1a9b1b9c1cb0b131b232b360811b85600f1660108110612340576123406126ea565b1a60f81b828281518110612356576123566126ea565b60200101906001600160f81b031916908160001a90535060049490941c9361237d816128e2565b905061230f565b508315611bb35760405162461bcd60e51b815260206004820181905260248201527f537472696e67733a20686578206c656e67746820696e73756666696369656e74604482015260640161070e565b6000602082840312156123e557600080fd5b81356001600160e01b031981168114611bb357600080fd5b6001600160a01b0381168114611d9157600080fd5b60006020828403121561242457600080fd5b8135611bb3816123fd565b60006020828403121561244157600080fd5b5035919050565b6000806040838503121561245b57600080fd5b82359150602083013561246d816123fd565b809150509250929050565b602080825282518282018190526000919060409081850190868401855b828110156124f15781518051855286810151878601528581015186860152606080820151908601526080808201519086015260a08082015115159086015260c09081015115159085015260e09093019290850190600101612495565b5091979650505050505050565b6000806000806080858703121561251457600080fd5b5050823594602084013594506040840135936060013592509050565b8015158114611d9157600080fd5b6000806040838503121561255157600080fd5b82359150602083013561246d81612530565b6000806000806080858703121561257957600080fd5b8435935060208501359250604085013561259281612530565b915060608501356125a2816123fd565b939692955090935050565b600080604083850312156125c057600080fd5b50508035926020909101359150565b6000806000606084860312156125e457600080fd5b8335925060208401356125f6816123fd565b929592945050506040919091013590565b8051151582526020810151602083015260408101516040830152606081015160608301526080810151608083015260a081015160a083015260c081015160c083015260e081015160e08301526101008082015181840152506101208082015181840152505050565b6020808252825182820181905260009190848201906040850190845b818110156126b25761269e838551612607565b92840192610140929092019160010161268b565b50909695505050505050565b6000602082840312156126d057600080fd5b8135611bb381612530565b610140810161065f8284612607565b634e487b7160e01b600052603260045260246000fd5b634e487b7160e01b600052601160045260246000fd5b600081600019048311821515161561273057612730612700565b500290565b6000821982111561274857612748612700565b500190565b60008282101561275f5761275f612700565b500390565b60006020828403121561277657600080fd5b5051919050565b60006020828403121561278f57600080fd5b8151611bb381612530565b6000602082840312156127ac57600080fd5b8151611bb3816123fd565b6000826127d457634e487b7160e01b600052601260045260246000fd5b500490565b60006000198214156127ed576127ed612700565b5060010190565b60005b8381101561280f5781810151838201526020016127f7565b8381111561281e576000848401525b50505050565b7f416363657373436f6e74726f6c3a206163636f756e742000000000000000000081526000835161285c8160178501602088016127f4565b7001034b99036b4b9b9b4b733903937b6329607d1b601791840191820152835161288d8160288401602088016127f4565b01602801949350505050565b60208152600082518060208401526128b88160408501602087016127f4565b601f01601f19169190910160400192915050565b634e487b7160e01b600052604160045260246000fd5b6000816128f1576128f1612700565b50600019019056fea2646970667358221220d4482052087105e27cf1dfeb6df58e0bada7457a96df75b8e1eab64fcf67461064736f6c634300080b0033",
  "devdoc": {
    "kind": "dev",
    "methods": {
      "getRoleAdmin(bytes32)": {
        "details": "Returns the admin role that controls `role`. See {grantRole} and {revokeRole}. To change a role's admin, use {_setRoleAdmin}."
      },
      "grantRole(bytes32,address)": {
        "details": "Grants `role` to `account`. If `account` had not been already granted `role`, emits a {RoleGranted} event. Requirements: - the caller must have ``role``'s admin role. May emit a {RoleGranted} event."
      },
      "hasRole(bytes32,address)": {
        "details": "Returns `true` if `account` has been granted `role`."
      },
      "renounceRole(bytes32,address)": {
        "details": "Revokes `role` from the calling account. Roles are often managed via {grantRole} and {revokeRole}: this function's purpose is to provide a mechanism for accounts to lose their privileges if they are compromised (such as when a trusted device is misplaced). If the calling account had been revoked `role`, emits a {RoleRevoked} event. Requirements: - the caller must be `account`. May emit a {RoleRevoked} event."
      },
      "revokeRole(bytes32,address)": {
        "details": "Revokes `role` from `account`. If `account` had been granted `role`, emits a {RoleRevoked} event. Requirements: - the caller must have ``role``'s admin role. May emit a {RoleRevoked} event."
      },
      "supportsInterface(bytes4)": {
        "details": "See {IERC165-supportsInterface}."
      }
    },
    "version": 1
  },
  "userdoc": {
    "kind": "user",
    "methods": {},
    "version": 1
  },
  "storageLayout": {
    "storage": [
      {
        "astId": 178,
        "contract": "contracts/Staking.sol:Staking",
        "label": "_roles",
        "offset": 0,
        "slot": "0",
        "type": "t_mapping(t_bytes32,t_struct(RoleData)173_storage)"
      },
      {
        "astId": 8925,
        "contract": "contracts/Staking.sol:Staking",
        "label": "stakingPlans",
        "offset": 0,
        "slot": "1",
        "type": "t_array(t_struct(StakingPlan)11661_storage)dyn_storage"
      },
      {
        "astId": 8932,
        "contract": "contracts/Staking.sol:Staking",
        "label": "users",
        "offset": 0,
        "slot": "2",
        "type": "t_mapping(t_uint256,t_mapping(t_address,t_struct(Staker)11691_storage))"
      },
      {
        "astId": 8935,
        "contract": "contracts/Staking.sol:Staking",
        "label": "PERCENTS_DIVIDER",
        "offset": 0,
        "slot": "3",
        "type": "t_uint256"
      },
      {
        "astId": 8938,
        "contract": "contracts/Staking.sol:Staking",
        "label": "TIME_STEP",
        "offset": 0,
        "slot": "4",
        "type": "t_uint256"
      },
      {
        "astId": 8943,
        "contract": "contracts/Staking.sol:Staking",
        "label": "MIN_STAKE_LIMIT",
        "offset": 0,
        "slot": "5",
        "type": "t_uint256"
      },
      {
        "astId": 8945,
        "contract": "contracts/Staking.sol:Staking",
        "label": "shouldAddReferrerOnToken2Stake",
        "offset": 0,
        "slot": "6",
        "type": "t_bool"
      },
      {
        "astId": 8948,
        "contract": "contracts/Staking.sol:Staking",
        "label": "token1",
        "offset": 1,
        "slot": "6",
        "type": "t_contract(ERC20Burnable)3029"
      },
      {
        "astId": 8951,
        "contract": "contracts/Staking.sol:Staking",
        "label": "token2",
        "offset": 0,
        "slot": "7",
        "type": "t_contract(ERC20Burnable)3029"
      },
      {
        "astId": 8954,
        "contract": "contracts/Staking.sol:Staking",
        "label": "referralManager",
        "offset": 0,
        "slot": "8",
        "type": "t_contract(IReferralManager)11601"
      },
      {
        "astId": 8957,
        "contract": "contracts/Staking.sol:Staking",
        "label": "squadsManager",
        "offset": 0,
        "slot": "9",
        "type": "t_contract(ISquads)11638"
      },
      {
        "astId": 8959,
        "contract": "contracts/Staking.sol:Staking",
        "label": "rewardPool",
        "offset": 0,
        "slot": "10",
        "type": "t_address"
      }
    ],
    "types": {
      "t_address": {
        "encoding": "inplace",
        "label": "address",
        "numberOfBytes": "20"
      },
      "t_array(t_struct(Stake)11676_storage)dyn_storage": {
        "base": "t_struct(Stake)11676_storage",
        "encoding": "dynamic_array",
        "label": "struct IStaking.Stake[]",
        "numberOfBytes": "32"
      },
      "t_array(t_struct(StakingPlan)11661_storage)dyn_storage": {
        "base": "t_struct(StakingPlan)11661_storage",
        "encoding": "dynamic_array",
        "label": "struct IStaking.StakingPlan[]",
        "numberOfBytes": "32"
      },
      "t_bool": {
        "encoding": "inplace",
        "label": "bool",
        "numberOfBytes": "1"
      },
      "t_bytes32": {
        "encoding": "inplace",
        "label": "bytes32",
        "numberOfBytes": "32"
      },
      "t_contract(ERC20Burnable)3029": {
        "encoding": "inplace",
        "label": "contract ERC20Burnable",
        "numberOfBytes": "20"
      },
      "t_contract(IReferralManager)11601": {
        "encoding": "inplace",
        "label": "contract IReferralManager",
        "numberOfBytes": "20"
      },
      "t_contract(ISquads)11638": {
        "encoding": "inplace",
        "label": "contract ISquads",
        "numberOfBytes": "20"
      },
      "t_mapping(t_address,t_bool)": {
        "encoding": "mapping",
        "key": "t_address",
        "label": "mapping(address => bool)",
        "numberOfBytes": "32",
        "value": "t_bool"
      },
      "t_mapping(t_address,t_struct(Staker)11691_storage)": {
        "encoding": "mapping",
        "key": "t_address",
        "label": "mapping(address => struct IStaking.Staker)",
        "numberOfBytes": "32",
        "value": "t_struct(Staker)11691_storage"
      },
      "t_mapping(t_bytes32,t_struct(RoleData)173_storage)": {
        "encoding": "mapping",
        "key": "t_bytes32",
        "label": "mapping(bytes32 => struct AccessControl.RoleData)",
        "numberOfBytes": "32",
        "value": "t_struct(RoleData)173_storage"
      },
      "t_mapping(t_uint256,t_mapping(t_address,t_struct(Staker)11691_storage))": {
        "encoding": "mapping",
        "key": "t_uint256",
        "label": "mapping(uint256 => mapping(address => struct IStaking.Staker))",
        "numberOfBytes": "32",
        "value": "t_mapping(t_address,t_struct(Staker)11691_storage)"
      },
      "t_struct(RoleData)173_storage": {
        "encoding": "inplace",
        "label": "struct AccessControl.RoleData",
        "members": [
          {
            "astId": 170,
            "contract": "contracts/Staking.sol:Staking",
            "label": "members",
            "offset": 0,
            "slot": "0",
            "type": "t_mapping(t_address,t_bool)"
          },
          {
            "astId": 172,
            "contract": "contracts/Staking.sol:Staking",
            "label": "adminRole",
            "offset": 0,
            "slot": "1",
            "type": "t_bytes32"
          }
        ],
        "numberOfBytes": "64"
      },
      "t_struct(Stake)11676_storage": {
        "encoding": "inplace",
        "label": "struct IStaking.Stake",
        "members": [
          {
            "astId": 11663,
            "contract": "contracts/Staking.sol:Staking",
            "label": "amount",
            "offset": 0,
            "slot": "0",
            "type": "t_uint256"
          },
          {
            "astId": 11665,
            "contract": "contracts/Staking.sol:Staking",
            "label": "timeStart",
            "offset": 0,
            "slot": "1",
            "type": "t_uint256"
          },
          {
            "astId": 11667,
            "contract": "contracts/Staking.sol:Staking",
            "label": "timeEnd",
            "offset": 0,
            "slot": "2",
            "type": "t_uint256"
          },
          {
            "astId": 11669,
            "contract": "contracts/Staking.sol:Staking",
            "label": "profitPercent",
            "offset": 0,
            "slot": "3",
            "type": "t_uint256"
          },
          {
            "astId": 11671,
            "contract": "contracts/Staking.sol:Staking",
            "label": "profit",
            "offset": 0,
            "slot": "4",
            "type": "t_uint256"
          },
          {
            "astId": 11673,
            "contract": "contracts/Staking.sol:Staking",
            "label": "isClaimed",
            "offset": 0,
            "slot": "5",
            "type": "t_bool"
          },
          {
            "astId": 11675,
            "contract": "contracts/Staking.sol:Staking",
            "label": "isToken2",
            "offset": 1,
            "slot": "5",
            "type": "t_bool"
          }
        ],
        "numberOfBytes": "192"
      },
      "t_struct(Staker)11691_storage": {
        "encoding": "inplace",
        "label": "struct IStaking.Staker",
        "members": [
          {
            "astId": 11680,
            "contract": "contracts/Staking.sol:Staking",
            "label": "stakes",
            "offset": 0,
            "slot": "0",
            "type": "t_array(t_struct(Stake)11676_storage)dyn_storage"
          },
          {
            "astId": 11682,
            "contract": "contracts/Staking.sol:Staking",
            "label": "subscription",
            "offset": 0,
            "slot": "1",
            "type": "t_uint256"
          },
          {
            "astId": 11684,
            "contract": "contracts/Staking.sol:Staking",
            "label": "totalStakedToken1",
            "offset": 0,
            "slot": "2",
            "type": "t_uint256"
          },
          {
            "astId": 11686,
            "contract": "contracts/Staking.sol:Staking",
            "label": "totalStakedToken2",
            "offset": 0,
            "slot": "3",
            "type": "t_uint256"
          },
          {
            "astId": 11688,
            "contract": "contracts/Staking.sol:Staking",
            "label": "totalClaimed",
            "offset": 0,
            "slot": "4",
            "type": "t_uint256"
          },
          {
            "astId": 11690,
            "contract": "contracts/Staking.sol:Staking",
            "label": "currentToken1Staked",
            "offset": 0,
            "slot": "5",
            "type": "t_uint256"
          }
        ],
        "numberOfBytes": "192"
      },
      "t_struct(StakingPlan)11661_storage": {
        "encoding": "inplace",
        "label": "struct IStaking.StakingPlan",
        "members": [
          {
            "astId": 11642,
            "contract": "contracts/Staking.sol:Staking",
            "label": "isActive",
            "offset": 0,
            "slot": "0",
            "type": "t_bool"
          },
          {
            "astId": 11644,
            "contract": "contracts/Staking.sol:Staking",
            "label": "subscriptionCost",
            "offset": 0,
            "slot": "1",
            "type": "t_uint256"
          },
          {
            "astId": 11646,
            "contract": "contracts/Staking.sol:Staking",
            "label": "subscriptionDuration",
            "offset": 0,
            "slot": "2",
            "type": "t_uint256"
          },
          {
            "astId": 11648,
            "contract": "contracts/Staking.sol:Staking",
            "label": "stakingDuration",
            "offset": 0,
            "slot": "3",
            "type": "t_uint256"
          },
          {
            "astId": 11650,
            "contract": "contracts/Staking.sol:Staking",
            "label": "profitPercent",
            "offset": 0,
            "slot": "4",
            "type": "t_uint256"
          },
          {
            "astId": 11652,
            "contract": "contracts/Staking.sol:Staking",
            "label": "totalStakesToken1No",
            "offset": 0,
            "slot": "5",
            "type": "t_uint256"
          },
          {
            "astId": 11654,
            "contract": "contracts/Staking.sol:Staking",
            "label": "totalStakesToken2No",
            "offset": 0,
            "slot": "6",
            "type": "t_uint256"
          },
          {
            "astId": 11656,
            "contract": "contracts/Staking.sol:Staking",
            "label": "totalStakedToken1",
            "offset": 0,
            "slot": "7",
            "type": "t_uint256"
          },
          {
            "astId": 11658,
            "contract": "contracts/Staking.sol:Staking",
            "label": "totalStakedToken2",
            "offset": 0,
            "slot": "8",
            "type": "t_uint256"
          },
          {
            "astId": 11660,
            "contract": "contracts/Staking.sol:Staking",
            "label": "totalClaimed",
            "offset": 0,
            "slot": "9",
            "type": "t_uint256"
          }
        ],
        "numberOfBytes": "320"
      },
      "t_uint256": {
        "encoding": "inplace",
        "label": "uint256",
        "numberOfBytes": "32"
      }
    }
  }
}