{
  "address": "0x29549BF22Db03E804552215C6Fa7640f3F538aCE",
  "abi": [
    {
      "inputs": [
        {
          "internalType": "address",
          "name": "token1_",
          "type": "address"
        },
        {
          "internalType": "address",
          "name": "token2_",
          "type": "address"
        },
        {
          "internalType": "address",
          "name": "rewardPool_",
          "type": "address"
        },
        {
          "internalType": "address",
          "name": "referralManager_",
          "type": "address"
        },
        {
          "internalType": "address",
          "name": "squadsManager_",
          "type": "address"
        },
        {
          "internalType": "uint256",
          "name": "durationDays_",
          "type": "uint256"
        },
        {
          "internalType": "uint256",
          "name": "rewardPercent_",
          "type": "uint256"
        },
        {
          "internalType": "uint256",
          "name": "subscriptionCost_",
          "type": "uint256"
        },
        {
          "internalType": "uint256",
          "name": "subscriptionPeriodDays_",
          "type": "uint256"
        }
      ],
      "stateMutability": "nonpayable",
      "type": "constructor"
    },
    {
      "anonymous": false,
      "inputs": [
        {
          "indexed": false,
          "internalType": "bool",
          "name": "isActive",
          "type": "bool"
        },
        {
          "indexed": false,
          "internalType": "address",
          "name": "admin",
          "type": "address"
        }
      ],
      "name": "ActivityChanged",
      "type": "event"
    },
    {
      "anonymous": false,
      "inputs": [
        {
          "indexed": true,
          "internalType": "address",
          "name": "user",
          "type": "address"
        },
        {
          "indexed": true,
          "internalType": "uint256",
          "name": "stakeIndex",
          "type": "uint256"
        },
        {
          "indexed": false,
          "internalType": "uint256",
          "name": "amount",
          "type": "uint256"
        },
        {
          "indexed": false,
          "internalType": "bool",
          "name": "isToken2",
          "type": "bool"
        },
        {
          "indexed": true,
          "internalType": "uint256",
          "name": "timestamp",
          "type": "uint256"
        }
      ],
      "name": "Claimed",
      "type": "event"
    },
    {
      "anonymous": false,
      "inputs": [
        {
          "indexed": true,
          "internalType": "bytes32",
          "name": "role",
          "type": "bytes32"
        },
        {
          "indexed": true,
          "internalType": "bytes32",
          "name": "previousAdminRole",
          "type": "bytes32"
        },
        {
          "indexed": true,
          "internalType": "bytes32",
          "name": "newAdminRole",
          "type": "bytes32"
        }
      ],
      "name": "RoleAdminChanged",
      "type": "event"
    },
    {
      "anonymous": false,
      "inputs": [
        {
          "indexed": true,
          "internalType": "bytes32",
          "name": "role",
          "type": "bytes32"
        },
        {
          "indexed": true,
          "internalType": "address",
          "name": "account",
          "type": "address"
        },
        {
          "indexed": true,
          "internalType": "address",
          "name": "sender",
          "type": "address"
        }
      ],
      "name": "RoleGranted",
      "type": "event"
    },
    {
      "anonymous": false,
      "inputs": [
        {
          "indexed": true,
          "internalType": "bytes32",
          "name": "role",
          "type": "bytes32"
        },
        {
          "indexed": true,
          "internalType": "address",
          "name": "account",
          "type": "address"
        },
        {
          "indexed": true,
          "internalType": "address",
          "name": "sender",
          "type": "address"
        }
      ],
      "name": "RoleRevoked",
      "type": "event"
    },
    {
      "anonymous": false,
      "inputs": [
        {
          "indexed": true,
          "internalType": "address",
          "name": "user",
          "type": "address"
        },
        {
          "indexed": true,
          "internalType": "uint256",
          "name": "stakeIndex",
          "type": "uint256"
        },
        {
          "indexed": false,
          "internalType": "uint256",
          "name": "amount",
          "type": "uint256"
        },
        {
          "indexed": false,
          "internalType": "uint256",
          "name": "profit",
          "type": "uint256"
        },
        {
          "indexed": false,
          "internalType": "bool",
          "name": "isToken2",
          "type": "bool"
        },
        {
          "indexed": true,
          "internalType": "uint256",
          "name": "timestamp",
          "type": "uint256"
        }
      ],
      "name": "Staked",
      "type": "event"
    },
    {
      "inputs": [],
      "name": "DEFAULT_ADMIN_ROLE",
      "outputs": [
        {
          "internalType": "bytes32",
          "name": "",
          "type": "bytes32"
        }
      ],
      "stateMutability": "view",
      "type": "function"
    },
    {
      "inputs": [],
      "name": "MIN_STAKE_LIMIT",
      "outputs": [
        {
          "internalType": "uint256",
          "name": "",
          "type": "uint256"
        }
      ],
      "stateMutability": "view",
      "type": "function"
    },
    {
      "inputs": [],
      "name": "PERCENTS_DIVIDER",
      "outputs": [
        {
          "internalType": "uint256",
          "name": "",
          "type": "uint256"
        }
      ],
      "stateMutability": "view",
      "type": "function"
    },
    {
      "inputs": [],
      "name": "TIME_STEP",
      "outputs": [
        {
          "internalType": "uint256",
          "name": "",
          "type": "uint256"
        }
      ],
      "stateMutability": "view",
      "type": "function"
    },
    {
      "inputs": [
        {
          "internalType": "uint256",
          "name": "amount_",
          "type": "uint256"
        }
      ],
      "name": "calculateStakeProfit",
      "outputs": [
        {
          "internalType": "uint256",
          "name": "",
          "type": "uint256"
        }
      ],
      "stateMutability": "view",
      "type": "function"
    },
    {
      "inputs": [
        {
          "internalType": "address",
          "name": "userAddr_",
          "type": "address"
        },
        {
          "internalType": "uint256",
          "name": "stakeId_",
          "type": "uint256"
        }
      ],
      "name": "calculateStakeReward",
      "outputs": [
        {
          "internalType": "uint256",
          "name": "",
          "type": "uint256"
        }
      ],
      "stateMutability": "view",
      "type": "function"
    },
    {
      "inputs": [
        {
          "internalType": "uint256",
          "name": "depositAmount_",
          "type": "uint256"
        },
        {
          "internalType": "bool",
          "name": "isToken2_",
          "type": "bool"
        },
        {
          "internalType": "address",
          "name": "referrer",
          "type": "address"
        }
      ],
      "name": "deposit",
      "outputs": [],
      "stateMutability": "nonpayable",
      "type": "function"
    },
    {
      "inputs": [],
      "name": "durationDays",
      "outputs": [
        {
          "internalType": "uint256",
          "name": "",
          "type": "uint256"
        }
      ],
      "stateMutability": "view",
      "type": "function"
    },
    {
      "inputs": [],
      "name": "getContractInfo",
      "outputs": [
        {
          "internalType": "uint256",
          "name": "_durationDays",
          "type": "uint256"
        },
        {
          "internalType": "uint256",
          "name": "_reward",
          "type": "uint256"
        },
        {
          "internalType": "bool",
          "name": "_isActive",
          "type": "bool"
        },
        {
          "internalType": "uint256",
          "name": "_totalStakesToken1No",
          "type": "uint256"
        },
        {
          "internalType": "uint256",
          "name": "_totalStakesToken2No",
          "type": "uint256"
        },
        {
          "internalType": "uint256",
          "name": "_totalStakedToken1",
          "type": "uint256"
        },
        {
          "internalType": "uint256",
          "name": "_totalStakedToken2",
          "type": "uint256"
        },
        {
          "internalType": "uint256",
          "name": "_totalClaimed",
          "type": "uint256"
        },
        {
          "internalType": "uint256",
          "name": "_subscriptionCost",
          "type": "uint256"
        },
        {
          "internalType": "uint256",
          "name": "_subscriptionPeriodDays",
          "type": "uint256"
        }
      ],
      "stateMutability": "view",
      "type": "function"
    },
    {
      "inputs": [
        {
          "internalType": "bytes32",
          "name": "role",
          "type": "bytes32"
        }
      ],
      "name": "getRoleAdmin",
      "outputs": [
        {
          "internalType": "bytes32",
          "name": "",
          "type": "bytes32"
        }
      ],
      "stateMutability": "view",
      "type": "function"
    },
    {
      "inputs": [],
      "name": "getTimestamp",
      "outputs": [
        {
          "internalType": "uint256",
          "name": "",
          "type": "uint256"
        }
      ],
      "stateMutability": "view",
      "type": "function"
    },
    {
      "inputs": [
        {
          "internalType": "address",
          "name": "userAddr_",
          "type": "address"
        }
      ],
      "name": "getUserInfo",
      "outputs": [
        {
          "internalType": "uint256",
          "name": "_totalStakedToken1",
          "type": "uint256"
        },
        {
          "internalType": "uint256",
          "name": "_totalStakedToken2",
          "type": "uint256"
        },
        {
          "internalType": "uint256",
          "name": "_totalClaimed",
          "type": "uint256"
        },
        {
          "internalType": "uint256",
          "name": "_currentToken1Staked",
          "type": "uint256"
        },
        {
          "internalType": "bool",
          "name": "_subscribed",
          "type": "bool"
        },
        {
          "internalType": "uint256",
          "name": "_subscribedTill",
          "type": "uint256"
        }
      ],
      "stateMutability": "view",
      "type": "function"
    },
    {
      "inputs": [
        {
          "internalType": "address",
          "name": "userAddr_",
          "type": "address"
        }
      ],
      "name": "getUserStakes",
      "outputs": [
        {
          "components": [
            {
              "internalType": "uint256",
              "name": "stakeId",
              "type": "uint256"
            },
            {
              "internalType": "uint256",
              "name": "amount",
              "type": "uint256"
            },
            {
              "internalType": "uint256",
              "name": "timeStart",
              "type": "uint256"
            },
            {
              "internalType": "uint256",
              "name": "timeEnd",
              "type": "uint256"
            },
            {
              "internalType": "uint256",
              "name": "percent",
              "type": "uint256"
            },
            {
              "internalType": "uint256",
              "name": "profit",
              "type": "uint256"
            },
            {
              "internalType": "bool",
              "name": "isClaimed",
              "type": "bool"
            },
            {
              "internalType": "bool",
              "name": "isToken2",
              "type": "bool"
            }
          ],
          "internalType": "struct IStaking.Stake[]",
          "name": "stakes",
          "type": "tuple[]"
        }
      ],
      "stateMutability": "view",
      "type": "function"
    },
    {
      "inputs": [
        {
          "internalType": "bytes32",
          "name": "role",
          "type": "bytes32"
        },
        {
          "internalType": "address",
          "name": "account",
          "type": "address"
        }
      ],
      "name": "grantRole",
      "outputs": [],
      "stateMutability": "nonpayable",
      "type": "function"
    },
    {
      "inputs": [
        {
          "internalType": "bytes32",
          "name": "role",
          "type": "bytes32"
        },
        {
          "internalType": "address",
          "name": "account",
          "type": "address"
        }
      ],
      "name": "hasRole",
      "outputs": [
        {
          "internalType": "bool",
          "name": "",
          "type": "bool"
        }
      ],
      "stateMutability": "view",
      "type": "function"
    },
    {
      "inputs": [],
      "name": "isActive",
      "outputs": [
        {
          "internalType": "bool",
          "name": "",
          "type": "bool"
        }
      ],
      "stateMutability": "view",
      "type": "function"
    },
    {
      "inputs": [],
      "name": "isSubscriber",
      "outputs": [
        {
          "internalType": "bool",
          "name": "",
          "type": "bool"
        }
      ],
      "stateMutability": "view",
      "type": "function"
    },
    {
      "inputs": [
        {
          "internalType": "address",
          "name": "addr_",
          "type": "address"
        }
      ],
      "name": "isSubscriber",
      "outputs": [
        {
          "internalType": "bool",
          "name": "",
          "type": "bool"
        }
      ],
      "stateMutability": "view",
      "type": "function"
    },
    {
      "inputs": [
        {
          "internalType": "uint256",
          "name": "a",
          "type": "uint256"
        },
        {
          "internalType": "uint256",
          "name": "b",
          "type": "uint256"
        }
      ],
      "name": "min",
      "outputs": [
        {
          "internalType": "uint256",
          "name": "",
          "type": "uint256"
        }
      ],
      "stateMutability": "pure",
      "type": "function"
    },
    {
      "inputs": [],
      "name": "referralManager",
      "outputs": [
        {
          "internalType": "contract IReferralManager",
          "name": "",
          "type": "address"
        }
      ],
      "stateMutability": "view",
      "type": "function"
    },
    {
      "inputs": [
        {
          "internalType": "bytes32",
          "name": "role",
          "type": "bytes32"
        },
        {
          "internalType": "address",
          "name": "account",
          "type": "address"
        }
      ],
      "name": "renounceRole",
      "outputs": [],
      "stateMutability": "nonpayable",
      "type": "function"
    },
    {
      "inputs": [
        {
          "internalType": "bytes32",
          "name": "role",
          "type": "bytes32"
        },
        {
          "internalType": "address",
          "name": "account",
          "type": "address"
        }
      ],
      "name": "revokeRole",
      "outputs": [],
      "stateMutability": "nonpayable",
      "type": "function"
    },
    {
      "inputs": [],
      "name": "reward",
      "outputs": [
        {
          "internalType": "uint256",
          "name": "",
          "type": "uint256"
        }
      ],
      "stateMutability": "view",
      "type": "function"
    },
    {
      "inputs": [
        {
          "internalType": "bool",
          "name": "value_",
          "type": "bool"
        }
      ],
      "name": "setActive",
      "outputs": [],
      "stateMutability": "nonpayable",
      "type": "function"
    },
    {
      "inputs": [],
      "name": "shouldAddReferrerOnToken2Stake",
      "outputs": [
        {
          "internalType": "bool",
          "name": "",
          "type": "bool"
        }
      ],
      "stateMutability": "view",
      "type": "function"
    },
    {
      "inputs": [],
      "name": "squadsManager",
      "outputs": [
        {
          "internalType": "contract ISquads",
          "name": "",
          "type": "address"
        }
      ],
      "stateMutability": "view",
      "type": "function"
    },
    {
      "inputs": [],
      "name": "subscribe",
      "outputs": [],
      "stateMutability": "nonpayable",
      "type": "function"
    },
    {
      "inputs": [],
      "name": "subscriptionCost",
      "outputs": [
        {
          "internalType": "uint256",
          "name": "",
          "type": "uint256"
        }
      ],
      "stateMutability": "view",
      "type": "function"
    },
    {
      "inputs": [],
      "name": "subscriptionPeriodDays",
      "outputs": [
        {
          "internalType": "uint256",
          "name": "",
          "type": "uint256"
        }
      ],
      "stateMutability": "view",
      "type": "function"
    },
    {
      "inputs": [],
      "name": "subscriptionToken",
      "outputs": [
        {
          "internalType": "contract Token1",
          "name": "",
          "type": "address"
        }
      ],
      "stateMutability": "view",
      "type": "function"
    },
    {
      "inputs": [
        {
          "internalType": "bytes4",
          "name": "interfaceId",
          "type": "bytes4"
        }
      ],
      "name": "supportsInterface",
      "outputs": [
        {
          "internalType": "bool",
          "name": "",
          "type": "bool"
        }
      ],
      "stateMutability": "view",
      "type": "function"
    },
    {
      "inputs": [],
      "name": "token1",
      "outputs": [
        {
          "internalType": "contract IERC20",
          "name": "",
          "type": "address"
        }
      ],
      "stateMutability": "view",
      "type": "function"
    },
    {
      "inputs": [],
      "name": "token2",
      "outputs": [
        {
          "internalType": "contract ERC20Burnable",
          "name": "",
          "type": "address"
        }
      ],
      "stateMutability": "view",
      "type": "function"
    },
    {
      "inputs": [],
      "name": "totalClaimed",
      "outputs": [
        {
          "internalType": "uint256",
          "name": "",
          "type": "uint256"
        }
      ],
      "stateMutability": "view",
      "type": "function"
    },
    {
      "inputs": [],
      "name": "totalStakedToken1",
      "outputs": [
        {
          "internalType": "uint256",
          "name": "",
          "type": "uint256"
        }
      ],
      "stateMutability": "view",
      "type": "function"
    },
    {
      "inputs": [],
      "name": "totalStakedToken2",
      "outputs": [
        {
          "internalType": "uint256",
          "name": "",
          "type": "uint256"
        }
      ],
      "stateMutability": "view",
      "type": "function"
    },
    {
      "inputs": [],
      "name": "totalStakesToken1No",
      "outputs": [
        {
          "internalType": "uint256",
          "name": "",
          "type": "uint256"
        }
      ],
      "stateMutability": "view",
      "type": "function"
    },
    {
      "inputs": [],
      "name": "totalStakesToken2No",
      "outputs": [
        {
          "internalType": "uint256",
          "name": "",
          "type": "uint256"
        }
      ],
      "stateMutability": "view",
      "type": "function"
    },
    {
      "inputs": [
        {
          "internalType": "uint256",
          "name": "duration_",
          "type": "uint256"
        }
      ],
      "name": "updateDurationDays",
      "outputs": [],
      "stateMutability": "nonpayable",
      "type": "function"
    },
    {
      "inputs": [
        {
          "internalType": "uint256",
          "name": "minLimit_",
          "type": "uint256"
        }
      ],
      "name": "updateMinStakeLimit",
      "outputs": [],
      "stateMutability": "nonpayable",
      "type": "function"
    },
    {
      "inputs": [
        {
          "internalType": "uint256",
          "name": "divider_",
          "type": "uint256"
        }
      ],
      "name": "updatePercentDivider",
      "outputs": [],
      "stateMutability": "nonpayable",
      "type": "function"
    },
    {
      "inputs": [
        {
          "internalType": "address",
          "name": "referralManager_",
          "type": "address"
        }
      ],
      "name": "updateReferralManager",
      "outputs": [],
      "stateMutability": "nonpayable",
      "type": "function"
    },
    {
      "inputs": [
        {
          "internalType": "uint256",
          "name": "newReward_",
          "type": "uint256"
        }
      ],
      "name": "updateReward",
      "outputs": [],
      "stateMutability": "nonpayable",
      "type": "function"
    },
    {
      "inputs": [
        {
          "internalType": "address",
          "name": "poolAddress_",
          "type": "address"
        }
      ],
      "name": "updateRewardPool",
      "outputs": [],
      "stateMutability": "nonpayable",
      "type": "function"
    },
    {
      "inputs": [
        {
          "internalType": "bool",
          "name": "value",
          "type": "bool"
        }
      ],
      "name": "updateShouldAddReferrerOnToken2Stake",
      "outputs": [],
      "stateMutability": "nonpayable",
      "type": "function"
    },
    {
      "inputs": [
        {
          "internalType": "address",
          "name": "squadsManager_",
          "type": "address"
        }
      ],
      "name": "updateSquadsManager",
      "outputs": [],
      "stateMutability": "nonpayable",
      "type": "function"
    },
    {
      "inputs": [
        {
          "internalType": "uint256",
          "name": "cost_",
          "type": "uint256"
        }
      ],
      "name": "updateSubscriptionCost",
      "outputs": [],
      "stateMutability": "nonpayable",
      "type": "function"
    },
    {
      "inputs": [
        {
          "internalType": "uint256",
          "name": "periodDays_",
          "type": "uint256"
        }
      ],
      "name": "updateSubscriptionPeriod",
      "outputs": [],
      "stateMutability": "nonpayable",
      "type": "function"
    },
    {
      "inputs": [
        {
          "internalType": "address",
          "name": "token_",
          "type": "address"
        }
      ],
      "name": "updateSubscriptionToken",
      "outputs": [],
      "stateMutability": "nonpayable",
      "type": "function"
    },
    {
      "inputs": [
        {
          "internalType": "uint256",
          "name": "step_",
          "type": "uint256"
        }
      ],
      "name": "updateTimeStep",
      "outputs": [],
      "stateMutability": "nonpayable",
      "type": "function"
    },
    {
      "inputs": [
        {
          "internalType": "address",
          "name": "token1_",
          "type": "address"
        }
      ],
      "name": "updateToken1",
      "outputs": [],
      "stateMutability": "nonpayable",
      "type": "function"
    },
    {
      "inputs": [
        {
          "internalType": "address",
          "name": "token2_",
          "type": "address"
        }
      ],
      "name": "updateToken2",
      "outputs": [],
      "stateMutability": "nonpayable",
      "type": "function"
    },
    {
      "inputs": [
        {
          "internalType": "uint256",
          "name": "stakeId_",
          "type": "uint256"
        }
      ],
      "name": "withdraw",
      "outputs": [],
      "stateMutability": "nonpayable",
      "type": "function"
    }
  ],
  "transactionHash": "0x6ebc3bfab12a71eb9c981e343dd22d7aa87bc1d9d3dbd601b9eca4fc82b9b945",
  "args": [
    "0xb971Bbda8043267e8047372A29A5bfA8B78A2D04",
    "0xbaD18847048E47f58f90B049A3C2b5A308Fb0E66",
    "0xf982D706f37Cb781D567395877EC35eDCB7Cf65C",
    "0x4C5d840E7742119278AdaBb63cdFca5099D7DAea",
    "0x0000000000000000000000000000000000000000",
    7,
    500,
    "15000000000000000000",
    365
  ],
  "numDeployments": 7,
  "solcInputHash": "03aed533e319a0a39f891012129b9a07",
  "bytecode": "0x60806040526103e86006556201518060075567016345785d8a00006008553480156200002a57600080fd5b5060405162002627380380620026278339810160408190526200004d9162000303565b88828260008211620000cc5760405162461bcd60e51b815260206004820152603860248201527f537562736372696261626c653a20737562736372697074696f6e20636f73742060448201527f73686f756c642062652067726561746572207468616e2030000000000000000060648201526084015b60405180910390fd5b60008111620001445760405162461bcd60e51b815260206004820152603a60248201527f537562736372696261626c653a20737562736372697074696f6e20706572696f60448201527f642073686f756c642062652067726561746572207468616e20300000000000006064820152608401620000c3565b600480546001600160a01b0319166001600160a01b0394851617905560019190915560025589166200017557600080fd5b6001600160a01b0388166200018957600080fd5b6001600160a01b0387166200019d57600080fd5b6001600160a01b038616620001b157600080fd5b60008411620001bf57600080fd5b60008311620001cd57600080fd5b620001da60003362000245565b5050600980546001600160a01b03199081166001600160a01b0397881617909155600a92909255600b5560128054821696851696909617909555601380548616948416949094179093556014805485169183169190911790556015805490931691161790556200039a565b6000828152602081815260408083206001600160a01b038516845290915290205460ff16620002e2576000828152602081815260408083206001600160a01b03851684529091529020805460ff19166001179055620002a13390565b6001600160a01b0316816001600160a01b0316837f2f8788117e7eff1d82e926ec794901d17c78024a50270940304540a733656f0d60405160405180910390a45b5050565b80516001600160a01b0381168114620002fe57600080fd5b919050565b60008060008060008060008060006101208a8c0312156200032357600080fd5b6200032e8a620002e6565b98506200033e60208b01620002e6565b97506200034e60408b01620002e6565b96506200035e60608b01620002e6565b95506200036e60808b01620002e6565b945060a08a0151935060c08a0151925060e08a015191506101008a015190509295985092959850929598565b61227d80620003aa6000396000f3fe608060405234801561001057600080fd5b50600436106103275760003560e01c80637cc1f867116101b8578063ae1fc32411610104578063d54ad2a1116100a2578063dce4b29b1161007c578063dce4b29b1461076e578063dfc8bb2314610781578063e256617314610794578063ed10dda31461079d57600080fd5b8063d54ad2a11461073f578063d5fbac3a14610748578063d6672e1c1461075b57600080fd5b8063c4804ef0116100de578063c4804ef0146106da578063cd69d3d914610706578063d21220a714610719578063d547741f1461072c57600080fd5b8063ae1fc324146106a2578063afa83085146106b5578063b3ea1e7c146106c757600080fd5b806391d14854116101715780639cd56d031161014b5780639cd56d031461066b578063a217fddf14610674578063a243d5ac1461067c578063acec338a1461068f57600080fd5b806391d148541461063c57806395319e231461064f5780639918d6ff1461066257600080fd5b80637cc1f8671461057d5780637dd39fa7146105ef57806380ed71e4146105f8578063842e29811461060b5780638f449a051461062b5780639163f95b1461063357600080fd5b80632f2ff15d1161027757806360391c9211610230578063717f90071161020a578063717f900714610531578063736560b5146105445780637ae2b5c7146105575780637c67b3391461056a57600080fd5b806360391c92146104885780636386c1c71461049b5780636f03ddf21461051e57600080fd5b80632f2ff15d1461043457806332bc298c1461044757806336568abe146104505780633efc639f14610463578063425c8abd1461046c5780635904112d1461047f57600080fd5b80631fcb4ee4116102e4578063248a9ca3116102be578063248a9ca3146103c057806325be124e146103e35780632ccd96231461040e5780632e1a7d4d1461042157600080fd5b80631fcb4ee4146103a2578063228cb733146103aa57806322f3e2d4146103b357600080fd5b806301c234a81461032c57806301ffc9a714610348578063064e67801461036b578063143ad15314610380578063188ec3561461038957806318e7b6ca1461038f575b600080fd5b61033560065481565b6040519081526020015b60405180910390f35b61035b610356366004611e47565b6107b0565b604051901515815260200161033f565b61037e610379366004611e86565b6107e7565b005b610335600f5481565b42610335565b61037e61039d366004611ea3565b610815565b61035b61082d565b610335600b5481565b600c5461035b9060ff1681565b6103356103ce366004611ea3565b60009081526020819052604090206001015490565b6013546103f6906001600160a01b031681565b6040516001600160a01b03909116815260200161033f565b6014546103f6906001600160a01b031681565b61037e61042f366004611ea3565b61083d565b61037e610442366004611ebc565b610abc565b61033560075481565b61037e61045e366004611ebc565b610ae6565b61033560025481565b61037e61047a366004611ea3565b610b60565b610335600d5481565b610335610496366004611eec565b610b71565b6104ef6104a9366004611e86565b6001600160a01b03166000908152600560209081526040808320600181015460028201546003808401546004909401549552929094205493949193909291428210159190565b6040805196875260208701959095529385019290925260608401521515608083015260a082015260c00161033f565b61037e61052c366004611ea3565b610bba565b61037e61053f366004611ea3565b610bcb565b61037e610552366004611ea3565b610bdc565b610335610565366004611f18565b610bf0565b61037e610578366004611e86565b610c07565b600a54600b54600c54600d54600e54600f54601054601154600154600254604080519a8b5260208b019990995260ff9097161515978901979097526060880194909452608087019290925260a086015260c085015260e08401526101008301919091526101208201526101400161033f565b61033560015481565b61037e610606366004611f48565b610c35565b61061e610619366004611e86565b611477565b60405161033f9190611f8a565b61037e611542565b61033560105481565b61035b61064a366004611ebc565b611598565b61037e61065d36600461201b565b6115c1565b610335600e5481565b610335600a5481565b610335600081565b61037e61068a366004611e86565b6115e7565b61037e61069d36600461201b565b611611565b61037e6106b0366004611e86565b611673565b600c5461035b90610100900460ff1681565b61037e6106d5366004611ea3565b6116a1565b61035b6106e8366004611e86565b6001600160a01b031660009081526003602052604090205442111590565b61037e610714366004611e86565b6116b2565b6012546103f6906001600160a01b031681565b61037e61073a366004611ebc565b6116e0565b61033560115481565b61037e610756366004611e86565b611705565b6004546103f6906001600160a01b031681565b61037e61077c366004611ea3565b611733565b61033561078f366004611ea3565b611744565b61033560085481565b6015546103f6906001600160a01b031681565b60006001600160e01b03198216637965db0b60e01b14806107e157506301ffc9a760e01b6001600160e01b03198316145b92915050565b60006107f281611761565b50601280546001600160a01b0319166001600160a01b0392909216919091179055565b600061082081611761565b61082982600155565b5050565b6000610838336106e8565b905090565b336000908152600560205260409020805482106108945760405162461bcd60e51b815260206004820152601060248201526f125b9d985b1a59081cdd185ad9481a5960821b60448201526064015b60405180910390fd5b60008160000183815481106108ab576108ab612038565b60009182526020909120600790910201600681015490915060ff16156109135760405162461bcd60e51b815260206004820152601860248201527f5374616b6520697320616c726561647920636c61696d65640000000000000000604482015260640161088b565b42816003015411156109605760405162461bcd60e51b815260206004820152601660248201527514dd185ad9481a5cc81b9bdd081c9958591e481e595d60521b604482015260640161088b565b600061096b8261176e565b60068301805460ff191660011790556012549091506001600160a01b031663a9059cbb6109953390565b6040516001600160e01b031960e084901b1681526001600160a01b039091166004820152602481018490526044016020604051808303816000875af11580156109e2573d6000803e3d6000fd5b505050506040513d601f19601f82011682018060405250810190610a06919061204e565b5080836003016000828254610a1b9190612081565b925050819055508060116000828254610a349190612081565b90915550506006820154610100900460ff16610a68578160010154836004016000828254610a629190612099565b90915550505b815460068301546040805184815261010090920460ff161515602083015242929133917ff699097e5f4ba680794c00e32cc2194a99d3054d5b0a65e54b6eebd3181328af910160405180910390a450505050565b600082815260208190526040902060010154610ad781611761565b610ae18383611813565b505050565b6001600160a01b0381163314610b565760405162461bcd60e51b815260206004820152602f60248201527f416363657373436f6e74726f6c3a2063616e206f6e6c792072656e6f756e636560448201526e103937b632b9903337b91039b2b63360891b606482015260840161088b565b6108298282611897565b6000610b6b81611761565b50600b55565b6001600160a01b03821660009081526005602052604081208054610bb3919084908110610ba057610ba0612038565b906000526020600020906007020161176e565b9392505050565b6000610bc581611761565b50600a55565b6000610bd681611761565b50600855565b6000610be781611761565b61082982600255565b600081831115610c005781610bb3565b5090919050565b6000610c1281611761565b50601480546001600160a01b0319166001600160a01b0392909216919091179055565b600c5460ff16610c805760405162461bcd60e51b8152602060048201526016602482015275436f6e7472616374206973206e6f742061637469766560501b604482015260640161088b565b610c89336106e8565b610ce15760405162461bcd60e51b8152602060048201526024808201527f537562736372696261626c653a20796f7520617265206e6f74207375627363726044820152631a58995960e21b606482015260840161088b565b6001600160a01b038116331415610d3a5760405162461bcd60e51b815260206004820152601a60248201527f52656665727265722063616e206e6f742062652073656e646572000000000000604482015260640161088b565b600854831015610d985760405162461bcd60e51b8152602060048201526024808201527f5374616b6520616d6f756e74206c657373207468616e206d696e696d756d2076604482015263616c756560e01b606482015260840161088b565b6000610da384611744565b6012546009546040516370a0823160e01b81526001600160a01b03918216600482015292935016906370a0823190602401602060405180830381865afa158015610df1573d6000803e3d6000fd5b505050506040513d601f19601f82011682018060405250810190610e1591906120b0565b811115610e645760405162461bcd60e51b815260206004820152601c60248201527f4e6f7420656e6f75676820746f6b656e7320666f722072657761726400000000604482015260640161088b565b8215610ee1576013546001600160a01b03166379cc6790336040516001600160e01b031960e084901b1681526001600160a01b03909116600482015260248101879052604401600060405180830381600087803b158015610ec457600080fd5b505af1158015610ed8573d6000803e3d6000fd5b50505050610f6c565b6012546001600160a01b03166323b872dd336040516001600160e01b031960e084901b1681526001600160a01b039091166004820152306024820152604481018790526064016020604051808303816000875af1158015610f46573d6000803e3d6000fd5b505050506040513d601f19601f82011682018060405250810190610f6a919061204e565b505b6012546009546040516323b872dd60e01b81526001600160a01b039182166004820152306024820152604481018490529116906323b872dd906064016020604051808303816000875af1158015610fc7573d6000803e3d6000fd5b505050506040513d601f19601f82011682018060405250810190610feb919061204e565b5033600090815260056020908152604080832080548251610100810184528181529384018990524292840192909252600754600a5491949293916060830191611033916120c9565b61103d9042612081565b8152600b546020808301919091526040808301889052600060608085018290528b158015608096870152895460018181018c558b8552938690208851600790920201908155948701519285019290925591850151600284015590840151600383015591830151600482015560a0830151600582015560c08301516006909101805460e085015115156101000261ff00199315159390931661ffff199091161791909117905590915061113557868360020160008282546110fd9190612081565b9250508190555086601060008282546111169190612081565b9091555050600e805490600061112b836120e8565b9190505550611198565b868360010160008282546111499190612081565b92505081905550868360040160008282546111649190612081565b9250508190555086600f600082825461117d9190612081565b9091555050600d8054906000611192836120e8565b91905055505b8515806111ac5750600c54610100900460ff165b15611406576014546000906001600160a01b03166336144c9a336040516001600160e01b031960e084901b1681526001600160a01b039091166004820152602401602060405180830381865afa15801561120a573d6000803e3d6000fd5b505050506040513d601f19601f8201168201806040525081019061122e9190612103565b90506001600160a01b03811615801561124f57506001600160a01b03861615155b15611346576014546001600160a01b031663f8d0e6ec336040516001600160e01b031960e084901b1681526001600160a01b0391821660048201529089166024820152604401600060405180830381600087803b1580156112af57600080fd5b505af11580156112c3573d6000803e3d6000fd5b50506014546001600160a01b031691506336144c9a9050336040516001600160e01b031960e084901b1681526001600160a01b039091166004820152602401602060405180830381865afa15801561131f573d6000803e3d6000fd5b505050506040513d601f19601f820116820180604052508101906113439190612103565b90505b61135033866118fc565b6015546001600160a01b03161580159061137257506001600160a01b03811615155b15611404576015546001600160a01b03166386bc287282336040516001600160e01b031960e085901b1681526001600160a01b03928316600482015291166024820152604481018b90526064016020604051808303816000875af11580156113de573d6000803e3d6000fd5b505050506040513d601f19601f82011682018060405250810190611402919061204e565b505b505b80514290336001600160a01b03167fe2bc599317152df44441d7033af34022736103301cd1276068addd8aa19b8b9d84602001518560a001518660e001516040516114669392919092835260208301919091521515604082015260600190565b60405180910390a450505050505050565b6001600160a01b0381166000908152600560209081526040808320805482518185028101850190935280835260609492939192909184015b828210156115375760008481526020908190206040805161010080820183526007870290930180548252600180820154838701526002820154938301939093526003810154606083015260048101546080830152600581015460a08301526006015460ff808216151560c0840152939004909216151560e083015290835290920191016114af565b505050509050919050565b600c5460ff1661158d5760405162461bcd60e51b8152602060048201526016602482015275436f6e7472616374206973206e6f742061637469766560501b604482015260640161088b565b61159633611ba4565b565b6000918252602082815260408084206001600160a01b0393909316845291905290205460ff1690565b60006115cc81611761565b50600c80549115156101000261ff0019909216919091179055565b60006115f281611761565b600480546001600160a01b0319166001600160a01b0384161790555050565b600061161c81611761565b600c805460ff19168315151790557f2df08ff8e8f68f3091085198803300a5b35e0b5f5b6d2d8ceda5dc49a91d10cb82336040805192151583526001600160a01b0390911660208301520160405180910390a15050565b600061167e81611761565b50601380546001600160a01b0319166001600160a01b0392909216919091179055565b60006116ac81611761565b50600655565b60006116bd81611761565b50601580546001600160a01b0319166001600160a01b0392909216919091179055565b6000828152602081905260409020600101546116fb81611761565b610ae18383611897565b600061171081611761565b50600980546001600160a01b0319166001600160a01b0392909216919091179055565b600061173e81611761565b50600755565b6000600654600b548361175791906120c9565b6107e19190612120565b61176b8133611c47565b50565b60008160020154600014806117875750600682015460ff165b1561179457506000919050565b6006820154600090610100900460ff166117c157826005015483600101546117bc9190612081565b6117c7565b82600501545b9050428360030154116117da5792915050565b826002015483600301546117ee9190612099565b818460020154426117ff9190612099565b61180991906120c9565b610bb39190612120565b61181d8282611598565b610829576000828152602081815260408083206001600160a01b03851684529091529020805460ff191660011790556118533390565b6001600160a01b0316816001600160a01b0316837f2f8788117e7eff1d82e926ec794901d17c78024a50270940304540a733656f0d60405160405180910390a45050565b6118a18282611598565b15610829576000828152602081815260408083206001600160a01b0385168085529252808320805460ff1916905551339285917ff6391f5c32d9c69d2a47ea670b442974b53935d1edc7fd64eb21e047a839171b9190a45050565b6014546040805163070d451f60e01b815290516000926001600160a01b03169163070d451f9160048083019260209291908290030181865afa158015611946573d6000803e3d6000fd5b505050506040513d601f19601f8201168201806040525081019061196a91906120b0565b90508260015b828111611b9d57601454604051631b0a264d60e11b81526001600160a01b03848116600483015260009216906336144c9a90602401602060405180830381865afa1580156119c2573d6000803e3d6000fd5b505050506040513d601f19601f820116820180604052508101906119e69190612103565b90506001600160a01b03811615611b84576014546040516303fea6cb60e11b81526001600160a01b03838116600483015260248201859052909116906307fd4d9690604401602060405180830381865afa158015611a48573d6000803e3d6000fd5b505050506040513d601f19601f82011682018060405250810190611a6c919061204e565b15611b7c576014546040516384197dbb60e01b815260048101879052602481018490526000916001600160a01b0316906384197dbb90604401602060405180830381865afa158015611ac2573d6000803e3d6000fd5b505050506040513d601f19601f82011682018060405250810190611ae691906120b0565b6001600160a01b03831660009081526005602052604081206004015491925090611b11908390610bf0565b601454604051633fb55c6160e01b81526001600160a01b03868116600483015260248201849052929350911690633fb55c6190604401600060405180830381600087803b158015611b6157600080fd5b505af1158015611b75573d6000803e3d6000fd5b5050505050505b809250611b8a565b50611b9d565b5080611b95816120e8565b915050611970565b5050505050565b6004805460015460405163079cc67960e41b81526001600160a01b038581169482019490945260248101919091529116906379cc679090604401600060405180830381600087803b158015611bf857600080fd5b505af1158015611c0c573d6000803e3d6000fd5b5050505060025462015180611c2191906120c9565b611c2b9042612081565b6001600160a01b03909116600090815260036020526040902055565b611c518282611598565b61082957611c69816001600160a01b03166014611cab565b611c74836020611cab565b604051602001611c85929190612172565b60408051601f198184030181529082905262461bcd60e51b825261088b916004016121e7565b60606000611cba8360026120c9565b611cc5906002612081565b67ffffffffffffffff811115611cdd57611cdd61221a565b6040519080825280601f01601f191660200182016040528015611d07576020820181803683370190505b509050600360fc1b81600081518110611d2257611d22612038565b60200101906001600160f81b031916908160001a905350600f60fb1b81600181518110611d5157611d51612038565b60200101906001600160f81b031916908160001a9053506000611d758460026120c9565b611d80906001612081565b90505b6001811115611df8576f181899199a1a9b1b9c1cb0b131b232b360811b85600f1660108110611db457611db4612038565b1a60f81b828281518110611dca57611dca612038565b60200101906001600160f81b031916908160001a90535060049490941c93611df181612230565b9050611d83565b508315610bb35760405162461bcd60e51b815260206004820181905260248201527f537472696e67733a20686578206c656e67746820696e73756666696369656e74604482015260640161088b565b600060208284031215611e5957600080fd5b81356001600160e01b031981168114610bb357600080fd5b6001600160a01b038116811461176b57600080fd5b600060208284031215611e9857600080fd5b8135610bb381611e71565b600060208284031215611eb557600080fd5b5035919050565b60008060408385031215611ecf57600080fd5b823591506020830135611ee181611e71565b809150509250929050565b60008060408385031215611eff57600080fd5b8235611f0a81611e71565b946020939093013593505050565b60008060408385031215611f2b57600080fd5b50508035926020909101359150565b801515811461176b57600080fd5b600080600060608486031215611f5d57600080fd5b833592506020840135611f6f81611f3a565b91506040840135611f7f81611e71565b809150509250925092565b602080825282518282018190526000919060409081850190868401855b8281101561200e5781518051855286810151878601528581015186860152606080820151908601526080808201519086015260a0808201519086015260c08082015115159086015260e0908101511515908501526101009093019290850190600101611fa7565b5091979650505050505050565b60006020828403121561202d57600080fd5b8135610bb381611f3a565b634e487b7160e01b600052603260045260246000fd5b60006020828403121561206057600080fd5b8151610bb381611f3a565b634e487b7160e01b600052601160045260246000fd5b600082198211156120945761209461206b565b500190565b6000828210156120ab576120ab61206b565b500390565b6000602082840312156120c257600080fd5b5051919050565b60008160001904831182151516156120e3576120e361206b565b500290565b60006000198214156120fc576120fc61206b565b5060010190565b60006020828403121561211557600080fd5b8151610bb381611e71565b60008261213d57634e487b7160e01b600052601260045260246000fd5b500490565b60005b8381101561215d578181015183820152602001612145565b8381111561216c576000848401525b50505050565b7f416363657373436f6e74726f6c3a206163636f756e74200000000000000000008152600083516121aa816017850160208801612142565b7001034b99036b4b9b9b4b733903937b6329607d1b60179184019182015283516121db816028840160208801612142565b01602801949350505050565b6020815260008251806020840152612206816040850160208701612142565b601f01601f19169190910160400192915050565b634e487b7160e01b600052604160045260246000fd5b60008161223f5761223f61206b565b50600019019056fea26469706673582212209fced5112f5faabab72c3d238e5aeb012924e1a668b94fe9f701a0872585ecde64736f6c634300080b0033",
  "devdoc": {
    "kind": "dev",
    "methods": {
      "getRoleAdmin(bytes32)": {
        "details": "Returns the admin role that controls `role`. See {grantRole} and {revokeRole}. To change a role's admin, use {_setRoleAdmin}."
      },
      "grantRole(bytes32,address)": {
        "details": "Grants `role` to `account`. If `account` had not been already granted `role`, emits a {RoleGranted} event. Requirements: - the caller must have ``role``'s admin role. May emit a {RoleGranted} event."
      },
      "hasRole(bytes32,address)": {
        "details": "Returns `true` if `account` has been granted `role`."
      },
      "renounceRole(bytes32,address)": {
        "details": "Revokes `role` from the calling account. Roles are often managed via {grantRole} and {revokeRole}: this function's purpose is to provide a mechanism for accounts to lose their privileges if they are compromised (such as when a trusted device is misplaced). If the calling account had been revoked `role`, emits a {RoleRevoked} event. Requirements: - the caller must be `account`. May emit a {RoleRevoked} event."
      },
      "revokeRole(bytes32,address)": {
        "details": "Revokes `role` from `account`. If `account` had been granted `role`, emits a {RoleRevoked} event. Requirements: - the caller must have ``role``'s admin role. May emit a {RoleRevoked} event."
      },
      "supportsInterface(bytes4)": {
        "details": "See {IERC165-supportsInterface}."
      }
    },
    "version": 1
  },
  "userdoc": {
    "kind": "user",
    "methods": {},
    "version": 1
  },
  "storageLayout": {
    "storage": [
      {
        "astId": 24,
        "contract": "contracts/Staking.sol:Staking",
        "label": "_roles",
        "offset": 0,
        "slot": "0",
        "type": "t_mapping(t_bytes32,t_struct(RoleData)19_storage)"
      },
      {
        "astId": 7864,
        "contract": "contracts/Staking.sol:Staking",
        "label": "subscriptionCost",
        "offset": 0,
        "slot": "1",
        "type": "t_uint256"
      },
      {
        "astId": 7866,
        "contract": "contracts/Staking.sol:Staking",
        "label": "subscriptionPeriodDays",
        "offset": 0,
        "slot": "2",
        "type": "t_uint256"
      },
      {
        "astId": 7870,
        "contract": "contracts/Staking.sol:Staking",
        "label": "_subscribers",
        "offset": 0,
        "slot": "3",
        "type": "t_mapping(t_address,t_uint256)"
      },
      {
        "astId": 7873,
        "contract": "contracts/Staking.sol:Staking",
        "label": "subscriptionToken",
        "offset": 0,
        "slot": "4",
        "type": "t_contract(Token1)8700"
      },
      {
        "astId": 5329,
        "contract": "contracts/Staking.sol:Staking",
        "label": "users",
        "offset": 0,
        "slot": "5",
        "type": "t_mapping(t_address,t_struct(User)8132_storage)"
      },
      {
        "astId": 5332,
        "contract": "contracts/Staking.sol:Staking",
        "label": "PERCENTS_DIVIDER",
        "offset": 0,
        "slot": "6",
        "type": "t_uint256"
      },
      {
        "astId": 5335,
        "contract": "contracts/Staking.sol:Staking",
        "label": "TIME_STEP",
        "offset": 0,
        "slot": "7",
        "type": "t_uint256"
      },
      {
        "astId": 5340,
        "contract": "contracts/Staking.sol:Staking",
        "label": "MIN_STAKE_LIMIT",
        "offset": 0,
        "slot": "8",
        "type": "t_uint256"
      },
      {
        "astId": 5342,
        "contract": "contracts/Staking.sol:Staking",
        "label": "_rewardPool",
        "offset": 0,
        "slot": "9",
        "type": "t_address"
      },
      {
        "astId": 5344,
        "contract": "contracts/Staking.sol:Staking",
        "label": "durationDays",
        "offset": 0,
        "slot": "10",
        "type": "t_uint256"
      },
      {
        "astId": 5346,
        "contract": "contracts/Staking.sol:Staking",
        "label": "reward",
        "offset": 0,
        "slot": "11",
        "type": "t_uint256"
      },
      {
        "astId": 5348,
        "contract": "contracts/Staking.sol:Staking",
        "label": "isActive",
        "offset": 0,
        "slot": "12",
        "type": "t_bool"
      },
      {
        "astId": 5350,
        "contract": "contracts/Staking.sol:Staking",
        "label": "shouldAddReferrerOnToken2Stake",
        "offset": 1,
        "slot": "12",
        "type": "t_bool"
      },
      {
        "astId": 5352,
        "contract": "contracts/Staking.sol:Staking",
        "label": "totalStakesToken1No",
        "offset": 0,
        "slot": "13",
        "type": "t_uint256"
      },
      {
        "astId": 5354,
        "contract": "contracts/Staking.sol:Staking",
        "label": "totalStakesToken2No",
        "offset": 0,
        "slot": "14",
        "type": "t_uint256"
      },
      {
        "astId": 5356,
        "contract": "contracts/Staking.sol:Staking",
        "label": "totalStakedToken1",
        "offset": 0,
        "slot": "15",
        "type": "t_uint256"
      },
      {
        "astId": 5358,
        "contract": "contracts/Staking.sol:Staking",
        "label": "totalStakedToken2",
        "offset": 0,
        "slot": "16",
        "type": "t_uint256"
      },
      {
        "astId": 5360,
        "contract": "contracts/Staking.sol:Staking",
        "label": "totalClaimed",
        "offset": 0,
        "slot": "17",
        "type": "t_uint256"
      },
      {
        "astId": 5363,
        "contract": "contracts/Staking.sol:Staking",
        "label": "token1",
        "offset": 0,
        "slot": "18",
        "type": "t_contract(IERC20)1204"
      },
      {
        "astId": 5366,
        "contract": "contracts/Staking.sol:Staking",
        "label": "token2",
        "offset": 0,
        "slot": "19",
        "type": "t_contract(ERC20Burnable)1248"
      },
      {
        "astId": 5369,
        "contract": "contracts/Staking.sol:Staking",
        "label": "referralManager",
        "offset": 0,
        "slot": "20",
        "type": "t_contract(IReferralManager)8065"
      },
      {
        "astId": 5372,
        "contract": "contracts/Staking.sol:Staking",
        "label": "squadsManager",
        "offset": 0,
        "slot": "21",
        "type": "t_contract(ISquads)8100"
      }
    ],
    "types": {
      "t_address": {
        "encoding": "inplace",
        "label": "address",
        "numberOfBytes": "20"
      },
      "t_array(t_struct(Stake)8119_storage)dyn_storage": {
        "base": "t_struct(Stake)8119_storage",
        "encoding": "dynamic_array",
        "label": "struct IStaking.Stake[]",
        "numberOfBytes": "32"
      },
      "t_bool": {
        "encoding": "inplace",
        "label": "bool",
        "numberOfBytes": "1"
      },
      "t_bytes32": {
        "encoding": "inplace",
        "label": "bytes32",
        "numberOfBytes": "32"
      },
      "t_contract(ERC20Burnable)1248": {
        "encoding": "inplace",
        "label": "contract ERC20Burnable",
        "numberOfBytes": "20"
      },
      "t_contract(IERC20)1204": {
        "encoding": "inplace",
        "label": "contract IERC20",
        "numberOfBytes": "20"
      },
      "t_contract(IReferralManager)8065": {
        "encoding": "inplace",
        "label": "contract IReferralManager",
        "numberOfBytes": "20"
      },
      "t_contract(ISquads)8100": {
        "encoding": "inplace",
        "label": "contract ISquads",
        "numberOfBytes": "20"
      },
      "t_contract(Token1)8700": {
        "encoding": "inplace",
        "label": "contract Token1",
        "numberOfBytes": "20"
      },
      "t_mapping(t_address,t_bool)": {
        "encoding": "mapping",
        "key": "t_address",
        "label": "mapping(address => bool)",
        "numberOfBytes": "32",
        "value": "t_bool"
      },
      "t_mapping(t_address,t_struct(User)8132_storage)": {
        "encoding": "mapping",
        "key": "t_address",
        "label": "mapping(address => struct IStaking.User)",
        "numberOfBytes": "32",
        "value": "t_struct(User)8132_storage"
      },
      "t_mapping(t_address,t_uint256)": {
        "encoding": "mapping",
        "key": "t_address",
        "label": "mapping(address => uint256)",
        "numberOfBytes": "32",
        "value": "t_uint256"
      },
      "t_mapping(t_bytes32,t_struct(RoleData)19_storage)": {
        "encoding": "mapping",
        "key": "t_bytes32",
        "label": "mapping(bytes32 => struct AccessControl.RoleData)",
        "numberOfBytes": "32",
        "value": "t_struct(RoleData)19_storage"
      },
      "t_struct(RoleData)19_storage": {
        "encoding": "inplace",
        "label": "struct AccessControl.RoleData",
        "members": [
          {
            "astId": 16,
            "contract": "contracts/Staking.sol:Staking",
            "label": "members",
            "offset": 0,
            "slot": "0",
            "type": "t_mapping(t_address,t_bool)"
          },
          {
            "astId": 18,
            "contract": "contracts/Staking.sol:Staking",
            "label": "adminRole",
            "offset": 0,
            "slot": "1",
            "type": "t_bytes32"
          }
        ],
        "numberOfBytes": "64"
      },
      "t_struct(Stake)8119_storage": {
        "encoding": "inplace",
        "label": "struct IStaking.Stake",
        "members": [
          {
            "astId": 8104,
            "contract": "contracts/Staking.sol:Staking",
            "label": "stakeId",
            "offset": 0,
            "slot": "0",
            "type": "t_uint256"
          },
          {
            "astId": 8106,
            "contract": "contracts/Staking.sol:Staking",
            "label": "amount",
            "offset": 0,
            "slot": "1",
            "type": "t_uint256"
          },
          {
            "astId": 8108,
            "contract": "contracts/Staking.sol:Staking",
            "label": "timeStart",
            "offset": 0,
            "slot": "2",
            "type": "t_uint256"
          },
          {
            "astId": 8110,
            "contract": "contracts/Staking.sol:Staking",
            "label": "timeEnd",
            "offset": 0,
            "slot": "3",
            "type": "t_uint256"
          },
          {
            "astId": 8112,
            "contract": "contracts/Staking.sol:Staking",
            "label": "percent",
            "offset": 0,
            "slot": "4",
            "type": "t_uint256"
          },
          {
            "astId": 8114,
            "contract": "contracts/Staking.sol:Staking",
            "label": "profit",
            "offset": 0,
            "slot": "5",
            "type": "t_uint256"
          },
          {
            "astId": 8116,
            "contract": "contracts/Staking.sol:Staking",
            "label": "isClaimed",
            "offset": 0,
            "slot": "6",
            "type": "t_bool"
          },
          {
            "astId": 8118,
            "contract": "contracts/Staking.sol:Staking",
            "label": "isToken2",
            "offset": 1,
            "slot": "6",
            "type": "t_bool"
          }
        ],
        "numberOfBytes": "224"
      },
      "t_struct(User)8132_storage": {
        "encoding": "inplace",
        "label": "struct IStaking.User",
        "members": [
          {
            "astId": 8123,
            "contract": "contracts/Staking.sol:Staking",
            "label": "stakes",
            "offset": 0,
            "slot": "0",
            "type": "t_array(t_struct(Stake)8119_storage)dyn_storage"
          },
          {
            "astId": 8125,
            "contract": "contracts/Staking.sol:Staking",
            "label": "totalStakedToken1",
            "offset": 0,
            "slot": "1",
            "type": "t_uint256"
          },
          {
            "astId": 8127,
            "contract": "contracts/Staking.sol:Staking",
            "label": "totalStakedToken2",
            "offset": 0,
            "slot": "2",
            "type": "t_uint256"
          },
          {
            "astId": 8129,
            "contract": "contracts/Staking.sol:Staking",
            "label": "totalClaimed",
            "offset": 0,
            "slot": "3",
            "type": "t_uint256"
          },
          {
            "astId": 8131,
            "contract": "contracts/Staking.sol:Staking",
            "label": "currentToken1Staked",
            "offset": 0,
            "slot": "4",
            "type": "t_uint256"
          }
        ],
        "numberOfBytes": "160"
      },
      "t_uint256": {
        "encoding": "inplace",
        "label": "uint256",
        "numberOfBytes": "32"
      }
    }
  }
}