{
  "address": "0x6C9390091A92e09e08F612aEcF4E2BA697D69CEF",
  "abi": [
    {
      "inputs": [],
      "stateMutability": "nonpayable",
      "type": "constructor"
    },
    {
      "anonymous": false,
      "inputs": [
        {
          "indexed": true,
          "internalType": "address",
          "name": "account",
          "type": "address"
        },
        {
          "indexed": true,
          "internalType": "address",
          "name": "operator",
          "type": "address"
        },
        {
          "indexed": false,
          "internalType": "bool",
          "name": "approved",
          "type": "bool"
        }
      ],
      "name": "ApprovalForAll",
      "type": "event"
    },
    {
      "anonymous": false,
      "inputs": [
        {
          "indexed": false,
          "internalType": "address",
          "name": "account",
          "type": "address"
        }
      ],
      "name": "Paused",
      "type": "event"
    },
    {
      "anonymous": false,
      "inputs": [
        {
          "indexed": true,
          "internalType": "bytes32",
          "name": "role",
          "type": "bytes32"
        },
        {
          "indexed": true,
          "internalType": "bytes32",
          "name": "previousAdminRole",
          "type": "bytes32"
        },
        {
          "indexed": true,
          "internalType": "bytes32",
          "name": "newAdminRole",
          "type": "bytes32"
        }
      ],
      "name": "RoleAdminChanged",
      "type": "event"
    },
    {
      "anonymous": false,
      "inputs": [
        {
          "indexed": true,
          "internalType": "bytes32",
          "name": "role",
          "type": "bytes32"
        },
        {
          "indexed": true,
          "internalType": "address",
          "name": "account",
          "type": "address"
        },
        {
          "indexed": true,
          "internalType": "address",
          "name": "sender",
          "type": "address"
        }
      ],
      "name": "RoleGranted",
      "type": "event"
    },
    {
      "anonymous": false,
      "inputs": [
        {
          "indexed": true,
          "internalType": "bytes32",
          "name": "role",
          "type": "bytes32"
        },
        {
          "indexed": true,
          "internalType": "address",
          "name": "account",
          "type": "address"
        },
        {
          "indexed": true,
          "internalType": "address",
          "name": "sender",
          "type": "address"
        }
      ],
      "name": "RoleRevoked",
      "type": "event"
    },
    {
      "anonymous": false,
      "inputs": [
        {
          "indexed": true,
          "internalType": "address",
          "name": "operator",
          "type": "address"
        },
        {
          "indexed": true,
          "internalType": "address",
          "name": "from",
          "type": "address"
        },
        {
          "indexed": true,
          "internalType": "address",
          "name": "to",
          "type": "address"
        },
        {
          "indexed": false,
          "internalType": "uint256[]",
          "name": "ids",
          "type": "uint256[]"
        },
        {
          "indexed": false,
          "internalType": "uint256[]",
          "name": "values",
          "type": "uint256[]"
        }
      ],
      "name": "TransferBatch",
      "type": "event"
    },
    {
      "anonymous": false,
      "inputs": [
        {
          "indexed": true,
          "internalType": "address",
          "name": "operator",
          "type": "address"
        },
        {
          "indexed": true,
          "internalType": "address",
          "name": "from",
          "type": "address"
        },
        {
          "indexed": true,
          "internalType": "address",
          "name": "to",
          "type": "address"
        },
        {
          "indexed": false,
          "internalType": "uint256",
          "name": "id",
          "type": "uint256"
        },
        {
          "indexed": false,
          "internalType": "uint256",
          "name": "value",
          "type": "uint256"
        }
      ],
      "name": "TransferSingle",
      "type": "event"
    },
    {
      "anonymous": false,
      "inputs": [
        {
          "indexed": false,
          "internalType": "string",
          "name": "value",
          "type": "string"
        },
        {
          "indexed": true,
          "internalType": "uint256",
          "name": "id",
          "type": "uint256"
        }
      ],
      "name": "URI",
      "type": "event"
    },
    {
      "anonymous": false,
      "inputs": [
        {
          "indexed": false,
          "internalType": "address",
          "name": "account",
          "type": "address"
        }
      ],
      "name": "Unpaused",
      "type": "event"
    },
    {
      "inputs": [],
      "name": "DEFAULT_ADMIN_ROLE",
      "outputs": [
        {
          "internalType": "bytes32",
          "name": "",
          "type": "bytes32"
        }
      ],
      "stateMutability": "view",
      "type": "function"
    },
    {
      "inputs": [],
      "name": "MINTER_ROLE",
      "outputs": [
        {
          "internalType": "bytes32",
          "name": "",
          "type": "bytes32"
        }
      ],
      "stateMutability": "view",
      "type": "function"
    },
    {
      "inputs": [],
      "name": "PAUSER_ROLE",
      "outputs": [
        {
          "internalType": "bytes32",
          "name": "",
          "type": "bytes32"
        }
      ],
      "stateMutability": "view",
      "type": "function"
    },
    {
      "inputs": [],
      "name": "URI_SETTER_ROLE",
      "outputs": [
        {
          "internalType": "bytes32",
          "name": "",
          "type": "bytes32"
        }
      ],
      "stateMutability": "view",
      "type": "function"
    },
    {
      "inputs": [
        {
          "internalType": "address",
          "name": "account",
          "type": "address"
        },
        {
          "internalType": "uint256",
          "name": "id",
          "type": "uint256"
        }
      ],
      "name": "balanceOf",
      "outputs": [
        {
          "internalType": "uint256",
          "name": "",
          "type": "uint256"
        }
      ],
      "stateMutability": "view",
      "type": "function"
    },
    {
      "inputs": [
        {
          "internalType": "address[]",
          "name": "accounts",
          "type": "address[]"
        },
        {
          "internalType": "uint256[]",
          "name": "ids",
          "type": "uint256[]"
        }
      ],
      "name": "balanceOfBatch",
      "outputs": [
        {
          "internalType": "uint256[]",
          "name": "",
          "type": "uint256[]"
        }
      ],
      "stateMutability": "view",
      "type": "function"
    },
    {
      "inputs": [
        {
          "internalType": "address",
          "name": "account",
          "type": "address"
        },
        {
          "internalType": "uint256",
          "name": "id",
          "type": "uint256"
        },
        {
          "internalType": "uint256",
          "name": "value",
          "type": "uint256"
        }
      ],
      "name": "burn",
      "outputs": [],
      "stateMutability": "nonpayable",
      "type": "function"
    },
    {
      "inputs": [
        {
          "internalType": "address",
          "name": "account",
          "type": "address"
        },
        {
          "internalType": "uint256[]",
          "name": "ids",
          "type": "uint256[]"
        },
        {
          "internalType": "uint256[]",
          "name": "values",
          "type": "uint256[]"
        }
      ],
      "name": "burnBatch",
      "outputs": [],
      "stateMutability": "nonpayable",
      "type": "function"
    },
    {
      "inputs": [
        {
          "internalType": "uint256",
          "name": "id",
          "type": "uint256"
        }
      ],
      "name": "exists",
      "outputs": [
        {
          "internalType": "bool",
          "name": "",
          "type": "bool"
        }
      ],
      "stateMutability": "view",
      "type": "function"
    },
    {
      "inputs": [
        {
          "internalType": "bytes32",
          "name": "role",
          "type": "bytes32"
        }
      ],
      "name": "getRoleAdmin",
      "outputs": [
        {
          "internalType": "bytes32",
          "name": "",
          "type": "bytes32"
        }
      ],
      "stateMutability": "view",
      "type": "function"
    },
    {
      "inputs": [
        {
          "internalType": "bytes32",
          "name": "role",
          "type": "bytes32"
        },
        {
          "internalType": "address",
          "name": "account",
          "type": "address"
        }
      ],
      "name": "grantRole",
      "outputs": [],
      "stateMutability": "nonpayable",
      "type": "function"
    },
    {
      "inputs": [
        {
          "internalType": "bytes32",
          "name": "role",
          "type": "bytes32"
        },
        {
          "internalType": "address",
          "name": "account",
          "type": "address"
        }
      ],
      "name": "hasRole",
      "outputs": [
        {
          "internalType": "bool",
          "name": "",
          "type": "bool"
        }
      ],
      "stateMutability": "view",
      "type": "function"
    },
    {
      "inputs": [
        {
          "internalType": "address",
          "name": "account",
          "type": "address"
        },
        {
          "internalType": "address",
          "name": "operator",
          "type": "address"
        }
      ],
      "name": "isApprovedForAll",
      "outputs": [
        {
          "internalType": "bool",
          "name": "",
          "type": "bool"
        }
      ],
      "stateMutability": "view",
      "type": "function"
    },
    {
      "inputs": [
        {
          "internalType": "address",
          "name": "account",
          "type": "address"
        },
        {
          "internalType": "uint256",
          "name": "id",
          "type": "uint256"
        },
        {
          "internalType": "uint256",
          "name": "amount",
          "type": "uint256"
        },
        {
          "internalType": "bytes",
          "name": "data",
          "type": "bytes"
        }
      ],
      "name": "mint",
      "outputs": [],
      "stateMutability": "nonpayable",
      "type": "function"
    },
    {
      "inputs": [
        {
          "internalType": "address",
          "name": "to",
          "type": "address"
        },
        {
          "internalType": "uint256[]",
          "name": "ids",
          "type": "uint256[]"
        },
        {
          "internalType": "uint256[]",
          "name": "amounts",
          "type": "uint256[]"
        },
        {
          "internalType": "bytes",
          "name": "data",
          "type": "bytes"
        }
      ],
      "name": "mintBatch",
      "outputs": [],
      "stateMutability": "nonpayable",
      "type": "function"
    },
    {
      "inputs": [],
      "name": "pause",
      "outputs": [],
      "stateMutability": "nonpayable",
      "type": "function"
    },
    {
      "inputs": [],
      "name": "paused",
      "outputs": [
        {
          "internalType": "bool",
          "name": "",
          "type": "bool"
        }
      ],
      "stateMutability": "view",
      "type": "function"
    },
    {
      "inputs": [
        {
          "internalType": "bytes32",
          "name": "role",
          "type": "bytes32"
        },
        {
          "internalType": "address",
          "name": "account",
          "type": "address"
        }
      ],
      "name": "renounceRole",
      "outputs": [],
      "stateMutability": "nonpayable",
      "type": "function"
    },
    {
      "inputs": [
        {
          "internalType": "bytes32",
          "name": "role",
          "type": "bytes32"
        },
        {
          "internalType": "address",
          "name": "account",
          "type": "address"
        }
      ],
      "name": "revokeRole",
      "outputs": [],
      "stateMutability": "nonpayable",
      "type": "function"
    },
    {
      "inputs": [
        {
          "internalType": "address",
          "name": "from",
          "type": "address"
        },
        {
          "internalType": "address",
          "name": "to",
          "type": "address"
        },
        {
          "internalType": "uint256[]",
          "name": "ids",
          "type": "uint256[]"
        },
        {
          "internalType": "uint256[]",
          "name": "amounts",
          "type": "uint256[]"
        },
        {
          "internalType": "bytes",
          "name": "data",
          "type": "bytes"
        }
      ],
      "name": "safeBatchTransferFrom",
      "outputs": [],
      "stateMutability": "nonpayable",
      "type": "function"
    },
    {
      "inputs": [
        {
          "internalType": "address",
          "name": "from",
          "type": "address"
        },
        {
          "internalType": "address",
          "name": "to",
          "type": "address"
        },
        {
          "internalType": "uint256",
          "name": "id",
          "type": "uint256"
        },
        {
          "internalType": "uint256",
          "name": "amount",
          "type": "uint256"
        },
        {
          "internalType": "bytes",
          "name": "data",
          "type": "bytes"
        }
      ],
      "name": "safeTransferFrom",
      "outputs": [],
      "stateMutability": "nonpayable",
      "type": "function"
    },
    {
      "inputs": [
        {
          "internalType": "address",
          "name": "operator",
          "type": "address"
        },
        {
          "internalType": "bool",
          "name": "approved",
          "type": "bool"
        }
      ],
      "name": "setApprovalForAll",
      "outputs": [],
      "stateMutability": "nonpayable",
      "type": "function"
    },
    {
      "inputs": [
        {
          "internalType": "string",
          "name": "newuri",
          "type": "string"
        }
      ],
      "name": "setURI",
      "outputs": [],
      "stateMutability": "nonpayable",
      "type": "function"
    },
    {
      "inputs": [
        {
          "internalType": "bytes4",
          "name": "interfaceId",
          "type": "bytes4"
        }
      ],
      "name": "supportsInterface",
      "outputs": [
        {
          "internalType": "bool",
          "name": "",
          "type": "bool"
        }
      ],
      "stateMutability": "view",
      "type": "function"
    },
    {
      "inputs": [
        {
          "internalType": "uint256",
          "name": "id",
          "type": "uint256"
        }
      ],
      "name": "totalSupply",
      "outputs": [
        {
          "internalType": "uint256",
          "name": "",
          "type": "uint256"
        }
      ],
      "stateMutability": "view",
      "type": "function"
    },
    {
      "inputs": [],
      "name": "unpause",
      "outputs": [],
      "stateMutability": "nonpayable",
      "type": "function"
    },
    {
      "inputs": [
        {
          "internalType": "uint256",
          "name": "",
          "type": "uint256"
        }
      ],
      "name": "uri",
      "outputs": [
        {
          "internalType": "string",
          "name": "",
          "type": "string"
        }
      ],
      "stateMutability": "view",
      "type": "function"
    }
  ],
  "transactionHash": "0x2cc1802f341b609b7d8062671be3aecc69accbe731a44f5c98ae2ef561b812da",
  "args": [],
  "numDeployments": 1,
  "solcInputHash": "d1452b684b5fddde6bbc37eecde1e421",
  "bytecode": "0x60806040523480156200001157600080fd5b506040805160208101909152600081526200002c81620000ce565b506004805460ff1916905562000044600033620000e7565b620000707f7804d923f43a17d325d77e781528e0793b2edd9890ab45fc64efd7b4b427744c33620000e7565b6200009c7f65d7a28e3265b37a6474929f336521b332c1681b933f6cb9f3376673440d862a33620000e7565b620000c87f9f2df0fed2c77648de5860a4cc508cd0818c85b8b8a1ab4ceeef8d981c8956a633620000e7565b6200026e565b8051620000e39060029060208401906200018b565b5050565b60008281526003602090815260408083206001600160a01b038516845290915290205460ff16620000e35760008281526003602090815260408083206001600160a01b03851684529091529020805460ff19166001179055620001473390565b6001600160a01b0316816001600160a01b0316837f2f8788117e7eff1d82e926ec794901d17c78024a50270940304540a733656f0d60405160405180910390a45050565b828054620001999062000231565b90600052602060002090601f016020900481019282620001bd576000855562000208565b82601f10620001d857805160ff191683800117855562000208565b8280016001018555821562000208579182015b8281111562000208578251825591602001919060010190620001eb565b50620002169291506200021a565b5090565b5b808211156200021657600081556001016200021b565b600181811c908216806200024657607f821691505b602082108114156200026857634e487b7160e01b600052602260045260246000fd5b50919050565b6127f1806200027e6000396000f3fe608060405234801561001057600080fd5b50600436106101a85760003560e01c80636b20c454116100f9578063bd85b03911610097578063e63ab1e911610071578063e63ab1e9146103cc578063e985e9c5146103f3578063f242432a1461042f578063f5298aca1461044257600080fd5b8063bd85b03914610372578063d539139314610392578063d547741f146103b957600080fd5b80638456cb59116100d35780638456cb591461033c57806391d1485414610344578063a217fddf14610357578063a22cb4651461035f57600080fd5b80636b20c454146102ef578063731133e9146103025780637f3457101461031557600080fd5b80632eb2c2d6116101665780633f4ba83a116101405780633f4ba83a1461029a5780634e1273f4146102a25780634f558e79146102c25780635c975abb146102e457600080fd5b80632eb2c2d6146102615780632f2ff15d1461027457806336568abe1461028757600080fd5b8062fdd58e146101ad57806301ffc9a7146101d357806302fe5305146101f65780630e89341c1461020b5780631f7fdffa1461022b578063248a9ca31461023e575b600080fd5b6101c06101bb366004611be0565b610455565b6040519081526020015b60405180910390f35b6101e66101e1366004611c20565b6104eb565b60405190151581526020016101ca565b610209610204366004611cdc565b6104fc565b005b61021e610219366004611d2c565b610533565b6040516101ca9190611d9d565b610209610239366004611e64565b6105c7565b6101c061024c366004611d2c565b60009081526003602052604090206001015490565b61020961026f366004611efc565b610604565b610209610282366004611fa5565b610649565b610209610295366004611fa5565b610673565b6102096106ed565b6102b56102b0366004611fd1565b610722565b6040516101ca91906120d6565b6101e66102d0366004611d2c565b600090815260056020526040902054151590565b60045460ff166101e6565b6102096102fd3660046120e9565b61084b565b61020961031036600461215c565b61088e565b6101c07f7804d923f43a17d325d77e781528e0793b2edd9890ab45fc64efd7b4b427744c81565b6102096108c4565b6101e6610352366004611fa5565b6108f6565b6101c0600081565b61020961036d3660046121b0565b610921565b6101c0610380366004611d2c565b60009081526005602052604090205490565b6101c07f9f2df0fed2c77648de5860a4cc508cd0818c85b8b8a1ab4ceeef8d981c8956a681565b6102096103c7366004611fa5565b61092c565b6101c07f65d7a28e3265b37a6474929f336521b332c1681b933f6cb9f3376673440d862a81565b6101e66104013660046121ec565b6001600160a01b03918216600090815260016020908152604080832093909416825291909152205460ff1690565b61020961043d366004612216565b610951565b61020961045036600461227a565b610996565b60006001600160a01b0383166104c55760405162461bcd60e51b815260206004820152602a60248201527f455243313135353a2061646472657373207a65726f206973206e6f742061207660448201526930b634b21037bbb732b960b11b60648201526084015b60405180910390fd5b506000908152602081815260408083206001600160a01b03949094168352929052205490565b60006104f6826109d9565b92915050565b7f7804d923f43a17d325d77e781528e0793b2edd9890ab45fc64efd7b4b427744c610526816109fe565b61052f82610a08565b5050565b606060028054610542906122ad565b80601f016020809104026020016040519081016040528092919081815260200182805461056e906122ad565b80156105bb5780601f10610590576101008083540402835291602001916105bb565b820191906000526020600020905b81548152906001019060200180831161059e57829003601f168201915b50505050509050919050565b7f9f2df0fed2c77648de5860a4cc508cd0818c85b8b8a1ab4ceeef8d981c8956a66105f1816109fe565b6105fd85858585610a1b565b5050505050565b6001600160a01b03851633148061062057506106208533610401565b61063c5760405162461bcd60e51b81526004016104bc906122e8565b6105fd8585858585610b75565b600082815260036020526040902060010154610664816109fe565b61066e8383610d1f565b505050565b6001600160a01b03811633146106e35760405162461bcd60e51b815260206004820152602f60248201527f416363657373436f6e74726f6c3a2063616e206f6e6c792072656e6f756e636560448201526e103937b632b9903337b91039b2b63360891b60648201526084016104bc565b61052f8282610da5565b7f65d7a28e3265b37a6474929f336521b332c1681b933f6cb9f3376673440d862a610717816109fe565b61071f610e0c565b50565b606081518351146107875760405162461bcd60e51b815260206004820152602960248201527f455243313135353a206163636f756e747320616e6420696473206c656e677468604482015268040dad2e6dac2e8c6d60bb1b60648201526084016104bc565b600083516001600160401b038111156107a2576107a2611c3d565b6040519080825280602002602001820160405280156107cb578160200160208202803683370190505b50905060005b8451811015610843576108168582815181106107ef576107ef612337565b602002602001015185838151811061080957610809612337565b6020026020010151610455565b82828151811061082857610828612337565b602090810291909101015261083c81612363565b90506107d1565b509392505050565b6001600160a01b03831633148061086757506108678333610401565b6108835760405162461bcd60e51b81526004016104bc906122e8565b61066e838383610e5e565b7f9f2df0fed2c77648de5860a4cc508cd0818c85b8b8a1ab4ceeef8d981c8956a66108b8816109fe565b6105fd85858585610ffc565b7f65d7a28e3265b37a6474929f336521b332c1681b933f6cb9f3376673440d862a6108ee816109fe565b61071f6110e5565b60009182526003602090815260408084206001600160a01b0393909316845291905290205460ff1690565b61052f338383611122565b600082815260036020526040902060010154610947816109fe565b61066e8383610da5565b6001600160a01b03851633148061096d575061096d8533610401565b6109895760405162461bcd60e51b81526004016104bc906122e8565b6105fd8585858585611203565b6001600160a01b0383163314806109b257506109b28333610401565b6109ce5760405162461bcd60e51b81526004016104bc906122e8565b61066e83838361133b565b60006001600160e01b03198216637965db0b60e01b14806104f657506104f682611453565b61071f81336114a3565b805161052f906002906020840190611b2b565b6001600160a01b038416610a415760405162461bcd60e51b81526004016104bc9061237e565b8151835114610a625760405162461bcd60e51b81526004016104bc906123bf565b33610a7281600087878787611507565b60005b8451811015610b0d57838181518110610a9057610a90612337565b6020026020010151600080878481518110610aad57610aad612337565b602002602001015181526020019081526020016000206000886001600160a01b03166001600160a01b031681526020019081526020016000206000828254610af59190612407565b90915550819050610b0581612363565b915050610a75565b50846001600160a01b031660006001600160a01b0316826001600160a01b03167f4a39dc06d4c0dbc64b70af90fd698a233a518aa5d07e595d983b8c0526c8f7fb8787604051610b5e92919061241f565b60405180910390a46105fd8160008787878761151d565b8151835114610b965760405162461bcd60e51b81526004016104bc906123bf565b6001600160a01b038416610bbc5760405162461bcd60e51b81526004016104bc9061244d565b33610bcb818787878787611507565b60005b8451811015610cb1576000858281518110610beb57610beb612337565b602002602001015190506000858381518110610c0957610c09612337565b602090810291909101810151600084815280835260408082206001600160a01b038e168352909352919091205490915081811015610c595760405162461bcd60e51b81526004016104bc90612492565b6000838152602081815260408083206001600160a01b038e8116855292528083208585039055908b16825281208054849290610c96908490612407565b9250508190555050505080610caa90612363565b9050610bce565b50846001600160a01b0316866001600160a01b0316826001600160a01b03167f4a39dc06d4c0dbc64b70af90fd698a233a518aa5d07e595d983b8c0526c8f7fb8787604051610d0192919061241f565b60405180910390a4610d1781878787878761151d565b505050505050565b610d2982826108f6565b61052f5760008281526003602090815260408083206001600160a01b03851684529091529020805460ff19166001179055610d613390565b6001600160a01b0316816001600160a01b0316837f2f8788117e7eff1d82e926ec794901d17c78024a50270940304540a733656f0d60405160405180910390a45050565b610daf82826108f6565b1561052f5760008281526003602090815260408083206001600160a01b0385168085529252808320805460ff1916905551339285917ff6391f5c32d9c69d2a47ea670b442974b53935d1edc7fd64eb21e047a839171b9190a45050565b610e14611679565b6004805460ff191690557f5db9ee0a495bf2e6ff9c91a7834c1ba4fdd244a5e8aa4e537bd38aeae4b073aa335b6040516001600160a01b03909116815260200160405180910390a1565b6001600160a01b038316610e845760405162461bcd60e51b81526004016104bc906124dc565b8051825114610ea55760405162461bcd60e51b81526004016104bc906123bf565b6000339050610ec881856000868660405180602001604052806000815250611507565b60005b8351811015610f8d576000848281518110610ee857610ee8612337565b602002602001015190506000848381518110610f0657610f06612337565b602090810291909101810151600084815280835260408082206001600160a01b038c168352909352919091205490915081811015610f565760405162461bcd60e51b81526004016104bc9061251f565b6000928352602083815260408085206001600160a01b038b1686529091529092209103905580610f8581612363565b915050610ecb565b5060006001600160a01b0316846001600160a01b0316826001600160a01b03167f4a39dc06d4c0dbc64b70af90fd698a233a518aa5d07e595d983b8c0526c8f7fb8686604051610fde92919061241f565b60405180910390a46040805160208101909152600090525b50505050565b6001600160a01b0384166110225760405162461bcd60e51b81526004016104bc9061237e565b33600061102e856116c4565b9050600061103b856116c4565b905061104c83600089858589611507565b6000868152602081815260408083206001600160a01b038b1684529091528120805487929061107c908490612407565b909155505060408051878152602081018790526001600160a01b03808a1692600092918716917fc3d58168c5ae7397731d063d5bbf3d657854427343f4c083240f7aacaa2d0f62910160405180910390a46110dc8360008989898961170f565b50505050505050565b6110ed6117ca565b6004805460ff191660011790557f62e78cea01bee320cd4e420270b5ea74000d11b0c9f74754ebdbfc544b05a258610e413390565b816001600160a01b0316836001600160a01b031614156111965760405162461bcd60e51b815260206004820152602960248201527f455243313135353a2073657474696e6720617070726f76616c20737461747573604482015268103337b91039b2b63360b91b60648201526084016104bc565b6001600160a01b03838116600081815260016020908152604080832094871680845294825291829020805460ff191686151590811790915591519182527f17307eab39ab6107e8899845ad3d59bd9653f200f220920489ca2b5937696c31910160405180910390a3505050565b6001600160a01b0384166112295760405162461bcd60e51b81526004016104bc9061244d565b336000611235856116c4565b90506000611242856116c4565b9050611252838989858589611507565b6000868152602081815260408083206001600160a01b038c168452909152902054858110156112935760405162461bcd60e51b81526004016104bc90612492565b6000878152602081815260408083206001600160a01b038d8116855292528083208985039055908a168252812080548892906112d0908490612407565b909155505060408051888152602081018890526001600160a01b03808b16928c821692918816917fc3d58168c5ae7397731d063d5bbf3d657854427343f4c083240f7aacaa2d0f62910160405180910390a4611330848a8a8a8a8a61170f565b505050505050505050565b6001600160a01b0383166113615760405162461bcd60e51b81526004016104bc906124dc565b33600061136d846116c4565b9050600061137a846116c4565b905061139a83876000858560405180602001604052806000815250611507565b6000858152602081815260408083206001600160a01b038a168452909152902054848110156113db5760405162461bcd60e51b81526004016104bc9061251f565b6000868152602081815260408083206001600160a01b038b81168086529184528285208a8703905582518b81529384018a90529092908816917fc3d58168c5ae7397731d063d5bbf3d657854427343f4c083240f7aacaa2d0f62910160405180910390a46040805160208101909152600090526110dc565b60006001600160e01b03198216636cdb3d1360e11b148061148457506001600160e01b031982166303a24d0760e21b145b806104f657506301ffc9a760e01b6001600160e01b03198316146104f6565b6114ad82826108f6565b61052f576114c5816001600160a01b03166014611810565b6114d0836020611810565b6040516020016114e1929190612563565b60408051601f198184030181529082905262461bcd60e51b82526104bc91600401611d9d565b61150f6117ca565b610d178686868686866119b2565b6001600160a01b0384163b15610d175760405163bc197c8160e01b81526001600160a01b0385169063bc197c819061156190899089908890889088906004016125d8565b6020604051808303816000875af192505050801561159c575060408051601f3d908101601f1916820190925261159991810190612636565b60015b611649576115a8612653565b806308c379a014156115e257506115bd61266f565b806115c857506115e4565b8060405162461bcd60e51b81526004016104bc9190611d9d565b505b60405162461bcd60e51b815260206004820152603460248201527f455243313135353a207472616e7366657220746f206e6f6e20455243313135356044820152732932b1b2b4bb32b91034b6b83632b6b2b73a32b960611b60648201526084016104bc565b6001600160e01b0319811663bc197c8160e01b146110dc5760405162461bcd60e51b81526004016104bc906126f8565b60045460ff166116c25760405162461bcd60e51b815260206004820152601460248201527314185d5cd8589b194e881b9bdd081c185d5cd95960621b60448201526064016104bc565b565b604080516001808252818301909252606091600091906020808301908036833701905050905082816000815181106116fe576116fe612337565b602090810291909101015292915050565b6001600160a01b0384163b15610d175760405163f23a6e6160e01b81526001600160a01b0385169063f23a6e61906117539089908990889088908890600401612740565b6020604051808303816000875af192505050801561178e575060408051601f3d908101601f1916820190925261178b91810190612636565b60015b61179a576115a8612653565b6001600160e01b0319811663f23a6e6160e01b146110dc5760405162461bcd60e51b81526004016104bc906126f8565b60045460ff16156116c25760405162461bcd60e51b815260206004820152601060248201526f14185d5cd8589b194e881c185d5cd95960821b60448201526064016104bc565b6060600061181f836002612785565b61182a906002612407565b6001600160401b0381111561184157611841611c3d565b6040519080825280601f01601f19166020018201604052801561186b576020820181803683370190505b509050600360fc1b8160008151811061188657611886612337565b60200101906001600160f81b031916908160001a905350600f60fb1b816001815181106118b5576118b5612337565b60200101906001600160f81b031916908160001a90535060006118d9846002612785565b6118e4906001612407565b90505b600181111561195c576f181899199a1a9b1b9c1cb0b131b232b360811b85600f166010811061191857611918612337565b1a60f81b82828151811061192e5761192e612337565b60200101906001600160f81b031916908160001a90535060049490941c93611955816127a4565b90506118e7565b5083156119ab5760405162461bcd60e51b815260206004820181905260248201527f537472696e67733a20686578206c656e67746820696e73756666696369656e7460448201526064016104bc565b9392505050565b6001600160a01b038516611a395760005b8351811015611a37578281815181106119de576119de612337565b6020026020010151600560008684815181106119fc576119fc612337565b602002602001015181526020019081526020016000206000828254611a219190612407565b90915550611a30905081612363565b90506119c3565b505b6001600160a01b038416610d175760005b83518110156110dc576000848281518110611a6757611a67612337565b602002602001015190506000848381518110611a8557611a85612337565b6020026020010151905060006005600084815260200190815260200160002054905081811015611b085760405162461bcd60e51b815260206004820152602860248201527f455243313135353a206275726e20616d6f756e74206578636565647320746f74604482015267616c537570706c7960c01b60648201526084016104bc565b60009283526005602052604090922091039055611b2481612363565b9050611a4a565b828054611b37906122ad565b90600052602060002090601f016020900481019282611b595760008555611b9f565b82601f10611b7257805160ff1916838001178555611b9f565b82800160010185558215611b9f579182015b82811115611b9f578251825591602001919060010190611b84565b50611bab929150611baf565b5090565b5b80821115611bab5760008155600101611bb0565b80356001600160a01b0381168114611bdb57600080fd5b919050565b60008060408385031215611bf357600080fd5b611bfc83611bc4565b946020939093013593505050565b6001600160e01b03198116811461071f57600080fd5b600060208284031215611c3257600080fd5b81356119ab81611c0a565b634e487b7160e01b600052604160045260246000fd5b601f8201601f191681016001600160401b0381118282101715611c7857611c78611c3d565b6040525050565b60006001600160401b03831115611c9857611c98611c3d565b604051611caf601f8501601f191660200182611c53565b809150838152848484011115611cc457600080fd5b83836020830137600060208583010152509392505050565b600060208284031215611cee57600080fd5b81356001600160401b03811115611d0457600080fd5b8201601f81018413611d1557600080fd5b611d2484823560208401611c7f565b949350505050565b600060208284031215611d3e57600080fd5b5035919050565b60005b83811015611d60578181015183820152602001611d48565b83811115610ff65750506000910152565b60008151808452611d89816020860160208601611d45565b601f01601f19169290920160200192915050565b6020815260006119ab6020830184611d71565b60006001600160401b03821115611dc957611dc9611c3d565b5060051b60200190565b600082601f830112611de457600080fd5b81356020611df182611db0565b604051611dfe8282611c53565b83815260059390931b8501820192828101915086841115611e1e57600080fd5b8286015b84811015611e395780358352918301918301611e22565b509695505050505050565b600082601f830112611e5557600080fd5b6119ab83833560208501611c7f565b60008060008060808587031215611e7a57600080fd5b611e8385611bc4565b935060208501356001600160401b0380821115611e9f57600080fd5b611eab88838901611dd3565b94506040870135915080821115611ec157600080fd5b611ecd88838901611dd3565b93506060870135915080821115611ee357600080fd5b50611ef087828801611e44565b91505092959194509250565b600080600080600060a08688031215611f1457600080fd5b611f1d86611bc4565b9450611f2b60208701611bc4565b935060408601356001600160401b0380821115611f4757600080fd5b611f5389838a01611dd3565b94506060880135915080821115611f6957600080fd5b611f7589838a01611dd3565b93506080880135915080821115611f8b57600080fd5b50611f9888828901611e44565b9150509295509295909350565b60008060408385031215611fb857600080fd5b82359150611fc860208401611bc4565b90509250929050565b60008060408385031215611fe457600080fd5b82356001600160401b0380821115611ffb57600080fd5b818501915085601f83011261200f57600080fd5b8135602061201c82611db0565b6040516120298282611c53565b83815260059390931b850182019282810191508984111561204957600080fd5b948201945b8386101561206e5761205f86611bc4565b8252948201949082019061204e565b9650508601359250508082111561208457600080fd5b5061209185828601611dd3565b9150509250929050565b600081518084526020808501945080840160005b838110156120cb578151875295820195908201906001016120af565b509495945050505050565b6020815260006119ab602083018461209b565b6000806000606084860312156120fe57600080fd5b61210784611bc4565b925060208401356001600160401b038082111561212357600080fd5b61212f87838801611dd3565b9350604086013591508082111561214557600080fd5b5061215286828701611dd3565b9150509250925092565b6000806000806080858703121561217257600080fd5b61217b85611bc4565b9350602085013592506040850135915060608501356001600160401b038111156121a457600080fd5b611ef087828801611e44565b600080604083850312156121c357600080fd5b6121cc83611bc4565b9150602083013580151581146121e157600080fd5b809150509250929050565b600080604083850312156121ff57600080fd5b61220883611bc4565b9150611fc860208401611bc4565b600080600080600060a0868803121561222e57600080fd5b61223786611bc4565b945061224560208701611bc4565b9350604086013592506060860135915060808601356001600160401b0381111561226e57600080fd5b611f9888828901611e44565b60008060006060848603121561228f57600080fd5b61229884611bc4565b95602085013595506040909401359392505050565b600181811c908216806122c157607f821691505b602082108114156122e257634e487b7160e01b600052602260045260246000fd5b50919050565b6020808252602f908201527f455243313135353a2063616c6c6572206973206e6f7420746f6b656e206f776e60408201526e195c881b9bdc88185c1c1c9bdd9959608a1b606082015260800190565b634e487b7160e01b600052603260045260246000fd5b634e487b7160e01b600052601160045260246000fd5b60006000198214156123775761237761234d565b5060010190565b60208082526021908201527f455243313135353a206d696e7420746f20746865207a65726f206164647265736040820152607360f81b606082015260800190565b60208082526028908201527f455243313135353a2069647320616e6420616d6f756e7473206c656e677468206040820152670dad2e6dac2e8c6d60c31b606082015260800190565b6000821982111561241a5761241a61234d565b500190565b604081526000612432604083018561209b565b8281036020840152612444818561209b565b95945050505050565b60208082526025908201527f455243313135353a207472616e7366657220746f20746865207a65726f206164604082015264647265737360d81b606082015260800190565b6020808252602a908201527f455243313135353a20696e73756666696369656e742062616c616e636520666f60408201526939103a3930b739b332b960b11b606082015260800190565b60208082526023908201527f455243313135353a206275726e2066726f6d20746865207a65726f206164647260408201526265737360e81b606082015260800190565b60208082526024908201527f455243313135353a206275726e20616d6f756e7420657863656564732062616c604082015263616e636560e01b606082015260800190565b7f416363657373436f6e74726f6c3a206163636f756e742000000000000000000081526000835161259b816017850160208801611d45565b7001034b99036b4b9b9b4b733903937b6329607d1b60179184019182015283516125cc816028840160208801611d45565b01602801949350505050565b6001600160a01b0386811682528516602082015260a0604082018190526000906126049083018661209b565b8281036060840152612616818661209b565b9050828103608084015261262a8185611d71565b98975050505050505050565b60006020828403121561264857600080fd5b81516119ab81611c0a565b600060033d111561266c5760046000803e5060005160e01c5b90565b600060443d101561267d5790565b6040516003193d81016004833e81513d6001600160401b0381602484011181841117156126ac57505050505090565b82850191508151818111156126c45750505050505090565b843d87010160208285010111156126de5750505050505090565b6126ed60208286010187611c53565b509095945050505050565b60208082526028908201527f455243313135353a204552433131353552656365697665722072656a656374656040820152676420746f6b656e7360c01b606082015260800190565b6001600160a01b03868116825285166020820152604081018490526060810183905260a06080820181905260009061277a90830184611d71565b979650505050505050565b600081600019048311821515161561279f5761279f61234d565b500290565b6000816127b3576127b361234d565b50600019019056fea2646970667358221220db7a85b30d6e93b721332d1caadcaedcebe3caeb3799589f15064990f7b51d8d64736f6c634300080b0033",
  "devdoc": {
    "kind": "dev",
    "methods": {
      "balanceOf(address,uint256)": {
        "details": "See {IERC1155-balanceOf}. Requirements: - `account` cannot be the zero address."
      },
      "balanceOfBatch(address[],uint256[])": {
        "details": "See {IERC1155-balanceOfBatch}. Requirements: - `accounts` and `ids` must have the same length."
      },
      "exists(uint256)": {
        "details": "Indicates whether any token exist with a given id, or not."
      },
      "getRoleAdmin(bytes32)": {
        "details": "Returns the admin role that controls `role`. See {grantRole} and {revokeRole}. To change a role's admin, use {_setRoleAdmin}."
      },
      "grantRole(bytes32,address)": {
        "details": "Grants `role` to `account`. If `account` had not been already granted `role`, emits a {RoleGranted} event. Requirements: - the caller must have ``role``'s admin role. May emit a {RoleGranted} event."
      },
      "hasRole(bytes32,address)": {
        "details": "Returns `true` if `account` has been granted `role`."
      },
      "isApprovedForAll(address,address)": {
        "details": "See {IERC1155-isApprovedForAll}."
      },
      "paused()": {
        "details": "Returns true if the contract is paused, and false otherwise."
      },
      "renounceRole(bytes32,address)": {
        "details": "Revokes `role` from the calling account. Roles are often managed via {grantRole} and {revokeRole}: this function's purpose is to provide a mechanism for accounts to lose their privileges if they are compromised (such as when a trusted device is misplaced). If the calling account had been revoked `role`, emits a {RoleRevoked} event. Requirements: - the caller must be `account`. May emit a {RoleRevoked} event."
      },
      "revokeRole(bytes32,address)": {
        "details": "Revokes `role` from `account`. If `account` had been granted `role`, emits a {RoleRevoked} event. Requirements: - the caller must have ``role``'s admin role. May emit a {RoleRevoked} event."
      },
      "safeBatchTransferFrom(address,address,uint256[],uint256[],bytes)": {
        "details": "See {IERC1155-safeBatchTransferFrom}."
      },
      "safeTransferFrom(address,address,uint256,uint256,bytes)": {
        "details": "See {IERC1155-safeTransferFrom}."
      },
      "setApprovalForAll(address,bool)": {
        "details": "See {IERC1155-setApprovalForAll}."
      },
      "totalSupply(uint256)": {
        "details": "Total amount of tokens in with a given id."
      },
      "uri(uint256)": {
        "details": "See {IERC1155MetadataURI-uri}. This implementation returns the same URI for *all* token types. It relies on the token type ID substitution mechanism https://eips.ethereum.org/EIPS/eip-1155#metadata[defined in the EIP]. Clients calling this function must replace the `\\{id\\}` substring with the actual token type ID."
      }
    },
    "version": 1
  },
  "userdoc": {
    "kind": "user",
    "methods": {},
    "version": 1
  },
  "storageLayout": {
    "storage": [
      {
        "astId": 720,
        "contract": "contracts/tokens/Ticket.sol:Ticket",
        "label": "_balances",
        "offset": 0,
        "slot": "0",
        "type": "t_mapping(t_uint256,t_mapping(t_address,t_uint256))"
      },
      {
        "astId": 726,
        "contract": "contracts/tokens/Ticket.sol:Ticket",
        "label": "_operatorApprovals",
        "offset": 0,
        "slot": "1",
        "type": "t_mapping(t_address,t_mapping(t_address,t_bool))"
      },
      {
        "astId": 728,
        "contract": "contracts/tokens/Ticket.sol:Ticket",
        "label": "_uri",
        "offset": 0,
        "slot": "2",
        "type": "t_string_storage"
      },
      {
        "astId": 178,
        "contract": "contracts/tokens/Ticket.sol:Ticket",
        "label": "_roles",
        "offset": 0,
        "slot": "3",
        "type": "t_mapping(t_bytes32,t_struct(RoleData)173_storage)"
      },
      {
        "astId": 564,
        "contract": "contracts/tokens/Ticket.sol:Ticket",
        "label": "_paused",
        "offset": 0,
        "slot": "4",
        "type": "t_bool"
      },
      {
        "astId": 2159,
        "contract": "contracts/tokens/Ticket.sol:Ticket",
        "label": "_totalSupply",
        "offset": 0,
        "slot": "5",
        "type": "t_mapping(t_uint256,t_uint256)"
      }
    ],
    "types": {
      "t_address": {
        "encoding": "inplace",
        "label": "address",
        "numberOfBytes": "20"
      },
      "t_bool": {
        "encoding": "inplace",
        "label": "bool",
        "numberOfBytes": "1"
      },
      "t_bytes32": {
        "encoding": "inplace",
        "label": "bytes32",
        "numberOfBytes": "32"
      },
      "t_mapping(t_address,t_bool)": {
        "encoding": "mapping",
        "key": "t_address",
        "label": "mapping(address => bool)",
        "numberOfBytes": "32",
        "value": "t_bool"
      },
      "t_mapping(t_address,t_mapping(t_address,t_bool))": {
        "encoding": "mapping",
        "key": "t_address",
        "label": "mapping(address => mapping(address => bool))",
        "numberOfBytes": "32",
        "value": "t_mapping(t_address,t_bool)"
      },
      "t_mapping(t_address,t_uint256)": {
        "encoding": "mapping",
        "key": "t_address",
        "label": "mapping(address => uint256)",
        "numberOfBytes": "32",
        "value": "t_uint256"
      },
      "t_mapping(t_bytes32,t_struct(RoleData)173_storage)": {
        "encoding": "mapping",
        "key": "t_bytes32",
        "label": "mapping(bytes32 => struct AccessControl.RoleData)",
        "numberOfBytes": "32",
        "value": "t_struct(RoleData)173_storage"
      },
      "t_mapping(t_uint256,t_mapping(t_address,t_uint256))": {
        "encoding": "mapping",
        "key": "t_uint256",
        "label": "mapping(uint256 => mapping(address => uint256))",
        "numberOfBytes": "32",
        "value": "t_mapping(t_address,t_uint256)"
      },
      "t_mapping(t_uint256,t_uint256)": {
        "encoding": "mapping",
        "key": "t_uint256",
        "label": "mapping(uint256 => uint256)",
        "numberOfBytes": "32",
        "value": "t_uint256"
      },
      "t_string_storage": {
        "encoding": "bytes",
        "label": "string",
        "numberOfBytes": "32"
      },
      "t_struct(RoleData)173_storage": {
        "encoding": "inplace",
        "label": "struct AccessControl.RoleData",
        "members": [
          {
            "astId": 170,
            "contract": "contracts/tokens/Ticket.sol:Ticket",
            "label": "members",
            "offset": 0,
            "slot": "0",
            "type": "t_mapping(t_address,t_bool)"
          },
          {
            "astId": 172,
            "contract": "contracts/tokens/Ticket.sol:Ticket",
            "label": "adminRole",
            "offset": 0,
            "slot": "1",
            "type": "t_bytes32"
          }
        ],
        "numberOfBytes": "64"
      },
      "t_uint256": {
        "encoding": "inplace",
        "label": "uint256",
        "numberOfBytes": "32"
      }
    }
  }
}