{
  "address": "0x663cA197fdC464D131737a37bE850c4A038400BA",
  "abi": [
    {
      "inputs": [
        {
          "internalType": "uint256",
          "name": "initialSupply_",
          "type": "uint256"
        },
        {
          "internalType": "address",
          "name": "holderAddress_",
          "type": "address"
        }
      ],
      "stateMutability": "nonpayable",
      "type": "constructor"
    },
    {
      "anonymous": false,
      "inputs": [
        {
          "indexed": true,
          "internalType": "address",
          "name": "owner",
          "type": "address"
        },
        {
          "indexed": true,
          "internalType": "address",
          "name": "spender",
          "type": "address"
        },
        {
          "indexed": false,
          "internalType": "uint256",
          "name": "value",
          "type": "uint256"
        }
      ],
      "name": "Approval",
      "type": "event"
    },
    {
      "anonymous": false,
      "inputs": [
        {
          "indexed": false,
          "internalType": "address[]",
          "name": "_addresses",
          "type": "address[]"
        },
        {
          "indexed": false,
          "internalType": "address",
          "name": "admin",
          "type": "address"
        }
      ],
      "name": "BlacklistAdded",
      "type": "event"
    },
    {
      "anonymous": false,
      "inputs": [
        {
          "indexed": false,
          "internalType": "address[]",
          "name": "_addresses",
          "type": "address[]"
        },
        {
          "indexed": false,
          "internalType": "address",
          "name": "admin",
          "type": "address"
        }
      ],
      "name": "BlacklistRemoved",
      "type": "event"
    },
    {
      "anonymous": false,
      "inputs": [
        {
          "indexed": false,
          "internalType": "address",
          "name": "account",
          "type": "address"
        }
      ],
      "name": "Paused",
      "type": "event"
    },
    {
      "anonymous": false,
      "inputs": [
        {
          "indexed": true,
          "internalType": "bytes32",
          "name": "role",
          "type": "bytes32"
        },
        {
          "indexed": true,
          "internalType": "bytes32",
          "name": "previousAdminRole",
          "type": "bytes32"
        },
        {
          "indexed": true,
          "internalType": "bytes32",
          "name": "newAdminRole",
          "type": "bytes32"
        }
      ],
      "name": "RoleAdminChanged",
      "type": "event"
    },
    {
      "anonymous": false,
      "inputs": [
        {
          "indexed": true,
          "internalType": "bytes32",
          "name": "role",
          "type": "bytes32"
        },
        {
          "indexed": true,
          "internalType": "address",
          "name": "account",
          "type": "address"
        },
        {
          "indexed": true,
          "internalType": "address",
          "name": "sender",
          "type": "address"
        }
      ],
      "name": "RoleGranted",
      "type": "event"
    },
    {
      "anonymous": false,
      "inputs": [
        {
          "indexed": true,
          "internalType": "bytes32",
          "name": "role",
          "type": "bytes32"
        },
        {
          "indexed": true,
          "internalType": "address",
          "name": "account",
          "type": "address"
        },
        {
          "indexed": true,
          "internalType": "address",
          "name": "sender",
          "type": "address"
        }
      ],
      "name": "RoleRevoked",
      "type": "event"
    },
    {
      "anonymous": false,
      "inputs": [
        {
          "indexed": false,
          "internalType": "uint256",
          "name": "id",
          "type": "uint256"
        }
      ],
      "name": "Snapshot",
      "type": "event"
    },
    {
      "anonymous": false,
      "inputs": [
        {
          "indexed": true,
          "internalType": "address",
          "name": "from",
          "type": "address"
        },
        {
          "indexed": true,
          "internalType": "address",
          "name": "to",
          "type": "address"
        },
        {
          "indexed": false,
          "internalType": "uint256",
          "name": "value",
          "type": "uint256"
        }
      ],
      "name": "Transfer",
      "type": "event"
    },
    {
      "anonymous": false,
      "inputs": [
        {
          "indexed": false,
          "internalType": "address",
          "name": "account",
          "type": "address"
        }
      ],
      "name": "Unpaused",
      "type": "event"
    },
    {
      "anonymous": false,
      "inputs": [
        {
          "indexed": false,
          "internalType": "address[]",
          "name": "_addresses",
          "type": "address[]"
        },
        {
          "indexed": false,
          "internalType": "address",
          "name": "admin",
          "type": "address"
        }
      ],
      "name": "WhitelistAdded",
      "type": "event"
    },
    {
      "anonymous": false,
      "inputs": [
        {
          "indexed": false,
          "internalType": "address",
          "name": "admin",
          "type": "address"
        }
      ],
      "name": "WhitelistDisabled",
      "type": "event"
    },
    {
      "anonymous": false,
      "inputs": [
        {
          "indexed": false,
          "internalType": "address",
          "name": "admin",
          "type": "address"
        }
      ],
      "name": "WhitelistEnabled",
      "type": "event"
    },
    {
      "anonymous": false,
      "inputs": [
        {
          "indexed": false,
          "internalType": "address[]",
          "name": "_addresses",
          "type": "address[]"
        },
        {
          "indexed": false,
          "internalType": "address",
          "name": "admin",
          "type": "address"
        }
      ],
      "name": "WhitelistRemoved",
      "type": "event"
    },
    {
      "inputs": [],
      "name": "DEFAULT_ADMIN_ROLE",
      "outputs": [
        {
          "internalType": "bytes32",
          "name": "",
          "type": "bytes32"
        }
      ],
      "stateMutability": "view",
      "type": "function"
    },
    {
      "inputs": [],
      "name": "PAUSER_ROLE",
      "outputs": [
        {
          "internalType": "bytes32",
          "name": "",
          "type": "bytes32"
        }
      ],
      "stateMutability": "view",
      "type": "function"
    },
    {
      "inputs": [],
      "name": "SNAPSHOT_ROLE",
      "outputs": [
        {
          "internalType": "bytes32",
          "name": "",
          "type": "bytes32"
        }
      ],
      "stateMutability": "view",
      "type": "function"
    },
    {
      "inputs": [
        {
          "internalType": "address[]",
          "name": "_addresses",
          "type": "address[]"
        }
      ],
      "name": "addToBlacklist",
      "outputs": [],
      "stateMutability": "nonpayable",
      "type": "function"
    },
    {
      "inputs": [
        {
          "internalType": "address[]",
          "name": "_addresses",
          "type": "address[]"
        }
      ],
      "name": "addToWhitelist",
      "outputs": [],
      "stateMutability": "nonpayable",
      "type": "function"
    },
    {
      "inputs": [
        {
          "internalType": "address",
          "name": "owner",
          "type": "address"
        },
        {
          "internalType": "address",
          "name": "spender",
          "type": "address"
        }
      ],
      "name": "allowance",
      "outputs": [
        {
          "internalType": "uint256",
          "name": "",
          "type": "uint256"
        }
      ],
      "stateMutability": "view",
      "type": "function"
    },
    {
      "inputs": [
        {
          "internalType": "address",
          "name": "spender",
          "type": "address"
        },
        {
          "internalType": "uint256",
          "name": "amount",
          "type": "uint256"
        }
      ],
      "name": "approve",
      "outputs": [
        {
          "internalType": "bool",
          "name": "",
          "type": "bool"
        }
      ],
      "stateMutability": "nonpayable",
      "type": "function"
    },
    {
      "inputs": [
        {
          "internalType": "address",
          "name": "account",
          "type": "address"
        }
      ],
      "name": "balanceOf",
      "outputs": [
        {
          "internalType": "uint256",
          "name": "",
          "type": "uint256"
        }
      ],
      "stateMutability": "view",
      "type": "function"
    },
    {
      "inputs": [
        {
          "internalType": "address",
          "name": "account",
          "type": "address"
        },
        {
          "internalType": "uint256",
          "name": "snapshotId",
          "type": "uint256"
        }
      ],
      "name": "balanceOfAt",
      "outputs": [
        {
          "internalType": "uint256",
          "name": "",
          "type": "uint256"
        }
      ],
      "stateMutability": "view",
      "type": "function"
    },
    {
      "inputs": [
        {
          "internalType": "uint256",
          "name": "amount",
          "type": "uint256"
        }
      ],
      "name": "burn",
      "outputs": [],
      "stateMutability": "nonpayable",
      "type": "function"
    },
    {
      "inputs": [
        {
          "internalType": "address",
          "name": "account",
          "type": "address"
        },
        {
          "internalType": "uint256",
          "name": "amount",
          "type": "uint256"
        }
      ],
      "name": "burnFrom",
      "outputs": [],
      "stateMutability": "nonpayable",
      "type": "function"
    },
    {
      "inputs": [],
      "name": "decimals",
      "outputs": [
        {
          "internalType": "uint8",
          "name": "",
          "type": "uint8"
        }
      ],
      "stateMutability": "view",
      "type": "function"
    },
    {
      "inputs": [
        {
          "internalType": "address",
          "name": "spender",
          "type": "address"
        },
        {
          "internalType": "uint256",
          "name": "subtractedValue",
          "type": "uint256"
        }
      ],
      "name": "decreaseAllowance",
      "outputs": [
        {
          "internalType": "bool",
          "name": "",
          "type": "bool"
        }
      ],
      "stateMutability": "nonpayable",
      "type": "function"
    },
    {
      "inputs": [
        {
          "internalType": "bytes32",
          "name": "role",
          "type": "bytes32"
        }
      ],
      "name": "getRoleAdmin",
      "outputs": [
        {
          "internalType": "bytes32",
          "name": "",
          "type": "bytes32"
        }
      ],
      "stateMutability": "view",
      "type": "function"
    },
    {
      "inputs": [
        {
          "internalType": "bytes32",
          "name": "role",
          "type": "bytes32"
        },
        {
          "internalType": "address",
          "name": "account",
          "type": "address"
        }
      ],
      "name": "grantRole",
      "outputs": [],
      "stateMutability": "nonpayable",
      "type": "function"
    },
    {
      "inputs": [
        {
          "internalType": "bytes32",
          "name": "role",
          "type": "bytes32"
        },
        {
          "internalType": "address",
          "name": "account",
          "type": "address"
        }
      ],
      "name": "hasRole",
      "outputs": [
        {
          "internalType": "bool",
          "name": "",
          "type": "bool"
        }
      ],
      "stateMutability": "view",
      "type": "function"
    },
    {
      "inputs": [
        {
          "internalType": "address",
          "name": "spender",
          "type": "address"
        },
        {
          "internalType": "uint256",
          "name": "addedValue",
          "type": "uint256"
        }
      ],
      "name": "increaseAllowance",
      "outputs": [
        {
          "internalType": "bool",
          "name": "",
          "type": "bool"
        }
      ],
      "stateMutability": "nonpayable",
      "type": "function"
    },
    {
      "inputs": [
        {
          "internalType": "address",
          "name": "_address",
          "type": "address"
        }
      ],
      "name": "isAddressInBlacklist",
      "outputs": [
        {
          "internalType": "bool",
          "name": "",
          "type": "bool"
        }
      ],
      "stateMutability": "view",
      "type": "function"
    },
    {
      "inputs": [
        {
          "internalType": "address",
          "name": "_address",
          "type": "address"
        }
      ],
      "name": "isAddressInWhiteList",
      "outputs": [
        {
          "internalType": "bool",
          "name": "",
          "type": "bool"
        }
      ],
      "stateMutability": "view",
      "type": "function"
    },
    {
      "inputs": [],
      "name": "isWhitelistRestrictionMode",
      "outputs": [
        {
          "internalType": "bool",
          "name": "",
          "type": "bool"
        }
      ],
      "stateMutability": "view",
      "type": "function"
    },
    {
      "inputs": [],
      "name": "name",
      "outputs": [
        {
          "internalType": "string",
          "name": "",
          "type": "string"
        }
      ],
      "stateMutability": "view",
      "type": "function"
    },
    {
      "inputs": [],
      "name": "offWhitelistMode",
      "outputs": [],
      "stateMutability": "nonpayable",
      "type": "function"
    },
    {
      "inputs": [],
      "name": "onWhitelistMode",
      "outputs": [],
      "stateMutability": "nonpayable",
      "type": "function"
    },
    {
      "inputs": [],
      "name": "pause",
      "outputs": [],
      "stateMutability": "nonpayable",
      "type": "function"
    },
    {
      "inputs": [],
      "name": "paused",
      "outputs": [
        {
          "internalType": "bool",
          "name": "",
          "type": "bool"
        }
      ],
      "stateMutability": "view",
      "type": "function"
    },
    {
      "inputs": [
        {
          "internalType": "address[]",
          "name": "_addresses",
          "type": "address[]"
        }
      ],
      "name": "removeFromBlacklist",
      "outputs": [],
      "stateMutability": "nonpayable",
      "type": "function"
    },
    {
      "inputs": [
        {
          "internalType": "address[]",
          "name": "_addresses",
          "type": "address[]"
        }
      ],
      "name": "removeFromWhitelist",
      "outputs": [],
      "stateMutability": "nonpayable",
      "type": "function"
    },
    {
      "inputs": [
        {
          "internalType": "bytes32",
          "name": "role",
          "type": "bytes32"
        },
        {
          "internalType": "address",
          "name": "account",
          "type": "address"
        }
      ],
      "name": "renounceRole",
      "outputs": [],
      "stateMutability": "nonpayable",
      "type": "function"
    },
    {
      "inputs": [
        {
          "internalType": "bytes32",
          "name": "role",
          "type": "bytes32"
        },
        {
          "internalType": "address",
          "name": "account",
          "type": "address"
        }
      ],
      "name": "revokeRole",
      "outputs": [],
      "stateMutability": "nonpayable",
      "type": "function"
    },
    {
      "inputs": [],
      "name": "snapshot",
      "outputs": [],
      "stateMutability": "nonpayable",
      "type": "function"
    },
    {
      "inputs": [],
      "name": "snapshotCount",
      "outputs": [
        {
          "internalType": "uint256",
          "name": "",
          "type": "uint256"
        }
      ],
      "stateMutability": "view",
      "type": "function"
    },
    {
      "inputs": [
        {
          "internalType": "bytes4",
          "name": "interfaceId",
          "type": "bytes4"
        }
      ],
      "name": "supportsInterface",
      "outputs": [
        {
          "internalType": "bool",
          "name": "",
          "type": "bool"
        }
      ],
      "stateMutability": "view",
      "type": "function"
    },
    {
      "inputs": [],
      "name": "symbol",
      "outputs": [
        {
          "internalType": "string",
          "name": "",
          "type": "string"
        }
      ],
      "stateMutability": "view",
      "type": "function"
    },
    {
      "inputs": [],
      "name": "totalBurn",
      "outputs": [
        {
          "internalType": "uint256",
          "name": "",
          "type": "uint256"
        }
      ],
      "stateMutability": "view",
      "type": "function"
    },
    {
      "inputs": [],
      "name": "totalMinted",
      "outputs": [
        {
          "internalType": "uint256",
          "name": "",
          "type": "uint256"
        }
      ],
      "stateMutability": "view",
      "type": "function"
    },
    {
      "inputs": [],
      "name": "totalSupply",
      "outputs": [
        {
          "internalType": "uint256",
          "name": "",
          "type": "uint256"
        }
      ],
      "stateMutability": "view",
      "type": "function"
    },
    {
      "inputs": [
        {
          "internalType": "uint256",
          "name": "snapshotId",
          "type": "uint256"
        }
      ],
      "name": "totalSupplyAt",
      "outputs": [
        {
          "internalType": "uint256",
          "name": "",
          "type": "uint256"
        }
      ],
      "stateMutability": "view",
      "type": "function"
    },
    {
      "inputs": [
        {
          "internalType": "address",
          "name": "to",
          "type": "address"
        },
        {
          "internalType": "uint256",
          "name": "amount",
          "type": "uint256"
        }
      ],
      "name": "transfer",
      "outputs": [
        {
          "internalType": "bool",
          "name": "",
          "type": "bool"
        }
      ],
      "stateMutability": "nonpayable",
      "type": "function"
    },
    {
      "inputs": [
        {
          "internalType": "address",
          "name": "from",
          "type": "address"
        },
        {
          "internalType": "address",
          "name": "to",
          "type": "address"
        },
        {
          "internalType": "uint256",
          "name": "amount",
          "type": "uint256"
        }
      ],
      "name": "transferFrom",
      "outputs": [
        {
          "internalType": "bool",
          "name": "",
          "type": "bool"
        }
      ],
      "stateMutability": "nonpayable",
      "type": "function"
    },
    {
      "inputs": [],
      "name": "unpause",
      "outputs": [],
      "stateMutability": "nonpayable",
      "type": "function"
    }
  ],
  "transactionHash": "0x9c337c72fef98464bbb62454b8ab082dbf5cfefb54aa81f908de53385419dd53",
  "args": [
    "1000000000000000000000000000",
    "0xffbfA76E205AAAfFdFECA5Ad73f034b927d47211"
  ],
  "numDeployments": 2,
  "solcInputHash": "daf01a2be773a1a06633d5152dd989cb",
  "bytecode": "0x60806040523480156200001157600080fd5b5060405162002ad738038062002ad7833981016040819052620000349162000802565b81816040518060400160405280600681526020016534a9b0bb32b960d11b8152506040518060400160405280600381526020016229a0ab60e91b815250818181600390805190602001906200008b9291906200075c565b508051620000a19060049060208401906200075c565b50506009805460ff1916905550620000c16000336200013e565b6200013e565b620000ed7f65d7a28e3265b37a6474929f336521b332c1681b933f6cb9f3376673440d862a336200013e565b620000f98385620001e3565b50505050620001327f5fdbd35e8da83ee755d5e62a539e5ed7f47126abede0b8b10f9ea43dc6eed07f620000bb6200013a60201b60201c565b5050620008df565b3390565b60008281526008602090815260408083206001600160a01b038516845290915290205460ff16620001df5760008281526008602090815260408083206001600160a01b03851684529091529020805460ff191660011790556200019e3390565b6001600160a01b0316816001600160a01b0316837f2f8788117e7eff1d82e926ec794901d17c78024a50270940304540a733656f0d60405160405180910390a45b5050565b620001df8282620001fa60201b62000b1d1760201c565b6200021182826200022e60201b62000b421760201c565b80600a600082825462000225919062000857565b90915550505050565b6001600160a01b0382166200028a5760405162461bcd60e51b815260206004820152601f60248201527f45524332303a206d696e7420746f20746865207a65726f20616464726573730060448201526064015b60405180910390fd5b620002986000838362000325565b8060026000828254620002ac919062000857565b90915550506001600160a01b03821660009081526020819052604081208054839290620002db90849062000857565b90915550506040518181526001600160a01b038316906000907fddf252ad1be2c89b69c2b068fc378daa952ba7f163c4a11628f55a4df523b3ef9060200160405180910390a35050565b6200032f6200034c565b620003478383836200039660201b62000c2d1760201c565b505050565b60095460ff1615620003945760405162461bcd60e51b815260206004820152601060248201526f14185d5cd8589b194e881c185d5cd95960821b604482015260640162000281565b565b620003ae8383836200040260201b62000c801760201c565b6001600160a01b038316620003d257620003c88262000424565b620003476200045c565b6001600160a01b038216620003ec57620003c88362000424565b620003f78362000424565b620003478262000424565b6200040c6200034c565b620003478383836200046c60201b62000c8f1760201c565b6001600160a01b0381166000908152600b602090815260408083209183905290912054620004599190620006a2565b620006a2565b50565b62000394600c6200045360025490565b60075460ff161562000520576001600160a01b03831660009081526006602052604090205460ff1680620004b857506001600160a01b03821660009081526006602052604090205460ff165b620005205760405162461bcd60e51b815260206004820152603160248201527f57686974656c6973743a2073656e646572206f72207265636569766572206973604482015270081b9bdd081a5b881dda1a5d195b1a5cdd607a1b606482015260840162000281565b6001600160a01b03831660009081526005602052604090205460ff1615620005955760405162461bcd60e51b815260206004820152602160248201527f426c61636b6c6973743a2073656e64657220697320696e20626c61636b6c69736044820152601d60fa1b606482015260840162000281565b6001600160a01b03821660009081526005602052604090205460ff16156200060c5760405162461bcd60e51b815260206004820152602360248201527f426c61636b6c6973743a20726563656976657220697320696e20626c61636b6c6044820152621a5cdd60ea1b606482015260840162000281565b6001600160a01b03831633146200068a573360009081526005602052604090205460ff16156200068a5760405162461bcd60e51b815260206004820152602260248201527f426c61636b6c6973743a207370656e64657220697320696e20626c61636b6c696044820152611cdd60f21b606482015260840162000281565b620003478383836200034760201b620006c51760201c565b6000620006ae620006f1565b905080620006bc846200070f565b101562000347578254600180820185556000858152602080822090930193909355938401805494850181558252902090910155565b60006200070a600e6200075860201b62000ea21760201c565b905090565b80546000906200072157506000919050565b81548290620007339060019062000872565b815481106200074657620007466200088c565b90600052602060002001549050919050565b5490565b8280546200076a90620008a2565b90600052602060002090601f0160209004810192826200078e5760008555620007d9565b82601f10620007a957805160ff1916838001178555620007d9565b82800160010185558215620007d9579182015b82811115620007d9578251825591602001919060010190620007bc565b50620007e7929150620007eb565b5090565b5b80821115620007e75760008155600101620007ec565b600080604083850312156200081657600080fd5b825160208401519092506001600160a01b03811681146200083657600080fd5b809150509250929050565b634e487b7160e01b600052601160045260246000fd5b600082198211156200086d576200086d62000841565b500190565b60008282101562000887576200088762000841565b500390565b634e487b7160e01b600052603260045260246000fd5b600181811c90821680620008b757607f821691505b60208210811415620008d957634e487b7160e01b600052602260045260246000fd5b50919050565b6121e880620008ef6000396000f3fe608060405234801561001057600080fd5b50600436106102485760003560e01c80637882298a1161013b578063a217fddf116100b8578063a9059cbb1161007c578063a9059cbb146104d5578063d547741f146104e8578063dd62ed3e146104fb578063e4aa25331461050e578063e63ab1e91461053a57600080fd5b8063a217fddf1461049d578063a2309ff8146104a5578063a3fd3a7a146104ad578063a457c2d7146104b5578063a6a9e6c6146104c857600080fd5b806391d14854116100ff57806391d1485414610454578063935eb35f1461046757806395d89b411461047a5780639711715a14610482578063981b24d01461048a57600080fd5b80637882298a1461040b57806379cc6790146104135780637f649783146104265780638456cb591461043957806389daf7991461044157600080fd5b806339509351116101c9578063548db1741161018d578063548db174146103715780635c975abb146103845780635e359de01461038f5780637028e2cd146103bb57806370a08231146103e257600080fd5b806339509351146103285780633c9f861d1461033b5780633f4ba83a1461034357806342966c681461034b5780634ee2cd7e1461035e57600080fd5b806323b872dd1161021057806323b872dd146102bb578063248a9ca3146102ce5780632f2ff15d146102f1578063313ce5671461030657806336568abe1461031557600080fd5b806301ffc9a71461024d57806306fdde0314610275578063095ea7b31461028a578063098ab6a11461029d57806318160ddd146102b3575b600080fd5b61026061025b366004611d96565b610561565b60405190151581526020015b60405180910390f35b61027d610598565b60405161026c9190611dec565b610260610298366004611e36565b61062a565b6102a5610642565b60405190815260200161026c565b6002546102a5565b6102606102c9366004611e60565b61067c565b6102a56102dc366004611e9c565b60009081526008602052604090206001015490565b6103046102ff366004611eb5565b6106a0565b005b6040516012815260200161026c565b610304610323366004611eb5565b6106ca565b610260610336366004611e36565b61074d565b6102a561076f565b61030461078c565b610304610359366004611e9c565b6107c1565b6102a561036c366004611e36565b6107cb565b61030461037f366004611ee1565b610824565b60095460ff16610260565b61026061039d366004611f56565b6001600160a01b031660009081526006602052604090205460ff1690565b6102a57f5fdbd35e8da83ee755d5e62a539e5ed7f47126abede0b8b10f9ea43dc6eed07f81565b6102a56103f0366004611f56565b6001600160a01b031660009081526020819052604090205490565b61030461086b565b610304610421366004611e36565b61087e565b610304610434366004611ee1565b610893565b6103046108da565b61030461044f366004611ee1565b61090c565b610260610462366004611eb5565b610953565b610304610475366004611ee1565b61097e565b61027d6109c5565b6103046109d4565b6102a5610498366004611e9c565b610a06565b6102a5600081565b600a546102a5565b610304610a31565b6102606104c3366004611e36565b610a44565b6007546102609060ff1681565b6102606104e3366004611e36565b610abf565b6103046104f6366004611eb5565b610acd565b6102a5610509366004611f71565b610af2565b61026061051c366004611f56565b6001600160a01b031660009081526005602052604090205460ff1690565b6102a57f65d7a28e3265b37a6474929f336521b332c1681b933f6cb9f3376673440d862a81565b60006001600160e01b03198216637965db0b60e01b148061059257506301ffc9a760e01b6001600160e01b03198316145b92915050565b6060600380546105a790611f9b565b80601f01602080910402602001604051908101604052809291908181526020018280546105d390611f9b565b80156106205780601f106105f557610100808354040283529160200191610620565b820191906000526020600020905b81548152906001019060200180831161060357829003601f168201915b5050505050905090565b600033610638818585610ea6565b5060019392505050565b60007f5fdbd35e8da83ee755d5e62a539e5ed7f47126abede0b8b10f9ea43dc6eed07f61066e81610fca565b610676610fd4565b91505090565b60003361068a858285610fdf565b610695858585611059565b506001949350505050565b6000828152600860205260409020600101546106bb81610fca565b6106c58383611232565b505050565b6001600160a01b038116331461073f5760405162461bcd60e51b815260206004820152602f60248201527f416363657373436f6e74726f6c3a2063616e206f6e6c792072656e6f756e636560448201526e103937b632b9903337b91039b2b63360891b60648201526084015b60405180910390fd5b61074982826112b8565b5050565b6000336106388185856107608383610af2565b61076a9190611fec565b610ea6565b600061077a60025490565b600a546107879190612004565b905090565b7f65d7a28e3265b37a6474929f336521b332c1681b933f6cb9f3376673440d862a6107b681610fca565b6107be61131f565b50565b6107be3382611371565b6001600160a01b0382166000908152600b60205260408120819081906107f29085906114cb565b9150915081610819576001600160a01b03851660009081526020819052604090205461081b565b805b95945050505050565b600061082f81610fca565b6106c58383808060200260200160405190810160405280939291908181526020018383602002808284376000920191909152506115c292505050565b600061087681610fca565b6107be611668565b610889823383610fdf565b6107498282611371565b600061089e81610fca565b6106c583838080602002602001604051908101604052809392919081815260200183836020028082843760009201919091525061169d92505050565b7f65d7a28e3265b37a6474929f336521b332c1681b933f6cb9f3376673440d862a61090481610fca565b6107be61172e565b600061091781610fca565b6106c583838080602002602001604051908101604052809392919081815260200183836020028082843760009201919091525061176b92505050565b60009182526008602090815260408084206001600160a01b0393909316845291905290205460ff1690565b600061098981610fca565b6106c58383808060200260200160405190810160405280939291908181526020018383602002808284376000920191909152506117fc92505050565b6060600480546105a790611f9b565b7f5fdbd35e8da83ee755d5e62a539e5ed7f47126abede0b8b10f9ea43dc6eed07f6109fe81610fca565b61074961188d565b6000806000610a1684600c6114cb565b9150915081610a2757600254610a29565b805b949350505050565b6000610a3c81610fca565b6107be6118e7565b60003381610a528286610af2565b905083811015610ab25760405162461bcd60e51b815260206004820152602560248201527f45524332303a2064656372656173656420616c6c6f77616e63652062656c6f77604482015264207a65726f60d81b6064820152608401610736565b6106958286868403610ea6565b600033610638818585611059565b600082815260086020526040902060010154610ae881610fca565b6106c583836112b8565b6001600160a01b03918216600090815260016020908152604080832093909416825291909152205490565b610b278282610b42565b80600a6000828254610b399190611fec565b90915550505050565b6001600160a01b038216610b985760405162461bcd60e51b815260206004820152601f60248201527f45524332303a206d696e7420746f20746865207a65726f2061646472657373006044820152606401610736565b610ba460008383611918565b8060026000828254610bb69190611fec565b90915550506001600160a01b03821660009081526020819052604081208054839290610be3908490611fec565b90915550506040518181526001600160a01b038316906000907fddf252ad1be2c89b69c2b068fc378daa952ba7f163c4a11628f55a4df523b3ef9060200160405180910390a35050565b610c38838383610c80565b6001600160a01b038316610c5757610c4f8261192b565b6106c561195d565b6001600160a01b038216610c6e57610c4f8361192b565b610c778361192b565b6106c58261192b565b610c8861196d565b6106c58383835b60075460ff1615610d3f576001600160a01b03831660009081526006602052604090205460ff1680610cd957506001600160a01b03821660009081526006602052604090205460ff165b610d3f5760405162461bcd60e51b815260206004820152603160248201527f57686974656c6973743a2073656e646572206f72207265636569766572206973604482015270081b9bdd081a5b881dda1a5d195b1a5cdd607a1b6064820152608401610736565b6001600160a01b03831660009081526005602052604090205460ff1615610db25760405162461bcd60e51b815260206004820152602160248201527f426c61636b6c6973743a2073656e64657220697320696e20626c61636b6c69736044820152601d60fa1b6064820152608401610736565b6001600160a01b03821660009081526005602052604090205460ff1615610e275760405162461bcd60e51b815260206004820152602360248201527f426c61636b6c6973743a20726563656976657220697320696e20626c61636b6c6044820152621a5cdd60ea1b6064820152608401610736565b6001600160a01b03831633146106c5573360009081526005602052604090205460ff16156106c55760405162461bcd60e51b815260206004820152602260248201527f426c61636b6c6973743a207370656e64657220697320696e20626c61636b6c696044820152611cdd60f21b6064820152608401610736565b5490565b6001600160a01b038316610f085760405162461bcd60e51b8152602060048201526024808201527f45524332303a20617070726f76652066726f6d20746865207a65726f206164646044820152637265737360e01b6064820152608401610736565b6001600160a01b038216610f695760405162461bcd60e51b815260206004820152602260248201527f45524332303a20617070726f766520746f20746865207a65726f206164647265604482015261737360f01b6064820152608401610736565b6001600160a01b0383811660008181526001602090815260408083209487168084529482529182902085905590518481527f8c5be1e5ebec7d5bd14f71427d1e84f3dd0314c0f7b2291e5b200ac8c7c3b925910160405180910390a3505050565b6107be81336119b3565b6000610787600e5490565b6000610feb8484610af2565b9050600019811461105357818110156110465760405162461bcd60e51b815260206004820152601d60248201527f45524332303a20696e73756666696369656e7420616c6c6f77616e63650000006044820152606401610736565b6110538484848403610ea6565b50505050565b6001600160a01b0383166110bd5760405162461bcd60e51b815260206004820152602560248201527f45524332303a207472616e736665722066726f6d20746865207a65726f206164604482015264647265737360d81b6064820152608401610736565b6001600160a01b03821661111f5760405162461bcd60e51b815260206004820152602360248201527f45524332303a207472616e7366657220746f20746865207a65726f206164647260448201526265737360e81b6064820152608401610736565b61112a838383611918565b6001600160a01b038316600090815260208190526040902054818110156111a25760405162461bcd60e51b815260206004820152602660248201527f45524332303a207472616e7366657220616d6f756e7420657863656564732062604482015265616c616e636560d01b6064820152608401610736565b6001600160a01b038085166000908152602081905260408082208585039055918516815290812080548492906111d9908490611fec565b92505081905550826001600160a01b0316846001600160a01b03167fddf252ad1be2c89b69c2b068fc378daa952ba7f163c4a11628f55a4df523b3ef8460405161122591815260200190565b60405180910390a3611053565b61123c8282610953565b6107495760008281526008602090815260408083206001600160a01b03851684529091529020805460ff191660011790556112743390565b6001600160a01b0316816001600160a01b0316837f2f8788117e7eff1d82e926ec794901d17c78024a50270940304540a733656f0d60405160405180910390a45050565b6112c28282610953565b156107495760008281526008602090815260408083206001600160a01b0385168085529252808320805460ff1916905551339285917ff6391f5c32d9c69d2a47ea670b442974b53935d1edc7fd64eb21e047a839171b9190a45050565b611327611a3a565b6009805460ff191690557f5db9ee0a495bf2e6ff9c91a7834c1ba4fdd244a5e8aa4e537bd38aeae4b073aa335b6040516001600160a01b03909116815260200160405180910390a1565b6001600160a01b0382166113d15760405162461bcd60e51b815260206004820152602160248201527f45524332303a206275726e2066726f6d20746865207a65726f206164647265736044820152607360f81b6064820152608401610736565b6113dd82600083611918565b6001600160a01b038216600090815260208190526040902054818110156114515760405162461bcd60e51b815260206004820152602260248201527f45524332303a206275726e20616d6f756e7420657863656564732062616c616e604482015261636560f01b6064820152608401610736565b6001600160a01b0383166000908152602081905260408120838303905560028054849290611480908490612004565b90915550506040518281526000906001600160a01b038516907fddf252ad1be2c89b69c2b068fc378daa952ba7f163c4a11628f55a4df523b3ef9060200160405180910390a3505050565b600080600084116115175760405162461bcd60e51b815260206004820152601660248201527504552433230536e617073686f743a20696420697320360541b6044820152606401610736565b61151f610fd4565b84111561156e5760405162461bcd60e51b815260206004820152601d60248201527f4552433230536e617073686f743a206e6f6e6578697374656e742069640000006044820152606401610736565b600061157a8486611a83565b84549091508114156115935760008092509250506115bb565b60018460010182815481106115aa576115aa61201b565b906000526020600020015492509250505b9250929050565b60005b815181101561162a576000600660008484815181106115e6576115e661201b565b6020908102919091018101516001600160a01b03168252810191909152604001600020805460ff19169115159190911790558061162281612031565b9150506115c5565b507ff8ce93c76467f88de50b32f3da327bbd3c8e2dbbbe542441d3fb079127d1855881335b60405161165d92919061204c565b60405180910390a150565b6007805460ff191660011790557f7f93a45f70dde0bd08c45d334f84774f8aaa04a8b7c8349cf2837646445984db6113543390565b60005b8151811015611705576001600660008484815181106116c1576116c161201b565b6020908102919091018101516001600160a01b03168252810191909152604001600020805460ff1916911515919091179055806116fd81612031565b9150506116a0565b507f8ec05053eabbe22d02c22d6f38264dc48844a9124d46444242ae2f4a1060648a813361164f565b61173661196d565b6009805460ff191660011790557f62e78cea01bee320cd4e420270b5ea74000d11b0c9f74754ebdbfc544b05a2586113543390565b60005b81518110156117d35760006005600084848151811061178f5761178f61201b565b6020908102919091018101516001600160a01b03168252810191909152604001600020805460ff1916911515919091179055806117cb81612031565b91505061176e565b507f5a4725934bdecae9c9a0667e8d4c8d41439cab15714e5f728a05016c67a33329813361164f565b60005b8151811015611864576001600560008484815181106118205761182061201b565b6020908102919091018101516001600160a01b03168252810191909152604001600020805460ff19169115159190911790558061185c81612031565b9150506117ff565b507f83fbe52cf5eb3dcf05adec4bc136712a8fd2cf73ad5eb0945332af6aaf87d8a7813361164f565b600061189d600e80546001019055565b60006118a7610fd4565b90507f8030e83b04d87bef53480e26263266d6ca66863aa8506aca6f2559d18aa1cb67816040516118da91815260200190565b60405180910390a1919050565b6007805460ff191690557fc0e106cf568e50698fdbde1eff56f5a5c966cc7958e37e276918e9e4ccdf8cd433611354565b61192061196d565b6106c5838383610c2d565b6001600160a01b0381166000908152600b6020908152604080832091839052909120546107be9190611b46565b611b46565b61196b600c61195860025490565b565b60095460ff161561196b5760405162461bcd60e51b815260206004820152601060248201526f14185d5cd8589b194e881c185d5cd95960821b6044820152606401610736565b6119bd8282610953565b1580156119d257506119d0600082610953565b155b15610749576119eb816001600160a01b03166014611b90565b6119f6836020611b90565b611a0260006020611b90565b604051602001611a14939291906120a9565b60408051601f198184030181529082905262461bcd60e51b825261073691600401611dec565b60095460ff1661196b5760405162461bcd60e51b815260206004820152601460248201527314185d5cd8589b194e881b9bdd081c185d5cd95960621b6044820152606401610736565b8154600090611a9457506000610592565b82546000905b80821015611af0576000611aae8383611d33565b905084868281548110611ac357611ac361201b565b90600052602060002001541115611adc57809150611aea565b611ae7816001611fec565b92505b50611a9a565b600082118015611b2557508385611b08600185612004565b81548110611b1857611b1861201b565b9060005260206000200154145b15611b3e57611b35600183612004565b92505050610592565b509050610592565b6000611b50610fd4565b905080611b5c84611d4e565b10156106c5578254600180820185556000858152602080822090930193909355938401805494850181558252902090910155565b60606000611b9f836002612144565b611baa906002611fec565b67ffffffffffffffff811115611bc257611bc2612163565b6040519080825280601f01601f191660200182016040528015611bec576020820181803683370190505b509050600360fc1b81600081518110611c0757611c0761201b565b60200101906001600160f81b031916908160001a905350600f60fb1b81600181518110611c3657611c3661201b565b60200101906001600160f81b031916908160001a9053506000611c5a846002612144565b611c65906001611fec565b90505b6001811115611cdd576f181899199a1a9b1b9c1cb0b131b232b360811b85600f1660108110611c9957611c9961201b565b1a60f81b828281518110611caf57611caf61201b565b60200101906001600160f81b031916908160001a90535060049490941c93611cd681612179565b9050611c68565b508315611d2c5760405162461bcd60e51b815260206004820181905260248201527f537472696e67733a20686578206c656e67746820696e73756666696369656e746044820152606401610736565b9392505050565b6000611d426002848418612190565b611d2c90848416611fec565b8054600090611d5f57506000919050565b81548290611d6f90600190612004565b81548110611d7f57611d7f61201b565b90600052602060002001549050919050565b919050565b600060208284031215611da857600080fd5b81356001600160e01b031981168114611d2c57600080fd5b60005b83811015611ddb578181015183820152602001611dc3565b838111156110535750506000910152565b6020815260008251806020840152611e0b816040850160208701611dc0565b601f01601f19169190910160400192915050565b80356001600160a01b0381168114611d9157600080fd5b60008060408385031215611e4957600080fd5b611e5283611e1f565b946020939093013593505050565b600080600060608486031215611e7557600080fd5b611e7e84611e1f565b9250611e8c60208501611e1f565b9150604084013590509250925092565b600060208284031215611eae57600080fd5b5035919050565b60008060408385031215611ec857600080fd5b82359150611ed860208401611e1f565b90509250929050565b60008060208385031215611ef457600080fd5b823567ffffffffffffffff80821115611f0c57600080fd5b818501915085601f830112611f2057600080fd5b813581811115611f2f57600080fd5b8660208260051b8501011115611f4457600080fd5b60209290920196919550909350505050565b600060208284031215611f6857600080fd5b611d2c82611e1f565b60008060408385031215611f8457600080fd5b611f8d83611e1f565b9150611ed860208401611e1f565b600181811c90821680611faf57607f821691505b60208210811415611fd057634e487b7160e01b600052602260045260246000fd5b50919050565b634e487b7160e01b600052601160045260246000fd5b60008219821115611fff57611fff611fd6565b500190565b60008282101561201657612016611fd6565b500390565b634e487b7160e01b600052603260045260246000fd5b600060001982141561204557612045611fd6565b5060010190565b604080825283519082018190526000906020906060840190828701845b8281101561208e5781516001600160a01b031684529284019290840190600101612069565b5050506001600160a01b039490941692019190915250919050565b7f416363657373436f6e74726f6c3a206163636f756e74200000000000000000008152600084516120e1816017850160208901611dc0565b7001034b99036b4b9b9b4b733903937b6329607d1b6017918401918201528451612112816028840160208901611dc0565b6301037b9160e51b60289290910191820152835161213781602c840160208801611dc0565b01602c0195945050505050565b600081600019048311821515161561215e5761215e611fd6565b500290565b634e487b7160e01b600052604160045260246000fd5b60008161218857612188611fd6565b506000190190565b6000826121ad57634e487b7160e01b600052601260045260246000fd5b50049056fea264697066735822122079421a018f17b97a333cb17d48df34208ac72641501203afe53ffeb49745d3c964736f6c634300080b0033",
  "devdoc": {
    "kind": "dev",
    "methods": {
      "allowance(address,address)": {
        "details": "See {IERC20-allowance}."
      },
      "approve(address,uint256)": {
        "details": "See {IERC20-approve}. NOTE: If `amount` is the maximum `uint256`, the allowance is not updated on `transferFrom`. This is semantically equivalent to an infinite approval. Requirements: - `spender` cannot be the zero address."
      },
      "balanceOf(address)": {
        "details": "See {IERC20-balanceOf}."
      },
      "balanceOfAt(address,uint256)": {
        "details": "Retrieves the balance of `account` at the time `snapshotId` was created."
      },
      "burn(uint256)": {
        "details": "Destroys `amount` tokens from the caller. See {ERC20-_burn}."
      },
      "burnFrom(address,uint256)": {
        "details": "Destroys `amount` tokens from `account`, deducting from the caller's allowance. See {ERC20-_burn} and {ERC20-allowance}. Requirements: - the caller must have allowance for ``accounts``'s tokens of at least `amount`."
      },
      "decimals()": {
        "details": "Returns the number of decimals used to get its user representation. For example, if `decimals` equals `2`, a balance of `505` tokens should be displayed to a user as `5.05` (`505 / 10 ** 2`). Tokens usually opt for a value of 18, imitating the relationship between Ether and Wei. This is the value {ERC20} uses, unless this function is overridden; NOTE: This information is only used for _display_ purposes: it in no way affects any of the arithmetic of the contract, including {IERC20-balanceOf} and {IERC20-transfer}."
      },
      "decreaseAllowance(address,uint256)": {
        "details": "Atomically decreases the allowance granted to `spender` by the caller. This is an alternative to {approve} that can be used as a mitigation for problems described in {IERC20-approve}. Emits an {Approval} event indicating the updated allowance. Requirements: - `spender` cannot be the zero address. - `spender` must have allowance for the caller of at least `subtractedValue`."
      },
      "getRoleAdmin(bytes32)": {
        "details": "Returns the admin role that controls `role`. See {grantRole} and {revokeRole}. To change a role's admin, use {_setRoleAdmin}."
      },
      "grantRole(bytes32,address)": {
        "details": "Grants `role` to `account`. If `account` had not been already granted `role`, emits a {RoleGranted} event. Requirements: - the caller must have ``role``'s admin role. May emit a {RoleGranted} event."
      },
      "hasRole(bytes32,address)": {
        "details": "Returns `true` if `account` has been granted `role`."
      },
      "increaseAllowance(address,uint256)": {
        "details": "Atomically increases the allowance granted to `spender` by the caller. This is an alternative to {approve} that can be used as a mitigation for problems described in {IERC20-approve}. Emits an {Approval} event indicating the updated allowance. Requirements: - `spender` cannot be the zero address."
      },
      "name()": {
        "details": "Returns the name of the token."
      },
      "paused()": {
        "details": "Returns true if the contract is paused, and false otherwise."
      },
      "renounceRole(bytes32,address)": {
        "details": "Revokes `role` from the calling account. Roles are often managed via {grantRole} and {revokeRole}: this function's purpose is to provide a mechanism for accounts to lose their privileges if they are compromised (such as when a trusted device is misplaced). If the calling account had been revoked `role`, emits a {RoleRevoked} event. Requirements: - the caller must be `account`. May emit a {RoleRevoked} event."
      },
      "revokeRole(bytes32,address)": {
        "details": "Revokes `role` from `account`. If `account` had been granted `role`, emits a {RoleRevoked} event. Requirements: - the caller must have ``role``'s admin role. May emit a {RoleRevoked} event."
      },
      "supportsInterface(bytes4)": {
        "details": "See {IERC165-supportsInterface}."
      },
      "symbol()": {
        "details": "Returns the symbol of the token, usually a shorter version of the name."
      },
      "totalSupply()": {
        "details": "See {IERC20-totalSupply}."
      },
      "totalSupplyAt(uint256)": {
        "details": "Retrieves the total supply at the time `snapshotId` was created."
      },
      "transfer(address,uint256)": {
        "details": "See {IERC20-transfer}. Requirements: - `to` cannot be the zero address. - the caller must have a balance of at least `amount`."
      },
      "transferFrom(address,address,uint256)": {
        "details": "See {IERC20-transferFrom}. Emits an {Approval} event indicating the updated allowance. This is not required by the EIP. See the note at the beginning of {ERC20}. NOTE: Does not update the allowance if the current allowance is the maximum `uint256`. Requirements: - `from` and `to` cannot be the zero address. - `from` must have a balance of at least `amount`. - the caller must have allowance for ``from``'s tokens of at least `amount`."
      }
    },
    "version": 1
  },
  "userdoc": {
    "kind": "user",
    "methods": {},
    "version": 1
  },
  "storageLayout": {
    "storage": [
      {
        "astId": 2450,
        "contract": "contracts/tokens/Token1.sol:Token1",
        "label": "_balances",
        "offset": 0,
        "slot": "0",
        "type": "t_mapping(t_address,t_uint256)"
      },
      {
        "astId": 2456,
        "contract": "contracts/tokens/Token1.sol:Token1",
        "label": "_allowances",
        "offset": 0,
        "slot": "1",
        "type": "t_mapping(t_address,t_mapping(t_address,t_uint256))"
      },
      {
        "astId": 2458,
        "contract": "contracts/tokens/Token1.sol:Token1",
        "label": "_totalSupply",
        "offset": 0,
        "slot": "2",
        "type": "t_uint256"
      },
      {
        "astId": 2460,
        "contract": "contracts/tokens/Token1.sol:Token1",
        "label": "_name",
        "offset": 0,
        "slot": "3",
        "type": "t_string_storage"
      },
      {
        "astId": 2462,
        "contract": "contracts/tokens/Token1.sol:Token1",
        "label": "_symbol",
        "offset": 0,
        "slot": "4",
        "type": "t_string_storage"
      },
      {
        "astId": 12573,
        "contract": "contracts/tokens/Token1.sol:Token1",
        "label": "blacklist",
        "offset": 0,
        "slot": "5",
        "type": "t_mapping(t_address,t_bool)"
      },
      {
        "astId": 12577,
        "contract": "contracts/tokens/Token1.sol:Token1",
        "label": "whitelist",
        "offset": 0,
        "slot": "6",
        "type": "t_mapping(t_address,t_bool)"
      },
      {
        "astId": 12579,
        "contract": "contracts/tokens/Token1.sol:Token1",
        "label": "isWhitelistRestrictionMode",
        "offset": 0,
        "slot": "7",
        "type": "t_bool"
      },
      {
        "astId": 178,
        "contract": "contracts/tokens/Token1.sol:Token1",
        "label": "_roles",
        "offset": 0,
        "slot": "8",
        "type": "t_mapping(t_bytes32,t_struct(RoleData)173_storage)"
      },
      {
        "astId": 677,
        "contract": "contracts/tokens/Token1.sol:Token1",
        "label": "_paused",
        "offset": 0,
        "slot": "9",
        "type": "t_bool"
      },
      {
        "astId": 13431,
        "contract": "contracts/tokens/Token1.sol:Token1",
        "label": "_totalMinted",
        "offset": 0,
        "slot": "10",
        "type": "t_uint256"
      },
      {
        "astId": 3170,
        "contract": "contracts/tokens/Token1.sol:Token1",
        "label": "_accountBalanceSnapshots",
        "offset": 0,
        "slot": "11",
        "type": "t_mapping(t_address,t_struct(Snapshots)3165_storage)"
      },
      {
        "astId": 3173,
        "contract": "contracts/tokens/Token1.sol:Token1",
        "label": "_totalSupplySnapshots",
        "offset": 0,
        "slot": "12",
        "type": "t_struct(Snapshots)3165_storage"
      },
      {
        "astId": 3176,
        "contract": "contracts/tokens/Token1.sol:Token1",
        "label": "_currentSnapshotId",
        "offset": 0,
        "slot": "14",
        "type": "t_struct(Counter)4220_storage"
      }
    ],
    "types": {
      "t_address": {
        "encoding": "inplace",
        "label": "address",
        "numberOfBytes": "20"
      },
      "t_array(t_uint256)dyn_storage": {
        "base": "t_uint256",
        "encoding": "dynamic_array",
        "label": "uint256[]",
        "numberOfBytes": "32"
      },
      "t_bool": {
        "encoding": "inplace",
        "label": "bool",
        "numberOfBytes": "1"
      },
      "t_bytes32": {
        "encoding": "inplace",
        "label": "bytes32",
        "numberOfBytes": "32"
      },
      "t_mapping(t_address,t_bool)": {
        "encoding": "mapping",
        "key": "t_address",
        "label": "mapping(address => bool)",
        "numberOfBytes": "32",
        "value": "t_bool"
      },
      "t_mapping(t_address,t_mapping(t_address,t_uint256))": {
        "encoding": "mapping",
        "key": "t_address",
        "label": "mapping(address => mapping(address => uint256))",
        "numberOfBytes": "32",
        "value": "t_mapping(t_address,t_uint256)"
      },
      "t_mapping(t_address,t_struct(Snapshots)3165_storage)": {
        "encoding": "mapping",
        "key": "t_address",
        "label": "mapping(address => struct ERC20Snapshot.Snapshots)",
        "numberOfBytes": "32",
        "value": "t_struct(Snapshots)3165_storage"
      },
      "t_mapping(t_address,t_uint256)": {
        "encoding": "mapping",
        "key": "t_address",
        "label": "mapping(address => uint256)",
        "numberOfBytes": "32",
        "value": "t_uint256"
      },
      "t_mapping(t_bytes32,t_struct(RoleData)173_storage)": {
        "encoding": "mapping",
        "key": "t_bytes32",
        "label": "mapping(bytes32 => struct AccessControl.RoleData)",
        "numberOfBytes": "32",
        "value": "t_struct(RoleData)173_storage"
      },
      "t_string_storage": {
        "encoding": "bytes",
        "label": "string",
        "numberOfBytes": "32"
      },
      "t_struct(Counter)4220_storage": {
        "encoding": "inplace",
        "label": "struct Counters.Counter",
        "members": [
          {
            "astId": 4219,
            "contract": "contracts/tokens/Token1.sol:Token1",
            "label": "_value",
            "offset": 0,
            "slot": "0",
            "type": "t_uint256"
          }
        ],
        "numberOfBytes": "32"
      },
      "t_struct(RoleData)173_storage": {
        "encoding": "inplace",
        "label": "struct AccessControl.RoleData",
        "members": [
          {
            "astId": 170,
            "contract": "contracts/tokens/Token1.sol:Token1",
            "label": "members",
            "offset": 0,
            "slot": "0",
            "type": "t_mapping(t_address,t_bool)"
          },
          {
            "astId": 172,
            "contract": "contracts/tokens/Token1.sol:Token1",
            "label": "adminRole",
            "offset": 0,
            "slot": "1",
            "type": "t_bytes32"
          }
        ],
        "numberOfBytes": "64"
      },
      "t_struct(Snapshots)3165_storage": {
        "encoding": "inplace",
        "label": "struct ERC20Snapshot.Snapshots",
        "members": [
          {
            "astId": 3161,
            "contract": "contracts/tokens/Token1.sol:Token1",
            "label": "ids",
            "offset": 0,
            "slot": "0",
            "type": "t_array(t_uint256)dyn_storage"
          },
          {
            "astId": 3164,
            "contract": "contracts/tokens/Token1.sol:Token1",
            "label": "values",
            "offset": 0,
            "slot": "1",
            "type": "t_array(t_uint256)dyn_storage"
          }
        ],
        "numberOfBytes": "64"
      },
      "t_uint256": {
        "encoding": "inplace",
        "label": "uint256",
        "numberOfBytes": "32"
      }
    }
  }
}