{
  "address": "0x88948bdd936305C4fA24B758e1569509d35A0232",
  "abi": [
    {
      "inputs": [
        {
          "internalType": "address",
          "name": "tokenAddress_",
          "type": "address"
        },
        {
          "internalType": "address",
          "name": "tokenPool_",
          "type": "address"
        },
        {
          "internalType": "address",
          "name": "changeTokenAddress_",
          "type": "address"
        },
        {
          "internalType": "address",
          "name": "changeTokenPool_",
          "type": "address"
        },
        {
          "internalType": "uint256",
          "name": "swapRate_",
          "type": "uint256"
        }
      ],
      "stateMutability": "nonpayable",
      "type": "constructor"
    },
    {
      "anonymous": false,
      "inputs": [
        {
          "indexed": false,
          "internalType": "address",
          "name": "account",
          "type": "address"
        }
      ],
      "name": "Paused",
      "type": "event"
    },
    {
      "anonymous": false,
      "inputs": [
        {
          "indexed": true,
          "internalType": "bytes32",
          "name": "role",
          "type": "bytes32"
        },
        {
          "indexed": true,
          "internalType": "bytes32",
          "name": "previousAdminRole",
          "type": "bytes32"
        },
        {
          "indexed": true,
          "internalType": "bytes32",
          "name": "newAdminRole",
          "type": "bytes32"
        }
      ],
      "name": "RoleAdminChanged",
      "type": "event"
    },
    {
      "anonymous": false,
      "inputs": [
        {
          "indexed": true,
          "internalType": "bytes32",
          "name": "role",
          "type": "bytes32"
        },
        {
          "indexed": true,
          "internalType": "address",
          "name": "account",
          "type": "address"
        },
        {
          "indexed": true,
          "internalType": "address",
          "name": "sender",
          "type": "address"
        }
      ],
      "name": "RoleGranted",
      "type": "event"
    },
    {
      "anonymous": false,
      "inputs": [
        {
          "indexed": true,
          "internalType": "bytes32",
          "name": "role",
          "type": "bytes32"
        },
        {
          "indexed": true,
          "internalType": "address",
          "name": "account",
          "type": "address"
        },
        {
          "indexed": true,
          "internalType": "address",
          "name": "sender",
          "type": "address"
        }
      ],
      "name": "RoleRevoked",
      "type": "event"
    },
    {
      "anonymous": false,
      "inputs": [
        {
          "indexed": true,
          "internalType": "address",
          "name": "buyer",
          "type": "address"
        },
        {
          "indexed": false,
          "internalType": "uint256",
          "name": "amountToken",
          "type": "uint256"
        },
        {
          "indexed": false,
          "internalType": "uint256",
          "name": "amountChangeToken",
          "type": "uint256"
        }
      ],
      "name": "TokensPurchased",
      "type": "event"
    },
    {
      "anonymous": false,
      "inputs": [
        {
          "indexed": true,
          "internalType": "address",
          "name": "seller",
          "type": "address"
        },
        {
          "indexed": false,
          "internalType": "uint256",
          "name": "amountToken",
          "type": "uint256"
        },
        {
          "indexed": false,
          "internalType": "uint256",
          "name": "amountChangeToken",
          "type": "uint256"
        }
      ],
      "name": "TokensSold",
      "type": "event"
    },
    {
      "anonymous": false,
      "inputs": [
        {
          "indexed": false,
          "internalType": "address",
          "name": "account",
          "type": "address"
        }
      ],
      "name": "Unpaused",
      "type": "event"
    },
    {
      "inputs": [],
      "name": "DEFAULT_ADMIN_ROLE",
      "outputs": [
        {
          "internalType": "bytes32",
          "name": "",
          "type": "bytes32"
        }
      ],
      "stateMutability": "view",
      "type": "function"
    },
    {
      "inputs": [],
      "name": "DIVIDER",
      "outputs": [
        {
          "internalType": "uint256",
          "name": "",
          "type": "uint256"
        }
      ],
      "stateMutability": "view",
      "type": "function"
    },
    {
      "inputs": [
        {
          "internalType": "uint256",
          "name": "_amountChangeToken",
          "type": "uint256"
        }
      ],
      "name": "buyTokens",
      "outputs": [],
      "stateMutability": "nonpayable",
      "type": "function"
    },
    {
      "inputs": [],
      "name": "changeToken",
      "outputs": [
        {
          "internalType": "contract IERC20",
          "name": "",
          "type": "address"
        }
      ],
      "stateMutability": "view",
      "type": "function"
    },
    {
      "inputs": [],
      "name": "disableSell",
      "outputs": [],
      "stateMutability": "nonpayable",
      "type": "function"
    },
    {
      "inputs": [],
      "name": "enableSell",
      "outputs": [],
      "stateMutability": "nonpayable",
      "type": "function"
    },
    {
      "inputs": [],
      "name": "getChangeTokenReserve",
      "outputs": [
        {
          "internalType": "uint256",
          "name": "",
          "type": "uint256"
        }
      ],
      "stateMutability": "view",
      "type": "function"
    },
    {
      "inputs": [
        {
          "internalType": "uint256",
          "name": "_amountToken",
          "type": "uint256"
        }
      ],
      "name": "getEquivalentChangeTokenEstimate",
      "outputs": [
        {
          "internalType": "uint256",
          "name": "",
          "type": "uint256"
        }
      ],
      "stateMutability": "view",
      "type": "function"
    },
    {
      "inputs": [
        {
          "internalType": "uint256",
          "name": "_amountChangeToken",
          "type": "uint256"
        }
      ],
      "name": "getEquivalentTokenEstimate",
      "outputs": [
        {
          "internalType": "uint256",
          "name": "",
          "type": "uint256"
        }
      ],
      "stateMutability": "view",
      "type": "function"
    },
    {
      "inputs": [
        {
          "internalType": "bytes32",
          "name": "role",
          "type": "bytes32"
        }
      ],
      "name": "getRoleAdmin",
      "outputs": [
        {
          "internalType": "bytes32",
          "name": "",
          "type": "bytes32"
        }
      ],
      "stateMutability": "view",
      "type": "function"
    },
    {
      "inputs": [],
      "name": "getTokenReserve",
      "outputs": [
        {
          "internalType": "uint256",
          "name": "",
          "type": "uint256"
        }
      ],
      "stateMutability": "view",
      "type": "function"
    },
    {
      "inputs": [
        {
          "internalType": "bytes32",
          "name": "role",
          "type": "bytes32"
        },
        {
          "internalType": "address",
          "name": "account",
          "type": "address"
        }
      ],
      "name": "grantRole",
      "outputs": [],
      "stateMutability": "nonpayable",
      "type": "function"
    },
    {
      "inputs": [
        {
          "internalType": "bytes32",
          "name": "role",
          "type": "bytes32"
        },
        {
          "internalType": "address",
          "name": "account",
          "type": "address"
        }
      ],
      "name": "hasRole",
      "outputs": [
        {
          "internalType": "bool",
          "name": "",
          "type": "bool"
        }
      ],
      "stateMutability": "view",
      "type": "function"
    },
    {
      "inputs": [],
      "name": "isSellAvailable",
      "outputs": [
        {
          "internalType": "bool",
          "name": "",
          "type": "bool"
        }
      ],
      "stateMutability": "view",
      "type": "function"
    },
    {
      "inputs": [],
      "name": "pause",
      "outputs": [],
      "stateMutability": "nonpayable",
      "type": "function"
    },
    {
      "inputs": [],
      "name": "paused",
      "outputs": [
        {
          "internalType": "bool",
          "name": "",
          "type": "bool"
        }
      ],
      "stateMutability": "view",
      "type": "function"
    },
    {
      "inputs": [
        {
          "internalType": "bytes32",
          "name": "role",
          "type": "bytes32"
        },
        {
          "internalType": "address",
          "name": "account",
          "type": "address"
        }
      ],
      "name": "renounceRole",
      "outputs": [],
      "stateMutability": "nonpayable",
      "type": "function"
    },
    {
      "inputs": [
        {
          "internalType": "bytes32",
          "name": "role",
          "type": "bytes32"
        },
        {
          "internalType": "address",
          "name": "account",
          "type": "address"
        }
      ],
      "name": "revokeRole",
      "outputs": [],
      "stateMutability": "nonpayable",
      "type": "function"
    },
    {
      "inputs": [],
      "name": "sellTokenCommission",
      "outputs": [
        {
          "internalType": "uint256",
          "name": "",
          "type": "uint256"
        }
      ],
      "stateMutability": "view",
      "type": "function"
    },
    {
      "inputs": [
        {
          "internalType": "uint256",
          "name": "_amountToken",
          "type": "uint256"
        }
      ],
      "name": "sellTokens",
      "outputs": [],
      "stateMutability": "nonpayable",
      "type": "function"
    },
    {
      "inputs": [
        {
          "internalType": "bytes4",
          "name": "interfaceId",
          "type": "bytes4"
        }
      ],
      "name": "supportsInterface",
      "outputs": [
        {
          "internalType": "bool",
          "name": "",
          "type": "bool"
        }
      ],
      "stateMutability": "view",
      "type": "function"
    },
    {
      "inputs": [],
      "name": "swapRate",
      "outputs": [
        {
          "internalType": "uint256",
          "name": "",
          "type": "uint256"
        }
      ],
      "stateMutability": "view",
      "type": "function"
    },
    {
      "inputs": [],
      "name": "token",
      "outputs": [
        {
          "internalType": "contract IERC20",
          "name": "",
          "type": "address"
        }
      ],
      "stateMutability": "view",
      "type": "function"
    },
    {
      "inputs": [],
      "name": "unpause",
      "outputs": [],
      "stateMutability": "nonpayable",
      "type": "function"
    },
    {
      "inputs": [
        {
          "internalType": "contract IERC20",
          "name": "token_",
          "type": "address"
        }
      ],
      "name": "updateChangeToken",
      "outputs": [],
      "stateMutability": "nonpayable",
      "type": "function"
    },
    {
      "inputs": [
        {
          "internalType": "address",
          "name": "pool",
          "type": "address"
        }
      ],
      "name": "updateChangeTokenPool",
      "outputs": [],
      "stateMutability": "nonpayable",
      "type": "function"
    },
    {
      "inputs": [
        {
          "internalType": "uint256",
          "name": "swapRate_",
          "type": "uint256"
        }
      ],
      "name": "updateSwapRate",
      "outputs": [],
      "stateMutability": "nonpayable",
      "type": "function"
    },
    {
      "inputs": [
        {
          "internalType": "contract IERC20",
          "name": "token_",
          "type": "address"
        }
      ],
      "name": "updateToken",
      "outputs": [],
      "stateMutability": "nonpayable",
      "type": "function"
    },
    {
      "inputs": [
        {
          "internalType": "address",
          "name": "pool",
          "type": "address"
        }
      ],
      "name": "updateTokenPool",
      "outputs": [],
      "stateMutability": "nonpayable",
      "type": "function"
    },
    {
      "inputs": [
        {
          "internalType": "uint256",
          "name": "sellTokenCommission_",
          "type": "uint256"
        }
      ],
      "name": "updatesellTokenCommission",
      "outputs": [],
      "stateMutability": "nonpayable",
      "type": "function"
    }
  ],
  "transactionHash": "0xeb17594c25c60b5a4d4bca0bf318c483ad50c8a7d7f083259f40d660007f1059",
  "args": [
    "0x663cA197fdC464D131737a37bE850c4A038400BA",
    "0xf982D706f37Cb781D567395877EC35eDCB7Cf65C",
    "0x616fcd8FB7c2A556eCB1fE414324dDDCEE6d8b4E",
    "0xf982D706f37Cb781D567395877EC35eDCB7Cf65C",
    1000
  ],
  "numDeployments": 3,
  "solcInputHash": "daf01a2be773a1a06633d5152dd989cb",
  "bytecode": "0x60806040526103e86002556012600355600660045560646006553480156200002657600080fd5b50604051620016b4380380620016b483398101604081905262000049916200017e565b6001805460ff1916905562000060600033620000c0565b600555600780546001600160a01b0395861661010002610100600160a81b0319909116179055600980549285166001600160a01b03199384161790556008805493851693831693909317909255600a8054929093169116179055620001e5565b6000828152602081815260408083206001600160a01b038516845290915290205460ff166200015d576000828152602081815260408083206001600160a01b03851684529091529020805460ff191660011790556200011c3390565b6001600160a01b0316816001600160a01b0316837f2f8788117e7eff1d82e926ec794901d17c78024a50270940304540a733656f0d60405160405180910390a45b5050565b80516001600160a01b03811681146200017957600080fd5b919050565b600080600080600060a086880312156200019757600080fd5b620001a28662000161565b9450620001b26020870162000161565b9350620001c26040870162000161565b9250620001d26060870162000161565b9150608086015190509295509295909350565b6114bf80620001f56000396000f3fe608060405234801561001057600080fd5b50600436106101da5760003560e01c80637a35eb6611610104578063cd58c872116100a2578063f1d9f88b11610071578063f1d9f88b146103aa578063f3e59414146103b2578063f73c41ff146103c5578063fc0c546a146103d857600080fd5b8063cd58c87214610346578063d547741f14610371578063df9ae2bb14610384578063e69f365c1461039757600080fd5b806391d14854116100de57806391d14854146103185780639c60d1d41461032b578063a217fddf14610336578063b9f9e8301461033e57600080fd5b80637a35eb66146102ea5780637ad3def2146102fd5780638456cb591461031057600080fd5b80633f4ba83a1161017c57806362043bd81161014b57806362043bd8146102b2578063698518e5146102bb5780636c11bcd3146102c457806376f19ff1146102d757600080fd5b80633f4ba83a1461028f5780635c975abb146102975780635cca60e7146102a25780635f56315b146102aa57600080fd5b80633180123d116101b85780633180123d1461024d5780633610724e1461026057806336568abe1461027357806336a372b31461028657600080fd5b806301ffc9a7146101df578063248a9ca3146102075780632f2ff15d14610238575b600080fd5b6101f26101ed3660046110f4565b6103f0565b60405190151581526020015b60405180910390f35b61022a61021536600461111e565b60009081526020819052604090206001015490565b6040519081526020016101fe565b61024b61024636600461114c565b610427565b005b61024b61025b36600461111e565b610451565b61024b61026e36600461111e565b610462565b61024b61028136600461114c565b6106d1565b61022a60065481565b61024b61074f565b60015460ff166101f2565b61022a610765565b61024b6107e0565b61022a60025481565b61022a60055481565b61024b6102d236600461111e565b6107fb565b61024b6102e536600461117c565b610adb565b61024b6102f836600461111e565b610b09565b61024b61030b36600461117c565b610b1a565b61024b610b4e565b6101f261032636600461114c565b610b61565b60075460ff166101f2565b61022a600081565b61024b610b8a565b600954610359906001600160a01b031681565b6040516001600160a01b0390911681526020016101fe565b61024b61037f36600461114c565b610ba2565b61022a61039236600461111e565b610bc7565b61024b6103a536600461117c565b610c14565b61022a610c42565b61024b6103c036600461117c565b610c7f565b61022a6103d336600461111e565b610cad565b6007546103599061010090046001600160a01b031681565b60006001600160e01b03198216637965db0b60e01b148061042157506301ffc9a760e01b6001600160e01b03198316145b92915050565b60008281526020819052604090206001015461044281610cdc565b61044c8383610ce6565b505050565b600061045c81610cdc565b50600655565b61046a610d6a565b600061047582610bc7565b9050600081116104c25760405162461bcd60e51b8152602060048201526013602482015272125b9cdd59999a58da595b9d08185b5bdd5b9d606a1b60448201526064015b60405180910390fd5b6007546008546040516370a0823160e01b81526001600160a01b03918216600482015283926101009004909116906370a0823190602401602060405180830381865afa158015610516573d6000803e3d6000fd5b505050506040513d601f19601f8201168201806040525081019061053a9190611199565b10156105845760405162461bcd60e51b8152602060048201526019602482015278139bdd08195b9bdd59da081d1bdad95b9cc81a5b881c1bdbdb603a1b60448201526064016104b9565b6009546001600160a01b03166323b872dd33600a546040516001600160e01b031960e085901b1681526105c692916001600160a01b03169087906004016111b2565b6020604051808303816000875af11580156105e5573d6000803e3d6000fd5b505050506040513d601f19601f8201168201806040525081019061060991906111d6565b506007546008546001600160a01b036101009092048216916323b872dd911661062f3390565b846040518463ffffffff1660e01b815260040161064e939291906111b2565b6020604051808303816000875af115801561066d573d6000803e3d6000fd5b505050506040513d601f19601f8201168201806040525081019061069191906111d6565b50604080518281526020810184905233917f8fafebcaf9d154343dad25669bfa277f4fbacd7ac6b0c4fed522580e040a0f33910160405180910390a25050565b6001600160a01b03811633146107415760405162461bcd60e51b815260206004820152602f60248201527f416363657373436f6e74726f6c3a2063616e206f6e6c792072656e6f756e636560448201526e103937b632b9903337b91039b2b63360891b60648201526084016104b9565b61074b8282610db2565b5050565b600061075a81610cdc565b610762610e17565b50565b600954600a546040516370a0823160e01b81526001600160a01b03918216600482015260009291909116906370a08231906024015b602060405180830381865afa1580156107b7573d6000803e3d6000fd5b505050506040513d601f19601f820116820180604052508101906107db9190611199565b905090565b60006107eb81610cdc565b506007805460ff19166001179055565b610803610d6a565b60075460ff166108555760405162461bcd60e51b815260206004820152601860248201527f53656c6c696e67206973206e6f7420617661696c61626c65000000000000000060448201526064016104b9565b600061086082610cad565b9050600060025460065483610875919061120e565b61087f919061122d565b9050600061088d828461124f565b9050600081116108d55760405162461bcd60e51b8152602060048201526013602482015272125b9cdd59999a58da595b9d08185b5bdd5b9d606a1b60448201526064016104b9565b600954600a546040516370a0823160e01b81526001600160a01b039182166004820152839291909116906370a0823190602401602060405180830381865afa158015610925573d6000803e3d6000fd5b505050506040513d601f19601f820116820180604052508101906109499190611199565b10156109935760405162461bcd60e51b8152602060048201526019602482015278139bdd08195b9bdd59da081d1bdad95b9cc81a5b881c1bdbdb603a1b60448201526064016104b9565b60075461010090046001600160a01b03166323b872dd336008546040516001600160e01b031960e085901b1681526109da92916001600160a01b03169089906004016111b2565b6020604051808303816000875af11580156109f9573d6000803e3d6000fd5b505050506040513d601f19601f82011682018060405250810190610a1d91906111d6565b50600954600a546040516323b872dd60e01b81526001600160a01b03928316926323b872dd92610a5692911690339086906004016111b2565b6020604051808303816000875af1158015610a75573d6000803e3d6000fd5b505050506040513d601f19601f82011682018060405250810190610a9991906111d6565b50604080518581526020810183905233917f2dcf9433d75db0d8b1c172641f85e319ffe4ad22e108a95d1847ceb906e5195d910160405180910390a250505050565b6000610ae681610cdc565b50600a80546001600160a01b0319166001600160a01b0392909216919091179055565b6000610b1481610cdc565b50600555565b6000610b2581610cdc565b50600780546001600160a01b0390921661010002610100600160a81b0319909216919091179055565b6000610b5981610cdc565b610762610e69565b6000918252602082815260408084206001600160a01b0393909316845291905290205460ff1690565b6000610b9581610cdc565b506007805460ff19169055565b600082815260208190526040902060010154610bbd81610cdc565b61044c8383610db2565b6000600454600a610bd8919061134a565b600354610be690600a61134a565b600254600554610bf6908661120e565b610c00919061122d565b610c0a919061120e565b610421919061122d565b6000610c1f81610cdc565b50600980546001600160a01b0319166001600160a01b0392909216919091179055565b6007546008546040516370a0823160e01b81526001600160a01b0391821660048201526000926101009004909116906370a082319060240161079a565b6000610c8a81610cdc565b50600880546001600160a01b0319166001600160a01b0392909216919091179055565b6000600354600a610cbe919061134a565b600454610ccc90600a61134a565b600554600254610bf6908661120e565b6107628133610ea4565b610cf08282610b61565b61074b576000828152602081815260408083206001600160a01b03851684529091529020805460ff19166001179055610d263390565b6001600160a01b0316816001600160a01b0316837f2f8788117e7eff1d82e926ec794901d17c78024a50270940304540a733656f0d60405160405180910390a45050565b60015460ff1615610db05760405162461bcd60e51b815260206004820152601060248201526f14185d5cd8589b194e881c185d5cd95960821b60448201526064016104b9565b565b610dbc8282610b61565b1561074b576000828152602081815260408083206001600160a01b0385168085529252808320805460ff1916905551339285917ff6391f5c32d9c69d2a47ea670b442974b53935d1edc7fd64eb21e047a839171b9190a45050565b610e1f610f08565b6001805460ff191690557f5db9ee0a495bf2e6ff9c91a7834c1ba4fdd244a5e8aa4e537bd38aeae4b073aa335b6040516001600160a01b03909116815260200160405180910390a1565b610e71610d6a565b6001805460ff1916811790557f62e78cea01bee320cd4e420270b5ea74000d11b0c9f74754ebdbfc544b05a25833610e4c565b610eae8282610b61565b61074b57610ec6816001600160a01b03166014610f51565b610ed1836020610f51565b604051602001610ee2929190611386565b60408051601f198184030181529082905262461bcd60e51b82526104b9916004016113fb565b60015460ff16610db05760405162461bcd60e51b815260206004820152601460248201527314185d5cd8589b194e881b9bdd081c185d5cd95960621b60448201526064016104b9565b60606000610f6083600261120e565b610f6b90600261142e565b67ffffffffffffffff811115610f8357610f83611446565b6040519080825280601f01601f191660200182016040528015610fad576020820181803683370190505b509050600360fc1b81600081518110610fc857610fc861145c565b60200101906001600160f81b031916908160001a905350600f60fb1b81600181518110610ff757610ff761145c565b60200101906001600160f81b031916908160001a905350600061101b84600261120e565b61102690600161142e565b90505b600181111561109e576f181899199a1a9b1b9c1cb0b131b232b360811b85600f166010811061105a5761105a61145c565b1a60f81b8282815181106110705761107061145c565b60200101906001600160f81b031916908160001a90535060049490941c9361109781611472565b9050611029565b5083156110ed5760405162461bcd60e51b815260206004820181905260248201527f537472696e67733a20686578206c656e67746820696e73756666696369656e7460448201526064016104b9565b9392505050565b60006020828403121561110657600080fd5b81356001600160e01b0319811681146110ed57600080fd5b60006020828403121561113057600080fd5b5035919050565b6001600160a01b038116811461076257600080fd5b6000806040838503121561115f57600080fd5b82359150602083013561117181611137565b809150509250929050565b60006020828403121561118e57600080fd5b81356110ed81611137565b6000602082840312156111ab57600080fd5b5051919050565b6001600160a01b039384168152919092166020820152604081019190915260600190565b6000602082840312156111e857600080fd5b815180151581146110ed57600080fd5b634e487b7160e01b600052601160045260246000fd5b6000816000190483118215151615611228576112286111f8565b500290565b60008261124a57634e487b7160e01b600052601260045260246000fd5b500490565b600082821015611261576112616111f8565b500390565b600181815b808511156112a1578160001904821115611287576112876111f8565b8085161561129457918102915b93841c939080029061126b565b509250929050565b6000826112b857506001610421565b816112c557506000610421565b81600181146112db57600281146112e557611301565b6001915050610421565b60ff8411156112f6576112f66111f8565b50506001821b610421565b5060208310610133831016604e8410600b8410161715611324575081810a610421565b61132e8383611266565b8060001904821115611342576113426111f8565b029392505050565b60006110ed83836112a9565b60005b83811015611371578181015183820152602001611359565b83811115611380576000848401525b50505050565b7f416363657373436f6e74726f6c3a206163636f756e74200000000000000000008152600083516113be816017850160208801611356565b7001034b99036b4b9b9b4b733903937b6329607d1b60179184019182015283516113ef816028840160208801611356565b01602801949350505050565b602081526000825180602084015261141a816040850160208701611356565b601f01601f19169190910160400192915050565b60008219821115611441576114416111f8565b500190565b634e487b7160e01b600052604160045260246000fd5b634e487b7160e01b600052603260045260246000fd5b600081611481576114816111f8565b50600019019056fea2646970667358221220fcd02e948a00a35d44c0307b7457fedbdb803dbb341796af4a2e2d92fd0602a364736f6c634300080b0033",
  "devdoc": {
    "kind": "dev",
    "methods": {
      "getRoleAdmin(bytes32)": {
        "details": "Returns the admin role that controls `role`. See {grantRole} and {revokeRole}. To change a role's admin, use {_setRoleAdmin}."
      },
      "grantRole(bytes32,address)": {
        "details": "Grants `role` to `account`. If `account` had not been already granted `role`, emits a {RoleGranted} event. Requirements: - the caller must have ``role``'s admin role. May emit a {RoleGranted} event."
      },
      "hasRole(bytes32,address)": {
        "details": "Returns `true` if `account` has been granted `role`."
      },
      "paused()": {
        "details": "Returns true if the contract is paused, and false otherwise."
      },
      "renounceRole(bytes32,address)": {
        "details": "Revokes `role` from the calling account. Roles are often managed via {grantRole} and {revokeRole}: this function's purpose is to provide a mechanism for accounts to lose their privileges if they are compromised (such as when a trusted device is misplaced). If the calling account had been revoked `role`, emits a {RoleRevoked} event. Requirements: - the caller must be `account`. May emit a {RoleRevoked} event."
      },
      "revokeRole(bytes32,address)": {
        "details": "Revokes `role` from `account`. If `account` had been granted `role`, emits a {RoleRevoked} event. Requirements: - the caller must have ``role``'s admin role. May emit a {RoleRevoked} event."
      },
      "supportsInterface(bytes4)": {
        "details": "See {IERC165-supportsInterface}."
      }
    },
    "version": 1
  },
  "userdoc": {
    "kind": "user",
    "methods": {},
    "version": 1
  },
  "storageLayout": {
    "storage": [
      {
        "astId": 178,
        "contract": "contracts/VendorSell.sol:VendorSell",
        "label": "_roles",
        "offset": 0,
        "slot": "0",
        "type": "t_mapping(t_bytes32,t_struct(RoleData)173_storage)"
      },
      {
        "astId": 677,
        "contract": "contracts/VendorSell.sol:VendorSell",
        "label": "_paused",
        "offset": 0,
        "slot": "1",
        "type": "t_bool"
      },
      {
        "astId": 12145,
        "contract": "contracts/VendorSell.sol:VendorSell",
        "label": "DIVIDER",
        "offset": 0,
        "slot": "2",
        "type": "t_uint256"
      },
      {
        "astId": 12148,
        "contract": "contracts/VendorSell.sol:VendorSell",
        "label": "TOKEN_DECIMALS",
        "offset": 0,
        "slot": "3",
        "type": "t_uint256"
      },
      {
        "astId": 12151,
        "contract": "contracts/VendorSell.sol:VendorSell",
        "label": "CHANGE_TOKEN_DECIMALS",
        "offset": 0,
        "slot": "4",
        "type": "t_uint256"
      },
      {
        "astId": 12153,
        "contract": "contracts/VendorSell.sol:VendorSell",
        "label": "swapRate",
        "offset": 0,
        "slot": "5",
        "type": "t_uint256"
      },
      {
        "astId": 12156,
        "contract": "contracts/VendorSell.sol:VendorSell",
        "label": "sellTokenCommission",
        "offset": 0,
        "slot": "6",
        "type": "t_uint256"
      },
      {
        "astId": 12158,
        "contract": "contracts/VendorSell.sol:VendorSell",
        "label": "_isSellAvailable",
        "offset": 0,
        "slot": "7",
        "type": "t_bool"
      },
      {
        "astId": 12161,
        "contract": "contracts/VendorSell.sol:VendorSell",
        "label": "token",
        "offset": 1,
        "slot": "7",
        "type": "t_contract(IERC20)3098"
      },
      {
        "astId": 12163,
        "contract": "contracts/VendorSell.sol:VendorSell",
        "label": "_tokenPool",
        "offset": 0,
        "slot": "8",
        "type": "t_address"
      },
      {
        "astId": 12166,
        "contract": "contracts/VendorSell.sol:VendorSell",
        "label": "changeToken",
        "offset": 0,
        "slot": "9",
        "type": "t_contract(IERC20)3098"
      },
      {
        "astId": 12168,
        "contract": "contracts/VendorSell.sol:VendorSell",
        "label": "_changeTokenPool",
        "offset": 0,
        "slot": "10",
        "type": "t_address"
      }
    ],
    "types": {
      "t_address": {
        "encoding": "inplace",
        "label": "address",
        "numberOfBytes": "20"
      },
      "t_bool": {
        "encoding": "inplace",
        "label": "bool",
        "numberOfBytes": "1"
      },
      "t_bytes32": {
        "encoding": "inplace",
        "label": "bytes32",
        "numberOfBytes": "32"
      },
      "t_contract(IERC20)3098": {
        "encoding": "inplace",
        "label": "contract IERC20",
        "numberOfBytes": "20"
      },
      "t_mapping(t_address,t_bool)": {
        "encoding": "mapping",
        "key": "t_address",
        "label": "mapping(address => bool)",
        "numberOfBytes": "32",
        "value": "t_bool"
      },
      "t_mapping(t_bytes32,t_struct(RoleData)173_storage)": {
        "encoding": "mapping",
        "key": "t_bytes32",
        "label": "mapping(bytes32 => struct AccessControl.RoleData)",
        "numberOfBytes": "32",
        "value": "t_struct(RoleData)173_storage"
      },
      "t_struct(RoleData)173_storage": {
        "encoding": "inplace",
        "label": "struct AccessControl.RoleData",
        "members": [
          {
            "astId": 170,
            "contract": "contracts/VendorSell.sol:VendorSell",
            "label": "members",
            "offset": 0,
            "slot": "0",
            "type": "t_mapping(t_address,t_bool)"
          },
          {
            "astId": 172,
            "contract": "contracts/VendorSell.sol:VendorSell",
            "label": "adminRole",
            "offset": 0,
            "slot": "1",
            "type": "t_bytes32"
          }
        ],
        "numberOfBytes": "64"
      },
      "t_uint256": {
        "encoding": "inplace",
        "label": "uint256",
        "numberOfBytes": "32"
      }
    }
  }
}