{
  "address": "0x375d8C23D9A06a10824FD6496d510aA4D1a13BE8",
  "abi": [
    {
      "inputs": [
        {
          "internalType": "address",
          "name": "tokenAddress_",
          "type": "address"
        },
        {
          "internalType": "address",
          "name": "tokenPool_",
          "type": "address"
        },
        {
          "internalType": "address",
          "name": "changeTokenAddress_",
          "type": "address"
        },
        {
          "internalType": "address",
          "name": "changeTokenPool_",
          "type": "address"
        },
        {
          "internalType": "uint256",
          "name": "swapRate_",
          "type": "uint256"
        }
      ],
      "stateMutability": "nonpayable",
      "type": "constructor"
    },
    {
      "anonymous": false,
      "inputs": [
        {
          "indexed": false,
          "internalType": "address",
          "name": "account",
          "type": "address"
        }
      ],
      "name": "Paused",
      "type": "event"
    },
    {
      "anonymous": false,
      "inputs": [
        {
          "indexed": true,
          "internalType": "bytes32",
          "name": "role",
          "type": "bytes32"
        },
        {
          "indexed": true,
          "internalType": "bytes32",
          "name": "previousAdminRole",
          "type": "bytes32"
        },
        {
          "indexed": true,
          "internalType": "bytes32",
          "name": "newAdminRole",
          "type": "bytes32"
        }
      ],
      "name": "RoleAdminChanged",
      "type": "event"
    },
    {
      "anonymous": false,
      "inputs": [
        {
          "indexed": true,
          "internalType": "bytes32",
          "name": "role",
          "type": "bytes32"
        },
        {
          "indexed": true,
          "internalType": "address",
          "name": "account",
          "type": "address"
        },
        {
          "indexed": true,
          "internalType": "address",
          "name": "sender",
          "type": "address"
        }
      ],
      "name": "RoleGranted",
      "type": "event"
    },
    {
      "anonymous": false,
      "inputs": [
        {
          "indexed": true,
          "internalType": "bytes32",
          "name": "role",
          "type": "bytes32"
        },
        {
          "indexed": true,
          "internalType": "address",
          "name": "account",
          "type": "address"
        },
        {
          "indexed": true,
          "internalType": "address",
          "name": "sender",
          "type": "address"
        }
      ],
      "name": "RoleRevoked",
      "type": "event"
    },
    {
      "anonymous": false,
      "inputs": [
        {
          "indexed": true,
          "internalType": "address",
          "name": "buyer",
          "type": "address"
        },
        {
          "indexed": false,
          "internalType": "uint256",
          "name": "amountToken",
          "type": "uint256"
        },
        {
          "indexed": false,
          "internalType": "uint256",
          "name": "amountChangeToken",
          "type": "uint256"
        }
      ],
      "name": "TokensPurchased",
      "type": "event"
    },
    {
      "anonymous": false,
      "inputs": [
        {
          "indexed": true,
          "internalType": "address",
          "name": "seller",
          "type": "address"
        },
        {
          "indexed": false,
          "internalType": "uint256",
          "name": "amountToken",
          "type": "uint256"
        },
        {
          "indexed": false,
          "internalType": "uint256",
          "name": "amountChangeToken",
          "type": "uint256"
        }
      ],
      "name": "TokensSold",
      "type": "event"
    },
    {
      "anonymous": false,
      "inputs": [
        {
          "indexed": false,
          "internalType": "address",
          "name": "account",
          "type": "address"
        }
      ],
      "name": "Unpaused",
      "type": "event"
    },
    {
      "inputs": [],
      "name": "DEFAULT_ADMIN_ROLE",
      "outputs": [
        {
          "internalType": "bytes32",
          "name": "",
          "type": "bytes32"
        }
      ],
      "stateMutability": "view",
      "type": "function"
    },
    {
      "inputs": [
        {
          "internalType": "uint256",
          "name": "_amountChangeToken",
          "type": "uint256"
        }
      ],
      "name": "buyTokens",
      "outputs": [],
      "stateMutability": "nonpayable",
      "type": "function"
    },
    {
      "inputs": [],
      "name": "changeToken",
      "outputs": [
        {
          "internalType": "contract IERC20",
          "name": "",
          "type": "address"
        }
      ],
      "stateMutability": "view",
      "type": "function"
    },
    {
      "inputs": [],
      "name": "disableSell",
      "outputs": [],
      "stateMutability": "nonpayable",
      "type": "function"
    },
    {
      "inputs": [],
      "name": "enableSell",
      "outputs": [],
      "stateMutability": "nonpayable",
      "type": "function"
    },
    {
      "inputs": [],
      "name": "getChangeTokenReserve",
      "outputs": [
        {
          "internalType": "uint256",
          "name": "",
          "type": "uint256"
        }
      ],
      "stateMutability": "view",
      "type": "function"
    },
    {
      "inputs": [
        {
          "internalType": "uint256",
          "name": "_amountToken",
          "type": "uint256"
        }
      ],
      "name": "getEquivalentChangeTokenEstimate",
      "outputs": [
        {
          "internalType": "uint256",
          "name": "",
          "type": "uint256"
        }
      ],
      "stateMutability": "view",
      "type": "function"
    },
    {
      "inputs": [
        {
          "internalType": "uint256",
          "name": "_amountChangeToken",
          "type": "uint256"
        }
      ],
      "name": "getEquivalentTokenEstimate",
      "outputs": [
        {
          "internalType": "uint256",
          "name": "",
          "type": "uint256"
        }
      ],
      "stateMutability": "view",
      "type": "function"
    },
    {
      "inputs": [
        {
          "internalType": "bytes32",
          "name": "role",
          "type": "bytes32"
        }
      ],
      "name": "getRoleAdmin",
      "outputs": [
        {
          "internalType": "bytes32",
          "name": "",
          "type": "bytes32"
        }
      ],
      "stateMutability": "view",
      "type": "function"
    },
    {
      "inputs": [],
      "name": "getTokenReserve",
      "outputs": [
        {
          "internalType": "uint256",
          "name": "",
          "type": "uint256"
        }
      ],
      "stateMutability": "view",
      "type": "function"
    },
    {
      "inputs": [
        {
          "internalType": "bytes32",
          "name": "role",
          "type": "bytes32"
        },
        {
          "internalType": "address",
          "name": "account",
          "type": "address"
        }
      ],
      "name": "grantRole",
      "outputs": [],
      "stateMutability": "nonpayable",
      "type": "function"
    },
    {
      "inputs": [
        {
          "internalType": "bytes32",
          "name": "role",
          "type": "bytes32"
        },
        {
          "internalType": "address",
          "name": "account",
          "type": "address"
        }
      ],
      "name": "hasRole",
      "outputs": [
        {
          "internalType": "bool",
          "name": "",
          "type": "bool"
        }
      ],
      "stateMutability": "view",
      "type": "function"
    },
    {
      "inputs": [],
      "name": "isSellAvailable",
      "outputs": [
        {
          "internalType": "bool",
          "name": "",
          "type": "bool"
        }
      ],
      "stateMutability": "view",
      "type": "function"
    },
    {
      "inputs": [],
      "name": "pause",
      "outputs": [],
      "stateMutability": "nonpayable",
      "type": "function"
    },
    {
      "inputs": [],
      "name": "paused",
      "outputs": [
        {
          "internalType": "bool",
          "name": "",
          "type": "bool"
        }
      ],
      "stateMutability": "view",
      "type": "function"
    },
    {
      "inputs": [
        {
          "internalType": "bytes32",
          "name": "role",
          "type": "bytes32"
        },
        {
          "internalType": "address",
          "name": "account",
          "type": "address"
        }
      ],
      "name": "renounceRole",
      "outputs": [],
      "stateMutability": "nonpayable",
      "type": "function"
    },
    {
      "inputs": [
        {
          "internalType": "bytes32",
          "name": "role",
          "type": "bytes32"
        },
        {
          "internalType": "address",
          "name": "account",
          "type": "address"
        }
      ],
      "name": "revokeRole",
      "outputs": [],
      "stateMutability": "nonpayable",
      "type": "function"
    },
    {
      "inputs": [
        {
          "internalType": "uint256",
          "name": "_amountToken",
          "type": "uint256"
        }
      ],
      "name": "sellTokens",
      "outputs": [],
      "stateMutability": "nonpayable",
      "type": "function"
    },
    {
      "inputs": [
        {
          "internalType": "bytes4",
          "name": "interfaceId",
          "type": "bytes4"
        }
      ],
      "name": "supportsInterface",
      "outputs": [
        {
          "internalType": "bool",
          "name": "",
          "type": "bool"
        }
      ],
      "stateMutability": "view",
      "type": "function"
    },
    {
      "inputs": [],
      "name": "swapRate",
      "outputs": [
        {
          "internalType": "uint256",
          "name": "",
          "type": "uint256"
        }
      ],
      "stateMutability": "view",
      "type": "function"
    },
    {
      "inputs": [],
      "name": "token",
      "outputs": [
        {
          "internalType": "contract IERC20",
          "name": "",
          "type": "address"
        }
      ],
      "stateMutability": "view",
      "type": "function"
    },
    {
      "inputs": [],
      "name": "unpause",
      "outputs": [],
      "stateMutability": "nonpayable",
      "type": "function"
    },
    {
      "inputs": [
        {
          "internalType": "address",
          "name": "pool",
          "type": "address"
        }
      ],
      "name": "updateChangeTokenPool",
      "outputs": [],
      "stateMutability": "nonpayable",
      "type": "function"
    },
    {
      "inputs": [
        {
          "internalType": "uint256",
          "name": "swapRate_",
          "type": "uint256"
        }
      ],
      "name": "updateSwapRate",
      "outputs": [],
      "stateMutability": "nonpayable",
      "type": "function"
    },
    {
      "inputs": [
        {
          "internalType": "address",
          "name": "pool",
          "type": "address"
        }
      ],
      "name": "updateTokenPool",
      "outputs": [],
      "stateMutability": "nonpayable",
      "type": "function"
    }
  ],
  "transactionHash": "0x9c600f0c71fd8c0a1f1b94ff5075d41129f2df44cdb174a8917c10de8416055a",
  "args": [
    "0xE5aAE819557C9470b996F591d3017662B6274eEc",
    "0xf982D706f37Cb781D567395877EC35eDCB7Cf65C",
    "0xD9b5f383bE8708B0d3c50EC9143044675D77902d",
    "0xf982D706f37Cb781D567395877EC35eDCB7Cf65C",
    1000
  ],
  "numDeployments": 2,
  "solcInputHash": "850daca1676fcd49aea6c621ce38d253",
  "bytecode": "0x60806040526103e86002553480156200001757600080fd5b5060405162001a0d38038062001a0d8339810160408190526200003a916200016f565b6001805460ff1916905562000051600033620000b1565b600355600480546001600160a01b0395861661010002610100600160a81b0319909116179055600680549285166001600160a01b0319938416179055600580549385169383169390931790925560078054929093169116179055620001d6565b6000828152602081815260408083206001600160a01b038516845290915290205460ff166200014e576000828152602081815260408083206001600160a01b03851684529091529020805460ff191660011790556200010d3390565b6001600160a01b0316816001600160a01b0316837f2f8788117e7eff1d82e926ec794901d17c78024a50270940304540a733656f0d60405160405180910390a45b5050565b80516001600160a01b03811681146200016a57600080fd5b919050565b600080600080600060a086880312156200018857600080fd5b620001938662000152565b9450620001a36020870162000152565b9350620001b36040870162000152565b9250620001c36060870162000152565b9150608086015190509295509295909350565b61182780620001e66000396000f3fe608060405234801561001057600080fd5b50600436106101735760003560e01c80637a35eb66116100de578063cd58c87211610097578063f1d9f88b11610071578063f1d9f88b146102f8578063f3e5941414610300578063f73c41ff14610313578063fc0c546a1461032657600080fd5b8063cd58c872146102a7578063d547741f146102d2578063df9ae2bb146102e557600080fd5b80637a35eb661461025e5780638456cb591461027157806391d14854146102795780639c60d1d41461028c578063a217fddf14610297578063b9f9e8301461029f57600080fd5b80635c975abb116101305780635c975abb146102145780635cca60e71461021f5780635f56315b14610227578063698518e51461022f5780636c11bcd31461023857806376f19ff11461024b57600080fd5b806301ffc9a714610178578063248a9ca3146101a05780632f2ff15d146101d15780633610724e146101e657806336568abe146101f95780633f4ba83a1461020c575b600080fd5b61018b6101863660046114e6565b61033e565b60405190151581526020015b60405180910390f35b6101c36101ae366004611510565b60009081526020819052604090206001015490565b604051908152602001610197565b6101e46101df366004611545565b610375565b005b6101e46101f4366004611510565b61039f565b6101e4610207366004611545565b610775565b6101e46107f3565b60015460ff1661018b565b6101c3610809565b6101e4610884565b6101c360035481565b6101e4610246366004611510565b61089f565b6101e4610259366004611571565b610cc6565b6101e461026c366004611510565b610cf4565b6101e4610d05565b61018b610287366004611545565b610d18565b60045460ff1661018b565b6101c3600081565b6101e4610d41565b6006546102ba906001600160a01b031681565b6040516001600160a01b039091168152602001610197565b6101e46102e0366004611545565b610d59565b6101c36102f3366004611510565b610d7e565b6101c3610d9b565b6101e461030e366004611571565b610dda565b6101c3610321366004611510565b610e08565b6004546102ba9061010090046001600160a01b031681565b60006001600160e01b03198216637965db0b60e01b148061036f57506301ffc9a760e01b6001600160e01b03198316145b92915050565b60008281526020819052604090206001015461039081610e1b565b61039a8383610e25565b505050565b6103a7610ea9565b60006103b282610d7e565b9050600081116103ff5760405162461bcd60e51b8152602060048201526013602482015272125b9cdd59999a58da595b9d08185b5bdd5b9d606a1b60448201526064015b60405180910390fd5b60065482906001600160a01b031663dd62ed3e336040516001600160e01b031960e084901b1681526001600160a01b039091166004820152306024820152604401602060405180830381865afa15801561045d573d6000803e3d6000fd5b505050506040513d601f19601f82011682018060405250810190610481919061158c565b101561049f5760405162461bcd60e51b81526004016103f6906115a5565b60065482906001600160a01b03166370a08231336040516001600160e01b031960e084901b1681526001600160a01b039091166004820152602401602060405180830381865afa1580156104f7573d6000803e3d6000fd5b505050506040513d601f19601f8201168201806040525081019061051b919061158c565b10156105395760405162461bcd60e51b81526004016103f6906115ea565b60048054600554604051636eb1769f60e11b81526001600160a01b03918216938101939093523060248401528392610100909204169063dd62ed3e90604401602060405180830381865afa158015610595573d6000803e3d6000fd5b505050506040513d601f19601f820116820180604052508101906105b9919061158c565b10156106175760405162461bcd60e51b815260206004820152602760248201527f56656e646f7220616c6c6f77616e6365206f6620746f6b656e206973206e6f74604482015266040cadcdeeaced60cb1b60648201526084016103f6565b600480546005546040516370a0823160e01b81526001600160a01b0391821693810193909352839261010090920416906370a0823190602401602060405180830381865afa15801561066d573d6000803e3d6000fd5b505050506040513d601f19601f82011682018060405250810190610691919061158c565b10156106ed5760405162461bcd60e51b815260206004820152602560248201527f56656e646f722062616c616e6365206f6620746f6b656e206973206e6f7420656044820152640dcdeeaced60db1b60648201526084016103f6565b61070b336007546006546001600160a01b0390811692911685610ef1565b600554610735906001600160a01b03163360045461010090046001600160a01b0316919084610ef1565b604080518281526020810184905233917f8fafebcaf9d154343dad25669bfa277f4fbacd7ac6b0c4fed522580e040a0f3391015b60405180910390a25050565b6001600160a01b03811633146107e55760405162461bcd60e51b815260206004820152602f60248201527f416363657373436f6e74726f6c3a2063616e206f6e6c792072656e6f756e636560448201526e103937b632b9903337b91039b2b63360891b60648201526084016103f6565b6107ef8282610f51565b5050565b60006107fe81610e1b565b610806610fb6565b50565b6006546007546040516370a0823160e01b81526001600160a01b03918216600482015260009291909116906370a08231906024015b602060405180830381865afa15801561085b573d6000803e3d6000fd5b505050506040513d601f19601f8201168201806040525081019061087f919061158c565b905090565b600061088f81610e1b565b506004805460ff19166001179055565b6108a7610ea9565b60045460ff166108f95760405162461bcd60e51b815260206004820152601860248201527f53656c6c696e67206973206e6f7420617661696c61626c65000000000000000060448201526064016103f6565b600061090482610e08565b90506000811161094c5760405162461bcd60e51b8152602060048201526013602482015272125b9cdd59999a58da595b9d08185b5bdd5b9d606a1b60448201526064016103f6565b600454829061010090046001600160a01b031663dd62ed3e336040516001600160e01b031960e084901b1681526001600160a01b039091166004820152306024820152604401602060405180830381865afa1580156109af573d6000803e3d6000fd5b505050506040513d601f19601f820116820180604052508101906109d3919061158c565b10156109f15760405162461bcd60e51b81526004016103f6906115a5565b600454829061010090046001600160a01b03166370a08231336040516001600160e01b031960e084901b1681526001600160a01b039091166004820152602401602060405180830381865afa158015610a4e573d6000803e3d6000fd5b505050506040513d601f19601f82011682018060405250810190610a72919061158c565b1015610a905760405162461bcd60e51b81526004016103f6906115ea565b600654600754604051636eb1769f60e11b81526001600160a01b0391821660048201523060248201528392919091169063dd62ed3e90604401602060405180830381865afa158015610ae6573d6000803e3d6000fd5b505050506040513d601f19601f82011682018060405250810190610b0a919061158c565b1015610b6f5760405162461bcd60e51b815260206004820152602e60248201527f56656e646f7220616c6c6f77616e6365206f66206368616e676520746f6b656e60448201526d040d2e640dcdee840cadcdeeaced60931b60648201526084016103f6565b6006546007546040516370a0823160e01b81526001600160a01b039182166004820152839291909116906370a0823190602401602060405180830381865afa158015610bbf573d6000803e3d6000fd5b505050506040513d601f19601f82011682018060405250810190610be3919061158c565b1015610c465760405162461bcd60e51b815260206004820152602c60248201527f56656e646f722062616c616e6365206f66206368616e676520746f6b656e206960448201526b0e640dcdee840cadcdeeaced60a31b60648201526084016103f6565b610c693360055460045461010090046001600160a01b0390811692911685610ef1565b600754610c8e906001600160a01b0316336006546001600160a01b0316919084610ef1565b604080518381526020810183905233917f2dcf9433d75db0d8b1c172641f85e319ffe4ad22e108a95d1847ceb906e5195d9101610769565b6000610cd181610e1b565b50600780546001600160a01b0319166001600160a01b0392909216919091179055565b6000610cff81610e1b565b50600355565b6000610d1081610e1b565b610806611008565b6000918252602082815260408084206001600160a01b0393909316845291905290205460ff1690565b6000610d4c81610e1b565b506004805460ff19169055565b600082815260208190526040902060010154610d7481610e1b565b61039a8383610f51565b600060025460035483610d919190611643565b61036f9190611662565b600480546005546040516370a0823160e01b81526001600160a01b039182169381019390935260009261010090920416906370a082319060240161083e565b6000610de581610e1b565b50600580546001600160a01b0319166001600160a01b0392909216919091179055565b600060035460025483610d919190611643565b6108068133611043565b610e2f8282610d18565b6107ef576000828152602081815260408083206001600160a01b03851684529091529020805460ff19166001179055610e653390565b6001600160a01b0316816001600160a01b0316837f2f8788117e7eff1d82e926ec794901d17c78024a50270940304540a733656f0d60405160405180910390a45050565b60015460ff1615610eef5760405162461bcd60e51b815260206004820152601060248201526f14185d5cd8589b194e881c185d5cd95960821b60448201526064016103f6565b565b604080516001600160a01b0385811660248301528416604482015260648082018490528251808303909101815260849091019091526020810180516001600160e01b03166323b872dd60e01b179052610f4b9085906110a7565b50505050565b610f5b8282610d18565b156107ef576000828152602081815260408083206001600160a01b0385168085529252808320805460ff1916905551339285917ff6391f5c32d9c69d2a47ea670b442974b53935d1edc7fd64eb21e047a839171b9190a45050565b610fbe611179565b6001805460ff191690557f5db9ee0a495bf2e6ff9c91a7834c1ba4fdd244a5e8aa4e537bd38aeae4b073aa335b6040516001600160a01b03909116815260200160405180910390a1565b611010610ea9565b6001805460ff1916811790557f62e78cea01bee320cd4e420270b5ea74000d11b0c9f74754ebdbfc544b05a25833610feb565b61104d8282610d18565b6107ef57611065816001600160a01b031660146111c2565b6110708360206111c2565b6040516020016110819291906116b0565b60408051601f198184030181529082905262461bcd60e51b82526103f691600401611725565b60006110fc826040518060400160405280602081526020017f5361666545524332303a206c6f772d6c6576656c2063616c6c206661696c6564815250856001600160a01b03166113659092919063ffffffff16565b80519091501561039a578080602001905181019061111a9190611758565b61039a5760405162461bcd60e51b815260206004820152602a60248201527f5361666545524332303a204552433230206f7065726174696f6e20646964206e6044820152691bdd081cdd58d8d9595960b21b60648201526084016103f6565b60015460ff16610eef5760405162461bcd60e51b815260206004820152601460248201527314185d5cd8589b194e881b9bdd081c185d5cd95960621b60448201526064016103f6565b606060006111d1836002611643565b6111dc90600261177a565b67ffffffffffffffff8111156111f4576111f4611792565b6040519080825280601f01601f19166020018201604052801561121e576020820181803683370190505b509050600360fc1b81600081518110611239576112396117a8565b60200101906001600160f81b031916908160001a905350600f60fb1b81600181518110611268576112686117a8565b60200101906001600160f81b031916908160001a905350600061128c846002611643565b61129790600161177a565b90505b600181111561130f576f181899199a1a9b1b9c1cb0b131b232b360811b85600f16601081106112cb576112cb6117a8565b1a60f81b8282815181106112e1576112e16117a8565b60200101906001600160f81b031916908160001a90535060049490941c93611308816117be565b905061129a565b50831561135e5760405162461bcd60e51b815260206004820181905260248201527f537472696e67733a20686578206c656e67746820696e73756666696369656e7460448201526064016103f6565b9392505050565b6060611374848460008561137c565b949350505050565b6060824710156113dd5760405162461bcd60e51b815260206004820152602660248201527f416464726573733a20696e73756666696369656e742062616c616e636520666f6044820152651c8818d85b1b60d21b60648201526084016103f6565b6001600160a01b0385163b6114345760405162461bcd60e51b815260206004820152601d60248201527f416464726573733a2063616c6c20746f206e6f6e2d636f6e747261637400000060448201526064016103f6565b600080866001600160a01b0316858760405161145091906117d5565b60006040518083038185875af1925050503d806000811461148d576040519150601f19603f3d011682016040523d82523d6000602084013e611492565b606091505b50915091506114a28282866114ad565b979650505050505050565b606083156114bc57508161135e565b8251156114cc5782518084602001fd5b8160405162461bcd60e51b81526004016103f69190611725565b6000602082840312156114f857600080fd5b81356001600160e01b03198116811461135e57600080fd5b60006020828403121561152257600080fd5b5035919050565b80356001600160a01b038116811461154057600080fd5b919050565b6000806040838503121561155857600080fd5b8235915061156860208401611529565b90509250929050565b60006020828403121561158357600080fd5b61135e82611529565b60006020828403121561159e57600080fd5b5051919050565b60208082526025908201527f5573657220616c6c6f77616e6365206f6620746f6b656e206973206e6f7420656040820152640dcdeeaced60db1b606082015260800190565b60208082526023908201527f557365722062616c616e6365206f6620746f6b656e206973206e6f7420656e6f6040820152620eaced60eb1b606082015260800190565b634e487b7160e01b600052601160045260246000fd5b600081600019048311821515161561165d5761165d61162d565b500290565b60008261167f57634e487b7160e01b600052601260045260246000fd5b500490565b60005b8381101561169f578181015183820152602001611687565b83811115610f4b5750506000910152565b7f416363657373436f6e74726f6c3a206163636f756e74200000000000000000008152600083516116e8816017850160208801611684565b7001034b99036b4b9b9b4b733903937b6329607d1b6017918401918201528351611719816028840160208801611684565b01602801949350505050565b6020815260008251806020840152611744816040850160208701611684565b601f01601f19169190910160400192915050565b60006020828403121561176a57600080fd5b8151801515811461135e57600080fd5b6000821982111561178d5761178d61162d565b500190565b634e487b7160e01b600052604160045260246000fd5b634e487b7160e01b600052603260045260246000fd5b6000816117cd576117cd61162d565b506000190190565b600082516117e7818460208701611684565b919091019291505056fea2646970667358221220347ba0981dc0a7f6ae5347b031187c792d756c809c0240bd4468a12efc1f4dc364736f6c634300080b0033",
  "devdoc": {
    "kind": "dev",
    "methods": {
      "getRoleAdmin(bytes32)": {
        "details": "Returns the admin role that controls `role`. See {grantRole} and {revokeRole}. To change a role's admin, use {_setRoleAdmin}."
      },
      "grantRole(bytes32,address)": {
        "details": "Grants `role` to `account`. If `account` had not been already granted `role`, emits a {RoleGranted} event. Requirements: - the caller must have ``role``'s admin role. May emit a {RoleGranted} event."
      },
      "hasRole(bytes32,address)": {
        "details": "Returns `true` if `account` has been granted `role`."
      },
      "paused()": {
        "details": "Returns true if the contract is paused, and false otherwise."
      },
      "renounceRole(bytes32,address)": {
        "details": "Revokes `role` from the calling account. Roles are often managed via {grantRole} and {revokeRole}: this function's purpose is to provide a mechanism for accounts to lose their privileges if they are compromised (such as when a trusted device is misplaced). If the calling account had been revoked `role`, emits a {RoleRevoked} event. Requirements: - the caller must be `account`. May emit a {RoleRevoked} event."
      },
      "revokeRole(bytes32,address)": {
        "details": "Revokes `role` from `account`. If `account` had been granted `role`, emits a {RoleRevoked} event. Requirements: - the caller must have ``role``'s admin role. May emit a {RoleRevoked} event."
      },
      "supportsInterface(bytes4)": {
        "details": "See {IERC165-supportsInterface}."
      }
    },
    "version": 1
  },
  "userdoc": {
    "kind": "user",
    "methods": {},
    "version": 1
  },
  "storageLayout": {
    "storage": [
      {
        "astId": 24,
        "contract": "contracts/VendorSell.sol:VendorSell",
        "label": "_roles",
        "offset": 0,
        "slot": "0",
        "type": "t_mapping(t_bytes32,t_struct(RoleData)19_storage)"
      },
      {
        "astId": 410,
        "contract": "contracts/VendorSell.sol:VendorSell",
        "label": "_paused",
        "offset": 0,
        "slot": "1",
        "type": "t_bool"
      },
      {
        "astId": 5099,
        "contract": "contracts/VendorSell.sol:VendorSell",
        "label": "SWAP_RATE_DIVIDER",
        "offset": 0,
        "slot": "2",
        "type": "t_uint256"
      },
      {
        "astId": 5101,
        "contract": "contracts/VendorSell.sol:VendorSell",
        "label": "swapRate",
        "offset": 0,
        "slot": "3",
        "type": "t_uint256"
      },
      {
        "astId": 5103,
        "contract": "contracts/VendorSell.sol:VendorSell",
        "label": "_isSellAvailable",
        "offset": 0,
        "slot": "4",
        "type": "t_bool"
      },
      {
        "astId": 5106,
        "contract": "contracts/VendorSell.sol:VendorSell",
        "label": "token",
        "offset": 1,
        "slot": "4",
        "type": "t_contract(IERC20)1204"
      },
      {
        "astId": 5108,
        "contract": "contracts/VendorSell.sol:VendorSell",
        "label": "_tokenPool",
        "offset": 0,
        "slot": "5",
        "type": "t_address"
      },
      {
        "astId": 5111,
        "contract": "contracts/VendorSell.sol:VendorSell",
        "label": "changeToken",
        "offset": 0,
        "slot": "6",
        "type": "t_contract(IERC20)1204"
      },
      {
        "astId": 5113,
        "contract": "contracts/VendorSell.sol:VendorSell",
        "label": "_changeTokenPool",
        "offset": 0,
        "slot": "7",
        "type": "t_address"
      }
    ],
    "types": {
      "t_address": {
        "encoding": "inplace",
        "label": "address",
        "numberOfBytes": "20"
      },
      "t_bool": {
        "encoding": "inplace",
        "label": "bool",
        "numberOfBytes": "1"
      },
      "t_bytes32": {
        "encoding": "inplace",
        "label": "bytes32",
        "numberOfBytes": "32"
      },
      "t_contract(IERC20)1204": {
        "encoding": "inplace",
        "label": "contract IERC20",
        "numberOfBytes": "20"
      },
      "t_mapping(t_address,t_bool)": {
        "encoding": "mapping",
        "key": "t_address",
        "label": "mapping(address => bool)",
        "numberOfBytes": "32",
        "value": "t_bool"
      },
      "t_mapping(t_bytes32,t_struct(RoleData)19_storage)": {
        "encoding": "mapping",
        "key": "t_bytes32",
        "label": "mapping(bytes32 => struct AccessControl.RoleData)",
        "numberOfBytes": "32",
        "value": "t_struct(RoleData)19_storage"
      },
      "t_struct(RoleData)19_storage": {
        "encoding": "inplace",
        "label": "struct AccessControl.RoleData",
        "members": [
          {
            "astId": 16,
            "contract": "contracts/VendorSell.sol:VendorSell",
            "label": "members",
            "offset": 0,
            "slot": "0",
            "type": "t_mapping(t_address,t_bool)"
          },
          {
            "astId": 18,
            "contract": "contracts/VendorSell.sol:VendorSell",
            "label": "adminRole",
            "offset": 0,
            "slot": "1",
            "type": "t_bytes32"
          }
        ],
        "numberOfBytes": "64"
      },
      "t_uint256": {
        "encoding": "inplace",
        "label": "uint256",
        "numberOfBytes": "32"
      }
    }
  }
}