{
  "address": "0x77Da2767BF269eD9D1FA6c7d04857E257B2f3506",
  "abi": [
    {
      "inputs": [
        {
          "internalType": "uint256",
          "name": "ticketPrice",
          "type": "uint256"
        },
        {
          "internalType": "uint256",
          "name": "ticketId",
          "type": "uint256"
        },
        {
          "internalType": "uint256",
          "name": "daysStreakForTicket",
          "type": "uint256"
        },
        {
          "internalType": "address",
          "name": "ticketTokenAddress",
          "type": "address"
        },
        {
          "internalType": "address",
          "name": "paymentTokenAddress",
          "type": "address"
        },
        {
          "internalType": "address",
          "name": "rewardTokenAddress",
          "type": "address"
        },
        {
          "internalType": "address",
          "name": "rewardPoolAddress",
          "type": "address"
        },
        {
          "internalType": "address",
          "name": "coordinator",
          "type": "address"
        },
        {
          "internalType": "uint64",
          "name": "subscriptionId",
          "type": "uint64"
        },
        {
          "internalType": "bytes32",
          "name": "keyHash",
          "type": "bytes32"
        }
      ],
      "stateMutability": "nonpayable",
      "type": "constructor"
    },
    {
      "inputs": [
        {
          "internalType": "address",
          "name": "have",
          "type": "address"
        },
        {
          "internalType": "address",
          "name": "want",
          "type": "address"
        }
      ],
      "name": "OnlyCoordinatorCanFulfill",
      "type": "error"
    },
    {
      "anonymous": false,
      "inputs": [
        {
          "indexed": true,
          "internalType": "uint256",
          "name": "roundId",
          "type": "uint256"
        }
      ],
      "name": "NewRoundCreated",
      "type": "event"
    },
    {
      "anonymous": false,
      "inputs": [
        {
          "indexed": true,
          "internalType": "uint256",
          "name": "roundId",
          "type": "uint256"
        },
        {
          "indexed": true,
          "internalType": "uint256",
          "name": "requestId",
          "type": "uint256"
        },
        {
          "indexed": false,
          "internalType": "uint256",
          "name": "randomWord",
          "type": "uint256"
        }
      ],
      "name": "OracleRequestFulfilled",
      "type": "event"
    },
    {
      "anonymous": false,
      "inputs": [
        {
          "indexed": true,
          "internalType": "uint256",
          "name": "roundId",
          "type": "uint256"
        },
        {
          "indexed": true,
          "internalType": "uint256",
          "name": "requestId",
          "type": "uint256"
        }
      ],
      "name": "OracleRequestSent",
      "type": "event"
    },
    {
      "anonymous": false,
      "inputs": [
        {
          "indexed": true,
          "internalType": "bytes32",
          "name": "role",
          "type": "bytes32"
        },
        {
          "indexed": true,
          "internalType": "bytes32",
          "name": "previousAdminRole",
          "type": "bytes32"
        },
        {
          "indexed": true,
          "internalType": "bytes32",
          "name": "newAdminRole",
          "type": "bytes32"
        }
      ],
      "name": "RoleAdminChanged",
      "type": "event"
    },
    {
      "anonymous": false,
      "inputs": [
        {
          "indexed": true,
          "internalType": "bytes32",
          "name": "role",
          "type": "bytes32"
        },
        {
          "indexed": true,
          "internalType": "address",
          "name": "account",
          "type": "address"
        },
        {
          "indexed": true,
          "internalType": "address",
          "name": "sender",
          "type": "address"
        }
      ],
      "name": "RoleGranted",
      "type": "event"
    },
    {
      "anonymous": false,
      "inputs": [
        {
          "indexed": true,
          "internalType": "bytes32",
          "name": "role",
          "type": "bytes32"
        },
        {
          "indexed": true,
          "internalType": "address",
          "name": "account",
          "type": "address"
        },
        {
          "indexed": true,
          "internalType": "address",
          "name": "sender",
          "type": "address"
        }
      ],
      "name": "RoleRevoked",
      "type": "event"
    },
    {
      "anonymous": false,
      "inputs": [
        {
          "indexed": true,
          "internalType": "uint256",
          "name": "roundId",
          "type": "uint256"
        }
      ],
      "name": "RoundFinished",
      "type": "event"
    },
    {
      "anonymous": false,
      "inputs": [
        {
          "indexed": true,
          "internalType": "address",
          "name": "member",
          "type": "address"
        },
        {
          "indexed": false,
          "internalType": "uint256",
          "name": "amount",
          "type": "uint256"
        }
      ],
      "name": "TicketsCollected",
      "type": "event"
    },
    {
      "inputs": [],
      "name": "CLAIM_PERIOD",
      "outputs": [
        {
          "internalType": "uint256",
          "name": "",
          "type": "uint256"
        }
      ],
      "stateMutability": "view",
      "type": "function"
    },
    {
      "inputs": [],
      "name": "DAYS_STREAK_FOR_TICKET",
      "outputs": [
        {
          "internalType": "uint256",
          "name": "",
          "type": "uint256"
        }
      ],
      "stateMutability": "view",
      "type": "function"
    },
    {
      "inputs": [],
      "name": "DEFAULT_ADMIN_ROLE",
      "outputs": [
        {
          "internalType": "bytes32",
          "name": "",
          "type": "bytes32"
        }
      ],
      "stateMutability": "view",
      "type": "function"
    },
    {
      "inputs": [],
      "name": "OPERATOR_ROLE",
      "outputs": [
        {
          "internalType": "bytes32",
          "name": "",
          "type": "bytes32"
        }
      ],
      "stateMutability": "view",
      "type": "function"
    },
    {
      "inputs": [],
      "name": "TICKET_ID",
      "outputs": [
        {
          "internalType": "uint256",
          "name": "",
          "type": "uint256"
        }
      ],
      "stateMutability": "view",
      "type": "function"
    },
    {
      "inputs": [],
      "name": "TICKET_PRICE",
      "outputs": [
        {
          "internalType": "uint256",
          "name": "",
          "type": "uint256"
        }
      ],
      "stateMutability": "view",
      "type": "function"
    },
    {
      "inputs": [
        {
          "internalType": "uint256",
          "name": "amount",
          "type": "uint256"
        }
      ],
      "name": "buyTickets",
      "outputs": [],
      "stateMutability": "nonpayable",
      "type": "function"
    },
    {
      "inputs": [],
      "name": "claimDay",
      "outputs": [],
      "stateMutability": "nonpayable",
      "type": "function"
    },
    {
      "inputs": [
        {
          "internalType": "uint256",
          "name": "startTime",
          "type": "uint256"
        },
        {
          "internalType": "uint256",
          "name": "duration",
          "type": "uint256"
        },
        {
          "internalType": "uint256",
          "name": "initialPrize",
          "type": "uint256"
        },
        {
          "internalType": "uint256",
          "name": "tokensForOneTicket",
          "type": "uint256"
        },
        {
          "internalType": "uint256",
          "name": "maxTicketsFromOneMember",
          "type": "uint256"
        },
        {
          "internalType": "uint256[]",
          "name": "winnersForLevel",
          "type": "uint256[]"
        },
        {
          "internalType": "uint256[]",
          "name": "prizeForLevel",
          "type": "uint256[]"
        }
      ],
      "name": "createLotteryRound",
      "outputs": [],
      "stateMutability": "nonpayable",
      "type": "function"
    },
    {
      "inputs": [
        {
          "internalType": "uint256",
          "name": "roundId",
          "type": "uint256"
        },
        {
          "internalType": "uint256",
          "name": "tickets",
          "type": "uint256"
        }
      ],
      "name": "entryLottery",
      "outputs": [],
      "stateMutability": "nonpayable",
      "type": "function"
    },
    {
      "inputs": [
        {
          "internalType": "uint256",
          "name": "roundId",
          "type": "uint256"
        },
        {
          "internalType": "address[][]",
          "name": "pk",
          "type": "address[][]"
        }
      ],
      "name": "finishLotteryRound",
      "outputs": [],
      "stateMutability": "nonpayable",
      "type": "function"
    },
    {
      "inputs": [],
      "name": "getActiveRounds",
      "outputs": [
        {
          "components": [
            {
              "internalType": "uint256",
              "name": "id",
              "type": "uint256"
            },
            {
              "internalType": "uint256",
              "name": "startTime",
              "type": "uint256"
            },
            {
              "internalType": "uint256",
              "name": "duration",
              "type": "uint256"
            },
            {
              "internalType": "bool",
              "name": "isClosed",
              "type": "bool"
            },
            {
              "internalType": "bool",
              "name": "isOracleFulfilled",
              "type": "bool"
            },
            {
              "internalType": "bool",
              "name": "isFinished",
              "type": "bool"
            },
            {
              "internalType": "uint256",
              "name": "initialPrize",
              "type": "uint256"
            },
            {
              "internalType": "uint256",
              "name": "totalPrize",
              "type": "uint256"
            },
            {
              "internalType": "uint256",
              "name": "maxTicketsFromOneMember",
              "type": "uint256"
            },
            {
              "internalType": "uint256",
              "name": "tokensForOneTicket",
              "type": "uint256"
            },
            {
              "internalType": "uint256[]",
              "name": "winnersForLevel",
              "type": "uint256[]"
            },
            {
              "internalType": "uint256[]",
              "name": "prizeForLevel",
              "type": "uint256[]"
            },
            {
              "internalType": "uint256",
              "name": "totalTickets",
              "type": "uint256"
            },
            {
              "internalType": "address[]",
              "name": "members",
              "type": "address[]"
            },
            {
              "internalType": "uint256",
              "name": "randomWord",
              "type": "uint256"
            },
            {
              "internalType": "address[][]",
              "name": "winners",
              "type": "address[][]"
            }
          ],
          "internalType": "struct ILottery.Round[]",
          "name": "",
          "type": "tuple[]"
        }
      ],
      "stateMutability": "view",
      "type": "function"
    },
    {
      "inputs": [
        {
          "internalType": "address",
          "name": "user",
          "type": "address"
        }
      ],
      "name": "getClaimStreak",
      "outputs": [
        {
          "internalType": "uint256",
          "name": "",
          "type": "uint256"
        }
      ],
      "stateMutability": "view",
      "type": "function"
    },
    {
      "inputs": [
        {
          "internalType": "address",
          "name": "user",
          "type": "address"
        }
      ],
      "name": "getLastClaimTime",
      "outputs": [
        {
          "internalType": "uint256",
          "name": "",
          "type": "uint256"
        }
      ],
      "stateMutability": "view",
      "type": "function"
    },
    {
      "inputs": [
        {
          "internalType": "uint256",
          "name": "length",
          "type": "uint256"
        },
        {
          "internalType": "uint256",
          "name": "offset",
          "type": "uint256"
        }
      ],
      "name": "getLastFinishedRounds",
      "outputs": [
        {
          "components": [
            {
              "internalType": "uint256",
              "name": "id",
              "type": "uint256"
            },
            {
              "internalType": "uint256",
              "name": "startTime",
              "type": "uint256"
            },
            {
              "internalType": "uint256",
              "name": "duration",
              "type": "uint256"
            },
            {
              "internalType": "bool",
              "name": "isClosed",
              "type": "bool"
            },
            {
              "internalType": "bool",
              "name": "isOracleFulfilled",
              "type": "bool"
            },
            {
              "internalType": "bool",
              "name": "isFinished",
              "type": "bool"
            },
            {
              "internalType": "uint256",
              "name": "initialPrize",
              "type": "uint256"
            },
            {
              "internalType": "uint256",
              "name": "totalPrize",
              "type": "uint256"
            },
            {
              "internalType": "uint256",
              "name": "maxTicketsFromOneMember",
              "type": "uint256"
            },
            {
              "internalType": "uint256",
              "name": "tokensForOneTicket",
              "type": "uint256"
            },
            {
              "internalType": "uint256[]",
              "name": "winnersForLevel",
              "type": "uint256[]"
            },
            {
              "internalType": "uint256[]",
              "name": "prizeForLevel",
              "type": "uint256[]"
            },
            {
              "internalType": "uint256",
              "name": "totalTickets",
              "type": "uint256"
            },
            {
              "internalType": "address[]",
              "name": "members",
              "type": "address[]"
            },
            {
              "internalType": "uint256",
              "name": "randomWord",
              "type": "uint256"
            },
            {
              "internalType": "address[][]",
              "name": "winners",
              "type": "address[][]"
            }
          ],
          "internalType": "struct ILottery.Round[]",
          "name": "",
          "type": "tuple[]"
        }
      ],
      "stateMutability": "view",
      "type": "function"
    },
    {
      "inputs": [
        {
          "internalType": "bytes32",
          "name": "role",
          "type": "bytes32"
        }
      ],
      "name": "getRoleAdmin",
      "outputs": [
        {
          "internalType": "bytes32",
          "name": "",
          "type": "bytes32"
        }
      ],
      "stateMutability": "view",
      "type": "function"
    },
    {
      "inputs": [
        {
          "internalType": "uint256",
          "name": "id",
          "type": "uint256"
        }
      ],
      "name": "getRound",
      "outputs": [
        {
          "components": [
            {
              "internalType": "uint256",
              "name": "id",
              "type": "uint256"
            },
            {
              "internalType": "uint256",
              "name": "startTime",
              "type": "uint256"
            },
            {
              "internalType": "uint256",
              "name": "duration",
              "type": "uint256"
            },
            {
              "internalType": "bool",
              "name": "isClosed",
              "type": "bool"
            },
            {
              "internalType": "bool",
              "name": "isOracleFulfilled",
              "type": "bool"
            },
            {
              "internalType": "bool",
              "name": "isFinished",
              "type": "bool"
            },
            {
              "internalType": "uint256",
              "name": "initialPrize",
              "type": "uint256"
            },
            {
              "internalType": "uint256",
              "name": "totalPrize",
              "type": "uint256"
            },
            {
              "internalType": "uint256",
              "name": "maxTicketsFromOneMember",
              "type": "uint256"
            },
            {
              "internalType": "uint256",
              "name": "tokensForOneTicket",
              "type": "uint256"
            },
            {
              "internalType": "uint256[]",
              "name": "winnersForLevel",
              "type": "uint256[]"
            },
            {
              "internalType": "uint256[]",
              "name": "prizeForLevel",
              "type": "uint256[]"
            },
            {
              "internalType": "uint256",
              "name": "totalTickets",
              "type": "uint256"
            },
            {
              "internalType": "address[]",
              "name": "members",
              "type": "address[]"
            },
            {
              "internalType": "uint256",
              "name": "randomWord",
              "type": "uint256"
            },
            {
              "internalType": "address[][]",
              "name": "winners",
              "type": "address[][]"
            }
          ],
          "internalType": "struct ILottery.Round",
          "name": "",
          "type": "tuple"
        }
      ],
      "stateMutability": "view",
      "type": "function"
    },
    {
      "inputs": [],
      "name": "getRounds",
      "outputs": [
        {
          "components": [
            {
              "internalType": "uint256",
              "name": "id",
              "type": "uint256"
            },
            {
              "internalType": "uint256",
              "name": "startTime",
              "type": "uint256"
            },
            {
              "internalType": "uint256",
              "name": "duration",
              "type": "uint256"
            },
            {
              "internalType": "bool",
              "name": "isClosed",
              "type": "bool"
            },
            {
              "internalType": "bool",
              "name": "isOracleFulfilled",
              "type": "bool"
            },
            {
              "internalType": "bool",
              "name": "isFinished",
              "type": "bool"
            },
            {
              "internalType": "uint256",
              "name": "initialPrize",
              "type": "uint256"
            },
            {
              "internalType": "uint256",
              "name": "totalPrize",
              "type": "uint256"
            },
            {
              "internalType": "uint256",
              "name": "maxTicketsFromOneMember",
              "type": "uint256"
            },
            {
              "internalType": "uint256",
              "name": "tokensForOneTicket",
              "type": "uint256"
            },
            {
              "internalType": "uint256[]",
              "name": "winnersForLevel",
              "type": "uint256[]"
            },
            {
              "internalType": "uint256[]",
              "name": "prizeForLevel",
              "type": "uint256[]"
            },
            {
              "internalType": "uint256",
              "name": "totalTickets",
              "type": "uint256"
            },
            {
              "internalType": "address[]",
              "name": "members",
              "type": "address[]"
            },
            {
              "internalType": "uint256",
              "name": "randomWord",
              "type": "uint256"
            },
            {
              "internalType": "address[][]",
              "name": "winners",
              "type": "address[][]"
            }
          ],
          "internalType": "struct ILottery.Round[]",
          "name": "",
          "type": "tuple[]"
        }
      ],
      "stateMutability": "view",
      "type": "function"
    },
    {
      "inputs": [],
      "name": "getTotalRounds",
      "outputs": [
        {
          "internalType": "uint256",
          "name": "",
          "type": "uint256"
        }
      ],
      "stateMutability": "view",
      "type": "function"
    },
    {
      "inputs": [
        {
          "internalType": "address",
          "name": "user",
          "type": "address"
        },
        {
          "internalType": "uint256",
          "name": "roundId",
          "type": "uint256"
        }
      ],
      "name": "getUserRoundEntry",
      "outputs": [
        {
          "internalType": "uint256",
          "name": "",
          "type": "uint256"
        }
      ],
      "stateMutability": "view",
      "type": "function"
    },
    {
      "inputs": [
        {
          "internalType": "address",
          "name": "user",
          "type": "address"
        }
      ],
      "name": "getWinnerPrize",
      "outputs": [
        {
          "internalType": "uint256",
          "name": "",
          "type": "uint256"
        }
      ],
      "stateMutability": "view",
      "type": "function"
    },
    {
      "inputs": [
        {
          "internalType": "bytes32",
          "name": "role",
          "type": "bytes32"
        },
        {
          "internalType": "address",
          "name": "account",
          "type": "address"
        }
      ],
      "name": "grantRole",
      "outputs": [],
      "stateMutability": "nonpayable",
      "type": "function"
    },
    {
      "inputs": [
        {
          "internalType": "bytes32",
          "name": "role",
          "type": "bytes32"
        },
        {
          "internalType": "address",
          "name": "account",
          "type": "address"
        }
      ],
      "name": "hasRole",
      "outputs": [
        {
          "internalType": "bool",
          "name": "",
          "type": "bool"
        }
      ],
      "stateMutability": "view",
      "type": "function"
    },
    {
      "inputs": [
        {
          "internalType": "address",
          "name": "user",
          "type": "address"
        }
      ],
      "name": "isClaimAvailable",
      "outputs": [
        {
          "internalType": "bool",
          "name": "",
          "type": "bool"
        }
      ],
      "stateMutability": "view",
      "type": "function"
    },
    {
      "inputs": [
        {
          "internalType": "address",
          "name": "user",
          "type": "address"
        }
      ],
      "name": "isMintAvailable",
      "outputs": [
        {
          "internalType": "bool",
          "name": "",
          "type": "bool"
        }
      ],
      "stateMutability": "view",
      "type": "function"
    },
    {
      "inputs": [
        {
          "internalType": "uint256",
          "name": "roundId",
          "type": "uint256"
        }
      ],
      "name": "manuallyGetWinners",
      "outputs": [],
      "stateMutability": "nonpayable",
      "type": "function"
    },
    {
      "inputs": [],
      "name": "mintMyTicket",
      "outputs": [],
      "stateMutability": "nonpayable",
      "type": "function"
    },
    {
      "inputs": [
        {
          "internalType": "uint256",
          "name": "",
          "type": "uint256"
        }
      ],
      "name": "oracleRequests",
      "outputs": [
        {
          "internalType": "uint256",
          "name": "",
          "type": "uint256"
        }
      ],
      "stateMutability": "view",
      "type": "function"
    },
    {
      "inputs": [
        {
          "internalType": "uint256",
          "name": "requestId",
          "type": "uint256"
        },
        {
          "internalType": "uint256[]",
          "name": "randomWords",
          "type": "uint256[]"
        }
      ],
      "name": "rawFulfillRandomWords",
      "outputs": [],
      "stateMutability": "nonpayable",
      "type": "function"
    },
    {
      "inputs": [
        {
          "internalType": "bytes32",
          "name": "role",
          "type": "bytes32"
        },
        {
          "internalType": "address",
          "name": "account",
          "type": "address"
        }
      ],
      "name": "renounceRole",
      "outputs": [],
      "stateMutability": "nonpayable",
      "type": "function"
    },
    {
      "inputs": [
        {
          "internalType": "bytes32",
          "name": "role",
          "type": "bytes32"
        },
        {
          "internalType": "address",
          "name": "account",
          "type": "address"
        }
      ],
      "name": "revokeRole",
      "outputs": [],
      "stateMutability": "nonpayable",
      "type": "function"
    },
    {
      "inputs": [
        {
          "internalType": "uint256",
          "name": "",
          "type": "uint256"
        }
      ],
      "name": "rounds",
      "outputs": [
        {
          "internalType": "uint256",
          "name": "id",
          "type": "uint256"
        },
        {
          "internalType": "uint256",
          "name": "startTime",
          "type": "uint256"
        },
        {
          "internalType": "uint256",
          "name": "duration",
          "type": "uint256"
        },
        {
          "internalType": "bool",
          "name": "isClosed",
          "type": "bool"
        },
        {
          "internalType": "bool",
          "name": "isOracleFulfilled",
          "type": "bool"
        },
        {
          "internalType": "bool",
          "name": "isFinished",
          "type": "bool"
        },
        {
          "internalType": "uint256",
          "name": "initialPrize",
          "type": "uint256"
        },
        {
          "internalType": "uint256",
          "name": "totalPrize",
          "type": "uint256"
        },
        {
          "internalType": "uint256",
          "name": "maxTicketsFromOneMember",
          "type": "uint256"
        },
        {
          "internalType": "uint256",
          "name": "tokensForOneTicket",
          "type": "uint256"
        },
        {
          "internalType": "uint256",
          "name": "totalTickets",
          "type": "uint256"
        },
        {
          "internalType": "uint256",
          "name": "randomWord",
          "type": "uint256"
        }
      ],
      "stateMutability": "view",
      "type": "function"
    },
    {
      "inputs": [
        {
          "internalType": "bytes4",
          "name": "interfaceId",
          "type": "bytes4"
        }
      ],
      "name": "supportsInterface",
      "outputs": [
        {
          "internalType": "bool",
          "name": "",
          "type": "bool"
        }
      ],
      "stateMutability": "view",
      "type": "function"
    },
    {
      "inputs": [
        {
          "internalType": "uint32",
          "name": "gasLimit",
          "type": "uint32"
        }
      ],
      "name": "updateCallbackGasLimit",
      "outputs": [],
      "stateMutability": "nonpayable",
      "type": "function"
    },
    {
      "inputs": [
        {
          "internalType": "uint256",
          "name": "sec",
          "type": "uint256"
        }
      ],
      "name": "updateClaimPeriod",
      "outputs": [],
      "stateMutability": "nonpayable",
      "type": "function"
    },
    {
      "inputs": [
        {
          "internalType": "uint256",
          "name": "daysNum",
          "type": "uint256"
        }
      ],
      "name": "updateDaysStreakForTicket",
      "outputs": [],
      "stateMutability": "nonpayable",
      "type": "function"
    },
    {
      "inputs": [
        {
          "internalType": "bytes32",
          "name": "kayHash",
          "type": "bytes32"
        }
      ],
      "name": "updateKeyHash",
      "outputs": [],
      "stateMutability": "nonpayable",
      "type": "function"
    },
    {
      "inputs": [
        {
          "internalType": "address",
          "name": "token",
          "type": "address"
        }
      ],
      "name": "updatePaymentToken",
      "outputs": [],
      "stateMutability": "nonpayable",
      "type": "function"
    },
    {
      "inputs": [
        {
          "internalType": "uint16",
          "name": "confirmations",
          "type": "uint16"
        }
      ],
      "name": "updateRequestConfirmations",
      "outputs": [],
      "stateMutability": "nonpayable",
      "type": "function"
    },
    {
      "inputs": [
        {
          "internalType": "address",
          "name": "pool",
          "type": "address"
        }
      ],
      "name": "updateRewardPool",
      "outputs": [],
      "stateMutability": "nonpayable",
      "type": "function"
    },
    {
      "inputs": [
        {
          "internalType": "address",
          "name": "token",
          "type": "address"
        }
      ],
      "name": "updateRewardToken",
      "outputs": [],
      "stateMutability": "nonpayable",
      "type": "function"
    },
    {
      "inputs": [
        {
          "internalType": "uint64",
          "name": "id",
          "type": "uint64"
        }
      ],
      "name": "updateSubscriptionId",
      "outputs": [],
      "stateMutability": "nonpayable",
      "type": "function"
    },
    {
      "inputs": [
        {
          "internalType": "uint256",
          "name": "id",
          "type": "uint256"
        }
      ],
      "name": "updateTicketId",
      "outputs": [],
      "stateMutability": "nonpayable",
      "type": "function"
    },
    {
      "inputs": [
        {
          "internalType": "uint256",
          "name": "price",
          "type": "uint256"
        }
      ],
      "name": "updateTicketPrice",
      "outputs": [],
      "stateMutability": "nonpayable",
      "type": "function"
    },
    {
      "inputs": [
        {
          "internalType": "address",
          "name": "token",
          "type": "address"
        }
      ],
      "name": "updateTicketToken",
      "outputs": [],
      "stateMutability": "nonpayable",
      "type": "function"
    },
    {
      "inputs": [
        {
          "internalType": "bool",
          "name": "isEnabled",
          "type": "bool"
        }
      ],
      "name": "updateWinnerCalculationInRequest",
      "outputs": [],
      "stateMutability": "nonpayable",
      "type": "function"
    }
  ],
  "transactionHash": "0x3de046a74354f93b94e58fbd11942c5b8937fdff8ad98fe6b1d6be8c0baca5f3",
  "args": [
    "10000000000000000000",
    0,
    5,
    "0x5348bC49fDB871265557B8b30005Ea3B580C1bC1",
    "0x0a499a2cbF6f214F1137018b2Df330a7E9C134fD",
    "0x90a871F3C246DE3d1e7420dB852cdEa645e247A9",
    "0x83cba3c7996D876716d79C9aC96e172fa62E8fd9",
    "0xAE975071Be8F8eE67addBC1A82488F1C24858067",
    "554",
    "0xcc294a196eeeb44da2888d17c0625cc88d70d9760a69d58d853ba6581a9ab0cd"
  ],
  "numDeployments": 1,
  "solcInputHash": "91aa70307806803c8d7437b978775f5f",
  "bytecode": "0x60a06040526005600a5562015180600b556014805466ffffffffffffff19166403000186a01790553480156200003457600080fd5b50604051620045d3380380620045d38339810160408190526200005791620001ed565b6001600160a01b03838116608081905260088c905560098b9055600a8a9055600c80546001600160a01b03199081168b851617909155600d805482168a8516179055600e80548216898516179055600f805482169388169390931790925560108054909216179055601280546001600160401b0319166001600160401b0384161790556013819055620000f36000620000ed3390565b6200012f565b6200011f7f97667070c54ef182b0f5858b034beac1b6f3089aa2d3188bb1e8929f4fa9b929336200012f565b50505050505050505050620002a8565b6000828152602081815260408083206001600160a01b038516845290915290205460ff16620001cc576000828152602081815260408083206001600160a01b03851684529091529020805460ff191660011790556200018b3390565b6001600160a01b0316816001600160a01b0316837f2f8788117e7eff1d82e926ec794901d17c78024a50270940304540a733656f0d60405160405180910390a45b5050565b80516001600160a01b0381168114620001e857600080fd5b919050565b6000806000806000806000806000806101408b8d0312156200020e57600080fd5b8a51995060208b0151985060408b015197506200022e60608c01620001d0565b96506200023e60808c01620001d0565b95506200024e60a08c01620001d0565b94506200025e60c08c01620001d0565b93506200026e60e08c01620001d0565b6101008c01519093506001600160401b03811681146200028d57600080fd5b809250506101208b015190509295989b9194979a5092959850565b608051614308620002cb60003960008181610cf40152610d3601526143086000f3fe608060405234801561001057600080fd5b506004361061028a5760003560e01c806372d4c6221161015c578063a4ba364d116100ce578063dcd2f2e011610087578063dcd2f2e014610618578063e44ddc221461062b578063e7fa67e514610634578063f02137c814610647578063f5b541a61461065a578063f8cf31cb1461066f57600080fd5b8063a4ba364d14610590578063a680e0bc146105b9578063b0e8d086146105cc578063ba00f6c5146105df578063d547741f146105f2578063d5fbac3a1461060557600080fd5b80638f1327c0116101205780638f1327c01461051c578063905d46361461053c57806391d148541461054f5780639d51794214610562578063a1d3f4af14610575578063a217fddf1461058857600080fd5b806372d4c6221461047a5780637bf9e4c11461048d5780637d984d5f146104a05780637f774d02146104a85780638c65c81f146104b057600080fd5b80632f2ff15d116102005780634a12512e116101b95780634a12512e146104115780634ccf1b34146104245780634e3be4ed14610437578063592eef111461043f5780635f5369e6146104525780636984d0701461047257600080fd5b80632f2ff15d146103a95780632f366637146103bc5780632faaaae8146103cf57806336568abe146103d85780633f6221bc146103eb578063449050bc146103fe57600080fd5b80631a95f15f116102525780631a95f15f146103165780631ad1ec221461032d5780631fe543e3146103355780632035fed11461034857806321241dfe1461037d578063248a9ca31461038657600080fd5b806301b327cf1461028f57806301ffc9a7146102b8578063110cace8146102db578063148bea63146102f057806314b1dd1b14610303575b600080fd5b6102a261029d366004613a14565b610682565b6040516102af9190613c15565b60405180910390f35b6102cb6102c6366004613c77565b610ad3565b60405190151581526020016102af565b6102ee6102e9366004613d26565b610b08565b005b6102ee6102fe366004613e44565b610ca9565b6102ee610311366004613e5d565b610cba565b61031f60085481565b6040519081526020016102af565b60015461031f565b6102ee610343366004613eec565b610ce9565b61031f610356366004613f32565b60009081526004602090815260408083206001600160a01b03949094168352929052205490565b61031f600b5481565b61031f610394366004613e44565b60009081526020819052604090206001015490565b6102ee6103b7366004613f5c565b610d71565b6102ee6103ca366004613e44565b610d9b565b61031f600a5481565b6102ee6103e6366004613f5c565b610e80565b6102cb6103f9366004613f88565b610efa565b6102ee61040c366004613e44565b610f1b565b6102ee61041f366004613fa3565b610f3c565b6102ee610432366004613f88565b61152c565b6102ee61155a565b61031f61044d366004613f88565b611637565b61031f610460366004613e44565b60116020526000908152604090205481565b6102a26117be565b6102ee610488366004613a14565b611a55565b6102cb61049b366004613f88565b611d64565b6102a2611d7b565b6102ee612195565b6104c36104be366004613e44565b61235c565b604080519c8d5260208d019b909b52998b019890985295151560608a0152931515608089015291151560a088015260c087015260e0860152610100850152610120840152610140830152610160820152610180016102af565b61052f61052a366004613e44565b6123d1565b6040516102af9190614036565b6102ee61054a366004613f88565b612646565b6102cb61055d366004613f5c565b612674565b6102ee610570366004613e44565b61269d565b6102ee610583366004613e44565b6126ae565b61031f600081565b61031f61059e366004613f88565b6001600160a01b031660009081526006602052604090205490565b61031f6105c7366004613f88565b6126bf565b6102ee6105da366004614049565b61277e565b6102ee6105ed36600461406f565b6127a6565b6102ee610600366004613f5c565b6127d6565b6102ee610613366004613f88565b6127fb565b6102ee6106263660046140a1565b612829565b61031f60095481565b6102ee610642366004613e44565b612859565b6102ee610655366004613e44565b61286a565b61031f6000805160206142b383398151915281565b6102ee61067d366004613f88565b61287b565b60606000836001600160401b0381111561069e5761069e613ca1565b6040519080825280602002602001820160405280156106d757816020015b6106c4613848565b8152602001906001900390816106bc5790505b50600154909150849084905b8015610a025760016106f581836140d4565b81548110610705576107056140eb565b90600052602060002090600e020160030160029054906101000a900460ff16156109f05781156107415761073a6001836140d4565b91506109f0565b61074c6001846140d4565b9250600161075a81836140d4565b8154811061076a5761076a6140eb565b60009182526020918290206040805161020081018252600e90930290910180548352600181015483850152600281015483830152600381015460ff808216151560608601526101008083048216151560808701526201000090920416151560a0850152600482015460c0850152600582015460e08501526006820154908401526007810154610120840152600881018054835181870281018701909452808452939491936101408601939283018282801561084457602002820191906000526020600020905b815481526020019060010190808311610830575b505050505081526020016009820180548060200260200160405190810160405280929190818152602001828054801561089c57602002820191906000526020600020905b815481526020019060010190808311610888575b50505050508152602001600a8201548152602001600b820180548060200260200160405190810160405280929190818152602001828054801561090857602002820191906000526020600020905b81546001600160a01b031681526001909101906020018083116108ea575b50505050508152602001600c8201548152602001600d8201805480602002602001604051908101604052809291908181526020016000905b828210156109b6576000848152602090819020830180546040805182850281018501909152818152928301828280156109a257602002820191906000526020600020905b81546001600160a01b03168152600190910190602001808311610984575b505050505081526020019060010190610940565b50505050815250508484815181106109d0576109d06140eb565b602002602001018190525082600014156109f05783945050505050610acd565b806109fa81614101565b9150506106e3565b506000610a0f83886140d4565b90506000816001600160401b03811115610a2b57610a2b613ca1565b604051908082528060200260200182016040528015610a6457816020015b610a51613848565b815260200190600190039081610a495790505b50905060005b82811015610ac55785610a7d8683614118565b81518110610a8d57610a8d6140eb565b6020026020010151828281518110610aa757610aa76140eb565b60200260200101819052508080610abd90614130565b915050610a6a565b509450505050505b92915050565b60006001600160e01b03198216637965db0b60e01b1480610acd57506301ffc9a760e01b6001600160e01b0319831614610acd565b6000805160206142b3833981519152610b20816128a9565b6001548310610b6e5760405162461bcd60e51b8152602060048201526015602482015274125b9cdd59999a58da595b9d081c9bdd5b99081a59605a1b60448201526064015b60405180910390fd5b600060018481548110610b8357610b836140eb565b90600052602060002090600e020190504281600201548260010154610ba89190614118565b10610bf55760405162461bcd60e51b815260206004820152601960248201527f526f756e64206973206e6f742066696e697368656420796574000000000000006044820152606401610b65565b600381015460ff1615610c445760405162461bcd60e51b8152602060048201526017602482015276149bdd5b99081a5cc8185b1c9958591e4818db1bdcd959604a1b6044820152606401610b65565b610c4d846128b3565b5060038101805460ff191660011790556007810154600a820154610c71919061414b565b8160040154610c809190614118565b6005820155600a810154600085815260036020526040902055610ca384846129be565b50505050565b6000610cb4816128a9565b50600a55565b6000610cc5816128a9565b506012805467ffffffffffffffff19166001600160401b0392909216919091179055565b336001600160a01b037f00000000000000000000000000000000000000000000000000000000000000001614610d635760405163073e64fd60e21b81523360048201526001600160a01b037f0000000000000000000000000000000000000000000000000000000000000000166024820152604401610b65565b610d6d8282612bc4565b5050565b600082815260208190526040902060010154610d8c816128a9565b610d968383612d0e565b505050565b60008111610deb5760405162461bcd60e51b815260206004820152601f60248201527f416d6f756e742073686f756c642062652067726561746572207468616e2030006044820152606401610b65565b600060085482610dfb919061414b565b600d549091506001600160a01b03166379cc6790336040516001600160e01b031960e084901b1681526001600160a01b03909116600482015260248101849052604401600060405180830381600087803b158015610e5857600080fd5b505af1158015610e6c573d6000803e3d6000fd5b50505050610d6d610e7a3390565b83612d92565b6001600160a01b0381163314610ef05760405162461bcd60e51b815260206004820152602f60248201527f416363657373436f6e74726f6c3a2063616e206f6e6c792072656e6f756e636560448201526e103937b632b9903337b91039b2b63360891b6064820152608401610b65565b610d6d8282612e5d565b600042600b54610f09846126bf565b610f139190614118565b111592915050565b6000805160206142b3833981519152610f33816128a9565b610d6d82612ec2565b6000805160206142b3833981519152610f54816128a9565b6000861180610f635750600085115b610f955760405162461bcd60e51b815260206004820152600360248201526245433160e81b6044820152606401610b65565b8151835114610fcc5760405162461bcd60e51b815260206004820152600360248201526222a19960e91b6044820152606401610b65565b60008351116110035760405162461bcd60e51b815260206004820152600360248201526245433360e81b6044820152606401610b65565b600084116110395760405162461bcd60e51b81526020600482015260036024820152621150cd60ea1b6044820152606401610b65565b4288101561106f5760405162461bcd60e51b815260206004820152600360248201526245433560e81b6044820152606401610b65565b600087116110a55760405162461bcd60e51b815260206004820152600360248201526222a19b60e91b6044820152606401610b65565b82516000816001600160401b038111156110c1576110c1613ca1565b6040519080825280602002602001820160405280156110f457816020015b60608152602001906001900390816110df5790505b5090506000805b86518110156111b657858181518110611116576111166140eb565b6020026020010151826111299190614118565b915086818151811061113d5761113d6140eb565b60200260200101516001600160401b0381111561115c5761115c613ca1565b604051908082528060200260200182016040528015611185578160200160208202803683370190505b50838281518110611198576111986140eb565b602002602001018190525080806111ae90614130565b9150506110fb565b50806064146111ed5760405162461bcd60e51b815260206004820152600360248201526245433760e81b6044820152606401610b65565b600060405180610200016040528060018054905081526020018d81526020018c81526020016000151581526020016000151581526020016000151581526020018b8152602001600081526020018981526020018a81526020018881526020018781526020016000815260200160006001600160401b0381111561127257611272613ca1565b60405190808252806020026020018201604052801561129b578160200160208202803683370190505b5081526000602082018190526040918201869052600154915192935090917fffd54b413ad7953f600667abc68976fd55918f924f39fad7a55319a0217ad3b79190a260018054808201825560009190915281517fb10e2d527612073b26eecdfd717e6a320cf44b4afac2b0732d9fcbe2b7fa0cf6600e9092029182019081556020808401517fb10e2d527612073b26eecdfd717e6a320cf44b4afac2b0732d9fcbe2b7fa0cf784015560408401517fb10e2d527612073b26eecdfd717e6a320cf44b4afac2b0732d9fcbe2b7fa0cf884015560608401517fb10e2d527612073b26eecdfd717e6a320cf44b4afac2b0732d9fcbe2b7fa0cf984018054608087015160a088015161ffff1990921693151561ff0019169390931761010093151584021762ff00001916620100009115159190910217905560c08501517fb10e2d527612073b26eecdfd717e6a320cf44b4afac2b0732d9fcbe2b7fa0cfa85015560e08501517fb10e2d527612073b26eecdfd717e6a320cf44b4afac2b0732d9fcbe2b7fa0cfb8501558401517fb10e2d527612073b26eecdfd717e6a320cf44b4afac2b0732d9fcbe2b7fa0cfc8401556101208401517fb10e2d527612073b26eecdfd717e6a320cf44b4afac2b0732d9fcbe2b7fa0cfd840155610140840151805185946114ae937fb10e2d527612073b26eecdfd717e6a320cf44b4afac2b0732d9fcbe2b7fa0cfe9091019201906138cb565b5061016082015180516114cb9160098401916020909101906138cb565b50610180820151600a8201556101a082015180516114f391600b840191602090910190613916565b506101c0820151600c8201556101e0820151805161151b91600d84019160209091019061396b565b505050505050505050505050505050565b6000611537816128a9565b50600d80546001600160a01b0319166001600160a01b0392909216919091179055565b61156333611d64565b6115af5760405162461bcd60e51b815260206004820152601c60248201527f5469636b6574206d696e74206973206e6f7420617661696c61626c65000000006044820152606401610b65565b6115ba336001612d92565b336000908152600760205260409020429055600a546001600160401b038111156115e6576115e6613ca1565b60405190808252806020026020018201604052801561160f578160200160208202803683370190505b50336000908152600560209081526040909120825161163493919291909101906138cb565b50565b6001600160a01b0381166000908152600560205260408120805461165e5750600092915050565b600060019050600082600081548110611679576116796140eb565b600091825260209091200154905060015b835481101561177d578381815481106116a5576116a56140eb565b9060005260206000200154600014156116bd5761177d565b8381815481106116cf576116cf6140eb565b9060005260206000200154600b54836116e89190614118565b111580156117295750838181548110611703576117036140eb565b9060005260206000200154600b54600261171d919061414b565b6117279084614118565b115b1561175f57611739600184614118565b925083818154811061174d5761174d6140eb565b9060005260206000200154915061176b565b50600095945050505050565b8061177581614130565b91505061168a565b50600a5482141580156117a65750600b5461179990600261414b565b6117a39082614118565b42115b156117b657506000949350505050565b509392505050565b60606001805480602002602001604051908101604052809291908181526020016000905b82821015611a4c5760008481526020908190206040805161020081018252600e860290920180548352600181015483850152600281015483830152600381015460ff808216151560608601526101008083048216151560808701526201000090920416151560a0850152600482015460c0850152600582015460e0850152600682015490840152600781015461012084015260088101805483518187028101870190945280845293949193610140860193928301828280156118c357602002820191906000526020600020905b8154815260200190600101908083116118af575b505050505081526020016009820180548060200260200160405190810160405280929190818152602001828054801561191b57602002820191906000526020600020905b815481526020019060010190808311611907575b50505050508152602001600a8201548152602001600b820180548060200260200160405190810160405280929190818152602001828054801561198757602002820191906000526020600020905b81546001600160a01b03168152600190910190602001808311611969575b50505050508152602001600c8201548152602001600d8201805480602002602001604051908101604052809291908181526020016000905b82821015611a3557600084815260209081902083018054604080518285028101850190915281815292830182828015611a2157602002820191906000526020600020905b81546001600160a01b03168152600190910190602001808311611a03575b5050505050815260200190600101906119bf565b5050505081525050815260200190600101906117e2565b50505050905090565b6001548210611a9e5760405162461bcd60e51b8152602060048201526015602482015274125b9cdd59999a58da595b9d081c9bdd5b99081a59605a1b6044820152606401610b65565b60008111611ae45760405162461bcd60e51b815260206004820152601360248201527205469636b65747320616d6f756e74206973203606c1b6044820152606401610b65565b600060018381548110611af957611af96140eb565b60009182526020808320868452600290915260408320600e90920201925081611b1f3390565b6001600160a01b03166001600160a01b031681526020019081526020016000205490504282600101541115611b965760405162461bcd60e51b815260206004820152601860248201527f526f756e64206973206e6f7420737461727465642079657400000000000000006044820152606401610b65565b4282600201548360010154611bab9190614118565b11611bf25760405162461bcd60e51b8152602060048201526017602482015276149bdd5b99081a5cc8185b1c9958591e4818db1bdcd959604a1b6044820152606401610b65565b6006820154611c018483614118565b1115611c4f5760405162461bcd60e51b815260206004820152601f60248201527f546f6f206d616e79207469636b65747320666f72206f6e65206d656d626572006044820152606401610b65565b600c546001600160a01b031663f5298aca336009546040516001600160e01b031960e085901b1681526001600160a01b039092166004830152602482015260448101869052606401600060405180830381600087803b158015611cb157600080fd5b505af1158015611cc5573d6000803e3d6000fd5b505050508060001415611cfa57600b82018054600181018255600091825260209091200180546001600160a01b031916331790555b611d048382614118565b6000858152600260209081526040808320338452909152902055611d288382614118565b6000858152600460209081526040808320338452909152812091909155600a83018054859290611d59908490614118565b909155505050505050565b600080611d7083611637565b600a54149392505050565b60606000806001805490506001600160401b03811115611d9d57611d9d613ca1565b604051908082528060200260200182016040528015611dc6578160200160208202803683370190505b50905060005b600154811015611e505760018181548110611de957611de96140eb565b90600052602060002090600e020160030160029054906101000a900460ff16611e3e576001828281518110611e2057611e206140eb565b91151560209283029190910190910152611e3b600184614118565b92505b80611e4881614130565b915050611dcc565b506000826001600160401b03811115611e6b57611e6b613ca1565b604051908082528060200260200182016040528015611ea457816020015b611e91613848565b815260200190600190039081611e895790505b506001549091505b80156117b65782611ebe6001836140d4565b81518110611ece57611ece6140eb565b60200260200101511561218357611ee66001856140d4565b93506001611ef481836140d4565b81548110611f0457611f046140eb565b60009182526020918290206040805161020081018252600e90930290910180548352600181015483850152600281015483830152600381015460ff808216151560608601526101008083048216151560808701526201000090920416151560a0850152600482015460c0850152600582015460e085015260068201549084015260078101546101208401526008810180548351818702810187019094528084529394919361014086019392830182828015611fde57602002820191906000526020600020905b815481526020019060010190808311611fca575b505050505081526020016009820180548060200260200160405190810160405280929190818152602001828054801561203657602002820191906000526020600020905b815481526020019060010190808311612022575b50505050508152602001600a8201548152602001600b82018054806020026020016040519081016040528092919081815260200182805480156120a257602002820191906000526020600020905b81546001600160a01b03168152600190910190602001808311612084575b50505050508152602001600c8201548152602001600d8201805480602002602001604051908101604052809291908181526020016000905b828210156121505760008481526020908190208301805460408051828502810185019091528181529283018282801561213c57602002820191906000526020600020905b81546001600160a01b0316815260019091019060200180831161211e575b5050505050815260200190600101906120da565b505050508152505082858151811061216a5761216a6140eb565b60200260200101819052508360001415612183576117b6565b8061218d81614101565b915050611eac565b61219e33610efa565b6121e35760405162461bcd60e51b8152602060048201526016602482015275436c61696d206973206e6f7420617661696c61626c6560501b6044820152606401610b65565b6121ec33611d64565b156122395760405162461bcd60e51b815260206004820152601d60248201527f4d696e74207469636b6574206265666f7265206e65787420636c61696d0000006044820152606401610b65565b600061224433611637565b9050600a5481101580612255575080155b156122c857600a546001600160401b0381111561227457612274613ca1565b60405190808252806020026020018201604052801561229d578160200160208202803683370190505b5033600090815260056020908152604090912082516122c293919291909101906138cb565b50600090505b60005b33600090815260056020526040902054811015610d6d57336000908152600560205260409020805482908110612303576123036140eb565b90600052602060002001546000141561234a5733600090815260056020526040902080544291908390811061233a5761233a6140eb565b6000918252602090912001555050565b8061235481614130565b9150506122cb565b6001818154811061236c57600080fd5b60009182526020909120600e9091020180546001820154600283015460038401546004850154600586015460068701546007880154600a890154600c909901549799509597949660ff808616976101008704821697620100009097049091169590918c565b6123d9613848565b600182815481106123ec576123ec6140eb565b60009182526020918290206040805161020081018252600e90930290910180548352600181015483850152600281015483830152600381015460ff808216151560608601526101008083048216151560808701526201000090920416151560a0850152600482015460c0850152600582015460e0850152600682015490840152600781015461012084015260088101805483518187028101870190945280845293949193610140860193928301828280156124c657602002820191906000526020600020905b8154815260200190600101908083116124b2575b505050505081526020016009820180548060200260200160405190810160405280929190818152602001828054801561251e57602002820191906000526020600020905b81548152602001906001019080831161250a575b50505050508152602001600a8201548152602001600b820180548060200260200160405190810160405280929190818152602001828054801561258a57602002820191906000526020600020905b81546001600160a01b0316815260019091019060200180831161256c575b50505050508152602001600c8201548152602001600d8201805480602002602001604051908101604052809291908181526020016000905b828210156126385760008481526020908190208301805460408051828502810185019091528181529283018282801561262457602002820191906000526020600020905b81546001600160a01b03168152600190910190602001808311612606575b5050505050815260200190600101906125c2565b505050915250909392505050565b6000612651816128a9565b50600c80546001600160a01b0319166001600160a01b0392909216919091179055565b6000918252602082815260408084206001600160a01b0393909316845291905290205460ff1690565b60006126a8816128a9565b50600b55565b60006126b9816128a9565b50600955565b6001600160a01b038116600090815260056020526040812080546126e65750600092915050565b80545b8015612760576000826126fd6001846140d4565b8154811061270d5761270d6140eb565b9060005260206000200154111561274e578161272a6001836140d4565b8154811061273a5761273a6140eb565b906000526020600020015492505050919050565b8061275881614101565b9150506126e9565b5050506001600160a01b031660009081526007602052604090205490565b6000612789816128a9565b506014805463ffffffff191663ffffffff92909216919091179055565b60006127b1816128a9565b506014805461ffff9092166401000000000265ffff0000000019909216919091179055565b6000828152602081905260409020600101546127f1816128a9565b610d968383612e5d565b6000612806816128a9565b50600f80546001600160a01b0319166001600160a01b0392909216919091179055565b6000612834816128a9565b506014805491151566010000000000000266ff00000000000019909216919091179055565b6000612864816128a9565b50601355565b6000612875816128a9565b50600855565b6000612886816128a9565b50600e80546001600160a01b0319166001600160a01b0392909216919091179055565b6116348133613642565b60006000805160206142b38339815191526128cd816128a9565b6010546013546012546014546040516305d3b1d360e41b815260048101939093526001600160401b039091166024830152640100000000810461ffff16604483015263ffffffff166064820152600160848201526000916001600160a01b031690635d3b1d309060a4016020604051808303816000875af1158015612956573d6000803e3d6000fd5b505050506040513d601f19601f8201168201806040525081019061297a919061416a565b60008181526011602052604080822087905551919250829186917ff9f171fefccda92248e5f0fdcf6c04ff1e2d16592241264abd91d121874f4f5291a39392505050565b6000600183815481106129d3576129d36140eb565b90600052602060002090600e0201905060005b8251811015610ca35760005b838281518110612a0457612a046140eb565b602002602001015151811015612bb157838281518110612a2657612a266140eb565b60200260200101518181518110612a3f57612a3f6140eb565b602002602001015183600d018381548110612a5c57612a5c6140eb565b906000526020600020018281548110612a7757612a776140eb565b9060005260206000200160006101000a8154816001600160a01b0302191690836001600160a01b03160217905550600260008681526020019081526020016000206000858481518110612acc57612acc6140eb565b60200260200101518381518110612ae557612ae56140eb565b60200260200101516001600160a01b03166001600160a01b0316815260200190815260200160002054600360008781526020019081526020016000206000828254612b3091906140d4565b9091555050600085815260026020526040812085518290879086908110612b5957612b596140eb565b60200260200101518481518110612b7257612b726140eb565b60200260200101516001600160a01b03166001600160a01b03168152602001908152602001600020819055508080612ba990614130565b9150506129f2565b5080612bbc81614130565b9150506129e6565b6000828152601160205260409020546001805482908110612be757612be76140eb565b90600052602060002090600e020160030160019054906101000a900460ff1615612c3c5760405162461bcd60e51b8152600401610b65906020808252600490820152630454331360e41b604082015260600190565b600060018281548110612c5157612c516140eb565b90600052602060002090600e0201905082600081518110612c7457612c746140eb565b6020908102919091010151600c82015560038101805461ff0019166101001790556014546601000000000000900460ff1615612cb357612cb382612ec2565b83827fa9c8267b94f3ce97d170a9faaacd4f71922c05f07bc2f73222364bdd7173668b85600081518110612ce957612ce96140eb565b6020026020010151604051612d0091815260200190565b60405180910390a350505050565b612d188282612674565b610d6d576000828152602081815260408083206001600160a01b03851684529091529020805460ff19166001179055612d4e3390565b6001600160a01b0316816001600160a01b0316837f2f8788117e7eff1d82e926ec794901d17c78024a50270940304540a733656f0d60405160405180910390a45050565b600c5460095460405163731133e960e01b81526001600160a01b038581166004830152602482019290925260448101849052608060648201526000608482015291169063731133e99060a401600060405180830381600087803b158015612df857600080fd5b505af1158015612e0c573d6000803e3d6000fd5b50505050612e173390565b6001600160a01b03167f76513afb012856b6d7375c6d6f5e1bfffc159135e1a3d2cd6a2abb66ce95117782604051612e5191815260200190565b60405180910390a25050565b612e678282612674565b15610d6d576000828152602081815260408083206001600160a01b0385168085529252808320805460ff1916905551339285917ff6391f5c32d9c69d2a47ea670b442974b53935d1edc7fd64eb21e047a839171b9190a45050565b600060018281548110612ed757612ed76140eb565b60009182526020918290206040805161020081018252600e90930290910180548352600181015483850152600281015483830152600381015460ff808216151560608601526101008083048216151560808701526201000090920416151560a0850152600482015460c0850152600582015460e085015260068201549084015260078101546101208401526008810180548351818702810187019094528084529394919361014086019392830182828015612fb157602002820191906000526020600020905b815481526020019060010190808311612f9d575b505050505081526020016009820180548060200260200160405190810160405280929190818152602001828054801561300957602002820191906000526020600020905b815481526020019060010190808311612ff5575b50505050508152602001600a8201548152602001600b820180548060200260200160405190810160405280929190818152602001828054801561307557602002820191906000526020600020905b81546001600160a01b03168152600190910190602001808311613057575b50505050508152602001600c8201548152602001600d8201805480602002602001604051908101604052809291908181526020016000905b828210156131235760008481526020908190208301805460408051828502810185019091528181529283018282801561310f57602002820191906000526020600020905b81546001600160a01b031681526001909101906020018083116130f1575b5050505050815260200190600101906130ad565b5050505081525050905080608001516131775760405162461bcd60e51b8152602060048201526016602482015275149bdd5b99081a5cc81b9bdd08199d5b199a5b1b195960521b6044820152606401610b65565b8060a00151156131c95760405162461bcd60e51b815260206004820152601960248201527f526f756e6420697320616c72656164792066696e6973686564000000000000006044820152606401610b65565b60018083815481106131dd576131dd6140eb565b6000918252602082206003600e90920201018054921515620100000262ff0000199093169290921790915560405183917f74ef25ef6b332a2fbbe7eb8b4108e0fe842a929d34c52a2ea4ca1a0f1524f10791a26101c081015160005b826101e0015151811015610ca35760008361016001518281518110613260576132606140eb565b602002602001015160648560e001516132799190614199565b613283919061414b565b905060005b846101e00151838151811061329f5761329f6140eb565b60200260200101515181101561362d576000868152600360205260409020546132ca57505050505050565b426132d6826001614118565b6132e1856001614118565b6132eb908761414b565b6132f5919061414b565b6132ff91906141ad565b61330a906001614118565b93506000856101e001518481518110613325576133256140eb565b6020026020010151828151811061333e5761333e6140eb565b6020026020010151905060006001600160a01b0316866101e00151858151811061336a5761336a6140eb565b60200260200101518381518110613383576133836140eb565b60200260200101516001600160a01b03161415613538576000878152600360205260408120546133b390876141ad565b6133be906001614118565b905060005b876101a00151518110156134b6576000886101a0015182815181106133ea576133ea6140eb565b60209081029190910181015160008c81526002835260408082206001600160a01b038416835290935291909120549091508084116134955760008b81526002602090815260408083206001600160a01b03861684528252808320548e84526003909252822080549497508794919290916134659084906140d4565b90915550505060008a81526002602090815260408083206001600160a01b039094168352929052908120556134b6565b61349f81856140d4565b9350505080806134ae90614130565b9150506133c3565b5081600189815481106134cb576134cb6140eb565b90600052602060002090600e0201600d0186815481106134ed576134ed6140eb565b906000526020600020018481548110613508576135086140eb565b9060005260206000200160006101000a8154816001600160a01b0302191690836001600160a01b03160217905550505b6000866101e001518581518110613551576135516140eb565b602002602001015151846135659190614199565b600e54600f546040516323b872dd60e01b81526001600160a01b03918216600482015285821660248201526044810184905292935016906323b872dd906064016020604051808303816000875af11580156135c4573d6000803e3d6000fd5b505050506040513d601f19601f820116820180604052508101906135e891906141c1565b506001600160a01b03821660009081526006602052604081208054839290613611908490614118565b925050819055505050808061362590614130565b915050613288565b5050808061363a90614130565b915050613239565b61364c8282612674565b610d6d57613664816001600160a01b031660146136a6565b61366f8360206136a6565b60405160200161368092919061420a565b60408051601f198184030181529082905262461bcd60e51b8252610b659160040161427f565b606060006136b583600261414b565b6136c0906002614118565b6001600160401b038111156136d7576136d7613ca1565b6040519080825280601f01601f191660200182016040528015613701576020820181803683370190505b509050600360fc1b8160008151811061371c5761371c6140eb565b60200101906001600160f81b031916908160001a905350600f60fb1b8160018151811061374b5761374b6140eb565b60200101906001600160f81b031916908160001a905350600061376f84600261414b565b61377a906001614118565b90505b60018111156137f2576f181899199a1a9b1b9c1cb0b131b232b360811b85600f16601081106137ae576137ae6140eb565b1a60f81b8282815181106137c4576137c46140eb565b60200101906001600160f81b031916908160001a90535060049490941c936137eb81614101565b905061377d565b5083156138415760405162461bcd60e51b815260206004820181905260248201527f537472696e67733a20686578206c656e67746820696e73756666696369656e746044820152606401610b65565b9392505050565b604051806102000160405280600081526020016000815260200160008152602001600015158152602001600015158152602001600015158152602001600081526020016000815260200160008152602001600081526020016060815260200160608152602001600081526020016060815260200160008152602001606081525090565b828054828255906000526020600020908101928215613906579160200282015b828111156139065782518255916020019190600101906138eb565b506139129291506139c4565b5090565b828054828255906000526020600020908101928215613906579160200282015b8281111561390657825182546001600160a01b0319166001600160a01b03909116178255602090920191600190910190613936565b8280548282559060005260206000209081019282156139b8579160200282015b828111156139b857825180516139a8918491602090910190613916565b509160200191906001019061398b565b506139129291506139d9565b5b8082111561391257600081556001016139c5565b808211156139125760006139ed82826139f6565b506001016139d9565b508054600082559060005260206000209081019061163491906139c4565b60008060408385031215613a2757600080fd5b50508035926020909101359150565b600081518084526020808501945080840160005b83811015613a6657815187529582019590820190600101613a4a565b509495945050505050565b600081518084526020808501945080840160005b83811015613a665781516001600160a01b031687529582019590820190600101613a85565b600082825180855260208086019550808260051b84010181860160005b84811015613af557601f19868403018952613ae3838351613a71565b98840198925090830190600101613ac7565b5090979650505050505050565b60006102008251845260208301516020850152604083015160408501526060830151613b32606086018215159052565b506080830151613b46608086018215159052565b5060a0830151613b5a60a086018215159052565b5060c083015160c085015260e083015160e0850152610100808401518186015250610120808401518186015250610140808401518282870152613b9f83870182613a36565b925050506101608084015185830382870152613bbb8382613a36565b925050506101808084015181860152506101a08084015185830382870152613be38382613a71565b925050506101c08084015181860152506101e08084015185830382870152613c0b8382613aaa565b9695505050505050565b6000602080830181845280855180835260408601915060408160051b870101925083870160005b82811015613c6a57603f19888603018452613c58858351613b02565b94509285019290850190600101613c3c565b5092979650505050505050565b600060208284031215613c8957600080fd5b81356001600160e01b03198116811461384157600080fd5b634e487b7160e01b600052604160045260246000fd5b604051601f8201601f191681016001600160401b0381118282101715613cdf57613cdf613ca1565b604052919050565b60006001600160401b03821115613d0057613d00613ca1565b5060051b60200190565b80356001600160a01b0381168114613d2157600080fd5b919050565b6000806040808486031215613d3a57600080fd5b833592506020808501356001600160401b0380821115613d5957600080fd5b818701915087601f830112613d6d57600080fd5b8135613d80613d7b82613ce7565b613cb7565b81815260059190911b8301840190848101908a831115613d9f57600080fd5b8585015b83811015613e3257803585811115613dbb5760008081fd5b8601603f81018d13613dcd5760008081fd5b87810135613ddd613d7b82613ce7565b81815260059190911b82018a0190898101908f831115613dfd5760008081fd5b928b01925b82841015613e2257613e1384613d0a565b8252928a0192908a0190613e02565b8652505050918601918601613da3565b50809750505050505050509250929050565b600060208284031215613e5657600080fd5b5035919050565b600060208284031215613e6f57600080fd5b81356001600160401b038116811461384157600080fd5b600082601f830112613e9757600080fd5b81356020613ea7613d7b83613ce7565b82815260059290921b84018101918181019086841115613ec657600080fd5b8286015b84811015613ee15780358352918301918301613eca565b509695505050505050565b60008060408385031215613eff57600080fd5b8235915060208301356001600160401b03811115613f1c57600080fd5b613f2885828601613e86565b9150509250929050565b60008060408385031215613f4557600080fd5b613f4e83613d0a565b946020939093013593505050565b60008060408385031215613f6f57600080fd5b82359150613f7f60208401613d0a565b90509250929050565b600060208284031215613f9a57600080fd5b61384182613d0a565b600080600080600080600060e0888a031215613fbe57600080fd5b873596506020880135955060408801359450606088013593506080880135925060a08801356001600160401b0380821115613ff857600080fd5b6140048b838c01613e86565b935060c08a013591508082111561401a57600080fd5b506140278a828b01613e86565b91505092959891949750929550565b6020815260006138416020830184613b02565b60006020828403121561405b57600080fd5b813563ffffffff8116811461384157600080fd5b60006020828403121561408157600080fd5b813561ffff8116811461384157600080fd5b801515811461163457600080fd5b6000602082840312156140b357600080fd5b813561384181614093565b634e487b7160e01b600052601160045260246000fd5b6000828210156140e6576140e66140be565b500390565b634e487b7160e01b600052603260045260246000fd5b600081614110576141106140be565b506000190190565b6000821982111561412b5761412b6140be565b500190565b6000600019821415614144576141446140be565b5060010190565b6000816000190483118215151615614165576141656140be565b500290565b60006020828403121561417c57600080fd5b5051919050565b634e487b7160e01b600052601260045260246000fd5b6000826141a8576141a8614183565b500490565b6000826141bc576141bc614183565b500690565b6000602082840312156141d357600080fd5b815161384181614093565b60005b838110156141f95781810151838201526020016141e1565b83811115610ca35750506000910152565b7f416363657373436f6e74726f6c3a206163636f756e74200000000000000000008152600083516142428160178501602088016141de565b7001034b99036b4b9b9b4b733903937b6329607d1b60179184019182015283516142738160288401602088016141de565b01602801949350505050565b602081526000825180602084015261429e8160408501602087016141de565b601f01601f1916919091016040019291505056fe97667070c54ef182b0f5858b034beac1b6f3089aa2d3188bb1e8929f4fa9b929a2646970667358221220e8ae7937533509ef2a2c638fca82bff87c4254b4c53dea4b9c6565ea2771959964736f6c634300080b0033",
  "devdoc": {
    "kind": "dev",
    "methods": {
      "getRoleAdmin(bytes32)": {
        "details": "Returns the admin role that controls `role`. See {grantRole} and {revokeRole}. To change a role's admin, use {_setRoleAdmin}."
      },
      "grantRole(bytes32,address)": {
        "details": "Grants `role` to `account`. If `account` had not been already granted `role`, emits a {RoleGranted} event. Requirements: - the caller must have ``role``'s admin role. May emit a {RoleGranted} event."
      },
      "hasRole(bytes32,address)": {
        "details": "Returns `true` if `account` has been granted `role`."
      },
      "renounceRole(bytes32,address)": {
        "details": "Revokes `role` from the calling account. Roles are often managed via {grantRole} and {revokeRole}: this function's purpose is to provide a mechanism for accounts to lose their privileges if they are compromised (such as when a trusted device is misplaced). If the calling account had been revoked `role`, emits a {RoleRevoked} event. Requirements: - the caller must be `account`. May emit a {RoleRevoked} event."
      },
      "revokeRole(bytes32,address)": {
        "details": "Revokes `role` from `account`. If `account` had been granted `role`, emits a {RoleRevoked} event. Requirements: - the caller must have ``role``'s admin role. May emit a {RoleRevoked} event."
      },
      "supportsInterface(bytes4)": {
        "details": "See {IERC165-supportsInterface}."
      }
    },
    "version": 1
  },
  "userdoc": {
    "kind": "user",
    "methods": {},
    "version": 1
  },
  "storageLayout": {
    "storage": [
      {
        "astId": 178,
        "contract": "contracts/Lottery.sol:Lottery",
        "label": "_roles",
        "offset": 0,
        "slot": "0",
        "type": "t_mapping(t_bytes32,t_struct(RoleData)173_storage)"
      },
      {
        "astId": 5981,
        "contract": "contracts/Lottery.sol:Lottery",
        "label": "rounds",
        "offset": 0,
        "slot": "1",
        "type": "t_array(t_struct(Round)13166_storage)dyn_storage"
      },
      {
        "astId": 5987,
        "contract": "contracts/Lottery.sol:Lottery",
        "label": "roundMembers",
        "offset": 0,
        "slot": "2",
        "type": "t_mapping(t_uint256,t_mapping(t_address,t_uint256))"
      },
      {
        "astId": 5991,
        "contract": "contracts/Lottery.sol:Lottery",
        "label": "roundRestTickets",
        "offset": 0,
        "slot": "3",
        "type": "t_mapping(t_uint256,t_uint256)"
      },
      {
        "astId": 5997,
        "contract": "contracts/Lottery.sol:Lottery",
        "label": "roundMembersHistory",
        "offset": 0,
        "slot": "4",
        "type": "t_mapping(t_uint256,t_mapping(t_address,t_uint256))"
      },
      {
        "astId": 6002,
        "contract": "contracts/Lottery.sol:Lottery",
        "label": "claims",
        "offset": 0,
        "slot": "5",
        "type": "t_mapping(t_address,t_array(t_uint256)dyn_storage)"
      },
      {
        "astId": 6006,
        "contract": "contracts/Lottery.sol:Lottery",
        "label": "winnersRewards",
        "offset": 0,
        "slot": "6",
        "type": "t_mapping(t_address,t_uint256)"
      },
      {
        "astId": 6010,
        "contract": "contracts/Lottery.sol:Lottery",
        "label": "lastTicketMint",
        "offset": 0,
        "slot": "7",
        "type": "t_mapping(t_address,t_uint256)"
      },
      {
        "astId": 6012,
        "contract": "contracts/Lottery.sol:Lottery",
        "label": "TICKET_PRICE",
        "offset": 0,
        "slot": "8",
        "type": "t_uint256"
      },
      {
        "astId": 6014,
        "contract": "contracts/Lottery.sol:Lottery",
        "label": "TICKET_ID",
        "offset": 0,
        "slot": "9",
        "type": "t_uint256"
      },
      {
        "astId": 6017,
        "contract": "contracts/Lottery.sol:Lottery",
        "label": "DAYS_STREAK_FOR_TICKET",
        "offset": 0,
        "slot": "10",
        "type": "t_uint256"
      },
      {
        "astId": 6020,
        "contract": "contracts/Lottery.sol:Lottery",
        "label": "CLAIM_PERIOD",
        "offset": 0,
        "slot": "11",
        "type": "t_uint256"
      },
      {
        "astId": 6023,
        "contract": "contracts/Lottery.sol:Lottery",
        "label": "ticketToken",
        "offset": 0,
        "slot": "12",
        "type": "t_contract(Ticket)14261"
      },
      {
        "astId": 6026,
        "contract": "contracts/Lottery.sol:Lottery",
        "label": "paymentToken",
        "offset": 0,
        "slot": "13",
        "type": "t_contract(ERC20Burnable)3161"
      },
      {
        "astId": 6029,
        "contract": "contracts/Lottery.sol:Lottery",
        "label": "rewardToken",
        "offset": 0,
        "slot": "14",
        "type": "t_contract(IERC20)3117"
      },
      {
        "astId": 6031,
        "contract": "contracts/Lottery.sol:Lottery",
        "label": "rewardPool",
        "offset": 0,
        "slot": "15",
        "type": "t_address"
      },
      {
        "astId": 6034,
        "contract": "contracts/Lottery.sol:Lottery",
        "label": "COORDINATOR",
        "offset": 0,
        "slot": "16",
        "type": "t_contract(VRFCoordinatorV2Interface)153"
      },
      {
        "astId": 6038,
        "contract": "contracts/Lottery.sol:Lottery",
        "label": "oracleRequests",
        "offset": 0,
        "slot": "17",
        "type": "t_mapping(t_uint256,t_uint256)"
      },
      {
        "astId": 6040,
        "contract": "contracts/Lottery.sol:Lottery",
        "label": "oracleSubscriptionId",
        "offset": 0,
        "slot": "18",
        "type": "t_uint64"
      },
      {
        "astId": 6042,
        "contract": "contracts/Lottery.sol:Lottery",
        "label": "oracleKeyHash",
        "offset": 0,
        "slot": "19",
        "type": "t_bytes32"
      },
      {
        "astId": 6045,
        "contract": "contracts/Lottery.sol:Lottery",
        "label": "oracleCallbackGasLimit",
        "offset": 0,
        "slot": "20",
        "type": "t_uint32"
      },
      {
        "astId": 6048,
        "contract": "contracts/Lottery.sol:Lottery",
        "label": "oracleRequestConfirmations",
        "offset": 4,
        "slot": "20",
        "type": "t_uint16"
      },
      {
        "astId": 6051,
        "contract": "contracts/Lottery.sol:Lottery",
        "label": "enableWinnerCalculationInOracleResponse",
        "offset": 6,
        "slot": "20",
        "type": "t_bool"
      }
    ],
    "types": {
      "t_address": {
        "encoding": "inplace",
        "label": "address",
        "numberOfBytes": "20"
      },
      "t_array(t_address)dyn_storage": {
        "base": "t_address",
        "encoding": "dynamic_array",
        "label": "address[]",
        "numberOfBytes": "32"
      },
      "t_array(t_array(t_address)dyn_storage)dyn_storage": {
        "base": "t_array(t_address)dyn_storage",
        "encoding": "dynamic_array",
        "label": "address[][]",
        "numberOfBytes": "32"
      },
      "t_array(t_struct(Round)13166_storage)dyn_storage": {
        "base": "t_struct(Round)13166_storage",
        "encoding": "dynamic_array",
        "label": "struct ILottery.Round[]",
        "numberOfBytes": "32"
      },
      "t_array(t_uint256)dyn_storage": {
        "base": "t_uint256",
        "encoding": "dynamic_array",
        "label": "uint256[]",
        "numberOfBytes": "32"
      },
      "t_bool": {
        "encoding": "inplace",
        "label": "bool",
        "numberOfBytes": "1"
      },
      "t_bytes32": {
        "encoding": "inplace",
        "label": "bytes32",
        "numberOfBytes": "32"
      },
      "t_contract(ERC20Burnable)3161": {
        "encoding": "inplace",
        "label": "contract ERC20Burnable",
        "numberOfBytes": "20"
      },
      "t_contract(IERC20)3117": {
        "encoding": "inplace",
        "label": "contract IERC20",
        "numberOfBytes": "20"
      },
      "t_contract(Ticket)14261": {
        "encoding": "inplace",
        "label": "contract Ticket",
        "numberOfBytes": "20"
      },
      "t_contract(VRFCoordinatorV2Interface)153": {
        "encoding": "inplace",
        "label": "contract VRFCoordinatorV2Interface",
        "numberOfBytes": "20"
      },
      "t_mapping(t_address,t_array(t_uint256)dyn_storage)": {
        "encoding": "mapping",
        "key": "t_address",
        "label": "mapping(address => uint256[])",
        "numberOfBytes": "32",
        "value": "t_array(t_uint256)dyn_storage"
      },
      "t_mapping(t_address,t_bool)": {
        "encoding": "mapping",
        "key": "t_address",
        "label": "mapping(address => bool)",
        "numberOfBytes": "32",
        "value": "t_bool"
      },
      "t_mapping(t_address,t_uint256)": {
        "encoding": "mapping",
        "key": "t_address",
        "label": "mapping(address => uint256)",
        "numberOfBytes": "32",
        "value": "t_uint256"
      },
      "t_mapping(t_bytes32,t_struct(RoleData)173_storage)": {
        "encoding": "mapping",
        "key": "t_bytes32",
        "label": "mapping(bytes32 => struct AccessControl.RoleData)",
        "numberOfBytes": "32",
        "value": "t_struct(RoleData)173_storage"
      },
      "t_mapping(t_uint256,t_mapping(t_address,t_uint256))": {
        "encoding": "mapping",
        "key": "t_uint256",
        "label": "mapping(uint256 => mapping(address => uint256))",
        "numberOfBytes": "32",
        "value": "t_mapping(t_address,t_uint256)"
      },
      "t_mapping(t_uint256,t_uint256)": {
        "encoding": "mapping",
        "key": "t_uint256",
        "label": "mapping(uint256 => uint256)",
        "numberOfBytes": "32",
        "value": "t_uint256"
      },
      "t_struct(RoleData)173_storage": {
        "encoding": "inplace",
        "label": "struct AccessControl.RoleData",
        "members": [
          {
            "astId": 170,
            "contract": "contracts/Lottery.sol:Lottery",
            "label": "members",
            "offset": 0,
            "slot": "0",
            "type": "t_mapping(t_address,t_bool)"
          },
          {
            "astId": 172,
            "contract": "contracts/Lottery.sol:Lottery",
            "label": "adminRole",
            "offset": 0,
            "slot": "1",
            "type": "t_bytes32"
          }
        ],
        "numberOfBytes": "64"
      },
      "t_struct(Round)13166_storage": {
        "encoding": "inplace",
        "label": "struct ILottery.Round",
        "members": [
          {
            "astId": 13130,
            "contract": "contracts/Lottery.sol:Lottery",
            "label": "id",
            "offset": 0,
            "slot": "0",
            "type": "t_uint256"
          },
          {
            "astId": 13132,
            "contract": "contracts/Lottery.sol:Lottery",
            "label": "startTime",
            "offset": 0,
            "slot": "1",
            "type": "t_uint256"
          },
          {
            "astId": 13134,
            "contract": "contracts/Lottery.sol:Lottery",
            "label": "duration",
            "offset": 0,
            "slot": "2",
            "type": "t_uint256"
          },
          {
            "astId": 13136,
            "contract": "contracts/Lottery.sol:Lottery",
            "label": "isClosed",
            "offset": 0,
            "slot": "3",
            "type": "t_bool"
          },
          {
            "astId": 13138,
            "contract": "contracts/Lottery.sol:Lottery",
            "label": "isOracleFulfilled",
            "offset": 1,
            "slot": "3",
            "type": "t_bool"
          },
          {
            "astId": 13140,
            "contract": "contracts/Lottery.sol:Lottery",
            "label": "isFinished",
            "offset": 2,
            "slot": "3",
            "type": "t_bool"
          },
          {
            "astId": 13142,
            "contract": "contracts/Lottery.sol:Lottery",
            "label": "initialPrize",
            "offset": 0,
            "slot": "4",
            "type": "t_uint256"
          },
          {
            "astId": 13144,
            "contract": "contracts/Lottery.sol:Lottery",
            "label": "totalPrize",
            "offset": 0,
            "slot": "5",
            "type": "t_uint256"
          },
          {
            "astId": 13146,
            "contract": "contracts/Lottery.sol:Lottery",
            "label": "maxTicketsFromOneMember",
            "offset": 0,
            "slot": "6",
            "type": "t_uint256"
          },
          {
            "astId": 13148,
            "contract": "contracts/Lottery.sol:Lottery",
            "label": "tokensForOneTicket",
            "offset": 0,
            "slot": "7",
            "type": "t_uint256"
          },
          {
            "astId": 13151,
            "contract": "contracts/Lottery.sol:Lottery",
            "label": "winnersForLevel",
            "offset": 0,
            "slot": "8",
            "type": "t_array(t_uint256)dyn_storage"
          },
          {
            "astId": 13154,
            "contract": "contracts/Lottery.sol:Lottery",
            "label": "prizeForLevel",
            "offset": 0,
            "slot": "9",
            "type": "t_array(t_uint256)dyn_storage"
          },
          {
            "astId": 13156,
            "contract": "contracts/Lottery.sol:Lottery",
            "label": "totalTickets",
            "offset": 0,
            "slot": "10",
            "type": "t_uint256"
          },
          {
            "astId": 13159,
            "contract": "contracts/Lottery.sol:Lottery",
            "label": "members",
            "offset": 0,
            "slot": "11",
            "type": "t_array(t_address)dyn_storage"
          },
          {
            "astId": 13161,
            "contract": "contracts/Lottery.sol:Lottery",
            "label": "randomWord",
            "offset": 0,
            "slot": "12",
            "type": "t_uint256"
          },
          {
            "astId": 13165,
            "contract": "contracts/Lottery.sol:Lottery",
            "label": "winners",
            "offset": 0,
            "slot": "13",
            "type": "t_array(t_array(t_address)dyn_storage)dyn_storage"
          }
        ],
        "numberOfBytes": "448"
      },
      "t_uint16": {
        "encoding": "inplace",
        "label": "uint16",
        "numberOfBytes": "2"
      },
      "t_uint256": {
        "encoding": "inplace",
        "label": "uint256",
        "numberOfBytes": "32"
      },
      "t_uint32": {
        "encoding": "inplace",
        "label": "uint32",
        "numberOfBytes": "4"
      },
      "t_uint64": {
        "encoding": "inplace",
        "label": "uint64",
        "numberOfBytes": "8"
      }
    }
  }
}