{
  "address": "0x98BADc9fDdAF3978AcEfc0539A96F1003a002fe2",
  "abi": [
    {
      "inputs": [],
      "stateMutability": "nonpayable",
      "type": "constructor"
    },
    {
      "anonymous": false,
      "inputs": [
        {
          "indexed": true,
          "internalType": "address",
          "name": "account",
          "type": "address"
        },
        {
          "indexed": true,
          "internalType": "address",
          "name": "operator",
          "type": "address"
        },
        {
          "indexed": false,
          "internalType": "bool",
          "name": "approved",
          "type": "bool"
        }
      ],
      "name": "ApprovalForAll",
      "type": "event"
    },
    {
      "anonymous": false,
      "inputs": [
        {
          "indexed": false,
          "internalType": "address",
          "name": "account",
          "type": "address"
        }
      ],
      "name": "Paused",
      "type": "event"
    },
    {
      "anonymous": false,
      "inputs": [
        {
          "indexed": true,
          "internalType": "bytes32",
          "name": "role",
          "type": "bytes32"
        },
        {
          "indexed": true,
          "internalType": "bytes32",
          "name": "previousAdminRole",
          "type": "bytes32"
        },
        {
          "indexed": true,
          "internalType": "bytes32",
          "name": "newAdminRole",
          "type": "bytes32"
        }
      ],
      "name": "RoleAdminChanged",
      "type": "event"
    },
    {
      "anonymous": false,
      "inputs": [
        {
          "indexed": true,
          "internalType": "bytes32",
          "name": "role",
          "type": "bytes32"
        },
        {
          "indexed": true,
          "internalType": "address",
          "name": "account",
          "type": "address"
        },
        {
          "indexed": true,
          "internalType": "address",
          "name": "sender",
          "type": "address"
        }
      ],
      "name": "RoleGranted",
      "type": "event"
    },
    {
      "anonymous": false,
      "inputs": [
        {
          "indexed": true,
          "internalType": "bytes32",
          "name": "role",
          "type": "bytes32"
        },
        {
          "indexed": true,
          "internalType": "address",
          "name": "account",
          "type": "address"
        },
        {
          "indexed": true,
          "internalType": "address",
          "name": "sender",
          "type": "address"
        }
      ],
      "name": "RoleRevoked",
      "type": "event"
    },
    {
      "anonymous": false,
      "inputs": [
        {
          "indexed": true,
          "internalType": "address",
          "name": "operator",
          "type": "address"
        },
        {
          "indexed": true,
          "internalType": "address",
          "name": "from",
          "type": "address"
        },
        {
          "indexed": true,
          "internalType": "address",
          "name": "to",
          "type": "address"
        },
        {
          "indexed": false,
          "internalType": "uint256[]",
          "name": "ids",
          "type": "uint256[]"
        },
        {
          "indexed": false,
          "internalType": "uint256[]",
          "name": "values",
          "type": "uint256[]"
        }
      ],
      "name": "TransferBatch",
      "type": "event"
    },
    {
      "anonymous": false,
      "inputs": [
        {
          "indexed": true,
          "internalType": "address",
          "name": "operator",
          "type": "address"
        },
        {
          "indexed": true,
          "internalType": "address",
          "name": "from",
          "type": "address"
        },
        {
          "indexed": true,
          "internalType": "address",
          "name": "to",
          "type": "address"
        },
        {
          "indexed": false,
          "internalType": "uint256",
          "name": "id",
          "type": "uint256"
        },
        {
          "indexed": false,
          "internalType": "uint256",
          "name": "value",
          "type": "uint256"
        }
      ],
      "name": "TransferSingle",
      "type": "event"
    },
    {
      "anonymous": false,
      "inputs": [
        {
          "indexed": false,
          "internalType": "string",
          "name": "value",
          "type": "string"
        },
        {
          "indexed": true,
          "internalType": "uint256",
          "name": "id",
          "type": "uint256"
        }
      ],
      "name": "URI",
      "type": "event"
    },
    {
      "anonymous": false,
      "inputs": [
        {
          "indexed": false,
          "internalType": "address",
          "name": "account",
          "type": "address"
        }
      ],
      "name": "Unpaused",
      "type": "event"
    },
    {
      "inputs": [],
      "name": "DEFAULT_ADMIN_ROLE",
      "outputs": [
        {
          "internalType": "bytes32",
          "name": "",
          "type": "bytes32"
        }
      ],
      "stateMutability": "view",
      "type": "function"
    },
    {
      "inputs": [],
      "name": "MINTER_ROLE",
      "outputs": [
        {
          "internalType": "bytes32",
          "name": "",
          "type": "bytes32"
        }
      ],
      "stateMutability": "view",
      "type": "function"
    },
    {
      "inputs": [],
      "name": "PAUSER_ROLE",
      "outputs": [
        {
          "internalType": "bytes32",
          "name": "",
          "type": "bytes32"
        }
      ],
      "stateMutability": "view",
      "type": "function"
    },
    {
      "inputs": [],
      "name": "URI_SETTER_ROLE",
      "outputs": [
        {
          "internalType": "bytes32",
          "name": "",
          "type": "bytes32"
        }
      ],
      "stateMutability": "view",
      "type": "function"
    },
    {
      "inputs": [
        {
          "internalType": "address",
          "name": "newRecipient",
          "type": "address"
        }
      ],
      "name": "_setRoyalties",
      "outputs": [],
      "stateMutability": "nonpayable",
      "type": "function"
    },
    {
      "inputs": [
        {
          "internalType": "address",
          "name": "account",
          "type": "address"
        },
        {
          "internalType": "uint256",
          "name": "id",
          "type": "uint256"
        }
      ],
      "name": "balanceOf",
      "outputs": [
        {
          "internalType": "uint256",
          "name": "",
          "type": "uint256"
        }
      ],
      "stateMutability": "view",
      "type": "function"
    },
    {
      "inputs": [
        {
          "internalType": "address[]",
          "name": "accounts",
          "type": "address[]"
        },
        {
          "internalType": "uint256[]",
          "name": "ids",
          "type": "uint256[]"
        }
      ],
      "name": "balanceOfBatch",
      "outputs": [
        {
          "internalType": "uint256[]",
          "name": "",
          "type": "uint256[]"
        }
      ],
      "stateMutability": "view",
      "type": "function"
    },
    {
      "inputs": [
        {
          "internalType": "address",
          "name": "account",
          "type": "address"
        },
        {
          "internalType": "uint256",
          "name": "id",
          "type": "uint256"
        },
        {
          "internalType": "uint256",
          "name": "value",
          "type": "uint256"
        }
      ],
      "name": "burn",
      "outputs": [],
      "stateMutability": "nonpayable",
      "type": "function"
    },
    {
      "inputs": [
        {
          "internalType": "address",
          "name": "account",
          "type": "address"
        },
        {
          "internalType": "uint256[]",
          "name": "ids",
          "type": "uint256[]"
        },
        {
          "internalType": "uint256[]",
          "name": "values",
          "type": "uint256[]"
        }
      ],
      "name": "burnBatch",
      "outputs": [],
      "stateMutability": "nonpayable",
      "type": "function"
    },
    {
      "inputs": [],
      "name": "contractURI",
      "outputs": [
        {
          "internalType": "string",
          "name": "",
          "type": "string"
        }
      ],
      "stateMutability": "view",
      "type": "function"
    },
    {
      "inputs": [
        {
          "internalType": "uint256",
          "name": "id",
          "type": "uint256"
        }
      ],
      "name": "exists",
      "outputs": [
        {
          "internalType": "bool",
          "name": "",
          "type": "bool"
        }
      ],
      "stateMutability": "view",
      "type": "function"
    },
    {
      "inputs": [
        {
          "internalType": "bytes32",
          "name": "role",
          "type": "bytes32"
        }
      ],
      "name": "getRoleAdmin",
      "outputs": [
        {
          "internalType": "bytes32",
          "name": "",
          "type": "bytes32"
        }
      ],
      "stateMutability": "view",
      "type": "function"
    },
    {
      "inputs": [
        {
          "internalType": "bytes32",
          "name": "role",
          "type": "bytes32"
        },
        {
          "internalType": "address",
          "name": "account",
          "type": "address"
        }
      ],
      "name": "grantRole",
      "outputs": [],
      "stateMutability": "nonpayable",
      "type": "function"
    },
    {
      "inputs": [
        {
          "internalType": "bytes32",
          "name": "role",
          "type": "bytes32"
        },
        {
          "internalType": "address",
          "name": "account",
          "type": "address"
        }
      ],
      "name": "hasRole",
      "outputs": [
        {
          "internalType": "bool",
          "name": "",
          "type": "bool"
        }
      ],
      "stateMutability": "view",
      "type": "function"
    },
    {
      "inputs": [
        {
          "internalType": "address",
          "name": "account",
          "type": "address"
        },
        {
          "internalType": "address",
          "name": "operator",
          "type": "address"
        }
      ],
      "name": "isApprovedForAll",
      "outputs": [
        {
          "internalType": "bool",
          "name": "",
          "type": "bool"
        }
      ],
      "stateMutability": "view",
      "type": "function"
    },
    {
      "inputs": [
        {
          "internalType": "address",
          "name": "account",
          "type": "address"
        },
        {
          "internalType": "uint256",
          "name": "id",
          "type": "uint256"
        },
        {
          "internalType": "uint256",
          "name": "amount",
          "type": "uint256"
        },
        {
          "internalType": "bytes",
          "name": "data",
          "type": "bytes"
        }
      ],
      "name": "mint",
      "outputs": [],
      "stateMutability": "nonpayable",
      "type": "function"
    },
    {
      "inputs": [
        {
          "internalType": "address",
          "name": "to",
          "type": "address"
        },
        {
          "internalType": "uint256[]",
          "name": "ids",
          "type": "uint256[]"
        },
        {
          "internalType": "uint256[]",
          "name": "amounts",
          "type": "uint256[]"
        },
        {
          "internalType": "bytes",
          "name": "data",
          "type": "bytes"
        }
      ],
      "name": "mintBatch",
      "outputs": [],
      "stateMutability": "nonpayable",
      "type": "function"
    },
    {
      "inputs": [],
      "name": "name",
      "outputs": [
        {
          "internalType": "string",
          "name": "",
          "type": "string"
        }
      ],
      "stateMutability": "view",
      "type": "function"
    },
    {
      "inputs": [],
      "name": "pause",
      "outputs": [],
      "stateMutability": "nonpayable",
      "type": "function"
    },
    {
      "inputs": [],
      "name": "paused",
      "outputs": [
        {
          "internalType": "bool",
          "name": "",
          "type": "bool"
        }
      ],
      "stateMutability": "view",
      "type": "function"
    },
    {
      "inputs": [
        {
          "internalType": "bytes32",
          "name": "role",
          "type": "bytes32"
        },
        {
          "internalType": "address",
          "name": "account",
          "type": "address"
        }
      ],
      "name": "renounceRole",
      "outputs": [],
      "stateMutability": "nonpayable",
      "type": "function"
    },
    {
      "inputs": [
        {
          "internalType": "bytes32",
          "name": "role",
          "type": "bytes32"
        },
        {
          "internalType": "address",
          "name": "account",
          "type": "address"
        }
      ],
      "name": "revokeRole",
      "outputs": [],
      "stateMutability": "nonpayable",
      "type": "function"
    },
    {
      "inputs": [
        {
          "internalType": "uint256",
          "name": "_tokenId",
          "type": "uint256"
        },
        {
          "internalType": "uint256",
          "name": "_salePrice",
          "type": "uint256"
        }
      ],
      "name": "royaltyInfo",
      "outputs": [
        {
          "internalType": "address",
          "name": "receiver",
          "type": "address"
        },
        {
          "internalType": "uint256",
          "name": "royaltyAmount",
          "type": "uint256"
        }
      ],
      "stateMutability": "view",
      "type": "function"
    },
    {
      "inputs": [
        {
          "internalType": "address",
          "name": "from",
          "type": "address"
        },
        {
          "internalType": "address",
          "name": "to",
          "type": "address"
        },
        {
          "internalType": "uint256[]",
          "name": "ids",
          "type": "uint256[]"
        },
        {
          "internalType": "uint256[]",
          "name": "amounts",
          "type": "uint256[]"
        },
        {
          "internalType": "bytes",
          "name": "data",
          "type": "bytes"
        }
      ],
      "name": "safeBatchTransferFrom",
      "outputs": [],
      "stateMutability": "nonpayable",
      "type": "function"
    },
    {
      "inputs": [
        {
          "internalType": "address",
          "name": "from",
          "type": "address"
        },
        {
          "internalType": "address",
          "name": "to",
          "type": "address"
        },
        {
          "internalType": "uint256",
          "name": "id",
          "type": "uint256"
        },
        {
          "internalType": "uint256",
          "name": "amount",
          "type": "uint256"
        },
        {
          "internalType": "bytes",
          "name": "data",
          "type": "bytes"
        }
      ],
      "name": "safeTransferFrom",
      "outputs": [],
      "stateMutability": "nonpayable",
      "type": "function"
    },
    {
      "inputs": [
        {
          "internalType": "address",
          "name": "operator",
          "type": "address"
        },
        {
          "internalType": "bool",
          "name": "approved",
          "type": "bool"
        }
      ],
      "name": "setApprovalForAll",
      "outputs": [],
      "stateMutability": "nonpayable",
      "type": "function"
    },
    {
      "inputs": [
        {
          "internalType": "string",
          "name": "newuri",
          "type": "string"
        }
      ],
      "name": "setContractURI",
      "outputs": [],
      "stateMutability": "nonpayable",
      "type": "function"
    },
    {
      "inputs": [
        {
          "internalType": "uint256",
          "name": "percentBasePoints",
          "type": "uint256"
        }
      ],
      "name": "setRoyaltyPercent",
      "outputs": [],
      "stateMutability": "nonpayable",
      "type": "function"
    },
    {
      "inputs": [
        {
          "internalType": "string",
          "name": "newuri",
          "type": "string"
        }
      ],
      "name": "setURI",
      "outputs": [],
      "stateMutability": "nonpayable",
      "type": "function"
    },
    {
      "inputs": [
        {
          "internalType": "bytes4",
          "name": "interfaceId",
          "type": "bytes4"
        }
      ],
      "name": "supportsInterface",
      "outputs": [
        {
          "internalType": "bool",
          "name": "",
          "type": "bool"
        }
      ],
      "stateMutability": "view",
      "type": "function"
    },
    {
      "inputs": [],
      "name": "symbol",
      "outputs": [
        {
          "internalType": "string",
          "name": "",
          "type": "string"
        }
      ],
      "stateMutability": "view",
      "type": "function"
    },
    {
      "inputs": [
        {
          "internalType": "uint256",
          "name": "id",
          "type": "uint256"
        }
      ],
      "name": "totalSupply",
      "outputs": [
        {
          "internalType": "uint256",
          "name": "",
          "type": "uint256"
        }
      ],
      "stateMutability": "view",
      "type": "function"
    },
    {
      "inputs": [],
      "name": "unpause",
      "outputs": [],
      "stateMutability": "nonpayable",
      "type": "function"
    },
    {
      "inputs": [
        {
          "internalType": "uint256",
          "name": "",
          "type": "uint256"
        }
      ],
      "name": "uri",
      "outputs": [
        {
          "internalType": "string",
          "name": "",
          "type": "string"
        }
      ],
      "stateMutability": "view",
      "type": "function"
    }
  ],
  "transactionHash": "0x7123a16be54ff68a5f5e2942b990184d22e45b0927b5ae971f9756b02936740c",
  "args": [],
  "numDeployments": 2,
  "solcInputHash": "69456e9655081a0e344e6bc5c7579a27",
  "bytecode": "0x60806040523480156200001157600080fd5b50604051806080016040528060598152602001620030f260599139620000378162000196565b506005805460ff191690556200004f600033620001af565b6200007b7f7804d923f43a17d325d77e781528e0793b2edd9890ab45fc64efd7b4b427744c33620001af565b620000a77f65d7a28e3265b37a6474929f336521b332c1681b933f6cb9f3376673440d862a33620001af565b620000d37f9f2df0fed2c77648de5860a4cc508cd0818c85b8b8a1ab4ceeef8d981c8956a633620001af565b6040805180820190915260148082527f69536176657220526166666c65205469636b657400000000000000000000000060209092019182526200011991600691620002d0565b506040805180820190915260058082526414d055949560da1b60209092019182526200014891600791620002d0565b50600880546001600160a01b0319163317905560646009556040805160808101909152605980825262003099602083013980516200018f91600a91602090910190620002d0565b50620003b3565b8051620001ab906002906020840190620002d0565b5050565b60008281526004602090815260408083206001600160a01b038516845290915290205460ff16620001ab5760008281526004602090815260408083206001600160a01b03851684529091529020805460ff191660011790556200021162000255565b6001600160a01b0316816001600160a01b0316837f2f8788117e7eff1d82e926ec794901d17c78024a50270940304540a733656f0d60405160405180910390a45050565b60006200026c6200027160201b62000d761760201c565b905090565b600033301415620002ca57600080368080601f0160208091040260200160405190810160405280939291908181526020018383808284376000920191909152505050503601516001600160a01b03169150620002cd9050565b50335b90565b828054620002de9062000376565b90600052602060002090601f0160209004810192826200030257600085556200034d565b82601f106200031d57805160ff19168380011785556200034d565b828001600101855582156200034d579182015b828111156200034d57825182559160200191906001019062000330565b506200035b9291506200035f565b5090565b5b808211156200035b576000815560010162000360565b600181811c908216806200038b57607f821691505b60208210811415620003ad57634e487b7160e01b600052602260045260246000fd5b50919050565b612cd680620003c36000396000f3fe608060405234801561001057600080fd5b50600436106102055760003560e01c80637f3457101161011a578063bd85b039116100ad578063e63ab1e91161007c578063e63ab1e9146104a4578063e8a3d485146104cb578063e985e9c5146104d3578063f242432a1461050f578063f5298aca1461052257600080fd5b8063bd85b03914610437578063c6be0b2914610457578063d53913931461046a578063d547741f1461049157600080fd5b806395d89b41116100e957806395d89b41146104015780639a4fc64014610409578063a217fddf1461041c578063a22cb4651461042457600080fd5b80637f345710146103ac5780638456cb59146103d357806391d14854146103db578063938e3d7b146103ee57600080fd5b80632eb2c2d61161019d5780634e1273f41161016c5780634e1273f4146103395780634f558e79146103595780635c975abb1461037b5780636b20c45414610386578063731133e91461039957600080fd5b80632eb2c2d6146102f85780632f2ff15d1461030b57806336568abe1461031e5780633f4ba83a1461033157600080fd5b80630e89341c116101d95780630e89341c1461027d5780631f7fdffa14610290578063248a9ca3146102a35780632a55205a146102c657600080fd5b8062fdd58e1461020a57806301ffc9a71461023057806302fe53051461025357806306fdde0314610268575b600080fd5b61021d610218366004612067565b610535565b6040519081526020015b60405180910390f35b61024361023e3660046120a7565b6105cb565b6040519015158152602001610227565b610266610261366004612163565b6105f6565b005b61027061062d565b604051610227919061220b565b61027061028b36600461221e565b6106bb565b61026661029e3660046122eb565b61074f565b61021d6102b136600461221e565b60009081526004602052604090206001015490565b6102d96102d4366004612383565b61078c565b604080516001600160a01b039093168352602083019190915201610227565b6102666103063660046123a5565b6107c6565b61026661031936600461244e565b61081d565b61026661032c36600461244e565b610847565b6102666108d1565b61034c61034736600461247a565b610906565b604051610227919061257f565b61024361036736600461221e565b600090815260036020526040902054151590565b60055460ff16610243565b610266610394366004612592565b610a2f565b6102666103a7366004612605565b610a84565b61021d7f7804d923f43a17d325d77e781528e0793b2edd9890ab45fc64efd7b4b427744c81565b610266610aba565b6102436103e936600461244e565b610aec565b6102666103fc366004612163565b610b17565b610270610b4a565b61026661041736600461221e565b610b57565b61021d600081565b610266610432366004612659565b610b68565b61021d61044536600461221e565b60009081526003602052604090205490565b610266610465366004612695565b610b7a565b61021d7f9f2df0fed2c77648de5860a4cc508cd0818c85b8b8a1ab4ceeef8d981c8956a681565b61026661049f36600461244e565b610c13565b61021d7f65d7a28e3265b37a6474929f336521b332c1681b933f6cb9f3376673440d862a81565b610270610c38565b6102436104e13660046126b0565b6001600160a01b03918216600090815260016020908152604080832093909416825291909152205460ff1690565b61026661051d3660046126da565b610cca565b61026661053036600461273e565b610d21565b60006001600160a01b0383166105a55760405162461bcd60e51b815260206004820152602a60248201527f455243313135353a2061646472657373207a65726f206973206e6f742061207660448201526930b634b21037bbb732b960b11b60648201526084015b60405180910390fd5b506000908152602081815260408083206001600160a01b03949094168352929052205490565b60006001600160e01b0319821663152a902d60e11b14806105f057506105f082610dd3565b92915050565b7f7804d923f43a17d325d77e781528e0793b2edd9890ab45fc64efd7b4b427744c61062081610df8565b61062982610e09565b5050565b6006805461063a90612771565b80601f016020809104026020016040519081016040528092919081815260200182805461066690612771565b80156106b35780601f10610688576101008083540402835291602001916106b3565b820191906000526020600020905b81548152906001019060200180831161069657829003601f168201915b505050505081565b6060600280546106ca90612771565b80601f01602080910402602001604051908101604052809291908181526020018280546106f690612771565b80156107435780601f1061071857610100808354040283529160200191610743565b820191906000526020600020905b81548152906001019060200180831161072657829003601f168201915b50505050509050919050565b7f9f2df0fed2c77648de5860a4cc508cd0818c85b8b8a1ab4ceeef8d981c8956a661077981610df8565b61078585858585610e1c565b5050505050565b60085460095460009182916001600160a01b0390911690612710906107b190866127c2565b6107bb91906127e1565b915091509250929050565b6107ce610f81565b6001600160a01b0316856001600160a01b031614806107f457506107f4856104e1610f81565b6108105760405162461bcd60e51b815260040161059c90612803565b6107858585858585610f90565b60008281526004602052604090206001015461083881610df8565b6108428383611145565b505050565b61084f610f81565b6001600160a01b0316816001600160a01b0316146108c75760405162461bcd60e51b815260206004820152602f60248201527f416363657373436f6e74726f6c3a2063616e206f6e6c792072656e6f756e636560448201526e103937b632b9903337b91039b2b63360891b606482015260840161059c565b61062982826111cc565b7f65d7a28e3265b37a6474929f336521b332c1681b933f6cb9f3376673440d862a6108fb81610df8565b610903611251565b50565b6060815183511461096b5760405162461bcd60e51b815260206004820152602960248201527f455243313135353a206163636f756e747320616e6420696473206c656e677468604482015268040dad2e6dac2e8c6d60bb1b606482015260840161059c565b600083516001600160401b03811115610986576109866120c4565b6040519080825280602002602001820160405280156109af578160200160208202803683370190505b50905060005b8451811015610a27576109fa8582815181106109d3576109d3612852565b60200260200101518583815181106109ed576109ed612852565b6020026020010151610535565b828281518110610a0c57610a0c612852565b6020908102919091010152610a2081612868565b90506109b5565b509392505050565b610a37610f81565b6001600160a01b0316836001600160a01b03161480610a5d5750610a5d836104e1610f81565b610a795760405162461bcd60e51b815260040161059c90612803565b6108428383836112a9565b7f9f2df0fed2c77648de5860a4cc508cd0818c85b8b8a1ab4ceeef8d981c8956a6610aae81610df8565b6107858585858561144e565b7f65d7a28e3265b37a6474929f336521b332c1681b933f6cb9f3376673440d862a610ae481610df8565b610903611542565b60009182526004602090815260408084206001600160a01b0393909316845291905290205460ff1690565b7f7804d923f43a17d325d77e781528e0793b2edd9890ab45fc64efd7b4b427744c610b4181610df8565b61062982611580565b6007805461063a90612771565b6000610b6281610df8565b50600955565b610629610b73610f81565b8383611593565b6000610b8581610df8565b6001600160a01b038216610bf05760405162461bcd60e51b815260206004820152602c60248201527f526f79616c746965733a206e657720726563697069656e74206973207468652060448201526b7a65726f206164647265737360a01b606482015260840161059c565b50600880546001600160a01b0319166001600160a01b0392909216919091179055565b600082815260046020526040902060010154610c2e81610df8565b61084283836111cc565b6060600a8054610c4790612771565b80601f0160208091040260200160405190810160405280929190818152602001828054610c7390612771565b8015610cc05780601f10610c9557610100808354040283529160200191610cc0565b820191906000526020600020905b815481529060010190602001808311610ca357829003601f168201915b5050505050905090565b610cd2610f81565b6001600160a01b0316856001600160a01b03161480610cf85750610cf8856104e1610f81565b610d145760405162461bcd60e51b815260040161059c90612803565b6107858585858585611674565b610d29610f81565b6001600160a01b0316836001600160a01b03161480610d4f5750610d4f836104e1610f81565b610d6b5760405162461bcd60e51b815260040161059c90612803565b6108428383836117b7565b600033301415610dcd57600080368080601f0160208091040260200160405190810160405280939291908181526020018383808284376000920191909152505050503601516001600160a01b03169150610dd09050565b50335b90565b60006001600160e01b03198216637965db0b60e01b14806105f057506105f0826118da565b61090381610e04610f81565b61192a565b8051610629906002906020840190611fb2565b6001600160a01b038416610e425760405162461bcd60e51b815260040161059c90612883565b8151835114610e635760405162461bcd60e51b815260040161059c906128c4565b6000610e6d610f81565b9050610e7e8160008787878761198e565b60005b8451811015610f1957838181518110610e9c57610e9c612852565b6020026020010151600080878481518110610eb957610eb9612852565b602002602001015181526020019081526020016000206000886001600160a01b03166001600160a01b031681526020019081526020016000206000828254610f01919061290c565b90915550819050610f1181612868565b915050610e81565b50846001600160a01b031660006001600160a01b0316826001600160a01b03167f4a39dc06d4c0dbc64b70af90fd698a233a518aa5d07e595d983b8c0526c8f7fb8787604051610f6a929190612924565b60405180910390a4610785816000878787876119a4565b6000610f8b610d76565b905090565b8151835114610fb15760405162461bcd60e51b815260040161059c906128c4565b6001600160a01b038416610fd75760405162461bcd60e51b815260040161059c90612952565b6000610fe1610f81565b9050610ff181878787878761198e565b60005b84518110156110d757600085828151811061101157611011612852565b60200260200101519050600085838151811061102f5761102f612852565b602090810291909101810151600084815280835260408082206001600160a01b038e16835290935291909120549091508181101561107f5760405162461bcd60e51b815260040161059c90612997565b6000838152602081815260408083206001600160a01b038e8116855292528083208585039055908b168252812080548492906110bc90849061290c565b92505081905550505050806110d090612868565b9050610ff4565b50846001600160a01b0316866001600160a01b0316826001600160a01b03167f4a39dc06d4c0dbc64b70af90fd698a233a518aa5d07e595d983b8c0526c8f7fb8787604051611127929190612924565b60405180910390a461113d8187878787876119a4565b505050505050565b61114f8282610aec565b6106295760008281526004602090815260408083206001600160a01b03851684529091529020805460ff19166001179055611188610f81565b6001600160a01b0316816001600160a01b0316837f2f8788117e7eff1d82e926ec794901d17c78024a50270940304540a733656f0d60405160405180910390a45050565b6111d68282610aec565b156106295760008281526004602090815260408083206001600160a01b03851684529091529020805460ff1916905561120d610f81565b6001600160a01b0316816001600160a01b0316837ff6391f5c32d9c69d2a47ea670b442974b53935d1edc7fd64eb21e047a839171b60405160405180910390a45050565b611259611b00565b6005805460ff191690557f5db9ee0a495bf2e6ff9c91a7834c1ba4fdd244a5e8aa4e537bd38aeae4b073aa61128c610f81565b6040516001600160a01b03909116815260200160405180910390a1565b6001600160a01b0383166112cf5760405162461bcd60e51b815260040161059c906129e1565b80518251146112f05760405162461bcd60e51b815260040161059c906128c4565b60006112fa610f81565b905061131a8185600086866040518060200160405280600081525061198e565b60005b83518110156113df57600084828151811061133a5761133a612852565b60200260200101519050600084838151811061135857611358612852565b602090810291909101810151600084815280835260408082206001600160a01b038c1683529093529190912054909150818110156113a85760405162461bcd60e51b815260040161059c90612a24565b6000928352602083815260408085206001600160a01b038b16865290915290922091039055806113d781612868565b91505061131d565b5060006001600160a01b0316846001600160a01b0316826001600160a01b03167f4a39dc06d4c0dbc64b70af90fd698a233a518aa5d07e595d983b8c0526c8f7fb8686604051611430929190612924565b60405180910390a46040805160208101909152600090525b50505050565b6001600160a01b0384166114745760405162461bcd60e51b815260040161059c90612883565b600061147e610f81565b9050600061148b85611b4b565b9050600061149885611b4b565b90506114a98360008985858961198e565b6000868152602081815260408083206001600160a01b038b168452909152812080548792906114d990849061290c565b909155505060408051878152602081018790526001600160a01b03808a1692600092918716917fc3d58168c5ae7397731d063d5bbf3d657854427343f4c083240f7aacaa2d0f62910160405180910390a461153983600089898989611b96565b50505050505050565b61154a611c51565b6005805460ff191660011790557f62e78cea01bee320cd4e420270b5ea74000d11b0c9f74754ebdbfc544b05a25861128c610f81565b805161062990600a906020840190611fb2565b816001600160a01b0316836001600160a01b031614156116075760405162461bcd60e51b815260206004820152602960248201527f455243313135353a2073657474696e6720617070726f76616c20737461747573604482015268103337b91039b2b63360b91b606482015260840161059c565b6001600160a01b03838116600081815260016020908152604080832094871680845294825291829020805460ff191686151590811790915591519182527f17307eab39ab6107e8899845ad3d59bd9653f200f220920489ca2b5937696c31910160405180910390a3505050565b6001600160a01b03841661169a5760405162461bcd60e51b815260040161059c90612952565b60006116a4610f81565b905060006116b185611b4b565b905060006116be85611b4b565b90506116ce83898985858961198e565b6000868152602081815260408083206001600160a01b038c1684529091529020548581101561170f5760405162461bcd60e51b815260040161059c90612997565b6000878152602081815260408083206001600160a01b038d8116855292528083208985039055908a1682528120805488929061174c90849061290c565b909155505060408051888152602081018890526001600160a01b03808b16928c821692918816917fc3d58168c5ae7397731d063d5bbf3d657854427343f4c083240f7aacaa2d0f62910160405180910390a46117ac848a8a8a8a8a611b96565b505050505050505050565b6001600160a01b0383166117dd5760405162461bcd60e51b815260040161059c906129e1565b60006117e7610f81565b905060006117f484611b4b565b9050600061180184611b4b565b90506118218387600085856040518060200160405280600081525061198e565b6000858152602081815260408083206001600160a01b038a168452909152902054848110156118625760405162461bcd60e51b815260040161059c90612a24565b6000868152602081815260408083206001600160a01b038b81168086529184528285208a8703905582518b81529384018a90529092908816917fc3d58168c5ae7397731d063d5bbf3d657854427343f4c083240f7aacaa2d0f62910160405180910390a4604080516020810190915260009052611539565b60006001600160e01b03198216636cdb3d1360e11b148061190b57506001600160e01b031982166303a24d0760e21b145b806105f057506301ffc9a760e01b6001600160e01b03198316146105f0565b6119348282610aec565b6106295761194c816001600160a01b03166014611c97565b611957836020611c97565b604051602001611968929190612a68565b60408051601f198184030181529082905262461bcd60e51b825261059c9160040161220b565b611996611c51565b61113d868686868686611e39565b6001600160a01b0384163b1561113d5760405163bc197c8160e01b81526001600160a01b0385169063bc197c81906119e89089908990889088908890600401612add565b6020604051808303816000875af1925050508015611a23575060408051601f3d908101601f19168201909252611a2091810190612b3b565b60015b611ad057611a2f612b58565b806308c379a01415611a695750611a44612b73565b80611a4f5750611a6b565b8060405162461bcd60e51b815260040161059c919061220b565b505b60405162461bcd60e51b815260206004820152603460248201527f455243313135353a207472616e7366657220746f206e6f6e20455243313135356044820152732932b1b2b4bb32b91034b6b83632b6b2b73a32b960611b606482015260840161059c565b6001600160e01b0319811663bc197c8160e01b146115395760405162461bcd60e51b815260040161059c90612bfc565b60055460ff16611b495760405162461bcd60e51b815260206004820152601460248201527314185d5cd8589b194e881b9bdd081c185d5cd95960621b604482015260640161059c565b565b60408051600180825281830190925260609160009190602080830190803683370190505090508281600081518110611b8557611b85612852565b602090810291909101015292915050565b6001600160a01b0384163b1561113d5760405163f23a6e6160e01b81526001600160a01b0385169063f23a6e6190611bda9089908990889088908890600401612c44565b6020604051808303816000875af1925050508015611c15575060408051601f3d908101601f19168201909252611c1291810190612b3b565b60015b611c2157611a2f612b58565b6001600160e01b0319811663f23a6e6160e01b146115395760405162461bcd60e51b815260040161059c90612bfc565b60055460ff1615611b495760405162461bcd60e51b815260206004820152601060248201526f14185d5cd8589b194e881c185d5cd95960821b604482015260640161059c565b60606000611ca68360026127c2565b611cb190600261290c565b6001600160401b03811115611cc857611cc86120c4565b6040519080825280601f01601f191660200182016040528015611cf2576020820181803683370190505b509050600360fc1b81600081518110611d0d57611d0d612852565b60200101906001600160f81b031916908160001a905350600f60fb1b81600181518110611d3c57611d3c612852565b60200101906001600160f81b031916908160001a9053506000611d608460026127c2565b611d6b90600161290c565b90505b6001811115611de3576f181899199a1a9b1b9c1cb0b131b232b360811b85600f1660108110611d9f57611d9f612852565b1a60f81b828281518110611db557611db5612852565b60200101906001600160f81b031916908160001a90535060049490941c93611ddc81612c89565b9050611d6e565b508315611e325760405162461bcd60e51b815260206004820181905260248201527f537472696e67733a20686578206c656e67746820696e73756666696369656e74604482015260640161059c565b9392505050565b6001600160a01b038516611ec05760005b8351811015611ebe57828181518110611e6557611e65612852565b602002602001015160036000868481518110611e8357611e83612852565b602002602001015181526020019081526020016000206000828254611ea8919061290c565b90915550611eb7905081612868565b9050611e4a565b505b6001600160a01b03841661113d5760005b8351811015611539576000848281518110611eee57611eee612852565b602002602001015190506000848381518110611f0c57611f0c612852565b6020026020010151905060006003600084815260200190815260200160002054905081811015611f8f5760405162461bcd60e51b815260206004820152602860248201527f455243313135353a206275726e20616d6f756e74206578636565647320746f74604482015267616c537570706c7960c01b606482015260840161059c565b60009283526003602052604090922091039055611fab81612868565b9050611ed1565b828054611fbe90612771565b90600052602060002090601f016020900481019282611fe05760008555612026565b82601f10611ff957805160ff1916838001178555612026565b82800160010185558215612026579182015b8281111561202657825182559160200191906001019061200b565b50612032929150612036565b5090565b5b808211156120325760008155600101612037565b80356001600160a01b038116811461206257600080fd5b919050565b6000806040838503121561207a57600080fd5b6120838361204b565b946020939093013593505050565b6001600160e01b03198116811461090357600080fd5b6000602082840312156120b957600080fd5b8135611e3281612091565b634e487b7160e01b600052604160045260246000fd5b601f8201601f191681016001600160401b03811182821017156120ff576120ff6120c4565b6040525050565b60006001600160401b0383111561211f5761211f6120c4565b604051612136601f8501601f1916602001826120da565b80915083815284848401111561214b57600080fd5b83836020830137600060208583010152509392505050565b60006020828403121561217557600080fd5b81356001600160401b0381111561218b57600080fd5b8201601f8101841361219c57600080fd5b6121ab84823560208401612106565b949350505050565b60005b838110156121ce5781810151838201526020016121b6565b838111156114485750506000910152565b600081518084526121f78160208601602086016121b3565b601f01601f19169290920160200192915050565b602081526000611e3260208301846121df565b60006020828403121561223057600080fd5b5035919050565b60006001600160401b03821115612250576122506120c4565b5060051b60200190565b600082601f83011261226b57600080fd5b8135602061227882612237565b60405161228582826120da565b83815260059390931b85018201928281019150868411156122a557600080fd5b8286015b848110156122c057803583529183019183016122a9565b509695505050505050565b600082601f8301126122dc57600080fd5b611e3283833560208501612106565b6000806000806080858703121561230157600080fd5b61230a8561204b565b935060208501356001600160401b038082111561232657600080fd5b6123328883890161225a565b9450604087013591508082111561234857600080fd5b6123548883890161225a565b9350606087013591508082111561236a57600080fd5b50612377878288016122cb565b91505092959194509250565b6000806040838503121561239657600080fd5b50508035926020909101359150565b600080600080600060a086880312156123bd57600080fd5b6123c68661204b565b94506123d46020870161204b565b935060408601356001600160401b03808211156123f057600080fd5b6123fc89838a0161225a565b9450606088013591508082111561241257600080fd5b61241e89838a0161225a565b9350608088013591508082111561243457600080fd5b50612441888289016122cb565b9150509295509295909350565b6000806040838503121561246157600080fd5b823591506124716020840161204b565b90509250929050565b6000806040838503121561248d57600080fd5b82356001600160401b03808211156124a457600080fd5b818501915085601f8301126124b857600080fd5b813560206124c582612237565b6040516124d282826120da565b83815260059390931b85018201928281019150898411156124f257600080fd5b948201945b83861015612517576125088661204b565b825294820194908201906124f7565b9650508601359250508082111561252d57600080fd5b5061253a8582860161225a565b9150509250929050565b600081518084526020808501945080840160005b8381101561257457815187529582019590820190600101612558565b509495945050505050565b602081526000611e326020830184612544565b6000806000606084860312156125a757600080fd5b6125b08461204b565b925060208401356001600160401b03808211156125cc57600080fd5b6125d88783880161225a565b935060408601359150808211156125ee57600080fd5b506125fb8682870161225a565b9150509250925092565b6000806000806080858703121561261b57600080fd5b6126248561204b565b9350602085013592506040850135915060608501356001600160401b0381111561264d57600080fd5b612377878288016122cb565b6000806040838503121561266c57600080fd5b6126758361204b565b91506020830135801515811461268a57600080fd5b809150509250929050565b6000602082840312156126a757600080fd5b611e328261204b565b600080604083850312156126c357600080fd5b6126cc8361204b565b91506124716020840161204b565b600080600080600060a086880312156126f257600080fd5b6126fb8661204b565b94506127096020870161204b565b9350604086013592506060860135915060808601356001600160401b0381111561273257600080fd5b612441888289016122cb565b60008060006060848603121561275357600080fd5b61275c8461204b565b95602085013595506040909401359392505050565b600181811c9082168061278557607f821691505b602082108114156127a657634e487b7160e01b600052602260045260246000fd5b50919050565b634e487b7160e01b600052601160045260246000fd5b60008160001904831182151516156127dc576127dc6127ac565b500290565b6000826127fe57634e487b7160e01b600052601260045260246000fd5b500490565b6020808252602f908201527f455243313135353a2063616c6c6572206973206e6f7420746f6b656e206f776e60408201526e195c881b9bdc88185c1c1c9bdd9959608a1b606082015260800190565b634e487b7160e01b600052603260045260246000fd5b600060001982141561287c5761287c6127ac565b5060010190565b60208082526021908201527f455243313135353a206d696e7420746f20746865207a65726f206164647265736040820152607360f81b606082015260800190565b60208082526028908201527f455243313135353a2069647320616e6420616d6f756e7473206c656e677468206040820152670dad2e6dac2e8c6d60c31b606082015260800190565b6000821982111561291f5761291f6127ac565b500190565b6040815260006129376040830185612544565b82810360208401526129498185612544565b95945050505050565b60208082526025908201527f455243313135353a207472616e7366657220746f20746865207a65726f206164604082015264647265737360d81b606082015260800190565b6020808252602a908201527f455243313135353a20696e73756666696369656e742062616c616e636520666f60408201526939103a3930b739b332b960b11b606082015260800190565b60208082526023908201527f455243313135353a206275726e2066726f6d20746865207a65726f206164647260408201526265737360e81b606082015260800190565b60208082526024908201527f455243313135353a206275726e20616d6f756e7420657863656564732062616c604082015263616e636560e01b606082015260800190565b7f416363657373436f6e74726f6c3a206163636f756e7420000000000000000000815260008351612aa08160178501602088016121b3565b7001034b99036b4b9b9b4b733903937b6329607d1b6017918401918201528351612ad18160288401602088016121b3565b01602801949350505050565b6001600160a01b0386811682528516602082015260a060408201819052600090612b0990830186612544565b8281036060840152612b1b8186612544565b90508281036080840152612b2f81856121df565b98975050505050505050565b600060208284031215612b4d57600080fd5b8151611e3281612091565b600060033d1115610dd05760046000803e5060005160e01c90565b600060443d1015612b815790565b6040516003193d81016004833e81513d6001600160401b038160248401118184111715612bb057505050505090565b8285019150815181811115612bc85750505050505090565b843d8701016020828501011115612be25750505050505090565b612bf1602082860101876120da565b509095945050505050565b60208082526028908201527f455243313135353a204552433131353552656365697665722072656a656374656040820152676420746f6b656e7360c01b606082015260800190565b6001600160a01b03868116825285166020820152604081018490526060810183905260a060808201819052600090612c7e908301846121df565b979650505050505050565b600081612c9857612c986127ac565b50600019019056fea2646970667358221220bf56b2191e48f272c3b4e965ca8bc23d72b8aa9c52b7dfeb4501dcb8f6882cd764736f6c634300080b003368747470733a2f2f6261666b72656966727063766968766e6e617668337a637075676f6a34646879346f36693673646935353572747779756876686b347a78786865792e697066732e6e667473746f726167652e6c696e6b2f68747470733a2f2f6261666b72656964626c657969637a746f6664656b73677137657161666f7570346c646171697165696f61376278706c736a636e726370763365342e697066732e6e667473746f726167652e6c696e6b2f",
  "devdoc": {
    "kind": "dev",
    "methods": {
      "_setRoyalties(address)": {
        "details": "EIP2981 royalties implementation. "
      },
      "balanceOf(address,uint256)": {
        "details": "See {IERC1155-balanceOf}. Requirements: - `account` cannot be the zero address."
      },
      "balanceOfBatch(address[],uint256[])": {
        "details": "See {IERC1155-balanceOfBatch}. Requirements: - `accounts` and `ids` must have the same length."
      },
      "contractURI()": {
        "details": "Contract-level metadata for OpenSea. "
      },
      "exists(uint256)": {
        "details": "Indicates whether any token exist with a given id, or not."
      },
      "getRoleAdmin(bytes32)": {
        "details": "Returns the admin role that controls `role`. See {grantRole} and {revokeRole}. To change a role's admin, use {_setRoleAdmin}."
      },
      "grantRole(bytes32,address)": {
        "details": "Grants `role` to `account`. If `account` had not been already granted `role`, emits a {RoleGranted} event. Requirements: - the caller must have ``role``'s admin role. May emit a {RoleGranted} event."
      },
      "hasRole(bytes32,address)": {
        "details": "Returns `true` if `account` has been granted `role`."
      },
      "isApprovedForAll(address,address)": {
        "details": "See {IERC1155-isApprovedForAll}."
      },
      "paused()": {
        "details": "Returns true if the contract is paused, and false otherwise."
      },
      "renounceRole(bytes32,address)": {
        "details": "Revokes `role` from the calling account. Roles are often managed via {grantRole} and {revokeRole}: this function's purpose is to provide a mechanism for accounts to lose their privileges if they are compromised (such as when a trusted device is misplaced). If the calling account had been revoked `role`, emits a {RoleRevoked} event. Requirements: - the caller must be `account`. May emit a {RoleRevoked} event."
      },
      "revokeRole(bytes32,address)": {
        "details": "Revokes `role` from `account`. If `account` had been granted `role`, emits a {RoleRevoked} event. Requirements: - the caller must have ``role``'s admin role. May emit a {RoleRevoked} event."
      },
      "safeBatchTransferFrom(address,address,uint256[],uint256[],bytes)": {
        "details": "See {IERC1155-safeBatchTransferFrom}."
      },
      "safeTransferFrom(address,address,uint256,uint256,bytes)": {
        "details": "See {IERC1155-safeTransferFrom}."
      },
      "setApprovalForAll(address,bool)": {
        "details": "See {IERC1155-setApprovalForAll}."
      },
      "totalSupply(uint256)": {
        "details": "Total amount of tokens in with a given id."
      },
      "uri(uint256)": {
        "details": "See {IERC1155MetadataURI-uri}. This implementation returns the same URI for *all* token types. It relies on the token type ID substitution mechanism https://eips.ethereum.org/EIPS/eip-1155#metadata[defined in the EIP]. Clients calling this function must replace the `\\{id\\}` substring with the actual token type ID."
      }
    },
    "version": 1
  },
  "userdoc": {
    "kind": "user",
    "methods": {},
    "version": 1
  },
  "storageLayout": {
    "storage": [
      {
        "astId": 852,
        "contract": "contracts/tokens/Ticket.sol:Ticket",
        "label": "_balances",
        "offset": 0,
        "slot": "0",
        "type": "t_mapping(t_uint256,t_mapping(t_address,t_uint256))"
      },
      {
        "astId": 858,
        "contract": "contracts/tokens/Ticket.sol:Ticket",
        "label": "_operatorApprovals",
        "offset": 0,
        "slot": "1",
        "type": "t_mapping(t_address,t_mapping(t_address,t_bool))"
      },
      {
        "astId": 860,
        "contract": "contracts/tokens/Ticket.sol:Ticket",
        "label": "_uri",
        "offset": 0,
        "slot": "2",
        "type": "t_string_storage"
      },
      {
        "astId": 2291,
        "contract": "contracts/tokens/Ticket.sol:Ticket",
        "label": "_totalSupply",
        "offset": 0,
        "slot": "3",
        "type": "t_mapping(t_uint256,t_uint256)"
      },
      {
        "astId": 178,
        "contract": "contracts/tokens/Ticket.sol:Ticket",
        "label": "_roles",
        "offset": 0,
        "slot": "4",
        "type": "t_mapping(t_bytes32,t_struct(RoleData)173_storage)"
      },
      {
        "astId": 696,
        "contract": "contracts/tokens/Ticket.sol:Ticket",
        "label": "_paused",
        "offset": 0,
        "slot": "5",
        "type": "t_bool"
      },
      {
        "astId": 13973,
        "contract": "contracts/tokens/Ticket.sol:Ticket",
        "label": "name",
        "offset": 0,
        "slot": "6",
        "type": "t_string_storage"
      },
      {
        "astId": 13975,
        "contract": "contracts/tokens/Ticket.sol:Ticket",
        "label": "symbol",
        "offset": 0,
        "slot": "7",
        "type": "t_string_storage"
      },
      {
        "astId": 13977,
        "contract": "contracts/tokens/Ticket.sol:Ticket",
        "label": "_recipient",
        "offset": 0,
        "slot": "8",
        "type": "t_address"
      },
      {
        "astId": 13979,
        "contract": "contracts/tokens/Ticket.sol:Ticket",
        "label": "_royalty",
        "offset": 0,
        "slot": "9",
        "type": "t_uint256"
      },
      {
        "astId": 13996,
        "contract": "contracts/tokens/Ticket.sol:Ticket",
        "label": "_contractUri",
        "offset": 0,
        "slot": "10",
        "type": "t_string_storage"
      }
    ],
    "types": {
      "t_address": {
        "encoding": "inplace",
        "label": "address",
        "numberOfBytes": "20"
      },
      "t_bool": {
        "encoding": "inplace",
        "label": "bool",
        "numberOfBytes": "1"
      },
      "t_bytes32": {
        "encoding": "inplace",
        "label": "bytes32",
        "numberOfBytes": "32"
      },
      "t_mapping(t_address,t_bool)": {
        "encoding": "mapping",
        "key": "t_address",
        "label": "mapping(address => bool)",
        "numberOfBytes": "32",
        "value": "t_bool"
      },
      "t_mapping(t_address,t_mapping(t_address,t_bool))": {
        "encoding": "mapping",
        "key": "t_address",
        "label": "mapping(address => mapping(address => bool))",
        "numberOfBytes": "32",
        "value": "t_mapping(t_address,t_bool)"
      },
      "t_mapping(t_address,t_uint256)": {
        "encoding": "mapping",
        "key": "t_address",
        "label": "mapping(address => uint256)",
        "numberOfBytes": "32",
        "value": "t_uint256"
      },
      "t_mapping(t_bytes32,t_struct(RoleData)173_storage)": {
        "encoding": "mapping",
        "key": "t_bytes32",
        "label": "mapping(bytes32 => struct AccessControl.RoleData)",
        "numberOfBytes": "32",
        "value": "t_struct(RoleData)173_storage"
      },
      "t_mapping(t_uint256,t_mapping(t_address,t_uint256))": {
        "encoding": "mapping",
        "key": "t_uint256",
        "label": "mapping(uint256 => mapping(address => uint256))",
        "numberOfBytes": "32",
        "value": "t_mapping(t_address,t_uint256)"
      },
      "t_mapping(t_uint256,t_uint256)": {
        "encoding": "mapping",
        "key": "t_uint256",
        "label": "mapping(uint256 => uint256)",
        "numberOfBytes": "32",
        "value": "t_uint256"
      },
      "t_string_storage": {
        "encoding": "bytes",
        "label": "string",
        "numberOfBytes": "32"
      },
      "t_struct(RoleData)173_storage": {
        "encoding": "inplace",
        "label": "struct AccessControl.RoleData",
        "members": [
          {
            "astId": 170,
            "contract": "contracts/tokens/Ticket.sol:Ticket",
            "label": "members",
            "offset": 0,
            "slot": "0",
            "type": "t_mapping(t_address,t_bool)"
          },
          {
            "astId": 172,
            "contract": "contracts/tokens/Ticket.sol:Ticket",
            "label": "adminRole",
            "offset": 0,
            "slot": "1",
            "type": "t_bytes32"
          }
        ],
        "numberOfBytes": "64"
      },
      "t_uint256": {
        "encoding": "inplace",
        "label": "uint256",
        "numberOfBytes": "32"
      }
    }
  }
}