{
  "address": "0x706F87adfDEB0F5B54C94FE6506EFBdC871FE0af",
  "abi": [
    {
      "inputs": [
        {
          "internalType": "address",
          "name": "tokenAddress_",
          "type": "address"
        },
        {
          "internalType": "address",
          "name": "tokenPool_",
          "type": "address"
        },
        {
          "internalType": "address",
          "name": "changeTokenAddress_",
          "type": "address"
        },
        {
          "internalType": "address",
          "name": "changeTokenPool_",
          "type": "address"
        },
        {
          "internalType": "uint256",
          "name": "swapRate_",
          "type": "uint256"
        }
      ],
      "stateMutability": "nonpayable",
      "type": "constructor"
    },
    {
      "anonymous": false,
      "inputs": [
        {
          "indexed": false,
          "internalType": "address",
          "name": "account",
          "type": "address"
        }
      ],
      "name": "Paused",
      "type": "event"
    },
    {
      "anonymous": false,
      "inputs": [
        {
          "indexed": true,
          "internalType": "bytes32",
          "name": "role",
          "type": "bytes32"
        },
        {
          "indexed": true,
          "internalType": "bytes32",
          "name": "previousAdminRole",
          "type": "bytes32"
        },
        {
          "indexed": true,
          "internalType": "bytes32",
          "name": "newAdminRole",
          "type": "bytes32"
        }
      ],
      "name": "RoleAdminChanged",
      "type": "event"
    },
    {
      "anonymous": false,
      "inputs": [
        {
          "indexed": true,
          "internalType": "bytes32",
          "name": "role",
          "type": "bytes32"
        },
        {
          "indexed": true,
          "internalType": "address",
          "name": "account",
          "type": "address"
        },
        {
          "indexed": true,
          "internalType": "address",
          "name": "sender",
          "type": "address"
        }
      ],
      "name": "RoleGranted",
      "type": "event"
    },
    {
      "anonymous": false,
      "inputs": [
        {
          "indexed": true,
          "internalType": "bytes32",
          "name": "role",
          "type": "bytes32"
        },
        {
          "indexed": true,
          "internalType": "address",
          "name": "account",
          "type": "address"
        },
        {
          "indexed": true,
          "internalType": "address",
          "name": "sender",
          "type": "address"
        }
      ],
      "name": "RoleRevoked",
      "type": "event"
    },
    {
      "anonymous": false,
      "inputs": [
        {
          "indexed": true,
          "internalType": "address",
          "name": "buyer",
          "type": "address"
        },
        {
          "indexed": false,
          "internalType": "uint256",
          "name": "amountToken",
          "type": "uint256"
        },
        {
          "indexed": false,
          "internalType": "uint256",
          "name": "amountChangeToken",
          "type": "uint256"
        }
      ],
      "name": "TokensPurchased",
      "type": "event"
    },
    {
      "anonymous": false,
      "inputs": [
        {
          "indexed": true,
          "internalType": "address",
          "name": "seller",
          "type": "address"
        },
        {
          "indexed": false,
          "internalType": "uint256",
          "name": "amountToken",
          "type": "uint256"
        },
        {
          "indexed": false,
          "internalType": "uint256",
          "name": "amountChangeToken",
          "type": "uint256"
        }
      ],
      "name": "TokensSold",
      "type": "event"
    },
    {
      "anonymous": false,
      "inputs": [
        {
          "indexed": false,
          "internalType": "address",
          "name": "account",
          "type": "address"
        }
      ],
      "name": "Unpaused",
      "type": "event"
    },
    {
      "inputs": [],
      "name": "DEFAULT_ADMIN_ROLE",
      "outputs": [
        {
          "internalType": "bytes32",
          "name": "",
          "type": "bytes32"
        }
      ],
      "stateMutability": "view",
      "type": "function"
    },
    {
      "inputs": [],
      "name": "DIVIDER",
      "outputs": [
        {
          "internalType": "uint256",
          "name": "",
          "type": "uint256"
        }
      ],
      "stateMutability": "view",
      "type": "function"
    },
    {
      "inputs": [
        {
          "internalType": "uint256",
          "name": "_amountChangeToken",
          "type": "uint256"
        }
      ],
      "name": "buyTokens",
      "outputs": [],
      "stateMutability": "nonpayable",
      "type": "function"
    },
    {
      "inputs": [],
      "name": "changeToken",
      "outputs": [
        {
          "internalType": "contract IERC20",
          "name": "",
          "type": "address"
        }
      ],
      "stateMutability": "view",
      "type": "function"
    },
    {
      "inputs": [],
      "name": "disableSell",
      "outputs": [],
      "stateMutability": "nonpayable",
      "type": "function"
    },
    {
      "inputs": [],
      "name": "enableSell",
      "outputs": [],
      "stateMutability": "nonpayable",
      "type": "function"
    },
    {
      "inputs": [],
      "name": "getChangeTokenReserve",
      "outputs": [
        {
          "internalType": "uint256",
          "name": "",
          "type": "uint256"
        }
      ],
      "stateMutability": "view",
      "type": "function"
    },
    {
      "inputs": [
        {
          "internalType": "uint256",
          "name": "_amountToken",
          "type": "uint256"
        }
      ],
      "name": "getEquivalentChangeTokenEstimate",
      "outputs": [
        {
          "internalType": "uint256",
          "name": "",
          "type": "uint256"
        }
      ],
      "stateMutability": "view",
      "type": "function"
    },
    {
      "inputs": [
        {
          "internalType": "uint256",
          "name": "_amountChangeToken",
          "type": "uint256"
        }
      ],
      "name": "getEquivalentTokenEstimate",
      "outputs": [
        {
          "internalType": "uint256",
          "name": "",
          "type": "uint256"
        }
      ],
      "stateMutability": "view",
      "type": "function"
    },
    {
      "inputs": [
        {
          "internalType": "bytes32",
          "name": "role",
          "type": "bytes32"
        }
      ],
      "name": "getRoleAdmin",
      "outputs": [
        {
          "internalType": "bytes32",
          "name": "",
          "type": "bytes32"
        }
      ],
      "stateMutability": "view",
      "type": "function"
    },
    {
      "inputs": [],
      "name": "getTokenReserve",
      "outputs": [
        {
          "internalType": "uint256",
          "name": "",
          "type": "uint256"
        }
      ],
      "stateMutability": "view",
      "type": "function"
    },
    {
      "inputs": [
        {
          "internalType": "bytes32",
          "name": "role",
          "type": "bytes32"
        },
        {
          "internalType": "address",
          "name": "account",
          "type": "address"
        }
      ],
      "name": "grantRole",
      "outputs": [],
      "stateMutability": "nonpayable",
      "type": "function"
    },
    {
      "inputs": [
        {
          "internalType": "bytes32",
          "name": "role",
          "type": "bytes32"
        },
        {
          "internalType": "address",
          "name": "account",
          "type": "address"
        }
      ],
      "name": "hasRole",
      "outputs": [
        {
          "internalType": "bool",
          "name": "",
          "type": "bool"
        }
      ],
      "stateMutability": "view",
      "type": "function"
    },
    {
      "inputs": [],
      "name": "isSellAvailable",
      "outputs": [
        {
          "internalType": "bool",
          "name": "",
          "type": "bool"
        }
      ],
      "stateMutability": "view",
      "type": "function"
    },
    {
      "inputs": [],
      "name": "pause",
      "outputs": [],
      "stateMutability": "nonpayable",
      "type": "function"
    },
    {
      "inputs": [],
      "name": "paused",
      "outputs": [
        {
          "internalType": "bool",
          "name": "",
          "type": "bool"
        }
      ],
      "stateMutability": "view",
      "type": "function"
    },
    {
      "inputs": [
        {
          "internalType": "bytes32",
          "name": "role",
          "type": "bytes32"
        },
        {
          "internalType": "address",
          "name": "account",
          "type": "address"
        }
      ],
      "name": "renounceRole",
      "outputs": [],
      "stateMutability": "nonpayable",
      "type": "function"
    },
    {
      "inputs": [
        {
          "internalType": "bytes32",
          "name": "role",
          "type": "bytes32"
        },
        {
          "internalType": "address",
          "name": "account",
          "type": "address"
        }
      ],
      "name": "revokeRole",
      "outputs": [],
      "stateMutability": "nonpayable",
      "type": "function"
    },
    {
      "inputs": [],
      "name": "sellTokenFee",
      "outputs": [
        {
          "internalType": "uint256",
          "name": "",
          "type": "uint256"
        }
      ],
      "stateMutability": "view",
      "type": "function"
    },
    {
      "inputs": [
        {
          "internalType": "uint256",
          "name": "_amountToken",
          "type": "uint256"
        }
      ],
      "name": "sellTokens",
      "outputs": [],
      "stateMutability": "nonpayable",
      "type": "function"
    },
    {
      "inputs": [
        {
          "internalType": "bytes4",
          "name": "interfaceId",
          "type": "bytes4"
        }
      ],
      "name": "supportsInterface",
      "outputs": [
        {
          "internalType": "bool",
          "name": "",
          "type": "bool"
        }
      ],
      "stateMutability": "view",
      "type": "function"
    },
    {
      "inputs": [],
      "name": "swapRate",
      "outputs": [
        {
          "internalType": "uint256",
          "name": "",
          "type": "uint256"
        }
      ],
      "stateMutability": "view",
      "type": "function"
    },
    {
      "inputs": [],
      "name": "token",
      "outputs": [
        {
          "internalType": "contract IERC20",
          "name": "",
          "type": "address"
        }
      ],
      "stateMutability": "view",
      "type": "function"
    },
    {
      "inputs": [],
      "name": "unpause",
      "outputs": [],
      "stateMutability": "nonpayable",
      "type": "function"
    },
    {
      "inputs": [
        {
          "internalType": "contract IERC20",
          "name": "token_",
          "type": "address"
        }
      ],
      "name": "updateChangeToken",
      "outputs": [],
      "stateMutability": "nonpayable",
      "type": "function"
    },
    {
      "inputs": [
        {
          "internalType": "address",
          "name": "pool",
          "type": "address"
        }
      ],
      "name": "updateChangeTokenPool",
      "outputs": [],
      "stateMutability": "nonpayable",
      "type": "function"
    },
    {
      "inputs": [
        {
          "internalType": "uint256",
          "name": "sellTokenFee_",
          "type": "uint256"
        }
      ],
      "name": "updateSellFee",
      "outputs": [],
      "stateMutability": "nonpayable",
      "type": "function"
    },
    {
      "inputs": [
        {
          "internalType": "uint256",
          "name": "swapRate_",
          "type": "uint256"
        }
      ],
      "name": "updateSwapRate",
      "outputs": [],
      "stateMutability": "nonpayable",
      "type": "function"
    },
    {
      "inputs": [
        {
          "internalType": "contract IERC20",
          "name": "token_",
          "type": "address"
        }
      ],
      "name": "updateToken",
      "outputs": [],
      "stateMutability": "nonpayable",
      "type": "function"
    },
    {
      "inputs": [
        {
          "internalType": "address",
          "name": "pool",
          "type": "address"
        }
      ],
      "name": "updateTokenPool",
      "outputs": [],
      "stateMutability": "nonpayable",
      "type": "function"
    }
  ],
  "transactionHash": "0xe51737273c690cbd0646f7da7863c35ac85020c2ddeab7a29fac4eb9d2a8bcaf",
  "args": [
    "0x0a499a2cbF6f214F1137018b2Df330a7E9C134fD",
    "0xFc069C719dC8f8a8A4384b87f9B4Fe2A47E124A8",
    "0xc2132D05D31c914a87C6611C10748AEb04B58e8F",
    "0x246494fC8e0A426AE42cA4E56E45FFAE5723c1D9",
    1000
  ],
  "numDeployments": 3,
  "solcInputHash": "c5a44eb8f65f636eadbc60dfc2fef651",
  "bytecode": "0x60806040526103e86002556012600355600660045560646006553480156200002657600080fd5b50604051620017c0380380620017c083398101604081905262000049916200017e565b6001805460ff1916905562000060600033620000c0565b600555600780546001600160a01b0395861661010002610100600160a81b0319909116179055600980549285166001600160a01b03199384161790556008805493851693831693909317909255600a8054929093169116179055620001e5565b6000828152602081815260408083206001600160a01b038516845290915290205460ff166200015d576000828152602081815260408083206001600160a01b03851684529091529020805460ff191660011790556200011c3390565b6001600160a01b0316816001600160a01b0316837f2f8788117e7eff1d82e926ec794901d17c78024a50270940304540a733656f0d60405160405180910390a45b5050565b80516001600160a01b03811681146200017957600080fd5b919050565b600080600080600060a086880312156200019757600080fd5b620001a28662000161565b9450620001b26020870162000161565b9350620001c26040870162000161565b9250620001d26060870162000161565b9150608086015190509295509295909350565b6115cb80620001f56000396000f3fe608060405234801561001057600080fd5b50600436106101da5760003560e01c80637ad3def211610104578063d547741f116100a2578063f1d9f88b11610071578063f1d9f88b146103aa578063f3e59414146103b2578063f73c41ff146103c5578063fc0c546a146103d857600080fd5b8063d547741f14610368578063df9ae2bb1461037b578063e69f365c1461038e578063e70e80a1146103a157600080fd5b80639c60d1d4116100de5780639c60d1d414610322578063a217fddf1461032d578063b9f9e83014610335578063cd58c8721461033d57600080fd5b80637ad3def2146102f45780638456cb591461030757806391d148541461030f57600080fd5b80635c975abb1161017c578063698518e51161014b578063698518e5146102b25780636c11bcd3146102bb57806376f19ff1146102ce5780637a35eb66146102e157600080fd5b80635c975abb1461028e5780635cca60e7146102995780635f56315b146102a157806362043bd8146102a957600080fd5b80632f2ff15d116101b85780632f2ff15d1461024d5780633610724e1461026057806336568abe146102735780633f4ba83a1461028657600080fd5b806301ffc9a7146101df5780631d933a4a14610207578063248a9ca31461021c575b600080fd5b6101f26101ed3660046111ca565b6103f0565b60405190151581526020015b60405180910390f35b61021a6102153660046111f4565b610427565b005b61023f61022a3660046111f4565b60009081526020819052604090206001015490565b6040519081526020016101fe565b61021a61025b366004611222565b610438565b61021a61026e3660046111f4565b610462565b61021a610281366004611222565b6105df565b61021a61065d565b60015460ff166101f2565b61023f610673565b61021a6106ee565b61023f60025481565b61023f60055481565b61021a6102c93660046111f4565b610709565b61021a6102dc366004611252565b6108fe565b61021a6102ef3660046111f4565b61092c565b61021a610302366004611252565b61093d565b61021a610971565b6101f261031d366004611222565b610984565b60075460ff166101f2565b61023f600081565b61021a6109ad565b600954610350906001600160a01b031681565b6040516001600160a01b0390911681526020016101fe565b61021a610376366004611222565b6109c5565b61023f6103893660046111f4565b6109ea565b61021a61039c366004611252565b610a37565b61023f60065481565b61023f610a65565b61021a6103c0366004611252565b610aa2565b61023f6103d33660046111f4565b610ad0565b6007546103509061010090046001600160a01b031681565b60006001600160e01b03198216637965db0b60e01b148061042157506301ffc9a760e01b6001600160e01b03198316145b92915050565b600061043281610aff565b50600655565b60008281526020819052604090206001015461045381610aff565b61045d8383610b09565b505050565b61046a610b8d565b6000610475826109ea565b9050600081116104c25760405162461bcd60e51b8152602060048201526013602482015272125b9cdd59999a58da595b9d08185b5bdd5b9d606a1b60448201526064015b60405180910390fd5b6007546008546040516370a0823160e01b81526001600160a01b03918216600482015283926101009004909116906370a0823190602401602060405180830381865afa158015610516573d6000803e3d6000fd5b505050506040513d601f19601f8201168201806040525081019061053a919061126f565b10156105585760405162461bcd60e51b81526004016104b990611288565b61057633600a546009546001600160a01b0390811692911685610bd5565b6008546105a0906001600160a01b03163360075461010090046001600160a01b0316919084610bd5565b604080518281526020810184905233917f8fafebcaf9d154343dad25669bfa277f4fbacd7ac6b0c4fed522580e040a0f33910160405180910390a25050565b6001600160a01b038116331461064f5760405162461bcd60e51b815260206004820152602f60248201527f416363657373436f6e74726f6c3a2063616e206f6e6c792072656e6f756e636560448201526e103937b632b9903337b91039b2b63360891b60648201526084016104b9565b6106598282610c35565b5050565b600061066881610aff565b610670610c9a565b50565b600954600a546040516370a0823160e01b81526001600160a01b03918216600482015260009291909116906370a08231906024015b602060405180830381865afa1580156106c5573d6000803e3d6000fd5b505050506040513d601f19601f820116820180604052508101906106e9919061126f565b905090565b60006106f981610aff565b506007805460ff19166001179055565b610711610b8d565b60075460ff166107635760405162461bcd60e51b815260206004820152601860248201527f53656c6c696e67206973206e6f7420617661696c61626c65000000000000000060448201526064016104b9565b600061076e82610ad0565b905060006002546006548361078391906112e0565b61078d91906112ff565b9050600061079b8284611321565b9050600081116107e35760405162461bcd60e51b8152602060048201526013602482015272125b9cdd59999a58da595b9d08185b5bdd5b9d606a1b60448201526064016104b9565b600954600a546040516370a0823160e01b81526001600160a01b039182166004820152839291909116906370a0823190602401602060405180830381865afa158015610833573d6000803e3d6000fd5b505050506040513d601f19601f82011682018060405250810190610857919061126f565b10156108755760405162461bcd60e51b81526004016104b990611288565b6108983360085460075461010090046001600160a01b0390811692911687610bd5565b600a546108bd906001600160a01b0316336009546001600160a01b0316919084610bd5565b604080518581526020810183905233917f2dcf9433d75db0d8b1c172641f85e319ffe4ad22e108a95d1847ceb906e5195d910160405180910390a250505050565b600061090981610aff565b50600a80546001600160a01b0319166001600160a01b0392909216919091179055565b600061093781610aff565b50600555565b600061094881610aff565b50600780546001600160a01b0390921661010002610100600160a81b0319909216919091179055565b600061097c81610aff565b610670610cec565b6000918252602082815260408084206001600160a01b0393909316845291905290205460ff1690565b60006109b881610aff565b506007805460ff19169055565b6000828152602081905260409020600101546109e081610aff565b61045d8383610c35565b6000600454600a6109fb919061141c565b600354610a0990600a61141c565b600254600554610a1990866112e0565b610a2391906112ff565b610a2d91906112e0565b61042191906112ff565b6000610a4281610aff565b50600980546001600160a01b0319166001600160a01b0392909216919091179055565b6007546008546040516370a0823160e01b81526001600160a01b0391821660048201526000926101009004909116906370a08231906024016106a8565b6000610aad81610aff565b50600880546001600160a01b0319166001600160a01b0392909216919091179055565b6000600354600a610ae1919061141c565b600454610aef90600a61141c565b600554600254610a1990866112e0565b6106708133610d27565b610b138282610984565b610659576000828152602081815260408083206001600160a01b03851684529091529020805460ff19166001179055610b493390565b6001600160a01b0316816001600160a01b0316837f2f8788117e7eff1d82e926ec794901d17c78024a50270940304540a733656f0d60405160405180910390a45050565b60015460ff1615610bd35760405162461bcd60e51b815260206004820152601060248201526f14185d5cd8589b194e881c185d5cd95960821b60448201526064016104b9565b565b604080516001600160a01b0385811660248301528416604482015260648082018490528251808303909101815260849091019091526020810180516001600160e01b03166323b872dd60e01b179052610c2f908590610d8b565b50505050565b610c3f8282610984565b15610659576000828152602081815260408083206001600160a01b0385168085529252808320805460ff1916905551339285917ff6391f5c32d9c69d2a47ea670b442974b53935d1edc7fd64eb21e047a839171b9190a45050565b610ca2610e5d565b6001805460ff191690557f5db9ee0a495bf2e6ff9c91a7834c1ba4fdd244a5e8aa4e537bd38aeae4b073aa335b6040516001600160a01b03909116815260200160405180910390a1565b610cf4610b8d565b6001805460ff1916811790557f62e78cea01bee320cd4e420270b5ea74000d11b0c9f74754ebdbfc544b05a25833610ccf565b610d318282610984565b61065957610d49816001600160a01b03166014610ea6565b610d54836020610ea6565b604051602001610d65929190611454565b60408051601f198184030181529082905262461bcd60e51b82526104b9916004016114c9565b6000610de0826040518060400160405280602081526020017f5361666545524332303a206c6f772d6c6576656c2063616c6c206661696c6564815250856001600160a01b03166110499092919063ffffffff16565b80519091501561045d5780806020019051810190610dfe91906114fc565b61045d5760405162461bcd60e51b815260206004820152602a60248201527f5361666545524332303a204552433230206f7065726174696f6e20646964206e6044820152691bdd081cdd58d8d9595960b21b60648201526084016104b9565b60015460ff16610bd35760405162461bcd60e51b815260206004820152601460248201527314185d5cd8589b194e881b9bdd081c185d5cd95960621b60448201526064016104b9565b60606000610eb58360026112e0565b610ec090600261151e565b67ffffffffffffffff811115610ed857610ed8611536565b6040519080825280601f01601f191660200182016040528015610f02576020820181803683370190505b509050600360fc1b81600081518110610f1d57610f1d61154c565b60200101906001600160f81b031916908160001a905350600f60fb1b81600181518110610f4c57610f4c61154c565b60200101906001600160f81b031916908160001a9053506000610f708460026112e0565b610f7b90600161151e565b90505b6001811115610ff3576f181899199a1a9b1b9c1cb0b131b232b360811b85600f1660108110610faf57610faf61154c565b1a60f81b828281518110610fc557610fc561154c565b60200101906001600160f81b031916908160001a90535060049490941c93610fec81611562565b9050610f7e565b5083156110425760405162461bcd60e51b815260206004820181905260248201527f537472696e67733a20686578206c656e67746820696e73756666696369656e7460448201526064016104b9565b9392505050565b60606110588484600085611060565b949350505050565b6060824710156110c15760405162461bcd60e51b815260206004820152602660248201527f416464726573733a20696e73756666696369656e742062616c616e636520666f6044820152651c8818d85b1b60d21b60648201526084016104b9565b6001600160a01b0385163b6111185760405162461bcd60e51b815260206004820152601d60248201527f416464726573733a2063616c6c20746f206e6f6e2d636f6e747261637400000060448201526064016104b9565b600080866001600160a01b031685876040516111349190611579565b60006040518083038185875af1925050503d8060008114611171576040519150601f19603f3d011682016040523d82523d6000602084013e611176565b606091505b5091509150611186828286611191565b979650505050505050565b606083156111a0575081611042565b8251156111b05782518084602001fd5b8160405162461bcd60e51b81526004016104b991906114c9565b6000602082840312156111dc57600080fd5b81356001600160e01b03198116811461104257600080fd5b60006020828403121561120657600080fd5b5035919050565b6001600160a01b038116811461067057600080fd5b6000806040838503121561123557600080fd5b8235915060208301356112478161120d565b809150509250929050565b60006020828403121561126457600080fd5b81356110428161120d565b60006020828403121561128157600080fd5b5051919050565b60208082526022908201527f4e6f7420656e6f75676820746f6b656e7320696e2065786368616e676520706f6040820152611bdb60f21b606082015260800190565b634e487b7160e01b600052601160045260246000fd5b60008160001904831182151516156112fa576112fa6112ca565b500290565b60008261131c57634e487b7160e01b600052601260045260246000fd5b500490565b600082821015611333576113336112ca565b500390565b600181815b80851115611373578160001904821115611359576113596112ca565b8085161561136657918102915b93841c939080029061133d565b509250929050565b60008261138a57506001610421565b8161139757506000610421565b81600181146113ad57600281146113b7576113d3565b6001915050610421565b60ff8411156113c8576113c86112ca565b50506001821b610421565b5060208310610133831016604e8410600b84101617156113f6575081810a610421565b6114008383611338565b8060001904821115611414576114146112ca565b029392505050565b6000611042838361137b565b60005b8381101561144357818101518382015260200161142b565b83811115610c2f5750506000910152565b7f416363657373436f6e74726f6c3a206163636f756e742000000000000000000081526000835161148c816017850160208801611428565b7001034b99036b4b9b9b4b733903937b6329607d1b60179184019182015283516114bd816028840160208801611428565b01602801949350505050565b60208152600082518060208401526114e8816040850160208701611428565b601f01601f19169190910160400192915050565b60006020828403121561150e57600080fd5b8151801515811461104257600080fd5b60008219821115611531576115316112ca565b500190565b634e487b7160e01b600052604160045260246000fd5b634e487b7160e01b600052603260045260246000fd5b600081611571576115716112ca565b506000190190565b6000825161158b818460208701611428565b919091019291505056fea26469706673582212206ea34d4eeb3065ed59e2a7a9e0d06ff9b5e5b63f0fb5a279b0a1327360c6e34a64736f6c634300080b0033",
  "devdoc": {
    "kind": "dev",
    "methods": {
      "getRoleAdmin(bytes32)": {
        "details": "Returns the admin role that controls `role`. See {grantRole} and {revokeRole}. To change a role's admin, use {_setRoleAdmin}."
      },
      "grantRole(bytes32,address)": {
        "details": "Grants `role` to `account`. If `account` had not been already granted `role`, emits a {RoleGranted} event. Requirements: - the caller must have ``role``'s admin role. May emit a {RoleGranted} event."
      },
      "hasRole(bytes32,address)": {
        "details": "Returns `true` if `account` has been granted `role`."
      },
      "paused()": {
        "details": "Returns true if the contract is paused, and false otherwise."
      },
      "renounceRole(bytes32,address)": {
        "details": "Revokes `role` from the calling account. Roles are often managed via {grantRole} and {revokeRole}: this function's purpose is to provide a mechanism for accounts to lose their privileges if they are compromised (such as when a trusted device is misplaced). If the calling account had been revoked `role`, emits a {RoleRevoked} event. Requirements: - the caller must be `account`. May emit a {RoleRevoked} event."
      },
      "revokeRole(bytes32,address)": {
        "details": "Revokes `role` from `account`. If `account` had been granted `role`, emits a {RoleRevoked} event. Requirements: - the caller must have ``role``'s admin role. May emit a {RoleRevoked} event."
      },
      "supportsInterface(bytes4)": {
        "details": "See {IERC165-supportsInterface}."
      }
    },
    "version": 1
  },
  "userdoc": {
    "kind": "user",
    "methods": {},
    "version": 1
  },
  "storageLayout": {
    "storage": [
      {
        "astId": 178,
        "contract": "contracts/VendorSell.sol:VendorSell",
        "label": "_roles",
        "offset": 0,
        "slot": "0",
        "type": "t_mapping(t_bytes32,t_struct(RoleData)173_storage)"
      },
      {
        "astId": 696,
        "contract": "contracts/VendorSell.sol:VendorSell",
        "label": "_paused",
        "offset": 0,
        "slot": "1",
        "type": "t_bool"
      },
      {
        "astId": 12353,
        "contract": "contracts/VendorSell.sol:VendorSell",
        "label": "DIVIDER",
        "offset": 0,
        "slot": "2",
        "type": "t_uint256"
      },
      {
        "astId": 12356,
        "contract": "contracts/VendorSell.sol:VendorSell",
        "label": "TOKEN_DECIMALS",
        "offset": 0,
        "slot": "3",
        "type": "t_uint256"
      },
      {
        "astId": 12359,
        "contract": "contracts/VendorSell.sol:VendorSell",
        "label": "CHANGE_TOKEN_DECIMALS",
        "offset": 0,
        "slot": "4",
        "type": "t_uint256"
      },
      {
        "astId": 12361,
        "contract": "contracts/VendorSell.sol:VendorSell",
        "label": "swapRate",
        "offset": 0,
        "slot": "5",
        "type": "t_uint256"
      },
      {
        "astId": 12364,
        "contract": "contracts/VendorSell.sol:VendorSell",
        "label": "sellTokenFee",
        "offset": 0,
        "slot": "6",
        "type": "t_uint256"
      },
      {
        "astId": 12366,
        "contract": "contracts/VendorSell.sol:VendorSell",
        "label": "_isSellAvailable",
        "offset": 0,
        "slot": "7",
        "type": "t_bool"
      },
      {
        "astId": 12369,
        "contract": "contracts/VendorSell.sol:VendorSell",
        "label": "token",
        "offset": 1,
        "slot": "7",
        "type": "t_contract(IERC20)3117"
      },
      {
        "astId": 12371,
        "contract": "contracts/VendorSell.sol:VendorSell",
        "label": "_tokenPool",
        "offset": 0,
        "slot": "8",
        "type": "t_address"
      },
      {
        "astId": 12374,
        "contract": "contracts/VendorSell.sol:VendorSell",
        "label": "changeToken",
        "offset": 0,
        "slot": "9",
        "type": "t_contract(IERC20)3117"
      },
      {
        "astId": 12376,
        "contract": "contracts/VendorSell.sol:VendorSell",
        "label": "_changeTokenPool",
        "offset": 0,
        "slot": "10",
        "type": "t_address"
      }
    ],
    "types": {
      "t_address": {
        "encoding": "inplace",
        "label": "address",
        "numberOfBytes": "20"
      },
      "t_bool": {
        "encoding": "inplace",
        "label": "bool",
        "numberOfBytes": "1"
      },
      "t_bytes32": {
        "encoding": "inplace",
        "label": "bytes32",
        "numberOfBytes": "32"
      },
      "t_contract(IERC20)3117": {
        "encoding": "inplace",
        "label": "contract IERC20",
        "numberOfBytes": "20"
      },
      "t_mapping(t_address,t_bool)": {
        "encoding": "mapping",
        "key": "t_address",
        "label": "mapping(address => bool)",
        "numberOfBytes": "32",
        "value": "t_bool"
      },
      "t_mapping(t_bytes32,t_struct(RoleData)173_storage)": {
        "encoding": "mapping",
        "key": "t_bytes32",
        "label": "mapping(bytes32 => struct AccessControl.RoleData)",
        "numberOfBytes": "32",
        "value": "t_struct(RoleData)173_storage"
      },
      "t_struct(RoleData)173_storage": {
        "encoding": "inplace",
        "label": "struct AccessControl.RoleData",
        "members": [
          {
            "astId": 170,
            "contract": "contracts/VendorSell.sol:VendorSell",
            "label": "members",
            "offset": 0,
            "slot": "0",
            "type": "t_mapping(t_address,t_bool)"
          },
          {
            "astId": 172,
            "contract": "contracts/VendorSell.sol:VendorSell",
            "label": "adminRole",
            "offset": 0,
            "slot": "1",
            "type": "t_bytes32"
          }
        ],
        "numberOfBytes": "64"
      },
      "t_uint256": {
        "encoding": "inplace",
        "label": "uint256",
        "numberOfBytes": "32"
      }
    }
  }
}